{
	"Hash.sol": {
		"SHA256": {
			"abi": [
				{
					"inputs": [
						{
							"internalType": "string",
							"name": "_text",
							"type": "string"
						}
					],
					"name": "Hash",
					"outputs": [
						{
							"internalType": "bytes32",
							"name": "",
							"type": "bytes32"
						}
					],
					"stateMutability": "pure",
					"type": "function"
				},
				{
					"inputs": [
						{
							"internalType": "string",
							"name": "str",
							"type": "string"
						}
					],
					"name": "getFirstChar",
					"outputs": [
						{
							"internalType": "bytes1",
							"name": "",
							"type": "bytes1"
						}
					],
					"stateMutability": "pure",
					"type": "function"
				},
				{
					"inputs": [],
					"name": "getMoney",
					"outputs": [],
					"stateMutability": "payable",
					"type": "function"
				},
				{
					"inputs": [
						{
							"internalType": "address",
							"name": "_to",
							"type": "address"
						},
						{
							"internalType": "uint256",
							"name": "_ammount",
							"type": "uint256"
						}
					],
					"name": "transfer",
					"outputs": [],
					"stateMutability": "payable",
					"type": "function"
				}
			],
			"devdoc": {
				"kind": "dev",
				"methods": {},
				"version": 1
			},
			"evm": {
				"assembly": "    /* \"Hash.sol\":59:510  contract SHA256{... */\n  mstore(0x40, 0x80)\n  callvalue\n  dup1\n  iszero\n  tag_1\n  jumpi\n  0x00\n  dup1\n  revert\ntag_1:\n  pop\n  dataSize(sub_0)\n  dup1\n  dataOffset(sub_0)\n  0x00\n  codecopy\n  0x00\n  return\nstop\n\nsub_0: assembly {\n        /* \"Hash.sol\":59:510  contract SHA256{... */\n      mstore(0x40, 0x80)\n      jumpi(tag_1, lt(calldatasize, 0x04))\n      shr(0xe0, calldataload(0x00))\n      dup1\n      0x79ff2312\n      eq\n      tag_2\n      jumpi\n      dup1\n      0x98e1b410\n      eq\n      tag_3\n      jumpi\n      dup1\n      0xa9059cbb\n      eq\n      tag_4\n      jumpi\n      dup1\n      0xbc780a0c\n      eq\n      tag_5\n      jumpi\n    tag_1:\n      0x00\n      dup1\n      revert\n        /* \"Hash.sol\":80:187  function getFirstChar(string memory str) public pure returns (bytes1) {... */\n    tag_2:\n      callvalue\n      dup1\n      iszero\n      tag_6\n      jumpi\n      0x00\n      dup1\n      revert\n    tag_6:\n      pop\n      tag_7\n      0x04\n      dup1\n      calldatasize\n      sub\n      dup2\n      add\n      swap1\n      tag_8\n      swap2\n      swap1\n      tag_9\n      jump\t// in\n    tag_8:\n      tag_10\n      jump\t// in\n    tag_7:\n      mload(0x40)\n      tag_11\n      swap2\n      swap1\n      tag_12\n      jump\t// in\n    tag_11:\n      mload(0x40)\n      dup1\n      swap2\n      sub\n      swap1\n      return\n        /* \"Hash.sol\":350:393  function getMoney() payable public {... */\n    tag_3:\n      tag_13\n      tag_14\n      jump\t// in\n    tag_13:\n      stop\n        /* \"Hash.sol\":399:508  function transfer(address _to, uint _ammount) public payable {... */\n    tag_4:\n      tag_15\n      0x04\n      dup1\n      calldatasize\n      sub\n      dup2\n      add\n      swap1\n      tag_16\n      swap2\n      swap1\n      tag_17\n      jump\t// in\n    tag_16:\n      tag_18\n      jump\t// in\n    tag_15:\n      stop\n        /* \"Hash.sol\":192:311  function Hash(string memory _text) public pure returns (bytes32){... */\n    tag_5:\n      callvalue\n      dup1\n      iszero\n      tag_19\n      jumpi\n      0x00\n      dup1\n      revert\n    tag_19:\n      pop\n      tag_20\n      0x04\n      dup1\n      calldatasize\n      sub\n      dup2\n      add\n      swap1\n      tag_21\n      swap2\n      swap1\n      tag_9\n      jump\t// in\n    tag_21:\n      tag_22\n      jump\t// in\n    tag_20:\n      mload(0x40)\n      tag_23\n      swap2\n      swap1\n      tag_24\n      jump\t// in\n    tag_23:\n      mload(0x40)\n      dup1\n      swap2\n      sub\n      swap1\n      return\n        /* \"Hash.sol\":80:187  function getFirstChar(string memory str) public pure returns (bytes1) {... */\n    tag_10:\n        /* \"Hash.sol\":142:148  bytes1 */\n      0x00\n        /* \"Hash.sol\":173:176  str */\n      dup2\n        /* \"Hash.sol\":178:179  0 */\n      0x00\n        /* \"Hash.sol\":167:180  bytes(str)[0] */\n      dup2\n      mload\n      dup2\n      lt\n      tag_26\n      jumpi\n      tag_27\n      tag_28\n      jump\t// in\n    tag_27:\n    tag_26:\n      0x20\n      add\n      add\n      mload\n      0xf8\n      shr\n      0xf8\n      shl\n        /* \"Hash.sol\":160:180  return bytes(str)[0] */\n      swap1\n      pop\n        /* \"Hash.sol\":80:187  function getFirstChar(string memory str) public pure returns (bytes1) {... */\n      swap2\n      swap1\n      pop\n      jump\t// out\n        /* \"Hash.sol\":350:393  function getMoney() payable public {... */\n    tag_14:\n      jump\t// out\n        /* \"Hash.sol\":399:508  function transfer(address _to, uint _ammount) public payable {... */\n    tag_18:\n        /* \"Hash.sol\":478:481  _to */\n      dup2\n        /* \"Hash.sol\":470:491  payable(_to).transfer */\n      0xffffffffffffffffffffffffffffffffffffffff\n      and\n        /* \"Hash.sol\":470:501  payable(_to).transfer(_ammount) */\n      0x08fc\n        /* \"Hash.sol\":492:500  _ammount */\n      dup3\n        /* \"Hash.sol\":470:501  payable(_to).transfer(_ammount) */\n      swap1\n      dup2\n      iszero\n      mul\n      swap1\n      mload(0x40)\n      0x00\n      mload(0x40)\n      dup1\n      dup4\n      sub\n      dup2\n      dup6\n      dup9\n      dup9\n      call\n      swap4\n      pop\n      pop\n      pop\n      pop\n      iszero\n      dup1\n      iszero\n      tag_32\n      jumpi\n      returndatasize\n      0x00\n      dup1\n      returndatacopy\n      revert(0x00, returndatasize)\n    tag_32:\n      pop\n        /* \"Hash.sol\":399:508  function transfer(address _to, uint _ammount) public payable {... */\n      pop\n      pop\n      jump\t// out\n        /* \"Hash.sol\":192:311  function Hash(string memory _text) public pure returns (bytes32){... */\n    tag_22:\n        /* \"Hash.sol\":248:255  bytes32 */\n      0x00\n        /* \"Hash.sol\":273:304  sha256(abi.encodePacked(_text)) */\n      0x02\n        /* \"Hash.sol\":297:302  _text */\n      dup3\n        /* \"Hash.sol\":280:303  abi.encodePacked(_text) */\n      add(0x20, mload(0x40))\n      tag_34\n      swap2\n      swap1\n      tag_35\n      jump\t// in\n    tag_34:\n      mload(0x40)\n      0x20\n      dup2\n      dup4\n      sub\n      sub\n      dup2\n      mstore\n      swap1\n      0x40\n      mstore\n        /* \"Hash.sol\":273:304  sha256(abi.encodePacked(_text)) */\n      mload(0x40)\n      tag_36\n      swap2\n      swap1\n      tag_37\n      jump\t// in\n    tag_36:\n      0x20\n      mload(0x40)\n      dup1\n      dup4\n      sub\n      dup2\n      dup6\n      gas\n      staticcall\n      iszero\n      dup1\n      iszero\n      tag_39\n      jumpi\n      returndatasize\n      0x00\n      dup1\n      returndatacopy\n      revert(0x00, returndatasize)\n    tag_39:\n      pop\n      pop\n      pop\n      mload(0x40)\n      returndatasize\n      not(0x1f)\n      0x1f\n      dup3\n      add\n      and\n      dup3\n      add\n      dup1\n      0x40\n      mstore\n      pop\n      dup2\n      add\n      swap1\n      tag_40\n      swap2\n      swap1\n      tag_41\n      jump\t// in\n    tag_40:\n        /* \"Hash.sol\":266:304  return sha256(abi.encodePacked(_text)) */\n      swap1\n      pop\n        /* \"Hash.sol\":192:311  function Hash(string memory _text) public pure returns (bytes32){... */\n      swap2\n      swap1\n      pop\n      jump\t// out\n        /* \"#utility.yul\":7:82   */\n    tag_42:\n        /* \"#utility.yul\":40:46   */\n      0x00\n        /* \"#utility.yul\":73:75   */\n      0x40\n        /* \"#utility.yul\":67:76   */\n      mload\n        /* \"#utility.yul\":57:76   */\n      swap1\n      pop\n        /* \"#utility.yul\":7:82   */\n      swap1\n      jump\t// out\n        /* \"#utility.yul\":88:205   */\n    tag_43:\n        /* \"#utility.yul\":197:198   */\n      0x00\n        /* \"#utility.yul\":194:195   */\n      dup1\n        /* \"#utility.yul\":187:199   */\n      revert\n        /* \"#utility.yul\":211:328   */\n    tag_44:\n        /* \"#utility.yul\":320:321   */\n      0x00\n        /* \"#utility.yul\":317:318   */\n      dup1\n        /* \"#utility.yul\":310:322   */\n      revert\n        /* \"#utility.yul\":334:451   */\n    tag_45:\n        /* \"#utility.yul\":443:444   */\n      0x00\n        /* \"#utility.yul\":440:441   */\n      dup1\n        /* \"#utility.yul\":433:445   */\n      revert\n        /* \"#utility.yul\":457:574   */\n    tag_46:\n        /* \"#utility.yul\":566:567   */\n      0x00\n        /* \"#utility.yul\":563:564   */\n      dup1\n        /* \"#utility.yul\":556:568   */\n      revert\n        /* \"#utility.yul\":580:682   */\n    tag_47:\n        /* \"#utility.yul\":621:627   */\n      0x00\n        /* \"#utility.yul\":672:674   */\n      0x1f\n        /* \"#utility.yul\":668:675   */\n      not\n        /* \"#utility.yul\":663:665   */\n      0x1f\n        /* \"#utility.yul\":656:661   */\n      dup4\n        /* \"#utility.yul\":652:666   */\n      add\n        /* \"#utility.yul\":648:676   */\n      and\n        /* \"#utility.yul\":638:676   */\n      swap1\n      pop\n        /* \"#utility.yul\":580:682   */\n      swap2\n      swap1\n      pop\n      jump\t// out\n        /* \"#utility.yul\":688:868   */\n    tag_48:\n        /* \"#utility.yul\":736:813   */\n      0x4e487b7100000000000000000000000000000000000000000000000000000000\n        /* \"#utility.yul\":733:734   */\n      0x00\n        /* \"#utility.yul\":726:814   */\n      mstore\n        /* \"#utility.yul\":833:837   */\n      0x41\n        /* \"#utility.yul\":830:831   */\n      0x04\n        /* \"#utility.yul\":823:838   */\n      mstore\n        /* \"#utility.yul\":857:861   */\n      0x24\n        /* \"#utility.yul\":854:855   */\n      0x00\n        /* \"#utility.yul\":847:862   */\n      revert\n        /* \"#utility.yul\":874:1155   */\n    tag_49:\n        /* \"#utility.yul\":957:984   */\n      tag_84\n        /* \"#utility.yul\":979:983   */\n      dup3\n        /* \"#utility.yul\":957:984   */\n      tag_47\n      jump\t// in\n    tag_84:\n        /* \"#utility.yul\":949:955   */\n      dup2\n        /* \"#utility.yul\":945:985   */\n      add\n        /* \"#utility.yul\":1087:1093   */\n      dup2\n        /* \"#utility.yul\":1075:1085   */\n      dup2\n        /* \"#utility.yul\":1072:1094   */\n      lt\n        /* \"#utility.yul\":1051:1069   */\n      0xffffffffffffffff\n        /* \"#utility.yul\":1039:1049   */\n      dup3\n        /* \"#utility.yul\":1036:1070   */\n      gt\n        /* \"#utility.yul\":1033:1095   */\n      or\n        /* \"#utility.yul\":1030:1118   */\n      iszero\n      tag_85\n      jumpi\n        /* \"#utility.yul\":1098:1116   */\n      tag_86\n      tag_48\n      jump\t// in\n    tag_86:\n        /* \"#utility.yul\":1030:1118   */\n    tag_85:\n        /* \"#utility.yul\":1138:1148   */\n      dup1\n        /* \"#utility.yul\":1134:1136   */\n      0x40\n        /* \"#utility.yul\":1127:1149   */\n      mstore\n        /* \"#utility.yul\":917:1155   */\n      pop\n        /* \"#utility.yul\":874:1155   */\n      pop\n      pop\n      jump\t// out\n        /* \"#utility.yul\":1161:1290   */\n    tag_50:\n        /* \"#utility.yul\":1195:1201   */\n      0x00\n        /* \"#utility.yul\":1222:1242   */\n      tag_88\n      tag_42\n      jump\t// in\n    tag_88:\n        /* \"#utility.yul\":1212:1242   */\n      swap1\n      pop\n        /* \"#utility.yul\":1251:1284   */\n      tag_89\n        /* \"#utility.yul\":1279:1283   */\n      dup3\n        /* \"#utility.yul\":1271:1277   */\n      dup3\n        /* \"#utility.yul\":1251:1284   */\n      tag_49\n      jump\t// in\n    tag_89:\n        /* \"#utility.yul\":1161:1290   */\n      swap2\n      swap1\n      pop\n      jump\t// out\n        /* \"#utility.yul\":1296:1604   */\n    tag_51:\n        /* \"#utility.yul\":1358:1362   */\n      0x00\n        /* \"#utility.yul\":1448:1466   */\n      0xffffffffffffffff\n        /* \"#utility.yul\":1440:1446   */\n      dup3\n        /* \"#utility.yul\":1437:1467   */\n      gt\n        /* \"#utility.yul\":1434:1490   */\n      iszero\n      tag_91\n      jumpi\n        /* \"#utility.yul\":1470:1488   */\n      tag_92\n      tag_48\n      jump\t// in\n    tag_92:\n        /* \"#utility.yul\":1434:1490   */\n    tag_91:\n        /* \"#utility.yul\":1508:1537   */\n      tag_93\n        /* \"#utility.yul\":1530:1536   */\n      dup3\n        /* \"#utility.yul\":1508:1537   */\n      tag_47\n      jump\t// in\n    tag_93:\n        /* \"#utility.yul\":1500:1537   */\n      swap1\n      pop\n        /* \"#utility.yul\":1592:1596   */\n      0x20\n        /* \"#utility.yul\":1586:1590   */\n      dup2\n        /* \"#utility.yul\":1582:1597   */\n      add\n        /* \"#utility.yul\":1574:1597   */\n      swap1\n      pop\n        /* \"#utility.yul\":1296:1604   */\n      swap2\n      swap1\n      pop\n      jump\t// out\n        /* \"#utility.yul\":1610:1756   */\n    tag_52:\n        /* \"#utility.yul\":1707:1713   */\n      dup3\n        /* \"#utility.yul\":1702:1705   */\n      dup2\n        /* \"#utility.yul\":1697:1700   */\n      dup4\n        /* \"#utility.yul\":1684:1714   */\n      calldatacopy\n        /* \"#utility.yul\":1748:1749   */\n      0x00\n        /* \"#utility.yul\":1739:1745   */\n      dup4\n        /* \"#utility.yul\":1734:1737   */\n      dup4\n        /* \"#utility.yul\":1730:1746   */\n      add\n        /* \"#utility.yul\":1723:1750   */\n      mstore\n        /* \"#utility.yul\":1610:1756   */\n      pop\n      pop\n      pop\n      jump\t// out\n        /* \"#utility.yul\":1762:2187   */\n    tag_53:\n        /* \"#utility.yul\":1840:1845   */\n      0x00\n        /* \"#utility.yul\":1865:1931   */\n      tag_96\n        /* \"#utility.yul\":1881:1930   */\n      tag_97\n        /* \"#utility.yul\":1923:1929   */\n      dup5\n        /* \"#utility.yul\":1881:1930   */\n      tag_51\n      jump\t// in\n    tag_97:\n        /* \"#utility.yul\":1865:1931   */\n      tag_50\n      jump\t// in\n    tag_96:\n        /* \"#utility.yul\":1856:1931   */\n      swap1\n      pop\n        /* \"#utility.yul\":1954:1960   */\n      dup3\n        /* \"#utility.yul\":1947:1952   */\n      dup2\n        /* \"#utility.yul\":1940:1961   */\n      mstore\n        /* \"#utility.yul\":1992:1996   */\n      0x20\n        /* \"#utility.yul\":1985:1990   */\n      dup2\n        /* \"#utility.yul\":1981:1997   */\n      add\n        /* \"#utility.yul\":2030:2033   */\n      dup5\n        /* \"#utility.yul\":2021:2027   */\n      dup5\n        /* \"#utility.yul\":2016:2019   */\n      dup5\n        /* \"#utility.yul\":2012:2028   */\n      add\n        /* \"#utility.yul\":2009:2034   */\n      gt\n        /* \"#utility.yul\":2006:2118   */\n      iszero\n      tag_98\n      jumpi\n        /* \"#utility.yul\":2037:2116   */\n      tag_99\n      tag_46\n      jump\t// in\n    tag_99:\n        /* \"#utility.yul\":2006:2118   */\n    tag_98:\n        /* \"#utility.yul\":2127:2181   */\n      tag_100\n        /* \"#utility.yul\":2174:2180   */\n      dup5\n        /* \"#utility.yul\":2169:2172   */\n      dup3\n        /* \"#utility.yul\":2164:2167   */\n      dup6\n        /* \"#utility.yul\":2127:2181   */\n      tag_52\n      jump\t// in\n    tag_100:\n        /* \"#utility.yul\":1846:2187   */\n      pop\n        /* \"#utility.yul\":1762:2187   */\n      swap4\n      swap3\n      pop\n      pop\n      pop\n      jump\t// out\n        /* \"#utility.yul\":2207:2547   */\n    tag_54:\n        /* \"#utility.yul\":2263:2268   */\n      0x00\n        /* \"#utility.yul\":2312:2315   */\n      dup3\n        /* \"#utility.yul\":2305:2309   */\n      0x1f\n        /* \"#utility.yul\":2297:2303   */\n      dup4\n        /* \"#utility.yul\":2293:2310   */\n      add\n        /* \"#utility.yul\":2289:2316   */\n      slt\n        /* \"#utility.yul\":2279:2401   */\n      tag_102\n      jumpi\n        /* \"#utility.yul\":2320:2399   */\n      tag_103\n      tag_45\n      jump\t// in\n    tag_103:\n        /* \"#utility.yul\":2279:2401   */\n    tag_102:\n        /* \"#utility.yul\":2437:2443   */\n      dup2\n        /* \"#utility.yul\":2424:2444   */\n      calldataload\n        /* \"#utility.yul\":2462:2541   */\n      tag_104\n        /* \"#utility.yul\":2537:2540   */\n      dup5\n        /* \"#utility.yul\":2529:2535   */\n      dup3\n        /* \"#utility.yul\":2522:2526   */\n      0x20\n        /* \"#utility.yul\":2514:2520   */\n      dup7\n        /* \"#utility.yul\":2510:2527   */\n      add\n        /* \"#utility.yul\":2462:2541   */\n      tag_53\n      jump\t// in\n    tag_104:\n        /* \"#utility.yul\":2453:2541   */\n      swap2\n      pop\n        /* \"#utility.yul\":2269:2547   */\n      pop\n        /* \"#utility.yul\":2207:2547   */\n      swap3\n      swap2\n      pop\n      pop\n      jump\t// out\n        /* \"#utility.yul\":2553:3062   */\n    tag_9:\n        /* \"#utility.yul\":2622:2628   */\n      0x00\n        /* \"#utility.yul\":2671:2673   */\n      0x20\n        /* \"#utility.yul\":2659:2668   */\n      dup3\n        /* \"#utility.yul\":2650:2657   */\n      dup5\n        /* \"#utility.yul\":2646:2669   */\n      sub\n        /* \"#utility.yul\":2642:2674   */\n      slt\n        /* \"#utility.yul\":2639:2758   */\n      iszero\n      tag_106\n      jumpi\n        /* \"#utility.yul\":2677:2756   */\n      tag_107\n      tag_43\n      jump\t// in\n    tag_107:\n        /* \"#utility.yul\":2639:2758   */\n    tag_106:\n        /* \"#utility.yul\":2825:2826   */\n      0x00\n        /* \"#utility.yul\":2814:2823   */\n      dup3\n        /* \"#utility.yul\":2810:2827   */\n      add\n        /* \"#utility.yul\":2797:2828   */\n      calldataload\n        /* \"#utility.yul\":2855:2873   */\n      0xffffffffffffffff\n        /* \"#utility.yul\":2847:2853   */\n      dup2\n        /* \"#utility.yul\":2844:2874   */\n      gt\n        /* \"#utility.yul\":2841:2958   */\n      iszero\n      tag_108\n      jumpi\n        /* \"#utility.yul\":2877:2956   */\n      tag_109\n      tag_44\n      jump\t// in\n    tag_109:\n        /* \"#utility.yul\":2841:2958   */\n    tag_108:\n        /* \"#utility.yul\":2982:3045   */\n      tag_110\n        /* \"#utility.yul\":3037:3044   */\n      dup5\n        /* \"#utility.yul\":3028:3034   */\n      dup3\n        /* \"#utility.yul\":3017:3026   */\n      dup6\n        /* \"#utility.yul\":3013:3035   */\n      add\n        /* \"#utility.yul\":2982:3045   */\n      tag_54\n      jump\t// in\n    tag_110:\n        /* \"#utility.yul\":2972:3045   */\n      swap2\n      pop\n        /* \"#utility.yul\":2768:3055   */\n      pop\n        /* \"#utility.yul\":2553:3062   */\n      swap3\n      swap2\n      pop\n      pop\n      jump\t// out\n        /* \"#utility.yul\":3068:3217   */\n    tag_55:\n        /* \"#utility.yul\":3104:3111   */\n      0x00\n        /* \"#utility.yul\":3144:3210   */\n      0xff00000000000000000000000000000000000000000000000000000000000000\n        /* \"#utility.yul\":3137:3142   */\n      dup3\n        /* \"#utility.yul\":3133:3211   */\n      and\n        /* \"#utility.yul\":3122:3211   */\n      swap1\n      pop\n        /* \"#utility.yul\":3068:3217   */\n      swap2\n      swap1\n      pop\n      jump\t// out\n        /* \"#utility.yul\":3223:3338   */\n    tag_56:\n        /* \"#utility.yul\":3308:3331   */\n      tag_113\n        /* \"#utility.yul\":3325:3330   */\n      dup2\n        /* \"#utility.yul\":3308:3331   */\n      tag_55\n      jump\t// in\n    tag_113:\n        /* \"#utility.yul\":3303:3306   */\n      dup3\n        /* \"#utility.yul\":3296:3332   */\n      mstore\n        /* \"#utility.yul\":3223:3338   */\n      pop\n      pop\n      jump\t// out\n        /* \"#utility.yul\":3344:3562   */\n    tag_12:\n        /* \"#utility.yul\":3435:3439   */\n      0x00\n        /* \"#utility.yul\":3473:3475   */\n      0x20\n        /* \"#utility.yul\":3462:3471   */\n      dup3\n        /* \"#utility.yul\":3458:3476   */\n      add\n        /* \"#utility.yul\":3450:3476   */\n      swap1\n      pop\n        /* \"#utility.yul\":3486:3555   */\n      tag_115\n        /* \"#utility.yul\":3552:3553   */\n      0x00\n        /* \"#utility.yul\":3541:3550   */\n      dup4\n        /* \"#utility.yul\":3537:3554   */\n      add\n        /* \"#utility.yul\":3528:3534   */\n      dup5\n        /* \"#utility.yul\":3486:3555   */\n      tag_56\n      jump\t// in\n    tag_115:\n        /* \"#utility.yul\":3344:3562   */\n      swap3\n      swap2\n      pop\n      pop\n      jump\t// out\n        /* \"#utility.yul\":3568:3694   */\n    tag_57:\n        /* \"#utility.yul\":3605:3612   */\n      0x00\n        /* \"#utility.yul\":3645:3687   */\n      0xffffffffffffffffffffffffffffffffffffffff\n        /* \"#utility.yul\":3638:3643   */\n      dup3\n        /* \"#utility.yul\":3634:3688   */\n      and\n        /* \"#utility.yul\":3623:3688   */\n      swap1\n      pop\n        /* \"#utility.yul\":3568:3694   */\n      swap2\n      swap1\n      pop\n      jump\t// out\n        /* \"#utility.yul\":3700:3796   */\n    tag_58:\n        /* \"#utility.yul\":3737:3744   */\n      0x00\n        /* \"#utility.yul\":3766:3790   */\n      tag_118\n        /* \"#utility.yul\":3784:3789   */\n      dup3\n        /* \"#utility.yul\":3766:3790   */\n      tag_57\n      jump\t// in\n    tag_118:\n        /* \"#utility.yul\":3755:3790   */\n      swap1\n      pop\n        /* \"#utility.yul\":3700:3796   */\n      swap2\n      swap1\n      pop\n      jump\t// out\n        /* \"#utility.yul\":3802:3924   */\n    tag_59:\n        /* \"#utility.yul\":3875:3899   */\n      tag_120\n        /* \"#utility.yul\":3893:3898   */\n      dup2\n        /* \"#utility.yul\":3875:3899   */\n      tag_58\n      jump\t// in\n    tag_120:\n        /* \"#utility.yul\":3868:3873   */\n      dup2\n        /* \"#utility.yul\":3865:3900   */\n      eq\n        /* \"#utility.yul\":3855:3918   */\n      tag_121\n      jumpi\n        /* \"#utility.yul\":3914:3915   */\n      0x00\n        /* \"#utility.yul\":3911:3912   */\n      dup1\n        /* \"#utility.yul\":3904:3916   */\n      revert\n        /* \"#utility.yul\":3855:3918   */\n    tag_121:\n        /* \"#utility.yul\":3802:3924   */\n      pop\n      jump\t// out\n        /* \"#utility.yul\":3930:4069   */\n    tag_60:\n        /* \"#utility.yul\":3976:3981   */\n      0x00\n        /* \"#utility.yul\":4014:4020   */\n      dup2\n        /* \"#utility.yul\":4001:4021   */\n      calldataload\n        /* \"#utility.yul\":3992:4021   */\n      swap1\n      pop\n        /* \"#utility.yul\":4030:4063   */\n      tag_123\n        /* \"#utility.yul\":4057:4062   */\n      dup2\n        /* \"#utility.yul\":4030:4063   */\n      tag_59\n      jump\t// in\n    tag_123:\n        /* \"#utility.yul\":3930:4069   */\n      swap3\n      swap2\n      pop\n      pop\n      jump\t// out\n        /* \"#utility.yul\":4075:4152   */\n    tag_61:\n        /* \"#utility.yul\":4112:4119   */\n      0x00\n        /* \"#utility.yul\":4141:4146   */\n      dup2\n        /* \"#utility.yul\":4130:4146   */\n      swap1\n      pop\n        /* \"#utility.yul\":4075:4152   */\n      swap2\n      swap1\n      pop\n      jump\t// out\n        /* \"#utility.yul\":4158:4280   */\n    tag_62:\n        /* \"#utility.yul\":4231:4255   */\n      tag_126\n        /* \"#utility.yul\":4249:4254   */\n      dup2\n        /* \"#utility.yul\":4231:4255   */\n      tag_61\n      jump\t// in\n    tag_126:\n        /* \"#utility.yul\":4224:4229   */\n      dup2\n        /* \"#utility.yul\":4221:4256   */\n      eq\n        /* \"#utility.yul\":4211:4274   */\n      tag_127\n      jumpi\n        /* \"#utility.yul\":4270:4271   */\n      0x00\n        /* \"#utility.yul\":4267:4268   */\n      dup1\n        /* \"#utility.yul\":4260:4272   */\n      revert\n        /* \"#utility.yul\":4211:4274   */\n    tag_127:\n        /* \"#utility.yul\":4158:4280   */\n      pop\n      jump\t// out\n        /* \"#utility.yul\":4286:4425   */\n    tag_63:\n        /* \"#utility.yul\":4332:4337   */\n      0x00\n        /* \"#utility.yul\":4370:4376   */\n      dup2\n        /* \"#utility.yul\":4357:4377   */\n      calldataload\n        /* \"#utility.yul\":4348:4377   */\n      swap1\n      pop\n        /* \"#utility.yul\":4386:4419   */\n      tag_129\n        /* \"#utility.yul\":4413:4418   */\n      dup2\n        /* \"#utility.yul\":4386:4419   */\n      tag_62\n      jump\t// in\n    tag_129:\n        /* \"#utility.yul\":4286:4425   */\n      swap3\n      swap2\n      pop\n      pop\n      jump\t// out\n        /* \"#utility.yul\":4431:4905   */\n    tag_17:\n        /* \"#utility.yul\":4499:4505   */\n      0x00\n        /* \"#utility.yul\":4507:4513   */\n      dup1\n        /* \"#utility.yul\":4556:4558   */\n      0x40\n        /* \"#utility.yul\":4544:4553   */\n      dup4\n        /* \"#utility.yul\":4535:4542   */\n      dup6\n        /* \"#utility.yul\":4531:4554   */\n      sub\n        /* \"#utility.yul\":4527:4559   */\n      slt\n        /* \"#utility.yul\":4524:4643   */\n      iszero\n      tag_131\n      jumpi\n        /* \"#utility.yul\":4562:4641   */\n      tag_132\n      tag_43\n      jump\t// in\n    tag_132:\n        /* \"#utility.yul\":4524:4643   */\n    tag_131:\n        /* \"#utility.yul\":4682:4683   */\n      0x00\n        /* \"#utility.yul\":4707:4760   */\n      tag_133\n        /* \"#utility.yul\":4752:4759   */\n      dup6\n        /* \"#utility.yul\":4743:4749   */\n      dup3\n        /* \"#utility.yul\":4732:4741   */\n      dup7\n        /* \"#utility.yul\":4728:4750   */\n      add\n        /* \"#utility.yul\":4707:4760   */\n      tag_60\n      jump\t// in\n    tag_133:\n        /* \"#utility.yul\":4697:4760   */\n      swap3\n      pop\n        /* \"#utility.yul\":4653:4770   */\n      pop\n        /* \"#utility.yul\":4809:4811   */\n      0x20\n        /* \"#utility.yul\":4835:4888   */\n      tag_134\n        /* \"#utility.yul\":4880:4887   */\n      dup6\n        /* \"#utility.yul\":4871:4877   */\n      dup3\n        /* \"#utility.yul\":4860:4869   */\n      dup7\n        /* \"#utility.yul\":4856:4878   */\n      add\n        /* \"#utility.yul\":4835:4888   */\n      tag_63\n      jump\t// in\n    tag_134:\n        /* \"#utility.yul\":4825:4888   */\n      swap2\n      pop\n        /* \"#utility.yul\":4780:4898   */\n      pop\n        /* \"#utility.yul\":4431:4905   */\n      swap3\n      pop\n      swap3\n      swap1\n      pop\n      jump\t// out\n        /* \"#utility.yul\":4911:4988   */\n    tag_64:\n        /* \"#utility.yul\":4948:4955   */\n      0x00\n        /* \"#utility.yul\":4977:4982   */\n      dup2\n        /* \"#utility.yul\":4966:4982   */\n      swap1\n      pop\n        /* \"#utility.yul\":4911:4988   */\n      swap2\n      swap1\n      pop\n      jump\t// out\n        /* \"#utility.yul\":4994:5112   */\n    tag_65:\n        /* \"#utility.yul\":5081:5105   */\n      tag_137\n        /* \"#utility.yul\":5099:5104   */\n      dup2\n        /* \"#utility.yul\":5081:5105   */\n      tag_64\n      jump\t// in\n    tag_137:\n        /* \"#utility.yul\":5076:5079   */\n      dup3\n        /* \"#utility.yul\":5069:5106   */\n      mstore\n        /* \"#utility.yul\":4994:5112   */\n      pop\n      pop\n      jump\t// out\n        /* \"#utility.yul\":5118:5340   */\n    tag_24:\n        /* \"#utility.yul\":5211:5215   */\n      0x00\n        /* \"#utility.yul\":5249:5251   */\n      0x20\n        /* \"#utility.yul\":5238:5247   */\n      dup3\n        /* \"#utility.yul\":5234:5252   */\n      add\n        /* \"#utility.yul\":5226:5252   */\n      swap1\n      pop\n        /* \"#utility.yul\":5262:5333   */\n      tag_139\n        /* \"#utility.yul\":5330:5331   */\n      0x00\n        /* \"#utility.yul\":5319:5328   */\n      dup4\n        /* \"#utility.yul\":5315:5332   */\n      add\n        /* \"#utility.yul\":5306:5312   */\n      dup5\n        /* \"#utility.yul\":5262:5333   */\n      tag_65\n      jump\t// in\n    tag_139:\n        /* \"#utility.yul\":5118:5340   */\n      swap3\n      swap2\n      pop\n      pop\n      jump\t// out\n        /* \"#utility.yul\":5346:5526   */\n    tag_28:\n        /* \"#utility.yul\":5394:5471   */\n      0x4e487b7100000000000000000000000000000000000000000000000000000000\n        /* \"#utility.yul\":5391:5392   */\n      0x00\n        /* \"#utility.yul\":5384:5472   */\n      mstore\n        /* \"#utility.yul\":5491:5495   */\n      0x32\n        /* \"#utility.yul\":5488:5489   */\n      0x04\n        /* \"#utility.yul\":5481:5496   */\n      mstore\n        /* \"#utility.yul\":5515:5519   */\n      0x24\n        /* \"#utility.yul\":5512:5513   */\n      0x00\n        /* \"#utility.yul\":5505:5520   */\n      revert\n        /* \"#utility.yul\":5532:5631   */\n    tag_66:\n        /* \"#utility.yul\":5584:5590   */\n      0x00\n        /* \"#utility.yul\":5618:5623   */\n      dup2\n        /* \"#utility.yul\":5612:5624   */\n      mload\n        /* \"#utility.yul\":5602:5624   */\n      swap1\n      pop\n        /* \"#utility.yul\":5532:5631   */\n      swap2\n      swap1\n      pop\n      jump\t// out\n        /* \"#utility.yul\":5637:5785   */\n    tag_67:\n        /* \"#utility.yul\":5739:5750   */\n      0x00\n        /* \"#utility.yul\":5776:5779   */\n      dup2\n        /* \"#utility.yul\":5761:5779   */\n      swap1\n      pop\n        /* \"#utility.yul\":5637:5785   */\n      swap3\n      swap2\n      pop\n      pop\n      jump\t// out\n        /* \"#utility.yul\":5791:6037   */\n    tag_68:\n        /* \"#utility.yul\":5872:5873   */\n      0x00\n        /* \"#utility.yul\":5882:5995   */\n    tag_144:\n        /* \"#utility.yul\":5896:5902   */\n      dup4\n        /* \"#utility.yul\":5893:5894   */\n      dup2\n        /* \"#utility.yul\":5890:5903   */\n      lt\n        /* \"#utility.yul\":5882:5995   */\n      iszero\n      tag_146\n      jumpi\n        /* \"#utility.yul\":5981:5982   */\n      dup1\n        /* \"#utility.yul\":5976:5979   */\n      dup3\n        /* \"#utility.yul\":5972:5983   */\n      add\n        /* \"#utility.yul\":5966:5984   */\n      mload\n        /* \"#utility.yul\":5962:5963   */\n      dup2\n        /* \"#utility.yul\":5957:5960   */\n      dup5\n        /* \"#utility.yul\":5953:5964   */\n      add\n        /* \"#utility.yul\":5946:5985   */\n      mstore\n        /* \"#utility.yul\":5918:5920   */\n      0x20\n        /* \"#utility.yul\":5915:5916   */\n      dup2\n        /* \"#utility.yul\":5911:5921   */\n      add\n        /* \"#utility.yul\":5906:5921   */\n      swap1\n      pop\n        /* \"#utility.yul\":5882:5995   */\n      jump(tag_144)\n    tag_146:\n        /* \"#utility.yul\":6029:6030   */\n      0x00\n        /* \"#utility.yul\":6020:6026   */\n      dup5\n        /* \"#utility.yul\":6015:6018   */\n      dup5\n        /* \"#utility.yul\":6011:6027   */\n      add\n        /* \"#utility.yul\":6004:6031   */\n      mstore\n        /* \"#utility.yul\":5853:6037   */\n      pop\n        /* \"#utility.yul\":5791:6037   */\n      pop\n      pop\n      pop\n      jump\t// out\n        /* \"#utility.yul\":6043:6433   */\n    tag_69:\n        /* \"#utility.yul\":6149:6152   */\n      0x00\n        /* \"#utility.yul\":6177:6216   */\n      tag_148\n        /* \"#utility.yul\":6210:6215   */\n      dup3\n        /* \"#utility.yul\":6177:6216   */\n      tag_66\n      jump\t// in\n    tag_148:\n        /* \"#utility.yul\":6232:6321   */\n      tag_149\n        /* \"#utility.yul\":6314:6320   */\n      dup2\n        /* \"#utility.yul\":6309:6312   */\n      dup6\n        /* \"#utility.yul\":6232:6321   */\n      tag_67\n      jump\t// in\n    tag_149:\n        /* \"#utility.yul\":6225:6321   */\n      swap4\n      pop\n        /* \"#utility.yul\":6330:6395   */\n      tag_150\n        /* \"#utility.yul\":6388:6394   */\n      dup2\n        /* \"#utility.yul\":6383:6386   */\n      dup6\n        /* \"#utility.yul\":6376:6380   */\n      0x20\n        /* \"#utility.yul\":6369:6374   */\n      dup7\n        /* \"#utility.yul\":6365:6381   */\n      add\n        /* \"#utility.yul\":6330:6395   */\n      tag_68\n      jump\t// in\n    tag_150:\n        /* \"#utility.yul\":6420:6426   */\n      dup1\n        /* \"#utility.yul\":6415:6418   */\n      dup5\n        /* \"#utility.yul\":6411:6427   */\n      add\n        /* \"#utility.yul\":6404:6427   */\n      swap2\n      pop\n        /* \"#utility.yul\":6153:6433   */\n      pop\n        /* \"#utility.yul\":6043:6433   */\n      swap3\n      swap2\n      pop\n      pop\n      jump\t// out\n        /* \"#utility.yul\":6439:6714   */\n    tag_35:\n        /* \"#utility.yul\":6571:6574   */\n      0x00\n        /* \"#utility.yul\":6593:6688   */\n      tag_152\n        /* \"#utility.yul\":6684:6687   */\n      dup3\n        /* \"#utility.yul\":6675:6681   */\n      dup5\n        /* \"#utility.yul\":6593:6688   */\n      tag_69\n      jump\t// in\n    tag_152:\n        /* \"#utility.yul\":6586:6688   */\n      swap2\n      pop\n        /* \"#utility.yul\":6705:6708   */\n      dup2\n        /* \"#utility.yul\":6698:6708   */\n      swap1\n      pop\n        /* \"#utility.yul\":6439:6714   */\n      swap3\n      swap2\n      pop\n      pop\n      jump\t// out\n        /* \"#utility.yul\":6720:6818   */\n    tag_70:\n        /* \"#utility.yul\":6771:6777   */\n      0x00\n        /* \"#utility.yul\":6805:6810   */\n      dup2\n        /* \"#utility.yul\":6799:6811   */\n      mload\n        /* \"#utility.yul\":6789:6811   */\n      swap1\n      pop\n        /* \"#utility.yul\":6720:6818   */\n      swap2\n      swap1\n      pop\n      jump\t// out\n        /* \"#utility.yul\":6824:6971   */\n    tag_71:\n        /* \"#utility.yul\":6925:6936   */\n      0x00\n        /* \"#utility.yul\":6962:6965   */\n      dup2\n        /* \"#utility.yul\":6947:6965   */\n      swap1\n      pop\n        /* \"#utility.yul\":6824:6971   */\n      swap3\n      swap2\n      pop\n      pop\n      jump\t// out\n        /* \"#utility.yul\":6977:7363   */\n    tag_72:\n        /* \"#utility.yul\":7081:7084   */\n      0x00\n        /* \"#utility.yul\":7109:7147   */\n      tag_156\n        /* \"#utility.yul\":7141:7146   */\n      dup3\n        /* \"#utility.yul\":7109:7147   */\n      tag_70\n      jump\t// in\n    tag_156:\n        /* \"#utility.yul\":7163:7251   */\n      tag_157\n        /* \"#utility.yul\":7244:7250   */\n      dup2\n        /* \"#utility.yul\":7239:7242   */\n      dup6\n        /* \"#utility.yul\":7163:7251   */\n      tag_71\n      jump\t// in\n    tag_157:\n        /* \"#utility.yul\":7156:7251   */\n      swap4\n      pop\n        /* \"#utility.yul\":7260:7325   */\n      tag_158\n        /* \"#utility.yul\":7318:7324   */\n      dup2\n        /* \"#utility.yul\":7313:7316   */\n      dup6\n        /* \"#utility.yul\":7306:7310   */\n      0x20\n        /* \"#utility.yul\":7299:7304   */\n      dup7\n        /* \"#utility.yul\":7295:7311   */\n      add\n        /* \"#utility.yul\":7260:7325   */\n      tag_68\n      jump\t// in\n    tag_158:\n        /* \"#utility.yul\":7350:7356   */\n      dup1\n        /* \"#utility.yul\":7345:7348   */\n      dup5\n        /* \"#utility.yul\":7341:7357   */\n      add\n        /* \"#utility.yul\":7334:7357   */\n      swap2\n      pop\n        /* \"#utility.yul\":7085:7363   */\n      pop\n        /* \"#utility.yul\":6977:7363   */\n      swap3\n      swap2\n      pop\n      pop\n      jump\t// out\n        /* \"#utility.yul\":7369:7640   */\n    tag_37:\n        /* \"#utility.yul\":7499:7502   */\n      0x00\n        /* \"#utility.yul\":7521:7614   */\n      tag_160\n        /* \"#utility.yul\":7610:7613   */\n      dup3\n        /* \"#utility.yul\":7601:7607   */\n      dup5\n        /* \"#utility.yul\":7521:7614   */\n      tag_72\n      jump\t// in\n    tag_160:\n        /* \"#utility.yul\":7514:7614   */\n      swap2\n      pop\n        /* \"#utility.yul\":7631:7634   */\n      dup2\n        /* \"#utility.yul\":7624:7634   */\n      swap1\n      pop\n        /* \"#utility.yul\":7369:7640   */\n      swap3\n      swap2\n      pop\n      pop\n      jump\t// out\n        /* \"#utility.yul\":7646:7768   */\n    tag_73:\n        /* \"#utility.yul\":7719:7743   */\n      tag_162\n        /* \"#utility.yul\":7737:7742   */\n      dup2\n        /* \"#utility.yul\":7719:7743   */\n      tag_64\n      jump\t// in\n    tag_162:\n        /* \"#utility.yul\":7712:7717   */\n      dup2\n        /* \"#utility.yul\":7709:7744   */\n      eq\n        /* \"#utility.yul\":7699:7762   */\n      tag_163\n      jumpi\n        /* \"#utility.yul\":7758:7759   */\n      0x00\n        /* \"#utility.yul\":7755:7756   */\n      dup1\n        /* \"#utility.yul\":7748:7760   */\n      revert\n        /* \"#utility.yul\":7699:7762   */\n    tag_163:\n        /* \"#utility.yul\":7646:7768   */\n      pop\n      jump\t// out\n        /* \"#utility.yul\":7774:7917   */\n    tag_74:\n        /* \"#utility.yul\":7831:7836   */\n      0x00\n        /* \"#utility.yul\":7862:7868   */\n      dup2\n        /* \"#utility.yul\":7856:7869   */\n      mload\n        /* \"#utility.yul\":7847:7869   */\n      swap1\n      pop\n        /* \"#utility.yul\":7878:7911   */\n      tag_165\n        /* \"#utility.yul\":7905:7910   */\n      dup2\n        /* \"#utility.yul\":7878:7911   */\n      tag_73\n      jump\t// in\n    tag_165:\n        /* \"#utility.yul\":7774:7917   */\n      swap3\n      swap2\n      pop\n      pop\n      jump\t// out\n        /* \"#utility.yul\":7923:8274   */\n    tag_41:\n        /* \"#utility.yul\":7993:7999   */\n      0x00\n        /* \"#utility.yul\":8042:8044   */\n      0x20\n        /* \"#utility.yul\":8030:8039   */\n      dup3\n        /* \"#utility.yul\":8021:8028   */\n      dup5\n        /* \"#utility.yul\":8017:8040   */\n      sub\n        /* \"#utility.yul\":8013:8045   */\n      slt\n        /* \"#utility.yul\":8010:8129   */\n      iszero\n      tag_167\n      jumpi\n        /* \"#utility.yul\":8048:8127   */\n      tag_168\n      tag_43\n      jump\t// in\n    tag_168:\n        /* \"#utility.yul\":8010:8129   */\n    tag_167:\n        /* \"#utility.yul\":8168:8169   */\n      0x00\n        /* \"#utility.yul\":8193:8257   */\n      tag_169\n        /* \"#utility.yul\":8249:8256   */\n      dup5\n        /* \"#utility.yul\":8240:8246   */\n      dup3\n        /* \"#utility.yul\":8229:8238   */\n      dup6\n        /* \"#utility.yul\":8225:8247   */\n      add\n        /* \"#utility.yul\":8193:8257   */\n      tag_74\n      jump\t// in\n    tag_169:\n        /* \"#utility.yul\":8183:8257   */\n      swap2\n      pop\n        /* \"#utility.yul\":8139:8267   */\n      pop\n        /* \"#utility.yul\":7923:8274   */\n      swap3\n      swap2\n      pop\n      pop\n      jump\t// out\n\n    auxdata: 0xa26469706673582212204f14a34faebb588b824b37efa11d031d6d8088cd22cb224969a5607688ddb72564736f6c63430008120033\n}\n",
				"bytecode": {
					"linkReferences": {},
					"object": "608060405234801561001057600080fd5b50610676806100206000396000f3fe60806040526004361061003f5760003560e01c806379ff23121461004457806398e1b41014610081578063a9059cbb1461008b578063bc780a0c146100a7575b600080fd5b34801561005057600080fd5b5061006b6004803603810190610066919061032b565b6100e4565b60405161007891906103af565b60405180910390f35b61008961010c565b005b6100a560048036038101906100a0919061045e565b61010e565b005b3480156100b357600080fd5b506100ce60048036038101906100c9919061032b565b610159565b6040516100db91906104b7565b60405180910390f35b6000816000815181106100fa576100f96104d2565b5b602001015160f81c60f81b9050919050565b565b8173ffffffffffffffffffffffffffffffffffffffff166108fc829081150290604051600060405180830381858888f19350505050158015610154573d6000803e3d6000fd5b505050565b600060028260405160200161016e9190610572565b60405160208183030381529060405260405161018a91906105d0565b602060405180830381855afa1580156101a7573d6000803e3d6000fd5b5050506040513d601f19601f820116820180604052508101906101ca9190610613565b9050919050565b6000604051905090565b600080fd5b600080fd5b600080fd5b600080fd5b6000601f19601f8301169050919050565b7f4e487b7100000000000000000000000000000000000000000000000000000000600052604160045260246000fd5b610238826101ef565b810181811067ffffffffffffffff8211171561025757610256610200565b5b80604052505050565b600061026a6101d1565b9050610276828261022f565b919050565b600067ffffffffffffffff82111561029657610295610200565b5b61029f826101ef565b9050602081019050919050565b82818337600083830152505050565b60006102ce6102c98461027b565b610260565b9050828152602081018484840111156102ea576102e96101ea565b5b6102f58482856102ac565b509392505050565b600082601f830112610312576103116101e5565b5b81356103228482602086016102bb565b91505092915050565b600060208284031215610341576103406101db565b5b600082013567ffffffffffffffff81111561035f5761035e6101e0565b5b61036b848285016102fd565b91505092915050565b60007fff0000000000000000000000000000000000000000000000000000000000000082169050919050565b6103a981610374565b82525050565b60006020820190506103c460008301846103a0565b92915050565b600073ffffffffffffffffffffffffffffffffffffffff82169050919050565b60006103f5826103ca565b9050919050565b610405816103ea565b811461041057600080fd5b50565b600081359050610422816103fc565b92915050565b6000819050919050565b61043b81610428565b811461044657600080fd5b50565b60008135905061045881610432565b92915050565b60008060408385031215610475576104746101db565b5b600061048385828601610413565b925050602061049485828601610449565b9150509250929050565b6000819050919050565b6104b18161049e565b82525050565b60006020820190506104cc60008301846104a8565b92915050565b7f4e487b7100000000000000000000000000000000000000000000000000000000600052603260045260246000fd5b600081519050919050565b600081905092915050565b60005b8381101561053557808201518184015260208101905061051a565b60008484015250505050565b600061054c82610501565b610556818561050c565b9350610566818560208601610517565b80840191505092915050565b600061057e8284610541565b915081905092915050565b600081519050919050565b600081905092915050565b60006105aa82610589565b6105b48185610594565b93506105c4818560208601610517565b80840191505092915050565b60006105dc828461059f565b915081905092915050565b6105f08161049e565b81146105fb57600080fd5b50565b60008151905061060d816105e7565b92915050565b600060208284031215610629576106286101db565b5b6000610637848285016105fe565b9150509291505056fea26469706673582212204f14a34faebb588b824b37efa11d031d6d8088cd22cb224969a5607688ddb72564736f6c63430008120033",
					"opcodes": "PUSH1 0x80 PUSH1 0x40 MSTORE CALLVALUE DUP1 ISZERO PUSH2 0x10 JUMPI PUSH1 0x0 DUP1 REVERT JUMPDEST POP PUSH2 0x676 DUP1 PUSH2 0x20 PUSH1 0x0 CODECOPY PUSH1 0x0 RETURN INVALID PUSH1 0x80 PUSH1 0x40 MSTORE PUSH1 0x4 CALLDATASIZE LT PUSH2 0x3F JUMPI PUSH1 0x0 CALLDATALOAD PUSH1 0xE0 SHR DUP1 PUSH4 0x79FF2312 EQ PUSH2 0x44 JUMPI DUP1 PUSH4 0x98E1B410 EQ PUSH2 0x81 JUMPI DUP1 PUSH4 0xA9059CBB EQ PUSH2 0x8B JUMPI DUP1 PUSH4 0xBC780A0C EQ PUSH2 0xA7 JUMPI JUMPDEST PUSH1 0x0 DUP1 REVERT JUMPDEST CALLVALUE DUP1 ISZERO PUSH2 0x50 JUMPI PUSH1 0x0 DUP1 REVERT JUMPDEST POP PUSH2 0x6B PUSH1 0x4 DUP1 CALLDATASIZE SUB DUP2 ADD SWAP1 PUSH2 0x66 SWAP2 SWAP1 PUSH2 0x32B JUMP JUMPDEST PUSH2 0xE4 JUMP JUMPDEST PUSH1 0x40 MLOAD PUSH2 0x78 SWAP2 SWAP1 PUSH2 0x3AF JUMP JUMPDEST PUSH1 0x40 MLOAD DUP1 SWAP2 SUB SWAP1 RETURN JUMPDEST PUSH2 0x89 PUSH2 0x10C JUMP JUMPDEST STOP JUMPDEST PUSH2 0xA5 PUSH1 0x4 DUP1 CALLDATASIZE SUB DUP2 ADD SWAP1 PUSH2 0xA0 SWAP2 SWAP1 PUSH2 0x45E JUMP JUMPDEST PUSH2 0x10E JUMP JUMPDEST STOP JUMPDEST CALLVALUE DUP1 ISZERO PUSH2 0xB3 JUMPI PUSH1 0x0 DUP1 REVERT JUMPDEST POP PUSH2 0xCE PUSH1 0x4 DUP1 CALLDATASIZE SUB DUP2 ADD SWAP1 PUSH2 0xC9 SWAP2 SWAP1 PUSH2 0x32B JUMP JUMPDEST PUSH2 0x159 JUMP JUMPDEST PUSH1 0x40 MLOAD PUSH2 0xDB SWAP2 SWAP1 PUSH2 0x4B7 JUMP JUMPDEST PUSH1 0x40 MLOAD DUP1 SWAP2 SUB SWAP1 RETURN JUMPDEST PUSH1 0x0 DUP2 PUSH1 0x0 DUP2 MLOAD DUP2 LT PUSH2 0xFA JUMPI PUSH2 0xF9 PUSH2 0x4D2 JUMP JUMPDEST JUMPDEST PUSH1 0x20 ADD ADD MLOAD PUSH1 0xF8 SHR PUSH1 0xF8 SHL SWAP1 POP SWAP2 SWAP1 POP JUMP JUMPDEST JUMP JUMPDEST DUP2 PUSH20 0xFFFFFFFFFFFFFFFFFFFFFFFFFFFFFFFFFFFFFFFF AND PUSH2 0x8FC DUP3 SWAP1 DUP2 ISZERO MUL SWAP1 PUSH1 0x40 MLOAD PUSH1 0x0 PUSH1 0x40 MLOAD DUP1 DUP4 SUB DUP2 DUP6 DUP9 DUP9 CALL SWAP4 POP POP POP POP ISZERO DUP1 ISZERO PUSH2 0x154 JUMPI RETURNDATASIZE PUSH1 0x0 DUP1 RETURNDATACOPY RETURNDATASIZE PUSH1 0x0 REVERT JUMPDEST POP POP POP JUMP JUMPDEST PUSH1 0x0 PUSH1 0x2 DUP3 PUSH1 0x40 MLOAD PUSH1 0x20 ADD PUSH2 0x16E SWAP2 SWAP1 PUSH2 0x572 JUMP JUMPDEST PUSH1 0x40 MLOAD PUSH1 0x20 DUP2 DUP4 SUB SUB DUP2 MSTORE SWAP1 PUSH1 0x40 MSTORE PUSH1 0x40 MLOAD PUSH2 0x18A SWAP2 SWAP1 PUSH2 0x5D0 JUMP JUMPDEST PUSH1 0x20 PUSH1 0x40 MLOAD DUP1 DUP4 SUB DUP2 DUP6 GAS STATICCALL ISZERO DUP1 ISZERO PUSH2 0x1A7 JUMPI RETURNDATASIZE PUSH1 0x0 DUP1 RETURNDATACOPY RETURNDATASIZE PUSH1 0x0 REVERT JUMPDEST POP POP POP PUSH1 0x40 MLOAD RETURNDATASIZE PUSH1 0x1F NOT PUSH1 0x1F DUP3 ADD AND DUP3 ADD DUP1 PUSH1 0x40 MSTORE POP DUP2 ADD SWAP1 PUSH2 0x1CA SWAP2 SWAP1 PUSH2 0x613 JUMP JUMPDEST SWAP1 POP SWAP2 SWAP1 POP JUMP JUMPDEST PUSH1 0x0 PUSH1 0x40 MLOAD SWAP1 POP SWAP1 JUMP JUMPDEST PUSH1 0x0 DUP1 REVERT JUMPDEST PUSH1 0x0 DUP1 REVERT JUMPDEST PUSH1 0x0 DUP1 REVERT JUMPDEST PUSH1 0x0 DUP1 REVERT JUMPDEST PUSH1 0x0 PUSH1 0x1F NOT PUSH1 0x1F DUP4 ADD AND SWAP1 POP SWAP2 SWAP1 POP JUMP JUMPDEST PUSH32 0x4E487B7100000000000000000000000000000000000000000000000000000000 PUSH1 0x0 MSTORE PUSH1 0x41 PUSH1 0x4 MSTORE PUSH1 0x24 PUSH1 0x0 REVERT JUMPDEST PUSH2 0x238 DUP3 PUSH2 0x1EF JUMP JUMPDEST DUP2 ADD DUP2 DUP2 LT PUSH8 0xFFFFFFFFFFFFFFFF DUP3 GT OR ISZERO PUSH2 0x257 JUMPI PUSH2 0x256 PUSH2 0x200 JUMP JUMPDEST JUMPDEST DUP1 PUSH1 0x40 MSTORE POP POP POP JUMP JUMPDEST PUSH1 0x0 PUSH2 0x26A PUSH2 0x1D1 JUMP JUMPDEST SWAP1 POP PUSH2 0x276 DUP3 DUP3 PUSH2 0x22F JUMP JUMPDEST SWAP2 SWAP1 POP JUMP JUMPDEST PUSH1 0x0 PUSH8 0xFFFFFFFFFFFFFFFF DUP3 GT ISZERO PUSH2 0x296 JUMPI PUSH2 0x295 PUSH2 0x200 JUMP JUMPDEST JUMPDEST PUSH2 0x29F DUP3 PUSH2 0x1EF JUMP JUMPDEST SWAP1 POP PUSH1 0x20 DUP2 ADD SWAP1 POP SWAP2 SWAP1 POP JUMP JUMPDEST DUP3 DUP2 DUP4 CALLDATACOPY PUSH1 0x0 DUP4 DUP4 ADD MSTORE POP POP POP JUMP JUMPDEST PUSH1 0x0 PUSH2 0x2CE PUSH2 0x2C9 DUP5 PUSH2 0x27B JUMP JUMPDEST PUSH2 0x260 JUMP JUMPDEST SWAP1 POP DUP3 DUP2 MSTORE PUSH1 0x20 DUP2 ADD DUP5 DUP5 DUP5 ADD GT ISZERO PUSH2 0x2EA JUMPI PUSH2 0x2E9 PUSH2 0x1EA JUMP JUMPDEST JUMPDEST PUSH2 0x2F5 DUP5 DUP3 DUP6 PUSH2 0x2AC JUMP JUMPDEST POP SWAP4 SWAP3 POP POP POP JUMP JUMPDEST PUSH1 0x0 DUP3 PUSH1 0x1F DUP4 ADD SLT PUSH2 0x312 JUMPI PUSH2 0x311 PUSH2 0x1E5 JUMP JUMPDEST JUMPDEST DUP2 CALLDATALOAD PUSH2 0x322 DUP5 DUP3 PUSH1 0x20 DUP7 ADD PUSH2 0x2BB JUMP JUMPDEST SWAP2 POP POP SWAP3 SWAP2 POP POP JUMP JUMPDEST PUSH1 0x0 PUSH1 0x20 DUP3 DUP5 SUB SLT ISZERO PUSH2 0x341 JUMPI PUSH2 0x340 PUSH2 0x1DB JUMP JUMPDEST JUMPDEST PUSH1 0x0 DUP3 ADD CALLDATALOAD PUSH8 0xFFFFFFFFFFFFFFFF DUP2 GT ISZERO PUSH2 0x35F JUMPI PUSH2 0x35E PUSH2 0x1E0 JUMP JUMPDEST JUMPDEST PUSH2 0x36B DUP5 DUP3 DUP6 ADD PUSH2 0x2FD JUMP JUMPDEST SWAP2 POP POP SWAP3 SWAP2 POP POP JUMP JUMPDEST PUSH1 0x0 PUSH32 0xFF00000000000000000000000000000000000000000000000000000000000000 DUP3 AND SWAP1 POP SWAP2 SWAP1 POP JUMP JUMPDEST PUSH2 0x3A9 DUP2 PUSH2 0x374 JUMP JUMPDEST DUP3 MSTORE POP POP JUMP JUMPDEST PUSH1 0x0 PUSH1 0x20 DUP3 ADD SWAP1 POP PUSH2 0x3C4 PUSH1 0x0 DUP4 ADD DUP5 PUSH2 0x3A0 JUMP JUMPDEST SWAP3 SWAP2 POP POP JUMP JUMPDEST PUSH1 0x0 PUSH20 0xFFFFFFFFFFFFFFFFFFFFFFFFFFFFFFFFFFFFFFFF DUP3 AND SWAP1 POP SWAP2 SWAP1 POP JUMP JUMPDEST PUSH1 0x0 PUSH2 0x3F5 DUP3 PUSH2 0x3CA JUMP JUMPDEST SWAP1 POP SWAP2 SWAP1 POP JUMP JUMPDEST PUSH2 0x405 DUP2 PUSH2 0x3EA JUMP JUMPDEST DUP2 EQ PUSH2 0x410 JUMPI PUSH1 0x0 DUP1 REVERT JUMPDEST POP JUMP JUMPDEST PUSH1 0x0 DUP2 CALLDATALOAD SWAP1 POP PUSH2 0x422 DUP2 PUSH2 0x3FC JUMP JUMPDEST SWAP3 SWAP2 POP POP JUMP JUMPDEST PUSH1 0x0 DUP2 SWAP1 POP SWAP2 SWAP1 POP JUMP JUMPDEST PUSH2 0x43B DUP2 PUSH2 0x428 JUMP JUMPDEST DUP2 EQ PUSH2 0x446 JUMPI PUSH1 0x0 DUP1 REVERT JUMPDEST POP JUMP JUMPDEST PUSH1 0x0 DUP2 CALLDATALOAD SWAP1 POP PUSH2 0x458 DUP2 PUSH2 0x432 JUMP JUMPDEST SWAP3 SWAP2 POP POP JUMP JUMPDEST PUSH1 0x0 DUP1 PUSH1 0x40 DUP4 DUP6 SUB SLT ISZERO PUSH2 0x475 JUMPI PUSH2 0x474 PUSH2 0x1DB JUMP JUMPDEST JUMPDEST PUSH1 0x0 PUSH2 0x483 DUP6 DUP3 DUP7 ADD PUSH2 0x413 JUMP JUMPDEST SWAP3 POP POP PUSH1 0x20 PUSH2 0x494 DUP6 DUP3 DUP7 ADD PUSH2 0x449 JUMP JUMPDEST SWAP2 POP POP SWAP3 POP SWAP3 SWAP1 POP JUMP JUMPDEST PUSH1 0x0 DUP2 SWAP1 POP SWAP2 SWAP1 POP JUMP JUMPDEST PUSH2 0x4B1 DUP2 PUSH2 0x49E JUMP JUMPDEST DUP3 MSTORE POP POP JUMP JUMPDEST PUSH1 0x0 PUSH1 0x20 DUP3 ADD SWAP1 POP PUSH2 0x4CC PUSH1 0x0 DUP4 ADD DUP5 PUSH2 0x4A8 JUMP JUMPDEST SWAP3 SWAP2 POP POP JUMP JUMPDEST PUSH32 0x4E487B7100000000000000000000000000000000000000000000000000000000 PUSH1 0x0 MSTORE PUSH1 0x32 PUSH1 0x4 MSTORE PUSH1 0x24 PUSH1 0x0 REVERT JUMPDEST PUSH1 0x0 DUP2 MLOAD SWAP1 POP SWAP2 SWAP1 POP JUMP JUMPDEST PUSH1 0x0 DUP2 SWAP1 POP SWAP3 SWAP2 POP POP JUMP JUMPDEST PUSH1 0x0 JUMPDEST DUP4 DUP2 LT ISZERO PUSH2 0x535 JUMPI DUP1 DUP3 ADD MLOAD DUP2 DUP5 ADD MSTORE PUSH1 0x20 DUP2 ADD SWAP1 POP PUSH2 0x51A JUMP JUMPDEST PUSH1 0x0 DUP5 DUP5 ADD MSTORE POP POP POP POP JUMP JUMPDEST PUSH1 0x0 PUSH2 0x54C DUP3 PUSH2 0x501 JUMP JUMPDEST PUSH2 0x556 DUP2 DUP6 PUSH2 0x50C JUMP JUMPDEST SWAP4 POP PUSH2 0x566 DUP2 DUP6 PUSH1 0x20 DUP7 ADD PUSH2 0x517 JUMP JUMPDEST DUP1 DUP5 ADD SWAP2 POP POP SWAP3 SWAP2 POP POP JUMP JUMPDEST PUSH1 0x0 PUSH2 0x57E DUP3 DUP5 PUSH2 0x541 JUMP JUMPDEST SWAP2 POP DUP2 SWAP1 POP SWAP3 SWAP2 POP POP JUMP JUMPDEST PUSH1 0x0 DUP2 MLOAD SWAP1 POP SWAP2 SWAP1 POP JUMP JUMPDEST PUSH1 0x0 DUP2 SWAP1 POP SWAP3 SWAP2 POP POP JUMP JUMPDEST PUSH1 0x0 PUSH2 0x5AA DUP3 PUSH2 0x589 JUMP JUMPDEST PUSH2 0x5B4 DUP2 DUP6 PUSH2 0x594 JUMP JUMPDEST SWAP4 POP PUSH2 0x5C4 DUP2 DUP6 PUSH1 0x20 DUP7 ADD PUSH2 0x517 JUMP JUMPDEST DUP1 DUP5 ADD SWAP2 POP POP SWAP3 SWAP2 POP POP JUMP JUMPDEST PUSH1 0x0 PUSH2 0x5DC DUP3 DUP5 PUSH2 0x59F JUMP JUMPDEST SWAP2 POP DUP2 SWAP1 POP SWAP3 SWAP2 POP POP JUMP JUMPDEST PUSH2 0x5F0 DUP2 PUSH2 0x49E JUMP JUMPDEST DUP2 EQ PUSH2 0x5FB JUMPI PUSH1 0x0 DUP1 REVERT JUMPDEST POP JUMP JUMPDEST PUSH1 0x0 DUP2 MLOAD SWAP1 POP PUSH2 0x60D DUP2 PUSH2 0x5E7 JUMP JUMPDEST SWAP3 SWAP2 POP POP JUMP JUMPDEST PUSH1 0x0 PUSH1 0x20 DUP3 DUP5 SUB SLT ISZERO PUSH2 0x629 JUMPI PUSH2 0x628 PUSH2 0x1DB JUMP JUMPDEST JUMPDEST PUSH1 0x0 PUSH2 0x637 DUP5 DUP3 DUP6 ADD PUSH2 0x5FE JUMP JUMPDEST SWAP2 POP POP SWAP3 SWAP2 POP POP JUMP INVALID LOG2 PUSH5 0x6970667358 0x22 SLT KECCAK256 0x4F EQ LOG3 0x4F 0xAE 0xBB PC DUP12 DUP3 0x4B CALLDATACOPY 0xEF LOG1 SAR SUB SAR PUSH14 0x8088CD22CB224969A5607688DDB7 0x25 PUSH5 0x736F6C6343 STOP ADDMOD SLT STOP CALLER "
				},
				"gasEstimates": {
					"creation": {
						"codeDepositCost": "330800",
						"executionCost": "368",
						"totalCost": "331168"
					},
					"external": {
						"Hash(string)": "infinite",
						"getFirstChar(string)": "infinite",
						"getMoney()": "120",
						"transfer(address,uint256)": "infinite"
					}
				},
				"methodIdentifiers": {
					"Hash(string)": "bc780a0c",
					"getFirstChar(string)": "79ff2312",
					"getMoney()": "98e1b410",
					"transfer(address,uint256)": "a9059cbb"
				}
			},
			"storageLayout": {
				"storage": [],
				"types": null
			},
			"userdoc": {
				"kind": "user",
				"methods": {},
				"version": 1
			}
		}
	}
}