{
	"multisign.sol": {
		"MultiSigWallet": {
			"abi": [
				{
					"inputs": [
						{
							"internalType": "address[]",
							"name": "_owners",
							"type": "address[]"
						},
						{
							"internalType": "uint256",
							"name": "_required",
							"type": "uint256"
						}
					],
					"stateMutability": "nonpayable",
					"type": "constructor"
				},
				{
					"anonymous": false,
					"inputs": [
						{
							"indexed": true,
							"internalType": "address",
							"name": "onwer",
							"type": "address"
						},
						{
							"indexed": true,
							"internalType": "uint256",
							"name": "txId",
							"type": "uint256"
						}
					],
					"name": "Approve",
					"type": "event"
				},
				{
					"anonymous": false,
					"inputs": [
						{
							"indexed": true,
							"internalType": "address",
							"name": "sender",
							"type": "address"
						},
						{
							"indexed": false,
							"internalType": "uint256",
							"name": "amount",
							"type": "uint256"
						}
					],
					"name": "Deposit",
					"type": "event"
				},
				{
					"anonymous": false,
					"inputs": [
						{
							"indexed": true,
							"internalType": "uint256",
							"name": "txId",
							"type": "uint256"
						}
					],
					"name": "Execute",
					"type": "event"
				},
				{
					"anonymous": false,
					"inputs": [
						{
							"indexed": true,
							"internalType": "address",
							"name": "owner",
							"type": "address"
						},
						{
							"indexed": true,
							"internalType": "uint256",
							"name": "txId",
							"type": "uint256"
						}
					],
					"name": "Revoke",
					"type": "event"
				},
				{
					"anonymous": false,
					"inputs": [
						{
							"indexed": true,
							"internalType": "uint256",
							"name": "txId",
							"type": "uint256"
						}
					],
					"name": "Submit",
					"type": "event"
				},
				{
					"inputs": [
						{
							"internalType": "uint256",
							"name": "_txId",
							"type": "uint256"
						}
					],
					"name": "approve",
					"outputs": [],
					"stateMutability": "nonpayable",
					"type": "function"
				},
				{
					"inputs": [
						{
							"internalType": "uint256",
							"name": "",
							"type": "uint256"
						},
						{
							"internalType": "address",
							"name": "",
							"type": "address"
						}
					],
					"name": "approved",
					"outputs": [
						{
							"internalType": "bool",
							"name": "",
							"type": "bool"
						}
					],
					"stateMutability": "view",
					"type": "function"
				},
				{
					"inputs": [
						{
							"internalType": "uint256",
							"name": "_txId",
							"type": "uint256"
						}
					],
					"name": "execute",
					"outputs": [],
					"stateMutability": "nonpayable",
					"type": "function"
				},
				{
					"inputs": [
						{
							"internalType": "address",
							"name": "",
							"type": "address"
						}
					],
					"name": "isOwner",
					"outputs": [
						{
							"internalType": "bool",
							"name": "",
							"type": "bool"
						}
					],
					"stateMutability": "view",
					"type": "function"
				},
				{
					"inputs": [
						{
							"internalType": "uint256",
							"name": "",
							"type": "uint256"
						}
					],
					"name": "owners",
					"outputs": [
						{
							"internalType": "address",
							"name": "",
							"type": "address"
						}
					],
					"stateMutability": "view",
					"type": "function"
				},
				{
					"inputs": [],
					"name": "required",
					"outputs": [
						{
							"internalType": "uint256",
							"name": "",
							"type": "uint256"
						}
					],
					"stateMutability": "view",
					"type": "function"
				},
				{
					"inputs": [
						{
							"internalType": "uint256",
							"name": "_txId",
							"type": "uint256"
						}
					],
					"name": "revoke",
					"outputs": [],
					"stateMutability": "nonpayable",
					"type": "function"
				},
				{
					"inputs": [
						{
							"internalType": "address",
							"name": "_to",
							"type": "address"
						},
						{
							"internalType": "uint256",
							"name": "_value",
							"type": "uint256"
						},
						{
							"internalType": "bytes",
							"name": "_data",
							"type": "bytes"
						}
					],
					"name": "submit",
					"outputs": [],
					"stateMutability": "nonpayable",
					"type": "function"
				},
				{
					"inputs": [
						{
							"internalType": "uint256",
							"name": "",
							"type": "uint256"
						}
					],
					"name": "transactions",
					"outputs": [
						{
							"internalType": "address",
							"name": "to",
							"type": "address"
						},
						{
							"internalType": "uint256",
							"name": "value",
							"type": "uint256"
						},
						{
							"internalType": "bytes",
							"name": "data",
							"type": "bytes"
						},
						{
							"internalType": "bool",
							"name": "executed",
							"type": "bool"
						}
					],
					"stateMutability": "view",
					"type": "function"
				},
				{
					"stateMutability": "payable",
					"type": "receive"
				}
			],
			"devdoc": {
				"kind": "dev",
				"methods": {},
				"version": 1
			},
			"evm": {
				"assembly": "    /* \"multisign.sol\":24:3265  contract MultiSigWallet {... */\n  mstore(0x40, 0x80)\n    /* \"multisign.sol\":1091:1656  constructor(address[] memory _owners, uint _required){... */\n  callvalue\n  dup1\n  iszero\n  tag_1\n  jumpi\n  0x00\n  dup1\n  revert\ntag_1:\n  pop\n  mload(0x40)\n  sub(codesize, bytecodeSize)\n  dup1\n  bytecodeSize\n  dup4\n  codecopy\n  dup2\n  dup2\n  add\n  0x40\n  mstore\n  dup2\n  add\n  swap1\n  tag_2\n  swap2\n  swap1\n  tag_3\n  jump\t// in\ntag_2:\n    /* \"multisign.sol\":1179:1180  0 */\n  0x00\n    /* \"multisign.sol\":1162:1169  _owners */\n  dup3\n    /* \"multisign.sol\":1162:1176  _owners.length */\n  mload\n    /* \"multisign.sol\":1162:1180  _owners.length > 0 */\n  gt\n    /* \"multisign.sol\":1154:1200  require(_owners.length > 0, \"owners required\") */\n  tag_6\n  jumpi\n  mload(0x40)\n  0x08c379a000000000000000000000000000000000000000000000000000000000\n  dup2\n  mstore\n  0x04\n  add\n  tag_7\n  swap1\n  tag_8\n  jump\t// in\ntag_7:\n  mload(0x40)\n  dup1\n  swap2\n  sub\n  swap1\n  revert\ntag_6:\n    /* \"multisign.sol\":1243:1244  0 */\n  0x00\n    /* \"multisign.sol\":1231:1240  _required */\n  dup2\n    /* \"multisign.sol\":1231:1244  _required > 0 */\n  gt\n    /* \"multisign.sol\":1231:1274  _required > 0 && _required <= owners.length */\n  dup1\n  iszero\n  tag_9\n  jumpi\n  pop\n    /* \"multisign.sol\":1261:1267  owners */\n  0x00\n    /* \"multisign.sol\":1261:1274  owners.length */\n  dup1\n  sload\n  swap1\n  pop\n    /* \"multisign.sol\":1248:1257  _required */\n  dup2\n    /* \"multisign.sol\":1248:1274  _required <= owners.length */\n  gt\n  iszero\n    /* \"multisign.sol\":1231:1274  _required > 0 && _required <= owners.length */\ntag_9:\n    /* \"multisign.sol\":1210:1333  require(... */\n  tag_10\n  jumpi\n  mload(0x40)\n  0x08c379a000000000000000000000000000000000000000000000000000000000\n  dup2\n  mstore\n  0x04\n  add\n  tag_11\n  swap1\n  tag_12\n  jump\t// in\ntag_11:\n  mload(0x40)\n  dup1\n  swap2\n  sub\n  swap1\n  revert\ntag_10:\n    /* \"multisign.sol\":1348:1354  uint i */\n  0x00\n    /* \"multisign.sol\":1343:1619  for (uint i=0; i<_owners.length; i++){... */\ntag_13:\n    /* \"multisign.sol\":1360:1367  _owners */\n  dup3\n    /* \"multisign.sol\":1360:1374  _owners.length */\n  mload\n    /* \"multisign.sol\":1358:1359  i */\n  dup2\n    /* \"multisign.sol\":1358:1374  i<_owners.length */\n  lt\n    /* \"multisign.sol\":1343:1619  for (uint i=0; i<_owners.length; i++){... */\n  iszero\n  tag_14\n  jumpi\n    /* \"multisign.sol\":1394:1407  address owner */\n  0x00\n    /* \"multisign.sol\":1410:1417  _owners */\n  dup4\n    /* \"multisign.sol\":1418:1419  i */\n  dup3\n    /* \"multisign.sol\":1410:1420  _owners[i] */\n  dup2\n  mload\n  dup2\n  lt\n  tag_16\n  jumpi\n  tag_17\n  tag_18\n  jump\t// in\ntag_17:\ntag_16:\n  0x20\n  mul\n  0x20\n  add\n  add\n  mload\n    /* \"multisign.sol\":1394:1420  address owner = _owners[i] */\n  swap1\n  pop\n    /* \"multisign.sol\":1459:1460  0 */\n  0x00\n    /* \"multisign.sol\":1442:1461  owner != address(0) */\n  0xffffffffffffffffffffffffffffffffffffffff\n  and\n    /* \"multisign.sol\":1442:1447  owner */\n  dup2\n    /* \"multisign.sol\":1442:1461  owner != address(0) */\n  0xffffffffffffffffffffffffffffffffffffffff\n  and\n  sub\n    /* \"multisign.sol\":1434:1479  require(owner != address(0), \"invalid owner\") */\n  tag_19\n  jumpi\n  mload(0x40)\n  0x08c379a000000000000000000000000000000000000000000000000000000000\n  dup2\n  mstore\n  0x04\n  add\n  tag_20\n  swap1\n  tag_21\n  jump\t// in\ntag_20:\n  mload(0x40)\n  dup1\n  swap2\n  sub\n  swap1\n  revert\ntag_19:\n    /* \"multisign.sol\":1502:1509  isOwner */\n  0x01\n    /* \"multisign.sol\":1502:1516  isOwner[owner] */\n  0x00\n    /* \"multisign.sol\":1510:1515  owner */\n  dup3\n    /* \"multisign.sol\":1502:1516  isOwner[owner] */\n  0xffffffffffffffffffffffffffffffffffffffff\n  and\n  0xffffffffffffffffffffffffffffffffffffffff\n  and\n  dup2\n  mstore\n  0x20\n  add\n  swap1\n  dup2\n  mstore\n  0x20\n  add\n  0x00\n  keccak256\n  0x00\n  swap1\n  sload\n  swap1\n  0x0100\n  exp\n  swap1\n  div\n  0xff\n  and\n    /* \"multisign.sol\":1501:1516  !isOwner[owner] */\n  iszero\n    /* \"multisign.sol\":1493:1541  require(!isOwner[owner], \"owner is not uinique\") */\n  tag_22\n  jumpi\n  mload(0x40)\n  0x08c379a000000000000000000000000000000000000000000000000000000000\n  dup2\n  mstore\n  0x04\n  add\n  tag_23\n  swap1\n  tag_24\n  jump\t// in\ntag_23:\n  mload(0x40)\n  dup1\n  swap2\n  sub\n  swap1\n  revert\ntag_22:\n    /* \"multisign.sol\":1572:1576  true */\n  0x01\n    /* \"multisign.sol\":1555:1562  isOwner */\n  dup1\n    /* \"multisign.sol\":1555:1569  isOwner[owner] */\n  0x00\n    /* \"multisign.sol\":1563:1568  owner */\n  dup4\n    /* \"multisign.sol\":1555:1569  isOwner[owner] */\n  0xffffffffffffffffffffffffffffffffffffffff\n  and\n  0xffffffffffffffffffffffffffffffffffffffff\n  and\n  dup2\n  mstore\n  0x20\n  add\n  swap1\n  dup2\n  mstore\n  0x20\n  add\n  0x00\n  keccak256\n  0x00\n    /* \"multisign.sol\":1555:1576  isOwner[owner] = true */\n  0x0100\n  exp\n  dup2\n  sload\n  dup2\n  0xff\n  mul\n  not\n  and\n  swap1\n  dup4\n  iszero\n  iszero\n  mul\n  or\n  swap1\n  sstore\n  pop\n    /* \"multisign.sol\":1590:1596  owners */\n  0x00\n    /* \"multisign.sol\":1602:1607  owner */\n  dup2\n    /* \"multisign.sol\":1590:1608  owners.push(owner) */\n  swap1\n  dup1\n  0x01\n  dup2\n  sload\n  add\n  dup1\n  dup3\n  sstore\n  dup1\n  swap2\n  pop\n  pop\n  0x01\n  swap1\n  sub\n  swap1\n  0x00\n  mstore\n  keccak256(0x00, 0x20)\n  add\n  0x00\n  swap1\n  swap2\n  swap1\n  swap2\n  swap1\n  swap2\n  0x0100\n  exp\n  dup2\n  sload\n  dup2\n  0xffffffffffffffffffffffffffffffffffffffff\n  mul\n  not\n  and\n  swap1\n  dup4\n  0xffffffffffffffffffffffffffffffffffffffff\n  and\n  mul\n  or\n  swap1\n  sstore\n  pop\n    /* \"multisign.sol\":1380:1619  {... */\n  pop\n    /* \"multisign.sol\":1376:1379  i++ */\n  dup1\n  dup1\n  tag_26\n  swap1\n  tag_27\n  jump\t// in\ntag_26:\n  swap2\n  pop\n  pop\n    /* \"multisign.sol\":1343:1619  for (uint i=0; i<_owners.length; i++){... */\n  jump(tag_13)\ntag_14:\n  pop\n    /* \"multisign.sol\":1640:1649  _required */\n  dup1\n    /* \"multisign.sol\":1629:1637  required */\n  0x02\n    /* \"multisign.sol\":1629:1649  required = _required */\n  dup2\n  swap1\n  sstore\n  pop\n    /* \"multisign.sol\":1091:1656  constructor(address[] memory _owners, uint _required){... */\n  pop\n  pop\n    /* \"multisign.sol\":24:3265  contract MultiSigWallet {... */\n  jump(tag_28)\n    /* \"#utility.yul\":7:82   */\ntag_29:\n    /* \"#utility.yul\":40:46   */\n  0x00\n    /* \"#utility.yul\":73:75   */\n  0x40\n    /* \"#utility.yul\":67:76   */\n  mload\n    /* \"#utility.yul\":57:76   */\n  swap1\n  pop\n    /* \"#utility.yul\":7:82   */\n  swap1\n  jump\t// out\n    /* \"#utility.yul\":88:205   */\ntag_30:\n    /* \"#utility.yul\":197:198   */\n  0x00\n    /* \"#utility.yul\":194:195   */\n  dup1\n    /* \"#utility.yul\":187:199   */\n  revert\n    /* \"#utility.yul\":211:328   */\ntag_31:\n    /* \"#utility.yul\":320:321   */\n  0x00\n    /* \"#utility.yul\":317:318   */\n  dup1\n    /* \"#utility.yul\":310:322   */\n  revert\n    /* \"#utility.yul\":334:451   */\ntag_32:\n    /* \"#utility.yul\":443:444   */\n  0x00\n    /* \"#utility.yul\":440:441   */\n  dup1\n    /* \"#utility.yul\":433:445   */\n  revert\n    /* \"#utility.yul\":457:559   */\ntag_33:\n    /* \"#utility.yul\":498:504   */\n  0x00\n    /* \"#utility.yul\":549:551   */\n  0x1f\n    /* \"#utility.yul\":545:552   */\n  not\n    /* \"#utility.yul\":540:542   */\n  0x1f\n    /* \"#utility.yul\":533:538   */\n  dup4\n    /* \"#utility.yul\":529:543   */\n  add\n    /* \"#utility.yul\":525:553   */\n  and\n    /* \"#utility.yul\":515:553   */\n  swap1\n  pop\n    /* \"#utility.yul\":457:559   */\n  swap2\n  swap1\n  pop\n  jump\t// out\n    /* \"#utility.yul\":565:745   */\ntag_34:\n    /* \"#utility.yul\":613:690   */\n  0x4e487b7100000000000000000000000000000000000000000000000000000000\n    /* \"#utility.yul\":610:611   */\n  0x00\n    /* \"#utility.yul\":603:691   */\n  mstore\n    /* \"#utility.yul\":710:714   */\n  0x41\n    /* \"#utility.yul\":707:708   */\n  0x04\n    /* \"#utility.yul\":700:715   */\n  mstore\n    /* \"#utility.yul\":734:738   */\n  0x24\n    /* \"#utility.yul\":731:732   */\n  0x00\n    /* \"#utility.yul\":724:739   */\n  revert\n    /* \"#utility.yul\":751:1032   */\ntag_35:\n    /* \"#utility.yul\":834:861   */\n  tag_66\n    /* \"#utility.yul\":856:860   */\n  dup3\n    /* \"#utility.yul\":834:861   */\n  tag_33\n  jump\t// in\ntag_66:\n    /* \"#utility.yul\":826:832   */\n  dup2\n    /* \"#utility.yul\":822:862   */\n  add\n    /* \"#utility.yul\":964:970   */\n  dup2\n    /* \"#utility.yul\":952:962   */\n  dup2\n    /* \"#utility.yul\":949:971   */\n  lt\n    /* \"#utility.yul\":928:946   */\n  0xffffffffffffffff\n    /* \"#utility.yul\":916:926   */\n  dup3\n    /* \"#utility.yul\":913:947   */\n  gt\n    /* \"#utility.yul\":910:972   */\n  or\n    /* \"#utility.yul\":907:995   */\n  iszero\n  tag_67\n  jumpi\n    /* \"#utility.yul\":975:993   */\n  tag_68\n  tag_34\n  jump\t// in\ntag_68:\n    /* \"#utility.yul\":907:995   */\ntag_67:\n    /* \"#utility.yul\":1015:1025   */\n  dup1\n    /* \"#utility.yul\":1011:1013   */\n  0x40\n    /* \"#utility.yul\":1004:1026   */\n  mstore\n    /* \"#utility.yul\":794:1032   */\n  pop\n    /* \"#utility.yul\":751:1032   */\n  pop\n  pop\n  jump\t// out\n    /* \"#utility.yul\":1038:1167   */\ntag_36:\n    /* \"#utility.yul\":1072:1078   */\n  0x00\n    /* \"#utility.yul\":1099:1119   */\n  tag_70\n  tag_29\n  jump\t// in\ntag_70:\n    /* \"#utility.yul\":1089:1119   */\n  swap1\n  pop\n    /* \"#utility.yul\":1128:1161   */\n  tag_71\n    /* \"#utility.yul\":1156:1160   */\n  dup3\n    /* \"#utility.yul\":1148:1154   */\n  dup3\n    /* \"#utility.yul\":1128:1161   */\n  tag_35\n  jump\t// in\ntag_71:\n    /* \"#utility.yul\":1038:1167   */\n  swap2\n  swap1\n  pop\n  jump\t// out\n    /* \"#utility.yul\":1173:1484   */\ntag_37:\n    /* \"#utility.yul\":1250:1254   */\n  0x00\n    /* \"#utility.yul\":1340:1358   */\n  0xffffffffffffffff\n    /* \"#utility.yul\":1332:1338   */\n  dup3\n    /* \"#utility.yul\":1329:1359   */\n  gt\n    /* \"#utility.yul\":1326:1382   */\n  iszero\n  tag_73\n  jumpi\n    /* \"#utility.yul\":1362:1380   */\n  tag_74\n  tag_34\n  jump\t// in\ntag_74:\n    /* \"#utility.yul\":1326:1382   */\ntag_73:\n    /* \"#utility.yul\":1412:1416   */\n  0x20\n    /* \"#utility.yul\":1404:1410   */\n  dup3\n    /* \"#utility.yul\":1400:1417   */\n  mul\n    /* \"#utility.yul\":1392:1417   */\n  swap1\n  pop\n    /* \"#utility.yul\":1472:1476   */\n  0x20\n    /* \"#utility.yul\":1466:1470   */\n  dup2\n    /* \"#utility.yul\":1462:1477   */\n  add\n    /* \"#utility.yul\":1454:1477   */\n  swap1\n  pop\n    /* \"#utility.yul\":1173:1484   */\n  swap2\n  swap1\n  pop\n  jump\t// out\n    /* \"#utility.yul\":1490:1607   */\ntag_38:\n    /* \"#utility.yul\":1599:1600   */\n  0x00\n    /* \"#utility.yul\":1596:1597   */\n  dup1\n    /* \"#utility.yul\":1589:1601   */\n  revert\n    /* \"#utility.yul\":1613:1739   */\ntag_39:\n    /* \"#utility.yul\":1650:1657   */\n  0x00\n    /* \"#utility.yul\":1690:1732   */\n  0xffffffffffffffffffffffffffffffffffffffff\n    /* \"#utility.yul\":1683:1688   */\n  dup3\n    /* \"#utility.yul\":1679:1733   */\n  and\n    /* \"#utility.yul\":1668:1733   */\n  swap1\n  pop\n    /* \"#utility.yul\":1613:1739   */\n  swap2\n  swap1\n  pop\n  jump\t// out\n    /* \"#utility.yul\":1745:1841   */\ntag_40:\n    /* \"#utility.yul\":1782:1789   */\n  0x00\n    /* \"#utility.yul\":1811:1835   */\n  tag_78\n    /* \"#utility.yul\":1829:1834   */\n  dup3\n    /* \"#utility.yul\":1811:1835   */\n  tag_39\n  jump\t// in\ntag_78:\n    /* \"#utility.yul\":1800:1835   */\n  swap1\n  pop\n    /* \"#utility.yul\":1745:1841   */\n  swap2\n  swap1\n  pop\n  jump\t// out\n    /* \"#utility.yul\":1847:1969   */\ntag_41:\n    /* \"#utility.yul\":1920:1944   */\n  tag_80\n    /* \"#utility.yul\":1938:1943   */\n  dup2\n    /* \"#utility.yul\":1920:1944   */\n  tag_40\n  jump\t// in\ntag_80:\n    /* \"#utility.yul\":1913:1918   */\n  dup2\n    /* \"#utility.yul\":1910:1945   */\n  eq\n    /* \"#utility.yul\":1900:1963   */\n  tag_81\n  jumpi\n    /* \"#utility.yul\":1959:1960   */\n  0x00\n    /* \"#utility.yul\":1956:1957   */\n  dup1\n    /* \"#utility.yul\":1949:1961   */\n  revert\n    /* \"#utility.yul\":1900:1963   */\ntag_81:\n    /* \"#utility.yul\":1847:1969   */\n  pop\n  jump\t// out\n    /* \"#utility.yul\":1975:2118   */\ntag_42:\n    /* \"#utility.yul\":2032:2037   */\n  0x00\n    /* \"#utility.yul\":2063:2069   */\n  dup2\n    /* \"#utility.yul\":2057:2070   */\n  mload\n    /* \"#utility.yul\":2048:2070   */\n  swap1\n  pop\n    /* \"#utility.yul\":2079:2112   */\n  tag_83\n    /* \"#utility.yul\":2106:2111   */\n  dup2\n    /* \"#utility.yul\":2079:2112   */\n  tag_41\n  jump\t// in\ntag_83:\n    /* \"#utility.yul\":1975:2118   */\n  swap3\n  swap2\n  pop\n  pop\n  jump\t// out\n    /* \"#utility.yul\":2141:2873   */\ntag_43:\n    /* \"#utility.yul\":2248:2253   */\n  0x00\n    /* \"#utility.yul\":2273:2354   */\n  tag_85\n    /* \"#utility.yul\":2289:2353   */\n  tag_86\n    /* \"#utility.yul\":2346:2352   */\n  dup5\n    /* \"#utility.yul\":2289:2353   */\n  tag_37\n  jump\t// in\ntag_86:\n    /* \"#utility.yul\":2273:2354   */\n  tag_36\n  jump\t// in\ntag_85:\n    /* \"#utility.yul\":2264:2354   */\n  swap1\n  pop\n    /* \"#utility.yul\":2374:2379   */\n  dup1\n    /* \"#utility.yul\":2403:2409   */\n  dup4\n    /* \"#utility.yul\":2396:2401   */\n  dup3\n    /* \"#utility.yul\":2389:2410   */\n  mstore\n    /* \"#utility.yul\":2437:2441   */\n  0x20\n    /* \"#utility.yul\":2430:2435   */\n  dup3\n    /* \"#utility.yul\":2426:2442   */\n  add\n    /* \"#utility.yul\":2419:2442   */\n  swap1\n  pop\n    /* \"#utility.yul\":2490:2494   */\n  0x20\n    /* \"#utility.yul\":2482:2488   */\n  dup5\n    /* \"#utility.yul\":2478:2495   */\n  mul\n    /* \"#utility.yul\":2470:2476   */\n  dup4\n    /* \"#utility.yul\":2466:2496   */\n  add\n    /* \"#utility.yul\":2519:2522   */\n  dup6\n    /* \"#utility.yul\":2511:2517   */\n  dup2\n    /* \"#utility.yul\":2508:2523   */\n  gt\n    /* \"#utility.yul\":2505:2627   */\n  iszero\n  tag_87\n  jumpi\n    /* \"#utility.yul\":2538:2617   */\n  tag_88\n  tag_38\n  jump\t// in\ntag_88:\n    /* \"#utility.yul\":2505:2627   */\ntag_87:\n    /* \"#utility.yul\":2653:2659   */\n  dup4\n    /* \"#utility.yul\":2636:2867   */\ntag_89:\n    /* \"#utility.yul\":2670:2676   */\n  dup2\n    /* \"#utility.yul\":2665:2668   */\n  dup2\n    /* \"#utility.yul\":2662:2677   */\n  lt\n    /* \"#utility.yul\":2636:2867   */\n  iszero\n  tag_91\n  jumpi\n    /* \"#utility.yul\":2745:2748   */\n  dup1\n    /* \"#utility.yul\":2774:2822   */\n  tag_92\n    /* \"#utility.yul\":2818:2821   */\n  dup9\n    /* \"#utility.yul\":2806:2816   */\n  dup3\n    /* \"#utility.yul\":2774:2822   */\n  tag_42\n  jump\t// in\ntag_92:\n    /* \"#utility.yul\":2769:2772   */\n  dup5\n    /* \"#utility.yul\":2762:2823   */\n  mstore\n    /* \"#utility.yul\":2852:2856   */\n  0x20\n    /* \"#utility.yul\":2847:2850   */\n  dup5\n    /* \"#utility.yul\":2843:2857   */\n  add\n    /* \"#utility.yul\":2836:2857   */\n  swap4\n  pop\n    /* \"#utility.yul\":2712:2867   */\n  pop\n    /* \"#utility.yul\":2696:2700   */\n  0x20\n    /* \"#utility.yul\":2691:2694   */\n  dup2\n    /* \"#utility.yul\":2687:2701   */\n  add\n    /* \"#utility.yul\":2680:2701   */\n  swap1\n  pop\n    /* \"#utility.yul\":2636:2867   */\n  jump(tag_89)\ntag_91:\n    /* \"#utility.yul\":2640:2661   */\n  pop\n    /* \"#utility.yul\":2254:2873   */\n  pop\n  pop\n    /* \"#utility.yul\":2141:2873   */\n  swap4\n  swap3\n  pop\n  pop\n  pop\n  jump\t// out\n    /* \"#utility.yul\":2896:3281   */\ntag_44:\n    /* \"#utility.yul\":2978:2983   */\n  0x00\n    /* \"#utility.yul\":3027:3030   */\n  dup3\n    /* \"#utility.yul\":3020:3024   */\n  0x1f\n    /* \"#utility.yul\":3012:3018   */\n  dup4\n    /* \"#utility.yul\":3008:3025   */\n  add\n    /* \"#utility.yul\":3004:3031   */\n  slt\n    /* \"#utility.yul\":2994:3116   */\n  tag_94\n  jumpi\n    /* \"#utility.yul\":3035:3114   */\n  tag_95\n  tag_32\n  jump\t// in\ntag_95:\n    /* \"#utility.yul\":2994:3116   */\ntag_94:\n    /* \"#utility.yul\":3145:3151   */\n  dup2\n    /* \"#utility.yul\":3139:3152   */\n  mload\n    /* \"#utility.yul\":3170:3275   */\n  tag_96\n    /* \"#utility.yul\":3271:3274   */\n  dup5\n    /* \"#utility.yul\":3263:3269   */\n  dup3\n    /* \"#utility.yul\":3256:3260   */\n  0x20\n    /* \"#utility.yul\":3248:3254   */\n  dup7\n    /* \"#utility.yul\":3244:3261   */\n  add\n    /* \"#utility.yul\":3170:3275   */\n  tag_43\n  jump\t// in\ntag_96:\n    /* \"#utility.yul\":3161:3275   */\n  swap2\n  pop\n    /* \"#utility.yul\":2984:3281   */\n  pop\n    /* \"#utility.yul\":2896:3281   */\n  swap3\n  swap2\n  pop\n  pop\n  jump\t// out\n    /* \"#utility.yul\":3287:3364   */\ntag_45:\n    /* \"#utility.yul\":3324:3331   */\n  0x00\n    /* \"#utility.yul\":3353:3358   */\n  dup2\n    /* \"#utility.yul\":3342:3358   */\n  swap1\n  pop\n    /* \"#utility.yul\":3287:3364   */\n  swap2\n  swap1\n  pop\n  jump\t// out\n    /* \"#utility.yul\":3370:3492   */\ntag_46:\n    /* \"#utility.yul\":3443:3467   */\n  tag_99\n    /* \"#utility.yul\":3461:3466   */\n  dup2\n    /* \"#utility.yul\":3443:3467   */\n  tag_45\n  jump\t// in\ntag_99:\n    /* \"#utility.yul\":3436:3441   */\n  dup2\n    /* \"#utility.yul\":3433:3468   */\n  eq\n    /* \"#utility.yul\":3423:3486   */\n  tag_100\n  jumpi\n    /* \"#utility.yul\":3482:3483   */\n  0x00\n    /* \"#utility.yul\":3479:3480   */\n  dup1\n    /* \"#utility.yul\":3472:3484   */\n  revert\n    /* \"#utility.yul\":3423:3486   */\ntag_100:\n    /* \"#utility.yul\":3370:3492   */\n  pop\n  jump\t// out\n    /* \"#utility.yul\":3498:3641   */\ntag_47:\n    /* \"#utility.yul\":3555:3560   */\n  0x00\n    /* \"#utility.yul\":3586:3592   */\n  dup2\n    /* \"#utility.yul\":3580:3593   */\n  mload\n    /* \"#utility.yul\":3571:3593   */\n  swap1\n  pop\n    /* \"#utility.yul\":3602:3635   */\n  tag_102\n    /* \"#utility.yul\":3629:3634   */\n  dup2\n    /* \"#utility.yul\":3602:3635   */\n  tag_46\n  jump\t// in\ntag_102:\n    /* \"#utility.yul\":3498:3641   */\n  swap3\n  swap2\n  pop\n  pop\n  jump\t// out\n    /* \"#utility.yul\":3647:4357   */\ntag_3:\n    /* \"#utility.yul\":3751:3757   */\n  0x00\n    /* \"#utility.yul\":3759:3765   */\n  dup1\n    /* \"#utility.yul\":3808:3810   */\n  0x40\n    /* \"#utility.yul\":3796:3805   */\n  dup4\n    /* \"#utility.yul\":3787:3794   */\n  dup6\n    /* \"#utility.yul\":3783:3806   */\n  sub\n    /* \"#utility.yul\":3779:3811   */\n  slt\n    /* \"#utility.yul\":3776:3895   */\n  iszero\n  tag_104\n  jumpi\n    /* \"#utility.yul\":3814:3893   */\n  tag_105\n  tag_30\n  jump\t// in\ntag_105:\n    /* \"#utility.yul\":3776:3895   */\ntag_104:\n    /* \"#utility.yul\":3955:3956   */\n  0x00\n    /* \"#utility.yul\":3944:3953   */\n  dup4\n    /* \"#utility.yul\":3940:3957   */\n  add\n    /* \"#utility.yul\":3934:3958   */\n  mload\n    /* \"#utility.yul\":3985:4003   */\n  0xffffffffffffffff\n    /* \"#utility.yul\":3977:3983   */\n  dup2\n    /* \"#utility.yul\":3974:4004   */\n  gt\n    /* \"#utility.yul\":3971:4088   */\n  iszero\n  tag_106\n  jumpi\n    /* \"#utility.yul\":4007:4086   */\n  tag_107\n  tag_31\n  jump\t// in\ntag_107:\n    /* \"#utility.yul\":3971:4088   */\ntag_106:\n    /* \"#utility.yul\":4112:4201   */\n  tag_108\n    /* \"#utility.yul\":4193:4200   */\n  dup6\n    /* \"#utility.yul\":4184:4190   */\n  dup3\n    /* \"#utility.yul\":4173:4182   */\n  dup7\n    /* \"#utility.yul\":4169:4191   */\n  add\n    /* \"#utility.yul\":4112:4201   */\n  tag_44\n  jump\t// in\ntag_108:\n    /* \"#utility.yul\":4102:4201   */\n  swap3\n  pop\n    /* \"#utility.yul\":3905:4211   */\n  pop\n    /* \"#utility.yul\":4250:4252   */\n  0x20\n    /* \"#utility.yul\":4276:4340   */\n  tag_109\n    /* \"#utility.yul\":4332:4339   */\n  dup6\n    /* \"#utility.yul\":4323:4329   */\n  dup3\n    /* \"#utility.yul\":4312:4321   */\n  dup7\n    /* \"#utility.yul\":4308:4330   */\n  add\n    /* \"#utility.yul\":4276:4340   */\n  tag_47\n  jump\t// in\ntag_109:\n    /* \"#utility.yul\":4266:4340   */\n  swap2\n  pop\n    /* \"#utility.yul\":4221:4350   */\n  pop\n    /* \"#utility.yul\":3647:4357   */\n  swap3\n  pop\n  swap3\n  swap1\n  pop\n  jump\t// out\n    /* \"#utility.yul\":4363:4532   */\ntag_48:\n    /* \"#utility.yul\":4447:4458   */\n  0x00\n    /* \"#utility.yul\":4481:4487   */\n  dup3\n    /* \"#utility.yul\":4476:4479   */\n  dup3\n    /* \"#utility.yul\":4469:4488   */\n  mstore\n    /* \"#utility.yul\":4521:4525   */\n  0x20\n    /* \"#utility.yul\":4516:4519   */\n  dup3\n    /* \"#utility.yul\":4512:4526   */\n  add\n    /* \"#utility.yul\":4497:4526   */\n  swap1\n  pop\n    /* \"#utility.yul\":4363:4532   */\n  swap3\n  swap2\n  pop\n  pop\n  jump\t// out\n    /* \"#utility.yul\":4538:4703   */\ntag_49:\n    /* \"#utility.yul\":4678:4695   */\n  0x6f776e6572732072657175697265640000000000000000000000000000000000\n    /* \"#utility.yul\":4674:4675   */\n  0x00\n    /* \"#utility.yul\":4666:4672   */\n  dup3\n    /* \"#utility.yul\":4662:4676   */\n  add\n    /* \"#utility.yul\":4655:4696   */\n  mstore\n    /* \"#utility.yul\":4538:4703   */\n  pop\n  jump\t// out\n    /* \"#utility.yul\":4709:5075   */\ntag_50:\n    /* \"#utility.yul\":4851:4854   */\n  0x00\n    /* \"#utility.yul\":4872:4939   */\n  tag_113\n    /* \"#utility.yul\":4936:4938   */\n  0x0f\n    /* \"#utility.yul\":4931:4934   */\n  dup4\n    /* \"#utility.yul\":4872:4939   */\n  tag_48\n  jump\t// in\ntag_113:\n    /* \"#utility.yul\":4865:4939   */\n  swap2\n  pop\n    /* \"#utility.yul\":4948:5041   */\n  tag_114\n    /* \"#utility.yul\":5037:5040   */\n  dup3\n    /* \"#utility.yul\":4948:5041   */\n  tag_49\n  jump\t// in\ntag_114:\n    /* \"#utility.yul\":5066:5068   */\n  0x20\n    /* \"#utility.yul\":5061:5064   */\n  dup3\n    /* \"#utility.yul\":5057:5069   */\n  add\n    /* \"#utility.yul\":5050:5069   */\n  swap1\n  pop\n    /* \"#utility.yul\":4709:5075   */\n  swap2\n  swap1\n  pop\n  jump\t// out\n    /* \"#utility.yul\":5081:5500   */\ntag_8:\n    /* \"#utility.yul\":5247:5251   */\n  0x00\n    /* \"#utility.yul\":5285:5287   */\n  0x20\n    /* \"#utility.yul\":5274:5283   */\n  dup3\n    /* \"#utility.yul\":5270:5288   */\n  add\n    /* \"#utility.yul\":5262:5288   */\n  swap1\n  pop\n    /* \"#utility.yul\":5334:5343   */\n  dup2\n    /* \"#utility.yul\":5328:5332   */\n  dup2\n    /* \"#utility.yul\":5324:5344   */\n  sub\n    /* \"#utility.yul\":5320:5321   */\n  0x00\n    /* \"#utility.yul\":5309:5318   */\n  dup4\n    /* \"#utility.yul\":5305:5322   */\n  add\n    /* \"#utility.yul\":5298:5345   */\n  mstore\n    /* \"#utility.yul\":5362:5493   */\n  tag_116\n    /* \"#utility.yul\":5488:5492   */\n  dup2\n    /* \"#utility.yul\":5362:5493   */\n  tag_50\n  jump\t// in\ntag_116:\n    /* \"#utility.yul\":5354:5493   */\n  swap1\n  pop\n    /* \"#utility.yul\":5081:5500   */\n  swap2\n  swap1\n  pop\n  jump\t// out\n    /* \"#utility.yul\":5506:5726   */\ntag_51:\n    /* \"#utility.yul\":5646:5680   */\n  0x696e76616c6964207265717569726564206e756d626572206f66206f776e6572\n    /* \"#utility.yul\":5642:5643   */\n  0x00\n    /* \"#utility.yul\":5634:5640   */\n  dup3\n    /* \"#utility.yul\":5630:5644   */\n  add\n    /* \"#utility.yul\":5623:5681   */\n  mstore\n    /* \"#utility.yul\":5715:5718   */\n  0x7300000000000000000000000000000000000000000000000000000000000000\n    /* \"#utility.yul\":5710:5712   */\n  0x20\n    /* \"#utility.yul\":5702:5708   */\n  dup3\n    /* \"#utility.yul\":5698:5713   */\n  add\n    /* \"#utility.yul\":5691:5719   */\n  mstore\n    /* \"#utility.yul\":5506:5726   */\n  pop\n  jump\t// out\n    /* \"#utility.yul\":5732:6098   */\ntag_52:\n    /* \"#utility.yul\":5874:5877   */\n  0x00\n    /* \"#utility.yul\":5895:5962   */\n  tag_119\n    /* \"#utility.yul\":5959:5961   */\n  0x21\n    /* \"#utility.yul\":5954:5957   */\n  dup4\n    /* \"#utility.yul\":5895:5962   */\n  tag_48\n  jump\t// in\ntag_119:\n    /* \"#utility.yul\":5888:5962   */\n  swap2\n  pop\n    /* \"#utility.yul\":5971:6064   */\n  tag_120\n    /* \"#utility.yul\":6060:6063   */\n  dup3\n    /* \"#utility.yul\":5971:6064   */\n  tag_51\n  jump\t// in\ntag_120:\n    /* \"#utility.yul\":6089:6091   */\n  0x40\n    /* \"#utility.yul\":6084:6087   */\n  dup3\n    /* \"#utility.yul\":6080:6092   */\n  add\n    /* \"#utility.yul\":6073:6092   */\n  swap1\n  pop\n    /* \"#utility.yul\":5732:6098   */\n  swap2\n  swap1\n  pop\n  jump\t// out\n    /* \"#utility.yul\":6104:6523   */\ntag_12:\n    /* \"#utility.yul\":6270:6274   */\n  0x00\n    /* \"#utility.yul\":6308:6310   */\n  0x20\n    /* \"#utility.yul\":6297:6306   */\n  dup3\n    /* \"#utility.yul\":6293:6311   */\n  add\n    /* \"#utility.yul\":6285:6311   */\n  swap1\n  pop\n    /* \"#utility.yul\":6357:6366   */\n  dup2\n    /* \"#utility.yul\":6351:6355   */\n  dup2\n    /* \"#utility.yul\":6347:6367   */\n  sub\n    /* \"#utility.yul\":6343:6344   */\n  0x00\n    /* \"#utility.yul\":6332:6341   */\n  dup4\n    /* \"#utility.yul\":6328:6345   */\n  add\n    /* \"#utility.yul\":6321:6368   */\n  mstore\n    /* \"#utility.yul\":6385:6516   */\n  tag_122\n    /* \"#utility.yul\":6511:6515   */\n  dup2\n    /* \"#utility.yul\":6385:6516   */\n  tag_52\n  jump\t// in\ntag_122:\n    /* \"#utility.yul\":6377:6516   */\n  swap1\n  pop\n    /* \"#utility.yul\":6104:6523   */\n  swap2\n  swap1\n  pop\n  jump\t// out\n    /* \"#utility.yul\":6529:6709   */\ntag_18:\n    /* \"#utility.yul\":6577:6654   */\n  0x4e487b7100000000000000000000000000000000000000000000000000000000\n    /* \"#utility.yul\":6574:6575   */\n  0x00\n    /* \"#utility.yul\":6567:6655   */\n  mstore\n    /* \"#utility.yul\":6674:6678   */\n  0x32\n    /* \"#utility.yul\":6671:6672   */\n  0x04\n    /* \"#utility.yul\":6664:6679   */\n  mstore\n    /* \"#utility.yul\":6698:6702   */\n  0x24\n    /* \"#utility.yul\":6695:6696   */\n  0x00\n    /* \"#utility.yul\":6688:6703   */\n  revert\n    /* \"#utility.yul\":6715:6878   */\ntag_53:\n    /* \"#utility.yul\":6855:6870   */\n  0x696e76616c6964206f776e657200000000000000000000000000000000000000\n    /* \"#utility.yul\":6851:6852   */\n  0x00\n    /* \"#utility.yul\":6843:6849   */\n  dup3\n    /* \"#utility.yul\":6839:6853   */\n  add\n    /* \"#utility.yul\":6832:6871   */\n  mstore\n    /* \"#utility.yul\":6715:6878   */\n  pop\n  jump\t// out\n    /* \"#utility.yul\":6884:7250   */\ntag_54:\n    /* \"#utility.yul\":7026:7029   */\n  0x00\n    /* \"#utility.yul\":7047:7114   */\n  tag_126\n    /* \"#utility.yul\":7111:7113   */\n  0x0d\n    /* \"#utility.yul\":7106:7109   */\n  dup4\n    /* \"#utility.yul\":7047:7114   */\n  tag_48\n  jump\t// in\ntag_126:\n    /* \"#utility.yul\":7040:7114   */\n  swap2\n  pop\n    /* \"#utility.yul\":7123:7216   */\n  tag_127\n    /* \"#utility.yul\":7212:7215   */\n  dup3\n    /* \"#utility.yul\":7123:7216   */\n  tag_53\n  jump\t// in\ntag_127:\n    /* \"#utility.yul\":7241:7243   */\n  0x20\n    /* \"#utility.yul\":7236:7239   */\n  dup3\n    /* \"#utility.yul\":7232:7244   */\n  add\n    /* \"#utility.yul\":7225:7244   */\n  swap1\n  pop\n    /* \"#utility.yul\":6884:7250   */\n  swap2\n  swap1\n  pop\n  jump\t// out\n    /* \"#utility.yul\":7256:7675   */\ntag_21:\n    /* \"#utility.yul\":7422:7426   */\n  0x00\n    /* \"#utility.yul\":7460:7462   */\n  0x20\n    /* \"#utility.yul\":7449:7458   */\n  dup3\n    /* \"#utility.yul\":7445:7463   */\n  add\n    /* \"#utility.yul\":7437:7463   */\n  swap1\n  pop\n    /* \"#utility.yul\":7509:7518   */\n  dup2\n    /* \"#utility.yul\":7503:7507   */\n  dup2\n    /* \"#utility.yul\":7499:7519   */\n  sub\n    /* \"#utility.yul\":7495:7496   */\n  0x00\n    /* \"#utility.yul\":7484:7493   */\n  dup4\n    /* \"#utility.yul\":7480:7497   */\n  add\n    /* \"#utility.yul\":7473:7520   */\n  mstore\n    /* \"#utility.yul\":7537:7668   */\n  tag_129\n    /* \"#utility.yul\":7663:7667   */\n  dup2\n    /* \"#utility.yul\":7537:7668   */\n  tag_54\n  jump\t// in\ntag_129:\n    /* \"#utility.yul\":7529:7668   */\n  swap1\n  pop\n    /* \"#utility.yul\":7256:7675   */\n  swap2\n  swap1\n  pop\n  jump\t// out\n    /* \"#utility.yul\":7681:7851   */\ntag_55:\n    /* \"#utility.yul\":7821:7843   */\n  0x6f776e6572206973206e6f742075696e69717565000000000000000000000000\n    /* \"#utility.yul\":7817:7818   */\n  0x00\n    /* \"#utility.yul\":7809:7815   */\n  dup3\n    /* \"#utility.yul\":7805:7819   */\n  add\n    /* \"#utility.yul\":7798:7844   */\n  mstore\n    /* \"#utility.yul\":7681:7851   */\n  pop\n  jump\t// out\n    /* \"#utility.yul\":7857:8223   */\ntag_56:\n    /* \"#utility.yul\":7999:8002   */\n  0x00\n    /* \"#utility.yul\":8020:8087   */\n  tag_132\n    /* \"#utility.yul\":8084:8086   */\n  0x14\n    /* \"#utility.yul\":8079:8082   */\n  dup4\n    /* \"#utility.yul\":8020:8087   */\n  tag_48\n  jump\t// in\ntag_132:\n    /* \"#utility.yul\":8013:8087   */\n  swap2\n  pop\n    /* \"#utility.yul\":8096:8189   */\n  tag_133\n    /* \"#utility.yul\":8185:8188   */\n  dup3\n    /* \"#utility.yul\":8096:8189   */\n  tag_55\n  jump\t// in\ntag_133:\n    /* \"#utility.yul\":8214:8216   */\n  0x20\n    /* \"#utility.yul\":8209:8212   */\n  dup3\n    /* \"#utility.yul\":8205:8217   */\n  add\n    /* \"#utility.yul\":8198:8217   */\n  swap1\n  pop\n    /* \"#utility.yul\":7857:8223   */\n  swap2\n  swap1\n  pop\n  jump\t// out\n    /* \"#utility.yul\":8229:8648   */\ntag_24:\n    /* \"#utility.yul\":8395:8399   */\n  0x00\n    /* \"#utility.yul\":8433:8435   */\n  0x20\n    /* \"#utility.yul\":8422:8431   */\n  dup3\n    /* \"#utility.yul\":8418:8436   */\n  add\n    /* \"#utility.yul\":8410:8436   */\n  swap1\n  pop\n    /* \"#utility.yul\":8482:8491   */\n  dup2\n    /* \"#utility.yul\":8476:8480   */\n  dup2\n    /* \"#utility.yul\":8472:8492   */\n  sub\n    /* \"#utility.yul\":8468:8469   */\n  0x00\n    /* \"#utility.yul\":8457:8466   */\n  dup4\n    /* \"#utility.yul\":8453:8470   */\n  add\n    /* \"#utility.yul\":8446:8493   */\n  mstore\n    /* \"#utility.yul\":8510:8641   */\n  tag_135\n    /* \"#utility.yul\":8636:8640   */\n  dup2\n    /* \"#utility.yul\":8510:8641   */\n  tag_56\n  jump\t// in\ntag_135:\n    /* \"#utility.yul\":8502:8641   */\n  swap1\n  pop\n    /* \"#utility.yul\":8229:8648   */\n  swap2\n  swap1\n  pop\n  jump\t// out\n    /* \"#utility.yul\":8654:8834   */\ntag_57:\n    /* \"#utility.yul\":8702:8779   */\n  0x4e487b7100000000000000000000000000000000000000000000000000000000\n    /* \"#utility.yul\":8699:8700   */\n  0x00\n    /* \"#utility.yul\":8692:8780   */\n  mstore\n    /* \"#utility.yul\":8799:8803   */\n  0x11\n    /* \"#utility.yul\":8796:8797   */\n  0x04\n    /* \"#utility.yul\":8789:8804   */\n  mstore\n    /* \"#utility.yul\":8823:8827   */\n  0x24\n    /* \"#utility.yul\":8820:8821   */\n  0x00\n    /* \"#utility.yul\":8813:8828   */\n  revert\n    /* \"#utility.yul\":8840:9073   */\ntag_27:\n    /* \"#utility.yul\":8879:8882   */\n  0x00\n    /* \"#utility.yul\":8902:8926   */\n  tag_138\n    /* \"#utility.yul\":8920:8925   */\n  dup3\n    /* \"#utility.yul\":8902:8926   */\n  tag_45\n  jump\t// in\ntag_138:\n    /* \"#utility.yul\":8893:8926   */\n  swap2\n  pop\n    /* \"#utility.yul\":8948:9014   */\n  0xffffffffffffffffffffffffffffffffffffffffffffffffffffffffffffffff\n    /* \"#utility.yul\":8941:8946   */\n  dup3\n    /* \"#utility.yul\":8938:9015   */\n  sub\n    /* \"#utility.yul\":8935:9038   */\n  tag_139\n  jumpi\n    /* \"#utility.yul\":9018:9036   */\n  tag_140\n  tag_57\n  jump\t// in\ntag_140:\n    /* \"#utility.yul\":8935:9038   */\ntag_139:\n    /* \"#utility.yul\":9065:9066   */\n  0x01\n    /* \"#utility.yul\":9058:9063   */\n  dup3\n    /* \"#utility.yul\":9054:9067   */\n  add\n    /* \"#utility.yul\":9047:9067   */\n  swap1\n  pop\n    /* \"#utility.yul\":8840:9073   */\n  swap2\n  swap1\n  pop\n  jump\t// out\n    /* \"multisign.sol\":24:3265  contract MultiSigWallet {... */\ntag_28:\n  dataSize(sub_0)\n  dup1\n  dataOffset(sub_0)\n  0x00\n  codecopy\n  0x00\n  return\nstop\n\nsub_0: assembly {\n        /* \"multisign.sol\":24:3265  contract MultiSigWallet {... */\n      mstore(0x40, 0x80)\n      jumpi(tag_1, lt(calldatasize, 0x04))\n      shr(0xe0, calldataload(0x00))\n      dup1\n      0x8253951a\n      gt\n      tag_12\n      jumpi\n      dup1\n      0x8253951a\n      eq\n      tag_7\n      jumpi\n      dup1\n      0x9ace38c2\n      eq\n      tag_8\n      jumpi\n      dup1\n      0xb759f954\n      eq\n      tag_9\n      jumpi\n      dup1\n      0xdc8452cd\n      eq\n      tag_10\n      jumpi\n      dup1\n      0xfe0d94c1\n      eq\n      tag_11\n      jumpi\n      jump(tag_2)\n    tag_12:\n      dup1\n      0x025e7c27\n      eq\n      tag_3\n      jumpi\n      dup1\n      0x14de327f\n      eq\n      tag_4\n      jumpi\n      dup1\n      0x20c5429b\n      eq\n      tag_5\n      jumpi\n      dup1\n      0x2f54bf6e\n      eq\n      tag_6\n      jumpi\n      jump(tag_2)\n    tag_1:\n      jumpi(tag_2, calldatasize)\n        /* \"multisign.sol\":1712:1722  msg.sender */\n      caller\n        /* \"multisign.sol\":1704:1734  Deposit(msg.sender, msg.value) */\n      0xffffffffffffffffffffffffffffffffffffffff\n      and\n      0xe1fffcc4923d04b559f4d29a8bfc6cda04eb5b0d3c460751c2402c5c5cc9109c\n        /* \"multisign.sol\":1724:1733  msg.value */\n      callvalue\n        /* \"multisign.sol\":1704:1734  Deposit(msg.sender, msg.value) */\n      mload(0x40)\n      tag_15\n      swap2\n      swap1\n      tag_16\n      jump\t// in\n    tag_15:\n      mload(0x40)\n      dup1\n      swap2\n      sub\n      swap1\n      log2\n        /* \"multisign.sol\":24:3265  contract MultiSigWallet {... */\n      stop\n    tag_2:\n      0x00\n      dup1\n      revert\n        /* \"multisign.sol\":425:448  address[] public owners */\n    tag_3:\n      callvalue\n      dup1\n      iszero\n      tag_17\n      jumpi\n      0x00\n      dup1\n      revert\n    tag_17:\n      pop\n      tag_18\n      0x04\n      dup1\n      calldatasize\n      sub\n      dup2\n      add\n      swap1\n      tag_19\n      swap2\n      swap1\n      tag_20\n      jump\t// in\n    tag_19:\n      tag_21\n      jump\t// in\n    tag_18:\n      mload(0x40)\n      tag_22\n      swap2\n      swap1\n      tag_23\n      jump\t// in\n    tag_22:\n      mload(0x40)\n      dup1\n      swap2\n      sub\n      swap1\n      return\n        /* \"multisign.sol\":1747:2058  function submit(address _to, uint _value, bytes calldata _data)... */\n    tag_4:\n      callvalue\n      dup1\n      iszero\n      tag_24\n      jumpi\n      0x00\n      dup1\n      revert\n    tag_24:\n      pop\n      tag_25\n      0x04\n      dup1\n      calldatasize\n      sub\n      dup2\n      add\n      swap1\n      tag_26\n      swap2\n      swap1\n      tag_27\n      jump\t// in\n    tag_26:\n      tag_28\n      jump\t// in\n    tag_25:\n      stop\n        /* \"multisign.sol\":2985:3261  function revoke(uint _txId) ... */\n    tag_5:\n      callvalue\n      dup1\n      iszero\n      tag_29\n      jumpi\n      0x00\n      dup1\n      revert\n    tag_29:\n      pop\n      tag_30\n      0x04\n      dup1\n      calldatasize\n      sub\n      dup2\n      add\n      swap1\n      tag_31\n      swap2\n      swap1\n      tag_20\n      jump\t// in\n    tag_31:\n      tag_32\n      jump\t// in\n    tag_30:\n      stop\n        /* \"multisign.sol\":454:493  mapping(address => bool) public isOwner */\n    tag_6:\n      callvalue\n      dup1\n      iszero\n      tag_33\n      jumpi\n      0x00\n      dup1\n      revert\n    tag_33:\n      pop\n      tag_34\n      0x04\n      dup1\n      calldatasize\n      sub\n      dup2\n      add\n      swap1\n      tag_35\n      swap2\n      swap1\n      tag_36\n      jump\t// in\n    tag_35:\n      tag_37\n      jump\t// in\n    tag_34:\n      mload(0x40)\n      tag_38\n      swap2\n      swap1\n      tag_39\n      jump\t// in\n    tag_38:\n      mload(0x40)\n      dup1\n      swap2\n      sub\n      swap1\n      return\n        /* \"multisign.sol\":564:621  mapping(uint => mapping(address => bool)) public approved */\n    tag_7:\n      callvalue\n      dup1\n      iszero\n      tag_40\n      jumpi\n      0x00\n      dup1\n      revert\n    tag_40:\n      pop\n      tag_41\n      0x04\n      dup1\n      calldatasize\n      sub\n      dup2\n      add\n      swap1\n      tag_42\n      swap2\n      swap1\n      tag_43\n      jump\t// in\n    tag_42:\n      tag_44\n      jump\t// in\n    tag_41:\n      mload(0x40)\n      tag_45\n      swap2\n      swap1\n      tag_39\n      jump\t// in\n    tag_45:\n      mload(0x40)\n      dup1\n      swap2\n      sub\n      swap1\n      return\n        /* \"multisign.sol\":525:558  Transaction[] public transactions */\n    tag_8:\n      callvalue\n      dup1\n      iszero\n      tag_46\n      jumpi\n      0x00\n      dup1\n      revert\n    tag_46:\n      pop\n      tag_47\n      0x04\n      dup1\n      calldatasize\n      sub\n      dup2\n      add\n      swap1\n      tag_48\n      swap2\n      swap1\n      tag_20\n      jump\t// in\n    tag_48:\n      tag_49\n      jump\t// in\n    tag_47:\n      mload(0x40)\n      tag_50\n      swap5\n      swap4\n      swap3\n      swap2\n      swap1\n      tag_51\n      jump\t// in\n    tag_50:\n      mload(0x40)\n      dup1\n      swap2\n      sub\n      swap1\n      return\n        /* \"multisign.sol\":2064:2302  function approve(uint _txId)... */\n    tag_9:\n      callvalue\n      dup1\n      iszero\n      tag_52\n      jumpi\n      0x00\n      dup1\n      revert\n    tag_52:\n      pop\n      tag_53\n      0x04\n      dup1\n      calldatasize\n      sub\n      dup2\n      add\n      swap1\n      tag_54\n      swap2\n      swap1\n      tag_20\n      jump\t// in\n    tag_54:\n      tag_55\n      jump\t// in\n    tag_53:\n      stop\n        /* \"multisign.sol\":499:519  uint public required */\n    tag_10:\n      callvalue\n      dup1\n      iszero\n      tag_56\n      jumpi\n      0x00\n      dup1\n      revert\n    tag_56:\n      pop\n      tag_57\n      tag_58\n      jump\t// in\n    tag_57:\n      mload(0x40)\n      tag_59\n      swap2\n      swap1\n      tag_16\n      jump\t// in\n    tag_59:\n      mload(0x40)\n      dup1\n      swap2\n      sub\n      swap1\n      return\n        /* \"multisign.sol\":2538:2979  function execute(uint _txId) external txExists(_txId) notExecuted(_txId){... */\n    tag_11:\n      callvalue\n      dup1\n      iszero\n      tag_60\n      jumpi\n      0x00\n      dup1\n      revert\n    tag_60:\n      pop\n      tag_61\n      0x04\n      dup1\n      calldatasize\n      sub\n      dup2\n      add\n      swap1\n      tag_62\n      swap2\n      swap1\n      tag_20\n      jump\t// in\n    tag_62:\n      tag_63\n      jump\t// in\n    tag_61:\n      stop\n        /* \"multisign.sol\":425:448  address[] public owners */\n    tag_21:\n      0x00\n      dup2\n      dup2\n      sload\n      dup2\n      lt\n      tag_64\n      jumpi\n      0x00\n      dup1\n      revert\n    tag_64:\n      swap1\n      0x00\n      mstore\n      keccak256(0x00, 0x20)\n      add\n      0x00\n      swap2\n      pop\n      sload\n      swap1\n      0x0100\n      exp\n      swap1\n      div\n      0xffffffffffffffffffffffffffffffffffffffff\n      and\n      dup2\n      jump\t// out\n        /* \"multisign.sol\":1747:2058  function submit(address _to, uint _value, bytes calldata _data)... */\n    tag_28:\n        /* \"multisign.sol\":668:675  isOwner */\n      0x01\n        /* \"multisign.sol\":668:687  isOwner[msg.sender] */\n      0x00\n        /* \"multisign.sol\":676:686  msg.sender */\n      caller\n        /* \"multisign.sol\":668:687  isOwner[msg.sender] */\n      0xffffffffffffffffffffffffffffffffffffffff\n      and\n      0xffffffffffffffffffffffffffffffffffffffff\n      and\n      dup2\n      mstore\n      0x20\n      add\n      swap1\n      dup2\n      mstore\n      0x20\n      add\n      0x00\n      keccak256\n      0x00\n      swap1\n      sload\n      swap1\n      0x0100\n      exp\n      swap1\n      div\n      0xff\n      and\n        /* \"multisign.sol\":660:701  require(isOwner[msg.sender], \"not owner\") */\n      tag_67\n      jumpi\n      mload(0x40)\n      0x08c379a000000000000000000000000000000000000000000000000000000000\n      dup2\n      mstore\n      0x04\n      add\n      tag_68\n      swap1\n      tag_69\n      jump\t// in\n    tag_68:\n      mload(0x40)\n      dup1\n      swap2\n      sub\n      swap1\n      revert\n    tag_67:\n        /* \"multisign.sol\":1860:1872  transactions */\n      0x03\n        /* \"multisign.sol\":1878:2004  Transaction({... */\n      mload(0x40)\n      dup1\n      0x80\n      add\n      0x40\n      mstore\n      dup1\n        /* \"multisign.sol\":1908:1911  _to */\n      dup7\n        /* \"multisign.sol\":1878:2004  Transaction({... */\n      0xffffffffffffffffffffffffffffffffffffffff\n      and\n      dup2\n      mstore\n      0x20\n      add\n        /* \"multisign.sol\":1932:1938  _value */\n      dup6\n        /* \"multisign.sol\":1878:2004  Transaction({... */\n      dup2\n      mstore\n      0x20\n      add\n        /* \"multisign.sol\":1958:1963  _data */\n      dup5\n      dup5\n        /* \"multisign.sol\":1878:2004  Transaction({... */\n      dup1\n      dup1\n      0x1f\n      add\n      0x20\n      dup1\n      swap2\n      div\n      mul\n      0x20\n      add\n      mload(0x40)\n      swap1\n      dup2\n      add\n      0x40\n      mstore\n      dup1\n      swap4\n      swap3\n      swap2\n      swap1\n      dup2\n      dup2\n      mstore\n      0x20\n      add\n      dup4\n      dup4\n      dup1\n      dup3\n      dup5\n      calldatacopy\n      0x00\n      dup2\n      dup5\n      add\n      mstore\n      not(0x1f)\n      0x1f\n      dup3\n      add\n      and\n      swap1\n      pop\n      dup1\n      dup4\n      add\n      swap3\n      pop\n      pop\n      pop\n      pop\n      pop\n      pop\n      pop\n      dup2\n      mstore\n      0x20\n      add\n        /* \"multisign.sol\":1987:1992  false */\n      0x00\n        /* \"multisign.sol\":1878:2004  Transaction({... */\n      iszero\n      iszero\n      dup2\n      mstore\n      pop\n        /* \"multisign.sol\":1860:2005  transactions.push(Transaction({... */\n      swap1\n      dup1\n      0x01\n      dup2\n      sload\n      add\n      dup1\n      dup3\n      sstore\n      dup1\n      swap2\n      pop\n      pop\n      0x01\n      swap1\n      sub\n      swap1\n      0x00\n      mstore\n      keccak256(0x00, 0x20)\n      swap1\n      0x04\n      mul\n      add\n      0x00\n      swap1\n      swap2\n      swap1\n      swap2\n      swap1\n      swap2\n      pop\n      0x00\n      dup3\n      add\n      mload\n      dup2\n      0x00\n      add\n      exp(0x0100, 0x00)\n      dup2\n      sload\n      dup2\n      0xffffffffffffffffffffffffffffffffffffffff\n      mul\n      not\n      and\n      swap1\n      dup4\n      0xffffffffffffffffffffffffffffffffffffffff\n      and\n      mul\n      or\n      swap1\n      sstore\n      pop\n      0x20\n      dup3\n      add\n      mload\n      dup2\n      0x01\n      add\n      sstore\n      0x40\n      dup3\n      add\n      mload\n      dup2\n      0x02\n      add\n      swap1\n      dup2\n      tag_72\n      swap2\n      swap1\n      tag_73\n      jump\t// in\n    tag_72:\n      pop\n      0x60\n      dup3\n      add\n      mload\n      dup2\n      0x03\n      add\n      exp(0x0100, 0x00)\n      dup2\n      sload\n      dup2\n      0xff\n      mul\n      not\n      and\n      swap1\n      dup4\n      iszero\n      iszero\n      mul\n      or\n      swap1\n      sstore\n      pop\n      pop\n      pop\n        /* \"multisign.sol\":2049:2050  1 */\n      0x01\n        /* \"multisign.sol\":2027:2039  transactions */\n      0x03\n        /* \"multisign.sol\":2027:2046  transactions.length */\n      dup1\n      sload\n      swap1\n      pop\n        /* \"multisign.sol\":2027:2050  transactions.length - 1 */\n      tag_74\n      swap2\n      swap1\n      tag_75\n      jump\t// in\n    tag_74:\n        /* \"multisign.sol\":2020:2051  Submit(transactions.length - 1) */\n      0x08324b3d745b914e3abd4ffbfead91e3b78391a98c173202129215ab933adfbe\n      mload(0x40)\n      mload(0x40)\n      dup1\n      swap2\n      sub\n      swap1\n      log2\n        /* \"multisign.sol\":1747:2058  function submit(address _to, uint _value, bytes calldata _data)... */\n      pop\n      pop\n      pop\n      pop\n      jump\t// out\n        /* \"multisign.sol\":2985:3261  function revoke(uint _txId) ... */\n    tag_32:\n        /* \"multisign.sol\":668:675  isOwner */\n      0x01\n        /* \"multisign.sol\":668:687  isOwner[msg.sender] */\n      0x00\n        /* \"multisign.sol\":676:686  msg.sender */\n      caller\n        /* \"multisign.sol\":668:687  isOwner[msg.sender] */\n      0xffffffffffffffffffffffffffffffffffffffff\n      and\n      0xffffffffffffffffffffffffffffffffffffffff\n      and\n      dup2\n      mstore\n      0x20\n      add\n      swap1\n      dup2\n      mstore\n      0x20\n      add\n      0x00\n      keccak256\n      0x00\n      swap1\n      sload\n      swap1\n      0x0100\n      exp\n      swap1\n      div\n      0xff\n      and\n        /* \"multisign.sol\":660:701  require(isOwner[msg.sender], \"not owner\") */\n      tag_77\n      jumpi\n      mload(0x40)\n      0x08c379a000000000000000000000000000000000000000000000000000000000\n      dup2\n      mstore\n      0x04\n      add\n      tag_78\n      swap1\n      tag_69\n      jump\t// in\n    tag_78:\n      mload(0x40)\n      dup1\n      swap2\n      sub\n      swap1\n      revert\n    tag_77:\n        /* \"multisign.sol\":3066:3071  _txId */\n      dup1\n        /* \"multisign.sol\":781:793  transactions */\n      0x03\n        /* \"multisign.sol\":781:800  transactions.length */\n      dup1\n      sload\n      swap1\n      pop\n        /* \"multisign.sol\":773:778  _txId */\n      dup2\n        /* \"multisign.sol\":773:800  _txId < transactions.length */\n      lt\n        /* \"multisign.sol\":765:822  require(_txId < transactions.length, \"tx does not exist\") */\n      tag_80\n      jumpi\n      mload(0x40)\n      0x08c379a000000000000000000000000000000000000000000000000000000000\n      dup2\n      mstore\n      0x04\n      add\n      tag_81\n      swap1\n      tag_82\n      jump\t// in\n    tag_81:\n      mload(0x40)\n      dup1\n      swap2\n      sub\n      swap1\n      revert\n    tag_80:\n        /* \"multisign.sol\":3093:3098  _txId */\n      dup2\n        /* \"multisign.sol\":1024:1036  transactions */\n      0x03\n        /* \"multisign.sol\":1037:1042  _txId */\n      dup2\n        /* \"multisign.sol\":1024:1043  transactions[_txId] */\n      dup2\n      sload\n      dup2\n      lt\n      tag_84\n      jumpi\n      tag_85\n      tag_86\n      jump\t// in\n    tag_85:\n    tag_84:\n      swap1\n      0x00\n      mstore\n      keccak256(0x00, 0x20)\n      swap1\n      0x04\n      mul\n      add\n        /* \"multisign.sol\":1024:1052  transactions[_txId].executed */\n      0x03\n      add\n      0x00\n      swap1\n      sload\n      swap1\n      0x0100\n      exp\n      swap1\n      div\n      0xff\n      and\n        /* \"multisign.sol\":1023:1052  !transactions[_txId].executed */\n      iszero\n        /* \"multisign.sol\":1015:1068  require(!transactions[_txId].executed, \"tx executed\") */\n      tag_88\n      jumpi\n      mload(0x40)\n      0x08c379a000000000000000000000000000000000000000000000000000000000\n      dup2\n      mstore\n      0x04\n      add\n      tag_89\n      swap1\n      tag_90\n      jump\t// in\n    tag_89:\n      mload(0x40)\n      dup1\n      swap2\n      sub\n      swap1\n      revert\n    tag_88:\n        /* \"multisign.sol\":3122:3130  approved */\n      0x04\n        /* \"multisign.sol\":3122:3137  approved[_txId] */\n      0x00\n        /* \"multisign.sol\":3131:3136  _txId */\n      dup5\n        /* \"multisign.sol\":3122:3137  approved[_txId] */\n      dup2\n      mstore\n      0x20\n      add\n      swap1\n      dup2\n      mstore\n      0x20\n      add\n      0x00\n      keccak256\n        /* \"multisign.sol\":3122:3149  approved[_txId][msg.sender] */\n      0x00\n        /* \"multisign.sol\":3138:3148  msg.sender */\n      caller\n        /* \"multisign.sol\":3122:3149  approved[_txId][msg.sender] */\n      0xffffffffffffffffffffffffffffffffffffffff\n      and\n      0xffffffffffffffffffffffffffffffffffffffff\n      and\n      dup2\n      mstore\n      0x20\n      add\n      swap1\n      dup2\n      mstore\n      0x20\n      add\n      0x00\n      keccak256\n      0x00\n      swap1\n      sload\n      swap1\n      0x0100\n      exp\n      swap1\n      div\n      0xff\n      and\n        /* \"multisign.sol\":3114:3169  require(approved[_txId][msg.sender], \"tx not approved\") */\n      tag_92\n      jumpi\n      mload(0x40)\n      0x08c379a000000000000000000000000000000000000000000000000000000000\n      dup2\n      mstore\n      0x04\n      add\n      tag_93\n      swap1\n      tag_94\n      jump\t// in\n    tag_93:\n      mload(0x40)\n      dup1\n      swap2\n      sub\n      swap1\n      revert\n    tag_92:\n        /* \"multisign.sol\":3209:3214  false */\n      0x00\n        /* \"multisign.sol\":3179:3187  approved */\n      0x04\n        /* \"multisign.sol\":3179:3194  approved[_txId] */\n      0x00\n        /* \"multisign.sol\":3188:3193  _txId */\n      dup6\n        /* \"multisign.sol\":3179:3194  approved[_txId] */\n      dup2\n      mstore\n      0x20\n      add\n      swap1\n      dup2\n      mstore\n      0x20\n      add\n      0x00\n      keccak256\n        /* \"multisign.sol\":3179:3206  approved[_txId][msg.sender] */\n      0x00\n        /* \"multisign.sol\":3195:3205  msg.sender */\n      caller\n        /* \"multisign.sol\":3179:3206  approved[_txId][msg.sender] */\n      0xffffffffffffffffffffffffffffffffffffffff\n      and\n      0xffffffffffffffffffffffffffffffffffffffff\n      and\n      dup2\n      mstore\n      0x20\n      add\n      swap1\n      dup2\n      mstore\n      0x20\n      add\n      0x00\n      keccak256\n      0x00\n        /* \"multisign.sol\":3179:3214  approved[_txId][msg.sender] = false */\n      0x0100\n      exp\n      dup2\n      sload\n      dup2\n      0xff\n      mul\n      not\n      and\n      swap1\n      dup4\n      iszero\n      iszero\n      mul\n      or\n      swap1\n      sstore\n      pop\n        /* \"multisign.sol\":3248:3253  _txId */\n      dup3\n        /* \"multisign.sol\":3236:3246  msg.sender */\n      caller\n        /* \"multisign.sol\":3229:3254  Revoke(msg.sender, _txId) */\n      0xffffffffffffffffffffffffffffffffffffffff\n      and\n      0xec9ab91322523c899ede7830ec9bfc992b5981cdcc27b91162fb23de5791117b\n      mload(0x40)\n      mload(0x40)\n      dup1\n      swap2\n      sub\n      swap1\n      log3\n        /* \"multisign.sol\":832:833  _ */\n      pop\n        /* \"multisign.sol\":711:712  _ */\n      pop\n        /* \"multisign.sol\":2985:3261  function revoke(uint _txId) ... */\n      pop\n      jump\t// out\n        /* \"multisign.sol\":454:493  mapping(address => bool) public isOwner */\n    tag_37:\n      mstore(0x20, 0x01)\n      dup1\n      0x00\n      mstore\n      keccak256(0x00, 0x40)\n      0x00\n      swap2\n      pop\n      sload\n      swap1\n      0x0100\n      exp\n      swap1\n      div\n      0xff\n      and\n      dup2\n      jump\t// out\n        /* \"multisign.sol\":564:621  mapping(uint => mapping(address => bool)) public approved */\n    tag_44:\n      mstore(0x20, 0x04)\n      dup2\n      0x00\n      mstore\n      mstore(0x20, keccak256(0x00, 0x40))\n      dup1\n      0x00\n      mstore\n      keccak256(0x00, 0x40)\n      0x00\n      swap2\n      pop\n      swap2\n      pop\n      swap1\n      sload\n      swap1\n      0x0100\n      exp\n      swap1\n      div\n      0xff\n      and\n      dup2\n      jump\t// out\n        /* \"multisign.sol\":525:558  Transaction[] public transactions */\n    tag_49:\n      0x03\n      dup2\n      dup2\n      sload\n      dup2\n      lt\n      tag_95\n      jumpi\n      0x00\n      dup1\n      revert\n    tag_95:\n      swap1\n      0x00\n      mstore\n      keccak256(0x00, 0x20)\n      swap1\n      0x04\n      mul\n      add\n      0x00\n      swap2\n      pop\n      swap1\n      pop\n      dup1\n      0x00\n      add\n      0x00\n      swap1\n      sload\n      swap1\n      0x0100\n      exp\n      swap1\n      div\n      0xffffffffffffffffffffffffffffffffffffffff\n      and\n      swap1\n      dup1\n      0x01\n      add\n      sload\n      swap1\n      dup1\n      0x02\n      add\n      dup1\n      sload\n      tag_97\n      swap1\n      tag_98\n      jump\t// in\n    tag_97:\n      dup1\n      0x1f\n      add\n      0x20\n      dup1\n      swap2\n      div\n      mul\n      0x20\n      add\n      mload(0x40)\n      swap1\n      dup2\n      add\n      0x40\n      mstore\n      dup1\n      swap3\n      swap2\n      swap1\n      dup2\n      dup2\n      mstore\n      0x20\n      add\n      dup3\n      dup1\n      sload\n      tag_99\n      swap1\n      tag_98\n      jump\t// in\n    tag_99:\n      dup1\n      iszero\n      tag_100\n      jumpi\n      dup1\n      0x1f\n      lt\n      tag_101\n      jumpi\n      0x0100\n      dup1\n      dup4\n      sload\n      div\n      mul\n      dup4\n      mstore\n      swap2\n      0x20\n      add\n      swap2\n      jump(tag_100)\n    tag_101:\n      dup3\n      add\n      swap2\n      swap1\n      0x00\n      mstore\n      keccak256(0x00, 0x20)\n      swap1\n    tag_102:\n      dup2\n      sload\n      dup2\n      mstore\n      swap1\n      0x01\n      add\n      swap1\n      0x20\n      add\n      dup1\n      dup4\n      gt\n      tag_102\n      jumpi\n      dup3\n      swap1\n      sub\n      0x1f\n      and\n      dup3\n      add\n      swap2\n    tag_100:\n      pop\n      pop\n      pop\n      pop\n      pop\n      swap1\n      dup1\n      0x03\n      add\n      0x00\n      swap1\n      sload\n      swap1\n      0x0100\n      exp\n      swap1\n      div\n      0xff\n      and\n      swap1\n      pop\n      dup5\n      jump\t// out\n        /* \"multisign.sol\":2064:2302  function approve(uint _txId)... */\n    tag_55:\n        /* \"multisign.sol\":668:675  isOwner */\n      0x01\n        /* \"multisign.sol\":668:687  isOwner[msg.sender] */\n      0x00\n        /* \"multisign.sol\":676:686  msg.sender */\n      caller\n        /* \"multisign.sol\":668:687  isOwner[msg.sender] */\n      0xffffffffffffffffffffffffffffffffffffffff\n      and\n      0xffffffffffffffffffffffffffffffffffffffff\n      and\n      dup2\n      mstore\n      0x20\n      add\n      swap1\n      dup2\n      mstore\n      0x20\n      add\n      0x00\n      keccak256\n      0x00\n      swap1\n      sload\n      swap1\n      0x0100\n      exp\n      swap1\n      div\n      0xff\n      and\n        /* \"multisign.sol\":660:701  require(isOwner[msg.sender], \"not owner\") */\n      tag_104\n      jumpi\n      mload(0x40)\n      0x08c379a000000000000000000000000000000000000000000000000000000000\n      dup2\n      mstore\n      0x04\n      add\n      tag_105\n      swap1\n      tag_69\n      jump\t// in\n    tag_105:\n      mload(0x40)\n      dup1\n      swap2\n      sub\n      swap1\n      revert\n    tag_104:\n        /* \"multisign.sol\":2145:2150  _txId */\n      dup1\n        /* \"multisign.sol\":781:793  transactions */\n      0x03\n        /* \"multisign.sol\":781:800  transactions.length */\n      dup1\n      sload\n      swap1\n      pop\n        /* \"multisign.sol\":773:778  _txId */\n      dup2\n        /* \"multisign.sol\":773:800  _txId < transactions.length */\n      lt\n        /* \"multisign.sol\":765:822  require(_txId < transactions.length, \"tx does not exist\") */\n      tag_107\n      jumpi\n      mload(0x40)\n      0x08c379a000000000000000000000000000000000000000000000000000000000\n      dup2\n      mstore\n      0x04\n      add\n      tag_108\n      swap1\n      tag_82\n      jump\t// in\n    tag_108:\n      mload(0x40)\n      dup1\n      swap2\n      sub\n      swap1\n      revert\n    tag_107:\n        /* \"multisign.sol\":2172:2177  _txId */\n      dup2\n        /* \"multisign.sol\":898:906  approved */\n      0x04\n        /* \"multisign.sol\":898:913  approved[_txId] */\n      0x00\n        /* \"multisign.sol\":907:912  _txId */\n      dup3\n        /* \"multisign.sol\":898:913  approved[_txId] */\n      dup2\n      mstore\n      0x20\n      add\n      swap1\n      dup2\n      mstore\n      0x20\n      add\n      0x00\n      keccak256\n        /* \"multisign.sol\":898:925  approved[_txId][msg.sender] */\n      0x00\n        /* \"multisign.sol\":914:924  msg.sender */\n      caller\n        /* \"multisign.sol\":898:925  approved[_txId][msg.sender] */\n      0xffffffffffffffffffffffffffffffffffffffff\n      and\n      0xffffffffffffffffffffffffffffffffffffffff\n      and\n      dup2\n      mstore\n      0x20\n      add\n      swap1\n      dup2\n      mstore\n      0x20\n      add\n      0x00\n      keccak256\n      0x00\n      swap1\n      sload\n      swap1\n      0x0100\n      exp\n      swap1\n      div\n      0xff\n      and\n        /* \"multisign.sol\":897:925  !approved[_txId][msg.sender] */\n      iszero\n        /* \"multisign.sol\":889:949  require(!approved[_txId][msg.sender], \"tx already approved\") */\n      tag_110\n      jumpi\n      mload(0x40)\n      0x08c379a000000000000000000000000000000000000000000000000000000000\n      dup2\n      mstore\n      0x04\n      add\n      tag_111\n      swap1\n      tag_112\n      jump\t// in\n    tag_111:\n      mload(0x40)\n      dup1\n      swap2\n      sub\n      swap1\n      revert\n    tag_110:\n        /* \"multisign.sol\":2199:2204  _txId */\n      dup3\n        /* \"multisign.sol\":1024:1036  transactions */\n      0x03\n        /* \"multisign.sol\":1037:1042  _txId */\n      dup2\n        /* \"multisign.sol\":1024:1043  transactions[_txId] */\n      dup2\n      sload\n      dup2\n      lt\n      tag_114\n      jumpi\n      tag_115\n      tag_86\n      jump\t// in\n    tag_115:\n    tag_114:\n      swap1\n      0x00\n      mstore\n      keccak256(0x00, 0x20)\n      swap1\n      0x04\n      mul\n      add\n        /* \"multisign.sol\":1024:1052  transactions[_txId].executed */\n      0x03\n      add\n      0x00\n      swap1\n      sload\n      swap1\n      0x0100\n      exp\n      swap1\n      div\n      0xff\n      and\n        /* \"multisign.sol\":1023:1052  !transactions[_txId].executed */\n      iszero\n        /* \"multisign.sol\":1015:1068  require(!transactions[_txId].executed, \"tx executed\") */\n      tag_117\n      jumpi\n      mload(0x40)\n      0x08c379a000000000000000000000000000000000000000000000000000000000\n      dup2\n      mstore\n      0x04\n      add\n      tag_118\n      swap1\n      tag_90\n      jump\t// in\n    tag_118:\n      mload(0x40)\n      dup1\n      swap2\n      sub\n      swap1\n      revert\n    tag_117:\n        /* \"multisign.sol\":2250:2254  true */\n      0x01\n        /* \"multisign.sol\":2220:2228  approved */\n      0x04\n        /* \"multisign.sol\":2220:2235  approved[_txId] */\n      0x00\n        /* \"multisign.sol\":2229:2234  _txId */\n      dup7\n        /* \"multisign.sol\":2220:2235  approved[_txId] */\n      dup2\n      mstore\n      0x20\n      add\n      swap1\n      dup2\n      mstore\n      0x20\n      add\n      0x00\n      keccak256\n        /* \"multisign.sol\":2220:2247  approved[_txId][msg.sender] */\n      0x00\n        /* \"multisign.sol\":2236:2246  msg.sender */\n      caller\n        /* \"multisign.sol\":2220:2247  approved[_txId][msg.sender] */\n      0xffffffffffffffffffffffffffffffffffffffff\n      and\n      0xffffffffffffffffffffffffffffffffffffffff\n      and\n      dup2\n      mstore\n      0x20\n      add\n      swap1\n      dup2\n      mstore\n      0x20\n      add\n      0x00\n      keccak256\n      0x00\n        /* \"multisign.sol\":2220:2254  approved[_txId][msg.sender] = true */\n      0x0100\n      exp\n      dup2\n      sload\n      dup2\n      0xff\n      mul\n      not\n      and\n      swap1\n      dup4\n      iszero\n      iszero\n      mul\n      or\n      swap1\n      sstore\n      pop\n        /* \"multisign.sol\":2289:2294  _txId */\n      dup4\n        /* \"multisign.sol\":2277:2287  msg.sender */\n      caller\n        /* \"multisign.sol\":2269:2295  Approve(msg.sender, _txId) */\n      0xffffffffffffffffffffffffffffffffffffffff\n      and\n      0x90ec57f18fa7b15c6b8d5e4d1deb90796c74b2ff23d4d0cecad0cb42a96b3128\n      mload(0x40)\n      mload(0x40)\n      dup1\n      swap2\n      sub\n      swap1\n      log3\n        /* \"multisign.sol\":959:960  _ */\n      pop\n        /* \"multisign.sol\":832:833  _ */\n      pop\n        /* \"multisign.sol\":711:712  _ */\n      pop\n        /* \"multisign.sol\":2064:2302  function approve(uint _txId)... */\n      pop\n      jump\t// out\n        /* \"multisign.sol\":499:519  uint public required */\n    tag_58:\n      sload(0x02)\n      dup2\n      jump\t// out\n        /* \"multisign.sol\":2538:2979  function execute(uint _txId) external txExists(_txId) notExecuted(_txId){... */\n    tag_63:\n        /* \"multisign.sol\":2585:2590  _txId */\n      dup1\n        /* \"multisign.sol\":781:793  transactions */\n      0x03\n        /* \"multisign.sol\":781:800  transactions.length */\n      dup1\n      sload\n      swap1\n      pop\n        /* \"multisign.sol\":773:778  _txId */\n      dup2\n        /* \"multisign.sol\":773:800  _txId < transactions.length */\n      lt\n        /* \"multisign.sol\":765:822  require(_txId < transactions.length, \"tx does not exist\") */\n      tag_121\n      jumpi\n      mload(0x40)\n      0x08c379a000000000000000000000000000000000000000000000000000000000\n      dup2\n      mstore\n      0x04\n      add\n      tag_122\n      swap1\n      tag_82\n      jump\t// in\n    tag_122:\n      mload(0x40)\n      dup1\n      swap2\n      sub\n      swap1\n      revert\n    tag_121:\n        /* \"multisign.sol\":2604:2609  _txId */\n      dup2\n        /* \"multisign.sol\":1024:1036  transactions */\n      0x03\n        /* \"multisign.sol\":1037:1042  _txId */\n      dup2\n        /* \"multisign.sol\":1024:1043  transactions[_txId] */\n      dup2\n      sload\n      dup2\n      lt\n      tag_124\n      jumpi\n      tag_125\n      tag_86\n      jump\t// in\n    tag_125:\n    tag_124:\n      swap1\n      0x00\n      mstore\n      keccak256(0x00, 0x20)\n      swap1\n      0x04\n      mul\n      add\n        /* \"multisign.sol\":1024:1052  transactions[_txId].executed */\n      0x03\n      add\n      0x00\n      swap1\n      sload\n      swap1\n      0x0100\n      exp\n      swap1\n      div\n      0xff\n      and\n        /* \"multisign.sol\":1023:1052  !transactions[_txId].executed */\n      iszero\n        /* \"multisign.sol\":1015:1068  require(!transactions[_txId].executed, \"tx executed\") */\n      tag_127\n      jumpi\n      mload(0x40)\n      0x08c379a000000000000000000000000000000000000000000000000000000000\n      dup2\n      mstore\n      0x04\n      add\n      tag_128\n      swap1\n      tag_90\n      jump\t// in\n    tag_128:\n      mload(0x40)\n      dup1\n      swap2\n      sub\n      swap1\n      revert\n    tag_127:\n        /* \"multisign.sol\":2656:2664  required */\n      sload(0x02)\n        /* \"multisign.sol\":2628:2652  _getApprovalCount(_txId) */\n      tag_130\n        /* \"multisign.sol\":2646:2651  _txId */\n      dup5\n        /* \"multisign.sol\":2628:2645  _getApprovalCount */\n      tag_131\n        /* \"multisign.sol\":2628:2652  _getApprovalCount(_txId) */\n      jump\t// in\n    tag_130:\n        /* \"multisign.sol\":2628:2664  _getApprovalCount(_txId) >= required */\n      lt\n      iszero\n        /* \"multisign.sol\":2620:2689  require(_getApprovalCount(_txId) >= required, \"approvals < required\") */\n      tag_132\n      jumpi\n      mload(0x40)\n      0x08c379a000000000000000000000000000000000000000000000000000000000\n      dup2\n      mstore\n      0x04\n      add\n      tag_133\n      swap1\n      tag_134\n      jump\t// in\n    tag_133:\n      mload(0x40)\n      dup1\n      swap2\n      sub\n      swap1\n      revert\n    tag_132:\n        /* \"multisign.sol\":2699:2730  Transaction storage transaction */\n      0x00\n        /* \"multisign.sol\":2733:2745  transactions */\n      0x03\n        /* \"multisign.sol\":2746:2751  _txId */\n      dup5\n        /* \"multisign.sol\":2733:2752  transactions[_txId] */\n      dup2\n      sload\n      dup2\n      lt\n      tag_135\n      jumpi\n      tag_136\n      tag_86\n      jump\t// in\n    tag_136:\n    tag_135:\n      swap1\n      0x00\n      mstore\n      keccak256(0x00, 0x20)\n      swap1\n      0x04\n      mul\n      add\n        /* \"multisign.sol\":2699:2752  Transaction storage transaction = transactions[_txId] */\n      swap1\n      pop\n        /* \"multisign.sol\":2785:2789  true */\n      0x01\n        /* \"multisign.sol\":2762:2773  transaction */\n      dup2\n        /* \"multisign.sol\":2762:2782  transaction.executed */\n      0x03\n      add\n      0x00\n        /* \"multisign.sol\":2762:2789  transaction.executed = true */\n      0x0100\n      exp\n      dup2\n      sload\n      dup2\n      0xff\n      mul\n      not\n      and\n      swap1\n      dup4\n      iszero\n      iszero\n      mul\n      or\n      swap1\n      sstore\n      pop\n        /* \"multisign.sol\":2800:2812  bool success */\n      0x00\n        /* \"multisign.sol\":2818:2829  transaction */\n      dup2\n        /* \"multisign.sol\":2818:2832  transaction.to */\n      0x00\n      add\n      0x00\n      swap1\n      sload\n      swap1\n      0x0100\n      exp\n      swap1\n      div\n      0xffffffffffffffffffffffffffffffffffffffff\n      and\n        /* \"multisign.sol\":2818:2837  transaction.to.call */\n      0xffffffffffffffffffffffffffffffffffffffff\n      and\n        /* \"multisign.sol\":2845:2856  transaction */\n      dup3\n        /* \"multisign.sol\":2845:2862  transaction.value */\n      0x01\n      add\n      sload\n        /* \"multisign.sol\":2877:2888  transaction */\n      dup4\n        /* \"multisign.sol\":2877:2893  transaction.data */\n      0x02\n      add\n        /* \"multisign.sol\":2818:2903  transaction.to.call{value: transaction.value}(... */\n      mload(0x40)\n      tag_138\n      swap2\n      swap1\n      tag_139\n      jump\t// in\n    tag_138:\n      0x00\n      mload(0x40)\n      dup1\n      dup4\n      sub\n      dup2\n      dup6\n      dup8\n      gas\n      call\n      swap3\n      pop\n      pop\n      pop\n      returndatasize\n      dup1\n      0x00\n      dup2\n      eq\n      tag_142\n      jumpi\n      mload(0x40)\n      swap2\n      pop\n      and(add(returndatasize, 0x3f), not(0x1f))\n      dup3\n      add\n      0x40\n      mstore\n      returndatasize\n      dup3\n      mstore\n      returndatasize\n      0x00\n      0x20\n      dup5\n      add\n      returndatacopy\n      jump(tag_141)\n    tag_142:\n      0x60\n      swap2\n      pop\n    tag_141:\n      pop\n        /* \"multisign.sol\":2799:2903  (bool success, ) = transaction.to.call{value: transaction.value}(... */\n      pop\n      swap1\n      pop\n        /* \"multisign.sol\":2921:2928  success */\n      dup1\n        /* \"multisign.sol\":2913:2942  require(success, \"tx failed\") */\n      tag_143\n      jumpi\n      mload(0x40)\n      0x08c379a000000000000000000000000000000000000000000000000000000000\n      dup2\n      mstore\n      0x04\n      add\n      tag_144\n      swap1\n      tag_145\n      jump\t// in\n    tag_144:\n      mload(0x40)\n      dup1\n      swap2\n      sub\n      swap1\n      revert\n    tag_143:\n        /* \"multisign.sol\":2966:2971  _txId */\n      dup5\n        /* \"multisign.sol\":2958:2972  Execute(_txId) */\n      0xddb556f1d2c1ec821e910b019d3685b229db152a0ecd517ca7e24b8bd7139289\n      mload(0x40)\n      mload(0x40)\n      dup1\n      swap2\n      sub\n      swap1\n      log2\n        /* \"multisign.sol\":2610:2979  {... */\n      pop\n      pop\n        /* \"multisign.sol\":832:833  _ */\n      pop\n        /* \"multisign.sol\":2538:2979  function execute(uint _txId) external txExists(_txId) notExecuted(_txId){... */\n      pop\n      pop\n      jump\t// out\n        /* \"multisign.sol\":2308:2532  function _getApprovalCount(uint _txId) private view returns (uint count){... */\n    tag_131:\n        /* \"multisign.sol\":2369:2379  uint count */\n      0x00\n        /* \"multisign.sol\":2395:2401  uint i */\n      dup1\n        /* \"multisign.sol\":2402:2403  0 */\n      0x00\n        /* \"multisign.sol\":2395:2403  uint i=0 */\n      swap1\n      pop\n        /* \"multisign.sol\":2390:2526  for (uint i=0; i < owners.length; i++){... */\n    tag_147:\n        /* \"multisign.sol\":2409:2415  owners */\n      0x00\n        /* \"multisign.sol\":2409:2422  owners.length */\n      dup1\n      sload\n      swap1\n      pop\n        /* \"multisign.sol\":2405:2406  i */\n      dup2\n        /* \"multisign.sol\":2405:2422  i < owners.length */\n      lt\n        /* \"multisign.sol\":2390:2526  for (uint i=0; i < owners.length; i++){... */\n      iszero\n      tag_148\n      jumpi\n        /* \"multisign.sol\":2446:2454  approved */\n      0x04\n        /* \"multisign.sol\":2446:2461  approved[_txId] */\n      0x00\n        /* \"multisign.sol\":2455:2460  _txId */\n      dup5\n        /* \"multisign.sol\":2446:2461  approved[_txId] */\n      dup2\n      mstore\n      0x20\n      add\n      swap1\n      dup2\n      mstore\n      0x20\n      add\n      0x00\n      keccak256\n        /* \"multisign.sol\":2446:2472  approved[_txId][owners[i]] */\n      0x00\n        /* \"multisign.sol\":2462:2468  owners */\n      dup1\n        /* \"multisign.sol\":2469:2470  i */\n      dup4\n        /* \"multisign.sol\":2462:2471  owners[i] */\n      dup2\n      sload\n      dup2\n      lt\n      tag_150\n      jumpi\n      tag_151\n      tag_86\n      jump\t// in\n    tag_151:\n    tag_150:\n      swap1\n      0x00\n      mstore\n      keccak256(0x00, 0x20)\n      add\n      0x00\n      swap1\n      sload\n      swap1\n      0x0100\n      exp\n      swap1\n      div\n      0xffffffffffffffffffffffffffffffffffffffff\n      and\n        /* \"multisign.sol\":2446:2472  approved[_txId][owners[i]] */\n      0xffffffffffffffffffffffffffffffffffffffff\n      and\n      0xffffffffffffffffffffffffffffffffffffffff\n      and\n      dup2\n      mstore\n      0x20\n      add\n      swap1\n      dup2\n      mstore\n      0x20\n      add\n      0x00\n      keccak256\n      0x00\n      swap1\n      sload\n      swap1\n      0x0100\n      exp\n      swap1\n      div\n      0xff\n      and\n        /* \"multisign.sol\":2442:2516  if (approved[_txId][owners[i]]) {... */\n      iszero\n      tag_153\n      jumpi\n        /* \"multisign.sol\":2500:2501  1 */\n      0x01\n        /* \"multisign.sol\":2492:2501  count +=1 */\n      dup3\n      tag_154\n      swap2\n      swap1\n      tag_155\n      jump\t// in\n    tag_154:\n      swap2\n      pop\n        /* \"multisign.sol\":2442:2516  if (approved[_txId][owners[i]]) {... */\n    tag_153:\n        /* \"multisign.sol\":2424:2427  i++ */\n      dup1\n      dup1\n      tag_156\n      swap1\n      tag_157\n      jump\t// in\n    tag_156:\n      swap2\n      pop\n      pop\n        /* \"multisign.sol\":2390:2526  for (uint i=0; i < owners.length; i++){... */\n      jump(tag_147)\n    tag_148:\n      pop\n        /* \"multisign.sol\":2308:2532  function _getApprovalCount(uint _txId) private view returns (uint count){... */\n      swap2\n      swap1\n      pop\n      jump\t// out\n        /* \"#utility.yul\":7:84   */\n    tag_158:\n        /* \"#utility.yul\":44:51   */\n      0x00\n        /* \"#utility.yul\":73:78   */\n      dup2\n        /* \"#utility.yul\":62:78   */\n      swap1\n      pop\n        /* \"#utility.yul\":7:84   */\n      swap2\n      swap1\n      pop\n      jump\t// out\n        /* \"#utility.yul\":90:208   */\n    tag_159:\n        /* \"#utility.yul\":177:201   */\n      tag_219\n        /* \"#utility.yul\":195:200   */\n      dup2\n        /* \"#utility.yul\":177:201   */\n      tag_158\n      jump\t// in\n    tag_219:\n        /* \"#utility.yul\":172:175   */\n      dup3\n        /* \"#utility.yul\":165:202   */\n      mstore\n        /* \"#utility.yul\":90:208   */\n      pop\n      pop\n      jump\t// out\n        /* \"#utility.yul\":214:436   */\n    tag_16:\n        /* \"#utility.yul\":307:311   */\n      0x00\n        /* \"#utility.yul\":345:347   */\n      0x20\n        /* \"#utility.yul\":334:343   */\n      dup3\n        /* \"#utility.yul\":330:348   */\n      add\n        /* \"#utility.yul\":322:348   */\n      swap1\n      pop\n        /* \"#utility.yul\":358:429   */\n      tag_221\n        /* \"#utility.yul\":426:427   */\n      0x00\n        /* \"#utility.yul\":415:424   */\n      dup4\n        /* \"#utility.yul\":411:428   */\n      add\n        /* \"#utility.yul\":402:408   */\n      dup5\n        /* \"#utility.yul\":358:429   */\n      tag_159\n      jump\t// in\n    tag_221:\n        /* \"#utility.yul\":214:436   */\n      swap3\n      swap2\n      pop\n      pop\n      jump\t// out\n        /* \"#utility.yul\":523:640   */\n    tag_161:\n        /* \"#utility.yul\":632:633   */\n      0x00\n        /* \"#utility.yul\":629:630   */\n      dup1\n        /* \"#utility.yul\":622:634   */\n      revert\n        /* \"#utility.yul\":646:763   */\n    tag_162:\n        /* \"#utility.yul\":755:756   */\n      0x00\n        /* \"#utility.yul\":752:753   */\n      dup1\n        /* \"#utility.yul\":745:757   */\n      revert\n        /* \"#utility.yul\":769:891   */\n    tag_163:\n        /* \"#utility.yul\":842:866   */\n      tag_226\n        /* \"#utility.yul\":860:865   */\n      dup2\n        /* \"#utility.yul\":842:866   */\n      tag_158\n      jump\t// in\n    tag_226:\n        /* \"#utility.yul\":835:840   */\n      dup2\n        /* \"#utility.yul\":832:867   */\n      eq\n        /* \"#utility.yul\":822:885   */\n      tag_227\n      jumpi\n        /* \"#utility.yul\":881:882   */\n      0x00\n        /* \"#utility.yul\":878:879   */\n      dup1\n        /* \"#utility.yul\":871:883   */\n      revert\n        /* \"#utility.yul\":822:885   */\n    tag_227:\n        /* \"#utility.yul\":769:891   */\n      pop\n      jump\t// out\n        /* \"#utility.yul\":897:1036   */\n    tag_164:\n        /* \"#utility.yul\":943:948   */\n      0x00\n        /* \"#utility.yul\":981:987   */\n      dup2\n        /* \"#utility.yul\":968:988   */\n      calldataload\n        /* \"#utility.yul\":959:988   */\n      swap1\n      pop\n        /* \"#utility.yul\":997:1030   */\n      tag_229\n        /* \"#utility.yul\":1024:1029   */\n      dup2\n        /* \"#utility.yul\":997:1030   */\n      tag_163\n      jump\t// in\n    tag_229:\n        /* \"#utility.yul\":897:1036   */\n      swap3\n      swap2\n      pop\n      pop\n      jump\t// out\n        /* \"#utility.yul\":1042:1371   */\n    tag_20:\n        /* \"#utility.yul\":1101:1107   */\n      0x00\n        /* \"#utility.yul\":1150:1152   */\n      0x20\n        /* \"#utility.yul\":1138:1147   */\n      dup3\n        /* \"#utility.yul\":1129:1136   */\n      dup5\n        /* \"#utility.yul\":1125:1148   */\n      sub\n        /* \"#utility.yul\":1121:1153   */\n      slt\n        /* \"#utility.yul\":1118:1237   */\n      iszero\n      tag_231\n      jumpi\n        /* \"#utility.yul\":1156:1235   */\n      tag_232\n      tag_161\n      jump\t// in\n    tag_232:\n        /* \"#utility.yul\":1118:1237   */\n    tag_231:\n        /* \"#utility.yul\":1276:1277   */\n      0x00\n        /* \"#utility.yul\":1301:1354   */\n      tag_233\n        /* \"#utility.yul\":1346:1353   */\n      dup5\n        /* \"#utility.yul\":1337:1343   */\n      dup3\n        /* \"#utility.yul\":1326:1335   */\n      dup6\n        /* \"#utility.yul\":1322:1344   */\n      add\n        /* \"#utility.yul\":1301:1354   */\n      tag_164\n      jump\t// in\n    tag_233:\n        /* \"#utility.yul\":1291:1354   */\n      swap2\n      pop\n        /* \"#utility.yul\":1247:1364   */\n      pop\n        /* \"#utility.yul\":1042:1371   */\n      swap3\n      swap2\n      pop\n      pop\n      jump\t// out\n        /* \"#utility.yul\":1377:1503   */\n    tag_165:\n        /* \"#utility.yul\":1414:1421   */\n      0x00\n        /* \"#utility.yul\":1454:1496   */\n      0xffffffffffffffffffffffffffffffffffffffff\n        /* \"#utility.yul\":1447:1452   */\n      dup3\n        /* \"#utility.yul\":1443:1497   */\n      and\n        /* \"#utility.yul\":1432:1497   */\n      swap1\n      pop\n        /* \"#utility.yul\":1377:1503   */\n      swap2\n      swap1\n      pop\n      jump\t// out\n        /* \"#utility.yul\":1509:1605   */\n    tag_166:\n        /* \"#utility.yul\":1546:1553   */\n      0x00\n        /* \"#utility.yul\":1575:1599   */\n      tag_236\n        /* \"#utility.yul\":1593:1598   */\n      dup3\n        /* \"#utility.yul\":1575:1599   */\n      tag_165\n      jump\t// in\n    tag_236:\n        /* \"#utility.yul\":1564:1599   */\n      swap1\n      pop\n        /* \"#utility.yul\":1509:1605   */\n      swap2\n      swap1\n      pop\n      jump\t// out\n        /* \"#utility.yul\":1611:1729   */\n    tag_167:\n        /* \"#utility.yul\":1698:1722   */\n      tag_238\n        /* \"#utility.yul\":1716:1721   */\n      dup2\n        /* \"#utility.yul\":1698:1722   */\n      tag_166\n      jump\t// in\n    tag_238:\n        /* \"#utility.yul\":1693:1696   */\n      dup3\n        /* \"#utility.yul\":1686:1723   */\n      mstore\n        /* \"#utility.yul\":1611:1729   */\n      pop\n      pop\n      jump\t// out\n        /* \"#utility.yul\":1735:1957   */\n    tag_23:\n        /* \"#utility.yul\":1828:1832   */\n      0x00\n        /* \"#utility.yul\":1866:1868   */\n      0x20\n        /* \"#utility.yul\":1855:1864   */\n      dup3\n        /* \"#utility.yul\":1851:1869   */\n      add\n        /* \"#utility.yul\":1843:1869   */\n      swap1\n      pop\n        /* \"#utility.yul\":1879:1950   */\n      tag_240\n        /* \"#utility.yul\":1947:1948   */\n      0x00\n        /* \"#utility.yul\":1936:1945   */\n      dup4\n        /* \"#utility.yul\":1932:1949   */\n      add\n        /* \"#utility.yul\":1923:1929   */\n      dup5\n        /* \"#utility.yul\":1879:1950   */\n      tag_167\n      jump\t// in\n    tag_240:\n        /* \"#utility.yul\":1735:1957   */\n      swap3\n      swap2\n      pop\n      pop\n      jump\t// out\n        /* \"#utility.yul\":1963:2085   */\n    tag_168:\n        /* \"#utility.yul\":2036:2060   */\n      tag_242\n        /* \"#utility.yul\":2054:2059   */\n      dup2\n        /* \"#utility.yul\":2036:2060   */\n      tag_166\n      jump\t// in\n    tag_242:\n        /* \"#utility.yul\":2029:2034   */\n      dup2\n        /* \"#utility.yul\":2026:2061   */\n      eq\n        /* \"#utility.yul\":2016:2079   */\n      tag_243\n      jumpi\n        /* \"#utility.yul\":2075:2076   */\n      0x00\n        /* \"#utility.yul\":2072:2073   */\n      dup1\n        /* \"#utility.yul\":2065:2077   */\n      revert\n        /* \"#utility.yul\":2016:2079   */\n    tag_243:\n        /* \"#utility.yul\":1963:2085   */\n      pop\n      jump\t// out\n        /* \"#utility.yul\":2091:2230   */\n    tag_169:\n        /* \"#utility.yul\":2137:2142   */\n      0x00\n        /* \"#utility.yul\":2175:2181   */\n      dup2\n        /* \"#utility.yul\":2162:2182   */\n      calldataload\n        /* \"#utility.yul\":2153:2182   */\n      swap1\n      pop\n        /* \"#utility.yul\":2191:2224   */\n      tag_245\n        /* \"#utility.yul\":2218:2223   */\n      dup2\n        /* \"#utility.yul\":2191:2224   */\n      tag_168\n      jump\t// in\n    tag_245:\n        /* \"#utility.yul\":2091:2230   */\n      swap3\n      swap2\n      pop\n      pop\n      jump\t// out\n        /* \"#utility.yul\":2236:2353   */\n    tag_170:\n        /* \"#utility.yul\":2345:2346   */\n      0x00\n        /* \"#utility.yul\":2342:2343   */\n      dup1\n        /* \"#utility.yul\":2335:2347   */\n      revert\n        /* \"#utility.yul\":2359:2476   */\n    tag_171:\n        /* \"#utility.yul\":2468:2469   */\n      0x00\n        /* \"#utility.yul\":2465:2466   */\n      dup1\n        /* \"#utility.yul\":2458:2470   */\n      revert\n        /* \"#utility.yul\":2482:2599   */\n    tag_172:\n        /* \"#utility.yul\":2591:2592   */\n      0x00\n        /* \"#utility.yul\":2588:2589   */\n      dup1\n        /* \"#utility.yul\":2581:2593   */\n      revert\n        /* \"#utility.yul\":2618:3170   */\n    tag_173:\n        /* \"#utility.yul\":2675:2683   */\n      0x00\n        /* \"#utility.yul\":2685:2691   */\n      dup1\n        /* \"#utility.yul\":2735:2738   */\n      dup4\n        /* \"#utility.yul\":2728:2732   */\n      0x1f\n        /* \"#utility.yul\":2720:2726   */\n      dup5\n        /* \"#utility.yul\":2716:2733   */\n      add\n        /* \"#utility.yul\":2712:2739   */\n      slt\n        /* \"#utility.yul\":2702:2824   */\n      tag_250\n      jumpi\n        /* \"#utility.yul\":2743:2822   */\n      tag_251\n      tag_170\n      jump\t// in\n    tag_251:\n        /* \"#utility.yul\":2702:2824   */\n    tag_250:\n        /* \"#utility.yul\":2856:2862   */\n      dup3\n        /* \"#utility.yul\":2843:2863   */\n      calldataload\n        /* \"#utility.yul\":2833:2863   */\n      swap1\n      pop\n        /* \"#utility.yul\":2886:2904   */\n      0xffffffffffffffff\n        /* \"#utility.yul\":2878:2884   */\n      dup2\n        /* \"#utility.yul\":2875:2905   */\n      gt\n        /* \"#utility.yul\":2872:2989   */\n      iszero\n      tag_252\n      jumpi\n        /* \"#utility.yul\":2908:2987   */\n      tag_253\n      tag_171\n      jump\t// in\n    tag_253:\n        /* \"#utility.yul\":2872:2989   */\n    tag_252:\n        /* \"#utility.yul\":3022:3026   */\n      0x20\n        /* \"#utility.yul\":3014:3020   */\n      dup4\n        /* \"#utility.yul\":3010:3027   */\n      add\n        /* \"#utility.yul\":2998:3027   */\n      swap2\n      pop\n        /* \"#utility.yul\":3076:3079   */\n      dup4\n        /* \"#utility.yul\":3068:3072   */\n      0x01\n        /* \"#utility.yul\":3060:3066   */\n      dup3\n        /* \"#utility.yul\":3056:3073   */\n      mul\n        /* \"#utility.yul\":3046:3054   */\n      dup4\n        /* \"#utility.yul\":3042:3074   */\n      add\n        /* \"#utility.yul\":3039:3080   */\n      gt\n        /* \"#utility.yul\":3036:3164   */\n      iszero\n      tag_254\n      jumpi\n        /* \"#utility.yul\":3083:3162   */\n      tag_255\n      tag_172\n      jump\t// in\n    tag_255:\n        /* \"#utility.yul\":3036:3164   */\n    tag_254:\n        /* \"#utility.yul\":2618:3170   */\n      swap3\n      pop\n      swap3\n      swap1\n      pop\n      jump\t// out\n        /* \"#utility.yul\":3176:3993   */\n    tag_27:\n        /* \"#utility.yul\":3264:3270   */\n      0x00\n        /* \"#utility.yul\":3272:3278   */\n      dup1\n        /* \"#utility.yul\":3280:3286   */\n      0x00\n        /* \"#utility.yul\":3288:3294   */\n      dup1\n        /* \"#utility.yul\":3337:3339   */\n      0x60\n        /* \"#utility.yul\":3325:3334   */\n      dup6\n        /* \"#utility.yul\":3316:3323   */\n      dup8\n        /* \"#utility.yul\":3312:3335   */\n      sub\n        /* \"#utility.yul\":3308:3340   */\n      slt\n        /* \"#utility.yul\":3305:3424   */\n      iszero\n      tag_257\n      jumpi\n        /* \"#utility.yul\":3343:3422   */\n      tag_258\n      tag_161\n      jump\t// in\n    tag_258:\n        /* \"#utility.yul\":3305:3424   */\n    tag_257:\n        /* \"#utility.yul\":3463:3464   */\n      0x00\n        /* \"#utility.yul\":3488:3541   */\n      tag_259\n        /* \"#utility.yul\":3533:3540   */\n      dup8\n        /* \"#utility.yul\":3524:3530   */\n      dup3\n        /* \"#utility.yul\":3513:3522   */\n      dup9\n        /* \"#utility.yul\":3509:3531   */\n      add\n        /* \"#utility.yul\":3488:3541   */\n      tag_169\n      jump\t// in\n    tag_259:\n        /* \"#utility.yul\":3478:3541   */\n      swap5\n      pop\n        /* \"#utility.yul\":3434:3551   */\n      pop\n        /* \"#utility.yul\":3590:3592   */\n      0x20\n        /* \"#utility.yul\":3616:3669   */\n      tag_260\n        /* \"#utility.yul\":3661:3668   */\n      dup8\n        /* \"#utility.yul\":3652:3658   */\n      dup3\n        /* \"#utility.yul\":3641:3650   */\n      dup9\n        /* \"#utility.yul\":3637:3659   */\n      add\n        /* \"#utility.yul\":3616:3669   */\n      tag_164\n      jump\t// in\n    tag_260:\n        /* \"#utility.yul\":3606:3669   */\n      swap4\n      pop\n        /* \"#utility.yul\":3561:3679   */\n      pop\n        /* \"#utility.yul\":3746:3748   */\n      0x40\n        /* \"#utility.yul\":3735:3744   */\n      dup6\n        /* \"#utility.yul\":3731:3749   */\n      add\n        /* \"#utility.yul\":3718:3750   */\n      calldataload\n        /* \"#utility.yul\":3777:3795   */\n      0xffffffffffffffff\n        /* \"#utility.yul\":3769:3775   */\n      dup2\n        /* \"#utility.yul\":3766:3796   */\n      gt\n        /* \"#utility.yul\":3763:3880   */\n      iszero\n      tag_261\n      jumpi\n        /* \"#utility.yul\":3799:3878   */\n      tag_262\n      tag_162\n      jump\t// in\n    tag_262:\n        /* \"#utility.yul\":3763:3880   */\n    tag_261:\n        /* \"#utility.yul\":3912:3976   */\n      tag_263\n        /* \"#utility.yul\":3968:3975   */\n      dup8\n        /* \"#utility.yul\":3959:3965   */\n      dup3\n        /* \"#utility.yul\":3948:3957   */\n      dup9\n        /* \"#utility.yul\":3944:3966   */\n      add\n        /* \"#utility.yul\":3912:3976   */\n      tag_173\n      jump\t// in\n    tag_263:\n        /* \"#utility.yul\":3894:3976   */\n      swap3\n      pop\n      swap3\n      pop\n        /* \"#utility.yul\":3689:3986   */\n      pop\n        /* \"#utility.yul\":3176:3993   */\n      swap3\n      swap6\n      swap2\n      swap5\n      pop\n      swap3\n      pop\n      jump\t// out\n        /* \"#utility.yul\":3999:4328   */\n    tag_36:\n        /* \"#utility.yul\":4058:4064   */\n      0x00\n        /* \"#utility.yul\":4107:4109   */\n      0x20\n        /* \"#utility.yul\":4095:4104   */\n      dup3\n        /* \"#utility.yul\":4086:4093   */\n      dup5\n        /* \"#utility.yul\":4082:4105   */\n      sub\n        /* \"#utility.yul\":4078:4110   */\n      slt\n        /* \"#utility.yul\":4075:4194   */\n      iszero\n      tag_265\n      jumpi\n        /* \"#utility.yul\":4113:4192   */\n      tag_266\n      tag_161\n      jump\t// in\n    tag_266:\n        /* \"#utility.yul\":4075:4194   */\n    tag_265:\n        /* \"#utility.yul\":4233:4234   */\n      0x00\n        /* \"#utility.yul\":4258:4311   */\n      tag_267\n        /* \"#utility.yul\":4303:4310   */\n      dup5\n        /* \"#utility.yul\":4294:4300   */\n      dup3\n        /* \"#utility.yul\":4283:4292   */\n      dup6\n        /* \"#utility.yul\":4279:4301   */\n      add\n        /* \"#utility.yul\":4258:4311   */\n      tag_169\n      jump\t// in\n    tag_267:\n        /* \"#utility.yul\":4248:4311   */\n      swap2\n      pop\n        /* \"#utility.yul\":4204:4321   */\n      pop\n        /* \"#utility.yul\":3999:4328   */\n      swap3\n      swap2\n      pop\n      pop\n      jump\t// out\n        /* \"#utility.yul\":4334:4424   */\n    tag_174:\n        /* \"#utility.yul\":4368:4375   */\n      0x00\n        /* \"#utility.yul\":4411:4416   */\n      dup2\n        /* \"#utility.yul\":4404:4417   */\n      iszero\n        /* \"#utility.yul\":4397:4418   */\n      iszero\n        /* \"#utility.yul\":4386:4418   */\n      swap1\n      pop\n        /* \"#utility.yul\":4334:4424   */\n      swap2\n      swap1\n      pop\n      jump\t// out\n        /* \"#utility.yul\":4430:4539   */\n    tag_175:\n        /* \"#utility.yul\":4511:4532   */\n      tag_270\n        /* \"#utility.yul\":4526:4531   */\n      dup2\n        /* \"#utility.yul\":4511:4532   */\n      tag_174\n      jump\t// in\n    tag_270:\n        /* \"#utility.yul\":4506:4509   */\n      dup3\n        /* \"#utility.yul\":4499:4533   */\n      mstore\n        /* \"#utility.yul\":4430:4539   */\n      pop\n      pop\n      jump\t// out\n        /* \"#utility.yul\":4545:4755   */\n    tag_39:\n        /* \"#utility.yul\":4632:4636   */\n      0x00\n        /* \"#utility.yul\":4670:4672   */\n      0x20\n        /* \"#utility.yul\":4659:4668   */\n      dup3\n        /* \"#utility.yul\":4655:4673   */\n      add\n        /* \"#utility.yul\":4647:4673   */\n      swap1\n      pop\n        /* \"#utility.yul\":4683:4748   */\n      tag_272\n        /* \"#utility.yul\":4745:4746   */\n      0x00\n        /* \"#utility.yul\":4734:4743   */\n      dup4\n        /* \"#utility.yul\":4730:4747   */\n      add\n        /* \"#utility.yul\":4721:4727   */\n      dup5\n        /* \"#utility.yul\":4683:4748   */\n      tag_175\n      jump\t// in\n    tag_272:\n        /* \"#utility.yul\":4545:4755   */\n      swap3\n      swap2\n      pop\n      pop\n      jump\t// out\n        /* \"#utility.yul\":4761:5235   */\n    tag_43:\n        /* \"#utility.yul\":4829:4835   */\n      0x00\n        /* \"#utility.yul\":4837:4843   */\n      dup1\n        /* \"#utility.yul\":4886:4888   */\n      0x40\n        /* \"#utility.yul\":4874:4883   */\n      dup4\n        /* \"#utility.yul\":4865:4872   */\n      dup6\n        /* \"#utility.yul\":4861:4884   */\n      sub\n        /* \"#utility.yul\":4857:4889   */\n      slt\n        /* \"#utility.yul\":4854:4973   */\n      iszero\n      tag_274\n      jumpi\n        /* \"#utility.yul\":4892:4971   */\n      tag_275\n      tag_161\n      jump\t// in\n    tag_275:\n        /* \"#utility.yul\":4854:4973   */\n    tag_274:\n        /* \"#utility.yul\":5012:5013   */\n      0x00\n        /* \"#utility.yul\":5037:5090   */\n      tag_276\n        /* \"#utility.yul\":5082:5089   */\n      dup6\n        /* \"#utility.yul\":5073:5079   */\n      dup3\n        /* \"#utility.yul\":5062:5071   */\n      dup7\n        /* \"#utility.yul\":5058:5080   */\n      add\n        /* \"#utility.yul\":5037:5090   */\n      tag_164\n      jump\t// in\n    tag_276:\n        /* \"#utility.yul\":5027:5090   */\n      swap3\n      pop\n        /* \"#utility.yul\":4983:5100   */\n      pop\n        /* \"#utility.yul\":5139:5141   */\n      0x20\n        /* \"#utility.yul\":5165:5218   */\n      tag_277\n        /* \"#utility.yul\":5210:5217   */\n      dup6\n        /* \"#utility.yul\":5201:5207   */\n      dup3\n        /* \"#utility.yul\":5190:5199   */\n      dup7\n        /* \"#utility.yul\":5186:5208   */\n      add\n        /* \"#utility.yul\":5165:5218   */\n      tag_169\n      jump\t// in\n    tag_277:\n        /* \"#utility.yul\":5155:5218   */\n      swap2\n      pop\n        /* \"#utility.yul\":5110:5228   */\n      pop\n        /* \"#utility.yul\":4761:5235   */\n      swap3\n      pop\n      swap3\n      swap1\n      pop\n      jump\t// out\n        /* \"#utility.yul\":5241:5339   */\n    tag_176:\n        /* \"#utility.yul\":5292:5298   */\n      0x00\n        /* \"#utility.yul\":5326:5331   */\n      dup2\n        /* \"#utility.yul\":5320:5332   */\n      mload\n        /* \"#utility.yul\":5310:5332   */\n      swap1\n      pop\n        /* \"#utility.yul\":5241:5339   */\n      swap2\n      swap1\n      pop\n      jump\t// out\n        /* \"#utility.yul\":5345:5513   */\n    tag_177:\n        /* \"#utility.yul\":5428:5439   */\n      0x00\n        /* \"#utility.yul\":5462:5468   */\n      dup3\n        /* \"#utility.yul\":5457:5460   */\n      dup3\n        /* \"#utility.yul\":5450:5469   */\n      mstore\n        /* \"#utility.yul\":5502:5506   */\n      0x20\n        /* \"#utility.yul\":5497:5500   */\n      dup3\n        /* \"#utility.yul\":5493:5507   */\n      add\n        /* \"#utility.yul\":5478:5507   */\n      swap1\n      pop\n        /* \"#utility.yul\":5345:5513   */\n      swap3\n      swap2\n      pop\n      pop\n      jump\t// out\n        /* \"#utility.yul\":5519:5765   */\n    tag_178:\n        /* \"#utility.yul\":5600:5601   */\n      0x00\n        /* \"#utility.yul\":5610:5723   */\n    tag_281:\n        /* \"#utility.yul\":5624:5630   */\n      dup4\n        /* \"#utility.yul\":5621:5622   */\n      dup2\n        /* \"#utility.yul\":5618:5631   */\n      lt\n        /* \"#utility.yul\":5610:5723   */\n      iszero\n      tag_283\n      jumpi\n        /* \"#utility.yul\":5709:5710   */\n      dup1\n        /* \"#utility.yul\":5704:5707   */\n      dup3\n        /* \"#utility.yul\":5700:5711   */\n      add\n        /* \"#utility.yul\":5694:5712   */\n      mload\n        /* \"#utility.yul\":5690:5691   */\n      dup2\n        /* \"#utility.yul\":5685:5688   */\n      dup5\n        /* \"#utility.yul\":5681:5692   */\n      add\n        /* \"#utility.yul\":5674:5713   */\n      mstore\n        /* \"#utility.yul\":5646:5648   */\n      0x20\n        /* \"#utility.yul\":5643:5644   */\n      dup2\n        /* \"#utility.yul\":5639:5649   */\n      add\n        /* \"#utility.yul\":5634:5649   */\n      swap1\n      pop\n        /* \"#utility.yul\":5610:5723   */\n      jump(tag_281)\n    tag_283:\n        /* \"#utility.yul\":5757:5758   */\n      0x00\n        /* \"#utility.yul\":5748:5754   */\n      dup5\n        /* \"#utility.yul\":5743:5746   */\n      dup5\n        /* \"#utility.yul\":5739:5755   */\n      add\n        /* \"#utility.yul\":5732:5759   */\n      mstore\n        /* \"#utility.yul\":5581:5765   */\n      pop\n        /* \"#utility.yul\":5519:5765   */\n      pop\n      pop\n      pop\n      jump\t// out\n        /* \"#utility.yul\":5771:5873   */\n    tag_179:\n        /* \"#utility.yul\":5812:5818   */\n      0x00\n        /* \"#utility.yul\":5863:5865   */\n      0x1f\n        /* \"#utility.yul\":5859:5866   */\n      not\n        /* \"#utility.yul\":5854:5856   */\n      0x1f\n        /* \"#utility.yul\":5847:5852   */\n      dup4\n        /* \"#utility.yul\":5843:5857   */\n      add\n        /* \"#utility.yul\":5839:5867   */\n      and\n        /* \"#utility.yul\":5829:5867   */\n      swap1\n      pop\n        /* \"#utility.yul\":5771:5873   */\n      swap2\n      swap1\n      pop\n      jump\t// out\n        /* \"#utility.yul\":5879:6252   */\n    tag_180:\n        /* \"#utility.yul\":5965:5968   */\n      0x00\n        /* \"#utility.yul\":5993:6031   */\n      tag_286\n        /* \"#utility.yul\":6025:6030   */\n      dup3\n        /* \"#utility.yul\":5993:6031   */\n      tag_176\n      jump\t// in\n    tag_286:\n        /* \"#utility.yul\":6047:6117   */\n      tag_287\n        /* \"#utility.yul\":6110:6116   */\n      dup2\n        /* \"#utility.yul\":6105:6108   */\n      dup6\n        /* \"#utility.yul\":6047:6117   */\n      tag_177\n      jump\t// in\n    tag_287:\n        /* \"#utility.yul\":6040:6117   */\n      swap4\n      pop\n        /* \"#utility.yul\":6126:6191   */\n      tag_288\n        /* \"#utility.yul\":6184:6190   */\n      dup2\n        /* \"#utility.yul\":6179:6182   */\n      dup6\n        /* \"#utility.yul\":6172:6176   */\n      0x20\n        /* \"#utility.yul\":6165:6170   */\n      dup7\n        /* \"#utility.yul\":6161:6177   */\n      add\n        /* \"#utility.yul\":6126:6191   */\n      tag_178\n      jump\t// in\n    tag_288:\n        /* \"#utility.yul\":6216:6245   */\n      tag_289\n        /* \"#utility.yul\":6238:6244   */\n      dup2\n        /* \"#utility.yul\":6216:6245   */\n      tag_179\n      jump\t// in\n    tag_289:\n        /* \"#utility.yul\":6211:6214   */\n      dup5\n        /* \"#utility.yul\":6207:6246   */\n      add\n        /* \"#utility.yul\":6200:6246   */\n      swap2\n      pop\n        /* \"#utility.yul\":5969:6252   */\n      pop\n        /* \"#utility.yul\":5879:6252   */\n      swap3\n      swap2\n      pop\n      pop\n      jump\t// out\n        /* \"#utility.yul\":6258:6886   */\n    tag_51:\n        /* \"#utility.yul\":6447:6451   */\n      0x00\n        /* \"#utility.yul\":6485:6488   */\n      0x80\n        /* \"#utility.yul\":6474:6483   */\n      dup3\n        /* \"#utility.yul\":6470:6489   */\n      add\n        /* \"#utility.yul\":6462:6489   */\n      swap1\n      pop\n        /* \"#utility.yul\":6499:6570   */\n      tag_291\n        /* \"#utility.yul\":6567:6568   */\n      0x00\n        /* \"#utility.yul\":6556:6565   */\n      dup4\n        /* \"#utility.yul\":6552:6569   */\n      add\n        /* \"#utility.yul\":6543:6549   */\n      dup8\n        /* \"#utility.yul\":6499:6570   */\n      tag_167\n      jump\t// in\n    tag_291:\n        /* \"#utility.yul\":6580:6652   */\n      tag_292\n        /* \"#utility.yul\":6648:6650   */\n      0x20\n        /* \"#utility.yul\":6637:6646   */\n      dup4\n        /* \"#utility.yul\":6633:6651   */\n      add\n        /* \"#utility.yul\":6624:6630   */\n      dup7\n        /* \"#utility.yul\":6580:6652   */\n      tag_159\n      jump\t// in\n    tag_292:\n        /* \"#utility.yul\":6699:6708   */\n      dup2\n        /* \"#utility.yul\":6693:6697   */\n      dup2\n        /* \"#utility.yul\":6689:6709   */\n      sub\n        /* \"#utility.yul\":6684:6686   */\n      0x40\n        /* \"#utility.yul\":6673:6682   */\n      dup4\n        /* \"#utility.yul\":6669:6687   */\n      add\n        /* \"#utility.yul\":6662:6710   */\n      mstore\n        /* \"#utility.yul\":6727:6803   */\n      tag_293\n        /* \"#utility.yul\":6798:6802   */\n      dup2\n        /* \"#utility.yul\":6789:6795   */\n      dup6\n        /* \"#utility.yul\":6727:6803   */\n      tag_180\n      jump\t// in\n    tag_293:\n        /* \"#utility.yul\":6719:6803   */\n      swap1\n      pop\n        /* \"#utility.yul\":6813:6879   */\n      tag_294\n        /* \"#utility.yul\":6875:6877   */\n      0x60\n        /* \"#utility.yul\":6864:6873   */\n      dup4\n        /* \"#utility.yul\":6860:6878   */\n      add\n        /* \"#utility.yul\":6851:6857   */\n      dup5\n        /* \"#utility.yul\":6813:6879   */\n      tag_175\n      jump\t// in\n    tag_294:\n        /* \"#utility.yul\":6258:6886   */\n      swap6\n      swap5\n      pop\n      pop\n      pop\n      pop\n      pop\n      jump\t// out\n        /* \"#utility.yul\":6892:7061   */\n    tag_181:\n        /* \"#utility.yul\":6976:6987   */\n      0x00\n        /* \"#utility.yul\":7010:7016   */\n      dup3\n        /* \"#utility.yul\":7005:7008   */\n      dup3\n        /* \"#utility.yul\":6998:7017   */\n      mstore\n        /* \"#utility.yul\":7050:7054   */\n      0x20\n        /* \"#utility.yul\":7045:7048   */\n      dup3\n        /* \"#utility.yul\":7041:7055   */\n      add\n        /* \"#utility.yul\":7026:7055   */\n      swap1\n      pop\n        /* \"#utility.yul\":6892:7061   */\n      swap3\n      swap2\n      pop\n      pop\n      jump\t// out\n        /* \"#utility.yul\":7067:7226   */\n    tag_182:\n        /* \"#utility.yul\":7207:7218   */\n      0x6e6f74206f776e65720000000000000000000000000000000000000000000000\n        /* \"#utility.yul\":7203:7204   */\n      0x00\n        /* \"#utility.yul\":7195:7201   */\n      dup3\n        /* \"#utility.yul\":7191:7205   */\n      add\n        /* \"#utility.yul\":7184:7219   */\n      mstore\n        /* \"#utility.yul\":7067:7226   */\n      pop\n      jump\t// out\n        /* \"#utility.yul\":7232:7597   */\n    tag_183:\n        /* \"#utility.yul\":7374:7377   */\n      0x00\n        /* \"#utility.yul\":7395:7461   */\n      tag_298\n        /* \"#utility.yul\":7459:7460   */\n      0x09\n        /* \"#utility.yul\":7454:7457   */\n      dup4\n        /* \"#utility.yul\":7395:7461   */\n      tag_181\n      jump\t// in\n    tag_298:\n        /* \"#utility.yul\":7388:7461   */\n      swap2\n      pop\n        /* \"#utility.yul\":7470:7563   */\n      tag_299\n        /* \"#utility.yul\":7559:7562   */\n      dup3\n        /* \"#utility.yul\":7470:7563   */\n      tag_182\n      jump\t// in\n    tag_299:\n        /* \"#utility.yul\":7588:7590   */\n      0x20\n        /* \"#utility.yul\":7583:7586   */\n      dup3\n        /* \"#utility.yul\":7579:7591   */\n      add\n        /* \"#utility.yul\":7572:7591   */\n      swap1\n      pop\n        /* \"#utility.yul\":7232:7597   */\n      swap2\n      swap1\n      pop\n      jump\t// out\n        /* \"#utility.yul\":7603:8022   */\n    tag_69:\n        /* \"#utility.yul\":7769:7773   */\n      0x00\n        /* \"#utility.yul\":7807:7809   */\n      0x20\n        /* \"#utility.yul\":7796:7805   */\n      dup3\n        /* \"#utility.yul\":7792:7810   */\n      add\n        /* \"#utility.yul\":7784:7810   */\n      swap1\n      pop\n        /* \"#utility.yul\":7856:7865   */\n      dup2\n        /* \"#utility.yul\":7850:7854   */\n      dup2\n        /* \"#utility.yul\":7846:7866   */\n      sub\n        /* \"#utility.yul\":7842:7843   */\n      0x00\n        /* \"#utility.yul\":7831:7840   */\n      dup4\n        /* \"#utility.yul\":7827:7844   */\n      add\n        /* \"#utility.yul\":7820:7867   */\n      mstore\n        /* \"#utility.yul\":7884:8015   */\n      tag_301\n        /* \"#utility.yul\":8010:8014   */\n      dup2\n        /* \"#utility.yul\":7884:8015   */\n      tag_183\n      jump\t// in\n    tag_301:\n        /* \"#utility.yul\":7876:8015   */\n      swap1\n      pop\n        /* \"#utility.yul\":7603:8022   */\n      swap2\n      swap1\n      pop\n      jump\t// out\n        /* \"#utility.yul\":8028:8208   */\n    tag_184:\n        /* \"#utility.yul\":8076:8153   */\n      0x4e487b7100000000000000000000000000000000000000000000000000000000\n        /* \"#utility.yul\":8073:8074   */\n      0x00\n        /* \"#utility.yul\":8066:8154   */\n      mstore\n        /* \"#utility.yul\":8173:8177   */\n      0x41\n        /* \"#utility.yul\":8170:8171   */\n      0x04\n        /* \"#utility.yul\":8163:8178   */\n      mstore\n        /* \"#utility.yul\":8197:8201   */\n      0x24\n        /* \"#utility.yul\":8194:8195   */\n      0x00\n        /* \"#utility.yul\":8187:8202   */\n      revert\n        /* \"#utility.yul\":8214:8394   */\n    tag_185:\n        /* \"#utility.yul\":8262:8339   */\n      0x4e487b7100000000000000000000000000000000000000000000000000000000\n        /* \"#utility.yul\":8259:8260   */\n      0x00\n        /* \"#utility.yul\":8252:8340   */\n      mstore\n        /* \"#utility.yul\":8359:8363   */\n      0x22\n        /* \"#utility.yul\":8356:8357   */\n      0x04\n        /* \"#utility.yul\":8349:8364   */\n      mstore\n        /* \"#utility.yul\":8383:8387   */\n      0x24\n        /* \"#utility.yul\":8380:8381   */\n      0x00\n        /* \"#utility.yul\":8373:8388   */\n      revert\n        /* \"#utility.yul\":8400:8720   */\n    tag_98:\n        /* \"#utility.yul\":8444:8450   */\n      0x00\n        /* \"#utility.yul\":8481:8482   */\n      0x02\n        /* \"#utility.yul\":8475:8479   */\n      dup3\n        /* \"#utility.yul\":8471:8483   */\n      div\n        /* \"#utility.yul\":8461:8483   */\n      swap1\n      pop\n        /* \"#utility.yul\":8528:8529   */\n      0x01\n        /* \"#utility.yul\":8522:8526   */\n      dup3\n        /* \"#utility.yul\":8518:8530   */\n      and\n        /* \"#utility.yul\":8549:8567   */\n      dup1\n        /* \"#utility.yul\":8539:8620   */\n      tag_305\n      jumpi\n        /* \"#utility.yul\":8605:8609   */\n      0x7f\n        /* \"#utility.yul\":8597:8603   */\n      dup3\n        /* \"#utility.yul\":8593:8610   */\n      and\n        /* \"#utility.yul\":8583:8610   */\n      swap2\n      pop\n        /* \"#utility.yul\":8539:8620   */\n    tag_305:\n        /* \"#utility.yul\":8667:8669   */\n      0x20\n        /* \"#utility.yul\":8659:8665   */\n      dup3\n        /* \"#utility.yul\":8656:8670   */\n      lt\n        /* \"#utility.yul\":8636:8654   */\n      dup2\n        /* \"#utility.yul\":8633:8671   */\n      sub\n        /* \"#utility.yul\":8630:8714   */\n      tag_306\n      jumpi\n        /* \"#utility.yul\":8686:8704   */\n      tag_307\n      tag_185\n      jump\t// in\n    tag_307:\n        /* \"#utility.yul\":8630:8714   */\n    tag_306:\n        /* \"#utility.yul\":8451:8720   */\n      pop\n        /* \"#utility.yul\":8400:8720   */\n      swap2\n      swap1\n      pop\n      jump\t// out\n        /* \"#utility.yul\":8726:8866   */\n    tag_186:\n        /* \"#utility.yul\":8774:8778   */\n      0x00\n        /* \"#utility.yul\":8797:8800   */\n      dup2\n        /* \"#utility.yul\":8789:8800   */\n      swap1\n      pop\n        /* \"#utility.yul\":8820:8823   */\n      dup2\n        /* \"#utility.yul\":8817:8818   */\n      0x00\n        /* \"#utility.yul\":8810:8824   */\n      mstore\n        /* \"#utility.yul\":8854:8858   */\n      0x20\n        /* \"#utility.yul\":8851:8852   */\n      0x00\n        /* \"#utility.yul\":8841:8859   */\n      keccak256\n        /* \"#utility.yul\":8833:8859   */\n      swap1\n      pop\n        /* \"#utility.yul\":8726:8866   */\n      swap2\n      swap1\n      pop\n      jump\t// out\n        /* \"#utility.yul\":8872:8965   */\n    tag_187:\n        /* \"#utility.yul\":8909:8915   */\n      0x00\n        /* \"#utility.yul\":8956:8958   */\n      0x20\n        /* \"#utility.yul\":8951:8953   */\n      0x1f\n        /* \"#utility.yul\":8944:8949   */\n      dup4\n        /* \"#utility.yul\":8940:8954   */\n      add\n        /* \"#utility.yul\":8936:8959   */\n      div\n        /* \"#utility.yul\":8926:8959   */\n      swap1\n      pop\n        /* \"#utility.yul\":8872:8965   */\n      swap2\n      swap1\n      pop\n      jump\t// out\n        /* \"#utility.yul\":8971:9078   */\n    tag_188:\n        /* \"#utility.yul\":9015:9023   */\n      0x00\n        /* \"#utility.yul\":9065:9070   */\n      dup3\n        /* \"#utility.yul\":9059:9063   */\n      dup3\n        /* \"#utility.yul\":9055:9071   */\n      shl\n        /* \"#utility.yul\":9034:9071   */\n      swap1\n      pop\n        /* \"#utility.yul\":8971:9078   */\n      swap3\n      swap2\n      pop\n      pop\n      jump\t// out\n        /* \"#utility.yul\":9084:9477   */\n    tag_189:\n        /* \"#utility.yul\":9153:9159   */\n      0x00\n        /* \"#utility.yul\":9203:9204   */\n      0x08\n        /* \"#utility.yul\":9191:9201   */\n      dup4\n        /* \"#utility.yul\":9187:9205   */\n      mul\n        /* \"#utility.yul\":9226:9323   */\n      tag_312\n        /* \"#utility.yul\":9256:9322   */\n      0xffffffffffffffffffffffffffffffffffffffffffffffffffffffffffffffff\n        /* \"#utility.yul\":9245:9254   */\n      dup3\n        /* \"#utility.yul\":9226:9323   */\n      tag_188\n      jump\t// in\n    tag_312:\n        /* \"#utility.yul\":9344:9383   */\n      tag_313\n        /* \"#utility.yul\":9374:9382   */\n      dup7\n        /* \"#utility.yul\":9363:9372   */\n      dup4\n        /* \"#utility.yul\":9344:9383   */\n      tag_188\n      jump\t// in\n    tag_313:\n        /* \"#utility.yul\":9332:9383   */\n      swap6\n      pop\n        /* \"#utility.yul\":9416:9420   */\n      dup1\n        /* \"#utility.yul\":9412:9421   */\n      not\n        /* \"#utility.yul\":9405:9410   */\n      dup5\n        /* \"#utility.yul\":9401:9422   */\n      and\n        /* \"#utility.yul\":9392:9422   */\n      swap4\n      pop\n        /* \"#utility.yul\":9465:9469   */\n      dup1\n        /* \"#utility.yul\":9455:9463   */\n      dup7\n        /* \"#utility.yul\":9451:9470   */\n      and\n        /* \"#utility.yul\":9444:9449   */\n      dup5\n        /* \"#utility.yul\":9441:9471   */\n      or\n        /* \"#utility.yul\":9431:9471   */\n      swap3\n      pop\n        /* \"#utility.yul\":9160:9477   */\n      pop\n      pop\n        /* \"#utility.yul\":9084:9477   */\n      swap4\n      swap3\n      pop\n      pop\n      pop\n      jump\t// out\n        /* \"#utility.yul\":9483:9543   */\n    tag_190:\n        /* \"#utility.yul\":9511:9514   */\n      0x00\n        /* \"#utility.yul\":9532:9537   */\n      dup2\n        /* \"#utility.yul\":9525:9537   */\n      swap1\n      pop\n        /* \"#utility.yul\":9483:9543   */\n      swap2\n      swap1\n      pop\n      jump\t// out\n        /* \"#utility.yul\":9549:9691   */\n    tag_191:\n        /* \"#utility.yul\":9599:9608   */\n      0x00\n        /* \"#utility.yul\":9632:9685   */\n      tag_316\n        /* \"#utility.yul\":9650:9684   */\n      tag_317\n        /* \"#utility.yul\":9659:9683   */\n      tag_318\n        /* \"#utility.yul\":9677:9682   */\n      dup5\n        /* \"#utility.yul\":9659:9683   */\n      tag_158\n      jump\t// in\n    tag_318:\n        /* \"#utility.yul\":9650:9684   */\n      tag_190\n      jump\t// in\n    tag_317:\n        /* \"#utility.yul\":9632:9685   */\n      tag_158\n      jump\t// in\n    tag_316:\n        /* \"#utility.yul\":9619:9685   */\n      swap1\n      pop\n        /* \"#utility.yul\":9549:9691   */\n      swap2\n      swap1\n      pop\n      jump\t// out\n        /* \"#utility.yul\":9697:9772   */\n    tag_192:\n        /* \"#utility.yul\":9740:9743   */\n      0x00\n        /* \"#utility.yul\":9761:9766   */\n      dup2\n        /* \"#utility.yul\":9754:9766   */\n      swap1\n      pop\n        /* \"#utility.yul\":9697:9772   */\n      swap2\n      swap1\n      pop\n      jump\t// out\n        /* \"#utility.yul\":9778:10047   */\n    tag_193:\n        /* \"#utility.yul\":9888:9927   */\n      tag_321\n        /* \"#utility.yul\":9919:9926   */\n      dup4\n        /* \"#utility.yul\":9888:9927   */\n      tag_191\n      jump\t// in\n    tag_321:\n        /* \"#utility.yul\":9949:10040   */\n      tag_322\n        /* \"#utility.yul\":9998:10039   */\n      tag_323\n        /* \"#utility.yul\":10022:10038   */\n      dup3\n        /* \"#utility.yul\":9998:10039   */\n      tag_192\n      jump\t// in\n    tag_323:\n        /* \"#utility.yul\":9990:9996   */\n      dup5\n        /* \"#utility.yul\":9983:9987   */\n      dup5\n        /* \"#utility.yul\":9977:9988   */\n      sload\n        /* \"#utility.yul\":9949:10040   */\n      tag_189\n      jump\t// in\n    tag_322:\n        /* \"#utility.yul\":9943:9947   */\n      dup3\n        /* \"#utility.yul\":9936:10041   */\n      sstore\n        /* \"#utility.yul\":9854:10047   */\n      pop\n        /* \"#utility.yul\":9778:10047   */\n      pop\n      pop\n      pop\n      jump\t// out\n        /* \"#utility.yul\":10053:10126   */\n    tag_194:\n        /* \"#utility.yul\":10098:10101   */\n      0x00\n        /* \"#utility.yul\":10053:10126   */\n      swap1\n      jump\t// out\n        /* \"#utility.yul\":10132:10321   */\n    tag_195:\n        /* \"#utility.yul\":10209:10241   */\n      tag_326\n      tag_194\n      jump\t// in\n    tag_326:\n        /* \"#utility.yul\":10250:10315   */\n      tag_327\n        /* \"#utility.yul\":10308:10314   */\n      dup2\n        /* \"#utility.yul\":10300:10306   */\n      dup5\n        /* \"#utility.yul\":10294:10298   */\n      dup5\n        /* \"#utility.yul\":10250:10315   */\n      tag_193\n      jump\t// in\n    tag_327:\n        /* \"#utility.yul\":10185:10321   */\n      pop\n        /* \"#utility.yul\":10132:10321   */\n      pop\n      pop\n      jump\t// out\n        /* \"#utility.yul\":10327:10513   */\n    tag_196:\n        /* \"#utility.yul\":10387:10507   */\n    tag_329:\n        /* \"#utility.yul\":10404:10407   */\n      dup2\n        /* \"#utility.yul\":10397:10402   */\n      dup2\n        /* \"#utility.yul\":10394:10408   */\n      lt\n        /* \"#utility.yul\":10387:10507   */\n      iszero\n      tag_331\n      jumpi\n        /* \"#utility.yul\":10458:10497   */\n      tag_332\n        /* \"#utility.yul\":10495:10496   */\n      0x00\n        /* \"#utility.yul\":10488:10493   */\n      dup3\n        /* \"#utility.yul\":10458:10497   */\n      tag_195\n      jump\t// in\n    tag_332:\n        /* \"#utility.yul\":10431:10432   */\n      0x01\n        /* \"#utility.yul\":10424:10429   */\n      dup2\n        /* \"#utility.yul\":10420:10433   */\n      add\n        /* \"#utility.yul\":10411:10433   */\n      swap1\n      pop\n        /* \"#utility.yul\":10387:10507   */\n      jump(tag_329)\n    tag_331:\n        /* \"#utility.yul\":10327:10513   */\n      pop\n      pop\n      jump\t// out\n        /* \"#utility.yul\":10519:11060   */\n    tag_197:\n        /* \"#utility.yul\":10619:10621   */\n      0x1f\n        /* \"#utility.yul\":10614:10617   */\n      dup3\n        /* \"#utility.yul\":10611:10622   */\n      gt\n        /* \"#utility.yul\":10608:11053   */\n      iszero\n      tag_334\n      jumpi\n        /* \"#utility.yul\":10653:10690   */\n      tag_335\n        /* \"#utility.yul\":10684:10689   */\n      dup2\n        /* \"#utility.yul\":10653:10690   */\n      tag_186\n      jump\t// in\n    tag_335:\n        /* \"#utility.yul\":10736:10765   */\n      tag_336\n        /* \"#utility.yul\":10754:10764   */\n      dup5\n        /* \"#utility.yul\":10736:10765   */\n      tag_187\n      jump\t// in\n    tag_336:\n        /* \"#utility.yul\":10726:10734   */\n      dup2\n        /* \"#utility.yul\":10722:10766   */\n      add\n        /* \"#utility.yul\":10919:10921   */\n      0x20\n        /* \"#utility.yul\":10907:10917   */\n      dup6\n        /* \"#utility.yul\":10904:10922   */\n      lt\n        /* \"#utility.yul\":10901:10950   */\n      iszero\n      tag_337\n      jumpi\n        /* \"#utility.yul\":10940:10948   */\n      dup2\n        /* \"#utility.yul\":10925:10948   */\n      swap1\n      pop\n        /* \"#utility.yul\":10901:10950   */\n    tag_337:\n        /* \"#utility.yul\":10963:11043   */\n      tag_338\n        /* \"#utility.yul\":11019:11041   */\n      tag_339\n        /* \"#utility.yul\":11037:11040   */\n      dup6\n        /* \"#utility.yul\":11019:11041   */\n      tag_187\n      jump\t// in\n    tag_339:\n        /* \"#utility.yul\":11009:11017   */\n      dup4\n        /* \"#utility.yul\":11005:11042   */\n      add\n        /* \"#utility.yul\":10992:11003   */\n      dup3\n        /* \"#utility.yul\":10963:11043   */\n      tag_196\n      jump\t// in\n    tag_338:\n        /* \"#utility.yul\":10623:11053   */\n      pop\n      pop\n        /* \"#utility.yul\":10608:11053   */\n    tag_334:\n        /* \"#utility.yul\":10519:11060   */\n      pop\n      pop\n      pop\n      jump\t// out\n        /* \"#utility.yul\":11066:11183   */\n    tag_198:\n        /* \"#utility.yul\":11120:11128   */\n      0x00\n        /* \"#utility.yul\":11170:11175   */\n      dup3\n        /* \"#utility.yul\":11164:11168   */\n      dup3\n        /* \"#utility.yul\":11160:11176   */\n      shr\n        /* \"#utility.yul\":11139:11176   */\n      swap1\n      pop\n        /* \"#utility.yul\":11066:11183   */\n      swap3\n      swap2\n      pop\n      pop\n      jump\t// out\n        /* \"#utility.yul\":11189:11358   */\n    tag_199:\n        /* \"#utility.yul\":11233:11239   */\n      0x00\n        /* \"#utility.yul\":11266:11317   */\n      tag_342\n        /* \"#utility.yul\":11314:11315   */\n      0x00\n        /* \"#utility.yul\":11310:11316   */\n      not\n        /* \"#utility.yul\":11302:11307   */\n      dup5\n        /* \"#utility.yul\":11299:11300   */\n      0x08\n        /* \"#utility.yul\":11295:11308   */\n      mul\n        /* \"#utility.yul\":11266:11317   */\n      tag_198\n      jump\t// in\n    tag_342:\n        /* \"#utility.yul\":11262:11318   */\n      not\n        /* \"#utility.yul\":11347:11351   */\n      dup1\n        /* \"#utility.yul\":11341:11345   */\n      dup4\n        /* \"#utility.yul\":11337:11352   */\n      and\n        /* \"#utility.yul\":11327:11352   */\n      swap2\n      pop\n        /* \"#utility.yul\":11240:11358   */\n      pop\n        /* \"#utility.yul\":11189:11358   */\n      swap3\n      swap2\n      pop\n      pop\n      jump\t// out\n        /* \"#utility.yul\":11363:11658   */\n    tag_200:\n        /* \"#utility.yul\":11439:11443   */\n      0x00\n        /* \"#utility.yul\":11585:11614   */\n      tag_344\n        /* \"#utility.yul\":11610:11613   */\n      dup4\n        /* \"#utility.yul\":11604:11608   */\n      dup4\n        /* \"#utility.yul\":11585:11614   */\n      tag_199\n      jump\t// in\n    tag_344:\n        /* \"#utility.yul\":11577:11614   */\n      swap2\n      pop\n        /* \"#utility.yul\":11647:11650   */\n      dup3\n        /* \"#utility.yul\":11644:11645   */\n      0x02\n        /* \"#utility.yul\":11640:11651   */\n      mul\n        /* \"#utility.yul\":11634:11638   */\n      dup3\n        /* \"#utility.yul\":11631:11652   */\n      or\n        /* \"#utility.yul\":11623:11652   */\n      swap1\n      pop\n        /* \"#utility.yul\":11363:11658   */\n      swap3\n      swap2\n      pop\n      pop\n      jump\t// out\n        /* \"#utility.yul\":11663:13053   */\n    tag_73:\n        /* \"#utility.yul\":11778:11814   */\n      tag_346\n        /* \"#utility.yul\":11810:11813   */\n      dup3\n        /* \"#utility.yul\":11778:11814   */\n      tag_176\n      jump\t// in\n    tag_346:\n        /* \"#utility.yul\":11879:11897   */\n      0xffffffffffffffff\n        /* \"#utility.yul\":11871:11877   */\n      dup2\n        /* \"#utility.yul\":11868:11898   */\n      gt\n        /* \"#utility.yul\":11865:11921   */\n      iszero\n      tag_347\n      jumpi\n        /* \"#utility.yul\":11901:11919   */\n      tag_348\n      tag_184\n      jump\t// in\n    tag_348:\n        /* \"#utility.yul\":11865:11921   */\n    tag_347:\n        /* \"#utility.yul\":11945:11983   */\n      tag_349\n        /* \"#utility.yul\":11977:11981   */\n      dup3\n        /* \"#utility.yul\":11971:11982   */\n      sload\n        /* \"#utility.yul\":11945:11983   */\n      tag_98\n      jump\t// in\n    tag_349:\n        /* \"#utility.yul\":12030:12096   */\n      tag_350\n        /* \"#utility.yul\":12089:12095   */\n      dup3\n        /* \"#utility.yul\":12081:12087   */\n      dup3\n        /* \"#utility.yul\":12075:12079   */\n      dup6\n        /* \"#utility.yul\":12030:12096   */\n      tag_197\n      jump\t// in\n    tag_350:\n        /* \"#utility.yul\":12123:12124   */\n      0x00\n        /* \"#utility.yul\":12147:12151   */\n      0x20\n        /* \"#utility.yul\":12134:12151   */\n      swap1\n      pop\n        /* \"#utility.yul\":12179:12181   */\n      0x1f\n        /* \"#utility.yul\":12171:12177   */\n      dup4\n        /* \"#utility.yul\":12168:12182   */\n      gt\n        /* \"#utility.yul\":12196:12197   */\n      0x01\n        /* \"#utility.yul\":12191:12808   */\n      dup2\n      eq\n      tag_352\n      jumpi\n        /* \"#utility.yul\":12852:12853   */\n      0x00\n        /* \"#utility.yul\":12869:12875   */\n      dup5\n        /* \"#utility.yul\":12866:12943   */\n      iszero\n      tag_353\n      jumpi\n        /* \"#utility.yul\":12918:12927   */\n      dup3\n        /* \"#utility.yul\":12913:12916   */\n      dup8\n        /* \"#utility.yul\":12909:12928   */\n      add\n        /* \"#utility.yul\":12903:12929   */\n      mload\n        /* \"#utility.yul\":12894:12929   */\n      swap1\n      pop\n        /* \"#utility.yul\":12866:12943   */\n    tag_353:\n        /* \"#utility.yul\":12969:13036   */\n      tag_354\n        /* \"#utility.yul\":13029:13035   */\n      dup6\n        /* \"#utility.yul\":13022:13027   */\n      dup3\n        /* \"#utility.yul\":12969:13036   */\n      tag_200\n      jump\t// in\n    tag_354:\n        /* \"#utility.yul\":12963:12967   */\n      dup7\n        /* \"#utility.yul\":12956:13037   */\n      sstore\n        /* \"#utility.yul\":12825:13047   */\n      pop\n        /* \"#utility.yul\":12161:13047   */\n      jump(tag_351)\n        /* \"#utility.yul\":12191:12808   */\n    tag_352:\n        /* \"#utility.yul\":12243:12247   */\n      0x1f\n        /* \"#utility.yul\":12239:12248   */\n      not\n        /* \"#utility.yul\":12231:12237   */\n      dup5\n        /* \"#utility.yul\":12227:12249   */\n      and\n        /* \"#utility.yul\":12277:12313   */\n      tag_355\n        /* \"#utility.yul\":12308:12312   */\n      dup7\n        /* \"#utility.yul\":12277:12313   */\n      tag_186\n      jump\t// in\n    tag_355:\n        /* \"#utility.yul\":12335:12336   */\n      0x00\n        /* \"#utility.yul\":12349:12557   */\n    tag_356:\n        /* \"#utility.yul\":12363:12370   */\n      dup3\n        /* \"#utility.yul\":12360:12361   */\n      dup2\n        /* \"#utility.yul\":12357:12371   */\n      lt\n        /* \"#utility.yul\":12349:12557   */\n      iszero\n      tag_358\n      jumpi\n        /* \"#utility.yul\":12442:12451   */\n      dup5\n        /* \"#utility.yul\":12437:12440   */\n      dup10\n        /* \"#utility.yul\":12433:12452   */\n      add\n        /* \"#utility.yul\":12427:12453   */\n      mload\n        /* \"#utility.yul\":12419:12425   */\n      dup3\n        /* \"#utility.yul\":12412:12454   */\n      sstore\n        /* \"#utility.yul\":12493:12494   */\n      0x01\n        /* \"#utility.yul\":12485:12491   */\n      dup3\n        /* \"#utility.yul\":12481:12495   */\n      add\n        /* \"#utility.yul\":12471:12495   */\n      swap2\n      pop\n        /* \"#utility.yul\":12540:12542   */\n      0x20\n        /* \"#utility.yul\":12529:12538   */\n      dup6\n        /* \"#utility.yul\":12525:12543   */\n      add\n        /* \"#utility.yul\":12512:12543   */\n      swap5\n      pop\n        /* \"#utility.yul\":12386:12390   */\n      0x20\n        /* \"#utility.yul\":12383:12384   */\n      dup2\n        /* \"#utility.yul\":12379:12391   */\n      add\n        /* \"#utility.yul\":12374:12391   */\n      swap1\n      pop\n        /* \"#utility.yul\":12349:12557   */\n      jump(tag_356)\n    tag_358:\n        /* \"#utility.yul\":12585:12591   */\n      dup7\n        /* \"#utility.yul\":12576:12583   */\n      dup4\n        /* \"#utility.yul\":12573:12592   */\n      lt\n        /* \"#utility.yul\":12570:12749   */\n      iszero\n      tag_359\n      jumpi\n        /* \"#utility.yul\":12643:12652   */\n      dup5\n        /* \"#utility.yul\":12638:12641   */\n      dup10\n        /* \"#utility.yul\":12634:12653   */\n      add\n        /* \"#utility.yul\":12628:12654   */\n      mload\n        /* \"#utility.yul\":12686:12734   */\n      tag_360\n        /* \"#utility.yul\":12728:12732   */\n      0x1f\n        /* \"#utility.yul\":12720:12726   */\n      dup10\n        /* \"#utility.yul\":12716:12733   */\n      and\n        /* \"#utility.yul\":12705:12714   */\n      dup3\n        /* \"#utility.yul\":12686:12734   */\n      tag_199\n      jump\t// in\n    tag_360:\n        /* \"#utility.yul\":12678:12684   */\n      dup4\n        /* \"#utility.yul\":12671:12735   */\n      sstore\n        /* \"#utility.yul\":12593:12749   */\n      pop\n        /* \"#utility.yul\":12570:12749   */\n    tag_359:\n        /* \"#utility.yul\":12795:12796   */\n      0x01\n        /* \"#utility.yul\":12791:12792   */\n      0x02\n        /* \"#utility.yul\":12783:12789   */\n      dup9\n        /* \"#utility.yul\":12779:12793   */\n      mul\n        /* \"#utility.yul\":12775:12797   */\n      add\n        /* \"#utility.yul\":12769:12773   */\n      dup9\n        /* \"#utility.yul\":12762:12798   */\n      sstore\n        /* \"#utility.yul\":12198:12808   */\n      pop\n      pop\n      pop\n        /* \"#utility.yul\":12161:13047   */\n    tag_351:\n      pop\n        /* \"#utility.yul\":11753:13053   */\n      pop\n      pop\n      pop\n        /* \"#utility.yul\":11663:13053   */\n      pop\n      pop\n      jump\t// out\n        /* \"#utility.yul\":13059:13239   */\n    tag_201:\n        /* \"#utility.yul\":13107:13184   */\n      0x4e487b7100000000000000000000000000000000000000000000000000000000\n        /* \"#utility.yul\":13104:13105   */\n      0x00\n        /* \"#utility.yul\":13097:13185   */\n      mstore\n        /* \"#utility.yul\":13204:13208   */\n      0x11\n        /* \"#utility.yul\":13201:13202   */\n      0x04\n        /* \"#utility.yul\":13194:13209   */\n      mstore\n        /* \"#utility.yul\":13228:13232   */\n      0x24\n        /* \"#utility.yul\":13225:13226   */\n      0x00\n        /* \"#utility.yul\":13218:13233   */\n      revert\n        /* \"#utility.yul\":13245:13439   */\n    tag_75:\n        /* \"#utility.yul\":13285:13289   */\n      0x00\n        /* \"#utility.yul\":13305:13325   */\n      tag_363\n        /* \"#utility.yul\":13323:13324   */\n      dup3\n        /* \"#utility.yul\":13305:13325   */\n      tag_158\n      jump\t// in\n    tag_363:\n        /* \"#utility.yul\":13300:13325   */\n      swap2\n      pop\n        /* \"#utility.yul\":13339:13359   */\n      tag_364\n        /* \"#utility.yul\":13357:13358   */\n      dup4\n        /* \"#utility.yul\":13339:13359   */\n      tag_158\n      jump\t// in\n    tag_364:\n        /* \"#utility.yul\":13334:13359   */\n      swap3\n      pop\n        /* \"#utility.yul\":13383:13384   */\n      dup3\n        /* \"#utility.yul\":13380:13381   */\n      dup3\n        /* \"#utility.yul\":13376:13385   */\n      sub\n        /* \"#utility.yul\":13368:13385   */\n      swap1\n      pop\n        /* \"#utility.yul\":13407:13408   */\n      dup2\n        /* \"#utility.yul\":13401:13405   */\n      dup2\n        /* \"#utility.yul\":13398:13409   */\n      gt\n        /* \"#utility.yul\":13395:13432   */\n      iszero\n      tag_365\n      jumpi\n        /* \"#utility.yul\":13412:13430   */\n      tag_366\n      tag_201\n      jump\t// in\n    tag_366:\n        /* \"#utility.yul\":13395:13432   */\n    tag_365:\n        /* \"#utility.yul\":13245:13439   */\n      swap3\n      swap2\n      pop\n      pop\n      jump\t// out\n        /* \"#utility.yul\":13445:13612   */\n    tag_202:\n        /* \"#utility.yul\":13585:13604   */\n      0x747820646f6573206e6f74206578697374000000000000000000000000000000\n        /* \"#utility.yul\":13581:13582   */\n      0x00\n        /* \"#utility.yul\":13573:13579   */\n      dup3\n        /* \"#utility.yul\":13569:13583   */\n      add\n        /* \"#utility.yul\":13562:13605   */\n      mstore\n        /* \"#utility.yul\":13445:13612   */\n      pop\n      jump\t// out\n        /* \"#utility.yul\":13618:13984   */\n    tag_203:\n        /* \"#utility.yul\":13760:13763   */\n      0x00\n        /* \"#utility.yul\":13781:13848   */\n      tag_369\n        /* \"#utility.yul\":13845:13847   */\n      0x11\n        /* \"#utility.yul\":13840:13843   */\n      dup4\n        /* \"#utility.yul\":13781:13848   */\n      tag_181\n      jump\t// in\n    tag_369:\n        /* \"#utility.yul\":13774:13848   */\n      swap2\n      pop\n        /* \"#utility.yul\":13857:13950   */\n      tag_370\n        /* \"#utility.yul\":13946:13949   */\n      dup3\n        /* \"#utility.yul\":13857:13950   */\n      tag_202\n      jump\t// in\n    tag_370:\n        /* \"#utility.yul\":13975:13977   */\n      0x20\n        /* \"#utility.yul\":13970:13973   */\n      dup3\n        /* \"#utility.yul\":13966:13978   */\n      add\n        /* \"#utility.yul\":13959:13978   */\n      swap1\n      pop\n        /* \"#utility.yul\":13618:13984   */\n      swap2\n      swap1\n      pop\n      jump\t// out\n        /* \"#utility.yul\":13990:14409   */\n    tag_82:\n        /* \"#utility.yul\":14156:14160   */\n      0x00\n        /* \"#utility.yul\":14194:14196   */\n      0x20\n        /* \"#utility.yul\":14183:14192   */\n      dup3\n        /* \"#utility.yul\":14179:14197   */\n      add\n        /* \"#utility.yul\":14171:14197   */\n      swap1\n      pop\n        /* \"#utility.yul\":14243:14252   */\n      dup2\n        /* \"#utility.yul\":14237:14241   */\n      dup2\n        /* \"#utility.yul\":14233:14253   */\n      sub\n        /* \"#utility.yul\":14229:14230   */\n      0x00\n        /* \"#utility.yul\":14218:14227   */\n      dup4\n        /* \"#utility.yul\":14214:14231   */\n      add\n        /* \"#utility.yul\":14207:14254   */\n      mstore\n        /* \"#utility.yul\":14271:14402   */\n      tag_372\n        /* \"#utility.yul\":14397:14401   */\n      dup2\n        /* \"#utility.yul\":14271:14402   */\n      tag_203\n      jump\t// in\n    tag_372:\n        /* \"#utility.yul\":14263:14402   */\n      swap1\n      pop\n        /* \"#utility.yul\":13990:14409   */\n      swap2\n      swap1\n      pop\n      jump\t// out\n        /* \"#utility.yul\":14415:14595   */\n    tag_86:\n        /* \"#utility.yul\":14463:14540   */\n      0x4e487b7100000000000000000000000000000000000000000000000000000000\n        /* \"#utility.yul\":14460:14461   */\n      0x00\n        /* \"#utility.yul\":14453:14541   */\n      mstore\n        /* \"#utility.yul\":14560:14564   */\n      0x32\n        /* \"#utility.yul\":14557:14558   */\n      0x04\n        /* \"#utility.yul\":14550:14565   */\n      mstore\n        /* \"#utility.yul\":14584:14588   */\n      0x24\n        /* \"#utility.yul\":14581:14582   */\n      0x00\n        /* \"#utility.yul\":14574:14589   */\n      revert\n        /* \"#utility.yul\":14601:14762   */\n    tag_204:\n        /* \"#utility.yul\":14741:14754   */\n      0x7478206578656375746564000000000000000000000000000000000000000000\n        /* \"#utility.yul\":14737:14738   */\n      0x00\n        /* \"#utility.yul\":14729:14735   */\n      dup3\n        /* \"#utility.yul\":14725:14739   */\n      add\n        /* \"#utility.yul\":14718:14755   */\n      mstore\n        /* \"#utility.yul\":14601:14762   */\n      pop\n      jump\t// out\n        /* \"#utility.yul\":14768:15134   */\n    tag_205:\n        /* \"#utility.yul\":14910:14913   */\n      0x00\n        /* \"#utility.yul\":14931:14998   */\n      tag_376\n        /* \"#utility.yul\":14995:14997   */\n      0x0b\n        /* \"#utility.yul\":14990:14993   */\n      dup4\n        /* \"#utility.yul\":14931:14998   */\n      tag_181\n      jump\t// in\n    tag_376:\n        /* \"#utility.yul\":14924:14998   */\n      swap2\n      pop\n        /* \"#utility.yul\":15007:15100   */\n      tag_377\n        /* \"#utility.yul\":15096:15099   */\n      dup3\n        /* \"#utility.yul\":15007:15100   */\n      tag_204\n      jump\t// in\n    tag_377:\n        /* \"#utility.yul\":15125:15127   */\n      0x20\n        /* \"#utility.yul\":15120:15123   */\n      dup3\n        /* \"#utility.yul\":15116:15128   */\n      add\n        /* \"#utility.yul\":15109:15128   */\n      swap1\n      pop\n        /* \"#utility.yul\":14768:15134   */\n      swap2\n      swap1\n      pop\n      jump\t// out\n        /* \"#utility.yul\":15140:15559   */\n    tag_90:\n        /* \"#utility.yul\":15306:15310   */\n      0x00\n        /* \"#utility.yul\":15344:15346   */\n      0x20\n        /* \"#utility.yul\":15333:15342   */\n      dup3\n        /* \"#utility.yul\":15329:15347   */\n      add\n        /* \"#utility.yul\":15321:15347   */\n      swap1\n      pop\n        /* \"#utility.yul\":15393:15402   */\n      dup2\n        /* \"#utility.yul\":15387:15391   */\n      dup2\n        /* \"#utility.yul\":15383:15403   */\n      sub\n        /* \"#utility.yul\":15379:15380   */\n      0x00\n        /* \"#utility.yul\":15368:15377   */\n      dup4\n        /* \"#utility.yul\":15364:15381   */\n      add\n        /* \"#utility.yul\":15357:15404   */\n      mstore\n        /* \"#utility.yul\":15421:15552   */\n      tag_379\n        /* \"#utility.yul\":15547:15551   */\n      dup2\n        /* \"#utility.yul\":15421:15552   */\n      tag_205\n      jump\t// in\n    tag_379:\n        /* \"#utility.yul\":15413:15552   */\n      swap1\n      pop\n        /* \"#utility.yul\":15140:15559   */\n      swap2\n      swap1\n      pop\n      jump\t// out\n        /* \"#utility.yul\":15565:15730   */\n    tag_206:\n        /* \"#utility.yul\":15705:15722   */\n      0x7478206e6f7420617070726f7665640000000000000000000000000000000000\n        /* \"#utility.yul\":15701:15702   */\n      0x00\n        /* \"#utility.yul\":15693:15699   */\n      dup3\n        /* \"#utility.yul\":15689:15703   */\n      add\n        /* \"#utility.yul\":15682:15723   */\n      mstore\n        /* \"#utility.yul\":15565:15730   */\n      pop\n      jump\t// out\n        /* \"#utility.yul\":15736:16102   */\n    tag_207:\n        /* \"#utility.yul\":15878:15881   */\n      0x00\n        /* \"#utility.yul\":15899:15966   */\n      tag_382\n        /* \"#utility.yul\":15963:15965   */\n      0x0f\n        /* \"#utility.yul\":15958:15961   */\n      dup4\n        /* \"#utility.yul\":15899:15966   */\n      tag_181\n      jump\t// in\n    tag_382:\n        /* \"#utility.yul\":15892:15966   */\n      swap2\n      pop\n        /* \"#utility.yul\":15975:16068   */\n      tag_383\n        /* \"#utility.yul\":16064:16067   */\n      dup3\n        /* \"#utility.yul\":15975:16068   */\n      tag_206\n      jump\t// in\n    tag_383:\n        /* \"#utility.yul\":16093:16095   */\n      0x20\n        /* \"#utility.yul\":16088:16091   */\n      dup3\n        /* \"#utility.yul\":16084:16096   */\n      add\n        /* \"#utility.yul\":16077:16096   */\n      swap1\n      pop\n        /* \"#utility.yul\":15736:16102   */\n      swap2\n      swap1\n      pop\n      jump\t// out\n        /* \"#utility.yul\":16108:16527   */\n    tag_94:\n        /* \"#utility.yul\":16274:16278   */\n      0x00\n        /* \"#utility.yul\":16312:16314   */\n      0x20\n        /* \"#utility.yul\":16301:16310   */\n      dup3\n        /* \"#utility.yul\":16297:16315   */\n      add\n        /* \"#utility.yul\":16289:16315   */\n      swap1\n      pop\n        /* \"#utility.yul\":16361:16370   */\n      dup2\n        /* \"#utility.yul\":16355:16359   */\n      dup2\n        /* \"#utility.yul\":16351:16371   */\n      sub\n        /* \"#utility.yul\":16347:16348   */\n      0x00\n        /* \"#utility.yul\":16336:16345   */\n      dup4\n        /* \"#utility.yul\":16332:16349   */\n      add\n        /* \"#utility.yul\":16325:16372   */\n      mstore\n        /* \"#utility.yul\":16389:16520   */\n      tag_385\n        /* \"#utility.yul\":16515:16519   */\n      dup2\n        /* \"#utility.yul\":16389:16520   */\n      tag_207\n      jump\t// in\n    tag_385:\n        /* \"#utility.yul\":16381:16520   */\n      swap1\n      pop\n        /* \"#utility.yul\":16108:16527   */\n      swap2\n      swap1\n      pop\n      jump\t// out\n        /* \"#utility.yul\":16533:16702   */\n    tag_208:\n        /* \"#utility.yul\":16673:16694   */\n      0x747820616c726561647920617070726f76656400000000000000000000000000\n        /* \"#utility.yul\":16669:16670   */\n      0x00\n        /* \"#utility.yul\":16661:16667   */\n      dup3\n        /* \"#utility.yul\":16657:16671   */\n      add\n        /* \"#utility.yul\":16650:16695   */\n      mstore\n        /* \"#utility.yul\":16533:16702   */\n      pop\n      jump\t// out\n        /* \"#utility.yul\":16708:17074   */\n    tag_209:\n        /* \"#utility.yul\":16850:16853   */\n      0x00\n        /* \"#utility.yul\":16871:16938   */\n      tag_388\n        /* \"#utility.yul\":16935:16937   */\n      0x13\n        /* \"#utility.yul\":16930:16933   */\n      dup4\n        /* \"#utility.yul\":16871:16938   */\n      tag_181\n      jump\t// in\n    tag_388:\n        /* \"#utility.yul\":16864:16938   */\n      swap2\n      pop\n        /* \"#utility.yul\":16947:17040   */\n      tag_389\n        /* \"#utility.yul\":17036:17039   */\n      dup3\n        /* \"#utility.yul\":16947:17040   */\n      tag_208\n      jump\t// in\n    tag_389:\n        /* \"#utility.yul\":17065:17067   */\n      0x20\n        /* \"#utility.yul\":17060:17063   */\n      dup3\n        /* \"#utility.yul\":17056:17068   */\n      add\n        /* \"#utility.yul\":17049:17068   */\n      swap1\n      pop\n        /* \"#utility.yul\":16708:17074   */\n      swap2\n      swap1\n      pop\n      jump\t// out\n        /* \"#utility.yul\":17080:17499   */\n    tag_112:\n        /* \"#utility.yul\":17246:17250   */\n      0x00\n        /* \"#utility.yul\":17284:17286   */\n      0x20\n        /* \"#utility.yul\":17273:17282   */\n      dup3\n        /* \"#utility.yul\":17269:17287   */\n      add\n        /* \"#utility.yul\":17261:17287   */\n      swap1\n      pop\n        /* \"#utility.yul\":17333:17342   */\n      dup2\n        /* \"#utility.yul\":17327:17331   */\n      dup2\n        /* \"#utility.yul\":17323:17343   */\n      sub\n        /* \"#utility.yul\":17319:17320   */\n      0x00\n        /* \"#utility.yul\":17308:17317   */\n      dup4\n        /* \"#utility.yul\":17304:17321   */\n      add\n        /* \"#utility.yul\":17297:17344   */\n      mstore\n        /* \"#utility.yul\":17361:17492   */\n      tag_391\n        /* \"#utility.yul\":17487:17491   */\n      dup2\n        /* \"#utility.yul\":17361:17492   */\n      tag_209\n      jump\t// in\n    tag_391:\n        /* \"#utility.yul\":17353:17492   */\n      swap1\n      pop\n        /* \"#utility.yul\":17080:17499   */\n      swap2\n      swap1\n      pop\n      jump\t// out\n        /* \"#utility.yul\":17505:17675   */\n    tag_210:\n        /* \"#utility.yul\":17645:17667   */\n      0x617070726f76616c73203c207265717569726564000000000000000000000000\n        /* \"#utility.yul\":17641:17642   */\n      0x00\n        /* \"#utility.yul\":17633:17639   */\n      dup3\n        /* \"#utility.yul\":17629:17643   */\n      add\n        /* \"#utility.yul\":17622:17668   */\n      mstore\n        /* \"#utility.yul\":17505:17675   */\n      pop\n      jump\t// out\n        /* \"#utility.yul\":17681:18047   */\n    tag_211:\n        /* \"#utility.yul\":17823:17826   */\n      0x00\n        /* \"#utility.yul\":17844:17911   */\n      tag_394\n        /* \"#utility.yul\":17908:17910   */\n      0x14\n        /* \"#utility.yul\":17903:17906   */\n      dup4\n        /* \"#utility.yul\":17844:17911   */\n      tag_181\n      jump\t// in\n    tag_394:\n        /* \"#utility.yul\":17837:17911   */\n      swap2\n      pop\n        /* \"#utility.yul\":17920:18013   */\n      tag_395\n        /* \"#utility.yul\":18009:18012   */\n      dup3\n        /* \"#utility.yul\":17920:18013   */\n      tag_210\n      jump\t// in\n    tag_395:\n        /* \"#utility.yul\":18038:18040   */\n      0x20\n        /* \"#utility.yul\":18033:18036   */\n      dup3\n        /* \"#utility.yul\":18029:18041   */\n      add\n        /* \"#utility.yul\":18022:18041   */\n      swap1\n      pop\n        /* \"#utility.yul\":17681:18047   */\n      swap2\n      swap1\n      pop\n      jump\t// out\n        /* \"#utility.yul\":18053:18472   */\n    tag_134:\n        /* \"#utility.yul\":18219:18223   */\n      0x00\n        /* \"#utility.yul\":18257:18259   */\n      0x20\n        /* \"#utility.yul\":18246:18255   */\n      dup3\n        /* \"#utility.yul\":18242:18260   */\n      add\n        /* \"#utility.yul\":18234:18260   */\n      swap1\n      pop\n        /* \"#utility.yul\":18306:18315   */\n      dup2\n        /* \"#utility.yul\":18300:18304   */\n      dup2\n        /* \"#utility.yul\":18296:18316   */\n      sub\n        /* \"#utility.yul\":18292:18293   */\n      0x00\n        /* \"#utility.yul\":18281:18290   */\n      dup4\n        /* \"#utility.yul\":18277:18294   */\n      add\n        /* \"#utility.yul\":18270:18317   */\n      mstore\n        /* \"#utility.yul\":18334:18465   */\n      tag_397\n        /* \"#utility.yul\":18460:18464   */\n      dup2\n        /* \"#utility.yul\":18334:18465   */\n      tag_211\n      jump\t// in\n    tag_397:\n        /* \"#utility.yul\":18326:18465   */\n      swap1\n      pop\n        /* \"#utility.yul\":18053:18472   */\n      swap2\n      swap1\n      pop\n      jump\t// out\n        /* \"#utility.yul\":18478:18625   */\n    tag_212:\n        /* \"#utility.yul\":18579:18590   */\n      0x00\n        /* \"#utility.yul\":18616:18619   */\n      dup2\n        /* \"#utility.yul\":18601:18619   */\n      swap1\n      pop\n        /* \"#utility.yul\":18478:18625   */\n      swap3\n      swap2\n      pop\n      pop\n      jump\t// out\n        /* \"#utility.yul\":18653:19523   */\n    tag_213:\n        /* \"#utility.yul\":18754:18757   */\n      0x00\n        /* \"#utility.yul\":18791:18796   */\n      dup2\n        /* \"#utility.yul\":18785:18797   */\n      sload\n        /* \"#utility.yul\":18820:18856   */\n      tag_400\n        /* \"#utility.yul\":18846:18855   */\n      dup2\n        /* \"#utility.yul\":18820:18856   */\n      tag_98\n      jump\t// in\n    tag_400:\n        /* \"#utility.yul\":18872:18960   */\n      tag_401\n        /* \"#utility.yul\":18953:18959   */\n      dup2\n        /* \"#utility.yul\":18948:18951   */\n      dup7\n        /* \"#utility.yul\":18872:18960   */\n      tag_212\n      jump\t// in\n    tag_401:\n        /* \"#utility.yul\":18865:18960   */\n      swap5\n      pop\n        /* \"#utility.yul\":18991:18992   */\n      0x01\n        /* \"#utility.yul\":18980:18989   */\n      dup3\n        /* \"#utility.yul\":18976:18993   */\n      and\n        /* \"#utility.yul\":19007:19008   */\n      0x00\n        /* \"#utility.yul\":19002:19168   */\n      dup2\n      eq\n      tag_403\n      jumpi\n        /* \"#utility.yul\":19182:19183   */\n      0x01\n        /* \"#utility.yul\":19177:19517   */\n      dup2\n      eq\n      tag_404\n      jumpi\n        /* \"#utility.yul\":18969:19517   */\n      jump(tag_402)\n        /* \"#utility.yul\":19002:19168   */\n    tag_403:\n        /* \"#utility.yul\":19086:19090   */\n      0xff\n        /* \"#utility.yul\":19082:19091   */\n      not\n        /* \"#utility.yul\":19071:19080   */\n      dup4\n        /* \"#utility.yul\":19067:19092   */\n      and\n        /* \"#utility.yul\":19062:19065   */\n      dup7\n        /* \"#utility.yul\":19055:19093   */\n      mstore\n        /* \"#utility.yul\":19148:19154   */\n      dup2\n        /* \"#utility.yul\":19141:19155   */\n      iszero\n        /* \"#utility.yul\":19134:19156   */\n      iszero\n        /* \"#utility.yul\":19126:19132   */\n      dup3\n        /* \"#utility.yul\":19122:19157   */\n      mul\n        /* \"#utility.yul\":19117:19120   */\n      dup7\n        /* \"#utility.yul\":19113:19158   */\n      add\n        /* \"#utility.yul\":19106:19158   */\n      swap4\n      pop\n        /* \"#utility.yul\":19002:19168   */\n      jump(tag_402)\n        /* \"#utility.yul\":19177:19517   */\n    tag_404:\n        /* \"#utility.yul\":19244:19281   */\n      tag_405\n        /* \"#utility.yul\":19275:19280   */\n      dup6\n        /* \"#utility.yul\":19244:19281   */\n      tag_186\n      jump\t// in\n    tag_405:\n        /* \"#utility.yul\":19303:19304   */\n      0x00\n        /* \"#utility.yul\":19317:19471   */\n    tag_406:\n        /* \"#utility.yul\":19331:19337   */\n      dup4\n        /* \"#utility.yul\":19328:19329   */\n      dup2\n        /* \"#utility.yul\":19325:19338   */\n      lt\n        /* \"#utility.yul\":19317:19471   */\n      iszero\n      tag_408\n      jumpi\n        /* \"#utility.yul\":19405:19412   */\n      dup2\n        /* \"#utility.yul\":19399:19413   */\n      sload\n        /* \"#utility.yul\":19395:19396   */\n      dup2\n        /* \"#utility.yul\":19390:19393   */\n      dup10\n        /* \"#utility.yul\":19386:19397   */\n      add\n        /* \"#utility.yul\":19379:19414   */\n      mstore\n        /* \"#utility.yul\":19455:19456   */\n      0x01\n        /* \"#utility.yul\":19446:19453   */\n      dup3\n        /* \"#utility.yul\":19442:19457   */\n      add\n        /* \"#utility.yul\":19431:19457   */\n      swap2\n      pop\n        /* \"#utility.yul\":19353:19357   */\n      0x20\n        /* \"#utility.yul\":19350:19351   */\n      dup2\n        /* \"#utility.yul\":19346:19358   */\n      add\n        /* \"#utility.yul\":19341:19358   */\n      swap1\n      pop\n        /* \"#utility.yul\":19317:19471   */\n      jump(tag_406)\n    tag_408:\n        /* \"#utility.yul\":19500:19506   */\n      dup4\n        /* \"#utility.yul\":19495:19498   */\n      dup9\n        /* \"#utility.yul\":19491:19507   */\n      add\n        /* \"#utility.yul\":19484:19507   */\n      swap6\n      pop\n        /* \"#utility.yul\":19184:19517   */\n      pop\n      pop\n        /* \"#utility.yul\":18969:19517   */\n    tag_402:\n      pop\n        /* \"#utility.yul\":18758:19523   */\n      pop\n      pop\n        /* \"#utility.yul\":18653:19523   */\n      swap3\n      swap2\n      pop\n      pop\n      jump\t// out\n        /* \"#utility.yul\":19529:19794   */\n    tag_139:\n        /* \"#utility.yul\":19656:19659   */\n      0x00\n        /* \"#utility.yul\":19678:19768   */\n      tag_410\n        /* \"#utility.yul\":19764:19767   */\n      dup3\n        /* \"#utility.yul\":19755:19761   */\n      dup5\n        /* \"#utility.yul\":19678:19768   */\n      tag_213\n      jump\t// in\n    tag_410:\n        /* \"#utility.yul\":19671:19768   */\n      swap2\n      pop\n        /* \"#utility.yul\":19785:19788   */\n      dup2\n        /* \"#utility.yul\":19778:19788   */\n      swap1\n      pop\n        /* \"#utility.yul\":19529:19794   */\n      swap3\n      swap2\n      pop\n      pop\n      jump\t// out\n        /* \"#utility.yul\":19800:19959   */\n    tag_214:\n        /* \"#utility.yul\":19940:19951   */\n      0x7478206661696c65640000000000000000000000000000000000000000000000\n        /* \"#utility.yul\":19936:19937   */\n      0x00\n        /* \"#utility.yul\":19928:19934   */\n      dup3\n        /* \"#utility.yul\":19924:19938   */\n      add\n        /* \"#utility.yul\":19917:19952   */\n      mstore\n        /* \"#utility.yul\":19800:19959   */\n      pop\n      jump\t// out\n        /* \"#utility.yul\":19965:20330   */\n    tag_215:\n        /* \"#utility.yul\":20107:20110   */\n      0x00\n        /* \"#utility.yul\":20128:20194   */\n      tag_413\n        /* \"#utility.yul\":20192:20193   */\n      0x09\n        /* \"#utility.yul\":20187:20190   */\n      dup4\n        /* \"#utility.yul\":20128:20194   */\n      tag_181\n      jump\t// in\n    tag_413:\n        /* \"#utility.yul\":20121:20194   */\n      swap2\n      pop\n        /* \"#utility.yul\":20203:20296   */\n      tag_414\n        /* \"#utility.yul\":20292:20295   */\n      dup3\n        /* \"#utility.yul\":20203:20296   */\n      tag_214\n      jump\t// in\n    tag_414:\n        /* \"#utility.yul\":20321:20323   */\n      0x20\n        /* \"#utility.yul\":20316:20319   */\n      dup3\n        /* \"#utility.yul\":20312:20324   */\n      add\n        /* \"#utility.yul\":20305:20324   */\n      swap1\n      pop\n        /* \"#utility.yul\":19965:20330   */\n      swap2\n      swap1\n      pop\n      jump\t// out\n        /* \"#utility.yul\":20336:20755   */\n    tag_145:\n        /* \"#utility.yul\":20502:20506   */\n      0x00\n        /* \"#utility.yul\":20540:20542   */\n      0x20\n        /* \"#utility.yul\":20529:20538   */\n      dup3\n        /* \"#utility.yul\":20525:20543   */\n      add\n        /* \"#utility.yul\":20517:20543   */\n      swap1\n      pop\n        /* \"#utility.yul\":20589:20598   */\n      dup2\n        /* \"#utility.yul\":20583:20587   */\n      dup2\n        /* \"#utility.yul\":20579:20599   */\n      sub\n        /* \"#utility.yul\":20575:20576   */\n      0x00\n        /* \"#utility.yul\":20564:20573   */\n      dup4\n        /* \"#utility.yul\":20560:20577   */\n      add\n        /* \"#utility.yul\":20553:20600   */\n      mstore\n        /* \"#utility.yul\":20617:20748   */\n      tag_416\n        /* \"#utility.yul\":20743:20747   */\n      dup2\n        /* \"#utility.yul\":20617:20748   */\n      tag_215\n      jump\t// in\n    tag_416:\n        /* \"#utility.yul\":20609:20748   */\n      swap1\n      pop\n        /* \"#utility.yul\":20336:20755   */\n      swap2\n      swap1\n      pop\n      jump\t// out\n        /* \"#utility.yul\":20761:20952   */\n    tag_155:\n        /* \"#utility.yul\":20801:20804   */\n      0x00\n        /* \"#utility.yul\":20820:20840   */\n      tag_418\n        /* \"#utility.yul\":20838:20839   */\n      dup3\n        /* \"#utility.yul\":20820:20840   */\n      tag_158\n      jump\t// in\n    tag_418:\n        /* \"#utility.yul\":20815:20840   */\n      swap2\n      pop\n        /* \"#utility.yul\":20854:20874   */\n      tag_419\n        /* \"#utility.yul\":20872:20873   */\n      dup4\n        /* \"#utility.yul\":20854:20874   */\n      tag_158\n      jump\t// in\n    tag_419:\n        /* \"#utility.yul\":20849:20874   */\n      swap3\n      pop\n        /* \"#utility.yul\":20897:20898   */\n      dup3\n        /* \"#utility.yul\":20894:20895   */\n      dup3\n        /* \"#utility.yul\":20890:20899   */\n      add\n        /* \"#utility.yul\":20883:20899   */\n      swap1\n      pop\n        /* \"#utility.yul\":20918:20921   */\n      dup1\n        /* \"#utility.yul\":20915:20916   */\n      dup3\n        /* \"#utility.yul\":20912:20922   */\n      gt\n        /* \"#utility.yul\":20909:20945   */\n      iszero\n      tag_420\n      jumpi\n        /* \"#utility.yul\":20925:20943   */\n      tag_421\n      tag_201\n      jump\t// in\n    tag_421:\n        /* \"#utility.yul\":20909:20945   */\n    tag_420:\n        /* \"#utility.yul\":20761:20952   */\n      swap3\n      swap2\n      pop\n      pop\n      jump\t// out\n        /* \"#utility.yul\":20958:21191   */\n    tag_157:\n        /* \"#utility.yul\":20997:21000   */\n      0x00\n        /* \"#utility.yul\":21020:21044   */\n      tag_423\n        /* \"#utility.yul\":21038:21043   */\n      dup3\n        /* \"#utility.yul\":21020:21044   */\n      tag_158\n      jump\t// in\n    tag_423:\n        /* \"#utility.yul\":21011:21044   */\n      swap2\n      pop\n        /* \"#utility.yul\":21066:21132   */\n      0xffffffffffffffffffffffffffffffffffffffffffffffffffffffffffffffff\n        /* \"#utility.yul\":21059:21064   */\n      dup3\n        /* \"#utility.yul\":21056:21133   */\n      sub\n        /* \"#utility.yul\":21053:21156   */\n      tag_424\n      jumpi\n        /* \"#utility.yul\":21136:21154   */\n      tag_425\n      tag_201\n      jump\t// in\n    tag_425:\n        /* \"#utility.yul\":21053:21156   */\n    tag_424:\n        /* \"#utility.yul\":21183:21184   */\n      0x01\n        /* \"#utility.yul\":21176:21181   */\n      dup3\n        /* \"#utility.yul\":21172:21185   */\n      add\n        /* \"#utility.yul\":21165:21185   */\n      swap1\n      pop\n        /* \"#utility.yul\":20958:21191   */\n      swap2\n      swap1\n      pop\n      jump\t// out\n\n    auxdata: 0xa26469706673582212206df88d949c4c1456a64b69265d0639de6d0266377d486b41a7818d26f96b49af64736f6c63430008120033\n}\n",
				"bytecode": {
					"linkReferences": {},
					"object": "60806040523480156200001157600080fd5b506040516200224038038062002240833981810160405281019062000037919062000511565b60008251116200007e576040517f08c379a00000000000000000000000000000000000000000000000000000000081526004016200007590620005d8565b60405180910390fd5b6000811180156200009457506000805490508111155b620000d6576040517f08c379a0000000000000000000000000000000000000000000000000000000008152600401620000cd9062000670565b60405180910390fd5b60005b8251811015620002d8576000838281518110620000fb57620000fa62000692565b5b60200260200101519050600073ffffffffffffffffffffffffffffffffffffffff168173ffffffffffffffffffffffffffffffffffffffff160362000177576040517f08c379a00000000000000000000000000000000000000000000000000000000081526004016200016e9062000711565b60405180910390fd5b600160008273ffffffffffffffffffffffffffffffffffffffff1673ffffffffffffffffffffffffffffffffffffffff16815260200190815260200160002060009054906101000a900460ff161562000207576040517f08c379a0000000000000000000000000000000000000000000000000000000008152600401620001fe9062000783565b60405180910390fd5b60018060008373ffffffffffffffffffffffffffffffffffffffff1673ffffffffffffffffffffffffffffffffffffffff16815260200190815260200160002060006101000a81548160ff0219169083151502179055506000819080600181540180825580915050600190039060005260206000200160009091909190916101000a81548173ffffffffffffffffffffffffffffffffffffffff021916908373ffffffffffffffffffffffffffffffffffffffff160217905550508080620002cf90620007d4565b915050620000d9565b5080600281905550505062000821565b6000604051905090565b600080fd5b600080fd5b600080fd5b6000601f19601f8301169050919050565b7f4e487b7100000000000000000000000000000000000000000000000000000000600052604160045260246000fd5b6200034c8262000301565b810181811067ffffffffffffffff821117156200036e576200036d62000312565b5b80604052505050565b600062000383620002e8565b905062000391828262000341565b919050565b600067ffffffffffffffff821115620003b457620003b362000312565b5b602082029050602081019050919050565b600080fd5b600073ffffffffffffffffffffffffffffffffffffffff82169050919050565b6000620003f782620003ca565b9050919050565b6200040981620003ea565b81146200041557600080fd5b50565b6000815190506200042981620003fe565b92915050565b600062000446620004408462000396565b62000377565b905080838252602082019050602084028301858111156200046c576200046b620003c5565b5b835b8181101562000499578062000484888262000418565b8452602084019350506020810190506200046e565b5050509392505050565b600082601f830112620004bb57620004ba620002fc565b5b8151620004cd8482602086016200042f565b91505092915050565b6000819050919050565b620004eb81620004d6565b8114620004f757600080fd5b50565b6000815190506200050b81620004e0565b92915050565b600080604083850312156200052b576200052a620002f2565b5b600083015167ffffffffffffffff8111156200054c576200054b620002f7565b5b6200055a85828601620004a3565b92505060206200056d85828601620004fa565b9150509250929050565b600082825260208201905092915050565b7f6f776e6572732072657175697265640000000000000000000000000000000000600082015250565b6000620005c0600f8362000577565b9150620005cd8262000588565b602082019050919050565b60006020820190508181036000830152620005f381620005b1565b9050919050565b7f696e76616c6964207265717569726564206e756d626572206f66206f776e657260008201527f7300000000000000000000000000000000000000000000000000000000000000602082015250565b60006200065860218362000577565b91506200066582620005fa565b604082019050919050565b600060208201905081810360008301526200068b8162000649565b9050919050565b7f4e487b7100000000000000000000000000000000000000000000000000000000600052603260045260246000fd5b7f696e76616c6964206f776e657200000000000000000000000000000000000000600082015250565b6000620006f9600d8362000577565b91506200070682620006c1565b602082019050919050565b600060208201905081810360008301526200072c81620006ea565b9050919050565b7f6f776e6572206973206e6f742075696e69717565000000000000000000000000600082015250565b60006200076b60148362000577565b9150620007788262000733565b602082019050919050565b600060208201905081810360008301526200079e816200075c565b9050919050565b7f4e487b7100000000000000000000000000000000000000000000000000000000600052601160045260246000fd5b6000620007e182620004d6565b91507fffffffffffffffffffffffffffffffffffffffffffffffffffffffffffffffff8203620008165762000815620007a5565b5b600182019050919050565b611a0f80620008316000396000f3fe60806040526004361061008a5760003560e01c80638253951a116100595780638253951a146101b05780639ace38c2146101ed578063b759f9541461022d578063dc8452cd14610256578063fe0d94c114610281576100df565b8063025e7c27146100e457806314de327f1461012157806320c5429b1461014a5780632f54bf6e14610173576100df565b366100df573373ffffffffffffffffffffffffffffffffffffffff167fe1fffcc4923d04b559f4d29a8bfc6cda04eb5b0d3c460751c2402c5c5cc9109c346040516100d59190610eb6565b60405180910390a2005b600080fd5b3480156100f057600080fd5b5061010b60048036038101906101069190610f07565b6102aa565b6040516101189190610f75565b60405180910390f35b34801561012d57600080fd5b5061014860048036038101906101439190611021565b6102e9565b005b34801561015657600080fd5b50610171600480360381019061016c9190610f07565b6104eb565b005b34801561017f57600080fd5b5061019a60048036038101906101959190611095565b610782565b6040516101a791906110dd565b60405180910390f35b3480156101bc57600080fd5b506101d760048036038101906101d291906110f8565b6107a2565b6040516101e491906110dd565b60405180910390f35b3480156101f957600080fd5b50610214600480360381019061020f9190610f07565b6107d1565b60405161022494939291906111c8565b60405180910390f35b34801561023957600080fd5b50610254600480360381019061024f9190610f07565b6108c6565b005b34801561026257600080fd5b5061026b610b60565b6040516102789190610eb6565b60405180910390f35b34801561028d57600080fd5b506102a860048036038101906102a39190610f07565b610b66565b005b600081815481106102ba57600080fd5b906000526020600020016000915054906101000a900473ffffffffffffffffffffffffffffffffffffffff1681565b600160003373ffffffffffffffffffffffffffffffffffffffff1673ffffffffffffffffffffffffffffffffffffffff16815260200190815260200160002060009054906101000a900460ff16610375576040517f08c379a000000000000000000000000000000000000000000000000000000000815260040161036c90611271565b60405180910390fd5b600360405180608001604052808673ffffffffffffffffffffffffffffffffffffffff16815260200185815260200184848080601f016020809104026020016040519081016040528093929190818152602001838380828437600081840152601f19601f82011690508083019250505050505050815260200160001515815250908060018154018082558091505060019003906000526020600020906004020160009091909190915060008201518160000160006101000a81548173ffffffffffffffffffffffffffffffffffffffff021916908373ffffffffffffffffffffffffffffffffffffffff16021790555060208201518160010155604082015181600201908161048491906114cc565b5060608201518160030160006101000a81548160ff021916908315150217905550505060016003805490506104b991906115cd565b7f08324b3d745b914e3abd4ffbfead91e3b78391a98c173202129215ab933adfbe60405160405180910390a250505050565b600160003373ffffffffffffffffffffffffffffffffffffffff1673ffffffffffffffffffffffffffffffffffffffff16815260200190815260200160002060009054906101000a900460ff16610577576040517f08c379a000000000000000000000000000000000000000000000000000000000815260040161056e90611271565b60405180910390fd5b8060038054905081106105bf576040517f08c379a00000000000000000000000000000000000000000000000000000000081526004016105b69061164d565b60405180910390fd5b81600381815481106105d4576105d361166d565b5b906000526020600020906004020160030160009054906101000a900460ff1615610633576040517f08c379a000000000000000000000000000000000000000000000000000000000815260040161062a906116e8565b60405180910390fd5b6004600084815260200190815260200160002060003373ffffffffffffffffffffffffffffffffffffffff1673ffffffffffffffffffffffffffffffffffffffff16815260200190815260200160002060009054906101000a900460ff166106d0576040517f08c379a00000000000000000000000000000000000000000000000000000000081526004016106c790611754565b60405180910390fd5b60006004600085815260200190815260200160002060003373ffffffffffffffffffffffffffffffffffffffff1673ffffffffffffffffffffffffffffffffffffffff16815260200190815260200160002060006101000a81548160ff021916908315150217905550823373ffffffffffffffffffffffffffffffffffffffff167fec9ab91322523c899ede7830ec9bfc992b5981cdcc27b91162fb23de5791117b60405160405180910390a3505050565b60016020528060005260406000206000915054906101000a900460ff1681565b60046020528160005260406000206020528060005260406000206000915091509054906101000a900460ff1681565b600381815481106107e157600080fd5b90600052602060002090600402016000915090508060000160009054906101000a900473ffffffffffffffffffffffffffffffffffffffff1690806001015490806002018054610830906112ef565b80601f016020809104026020016040519081016040528092919081815260200182805461085c906112ef565b80156108a95780601f1061087e576101008083540402835291602001916108a9565b820191906000526020600020905b81548152906001019060200180831161088c57829003601f168201915b5050505050908060030160009054906101000a900460ff16905084565b600160003373ffffffffffffffffffffffffffffffffffffffff1673ffffffffffffffffffffffffffffffffffffffff16815260200190815260200160002060009054906101000a900460ff16610952576040517f08c379a000000000000000000000000000000000000000000000000000000000815260040161094990611271565b60405180910390fd5b80600380549050811061099a576040517f08c379a00000000000000000000000000000000000000000000000000000000081526004016109919061164d565b60405180910390fd5b816004600082815260200190815260200160002060003373ffffffffffffffffffffffffffffffffffffffff1673ffffffffffffffffffffffffffffffffffffffff16815260200190815260200160002060009054906101000a900460ff1615610a39576040517f08c379a0000000000000000000000000000000000000000000000000000000008152600401610a30906117c0565b60405180910390fd5b8260038181548110610a4e57610a4d61166d565b5b906000526020600020906004020160030160009054906101000a900460ff1615610aad576040517f08c379a0000000000000000000000000000000000000000000000000000000008152600401610aa4906116e8565b60405180910390fd5b60016004600086815260200190815260200160002060003373ffffffffffffffffffffffffffffffffffffffff1673ffffffffffffffffffffffffffffffffffffffff16815260200190815260200160002060006101000a81548160ff021916908315150217905550833373ffffffffffffffffffffffffffffffffffffffff167f90ec57f18fa7b15c6b8d5e4d1deb90796c74b2ff23d4d0cecad0cb42a96b312860405160405180910390a350505050565b60025481565b806003805490508110610bae576040517f08c379a0000000000000000000000000000000000000000000000000000000008152600401610ba59061164d565b60405180910390fd5b8160038181548110610bc357610bc261166d565b5b906000526020600020906004020160030160009054906101000a900460ff1615610c22576040517f08c379a0000000000000000000000000000000000000000000000000000000008152600401610c19906116e8565b60405180910390fd5b600254610c2e84610dbf565b1015610c6f576040517f08c379a0000000000000000000000000000000000000000000000000000000008152600401610c669061182c565b60405180910390fd5b600060038481548110610c8557610c8461166d565b5b9060005260206000209060040201905060018160030160006101000a81548160ff02191690831515021790555060008160000160009054906101000a900473ffffffffffffffffffffffffffffffffffffffff1673ffffffffffffffffffffffffffffffffffffffff16826001015483600201604051610d0591906118da565b60006040518083038185875af1925050503d8060008114610d42576040519150601f19603f3d011682016040523d82523d6000602084013e610d47565b606091505b5050905080610d8b576040517f08c379a0000000000000000000000000000000000000000000000000000000008152600401610d829061193d565b60405180910390fd5b847fddb556f1d2c1ec821e910b019d3685b229db152a0ecd517ca7e24b8bd713928960405160405180910390a25050505050565b600080600090505b600080549050811015610e9757600460008481526020019081526020016000206000808381548110610dfc57610dfb61166d565b5b9060005260206000200160009054906101000a900473ffffffffffffffffffffffffffffffffffffffff1673ffffffffffffffffffffffffffffffffffffffff1673ffffffffffffffffffffffffffffffffffffffff16815260200190815260200160002060009054906101000a900460ff1615610e8457600182610e81919061195d565b91505b8080610e8f90611991565b915050610dc7565b50919050565b6000819050919050565b610eb081610e9d565b82525050565b6000602082019050610ecb6000830184610ea7565b92915050565b600080fd5b600080fd5b610ee481610e9d565b8114610eef57600080fd5b50565b600081359050610f0181610edb565b92915050565b600060208284031215610f1d57610f1c610ed1565b5b6000610f2b84828501610ef2565b91505092915050565b600073ffffffffffffffffffffffffffffffffffffffff82169050919050565b6000610f5f82610f34565b9050919050565b610f6f81610f54565b82525050565b6000602082019050610f8a6000830184610f66565b92915050565b610f9981610f54565b8114610fa457600080fd5b50565b600081359050610fb681610f90565b92915050565b600080fd5b600080fd5b600080fd5b60008083601f840112610fe157610fe0610fbc565b5b8235905067ffffffffffffffff811115610ffe57610ffd610fc1565b5b60208301915083600182028301111561101a57611019610fc6565b5b9250929050565b6000806000806060858703121561103b5761103a610ed1565b5b600061104987828801610fa7565b945050602061105a87828801610ef2565b935050604085013567ffffffffffffffff81111561107b5761107a610ed6565b5b61108787828801610fcb565b925092505092959194509250565b6000602082840312156110ab576110aa610ed1565b5b60006110b984828501610fa7565b91505092915050565b60008115159050919050565b6110d7816110c2565b82525050565b60006020820190506110f260008301846110ce565b92915050565b6000806040838503121561110f5761110e610ed1565b5b600061111d85828601610ef2565b925050602061112e85828601610fa7565b9150509250929050565b600081519050919050565b600082825260208201905092915050565b60005b83811015611172578082015181840152602081019050611157565b60008484015250505050565b6000601f19601f8301169050919050565b600061119a82611138565b6111a48185611143565b93506111b4818560208601611154565b6111bd8161117e565b840191505092915050565b60006080820190506111dd6000830187610f66565b6111ea6020830186610ea7565b81810360408301526111fc818561118f565b905061120b60608301846110ce565b95945050505050565b600082825260208201905092915050565b7f6e6f74206f776e65720000000000000000000000000000000000000000000000600082015250565b600061125b600983611214565b915061126682611225565b602082019050919050565b6000602082019050818103600083015261128a8161124e565b9050919050565b7f4e487b7100000000000000000000000000000000000000000000000000000000600052604160045260246000fd5b7f4e487b7100000000000000000000000000000000000000000000000000000000600052602260045260246000fd5b6000600282049050600182168061130757607f821691505b60208210810361131a576113196112c0565b5b50919050565b60008190508160005260206000209050919050565b60006020601f8301049050919050565b600082821b905092915050565b6000600883026113827fffffffffffffffffffffffffffffffffffffffffffffffffffffffffffffffff82611345565b61138c8683611345565b95508019841693508086168417925050509392505050565b6000819050919050565b60006113c96113c46113bf84610e9d565b6113a4565b610e9d565b9050919050565b6000819050919050565b6113e3836113ae565b6113f76113ef826113d0565b848454611352565b825550505050565b600090565b61140c6113ff565b6114178184846113da565b505050565b5b8181101561143b57611430600082611404565b60018101905061141d565b5050565b601f8211156114805761145181611320565b61145a84611335565b81016020851015611469578190505b61147d61147585611335565b83018261141c565b50505b505050565b600082821c905092915050565b60006114a360001984600802611485565b1980831691505092915050565b60006114bc8383611492565b9150826002028217905092915050565b6114d582611138565b67ffffffffffffffff8111156114ee576114ed611291565b5b6114f882546112ef565b61150382828561143f565b600060209050601f8311600181146115365760008415611524578287015190505b61152e85826114b0565b865550611596565b601f19841661154486611320565b60005b8281101561156c57848901518255600182019150602085019450602081019050611547565b868310156115895784890151611585601f891682611492565b8355505b6001600288020188555050505b505050505050565b7f4e487b7100000000000000000000000000000000000000000000000000000000600052601160045260246000fd5b60006115d882610e9d565b91506115e383610e9d565b92508282039050818111156115fb576115fa61159e565b5b92915050565b7f747820646f6573206e6f74206578697374000000000000000000000000000000600082015250565b6000611637601183611214565b915061164282611601565b602082019050919050565b600060208201905081810360008301526116668161162a565b9050919050565b7f4e487b7100000000000000000000000000000000000000000000000000000000600052603260045260246000fd5b7f7478206578656375746564000000000000000000000000000000000000000000600082015250565b60006116d2600b83611214565b91506116dd8261169c565b602082019050919050565b60006020820190508181036000830152611701816116c5565b9050919050565b7f7478206e6f7420617070726f7665640000000000000000000000000000000000600082015250565b600061173e600f83611214565b915061174982611708565b602082019050919050565b6000602082019050818103600083015261176d81611731565b9050919050565b7f747820616c726561647920617070726f76656400000000000000000000000000600082015250565b60006117aa601383611214565b91506117b582611774565b602082019050919050565b600060208201905081810360008301526117d98161179d565b9050919050565b7f617070726f76616c73203c207265717569726564000000000000000000000000600082015250565b6000611816601483611214565b9150611821826117e0565b602082019050919050565b6000602082019050818103600083015261184581611809565b9050919050565b600081905092915050565b60008154611864816112ef565b61186e818661184c565b94506001821660008114611889576001811461189e576118d1565b60ff19831686528115158202860193506118d1565b6118a785611320565b60005b838110156118c9578154818901526001820191506020810190506118aa565b838801955050505b50505092915050565b60006118e68284611857565b915081905092915050565b7f7478206661696c65640000000000000000000000000000000000000000000000600082015250565b6000611927600983611214565b9150611932826118f1565b602082019050919050565b600060208201905081810360008301526119568161191a565b9050919050565b600061196882610e9d565b915061197383610e9d565b925082820190508082111561198b5761198a61159e565b5b92915050565b600061199c82610e9d565b91507fffffffffffffffffffffffffffffffffffffffffffffffffffffffffffffffff82036119ce576119cd61159e565b5b60018201905091905056fea26469706673582212206df88d949c4c1456a64b69265d0639de6d0266377d486b41a7818d26f96b49af64736f6c63430008120033",
					"opcodes": "PUSH1 0x80 PUSH1 0x40 MSTORE CALLVALUE DUP1 ISZERO PUSH3 0x11 JUMPI PUSH1 0x0 DUP1 REVERT JUMPDEST POP PUSH1 0x40 MLOAD PUSH3 0x2240 CODESIZE SUB DUP1 PUSH3 0x2240 DUP4 CODECOPY DUP2 DUP2 ADD PUSH1 0x40 MSTORE DUP2 ADD SWAP1 PUSH3 0x37 SWAP2 SWAP1 PUSH3 0x511 JUMP JUMPDEST PUSH1 0x0 DUP3 MLOAD GT PUSH3 0x7E JUMPI PUSH1 0x40 MLOAD PUSH32 0x8C379A000000000000000000000000000000000000000000000000000000000 DUP2 MSTORE PUSH1 0x4 ADD PUSH3 0x75 SWAP1 PUSH3 0x5D8 JUMP JUMPDEST PUSH1 0x40 MLOAD DUP1 SWAP2 SUB SWAP1 REVERT JUMPDEST PUSH1 0x0 DUP2 GT DUP1 ISZERO PUSH3 0x94 JUMPI POP PUSH1 0x0 DUP1 SLOAD SWAP1 POP DUP2 GT ISZERO JUMPDEST PUSH3 0xD6 JUMPI PUSH1 0x40 MLOAD PUSH32 0x8C379A000000000000000000000000000000000000000000000000000000000 DUP2 MSTORE PUSH1 0x4 ADD PUSH3 0xCD SWAP1 PUSH3 0x670 JUMP JUMPDEST PUSH1 0x40 MLOAD DUP1 SWAP2 SUB SWAP1 REVERT JUMPDEST PUSH1 0x0 JUMPDEST DUP3 MLOAD DUP2 LT ISZERO PUSH3 0x2D8 JUMPI PUSH1 0x0 DUP4 DUP3 DUP2 MLOAD DUP2 LT PUSH3 0xFB JUMPI PUSH3 0xFA PUSH3 0x692 JUMP JUMPDEST JUMPDEST PUSH1 0x20 MUL PUSH1 0x20 ADD ADD MLOAD SWAP1 POP PUSH1 0x0 PUSH20 0xFFFFFFFFFFFFFFFFFFFFFFFFFFFFFFFFFFFFFFFF AND DUP2 PUSH20 0xFFFFFFFFFFFFFFFFFFFFFFFFFFFFFFFFFFFFFFFF AND SUB PUSH3 0x177 JUMPI PUSH1 0x40 MLOAD PUSH32 0x8C379A000000000000000000000000000000000000000000000000000000000 DUP2 MSTORE PUSH1 0x4 ADD PUSH3 0x16E SWAP1 PUSH3 0x711 JUMP JUMPDEST PUSH1 0x40 MLOAD DUP1 SWAP2 SUB SWAP1 REVERT JUMPDEST PUSH1 0x1 PUSH1 0x0 DUP3 PUSH20 0xFFFFFFFFFFFFFFFFFFFFFFFFFFFFFFFFFFFFFFFF AND PUSH20 0xFFFFFFFFFFFFFFFFFFFFFFFFFFFFFFFFFFFFFFFF AND DUP2 MSTORE PUSH1 0x20 ADD SWAP1 DUP2 MSTORE PUSH1 0x20 ADD PUSH1 0x0 KECCAK256 PUSH1 0x0 SWAP1 SLOAD SWAP1 PUSH2 0x100 EXP SWAP1 DIV PUSH1 0xFF AND ISZERO PUSH3 0x207 JUMPI PUSH1 0x40 MLOAD PUSH32 0x8C379A000000000000000000000000000000000000000000000000000000000 DUP2 MSTORE PUSH1 0x4 ADD PUSH3 0x1FE SWAP1 PUSH3 0x783 JUMP JUMPDEST PUSH1 0x40 MLOAD DUP1 SWAP2 SUB SWAP1 REVERT JUMPDEST PUSH1 0x1 DUP1 PUSH1 0x0 DUP4 PUSH20 0xFFFFFFFFFFFFFFFFFFFFFFFFFFFFFFFFFFFFFFFF AND PUSH20 0xFFFFFFFFFFFFFFFFFFFFFFFFFFFFFFFFFFFFFFFF AND DUP2 MSTORE PUSH1 0x20 ADD SWAP1 DUP2 MSTORE PUSH1 0x20 ADD PUSH1 0x0 KECCAK256 PUSH1 0x0 PUSH2 0x100 EXP DUP2 SLOAD DUP2 PUSH1 0xFF MUL NOT AND SWAP1 DUP4 ISZERO ISZERO MUL OR SWAP1 SSTORE POP PUSH1 0x0 DUP2 SWAP1 DUP1 PUSH1 0x1 DUP2 SLOAD ADD DUP1 DUP3 SSTORE DUP1 SWAP2 POP POP PUSH1 0x1 SWAP1 SUB SWAP1 PUSH1 0x0 MSTORE PUSH1 0x20 PUSH1 0x0 KECCAK256 ADD PUSH1 0x0 SWAP1 SWAP2 SWAP1 SWAP2 SWAP1 SWAP2 PUSH2 0x100 EXP DUP2 SLOAD DUP2 PUSH20 0xFFFFFFFFFFFFFFFFFFFFFFFFFFFFFFFFFFFFFFFF MUL NOT AND SWAP1 DUP4 PUSH20 0xFFFFFFFFFFFFFFFFFFFFFFFFFFFFFFFFFFFFFFFF AND MUL OR SWAP1 SSTORE POP POP DUP1 DUP1 PUSH3 0x2CF SWAP1 PUSH3 0x7D4 JUMP JUMPDEST SWAP2 POP POP PUSH3 0xD9 JUMP JUMPDEST POP DUP1 PUSH1 0x2 DUP2 SWAP1 SSTORE POP POP POP PUSH3 0x821 JUMP JUMPDEST PUSH1 0x0 PUSH1 0x40 MLOAD SWAP1 POP SWAP1 JUMP JUMPDEST PUSH1 0x0 DUP1 REVERT JUMPDEST PUSH1 0x0 DUP1 REVERT JUMPDEST PUSH1 0x0 DUP1 REVERT JUMPDEST PUSH1 0x0 PUSH1 0x1F NOT PUSH1 0x1F DUP4 ADD AND SWAP1 POP SWAP2 SWAP1 POP JUMP JUMPDEST PUSH32 0x4E487B7100000000000000000000000000000000000000000000000000000000 PUSH1 0x0 MSTORE PUSH1 0x41 PUSH1 0x4 MSTORE PUSH1 0x24 PUSH1 0x0 REVERT JUMPDEST PUSH3 0x34C DUP3 PUSH3 0x301 JUMP JUMPDEST DUP2 ADD DUP2 DUP2 LT PUSH8 0xFFFFFFFFFFFFFFFF DUP3 GT OR ISZERO PUSH3 0x36E JUMPI PUSH3 0x36D PUSH3 0x312 JUMP JUMPDEST JUMPDEST DUP1 PUSH1 0x40 MSTORE POP POP POP JUMP JUMPDEST PUSH1 0x0 PUSH3 0x383 PUSH3 0x2E8 JUMP JUMPDEST SWAP1 POP PUSH3 0x391 DUP3 DUP3 PUSH3 0x341 JUMP JUMPDEST SWAP2 SWAP1 POP JUMP JUMPDEST PUSH1 0x0 PUSH8 0xFFFFFFFFFFFFFFFF DUP3 GT ISZERO PUSH3 0x3B4 JUMPI PUSH3 0x3B3 PUSH3 0x312 JUMP JUMPDEST JUMPDEST PUSH1 0x20 DUP3 MUL SWAP1 POP PUSH1 0x20 DUP2 ADD SWAP1 POP SWAP2 SWAP1 POP JUMP JUMPDEST PUSH1 0x0 DUP1 REVERT JUMPDEST PUSH1 0x0 PUSH20 0xFFFFFFFFFFFFFFFFFFFFFFFFFFFFFFFFFFFFFFFF DUP3 AND SWAP1 POP SWAP2 SWAP1 POP JUMP JUMPDEST PUSH1 0x0 PUSH3 0x3F7 DUP3 PUSH3 0x3CA JUMP JUMPDEST SWAP1 POP SWAP2 SWAP1 POP JUMP JUMPDEST PUSH3 0x409 DUP2 PUSH3 0x3EA JUMP JUMPDEST DUP2 EQ PUSH3 0x415 JUMPI PUSH1 0x0 DUP1 REVERT JUMPDEST POP JUMP JUMPDEST PUSH1 0x0 DUP2 MLOAD SWAP1 POP PUSH3 0x429 DUP2 PUSH3 0x3FE JUMP JUMPDEST SWAP3 SWAP2 POP POP JUMP JUMPDEST PUSH1 0x0 PUSH3 0x446 PUSH3 0x440 DUP5 PUSH3 0x396 JUMP JUMPDEST PUSH3 0x377 JUMP JUMPDEST SWAP1 POP DUP1 DUP4 DUP3 MSTORE PUSH1 0x20 DUP3 ADD SWAP1 POP PUSH1 0x20 DUP5 MUL DUP4 ADD DUP6 DUP2 GT ISZERO PUSH3 0x46C JUMPI PUSH3 0x46B PUSH3 0x3C5 JUMP JUMPDEST JUMPDEST DUP4 JUMPDEST DUP2 DUP2 LT ISZERO PUSH3 0x499 JUMPI DUP1 PUSH3 0x484 DUP9 DUP3 PUSH3 0x418 JUMP JUMPDEST DUP5 MSTORE PUSH1 0x20 DUP5 ADD SWAP4 POP POP PUSH1 0x20 DUP2 ADD SWAP1 POP PUSH3 0x46E JUMP JUMPDEST POP POP POP SWAP4 SWAP3 POP POP POP JUMP JUMPDEST PUSH1 0x0 DUP3 PUSH1 0x1F DUP4 ADD SLT PUSH3 0x4BB JUMPI PUSH3 0x4BA PUSH3 0x2FC JUMP JUMPDEST JUMPDEST DUP2 MLOAD PUSH3 0x4CD DUP5 DUP3 PUSH1 0x20 DUP7 ADD PUSH3 0x42F JUMP JUMPDEST SWAP2 POP POP SWAP3 SWAP2 POP POP JUMP JUMPDEST PUSH1 0x0 DUP2 SWAP1 POP SWAP2 SWAP1 POP JUMP JUMPDEST PUSH3 0x4EB DUP2 PUSH3 0x4D6 JUMP JUMPDEST DUP2 EQ PUSH3 0x4F7 JUMPI PUSH1 0x0 DUP1 REVERT JUMPDEST POP JUMP JUMPDEST PUSH1 0x0 DUP2 MLOAD SWAP1 POP PUSH3 0x50B DUP2 PUSH3 0x4E0 JUMP JUMPDEST SWAP3 SWAP2 POP POP JUMP JUMPDEST PUSH1 0x0 DUP1 PUSH1 0x40 DUP4 DUP6 SUB SLT ISZERO PUSH3 0x52B JUMPI PUSH3 0x52A PUSH3 0x2F2 JUMP JUMPDEST JUMPDEST PUSH1 0x0 DUP4 ADD MLOAD PUSH8 0xFFFFFFFFFFFFFFFF DUP2 GT ISZERO PUSH3 0x54C JUMPI PUSH3 0x54B PUSH3 0x2F7 JUMP JUMPDEST JUMPDEST PUSH3 0x55A DUP6 DUP3 DUP7 ADD PUSH3 0x4A3 JUMP JUMPDEST SWAP3 POP POP PUSH1 0x20 PUSH3 0x56D DUP6 DUP3 DUP7 ADD PUSH3 0x4FA JUMP JUMPDEST SWAP2 POP POP SWAP3 POP SWAP3 SWAP1 POP JUMP JUMPDEST PUSH1 0x0 DUP3 DUP3 MSTORE PUSH1 0x20 DUP3 ADD SWAP1 POP SWAP3 SWAP2 POP POP JUMP JUMPDEST PUSH32 0x6F776E6572732072657175697265640000000000000000000000000000000000 PUSH1 0x0 DUP3 ADD MSTORE POP JUMP JUMPDEST PUSH1 0x0 PUSH3 0x5C0 PUSH1 0xF DUP4 PUSH3 0x577 JUMP JUMPDEST SWAP2 POP PUSH3 0x5CD DUP3 PUSH3 0x588 JUMP JUMPDEST PUSH1 0x20 DUP3 ADD SWAP1 POP SWAP2 SWAP1 POP JUMP JUMPDEST PUSH1 0x0 PUSH1 0x20 DUP3 ADD SWAP1 POP DUP2 DUP2 SUB PUSH1 0x0 DUP4 ADD MSTORE PUSH3 0x5F3 DUP2 PUSH3 0x5B1 JUMP JUMPDEST SWAP1 POP SWAP2 SWAP1 POP JUMP JUMPDEST PUSH32 0x696E76616C6964207265717569726564206E756D626572206F66206F776E6572 PUSH1 0x0 DUP3 ADD MSTORE PUSH32 0x7300000000000000000000000000000000000000000000000000000000000000 PUSH1 0x20 DUP3 ADD MSTORE POP JUMP JUMPDEST PUSH1 0x0 PUSH3 0x658 PUSH1 0x21 DUP4 PUSH3 0x577 JUMP JUMPDEST SWAP2 POP PUSH3 0x665 DUP3 PUSH3 0x5FA JUMP JUMPDEST PUSH1 0x40 DUP3 ADD SWAP1 POP SWAP2 SWAP1 POP JUMP JUMPDEST PUSH1 0x0 PUSH1 0x20 DUP3 ADD SWAP1 POP DUP2 DUP2 SUB PUSH1 0x0 DUP4 ADD MSTORE PUSH3 0x68B DUP2 PUSH3 0x649 JUMP JUMPDEST SWAP1 POP SWAP2 SWAP1 POP JUMP JUMPDEST PUSH32 0x4E487B7100000000000000000000000000000000000000000000000000000000 PUSH1 0x0 MSTORE PUSH1 0x32 PUSH1 0x4 MSTORE PUSH1 0x24 PUSH1 0x0 REVERT JUMPDEST PUSH32 0x696E76616C6964206F776E657200000000000000000000000000000000000000 PUSH1 0x0 DUP3 ADD MSTORE POP JUMP JUMPDEST PUSH1 0x0 PUSH3 0x6F9 PUSH1 0xD DUP4 PUSH3 0x577 JUMP JUMPDEST SWAP2 POP PUSH3 0x706 DUP3 PUSH3 0x6C1 JUMP JUMPDEST PUSH1 0x20 DUP3 ADD SWAP1 POP SWAP2 SWAP1 POP JUMP JUMPDEST PUSH1 0x0 PUSH1 0x20 DUP3 ADD SWAP1 POP DUP2 DUP2 SUB PUSH1 0x0 DUP4 ADD MSTORE PUSH3 0x72C DUP2 PUSH3 0x6EA JUMP JUMPDEST SWAP1 POP SWAP2 SWAP1 POP JUMP JUMPDEST PUSH32 0x6F776E6572206973206E6F742075696E69717565000000000000000000000000 PUSH1 0x0 DUP3 ADD MSTORE POP JUMP JUMPDEST PUSH1 0x0 PUSH3 0x76B PUSH1 0x14 DUP4 PUSH3 0x577 JUMP JUMPDEST SWAP2 POP PUSH3 0x778 DUP3 PUSH3 0x733 JUMP JUMPDEST PUSH1 0x20 DUP3 ADD SWAP1 POP SWAP2 SWAP1 POP JUMP JUMPDEST PUSH1 0x0 PUSH1 0x20 DUP3 ADD SWAP1 POP DUP2 DUP2 SUB PUSH1 0x0 DUP4 ADD MSTORE PUSH3 0x79E DUP2 PUSH3 0x75C JUMP JUMPDEST SWAP1 POP SWAP2 SWAP1 POP JUMP JUMPDEST PUSH32 0x4E487B7100000000000000000000000000000000000000000000000000000000 PUSH1 0x0 MSTORE PUSH1 0x11 PUSH1 0x4 MSTORE PUSH1 0x24 PUSH1 0x0 REVERT JUMPDEST PUSH1 0x0 PUSH3 0x7E1 DUP3 PUSH3 0x4D6 JUMP JUMPDEST SWAP2 POP PUSH32 0xFFFFFFFFFFFFFFFFFFFFFFFFFFFFFFFFFFFFFFFFFFFFFFFFFFFFFFFFFFFFFFFF DUP3 SUB PUSH3 0x816 JUMPI PUSH3 0x815 PUSH3 0x7A5 JUMP JUMPDEST JUMPDEST PUSH1 0x1 DUP3 ADD SWAP1 POP SWAP2 SWAP1 POP JUMP JUMPDEST PUSH2 0x1A0F DUP1 PUSH3 0x831 PUSH1 0x0 CODECOPY PUSH1 0x0 RETURN INVALID PUSH1 0x80 PUSH1 0x40 MSTORE PUSH1 0x4 CALLDATASIZE LT PUSH2 0x8A JUMPI PUSH1 0x0 CALLDATALOAD PUSH1 0xE0 SHR DUP1 PUSH4 0x8253951A GT PUSH2 0x59 JUMPI DUP1 PUSH4 0x8253951A EQ PUSH2 0x1B0 JUMPI DUP1 PUSH4 0x9ACE38C2 EQ PUSH2 0x1ED JUMPI DUP1 PUSH4 0xB759F954 EQ PUSH2 0x22D JUMPI DUP1 PUSH4 0xDC8452CD EQ PUSH2 0x256 JUMPI DUP1 PUSH4 0xFE0D94C1 EQ PUSH2 0x281 JUMPI PUSH2 0xDF JUMP JUMPDEST DUP1 PUSH4 0x25E7C27 EQ PUSH2 0xE4 JUMPI DUP1 PUSH4 0x14DE327F EQ PUSH2 0x121 JUMPI DUP1 PUSH4 0x20C5429B EQ PUSH2 0x14A JUMPI DUP1 PUSH4 0x2F54BF6E EQ PUSH2 0x173 JUMPI PUSH2 0xDF JUMP JUMPDEST CALLDATASIZE PUSH2 0xDF JUMPI CALLER PUSH20 0xFFFFFFFFFFFFFFFFFFFFFFFFFFFFFFFFFFFFFFFF AND PUSH32 0xE1FFFCC4923D04B559F4D29A8BFC6CDA04EB5B0D3C460751C2402C5C5CC9109C CALLVALUE PUSH1 0x40 MLOAD PUSH2 0xD5 SWAP2 SWAP1 PUSH2 0xEB6 JUMP JUMPDEST PUSH1 0x40 MLOAD DUP1 SWAP2 SUB SWAP1 LOG2 STOP JUMPDEST PUSH1 0x0 DUP1 REVERT JUMPDEST CALLVALUE DUP1 ISZERO PUSH2 0xF0 JUMPI PUSH1 0x0 DUP1 REVERT JUMPDEST POP PUSH2 0x10B PUSH1 0x4 DUP1 CALLDATASIZE SUB DUP2 ADD SWAP1 PUSH2 0x106 SWAP2 SWAP1 PUSH2 0xF07 JUMP JUMPDEST PUSH2 0x2AA JUMP JUMPDEST PUSH1 0x40 MLOAD PUSH2 0x118 SWAP2 SWAP1 PUSH2 0xF75 JUMP JUMPDEST PUSH1 0x40 MLOAD DUP1 SWAP2 SUB SWAP1 RETURN JUMPDEST CALLVALUE DUP1 ISZERO PUSH2 0x12D JUMPI PUSH1 0x0 DUP1 REVERT JUMPDEST POP PUSH2 0x148 PUSH1 0x4 DUP1 CALLDATASIZE SUB DUP2 ADD SWAP1 PUSH2 0x143 SWAP2 SWAP1 PUSH2 0x1021 JUMP JUMPDEST PUSH2 0x2E9 JUMP JUMPDEST STOP JUMPDEST CALLVALUE DUP1 ISZERO PUSH2 0x156 JUMPI PUSH1 0x0 DUP1 REVERT JUMPDEST POP PUSH2 0x171 PUSH1 0x4 DUP1 CALLDATASIZE SUB DUP2 ADD SWAP1 PUSH2 0x16C SWAP2 SWAP1 PUSH2 0xF07 JUMP JUMPDEST PUSH2 0x4EB JUMP JUMPDEST STOP JUMPDEST CALLVALUE DUP1 ISZERO PUSH2 0x17F JUMPI PUSH1 0x0 DUP1 REVERT JUMPDEST POP PUSH2 0x19A PUSH1 0x4 DUP1 CALLDATASIZE SUB DUP2 ADD SWAP1 PUSH2 0x195 SWAP2 SWAP1 PUSH2 0x1095 JUMP JUMPDEST PUSH2 0x782 JUMP JUMPDEST PUSH1 0x40 MLOAD PUSH2 0x1A7 SWAP2 SWAP1 PUSH2 0x10DD JUMP JUMPDEST PUSH1 0x40 MLOAD DUP1 SWAP2 SUB SWAP1 RETURN JUMPDEST CALLVALUE DUP1 ISZERO PUSH2 0x1BC JUMPI PUSH1 0x0 DUP1 REVERT JUMPDEST POP PUSH2 0x1D7 PUSH1 0x4 DUP1 CALLDATASIZE SUB DUP2 ADD SWAP1 PUSH2 0x1D2 SWAP2 SWAP1 PUSH2 0x10F8 JUMP JUMPDEST PUSH2 0x7A2 JUMP JUMPDEST PUSH1 0x40 MLOAD PUSH2 0x1E4 SWAP2 SWAP1 PUSH2 0x10DD JUMP JUMPDEST PUSH1 0x40 MLOAD DUP1 SWAP2 SUB SWAP1 RETURN JUMPDEST CALLVALUE DUP1 ISZERO PUSH2 0x1F9 JUMPI PUSH1 0x0 DUP1 REVERT JUMPDEST POP PUSH2 0x214 PUSH1 0x4 DUP1 CALLDATASIZE SUB DUP2 ADD SWAP1 PUSH2 0x20F SWAP2 SWAP1 PUSH2 0xF07 JUMP JUMPDEST PUSH2 0x7D1 JUMP JUMPDEST PUSH1 0x40 MLOAD PUSH2 0x224 SWAP5 SWAP4 SWAP3 SWAP2 SWAP1 PUSH2 0x11C8 JUMP JUMPDEST PUSH1 0x40 MLOAD DUP1 SWAP2 SUB SWAP1 RETURN JUMPDEST CALLVALUE DUP1 ISZERO PUSH2 0x239 JUMPI PUSH1 0x0 DUP1 REVERT JUMPDEST POP PUSH2 0x254 PUSH1 0x4 DUP1 CALLDATASIZE SUB DUP2 ADD SWAP1 PUSH2 0x24F SWAP2 SWAP1 PUSH2 0xF07 JUMP JUMPDEST PUSH2 0x8C6 JUMP JUMPDEST STOP JUMPDEST CALLVALUE DUP1 ISZERO PUSH2 0x262 JUMPI PUSH1 0x0 DUP1 REVERT JUMPDEST POP PUSH2 0x26B PUSH2 0xB60 JUMP JUMPDEST PUSH1 0x40 MLOAD PUSH2 0x278 SWAP2 SWAP1 PUSH2 0xEB6 JUMP JUMPDEST PUSH1 0x40 MLOAD DUP1 SWAP2 SUB SWAP1 RETURN JUMPDEST CALLVALUE DUP1 ISZERO PUSH2 0x28D JUMPI PUSH1 0x0 DUP1 REVERT JUMPDEST POP PUSH2 0x2A8 PUSH1 0x4 DUP1 CALLDATASIZE SUB DUP2 ADD SWAP1 PUSH2 0x2A3 SWAP2 SWAP1 PUSH2 0xF07 JUMP JUMPDEST PUSH2 0xB66 JUMP JUMPDEST STOP JUMPDEST PUSH1 0x0 DUP2 DUP2 SLOAD DUP2 LT PUSH2 0x2BA JUMPI PUSH1 0x0 DUP1 REVERT JUMPDEST SWAP1 PUSH1 0x0 MSTORE PUSH1 0x20 PUSH1 0x0 KECCAK256 ADD PUSH1 0x0 SWAP2 POP SLOAD SWAP1 PUSH2 0x100 EXP SWAP1 DIV PUSH20 0xFFFFFFFFFFFFFFFFFFFFFFFFFFFFFFFFFFFFFFFF AND DUP2 JUMP JUMPDEST PUSH1 0x1 PUSH1 0x0 CALLER PUSH20 0xFFFFFFFFFFFFFFFFFFFFFFFFFFFFFFFFFFFFFFFF AND PUSH20 0xFFFFFFFFFFFFFFFFFFFFFFFFFFFFFFFFFFFFFFFF AND DUP2 MSTORE PUSH1 0x20 ADD SWAP1 DUP2 MSTORE PUSH1 0x20 ADD PUSH1 0x0 KECCAK256 PUSH1 0x0 SWAP1 SLOAD SWAP1 PUSH2 0x100 EXP SWAP1 DIV PUSH1 0xFF AND PUSH2 0x375 JUMPI PUSH1 0x40 MLOAD PUSH32 0x8C379A000000000000000000000000000000000000000000000000000000000 DUP2 MSTORE PUSH1 0x4 ADD PUSH2 0x36C SWAP1 PUSH2 0x1271 JUMP JUMPDEST PUSH1 0x40 MLOAD DUP1 SWAP2 SUB SWAP1 REVERT JUMPDEST PUSH1 0x3 PUSH1 0x40 MLOAD DUP1 PUSH1 0x80 ADD PUSH1 0x40 MSTORE DUP1 DUP7 PUSH20 0xFFFFFFFFFFFFFFFFFFFFFFFFFFFFFFFFFFFFFFFF AND DUP2 MSTORE PUSH1 0x20 ADD DUP6 DUP2 MSTORE PUSH1 0x20 ADD DUP5 DUP5 DUP1 DUP1 PUSH1 0x1F ADD PUSH1 0x20 DUP1 SWAP2 DIV MUL PUSH1 0x20 ADD PUSH1 0x40 MLOAD SWAP1 DUP2 ADD PUSH1 0x40 MSTORE DUP1 SWAP4 SWAP3 SWAP2 SWAP1 DUP2 DUP2 MSTORE PUSH1 0x20 ADD DUP4 DUP4 DUP1 DUP3 DUP5 CALLDATACOPY PUSH1 0x0 DUP2 DUP5 ADD MSTORE PUSH1 0x1F NOT PUSH1 0x1F DUP3 ADD AND SWAP1 POP DUP1 DUP4 ADD SWAP3 POP POP POP POP POP POP POP DUP2 MSTORE PUSH1 0x20 ADD PUSH1 0x0 ISZERO ISZERO DUP2 MSTORE POP SWAP1 DUP1 PUSH1 0x1 DUP2 SLOAD ADD DUP1 DUP3 SSTORE DUP1 SWAP2 POP POP PUSH1 0x1 SWAP1 SUB SWAP1 PUSH1 0x0 MSTORE PUSH1 0x20 PUSH1 0x0 KECCAK256 SWAP1 PUSH1 0x4 MUL ADD PUSH1 0x0 SWAP1 SWAP2 SWAP1 SWAP2 SWAP1 SWAP2 POP PUSH1 0x0 DUP3 ADD MLOAD DUP2 PUSH1 0x0 ADD PUSH1 0x0 PUSH2 0x100 EXP DUP2 SLOAD DUP2 PUSH20 0xFFFFFFFFFFFFFFFFFFFFFFFFFFFFFFFFFFFFFFFF MUL NOT AND SWAP1 DUP4 PUSH20 0xFFFFFFFFFFFFFFFFFFFFFFFFFFFFFFFFFFFFFFFF AND MUL OR SWAP1 SSTORE POP PUSH1 0x20 DUP3 ADD MLOAD DUP2 PUSH1 0x1 ADD SSTORE PUSH1 0x40 DUP3 ADD MLOAD DUP2 PUSH1 0x2 ADD SWAP1 DUP2 PUSH2 0x484 SWAP2 SWAP1 PUSH2 0x14CC JUMP JUMPDEST POP PUSH1 0x60 DUP3 ADD MLOAD DUP2 PUSH1 0x3 ADD PUSH1 0x0 PUSH2 0x100 EXP DUP2 SLOAD DUP2 PUSH1 0xFF MUL NOT AND SWAP1 DUP4 ISZERO ISZERO MUL OR SWAP1 SSTORE POP POP POP PUSH1 0x1 PUSH1 0x3 DUP1 SLOAD SWAP1 POP PUSH2 0x4B9 SWAP2 SWAP1 PUSH2 0x15CD JUMP JUMPDEST PUSH32 0x8324B3D745B914E3ABD4FFBFEAD91E3B78391A98C173202129215AB933ADFBE PUSH1 0x40 MLOAD PUSH1 0x40 MLOAD DUP1 SWAP2 SUB SWAP1 LOG2 POP POP POP POP JUMP JUMPDEST PUSH1 0x1 PUSH1 0x0 CALLER PUSH20 0xFFFFFFFFFFFFFFFFFFFFFFFFFFFFFFFFFFFFFFFF AND PUSH20 0xFFFFFFFFFFFFFFFFFFFFFFFFFFFFFFFFFFFFFFFF AND DUP2 MSTORE PUSH1 0x20 ADD SWAP1 DUP2 MSTORE PUSH1 0x20 ADD PUSH1 0x0 KECCAK256 PUSH1 0x0 SWAP1 SLOAD SWAP1 PUSH2 0x100 EXP SWAP1 DIV PUSH1 0xFF AND PUSH2 0x577 JUMPI PUSH1 0x40 MLOAD PUSH32 0x8C379A000000000000000000000000000000000000000000000000000000000 DUP2 MSTORE PUSH1 0x4 ADD PUSH2 0x56E SWAP1 PUSH2 0x1271 JUMP JUMPDEST PUSH1 0x40 MLOAD DUP1 SWAP2 SUB SWAP1 REVERT JUMPDEST DUP1 PUSH1 0x3 DUP1 SLOAD SWAP1 POP DUP2 LT PUSH2 0x5BF JUMPI PUSH1 0x40 MLOAD PUSH32 0x8C379A000000000000000000000000000000000000000000000000000000000 DUP2 MSTORE PUSH1 0x4 ADD PUSH2 0x5B6 SWAP1 PUSH2 0x164D JUMP JUMPDEST PUSH1 0x40 MLOAD DUP1 SWAP2 SUB SWAP1 REVERT JUMPDEST DUP2 PUSH1 0x3 DUP2 DUP2 SLOAD DUP2 LT PUSH2 0x5D4 JUMPI PUSH2 0x5D3 PUSH2 0x166D JUMP JUMPDEST JUMPDEST SWAP1 PUSH1 0x0 MSTORE PUSH1 0x20 PUSH1 0x0 KECCAK256 SWAP1 PUSH1 0x4 MUL ADD PUSH1 0x3 ADD PUSH1 0x0 SWAP1 SLOAD SWAP1 PUSH2 0x100 EXP SWAP1 DIV PUSH1 0xFF AND ISZERO PUSH2 0x633 JUMPI PUSH1 0x40 MLOAD PUSH32 0x8C379A000000000000000000000000000000000000000000000000000000000 DUP2 MSTORE PUSH1 0x4 ADD PUSH2 0x62A SWAP1 PUSH2 0x16E8 JUMP JUMPDEST PUSH1 0x40 MLOAD DUP1 SWAP2 SUB SWAP1 REVERT JUMPDEST PUSH1 0x4 PUSH1 0x0 DUP5 DUP2 MSTORE PUSH1 0x20 ADD SWAP1 DUP2 MSTORE PUSH1 0x20 ADD PUSH1 0x0 KECCAK256 PUSH1 0x0 CALLER PUSH20 0xFFFFFFFFFFFFFFFFFFFFFFFFFFFFFFFFFFFFFFFF AND PUSH20 0xFFFFFFFFFFFFFFFFFFFFFFFFFFFFFFFFFFFFFFFF AND DUP2 MSTORE PUSH1 0x20 ADD SWAP1 DUP2 MSTORE PUSH1 0x20 ADD PUSH1 0x0 KECCAK256 PUSH1 0x0 SWAP1 SLOAD SWAP1 PUSH2 0x100 EXP SWAP1 DIV PUSH1 0xFF AND PUSH2 0x6D0 JUMPI PUSH1 0x40 MLOAD PUSH32 0x8C379A000000000000000000000000000000000000000000000000000000000 DUP2 MSTORE PUSH1 0x4 ADD PUSH2 0x6C7 SWAP1 PUSH2 0x1754 JUMP JUMPDEST PUSH1 0x40 MLOAD DUP1 SWAP2 SUB SWAP1 REVERT JUMPDEST PUSH1 0x0 PUSH1 0x4 PUSH1 0x0 DUP6 DUP2 MSTORE PUSH1 0x20 ADD SWAP1 DUP2 MSTORE PUSH1 0x20 ADD PUSH1 0x0 KECCAK256 PUSH1 0x0 CALLER PUSH20 0xFFFFFFFFFFFFFFFFFFFFFFFFFFFFFFFFFFFFFFFF AND PUSH20 0xFFFFFFFFFFFFFFFFFFFFFFFFFFFFFFFFFFFFFFFF AND DUP2 MSTORE PUSH1 0x20 ADD SWAP1 DUP2 MSTORE PUSH1 0x20 ADD PUSH1 0x0 KECCAK256 PUSH1 0x0 PUSH2 0x100 EXP DUP2 SLOAD DUP2 PUSH1 0xFF MUL NOT AND SWAP1 DUP4 ISZERO ISZERO MUL OR SWAP1 SSTORE POP DUP3 CALLER PUSH20 0xFFFFFFFFFFFFFFFFFFFFFFFFFFFFFFFFFFFFFFFF AND PUSH32 0xEC9AB91322523C899EDE7830EC9BFC992B5981CDCC27B91162FB23DE5791117B PUSH1 0x40 MLOAD PUSH1 0x40 MLOAD DUP1 SWAP2 SUB SWAP1 LOG3 POP POP POP JUMP JUMPDEST PUSH1 0x1 PUSH1 0x20 MSTORE DUP1 PUSH1 0x0 MSTORE PUSH1 0x40 PUSH1 0x0 KECCAK256 PUSH1 0x0 SWAP2 POP SLOAD SWAP1 PUSH2 0x100 EXP SWAP1 DIV PUSH1 0xFF AND DUP2 JUMP JUMPDEST PUSH1 0x4 PUSH1 0x20 MSTORE DUP2 PUSH1 0x0 MSTORE PUSH1 0x40 PUSH1 0x0 KECCAK256 PUSH1 0x20 MSTORE DUP1 PUSH1 0x0 MSTORE PUSH1 0x40 PUSH1 0x0 KECCAK256 PUSH1 0x0 SWAP2 POP SWAP2 POP SWAP1 SLOAD SWAP1 PUSH2 0x100 EXP SWAP1 DIV PUSH1 0xFF AND DUP2 JUMP JUMPDEST PUSH1 0x3 DUP2 DUP2 SLOAD DUP2 LT PUSH2 0x7E1 JUMPI PUSH1 0x0 DUP1 REVERT JUMPDEST SWAP1 PUSH1 0x0 MSTORE PUSH1 0x20 PUSH1 0x0 KECCAK256 SWAP1 PUSH1 0x4 MUL ADD PUSH1 0x0 SWAP2 POP SWAP1 POP DUP1 PUSH1 0x0 ADD PUSH1 0x0 SWAP1 SLOAD SWAP1 PUSH2 0x100 EXP SWAP1 DIV PUSH20 0xFFFFFFFFFFFFFFFFFFFFFFFFFFFFFFFFFFFFFFFF AND SWAP1 DUP1 PUSH1 0x1 ADD SLOAD SWAP1 DUP1 PUSH1 0x2 ADD DUP1 SLOAD PUSH2 0x830 SWAP1 PUSH2 0x12EF JUMP JUMPDEST DUP1 PUSH1 0x1F ADD PUSH1 0x20 DUP1 SWAP2 DIV MUL PUSH1 0x20 ADD PUSH1 0x40 MLOAD SWAP1 DUP2 ADD PUSH1 0x40 MSTORE DUP1 SWAP3 SWAP2 SWAP1 DUP2 DUP2 MSTORE PUSH1 0x20 ADD DUP3 DUP1 SLOAD PUSH2 0x85C SWAP1 PUSH2 0x12EF JUMP JUMPDEST DUP1 ISZERO PUSH2 0x8A9 JUMPI DUP1 PUSH1 0x1F LT PUSH2 0x87E JUMPI PUSH2 0x100 DUP1 DUP4 SLOAD DIV MUL DUP4 MSTORE SWAP2 PUSH1 0x20 ADD SWAP2 PUSH2 0x8A9 JUMP JUMPDEST DUP3 ADD SWAP2 SWAP1 PUSH1 0x0 MSTORE PUSH1 0x20 PUSH1 0x0 KECCAK256 SWAP1 JUMPDEST DUP2 SLOAD DUP2 MSTORE SWAP1 PUSH1 0x1 ADD SWAP1 PUSH1 0x20 ADD DUP1 DUP4 GT PUSH2 0x88C JUMPI DUP3 SWAP1 SUB PUSH1 0x1F AND DUP3 ADD SWAP2 JUMPDEST POP POP POP POP POP SWAP1 DUP1 PUSH1 0x3 ADD PUSH1 0x0 SWAP1 SLOAD SWAP1 PUSH2 0x100 EXP SWAP1 DIV PUSH1 0xFF AND SWAP1 POP DUP5 JUMP JUMPDEST PUSH1 0x1 PUSH1 0x0 CALLER PUSH20 0xFFFFFFFFFFFFFFFFFFFFFFFFFFFFFFFFFFFFFFFF AND PUSH20 0xFFFFFFFFFFFFFFFFFFFFFFFFFFFFFFFFFFFFFFFF AND DUP2 MSTORE PUSH1 0x20 ADD SWAP1 DUP2 MSTORE PUSH1 0x20 ADD PUSH1 0x0 KECCAK256 PUSH1 0x0 SWAP1 SLOAD SWAP1 PUSH2 0x100 EXP SWAP1 DIV PUSH1 0xFF AND PUSH2 0x952 JUMPI PUSH1 0x40 MLOAD PUSH32 0x8C379A000000000000000000000000000000000000000000000000000000000 DUP2 MSTORE PUSH1 0x4 ADD PUSH2 0x949 SWAP1 PUSH2 0x1271 JUMP JUMPDEST PUSH1 0x40 MLOAD DUP1 SWAP2 SUB SWAP1 REVERT JUMPDEST DUP1 PUSH1 0x3 DUP1 SLOAD SWAP1 POP DUP2 LT PUSH2 0x99A JUMPI PUSH1 0x40 MLOAD PUSH32 0x8C379A000000000000000000000000000000000000000000000000000000000 DUP2 MSTORE PUSH1 0x4 ADD PUSH2 0x991 SWAP1 PUSH2 0x164D JUMP JUMPDEST PUSH1 0x40 MLOAD DUP1 SWAP2 SUB SWAP1 REVERT JUMPDEST DUP2 PUSH1 0x4 PUSH1 0x0 DUP3 DUP2 MSTORE PUSH1 0x20 ADD SWAP1 DUP2 MSTORE PUSH1 0x20 ADD PUSH1 0x0 KECCAK256 PUSH1 0x0 CALLER PUSH20 0xFFFFFFFFFFFFFFFFFFFFFFFFFFFFFFFFFFFFFFFF AND PUSH20 0xFFFFFFFFFFFFFFFFFFFFFFFFFFFFFFFFFFFFFFFF AND DUP2 MSTORE PUSH1 0x20 ADD SWAP1 DUP2 MSTORE PUSH1 0x20 ADD PUSH1 0x0 KECCAK256 PUSH1 0x0 SWAP1 SLOAD SWAP1 PUSH2 0x100 EXP SWAP1 DIV PUSH1 0xFF AND ISZERO PUSH2 0xA39 JUMPI PUSH1 0x40 MLOAD PUSH32 0x8C379A000000000000000000000000000000000000000000000000000000000 DUP2 MSTORE PUSH1 0x4 ADD PUSH2 0xA30 SWAP1 PUSH2 0x17C0 JUMP JUMPDEST PUSH1 0x40 MLOAD DUP1 SWAP2 SUB SWAP1 REVERT JUMPDEST DUP3 PUSH1 0x3 DUP2 DUP2 SLOAD DUP2 LT PUSH2 0xA4E JUMPI PUSH2 0xA4D PUSH2 0x166D JUMP JUMPDEST JUMPDEST SWAP1 PUSH1 0x0 MSTORE PUSH1 0x20 PUSH1 0x0 KECCAK256 SWAP1 PUSH1 0x4 MUL ADD PUSH1 0x3 ADD PUSH1 0x0 SWAP1 SLOAD SWAP1 PUSH2 0x100 EXP SWAP1 DIV PUSH1 0xFF AND ISZERO PUSH2 0xAAD JUMPI PUSH1 0x40 MLOAD PUSH32 0x8C379A000000000000000000000000000000000000000000000000000000000 DUP2 MSTORE PUSH1 0x4 ADD PUSH2 0xAA4 SWAP1 PUSH2 0x16E8 JUMP JUMPDEST PUSH1 0x40 MLOAD DUP1 SWAP2 SUB SWAP1 REVERT JUMPDEST PUSH1 0x1 PUSH1 0x4 PUSH1 0x0 DUP7 DUP2 MSTORE PUSH1 0x20 ADD SWAP1 DUP2 MSTORE PUSH1 0x20 ADD PUSH1 0x0 KECCAK256 PUSH1 0x0 CALLER PUSH20 0xFFFFFFFFFFFFFFFFFFFFFFFFFFFFFFFFFFFFFFFF AND PUSH20 0xFFFFFFFFFFFFFFFFFFFFFFFFFFFFFFFFFFFFFFFF AND DUP2 MSTORE PUSH1 0x20 ADD SWAP1 DUP2 MSTORE PUSH1 0x20 ADD PUSH1 0x0 KECCAK256 PUSH1 0x0 PUSH2 0x100 EXP DUP2 SLOAD DUP2 PUSH1 0xFF MUL NOT AND SWAP1 DUP4 ISZERO ISZERO MUL OR SWAP1 SSTORE POP DUP4 CALLER PUSH20 0xFFFFFFFFFFFFFFFFFFFFFFFFFFFFFFFFFFFFFFFF AND PUSH32 0x90EC57F18FA7B15C6B8D5E4D1DEB90796C74B2FF23D4D0CECAD0CB42A96B3128 PUSH1 0x40 MLOAD PUSH1 0x40 MLOAD DUP1 SWAP2 SUB SWAP1 LOG3 POP POP POP POP JUMP JUMPDEST PUSH1 0x2 SLOAD DUP2 JUMP JUMPDEST DUP1 PUSH1 0x3 DUP1 SLOAD SWAP1 POP DUP2 LT PUSH2 0xBAE JUMPI PUSH1 0x40 MLOAD PUSH32 0x8C379A000000000000000000000000000000000000000000000000000000000 DUP2 MSTORE PUSH1 0x4 ADD PUSH2 0xBA5 SWAP1 PUSH2 0x164D JUMP JUMPDEST PUSH1 0x40 MLOAD DUP1 SWAP2 SUB SWAP1 REVERT JUMPDEST DUP2 PUSH1 0x3 DUP2 DUP2 SLOAD DUP2 LT PUSH2 0xBC3 JUMPI PUSH2 0xBC2 PUSH2 0x166D JUMP JUMPDEST JUMPDEST SWAP1 PUSH1 0x0 MSTORE PUSH1 0x20 PUSH1 0x0 KECCAK256 SWAP1 PUSH1 0x4 MUL ADD PUSH1 0x3 ADD PUSH1 0x0 SWAP1 SLOAD SWAP1 PUSH2 0x100 EXP SWAP1 DIV PUSH1 0xFF AND ISZERO PUSH2 0xC22 JUMPI PUSH1 0x40 MLOAD PUSH32 0x8C379A000000000000000000000000000000000000000000000000000000000 DUP2 MSTORE PUSH1 0x4 ADD PUSH2 0xC19 SWAP1 PUSH2 0x16E8 JUMP JUMPDEST PUSH1 0x40 MLOAD DUP1 SWAP2 SUB SWAP1 REVERT JUMPDEST PUSH1 0x2 SLOAD PUSH2 0xC2E DUP5 PUSH2 0xDBF JUMP JUMPDEST LT ISZERO PUSH2 0xC6F JUMPI PUSH1 0x40 MLOAD PUSH32 0x8C379A000000000000000000000000000000000000000000000000000000000 DUP2 MSTORE PUSH1 0x4 ADD PUSH2 0xC66 SWAP1 PUSH2 0x182C JUMP JUMPDEST PUSH1 0x40 MLOAD DUP1 SWAP2 SUB SWAP1 REVERT JUMPDEST PUSH1 0x0 PUSH1 0x3 DUP5 DUP2 SLOAD DUP2 LT PUSH2 0xC85 JUMPI PUSH2 0xC84 PUSH2 0x166D JUMP JUMPDEST JUMPDEST SWAP1 PUSH1 0x0 MSTORE PUSH1 0x20 PUSH1 0x0 KECCAK256 SWAP1 PUSH1 0x4 MUL ADD SWAP1 POP PUSH1 0x1 DUP2 PUSH1 0x3 ADD PUSH1 0x0 PUSH2 0x100 EXP DUP2 SLOAD DUP2 PUSH1 0xFF MUL NOT AND SWAP1 DUP4 ISZERO ISZERO MUL OR SWAP1 SSTORE POP PUSH1 0x0 DUP2 PUSH1 0x0 ADD PUSH1 0x0 SWAP1 SLOAD SWAP1 PUSH2 0x100 EXP SWAP1 DIV PUSH20 0xFFFFFFFFFFFFFFFFFFFFFFFFFFFFFFFFFFFFFFFF AND PUSH20 0xFFFFFFFFFFFFFFFFFFFFFFFFFFFFFFFFFFFFFFFF AND DUP3 PUSH1 0x1 ADD SLOAD DUP4 PUSH1 0x2 ADD PUSH1 0x40 MLOAD PUSH2 0xD05 SWAP2 SWAP1 PUSH2 0x18DA JUMP JUMPDEST PUSH1 0x0 PUSH1 0x40 MLOAD DUP1 DUP4 SUB DUP2 DUP6 DUP8 GAS CALL SWAP3 POP POP POP RETURNDATASIZE DUP1 PUSH1 0x0 DUP2 EQ PUSH2 0xD42 JUMPI PUSH1 0x40 MLOAD SWAP2 POP PUSH1 0x1F NOT PUSH1 0x3F RETURNDATASIZE ADD AND DUP3 ADD PUSH1 0x40 MSTORE RETURNDATASIZE DUP3 MSTORE RETURNDATASIZE PUSH1 0x0 PUSH1 0x20 DUP5 ADD RETURNDATACOPY PUSH2 0xD47 JUMP JUMPDEST PUSH1 0x60 SWAP2 POP JUMPDEST POP POP SWAP1 POP DUP1 PUSH2 0xD8B JUMPI PUSH1 0x40 MLOAD PUSH32 0x8C379A000000000000000000000000000000000000000000000000000000000 DUP2 MSTORE PUSH1 0x4 ADD PUSH2 0xD82 SWAP1 PUSH2 0x193D JUMP JUMPDEST PUSH1 0x40 MLOAD DUP1 SWAP2 SUB SWAP1 REVERT JUMPDEST DUP5 PUSH32 0xDDB556F1D2C1EC821E910B019D3685B229DB152A0ECD517CA7E24B8BD7139289 PUSH1 0x40 MLOAD PUSH1 0x40 MLOAD DUP1 SWAP2 SUB SWAP1 LOG2 POP POP POP POP POP JUMP JUMPDEST PUSH1 0x0 DUP1 PUSH1 0x0 SWAP1 POP JUMPDEST PUSH1 0x0 DUP1 SLOAD SWAP1 POP DUP2 LT ISZERO PUSH2 0xE97 JUMPI PUSH1 0x4 PUSH1 0x0 DUP5 DUP2 MSTORE PUSH1 0x20 ADD SWAP1 DUP2 MSTORE PUSH1 0x20 ADD PUSH1 0x0 KECCAK256 PUSH1 0x0 DUP1 DUP4 DUP2 SLOAD DUP2 LT PUSH2 0xDFC JUMPI PUSH2 0xDFB PUSH2 0x166D JUMP JUMPDEST JUMPDEST SWAP1 PUSH1 0x0 MSTORE PUSH1 0x20 PUSH1 0x0 KECCAK256 ADD PUSH1 0x0 SWAP1 SLOAD SWAP1 PUSH2 0x100 EXP SWAP1 DIV PUSH20 0xFFFFFFFFFFFFFFFFFFFFFFFFFFFFFFFFFFFFFFFF AND PUSH20 0xFFFFFFFFFFFFFFFFFFFFFFFFFFFFFFFFFFFFFFFF AND PUSH20 0xFFFFFFFFFFFFFFFFFFFFFFFFFFFFFFFFFFFFFFFF AND DUP2 MSTORE PUSH1 0x20 ADD SWAP1 DUP2 MSTORE PUSH1 0x20 ADD PUSH1 0x0 KECCAK256 PUSH1 0x0 SWAP1 SLOAD SWAP1 PUSH2 0x100 EXP SWAP1 DIV PUSH1 0xFF AND ISZERO PUSH2 0xE84 JUMPI PUSH1 0x1 DUP3 PUSH2 0xE81 SWAP2 SWAP1 PUSH2 0x195D JUMP JUMPDEST SWAP2 POP JUMPDEST DUP1 DUP1 PUSH2 0xE8F SWAP1 PUSH2 0x1991 JUMP JUMPDEST SWAP2 POP POP PUSH2 0xDC7 JUMP JUMPDEST POP SWAP2 SWAP1 POP JUMP JUMPDEST PUSH1 0x0 DUP2 SWAP1 POP SWAP2 SWAP1 POP JUMP JUMPDEST PUSH2 0xEB0 DUP2 PUSH2 0xE9D JUMP JUMPDEST DUP3 MSTORE POP POP JUMP JUMPDEST PUSH1 0x0 PUSH1 0x20 DUP3 ADD SWAP1 POP PUSH2 0xECB PUSH1 0x0 DUP4 ADD DUP5 PUSH2 0xEA7 JUMP JUMPDEST SWAP3 SWAP2 POP POP JUMP JUMPDEST PUSH1 0x0 DUP1 REVERT JUMPDEST PUSH1 0x0 DUP1 REVERT JUMPDEST PUSH2 0xEE4 DUP2 PUSH2 0xE9D JUMP JUMPDEST DUP2 EQ PUSH2 0xEEF JUMPI PUSH1 0x0 DUP1 REVERT JUMPDEST POP JUMP JUMPDEST PUSH1 0x0 DUP2 CALLDATALOAD SWAP1 POP PUSH2 0xF01 DUP2 PUSH2 0xEDB JUMP JUMPDEST SWAP3 SWAP2 POP POP JUMP JUMPDEST PUSH1 0x0 PUSH1 0x20 DUP3 DUP5 SUB SLT ISZERO PUSH2 0xF1D JUMPI PUSH2 0xF1C PUSH2 0xED1 JUMP JUMPDEST JUMPDEST PUSH1 0x0 PUSH2 0xF2B DUP5 DUP3 DUP6 ADD PUSH2 0xEF2 JUMP JUMPDEST SWAP2 POP POP SWAP3 SWAP2 POP POP JUMP JUMPDEST PUSH1 0x0 PUSH20 0xFFFFFFFFFFFFFFFFFFFFFFFFFFFFFFFFFFFFFFFF DUP3 AND SWAP1 POP SWAP2 SWAP1 POP JUMP JUMPDEST PUSH1 0x0 PUSH2 0xF5F DUP3 PUSH2 0xF34 JUMP JUMPDEST SWAP1 POP SWAP2 SWAP1 POP JUMP JUMPDEST PUSH2 0xF6F DUP2 PUSH2 0xF54 JUMP JUMPDEST DUP3 MSTORE POP POP JUMP JUMPDEST PUSH1 0x0 PUSH1 0x20 DUP3 ADD SWAP1 POP PUSH2 0xF8A PUSH1 0x0 DUP4 ADD DUP5 PUSH2 0xF66 JUMP JUMPDEST SWAP3 SWAP2 POP POP JUMP JUMPDEST PUSH2 0xF99 DUP2 PUSH2 0xF54 JUMP JUMPDEST DUP2 EQ PUSH2 0xFA4 JUMPI PUSH1 0x0 DUP1 REVERT JUMPDEST POP JUMP JUMPDEST PUSH1 0x0 DUP2 CALLDATALOAD SWAP1 POP PUSH2 0xFB6 DUP2 PUSH2 0xF90 JUMP JUMPDEST SWAP3 SWAP2 POP POP JUMP JUMPDEST PUSH1 0x0 DUP1 REVERT JUMPDEST PUSH1 0x0 DUP1 REVERT JUMPDEST PUSH1 0x0 DUP1 REVERT JUMPDEST PUSH1 0x0 DUP1 DUP4 PUSH1 0x1F DUP5 ADD SLT PUSH2 0xFE1 JUMPI PUSH2 0xFE0 PUSH2 0xFBC JUMP JUMPDEST JUMPDEST DUP3 CALLDATALOAD SWAP1 POP PUSH8 0xFFFFFFFFFFFFFFFF DUP2 GT ISZERO PUSH2 0xFFE JUMPI PUSH2 0xFFD PUSH2 0xFC1 JUMP JUMPDEST JUMPDEST PUSH1 0x20 DUP4 ADD SWAP2 POP DUP4 PUSH1 0x1 DUP3 MUL DUP4 ADD GT ISZERO PUSH2 0x101A JUMPI PUSH2 0x1019 PUSH2 0xFC6 JUMP JUMPDEST JUMPDEST SWAP3 POP SWAP3 SWAP1 POP JUMP JUMPDEST PUSH1 0x0 DUP1 PUSH1 0x0 DUP1 PUSH1 0x60 DUP6 DUP8 SUB SLT ISZERO PUSH2 0x103B JUMPI PUSH2 0x103A PUSH2 0xED1 JUMP JUMPDEST JUMPDEST PUSH1 0x0 PUSH2 0x1049 DUP8 DUP3 DUP9 ADD PUSH2 0xFA7 JUMP JUMPDEST SWAP5 POP POP PUSH1 0x20 PUSH2 0x105A DUP8 DUP3 DUP9 ADD PUSH2 0xEF2 JUMP JUMPDEST SWAP4 POP POP PUSH1 0x40 DUP6 ADD CALLDATALOAD PUSH8 0xFFFFFFFFFFFFFFFF DUP2 GT ISZERO PUSH2 0x107B JUMPI PUSH2 0x107A PUSH2 0xED6 JUMP JUMPDEST JUMPDEST PUSH2 0x1087 DUP8 DUP3 DUP9 ADD PUSH2 0xFCB JUMP JUMPDEST SWAP3 POP SWAP3 POP POP SWAP3 SWAP6 SWAP2 SWAP5 POP SWAP3 POP JUMP JUMPDEST PUSH1 0x0 PUSH1 0x20 DUP3 DUP5 SUB SLT ISZERO PUSH2 0x10AB JUMPI PUSH2 0x10AA PUSH2 0xED1 JUMP JUMPDEST JUMPDEST PUSH1 0x0 PUSH2 0x10B9 DUP5 DUP3 DUP6 ADD PUSH2 0xFA7 JUMP JUMPDEST SWAP2 POP POP SWAP3 SWAP2 POP POP JUMP JUMPDEST PUSH1 0x0 DUP2 ISZERO ISZERO SWAP1 POP SWAP2 SWAP1 POP JUMP JUMPDEST PUSH2 0x10D7 DUP2 PUSH2 0x10C2 JUMP JUMPDEST DUP3 MSTORE POP POP JUMP JUMPDEST PUSH1 0x0 PUSH1 0x20 DUP3 ADD SWAP1 POP PUSH2 0x10F2 PUSH1 0x0 DUP4 ADD DUP5 PUSH2 0x10CE JUMP JUMPDEST SWAP3 SWAP2 POP POP JUMP JUMPDEST PUSH1 0x0 DUP1 PUSH1 0x40 DUP4 DUP6 SUB SLT ISZERO PUSH2 0x110F JUMPI PUSH2 0x110E PUSH2 0xED1 JUMP JUMPDEST JUMPDEST PUSH1 0x0 PUSH2 0x111D DUP6 DUP3 DUP7 ADD PUSH2 0xEF2 JUMP JUMPDEST SWAP3 POP POP PUSH1 0x20 PUSH2 0x112E DUP6 DUP3 DUP7 ADD PUSH2 0xFA7 JUMP JUMPDEST SWAP2 POP POP SWAP3 POP SWAP3 SWAP1 POP JUMP JUMPDEST PUSH1 0x0 DUP2 MLOAD SWAP1 POP SWAP2 SWAP1 POP JUMP JUMPDEST PUSH1 0x0 DUP3 DUP3 MSTORE PUSH1 0x20 DUP3 ADD SWAP1 POP SWAP3 SWAP2 POP POP JUMP JUMPDEST PUSH1 0x0 JUMPDEST DUP4 DUP2 LT ISZERO PUSH2 0x1172 JUMPI DUP1 DUP3 ADD MLOAD DUP2 DUP5 ADD MSTORE PUSH1 0x20 DUP2 ADD SWAP1 POP PUSH2 0x1157 JUMP JUMPDEST PUSH1 0x0 DUP5 DUP5 ADD MSTORE POP POP POP POP JUMP JUMPDEST PUSH1 0x0 PUSH1 0x1F NOT PUSH1 0x1F DUP4 ADD AND SWAP1 POP SWAP2 SWAP1 POP JUMP JUMPDEST PUSH1 0x0 PUSH2 0x119A DUP3 PUSH2 0x1138 JUMP JUMPDEST PUSH2 0x11A4 DUP2 DUP6 PUSH2 0x1143 JUMP JUMPDEST SWAP4 POP PUSH2 0x11B4 DUP2 DUP6 PUSH1 0x20 DUP7 ADD PUSH2 0x1154 JUMP JUMPDEST PUSH2 0x11BD DUP2 PUSH2 0x117E JUMP JUMPDEST DUP5 ADD SWAP2 POP POP SWAP3 SWAP2 POP POP JUMP JUMPDEST PUSH1 0x0 PUSH1 0x80 DUP3 ADD SWAP1 POP PUSH2 0x11DD PUSH1 0x0 DUP4 ADD DUP8 PUSH2 0xF66 JUMP JUMPDEST PUSH2 0x11EA PUSH1 0x20 DUP4 ADD DUP7 PUSH2 0xEA7 JUMP JUMPDEST DUP2 DUP2 SUB PUSH1 0x40 DUP4 ADD MSTORE PUSH2 0x11FC DUP2 DUP6 PUSH2 0x118F JUMP JUMPDEST SWAP1 POP PUSH2 0x120B PUSH1 0x60 DUP4 ADD DUP5 PUSH2 0x10CE JUMP JUMPDEST SWAP6 SWAP5 POP POP POP POP POP JUMP JUMPDEST PUSH1 0x0 DUP3 DUP3 MSTORE PUSH1 0x20 DUP3 ADD SWAP1 POP SWAP3 SWAP2 POP POP JUMP JUMPDEST PUSH32 0x6E6F74206F776E65720000000000000000000000000000000000000000000000 PUSH1 0x0 DUP3 ADD MSTORE POP JUMP JUMPDEST PUSH1 0x0 PUSH2 0x125B PUSH1 0x9 DUP4 PUSH2 0x1214 JUMP JUMPDEST SWAP2 POP PUSH2 0x1266 DUP3 PUSH2 0x1225 JUMP JUMPDEST PUSH1 0x20 DUP3 ADD SWAP1 POP SWAP2 SWAP1 POP JUMP JUMPDEST PUSH1 0x0 PUSH1 0x20 DUP3 ADD SWAP1 POP DUP2 DUP2 SUB PUSH1 0x0 DUP4 ADD MSTORE PUSH2 0x128A DUP2 PUSH2 0x124E JUMP JUMPDEST SWAP1 POP SWAP2 SWAP1 POP JUMP JUMPDEST PUSH32 0x4E487B7100000000000000000000000000000000000000000000000000000000 PUSH1 0x0 MSTORE PUSH1 0x41 PUSH1 0x4 MSTORE PUSH1 0x24 PUSH1 0x0 REVERT JUMPDEST PUSH32 0x4E487B7100000000000000000000000000000000000000000000000000000000 PUSH1 0x0 MSTORE PUSH1 0x22 PUSH1 0x4 MSTORE PUSH1 0x24 PUSH1 0x0 REVERT JUMPDEST PUSH1 0x0 PUSH1 0x2 DUP3 DIV SWAP1 POP PUSH1 0x1 DUP3 AND DUP1 PUSH2 0x1307 JUMPI PUSH1 0x7F DUP3 AND SWAP2 POP JUMPDEST PUSH1 0x20 DUP3 LT DUP2 SUB PUSH2 0x131A JUMPI PUSH2 0x1319 PUSH2 0x12C0 JUMP JUMPDEST JUMPDEST POP SWAP2 SWAP1 POP JUMP JUMPDEST PUSH1 0x0 DUP2 SWAP1 POP DUP2 PUSH1 0x0 MSTORE PUSH1 0x20 PUSH1 0x0 KECCAK256 SWAP1 POP SWAP2 SWAP1 POP JUMP JUMPDEST PUSH1 0x0 PUSH1 0x20 PUSH1 0x1F DUP4 ADD DIV SWAP1 POP SWAP2 SWAP1 POP JUMP JUMPDEST PUSH1 0x0 DUP3 DUP3 SHL SWAP1 POP SWAP3 SWAP2 POP POP JUMP JUMPDEST PUSH1 0x0 PUSH1 0x8 DUP4 MUL PUSH2 0x1382 PUSH32 0xFFFFFFFFFFFFFFFFFFFFFFFFFFFFFFFFFFFFFFFFFFFFFFFFFFFFFFFFFFFFFFFF DUP3 PUSH2 0x1345 JUMP JUMPDEST PUSH2 0x138C DUP7 DUP4 PUSH2 0x1345 JUMP JUMPDEST SWAP6 POP DUP1 NOT DUP5 AND SWAP4 POP DUP1 DUP7 AND DUP5 OR SWAP3 POP POP POP SWAP4 SWAP3 POP POP POP JUMP JUMPDEST PUSH1 0x0 DUP2 SWAP1 POP SWAP2 SWAP1 POP JUMP JUMPDEST PUSH1 0x0 PUSH2 0x13C9 PUSH2 0x13C4 PUSH2 0x13BF DUP5 PUSH2 0xE9D JUMP JUMPDEST PUSH2 0x13A4 JUMP JUMPDEST PUSH2 0xE9D JUMP JUMPDEST SWAP1 POP SWAP2 SWAP1 POP JUMP JUMPDEST PUSH1 0x0 DUP2 SWAP1 POP SWAP2 SWAP1 POP JUMP JUMPDEST PUSH2 0x13E3 DUP4 PUSH2 0x13AE JUMP JUMPDEST PUSH2 0x13F7 PUSH2 0x13EF DUP3 PUSH2 0x13D0 JUMP JUMPDEST DUP5 DUP5 SLOAD PUSH2 0x1352 JUMP JUMPDEST DUP3 SSTORE POP POP POP POP JUMP JUMPDEST PUSH1 0x0 SWAP1 JUMP JUMPDEST PUSH2 0x140C PUSH2 0x13FF JUMP JUMPDEST PUSH2 0x1417 DUP2 DUP5 DUP5 PUSH2 0x13DA JUMP JUMPDEST POP POP POP JUMP JUMPDEST JUMPDEST DUP2 DUP2 LT ISZERO PUSH2 0x143B JUMPI PUSH2 0x1430 PUSH1 0x0 DUP3 PUSH2 0x1404 JUMP JUMPDEST PUSH1 0x1 DUP2 ADD SWAP1 POP PUSH2 0x141D JUMP JUMPDEST POP POP JUMP JUMPDEST PUSH1 0x1F DUP3 GT ISZERO PUSH2 0x1480 JUMPI PUSH2 0x1451 DUP2 PUSH2 0x1320 JUMP JUMPDEST PUSH2 0x145A DUP5 PUSH2 0x1335 JUMP JUMPDEST DUP2 ADD PUSH1 0x20 DUP6 LT ISZERO PUSH2 0x1469 JUMPI DUP2 SWAP1 POP JUMPDEST PUSH2 0x147D PUSH2 0x1475 DUP6 PUSH2 0x1335 JUMP JUMPDEST DUP4 ADD DUP3 PUSH2 0x141C JUMP JUMPDEST POP POP JUMPDEST POP POP POP JUMP JUMPDEST PUSH1 0x0 DUP3 DUP3 SHR SWAP1 POP SWAP3 SWAP2 POP POP JUMP JUMPDEST PUSH1 0x0 PUSH2 0x14A3 PUSH1 0x0 NOT DUP5 PUSH1 0x8 MUL PUSH2 0x1485 JUMP JUMPDEST NOT DUP1 DUP4 AND SWAP2 POP POP SWAP3 SWAP2 POP POP JUMP JUMPDEST PUSH1 0x0 PUSH2 0x14BC DUP4 DUP4 PUSH2 0x1492 JUMP JUMPDEST SWAP2 POP DUP3 PUSH1 0x2 MUL DUP3 OR SWAP1 POP SWAP3 SWAP2 POP POP JUMP JUMPDEST PUSH2 0x14D5 DUP3 PUSH2 0x1138 JUMP JUMPDEST PUSH8 0xFFFFFFFFFFFFFFFF DUP2 GT ISZERO PUSH2 0x14EE JUMPI PUSH2 0x14ED PUSH2 0x1291 JUMP JUMPDEST JUMPDEST PUSH2 0x14F8 DUP3 SLOAD PUSH2 0x12EF JUMP JUMPDEST PUSH2 0x1503 DUP3 DUP3 DUP6 PUSH2 0x143F JUMP JUMPDEST PUSH1 0x0 PUSH1 0x20 SWAP1 POP PUSH1 0x1F DUP4 GT PUSH1 0x1 DUP2 EQ PUSH2 0x1536 JUMPI PUSH1 0x0 DUP5 ISZERO PUSH2 0x1524 JUMPI DUP3 DUP8 ADD MLOAD SWAP1 POP JUMPDEST PUSH2 0x152E DUP6 DUP3 PUSH2 0x14B0 JUMP JUMPDEST DUP7 SSTORE POP PUSH2 0x1596 JUMP JUMPDEST PUSH1 0x1F NOT DUP5 AND PUSH2 0x1544 DUP7 PUSH2 0x1320 JUMP JUMPDEST PUSH1 0x0 JUMPDEST DUP3 DUP2 LT ISZERO PUSH2 0x156C JUMPI DUP5 DUP10 ADD MLOAD DUP3 SSTORE PUSH1 0x1 DUP3 ADD SWAP2 POP PUSH1 0x20 DUP6 ADD SWAP5 POP PUSH1 0x20 DUP2 ADD SWAP1 POP PUSH2 0x1547 JUMP JUMPDEST DUP7 DUP4 LT ISZERO PUSH2 0x1589 JUMPI DUP5 DUP10 ADD MLOAD PUSH2 0x1585 PUSH1 0x1F DUP10 AND DUP3 PUSH2 0x1492 JUMP JUMPDEST DUP4 SSTORE POP JUMPDEST PUSH1 0x1 PUSH1 0x2 DUP9 MUL ADD DUP9 SSTORE POP POP POP JUMPDEST POP POP POP POP POP POP JUMP JUMPDEST PUSH32 0x4E487B7100000000000000000000000000000000000000000000000000000000 PUSH1 0x0 MSTORE PUSH1 0x11 PUSH1 0x4 MSTORE PUSH1 0x24 PUSH1 0x0 REVERT JUMPDEST PUSH1 0x0 PUSH2 0x15D8 DUP3 PUSH2 0xE9D JUMP JUMPDEST SWAP2 POP PUSH2 0x15E3 DUP4 PUSH2 0xE9D JUMP JUMPDEST SWAP3 POP DUP3 DUP3 SUB SWAP1 POP DUP2 DUP2 GT ISZERO PUSH2 0x15FB JUMPI PUSH2 0x15FA PUSH2 0x159E JUMP JUMPDEST JUMPDEST SWAP3 SWAP2 POP POP JUMP JUMPDEST PUSH32 0x747820646F6573206E6F74206578697374000000000000000000000000000000 PUSH1 0x0 DUP3 ADD MSTORE POP JUMP JUMPDEST PUSH1 0x0 PUSH2 0x1637 PUSH1 0x11 DUP4 PUSH2 0x1214 JUMP JUMPDEST SWAP2 POP PUSH2 0x1642 DUP3 PUSH2 0x1601 JUMP JUMPDEST PUSH1 0x20 DUP3 ADD SWAP1 POP SWAP2 SWAP1 POP JUMP JUMPDEST PUSH1 0x0 PUSH1 0x20 DUP3 ADD SWAP1 POP DUP2 DUP2 SUB PUSH1 0x0 DUP4 ADD MSTORE PUSH2 0x1666 DUP2 PUSH2 0x162A JUMP JUMPDEST SWAP1 POP SWAP2 SWAP1 POP JUMP JUMPDEST PUSH32 0x4E487B7100000000000000000000000000000000000000000000000000000000 PUSH1 0x0 MSTORE PUSH1 0x32 PUSH1 0x4 MSTORE PUSH1 0x24 PUSH1 0x0 REVERT JUMPDEST PUSH32 0x7478206578656375746564000000000000000000000000000000000000000000 PUSH1 0x0 DUP3 ADD MSTORE POP JUMP JUMPDEST PUSH1 0x0 PUSH2 0x16D2 PUSH1 0xB DUP4 PUSH2 0x1214 JUMP JUMPDEST SWAP2 POP PUSH2 0x16DD DUP3 PUSH2 0x169C JUMP JUMPDEST PUSH1 0x20 DUP3 ADD SWAP1 POP SWAP2 SWAP1 POP JUMP JUMPDEST PUSH1 0x0 PUSH1 0x20 DUP3 ADD SWAP1 POP DUP2 DUP2 SUB PUSH1 0x0 DUP4 ADD MSTORE PUSH2 0x1701 DUP2 PUSH2 0x16C5 JUMP JUMPDEST SWAP1 POP SWAP2 SWAP1 POP JUMP JUMPDEST PUSH32 0x7478206E6F7420617070726F7665640000000000000000000000000000000000 PUSH1 0x0 DUP3 ADD MSTORE POP JUMP JUMPDEST PUSH1 0x0 PUSH2 0x173E PUSH1 0xF DUP4 PUSH2 0x1214 JUMP JUMPDEST SWAP2 POP PUSH2 0x1749 DUP3 PUSH2 0x1708 JUMP JUMPDEST PUSH1 0x20 DUP3 ADD SWAP1 POP SWAP2 SWAP1 POP JUMP JUMPDEST PUSH1 0x0 PUSH1 0x20 DUP3 ADD SWAP1 POP DUP2 DUP2 SUB PUSH1 0x0 DUP4 ADD MSTORE PUSH2 0x176D DUP2 PUSH2 0x1731 JUMP JUMPDEST SWAP1 POP SWAP2 SWAP1 POP JUMP JUMPDEST PUSH32 0x747820616C726561647920617070726F76656400000000000000000000000000 PUSH1 0x0 DUP3 ADD MSTORE POP JUMP JUMPDEST PUSH1 0x0 PUSH2 0x17AA PUSH1 0x13 DUP4 PUSH2 0x1214 JUMP JUMPDEST SWAP2 POP PUSH2 0x17B5 DUP3 PUSH2 0x1774 JUMP JUMPDEST PUSH1 0x20 DUP3 ADD SWAP1 POP SWAP2 SWAP1 POP JUMP JUMPDEST PUSH1 0x0 PUSH1 0x20 DUP3 ADD SWAP1 POP DUP2 DUP2 SUB PUSH1 0x0 DUP4 ADD MSTORE PUSH2 0x17D9 DUP2 PUSH2 0x179D JUMP JUMPDEST SWAP1 POP SWAP2 SWAP1 POP JUMP JUMPDEST PUSH32 0x617070726F76616C73203C207265717569726564000000000000000000000000 PUSH1 0x0 DUP3 ADD MSTORE POP JUMP JUMPDEST PUSH1 0x0 PUSH2 0x1816 PUSH1 0x14 DUP4 PUSH2 0x1214 JUMP JUMPDEST SWAP2 POP PUSH2 0x1821 DUP3 PUSH2 0x17E0 JUMP JUMPDEST PUSH1 0x20 DUP3 ADD SWAP1 POP SWAP2 SWAP1 POP JUMP JUMPDEST PUSH1 0x0 PUSH1 0x20 DUP3 ADD SWAP1 POP DUP2 DUP2 SUB PUSH1 0x0 DUP4 ADD MSTORE PUSH2 0x1845 DUP2 PUSH2 0x1809 JUMP JUMPDEST SWAP1 POP SWAP2 SWAP1 POP JUMP JUMPDEST PUSH1 0x0 DUP2 SWAP1 POP SWAP3 SWAP2 POP POP JUMP JUMPDEST PUSH1 0x0 DUP2 SLOAD PUSH2 0x1864 DUP2 PUSH2 0x12EF JUMP JUMPDEST PUSH2 0x186E DUP2 DUP7 PUSH2 0x184C JUMP JUMPDEST SWAP5 POP PUSH1 0x1 DUP3 AND PUSH1 0x0 DUP2 EQ PUSH2 0x1889 JUMPI PUSH1 0x1 DUP2 EQ PUSH2 0x189E JUMPI PUSH2 0x18D1 JUMP JUMPDEST PUSH1 0xFF NOT DUP4 AND DUP7 MSTORE DUP2 ISZERO ISZERO DUP3 MUL DUP7 ADD SWAP4 POP PUSH2 0x18D1 JUMP JUMPDEST PUSH2 0x18A7 DUP6 PUSH2 0x1320 JUMP JUMPDEST PUSH1 0x0 JUMPDEST DUP4 DUP2 LT ISZERO PUSH2 0x18C9 JUMPI DUP2 SLOAD DUP2 DUP10 ADD MSTORE PUSH1 0x1 DUP3 ADD SWAP2 POP PUSH1 0x20 DUP2 ADD SWAP1 POP PUSH2 0x18AA JUMP JUMPDEST DUP4 DUP9 ADD SWAP6 POP POP POP JUMPDEST POP POP POP SWAP3 SWAP2 POP POP JUMP JUMPDEST PUSH1 0x0 PUSH2 0x18E6 DUP3 DUP5 PUSH2 0x1857 JUMP JUMPDEST SWAP2 POP DUP2 SWAP1 POP SWAP3 SWAP2 POP POP JUMP JUMPDEST PUSH32 0x7478206661696C65640000000000000000000000000000000000000000000000 PUSH1 0x0 DUP3 ADD MSTORE POP JUMP JUMPDEST PUSH1 0x0 PUSH2 0x1927 PUSH1 0x9 DUP4 PUSH2 0x1214 JUMP JUMPDEST SWAP2 POP PUSH2 0x1932 DUP3 PUSH2 0x18F1 JUMP JUMPDEST PUSH1 0x20 DUP3 ADD SWAP1 POP SWAP2 SWAP1 POP JUMP JUMPDEST PUSH1 0x0 PUSH1 0x20 DUP3 ADD SWAP1 POP DUP2 DUP2 SUB PUSH1 0x0 DUP4 ADD MSTORE PUSH2 0x1956 DUP2 PUSH2 0x191A JUMP JUMPDEST SWAP1 POP SWAP2 SWAP1 POP JUMP JUMPDEST PUSH1 0x0 PUSH2 0x1968 DUP3 PUSH2 0xE9D JUMP JUMPDEST SWAP2 POP PUSH2 0x1973 DUP4 PUSH2 0xE9D JUMP JUMPDEST SWAP3 POP DUP3 DUP3 ADD SWAP1 POP DUP1 DUP3 GT ISZERO PUSH2 0x198B JUMPI PUSH2 0x198A PUSH2 0x159E JUMP JUMPDEST JUMPDEST SWAP3 SWAP2 POP POP JUMP JUMPDEST PUSH1 0x0 PUSH2 0x199C DUP3 PUSH2 0xE9D JUMP JUMPDEST SWAP2 POP PUSH32 0xFFFFFFFFFFFFFFFFFFFFFFFFFFFFFFFFFFFFFFFFFFFFFFFFFFFFFFFFFFFFFFFF DUP3 SUB PUSH2 0x19CE JUMPI PUSH2 0x19CD PUSH2 0x159E JUMP JUMPDEST JUMPDEST PUSH1 0x1 DUP3 ADD SWAP1 POP SWAP2 SWAP1 POP JUMP INVALID LOG2 PUSH5 0x6970667358 0x22 SLT KECCAK256 PUSH14 0xF88D949C4C1456A64B69265D0639 0xDE PUSH14 0x266377D486B41A7818D26F96B49 0xAF PUSH5 0x736F6C6343 STOP ADDMOD SLT STOP CALLER "
				},
				"gasEstimates": {
					"creation": {
						"codeDepositCost": "1334200",
						"executionCost": "infinite",
						"totalCost": "infinite"
					},
					"external": {
						"approve(uint256)": "37486",
						"approved(uint256,address)": "3087",
						"execute(uint256)": "infinite",
						"isOwner(address)": "2912",
						"owners(uint256)": "4957",
						"required()": "2495",
						"revoke(uint256)": "37479",
						"submit(address,uint256,bytes)": "infinite",
						"transactions(uint256)": "infinite"
					},
					"internal": {
						"_getApprovalCount(uint256)": "infinite"
					}
				},
				"methodIdentifiers": {
					"approve(uint256)": "b759f954",
					"approved(uint256,address)": "8253951a",
					"execute(uint256)": "fe0d94c1",
					"isOwner(address)": "2f54bf6e",
					"owners(uint256)": "025e7c27",
					"required()": "dc8452cd",
					"revoke(uint256)": "20c5429b",
					"submit(address,uint256,bytes)": "14de327f",
					"transactions(uint256)": "9ace38c2"
				}
			},
			"storageLayout": {
				"storage": [
					{
						"astId": 39,
						"contract": "multisign.sol:MultiSigWallet",
						"label": "owners",
						"offset": 0,
						"slot": "0",
						"type": "t_array(t_address)dyn_storage"
					},
					{
						"astId": 43,
						"contract": "multisign.sol:MultiSigWallet",
						"label": "isOwner",
						"offset": 0,
						"slot": "1",
						"type": "t_mapping(t_address,t_bool)"
					},
					{
						"astId": 45,
						"contract": "multisign.sol:MultiSigWallet",
						"label": "required",
						"offset": 0,
						"slot": "2",
						"type": "t_uint256"
					},
					{
						"astId": 49,
						"contract": "multisign.sol:MultiSigWallet",
						"label": "transactions",
						"offset": 0,
						"slot": "3",
						"type": "t_array(t_struct(Transaction)36_storage)dyn_storage"
					},
					{
						"astId": 55,
						"contract": "multisign.sol:MultiSigWallet",
						"label": "approved",
						"offset": 0,
						"slot": "4",
						"type": "t_mapping(t_uint256,t_mapping(t_address,t_bool))"
					}
				],
				"types": {
					"t_address": {
						"encoding": "inplace",
						"label": "address",
						"numberOfBytes": "20"
					},
					"t_array(t_address)dyn_storage": {
						"base": "t_address",
						"encoding": "dynamic_array",
						"label": "address[]",
						"numberOfBytes": "32"
					},
					"t_array(t_struct(Transaction)36_storage)dyn_storage": {
						"base": "t_struct(Transaction)36_storage",
						"encoding": "dynamic_array",
						"label": "struct MultiSigWallet.Transaction[]",
						"numberOfBytes": "32"
					},
					"t_bool": {
						"encoding": "inplace",
						"label": "bool",
						"numberOfBytes": "1"
					},
					"t_bytes_storage": {
						"encoding": "bytes",
						"label": "bytes",
						"numberOfBytes": "32"
					},
					"t_mapping(t_address,t_bool)": {
						"encoding": "mapping",
						"key": "t_address",
						"label": "mapping(address => bool)",
						"numberOfBytes": "32",
						"value": "t_bool"
					},
					"t_mapping(t_uint256,t_mapping(t_address,t_bool))": {
						"encoding": "mapping",
						"key": "t_uint256",
						"label": "mapping(uint256 => mapping(address => bool))",
						"numberOfBytes": "32",
						"value": "t_mapping(t_address,t_bool)"
					},
					"t_struct(Transaction)36_storage": {
						"encoding": "inplace",
						"label": "struct MultiSigWallet.Transaction",
						"members": [
							{
								"astId": 29,
								"contract": "multisign.sol:MultiSigWallet",
								"label": "to",
								"offset": 0,
								"slot": "0",
								"type": "t_address"
							},
							{
								"astId": 31,
								"contract": "multisign.sol:MultiSigWallet",
								"label": "value",
								"offset": 0,
								"slot": "1",
								"type": "t_uint256"
							},
							{
								"astId": 33,
								"contract": "multisign.sol:MultiSigWallet",
								"label": "data",
								"offset": 0,
								"slot": "2",
								"type": "t_bytes_storage"
							},
							{
								"astId": 35,
								"contract": "multisign.sol:MultiSigWallet",
								"label": "executed",
								"offset": 0,
								"slot": "3",
								"type": "t_bool"
							}
						],
						"numberOfBytes": "128"
					},
					"t_uint256": {
						"encoding": "inplace",
						"label": "uint256",
						"numberOfBytes": "32"
					}
				}
			},
			"userdoc": {
				"kind": "user",
				"methods": {},
				"version": 1
			}
		}
	}
}