{
	"test2.sol": {
		"SHA256": {
			"abi": [
				{
					"inputs": [
						{
							"internalType": "string",
							"name": "_text",
							"type": "string"
						}
					],
					"name": "Hash",
					"outputs": [
						{
							"internalType": "bytes32",
							"name": "",
							"type": "bytes32"
						}
					],
					"stateMutability": "pure",
					"type": "function"
				},
				{
					"inputs": [
						{
							"internalType": "string",
							"name": "str",
							"type": "string"
						}
					],
					"name": "getFirstChar",
					"outputs": [
						{
							"internalType": "bytes1",
							"name": "",
							"type": "bytes1"
						}
					],
					"stateMutability": "pure",
					"type": "function"
				}
			],
			"devdoc": {
				"kind": "dev",
				"methods": {},
				"version": 1
			},
			"evm": {
				"assembly": "    /* \"test2.sol\":59:313  contract SHA256{... */\n  mstore(0x40, 0x80)\n  callvalue\n  dup1\n  iszero\n  tag_1\n  jumpi\n  0x00\n  dup1\n  revert\ntag_1:\n  pop\n  dataSize(sub_0)\n  dup1\n  dataOffset(sub_0)\n  0x00\n  codecopy\n  0x00\n  return\nstop\n\nsub_0: assembly {\n        /* \"test2.sol\":59:313  contract SHA256{... */\n      mstore(0x40, 0x80)\n      callvalue\n      dup1\n      iszero\n      tag_1\n      jumpi\n      0x00\n      dup1\n      revert\n    tag_1:\n      pop\n      jumpi(tag_2, lt(calldatasize, 0x04))\n      shr(0xe0, calldataload(0x00))\n      dup1\n      0x79ff2312\n      eq\n      tag_3\n      jumpi\n      dup1\n      0xbc780a0c\n      eq\n      tag_4\n      jumpi\n    tag_2:\n      0x00\n      dup1\n      revert\n        /* \"test2.sol\":80:187  function getFirstChar(string memory str) public pure returns (bytes1) {... */\n    tag_3:\n      tag_5\n      0x04\n      dup1\n      calldatasize\n      sub\n      dup2\n      add\n      swap1\n      tag_6\n      swap2\n      swap1\n      tag_7\n      jump\t// in\n    tag_6:\n      tag_8\n      jump\t// in\n    tag_5:\n      mload(0x40)\n      tag_9\n      swap2\n      swap1\n      tag_10\n      jump\t// in\n    tag_9:\n      mload(0x40)\n      dup1\n      swap2\n      sub\n      swap1\n      return\n        /* \"test2.sol\":192:311  function Hash(string memory _text) public pure returns (bytes32){... */\n    tag_4:\n      tag_11\n      0x04\n      dup1\n      calldatasize\n      sub\n      dup2\n      add\n      swap1\n      tag_12\n      swap2\n      swap1\n      tag_7\n      jump\t// in\n    tag_12:\n      tag_13\n      jump\t// in\n    tag_11:\n      mload(0x40)\n      tag_14\n      swap2\n      swap1\n      tag_15\n      jump\t// in\n    tag_14:\n      mload(0x40)\n      dup1\n      swap2\n      sub\n      swap1\n      return\n        /* \"test2.sol\":80:187  function getFirstChar(string memory str) public pure returns (bytes1) {... */\n    tag_8:\n        /* \"test2.sol\":142:148  bytes1 */\n      0x00\n        /* \"test2.sol\":173:176  str */\n      dup2\n        /* \"test2.sol\":178:179  0 */\n      0x00\n        /* \"test2.sol\":167:180  bytes(str)[0] */\n      dup2\n      mload\n      dup2\n      lt\n      tag_17\n      jumpi\n      tag_18\n      tag_19\n      jump\t// in\n    tag_18:\n    tag_17:\n      0x20\n      add\n      add\n      mload\n      0xf8\n      shr\n      0xf8\n      shl\n        /* \"test2.sol\":160:180  return bytes(str)[0] */\n      swap1\n      pop\n        /* \"test2.sol\":80:187  function getFirstChar(string memory str) public pure returns (bytes1) {... */\n      swap2\n      swap1\n      pop\n      jump\t// out\n        /* \"test2.sol\":192:311  function Hash(string memory _text) public pure returns (bytes32){... */\n    tag_13:\n        /* \"test2.sol\":248:255  bytes32 */\n      0x00\n        /* \"test2.sol\":273:304  sha256(abi.encodePacked(_text)) */\n      0x02\n        /* \"test2.sol\":297:302  _text */\n      dup3\n        /* \"test2.sol\":280:303  abi.encodePacked(_text) */\n      add(0x20, mload(0x40))\n      tag_21\n      swap2\n      swap1\n      tag_22\n      jump\t// in\n    tag_21:\n      mload(0x40)\n      0x20\n      dup2\n      dup4\n      sub\n      sub\n      dup2\n      mstore\n      swap1\n      0x40\n      mstore\n        /* \"test2.sol\":273:304  sha256(abi.encodePacked(_text)) */\n      mload(0x40)\n      tag_23\n      swap2\n      swap1\n      tag_24\n      jump\t// in\n    tag_23:\n      0x20\n      mload(0x40)\n      dup1\n      dup4\n      sub\n      dup2\n      dup6\n      gas\n      staticcall\n      iszero\n      dup1\n      iszero\n      tag_26\n      jumpi\n      returndatasize\n      0x00\n      dup1\n      returndatacopy\n      revert(0x00, returndatasize)\n    tag_26:\n      pop\n      pop\n      pop\n      mload(0x40)\n      returndatasize\n      not(0x1f)\n      0x1f\n      dup3\n      add\n      and\n      dup3\n      add\n      dup1\n      0x40\n      mstore\n      pop\n      dup2\n      add\n      swap1\n      tag_27\n      swap2\n      swap1\n      tag_28\n      jump\t// in\n    tag_27:\n        /* \"test2.sol\":266:304  return sha256(abi.encodePacked(_text)) */\n      swap1\n      pop\n        /* \"test2.sol\":192:311  function Hash(string memory _text) public pure returns (bytes32){... */\n      swap2\n      swap1\n      pop\n      jump\t// out\n        /* \"#utility.yul\":7:82   */\n    tag_29:\n        /* \"#utility.yul\":40:46   */\n      0x00\n        /* \"#utility.yul\":73:75   */\n      0x40\n        /* \"#utility.yul\":67:76   */\n      mload\n        /* \"#utility.yul\":57:76   */\n      swap1\n      pop\n        /* \"#utility.yul\":7:82   */\n      swap1\n      jump\t// out\n        /* \"#utility.yul\":88:205   */\n    tag_30:\n        /* \"#utility.yul\":197:198   */\n      0x00\n        /* \"#utility.yul\":194:195   */\n      dup1\n        /* \"#utility.yul\":187:199   */\n      revert\n        /* \"#utility.yul\":211:328   */\n    tag_31:\n        /* \"#utility.yul\":320:321   */\n      0x00\n        /* \"#utility.yul\":317:318   */\n      dup1\n        /* \"#utility.yul\":310:322   */\n      revert\n        /* \"#utility.yul\":334:451   */\n    tag_32:\n        /* \"#utility.yul\":443:444   */\n      0x00\n        /* \"#utility.yul\":440:441   */\n      dup1\n        /* \"#utility.yul\":433:445   */\n      revert\n        /* \"#utility.yul\":457:574   */\n    tag_33:\n        /* \"#utility.yul\":566:567   */\n      0x00\n        /* \"#utility.yul\":563:564   */\n      dup1\n        /* \"#utility.yul\":556:568   */\n      revert\n        /* \"#utility.yul\":580:682   */\n    tag_34:\n        /* \"#utility.yul\":621:627   */\n      0x00\n        /* \"#utility.yul\":672:674   */\n      0x1f\n        /* \"#utility.yul\":668:675   */\n      not\n        /* \"#utility.yul\":663:665   */\n      0x1f\n        /* \"#utility.yul\":656:661   */\n      dup4\n        /* \"#utility.yul\":652:666   */\n      add\n        /* \"#utility.yul\":648:676   */\n      and\n        /* \"#utility.yul\":638:676   */\n      swap1\n      pop\n        /* \"#utility.yul\":580:682   */\n      swap2\n      swap1\n      pop\n      jump\t// out\n        /* \"#utility.yul\":688:868   */\n    tag_35:\n        /* \"#utility.yul\":736:813   */\n      0x4e487b7100000000000000000000000000000000000000000000000000000000\n        /* \"#utility.yul\":733:734   */\n      0x00\n        /* \"#utility.yul\":726:814   */\n      mstore\n        /* \"#utility.yul\":833:837   */\n      0x41\n        /* \"#utility.yul\":830:831   */\n      0x04\n        /* \"#utility.yul\":823:838   */\n      mstore\n        /* \"#utility.yul\":857:861   */\n      0x24\n        /* \"#utility.yul\":854:855   */\n      0x00\n        /* \"#utility.yul\":847:862   */\n      revert\n        /* \"#utility.yul\":874:1155   */\n    tag_36:\n        /* \"#utility.yul\":957:984   */\n      tag_64\n        /* \"#utility.yul\":979:983   */\n      dup3\n        /* \"#utility.yul\":957:984   */\n      tag_34\n      jump\t// in\n    tag_64:\n        /* \"#utility.yul\":949:955   */\n      dup2\n        /* \"#utility.yul\":945:985   */\n      add\n        /* \"#utility.yul\":1087:1093   */\n      dup2\n        /* \"#utility.yul\":1075:1085   */\n      dup2\n        /* \"#utility.yul\":1072:1094   */\n      lt\n        /* \"#utility.yul\":1051:1069   */\n      0xffffffffffffffff\n        /* \"#utility.yul\":1039:1049   */\n      dup3\n        /* \"#utility.yul\":1036:1070   */\n      gt\n        /* \"#utility.yul\":1033:1095   */\n      or\n        /* \"#utility.yul\":1030:1118   */\n      iszero\n      tag_65\n      jumpi\n        /* \"#utility.yul\":1098:1116   */\n      tag_66\n      tag_35\n      jump\t// in\n    tag_66:\n        /* \"#utility.yul\":1030:1118   */\n    tag_65:\n        /* \"#utility.yul\":1138:1148   */\n      dup1\n        /* \"#utility.yul\":1134:1136   */\n      0x40\n        /* \"#utility.yul\":1127:1149   */\n      mstore\n        /* \"#utility.yul\":917:1155   */\n      pop\n        /* \"#utility.yul\":874:1155   */\n      pop\n      pop\n      jump\t// out\n        /* \"#utility.yul\":1161:1290   */\n    tag_37:\n        /* \"#utility.yul\":1195:1201   */\n      0x00\n        /* \"#utility.yul\":1222:1242   */\n      tag_68\n      tag_29\n      jump\t// in\n    tag_68:\n        /* \"#utility.yul\":1212:1242   */\n      swap1\n      pop\n        /* \"#utility.yul\":1251:1284   */\n      tag_69\n        /* \"#utility.yul\":1279:1283   */\n      dup3\n        /* \"#utility.yul\":1271:1277   */\n      dup3\n        /* \"#utility.yul\":1251:1284   */\n      tag_36\n      jump\t// in\n    tag_69:\n        /* \"#utility.yul\":1161:1290   */\n      swap2\n      swap1\n      pop\n      jump\t// out\n        /* \"#utility.yul\":1296:1604   */\n    tag_38:\n        /* \"#utility.yul\":1358:1362   */\n      0x00\n        /* \"#utility.yul\":1448:1466   */\n      0xffffffffffffffff\n        /* \"#utility.yul\":1440:1446   */\n      dup3\n        /* \"#utility.yul\":1437:1467   */\n      gt\n        /* \"#utility.yul\":1434:1490   */\n      iszero\n      tag_71\n      jumpi\n        /* \"#utility.yul\":1470:1488   */\n      tag_72\n      tag_35\n      jump\t// in\n    tag_72:\n        /* \"#utility.yul\":1434:1490   */\n    tag_71:\n        /* \"#utility.yul\":1508:1537   */\n      tag_73\n        /* \"#utility.yul\":1530:1536   */\n      dup3\n        /* \"#utility.yul\":1508:1537   */\n      tag_34\n      jump\t// in\n    tag_73:\n        /* \"#utility.yul\":1500:1537   */\n      swap1\n      pop\n        /* \"#utility.yul\":1592:1596   */\n      0x20\n        /* \"#utility.yul\":1586:1590   */\n      dup2\n        /* \"#utility.yul\":1582:1597   */\n      add\n        /* \"#utility.yul\":1574:1597   */\n      swap1\n      pop\n        /* \"#utility.yul\":1296:1604   */\n      swap2\n      swap1\n      pop\n      jump\t// out\n        /* \"#utility.yul\":1610:1756   */\n    tag_39:\n        /* \"#utility.yul\":1707:1713   */\n      dup3\n        /* \"#utility.yul\":1702:1705   */\n      dup2\n        /* \"#utility.yul\":1697:1700   */\n      dup4\n        /* \"#utility.yul\":1684:1714   */\n      calldatacopy\n        /* \"#utility.yul\":1748:1749   */\n      0x00\n        /* \"#utility.yul\":1739:1745   */\n      dup4\n        /* \"#utility.yul\":1734:1737   */\n      dup4\n        /* \"#utility.yul\":1730:1746   */\n      add\n        /* \"#utility.yul\":1723:1750   */\n      mstore\n        /* \"#utility.yul\":1610:1756   */\n      pop\n      pop\n      pop\n      jump\t// out\n        /* \"#utility.yul\":1762:2187   */\n    tag_40:\n        /* \"#utility.yul\":1840:1845   */\n      0x00\n        /* \"#utility.yul\":1865:1931   */\n      tag_76\n        /* \"#utility.yul\":1881:1930   */\n      tag_77\n        /* \"#utility.yul\":1923:1929   */\n      dup5\n        /* \"#utility.yul\":1881:1930   */\n      tag_38\n      jump\t// in\n    tag_77:\n        /* \"#utility.yul\":1865:1931   */\n      tag_37\n      jump\t// in\n    tag_76:\n        /* \"#utility.yul\":1856:1931   */\n      swap1\n      pop\n        /* \"#utility.yul\":1954:1960   */\n      dup3\n        /* \"#utility.yul\":1947:1952   */\n      dup2\n        /* \"#utility.yul\":1940:1961   */\n      mstore\n        /* \"#utility.yul\":1992:1996   */\n      0x20\n        /* \"#utility.yul\":1985:1990   */\n      dup2\n        /* \"#utility.yul\":1981:1997   */\n      add\n        /* \"#utility.yul\":2030:2033   */\n      dup5\n        /* \"#utility.yul\":2021:2027   */\n      dup5\n        /* \"#utility.yul\":2016:2019   */\n      dup5\n        /* \"#utility.yul\":2012:2028   */\n      add\n        /* \"#utility.yul\":2009:2034   */\n      gt\n        /* \"#utility.yul\":2006:2118   */\n      iszero\n      tag_78\n      jumpi\n        /* \"#utility.yul\":2037:2116   */\n      tag_79\n      tag_33\n      jump\t// in\n    tag_79:\n        /* \"#utility.yul\":2006:2118   */\n    tag_78:\n        /* \"#utility.yul\":2127:2181   */\n      tag_80\n        /* \"#utility.yul\":2174:2180   */\n      dup5\n        /* \"#utility.yul\":2169:2172   */\n      dup3\n        /* \"#utility.yul\":2164:2167   */\n      dup6\n        /* \"#utility.yul\":2127:2181   */\n      tag_39\n      jump\t// in\n    tag_80:\n        /* \"#utility.yul\":1846:2187   */\n      pop\n        /* \"#utility.yul\":1762:2187   */\n      swap4\n      swap3\n      pop\n      pop\n      pop\n      jump\t// out\n        /* \"#utility.yul\":2207:2547   */\n    tag_41:\n        /* \"#utility.yul\":2263:2268   */\n      0x00\n        /* \"#utility.yul\":2312:2315   */\n      dup3\n        /* \"#utility.yul\":2305:2309   */\n      0x1f\n        /* \"#utility.yul\":2297:2303   */\n      dup4\n        /* \"#utility.yul\":2293:2310   */\n      add\n        /* \"#utility.yul\":2289:2316   */\n      slt\n        /* \"#utility.yul\":2279:2401   */\n      tag_82\n      jumpi\n        /* \"#utility.yul\":2320:2399   */\n      tag_83\n      tag_32\n      jump\t// in\n    tag_83:\n        /* \"#utility.yul\":2279:2401   */\n    tag_82:\n        /* \"#utility.yul\":2437:2443   */\n      dup2\n        /* \"#utility.yul\":2424:2444   */\n      calldataload\n        /* \"#utility.yul\":2462:2541   */\n      tag_84\n        /* \"#utility.yul\":2537:2540   */\n      dup5\n        /* \"#utility.yul\":2529:2535   */\n      dup3\n        /* \"#utility.yul\":2522:2526   */\n      0x20\n        /* \"#utility.yul\":2514:2520   */\n      dup7\n        /* \"#utility.yul\":2510:2527   */\n      add\n        /* \"#utility.yul\":2462:2541   */\n      tag_40\n      jump\t// in\n    tag_84:\n        /* \"#utility.yul\":2453:2541   */\n      swap2\n      pop\n        /* \"#utility.yul\":2269:2547   */\n      pop\n        /* \"#utility.yul\":2207:2547   */\n      swap3\n      swap2\n      pop\n      pop\n      jump\t// out\n        /* \"#utility.yul\":2553:3062   */\n    tag_7:\n        /* \"#utility.yul\":2622:2628   */\n      0x00\n        /* \"#utility.yul\":2671:2673   */\n      0x20\n        /* \"#utility.yul\":2659:2668   */\n      dup3\n        /* \"#utility.yul\":2650:2657   */\n      dup5\n        /* \"#utility.yul\":2646:2669   */\n      sub\n        /* \"#utility.yul\":2642:2674   */\n      slt\n        /* \"#utility.yul\":2639:2758   */\n      iszero\n      tag_86\n      jumpi\n        /* \"#utility.yul\":2677:2756   */\n      tag_87\n      tag_30\n      jump\t// in\n    tag_87:\n        /* \"#utility.yul\":2639:2758   */\n    tag_86:\n        /* \"#utility.yul\":2825:2826   */\n      0x00\n        /* \"#utility.yul\":2814:2823   */\n      dup3\n        /* \"#utility.yul\":2810:2827   */\n      add\n        /* \"#utility.yul\":2797:2828   */\n      calldataload\n        /* \"#utility.yul\":2855:2873   */\n      0xffffffffffffffff\n        /* \"#utility.yul\":2847:2853   */\n      dup2\n        /* \"#utility.yul\":2844:2874   */\n      gt\n        /* \"#utility.yul\":2841:2958   */\n      iszero\n      tag_88\n      jumpi\n        /* \"#utility.yul\":2877:2956   */\n      tag_89\n      tag_31\n      jump\t// in\n    tag_89:\n        /* \"#utility.yul\":2841:2958   */\n    tag_88:\n        /* \"#utility.yul\":2982:3045   */\n      tag_90\n        /* \"#utility.yul\":3037:3044   */\n      dup5\n        /* \"#utility.yul\":3028:3034   */\n      dup3\n        /* \"#utility.yul\":3017:3026   */\n      dup6\n        /* \"#utility.yul\":3013:3035   */\n      add\n        /* \"#utility.yul\":2982:3045   */\n      tag_41\n      jump\t// in\n    tag_90:\n        /* \"#utility.yul\":2972:3045   */\n      swap2\n      pop\n        /* \"#utility.yul\":2768:3055   */\n      pop\n        /* \"#utility.yul\":2553:3062   */\n      swap3\n      swap2\n      pop\n      pop\n      jump\t// out\n        /* \"#utility.yul\":3068:3217   */\n    tag_42:\n        /* \"#utility.yul\":3104:3111   */\n      0x00\n        /* \"#utility.yul\":3144:3210   */\n      0xff00000000000000000000000000000000000000000000000000000000000000\n        /* \"#utility.yul\":3137:3142   */\n      dup3\n        /* \"#utility.yul\":3133:3211   */\n      and\n        /* \"#utility.yul\":3122:3211   */\n      swap1\n      pop\n        /* \"#utility.yul\":3068:3217   */\n      swap2\n      swap1\n      pop\n      jump\t// out\n        /* \"#utility.yul\":3223:3338   */\n    tag_43:\n        /* \"#utility.yul\":3308:3331   */\n      tag_93\n        /* \"#utility.yul\":3325:3330   */\n      dup2\n        /* \"#utility.yul\":3308:3331   */\n      tag_42\n      jump\t// in\n    tag_93:\n        /* \"#utility.yul\":3303:3306   */\n      dup3\n        /* \"#utility.yul\":3296:3332   */\n      mstore\n        /* \"#utility.yul\":3223:3338   */\n      pop\n      pop\n      jump\t// out\n        /* \"#utility.yul\":3344:3562   */\n    tag_10:\n        /* \"#utility.yul\":3435:3439   */\n      0x00\n        /* \"#utility.yul\":3473:3475   */\n      0x20\n        /* \"#utility.yul\":3462:3471   */\n      dup3\n        /* \"#utility.yul\":3458:3476   */\n      add\n        /* \"#utility.yul\":3450:3476   */\n      swap1\n      pop\n        /* \"#utility.yul\":3486:3555   */\n      tag_95\n        /* \"#utility.yul\":3552:3553   */\n      0x00\n        /* \"#utility.yul\":3541:3550   */\n      dup4\n        /* \"#utility.yul\":3537:3554   */\n      add\n        /* \"#utility.yul\":3528:3534   */\n      dup5\n        /* \"#utility.yul\":3486:3555   */\n      tag_43\n      jump\t// in\n    tag_95:\n        /* \"#utility.yul\":3344:3562   */\n      swap3\n      swap2\n      pop\n      pop\n      jump\t// out\n        /* \"#utility.yul\":3568:3645   */\n    tag_44:\n        /* \"#utility.yul\":3605:3612   */\n      0x00\n        /* \"#utility.yul\":3634:3639   */\n      dup2\n        /* \"#utility.yul\":3623:3639   */\n      swap1\n      pop\n        /* \"#utility.yul\":3568:3645   */\n      swap2\n      swap1\n      pop\n      jump\t// out\n        /* \"#utility.yul\":3651:3769   */\n    tag_45:\n        /* \"#utility.yul\":3738:3762   */\n      tag_98\n        /* \"#utility.yul\":3756:3761   */\n      dup2\n        /* \"#utility.yul\":3738:3762   */\n      tag_44\n      jump\t// in\n    tag_98:\n        /* \"#utility.yul\":3733:3736   */\n      dup3\n        /* \"#utility.yul\":3726:3763   */\n      mstore\n        /* \"#utility.yul\":3651:3769   */\n      pop\n      pop\n      jump\t// out\n        /* \"#utility.yul\":3775:3997   */\n    tag_15:\n        /* \"#utility.yul\":3868:3872   */\n      0x00\n        /* \"#utility.yul\":3906:3908   */\n      0x20\n        /* \"#utility.yul\":3895:3904   */\n      dup3\n        /* \"#utility.yul\":3891:3909   */\n      add\n        /* \"#utility.yul\":3883:3909   */\n      swap1\n      pop\n        /* \"#utility.yul\":3919:3990   */\n      tag_100\n        /* \"#utility.yul\":3987:3988   */\n      0x00\n        /* \"#utility.yul\":3976:3985   */\n      dup4\n        /* \"#utility.yul\":3972:3989   */\n      add\n        /* \"#utility.yul\":3963:3969   */\n      dup5\n        /* \"#utility.yul\":3919:3990   */\n      tag_45\n      jump\t// in\n    tag_100:\n        /* \"#utility.yul\":3775:3997   */\n      swap3\n      swap2\n      pop\n      pop\n      jump\t// out\n        /* \"#utility.yul\":4003:4183   */\n    tag_19:\n        /* \"#utility.yul\":4051:4128   */\n      0x4e487b7100000000000000000000000000000000000000000000000000000000\n        /* \"#utility.yul\":4048:4049   */\n      0x00\n        /* \"#utility.yul\":4041:4129   */\n      mstore\n        /* \"#utility.yul\":4148:4152   */\n      0x32\n        /* \"#utility.yul\":4145:4146   */\n      0x04\n        /* \"#utility.yul\":4138:4153   */\n      mstore\n        /* \"#utility.yul\":4172:4176   */\n      0x24\n        /* \"#utility.yul\":4169:4170   */\n      0x00\n        /* \"#utility.yul\":4162:4177   */\n      revert\n        /* \"#utility.yul\":4189:4288   */\n    tag_46:\n        /* \"#utility.yul\":4241:4247   */\n      0x00\n        /* \"#utility.yul\":4275:4280   */\n      dup2\n        /* \"#utility.yul\":4269:4281   */\n      mload\n        /* \"#utility.yul\":4259:4281   */\n      swap1\n      pop\n        /* \"#utility.yul\":4189:4288   */\n      swap2\n      swap1\n      pop\n      jump\t// out\n        /* \"#utility.yul\":4294:4442   */\n    tag_47:\n        /* \"#utility.yul\":4396:4407   */\n      0x00\n        /* \"#utility.yul\":4433:4436   */\n      dup2\n        /* \"#utility.yul\":4418:4436   */\n      swap1\n      pop\n        /* \"#utility.yul\":4294:4442   */\n      swap3\n      swap2\n      pop\n      pop\n      jump\t// out\n        /* \"#utility.yul\":4448:4694   */\n    tag_48:\n        /* \"#utility.yul\":4529:4530   */\n      0x00\n        /* \"#utility.yul\":4539:4652   */\n    tag_105:\n        /* \"#utility.yul\":4553:4559   */\n      dup4\n        /* \"#utility.yul\":4550:4551   */\n      dup2\n        /* \"#utility.yul\":4547:4560   */\n      lt\n        /* \"#utility.yul\":4539:4652   */\n      iszero\n      tag_107\n      jumpi\n        /* \"#utility.yul\":4638:4639   */\n      dup1\n        /* \"#utility.yul\":4633:4636   */\n      dup3\n        /* \"#utility.yul\":4629:4640   */\n      add\n        /* \"#utility.yul\":4623:4641   */\n      mload\n        /* \"#utility.yul\":4619:4620   */\n      dup2\n        /* \"#utility.yul\":4614:4617   */\n      dup5\n        /* \"#utility.yul\":4610:4621   */\n      add\n        /* \"#utility.yul\":4603:4642   */\n      mstore\n        /* \"#utility.yul\":4575:4577   */\n      0x20\n        /* \"#utility.yul\":4572:4573   */\n      dup2\n        /* \"#utility.yul\":4568:4578   */\n      add\n        /* \"#utility.yul\":4563:4578   */\n      swap1\n      pop\n        /* \"#utility.yul\":4539:4652   */\n      jump(tag_105)\n    tag_107:\n        /* \"#utility.yul\":4686:4687   */\n      0x00\n        /* \"#utility.yul\":4677:4683   */\n      dup5\n        /* \"#utility.yul\":4672:4675   */\n      dup5\n        /* \"#utility.yul\":4668:4684   */\n      add\n        /* \"#utility.yul\":4661:4688   */\n      mstore\n        /* \"#utility.yul\":4510:4694   */\n      pop\n        /* \"#utility.yul\":4448:4694   */\n      pop\n      pop\n      pop\n      jump\t// out\n        /* \"#utility.yul\":4700:5090   */\n    tag_49:\n        /* \"#utility.yul\":4806:4809   */\n      0x00\n        /* \"#utility.yul\":4834:4873   */\n      tag_109\n        /* \"#utility.yul\":4867:4872   */\n      dup3\n        /* \"#utility.yul\":4834:4873   */\n      tag_46\n      jump\t// in\n    tag_109:\n        /* \"#utility.yul\":4889:4978   */\n      tag_110\n        /* \"#utility.yul\":4971:4977   */\n      dup2\n        /* \"#utility.yul\":4966:4969   */\n      dup6\n        /* \"#utility.yul\":4889:4978   */\n      tag_47\n      jump\t// in\n    tag_110:\n        /* \"#utility.yul\":4882:4978   */\n      swap4\n      pop\n        /* \"#utility.yul\":4987:5052   */\n      tag_111\n        /* \"#utility.yul\":5045:5051   */\n      dup2\n        /* \"#utility.yul\":5040:5043   */\n      dup6\n        /* \"#utility.yul\":5033:5037   */\n      0x20\n        /* \"#utility.yul\":5026:5031   */\n      dup7\n        /* \"#utility.yul\":5022:5038   */\n      add\n        /* \"#utility.yul\":4987:5052   */\n      tag_48\n      jump\t// in\n    tag_111:\n        /* \"#utility.yul\":5077:5083   */\n      dup1\n        /* \"#utility.yul\":5072:5075   */\n      dup5\n        /* \"#utility.yul\":5068:5084   */\n      add\n        /* \"#utility.yul\":5061:5084   */\n      swap2\n      pop\n        /* \"#utility.yul\":4810:5090   */\n      pop\n        /* \"#utility.yul\":4700:5090   */\n      swap3\n      swap2\n      pop\n      pop\n      jump\t// out\n        /* \"#utility.yul\":5096:5371   */\n    tag_22:\n        /* \"#utility.yul\":5228:5231   */\n      0x00\n        /* \"#utility.yul\":5250:5345   */\n      tag_113\n        /* \"#utility.yul\":5341:5344   */\n      dup3\n        /* \"#utility.yul\":5332:5338   */\n      dup5\n        /* \"#utility.yul\":5250:5345   */\n      tag_49\n      jump\t// in\n    tag_113:\n        /* \"#utility.yul\":5243:5345   */\n      swap2\n      pop\n        /* \"#utility.yul\":5362:5365   */\n      dup2\n        /* \"#utility.yul\":5355:5365   */\n      swap1\n      pop\n        /* \"#utility.yul\":5096:5371   */\n      swap3\n      swap2\n      pop\n      pop\n      jump\t// out\n        /* \"#utility.yul\":5377:5475   */\n    tag_50:\n        /* \"#utility.yul\":5428:5434   */\n      0x00\n        /* \"#utility.yul\":5462:5467   */\n      dup2\n        /* \"#utility.yul\":5456:5468   */\n      mload\n        /* \"#utility.yul\":5446:5468   */\n      swap1\n      pop\n        /* \"#utility.yul\":5377:5475   */\n      swap2\n      swap1\n      pop\n      jump\t// out\n        /* \"#utility.yul\":5481:5628   */\n    tag_51:\n        /* \"#utility.yul\":5582:5593   */\n      0x00\n        /* \"#utility.yul\":5619:5622   */\n      dup2\n        /* \"#utility.yul\":5604:5622   */\n      swap1\n      pop\n        /* \"#utility.yul\":5481:5628   */\n      swap3\n      swap2\n      pop\n      pop\n      jump\t// out\n        /* \"#utility.yul\":5634:6020   */\n    tag_52:\n        /* \"#utility.yul\":5738:5741   */\n      0x00\n        /* \"#utility.yul\":5766:5804   */\n      tag_117\n        /* \"#utility.yul\":5798:5803   */\n      dup3\n        /* \"#utility.yul\":5766:5804   */\n      tag_50\n      jump\t// in\n    tag_117:\n        /* \"#utility.yul\":5820:5908   */\n      tag_118\n        /* \"#utility.yul\":5901:5907   */\n      dup2\n        /* \"#utility.yul\":5896:5899   */\n      dup6\n        /* \"#utility.yul\":5820:5908   */\n      tag_51\n      jump\t// in\n    tag_118:\n        /* \"#utility.yul\":5813:5908   */\n      swap4\n      pop\n        /* \"#utility.yul\":5917:5982   */\n      tag_119\n        /* \"#utility.yul\":5975:5981   */\n      dup2\n        /* \"#utility.yul\":5970:5973   */\n      dup6\n        /* \"#utility.yul\":5963:5967   */\n      0x20\n        /* \"#utility.yul\":5956:5961   */\n      dup7\n        /* \"#utility.yul\":5952:5968   */\n      add\n        /* \"#utility.yul\":5917:5982   */\n      tag_48\n      jump\t// in\n    tag_119:\n        /* \"#utility.yul\":6007:6013   */\n      dup1\n        /* \"#utility.yul\":6002:6005   */\n      dup5\n        /* \"#utility.yul\":5998:6014   */\n      add\n        /* \"#utility.yul\":5991:6014   */\n      swap2\n      pop\n        /* \"#utility.yul\":5742:6020   */\n      pop\n        /* \"#utility.yul\":5634:6020   */\n      swap3\n      swap2\n      pop\n      pop\n      jump\t// out\n        /* \"#utility.yul\":6026:6297   */\n    tag_24:\n        /* \"#utility.yul\":6156:6159   */\n      0x00\n        /* \"#utility.yul\":6178:6271   */\n      tag_121\n        /* \"#utility.yul\":6267:6270   */\n      dup3\n        /* \"#utility.yul\":6258:6264   */\n      dup5\n        /* \"#utility.yul\":6178:6271   */\n      tag_52\n      jump\t// in\n    tag_121:\n        /* \"#utility.yul\":6171:6271   */\n      swap2\n      pop\n        /* \"#utility.yul\":6288:6291   */\n      dup2\n        /* \"#utility.yul\":6281:6291   */\n      swap1\n      pop\n        /* \"#utility.yul\":6026:6297   */\n      swap3\n      swap2\n      pop\n      pop\n      jump\t// out\n        /* \"#utility.yul\":6303:6425   */\n    tag_53:\n        /* \"#utility.yul\":6376:6400   */\n      tag_123\n        /* \"#utility.yul\":6394:6399   */\n      dup2\n        /* \"#utility.yul\":6376:6400   */\n      tag_44\n      jump\t// in\n    tag_123:\n        /* \"#utility.yul\":6369:6374   */\n      dup2\n        /* \"#utility.yul\":6366:6401   */\n      eq\n        /* \"#utility.yul\":6356:6419   */\n      tag_124\n      jumpi\n        /* \"#utility.yul\":6415:6416   */\n      0x00\n        /* \"#utility.yul\":6412:6413   */\n      dup1\n        /* \"#utility.yul\":6405:6417   */\n      revert\n        /* \"#utility.yul\":6356:6419   */\n    tag_124:\n        /* \"#utility.yul\":6303:6425   */\n      pop\n      jump\t// out\n        /* \"#utility.yul\":6431:6574   */\n    tag_54:\n        /* \"#utility.yul\":6488:6493   */\n      0x00\n        /* \"#utility.yul\":6519:6525   */\n      dup2\n        /* \"#utility.yul\":6513:6526   */\n      mload\n        /* \"#utility.yul\":6504:6526   */\n      swap1\n      pop\n        /* \"#utility.yul\":6535:6568   */\n      tag_126\n        /* \"#utility.yul\":6562:6567   */\n      dup2\n        /* \"#utility.yul\":6535:6568   */\n      tag_53\n      jump\t// in\n    tag_126:\n        /* \"#utility.yul\":6431:6574   */\n      swap3\n      swap2\n      pop\n      pop\n      jump\t// out\n        /* \"#utility.yul\":6580:6931   */\n    tag_28:\n        /* \"#utility.yul\":6650:6656   */\n      0x00\n        /* \"#utility.yul\":6699:6701   */\n      0x20\n        /* \"#utility.yul\":6687:6696   */\n      dup3\n        /* \"#utility.yul\":6678:6685   */\n      dup5\n        /* \"#utility.yul\":6674:6697   */\n      sub\n        /* \"#utility.yul\":6670:6702   */\n      slt\n        /* \"#utility.yul\":6667:6786   */\n      iszero\n      tag_128\n      jumpi\n        /* \"#utility.yul\":6705:6784   */\n      tag_129\n      tag_30\n      jump\t// in\n    tag_129:\n        /* \"#utility.yul\":6667:6786   */\n    tag_128:\n        /* \"#utility.yul\":6825:6826   */\n      0x00\n        /* \"#utility.yul\":6850:6914   */\n      tag_130\n        /* \"#utility.yul\":6906:6913   */\n      dup5\n        /* \"#utility.yul\":6897:6903   */\n      dup3\n        /* \"#utility.yul\":6886:6895   */\n      dup6\n        /* \"#utility.yul\":6882:6904   */\n      add\n        /* \"#utility.yul\":6850:6914   */\n      tag_54\n      jump\t// in\n    tag_130:\n        /* \"#utility.yul\":6840:6914   */\n      swap2\n      pop\n        /* \"#utility.yul\":6796:6924   */\n      pop\n        /* \"#utility.yul\":6580:6931   */\n      swap3\n      swap2\n      pop\n      pop\n      jump\t// out\n\n    auxdata: 0xa264697066735822122033e7f4bfe8acfaea94a88cf70e8afa9e0eb75855026ebbb69f71517e192c857464736f6c63430008120033\n}\n",
				"bytecode": {
					"linkReferences": {},
					"object": "608060405234801561001057600080fd5b5061050c806100206000396000f3fe608060405234801561001057600080fd5b50600436106100365760003560e01c806379ff23121461003b578063bc780a0c1461006b575b600080fd5b61005560048036038101906100509190610295565b61009b565b6040516100629190610319565b60405180910390f35b61008560048036038101906100809190610295565b6100c3565b604051610092919061034d565b60405180910390f35b6000816000815181106100b1576100b0610368565b5b602001015160f81c60f81b9050919050565b60006002826040516020016100d89190610408565b6040516020818303038152906040526040516100f49190610466565b602060405180830381855afa158015610111573d6000803e3d6000fd5b5050506040513d601f19601f8201168201806040525081019061013491906104a9565b9050919050565b6000604051905090565b600080fd5b600080fd5b600080fd5b600080fd5b6000601f19601f8301169050919050565b7f4e487b7100000000000000000000000000000000000000000000000000000000600052604160045260246000fd5b6101a282610159565b810181811067ffffffffffffffff821117156101c1576101c061016a565b5b80604052505050565b60006101d461013b565b90506101e08282610199565b919050565b600067ffffffffffffffff821115610200576101ff61016a565b5b61020982610159565b9050602081019050919050565b82818337600083830152505050565b6000610238610233846101e5565b6101ca565b90508281526020810184848401111561025457610253610154565b5b61025f848285610216565b509392505050565b600082601f83011261027c5761027b61014f565b5b813561028c848260208601610225565b91505092915050565b6000602082840312156102ab576102aa610145565b5b600082013567ffffffffffffffff8111156102c9576102c861014a565b5b6102d584828501610267565b91505092915050565b60007fff0000000000000000000000000000000000000000000000000000000000000082169050919050565b610313816102de565b82525050565b600060208201905061032e600083018461030a565b92915050565b6000819050919050565b61034781610334565b82525050565b6000602082019050610362600083018461033e565b92915050565b7f4e487b7100000000000000000000000000000000000000000000000000000000600052603260045260246000fd5b600081519050919050565b600081905092915050565b60005b838110156103cb5780820151818401526020810190506103b0565b60008484015250505050565b60006103e282610397565b6103ec81856103a2565b93506103fc8185602086016103ad565b80840191505092915050565b600061041482846103d7565b915081905092915050565b600081519050919050565b600081905092915050565b60006104408261041f565b61044a818561042a565b935061045a8185602086016103ad565b80840191505092915050565b60006104728284610435565b915081905092915050565b61048681610334565b811461049157600080fd5b50565b6000815190506104a38161047d565b92915050565b6000602082840312156104bf576104be610145565b5b60006104cd84828501610494565b9150509291505056fea264697066735822122033e7f4bfe8acfaea94a88cf70e8afa9e0eb75855026ebbb69f71517e192c857464736f6c63430008120033",
					"opcodes": "PUSH1 0x80 PUSH1 0x40 MSTORE CALLVALUE DUP1 ISZERO PUSH2 0x10 JUMPI PUSH1 0x0 DUP1 REVERT JUMPDEST POP PUSH2 0x50C DUP1 PUSH2 0x20 PUSH1 0x0 CODECOPY PUSH1 0x0 RETURN INVALID PUSH1 0x80 PUSH1 0x40 MSTORE CALLVALUE DUP1 ISZERO PUSH2 0x10 JUMPI PUSH1 0x0 DUP1 REVERT JUMPDEST POP PUSH1 0x4 CALLDATASIZE LT PUSH2 0x36 JUMPI PUSH1 0x0 CALLDATALOAD PUSH1 0xE0 SHR DUP1 PUSH4 0x79FF2312 EQ PUSH2 0x3B JUMPI DUP1 PUSH4 0xBC780A0C EQ PUSH2 0x6B JUMPI JUMPDEST PUSH1 0x0 DUP1 REVERT JUMPDEST PUSH2 0x55 PUSH1 0x4 DUP1 CALLDATASIZE SUB DUP2 ADD SWAP1 PUSH2 0x50 SWAP2 SWAP1 PUSH2 0x295 JUMP JUMPDEST PUSH2 0x9B JUMP JUMPDEST PUSH1 0x40 MLOAD PUSH2 0x62 SWAP2 SWAP1 PUSH2 0x319 JUMP JUMPDEST PUSH1 0x40 MLOAD DUP1 SWAP2 SUB SWAP1 RETURN JUMPDEST PUSH2 0x85 PUSH1 0x4 DUP1 CALLDATASIZE SUB DUP2 ADD SWAP1 PUSH2 0x80 SWAP2 SWAP1 PUSH2 0x295 JUMP JUMPDEST PUSH2 0xC3 JUMP JUMPDEST PUSH1 0x40 MLOAD PUSH2 0x92 SWAP2 SWAP1 PUSH2 0x34D JUMP JUMPDEST PUSH1 0x40 MLOAD DUP1 SWAP2 SUB SWAP1 RETURN JUMPDEST PUSH1 0x0 DUP2 PUSH1 0x0 DUP2 MLOAD DUP2 LT PUSH2 0xB1 JUMPI PUSH2 0xB0 PUSH2 0x368 JUMP JUMPDEST JUMPDEST PUSH1 0x20 ADD ADD MLOAD PUSH1 0xF8 SHR PUSH1 0xF8 SHL SWAP1 POP SWAP2 SWAP1 POP JUMP JUMPDEST PUSH1 0x0 PUSH1 0x2 DUP3 PUSH1 0x40 MLOAD PUSH1 0x20 ADD PUSH2 0xD8 SWAP2 SWAP1 PUSH2 0x408 JUMP JUMPDEST PUSH1 0x40 MLOAD PUSH1 0x20 DUP2 DUP4 SUB SUB DUP2 MSTORE SWAP1 PUSH1 0x40 MSTORE PUSH1 0x40 MLOAD PUSH2 0xF4 SWAP2 SWAP1 PUSH2 0x466 JUMP JUMPDEST PUSH1 0x20 PUSH1 0x40 MLOAD DUP1 DUP4 SUB DUP2 DUP6 GAS STATICCALL ISZERO DUP1 ISZERO PUSH2 0x111 JUMPI RETURNDATASIZE PUSH1 0x0 DUP1 RETURNDATACOPY RETURNDATASIZE PUSH1 0x0 REVERT JUMPDEST POP POP POP PUSH1 0x40 MLOAD RETURNDATASIZE PUSH1 0x1F NOT PUSH1 0x1F DUP3 ADD AND DUP3 ADD DUP1 PUSH1 0x40 MSTORE POP DUP2 ADD SWAP1 PUSH2 0x134 SWAP2 SWAP1 PUSH2 0x4A9 JUMP JUMPDEST SWAP1 POP SWAP2 SWAP1 POP JUMP JUMPDEST PUSH1 0x0 PUSH1 0x40 MLOAD SWAP1 POP SWAP1 JUMP JUMPDEST PUSH1 0x0 DUP1 REVERT JUMPDEST PUSH1 0x0 DUP1 REVERT JUMPDEST PUSH1 0x0 DUP1 REVERT JUMPDEST PUSH1 0x0 DUP1 REVERT JUMPDEST PUSH1 0x0 PUSH1 0x1F NOT PUSH1 0x1F DUP4 ADD AND SWAP1 POP SWAP2 SWAP1 POP JUMP JUMPDEST PUSH32 0x4E487B7100000000000000000000000000000000000000000000000000000000 PUSH1 0x0 MSTORE PUSH1 0x41 PUSH1 0x4 MSTORE PUSH1 0x24 PUSH1 0x0 REVERT JUMPDEST PUSH2 0x1A2 DUP3 PUSH2 0x159 JUMP JUMPDEST DUP2 ADD DUP2 DUP2 LT PUSH8 0xFFFFFFFFFFFFFFFF DUP3 GT OR ISZERO PUSH2 0x1C1 JUMPI PUSH2 0x1C0 PUSH2 0x16A JUMP JUMPDEST JUMPDEST DUP1 PUSH1 0x40 MSTORE POP POP POP JUMP JUMPDEST PUSH1 0x0 PUSH2 0x1D4 PUSH2 0x13B JUMP JUMPDEST SWAP1 POP PUSH2 0x1E0 DUP3 DUP3 PUSH2 0x199 JUMP JUMPDEST SWAP2 SWAP1 POP JUMP JUMPDEST PUSH1 0x0 PUSH8 0xFFFFFFFFFFFFFFFF DUP3 GT ISZERO PUSH2 0x200 JUMPI PUSH2 0x1FF PUSH2 0x16A JUMP JUMPDEST JUMPDEST PUSH2 0x209 DUP3 PUSH2 0x159 JUMP JUMPDEST SWAP1 POP PUSH1 0x20 DUP2 ADD SWAP1 POP SWAP2 SWAP1 POP JUMP JUMPDEST DUP3 DUP2 DUP4 CALLDATACOPY PUSH1 0x0 DUP4 DUP4 ADD MSTORE POP POP POP JUMP JUMPDEST PUSH1 0x0 PUSH2 0x238 PUSH2 0x233 DUP5 PUSH2 0x1E5 JUMP JUMPDEST PUSH2 0x1CA JUMP JUMPDEST SWAP1 POP DUP3 DUP2 MSTORE PUSH1 0x20 DUP2 ADD DUP5 DUP5 DUP5 ADD GT ISZERO PUSH2 0x254 JUMPI PUSH2 0x253 PUSH2 0x154 JUMP JUMPDEST JUMPDEST PUSH2 0x25F DUP5 DUP3 DUP6 PUSH2 0x216 JUMP JUMPDEST POP SWAP4 SWAP3 POP POP POP JUMP JUMPDEST PUSH1 0x0 DUP3 PUSH1 0x1F DUP4 ADD SLT PUSH2 0x27C JUMPI PUSH2 0x27B PUSH2 0x14F JUMP JUMPDEST JUMPDEST DUP2 CALLDATALOAD PUSH2 0x28C DUP5 DUP3 PUSH1 0x20 DUP7 ADD PUSH2 0x225 JUMP JUMPDEST SWAP2 POP POP SWAP3 SWAP2 POP POP JUMP JUMPDEST PUSH1 0x0 PUSH1 0x20 DUP3 DUP5 SUB SLT ISZERO PUSH2 0x2AB JUMPI PUSH2 0x2AA PUSH2 0x145 JUMP JUMPDEST JUMPDEST PUSH1 0x0 DUP3 ADD CALLDATALOAD PUSH8 0xFFFFFFFFFFFFFFFF DUP2 GT ISZERO PUSH2 0x2C9 JUMPI PUSH2 0x2C8 PUSH2 0x14A JUMP JUMPDEST JUMPDEST PUSH2 0x2D5 DUP5 DUP3 DUP6 ADD PUSH2 0x267 JUMP JUMPDEST SWAP2 POP POP SWAP3 SWAP2 POP POP JUMP JUMPDEST PUSH1 0x0 PUSH32 0xFF00000000000000000000000000000000000000000000000000000000000000 DUP3 AND SWAP1 POP SWAP2 SWAP1 POP JUMP JUMPDEST PUSH2 0x313 DUP2 PUSH2 0x2DE JUMP JUMPDEST DUP3 MSTORE POP POP JUMP JUMPDEST PUSH1 0x0 PUSH1 0x20 DUP3 ADD SWAP1 POP PUSH2 0x32E PUSH1 0x0 DUP4 ADD DUP5 PUSH2 0x30A JUMP JUMPDEST SWAP3 SWAP2 POP POP JUMP JUMPDEST PUSH1 0x0 DUP2 SWAP1 POP SWAP2 SWAP1 POP JUMP JUMPDEST PUSH2 0x347 DUP2 PUSH2 0x334 JUMP JUMPDEST DUP3 MSTORE POP POP JUMP JUMPDEST PUSH1 0x0 PUSH1 0x20 DUP3 ADD SWAP1 POP PUSH2 0x362 PUSH1 0x0 DUP4 ADD DUP5 PUSH2 0x33E JUMP JUMPDEST SWAP3 SWAP2 POP POP JUMP JUMPDEST PUSH32 0x4E487B7100000000000000000000000000000000000000000000000000000000 PUSH1 0x0 MSTORE PUSH1 0x32 PUSH1 0x4 MSTORE PUSH1 0x24 PUSH1 0x0 REVERT JUMPDEST PUSH1 0x0 DUP2 MLOAD SWAP1 POP SWAP2 SWAP1 POP JUMP JUMPDEST PUSH1 0x0 DUP2 SWAP1 POP SWAP3 SWAP2 POP POP JUMP JUMPDEST PUSH1 0x0 JUMPDEST DUP4 DUP2 LT ISZERO PUSH2 0x3CB JUMPI DUP1 DUP3 ADD MLOAD DUP2 DUP5 ADD MSTORE PUSH1 0x20 DUP2 ADD SWAP1 POP PUSH2 0x3B0 JUMP JUMPDEST PUSH1 0x0 DUP5 DUP5 ADD MSTORE POP POP POP POP JUMP JUMPDEST PUSH1 0x0 PUSH2 0x3E2 DUP3 PUSH2 0x397 JUMP JUMPDEST PUSH2 0x3EC DUP2 DUP6 PUSH2 0x3A2 JUMP JUMPDEST SWAP4 POP PUSH2 0x3FC DUP2 DUP6 PUSH1 0x20 DUP7 ADD PUSH2 0x3AD JUMP JUMPDEST DUP1 DUP5 ADD SWAP2 POP POP SWAP3 SWAP2 POP POP JUMP JUMPDEST PUSH1 0x0 PUSH2 0x414 DUP3 DUP5 PUSH2 0x3D7 JUMP JUMPDEST SWAP2 POP DUP2 SWAP1 POP SWAP3 SWAP2 POP POP JUMP JUMPDEST PUSH1 0x0 DUP2 MLOAD SWAP1 POP SWAP2 SWAP1 POP JUMP JUMPDEST PUSH1 0x0 DUP2 SWAP1 POP SWAP3 SWAP2 POP POP JUMP JUMPDEST PUSH1 0x0 PUSH2 0x440 DUP3 PUSH2 0x41F JUMP JUMPDEST PUSH2 0x44A DUP2 DUP6 PUSH2 0x42A JUMP JUMPDEST SWAP4 POP PUSH2 0x45A DUP2 DUP6 PUSH1 0x20 DUP7 ADD PUSH2 0x3AD JUMP JUMPDEST DUP1 DUP5 ADD SWAP2 POP POP SWAP3 SWAP2 POP POP JUMP JUMPDEST PUSH1 0x0 PUSH2 0x472 DUP3 DUP5 PUSH2 0x435 JUMP JUMPDEST SWAP2 POP DUP2 SWAP1 POP SWAP3 SWAP2 POP POP JUMP JUMPDEST PUSH2 0x486 DUP2 PUSH2 0x334 JUMP JUMPDEST DUP2 EQ PUSH2 0x491 JUMPI PUSH1 0x0 DUP1 REVERT JUMPDEST POP JUMP JUMPDEST PUSH1 0x0 DUP2 MLOAD SWAP1 POP PUSH2 0x4A3 DUP2 PUSH2 0x47D JUMP JUMPDEST SWAP3 SWAP2 POP POP JUMP JUMPDEST PUSH1 0x0 PUSH1 0x20 DUP3 DUP5 SUB SLT ISZERO PUSH2 0x4BF JUMPI PUSH2 0x4BE PUSH2 0x145 JUMP JUMPDEST JUMPDEST PUSH1 0x0 PUSH2 0x4CD DUP5 DUP3 DUP6 ADD PUSH2 0x494 JUMP JUMPDEST SWAP2 POP POP SWAP3 SWAP2 POP POP JUMP INVALID LOG2 PUSH5 0x6970667358 0x22 SLT KECCAK256 CALLER 0xE7 DELEGATECALL 0xBF 0xE8 0xAC STATICCALL 0xEA SWAP5 0xA8 DUP13 0xF7 0xE DUP11 STATICCALL SWAP15 0xE 0xB7 PC SSTORE MUL PUSH15 0xBBB69F71517E192C857464736F6C63 NUMBER STOP ADDMOD SLT STOP CALLER "
				},
				"gasEstimates": {
					"creation": {
						"codeDepositCost": "258400",
						"executionCost": "300",
						"totalCost": "258700"
					},
					"external": {
						"Hash(string)": "infinite",
						"getFirstChar(string)": "infinite"
					}
				},
				"methodIdentifiers": {
					"Hash(string)": "bc780a0c",
					"getFirstChar(string)": "79ff2312"
				}
			},
			"storageLayout": {
				"storage": [],
				"types": null
			},
			"userdoc": {
				"kind": "user",
				"methods": {},
				"version": 1
			}
		}
	}
}