{
	"BaoBuaKeo.sol": {
		"RockPaperScissors": {
			"abi": [
				{
					"inputs": [],
					"name": "BET_MIN",
					"outputs": [
						{
							"internalType": "uint256",
							"name": "",
							"type": "uint256"
						}
					],
					"stateMutability": "view",
					"type": "function"
				},
				{
					"inputs": [],
					"name": "REVEAL_TIMEOUT",
					"outputs": [
						{
							"internalType": "uint256",
							"name": "",
							"type": "uint256"
						}
					],
					"stateMutability": "view",
					"type": "function"
				},
				{
					"inputs": [],
					"name": "bothPlayed",
					"outputs": [
						{
							"internalType": "bool",
							"name": "",
							"type": "bool"
						}
					],
					"stateMutability": "view",
					"type": "function"
				},
				{
					"inputs": [],
					"name": "bothRevealed",
					"outputs": [
						{
							"internalType": "bool",
							"name": "",
							"type": "bool"
						}
					],
					"stateMutability": "view",
					"type": "function"
				},
				{
					"inputs": [],
					"name": "getContractBalance",
					"outputs": [
						{
							"internalType": "uint256",
							"name": "",
							"type": "uint256"
						}
					],
					"stateMutability": "view",
					"type": "function"
				},
				{
					"inputs": [],
					"name": "getOutcome",
					"outputs": [
						{
							"internalType": "enum RockPaperScissors.Outcomes",
							"name": "",
							"type": "uint8"
						}
					],
					"stateMutability": "nonpayable",
					"type": "function"
				},
				{
					"inputs": [],
					"name": "initialBet",
					"outputs": [
						{
							"internalType": "uint256",
							"name": "",
							"type": "uint256"
						}
					],
					"stateMutability": "view",
					"type": "function"
				},
				{
					"inputs": [
						{
							"internalType": "bytes32",
							"name": "encrMove",
							"type": "bytes32"
						}
					],
					"name": "play",
					"outputs": [
						{
							"internalType": "bool",
							"name": "",
							"type": "bool"
						}
					],
					"stateMutability": "nonpayable",
					"type": "function"
				},
				{
					"inputs": [],
					"name": "register",
					"outputs": [
						{
							"internalType": "uint256",
							"name": "",
							"type": "uint256"
						}
					],
					"stateMutability": "payable",
					"type": "function"
				},
				{
					"inputs": [
						{
							"internalType": "string",
							"name": "clearMove",
							"type": "string"
						}
					],
					"name": "reveal",
					"outputs": [
						{
							"internalType": "enum RockPaperScissors.Moves",
							"name": "",
							"type": "uint8"
						}
					],
					"stateMutability": "nonpayable",
					"type": "function"
				},
				{
					"inputs": [],
					"name": "revealTimeLeft",
					"outputs": [
						{
							"internalType": "int256",
							"name": "",
							"type": "int256"
						}
					],
					"stateMutability": "view",
					"type": "function"
				},
				{
					"inputs": [],
					"name": "whoAmI",
					"outputs": [
						{
							"internalType": "uint256",
							"name": "",
							"type": "uint256"
						}
					],
					"stateMutability": "view",
					"type": "function"
				}
			],
			"devdoc": {
				"kind": "dev",
				"methods": {},
				"version": 1
			},
			"evm": {
				"assembly": "    /* \"BaoBuaKeo.sol\":59:8517  contract RockPaperScissors {... */\n  mstore(0x40, 0x80)\n  callvalue\n  dup1\n  iszero\n  tag_1\n  jumpi\n  0x00\n  dup1\n  revert\ntag_1:\n  pop\n  dataSize(sub_0)\n  dup1\n  dataOffset(sub_0)\n  0x00\n  codecopy\n  0x00\n  return\nstop\n\nsub_0: assembly {\n        /* \"BaoBuaKeo.sol\":59:8517  contract RockPaperScissors {... */\n      mstore(0x40, 0x80)\n      jumpi(tag_1, lt(calldatasize, 0x04))\n      shr(0xe0, calldataload(0x00))\n      dup1\n      0x51dcb1c3\n      gt\n      tag_14\n      jumpi\n      dup1\n      0x51dcb1c3\n      eq\n      tag_8\n      jumpi\n      dup1\n      0x6f9fb98a\n      eq\n      tag_9\n      jumpi\n      dup1\n      0x7e7e4b47\n      eq\n      tag_10\n      jumpi\n      dup1\n      0x807c8504\n      eq\n      tag_11\n      jumpi\n      dup1\n      0xc7a1865b\n      eq\n      tag_12\n      jumpi\n      dup1\n      0xda91254c\n      eq\n      tag_13\n      jumpi\n      jump(tag_1)\n    tag_14:\n      dup1\n      0x1aa3a008\n      eq\n      tag_2\n      jumpi\n      dup1\n      0x1d73c64c\n      eq\n      tag_3\n      jumpi\n      dup1\n      0x2626ab08\n      eq\n      tag_4\n      jumpi\n      dup1\n      0x3d6ae3a7\n      eq\n      tag_5\n      jumpi\n      dup1\n      0x43445ca8\n      eq\n      tag_6\n      jumpi\n      dup1\n      0x4c261247\n      eq\n      tag_7\n      jumpi\n    tag_1:\n      0x00\n      dup1\n      revert\n        /* \"BaoBuaKeo.sol\":1551:1920  function register() public payable validBet notAlreadyRegistered returns (uint) {... */\n    tag_2:\n      tag_15\n      tag_16\n      jump\t// in\n    tag_15:\n      mload(0x40)\n      tag_17\n      swap2\n      swap1\n      tag_18\n      jump\t// in\n    tag_17:\n      mload(0x40)\n      dup1\n      swap2\n      sub\n      swap1\n      return\n        /* \"BaoBuaKeo.sol\":266:288  uint public initialBet */\n    tag_3:\n      callvalue\n      dup1\n      iszero\n      tag_19\n      jumpi\n      0x00\n      dup1\n      revert\n    tag_19:\n      pop\n      tag_20\n      tag_21\n      jump\t// in\n    tag_20:\n      mload(0x40)\n      tag_22\n      swap2\n      swap1\n      tag_18\n      jump\t// in\n    tag_22:\n      mload(0x40)\n      dup1\n      swap2\n      sub\n      swap1\n      return\n        /* \"BaoBuaKeo.sol\":93:135  uint constant public BET_MIN        = 1e16 */\n    tag_4:\n      callvalue\n      dup1\n      iszero\n      tag_23\n      jumpi\n      0x00\n      dup1\n      revert\n    tag_23:\n      pop\n      tag_24\n      tag_25\n      jump\t// in\n    tag_24:\n      mload(0x40)\n      tag_26\n      swap2\n      swap1\n      tag_18\n      jump\t// in\n    tag_26:\n      mload(0x40)\n      dup1\n      swap2\n      sub\n      swap1\n      return\n        /* \"BaoBuaKeo.sol\":178:226  uint constant public REVEAL_TIMEOUT = 10 minutes */\n    tag_5:\n      callvalue\n      dup1\n      iszero\n      tag_27\n      jumpi\n      0x00\n      dup1\n      revert\n    tag_27:\n      pop\n      tag_28\n      tag_29\n      jump\t// in\n    tag_28:\n      mload(0x40)\n      tag_30\n      swap2\n      swap1\n      tag_18\n      jump\t// in\n    tag_30:\n      mload(0x40)\n      dup1\n      swap2\n      sub\n      swap1\n      return\n        /* \"BaoBuaKeo.sol\":8103:8234  function bothRevealed() public view returns (bool) {... */\n    tag_6:\n      callvalue\n      dup1\n      iszero\n      tag_31\n      jumpi\n      0x00\n      dup1\n      revert\n    tag_31:\n      pop\n      tag_32\n      tag_33\n      jump\t// in\n    tag_32:\n      mload(0x40)\n      tag_34\n      swap2\n      swap1\n      tag_35\n      jump\t// in\n    tag_34:\n      mload(0x40)\n      dup1\n      swap2\n      sub\n      swap1\n      return\n        /* \"BaoBuaKeo.sol\":3246:4162  function reveal(string memory clearMove) public isRegistered commitPhaseEnded returns (Moves) {... */\n    tag_7:\n      callvalue\n      dup1\n      iszero\n      tag_36\n      jumpi\n      0x00\n      dup1\n      revert\n    tag_36:\n      pop\n      tag_37\n      0x04\n      dup1\n      calldatasize\n      sub\n      dup2\n      add\n      swap1\n      tag_38\n      swap2\n      swap1\n      tag_39\n      jump\t// in\n    tag_38:\n      tag_40\n      jump\t// in\n    tag_37:\n      mload(0x40)\n      tag_41\n      swap2\n      swap1\n      tag_42\n      jump\t// in\n    tag_41:\n      mload(0x40)\n      dup1\n      swap2\n      sub\n      swap1\n      return\n        /* \"BaoBuaKeo.sol\":8304:8515  function revealTimeLeft() public view returns (int) {... */\n    tag_8:\n      callvalue\n      dup1\n      iszero\n      tag_43\n      jumpi\n      0x00\n      dup1\n      revert\n    tag_43:\n      pop\n      tag_44\n      tag_45\n      jump\t// in\n    tag_44:\n      mload(0x40)\n      tag_46\n      swap2\n      swap1\n      tag_47\n      jump\t// in\n    tag_46:\n      mload(0x40)\n      dup1\n      swap2\n      sub\n      swap1\n      return\n        /* \"BaoBuaKeo.sol\":7448:7550  function getContractBalance() public view returns (uint) {... */\n    tag_9:\n      callvalue\n      dup1\n      iszero\n      tag_48\n      jumpi\n      0x00\n      dup1\n      revert\n    tag_48:\n      pop\n      tag_49\n      tag_50\n      jump\t// in\n    tag_49:\n      mload(0x40)\n      tag_51\n      swap2\n      swap1\n      tag_18\n      jump\t// in\n    tag_51:\n      mload(0x40)\n      dup1\n      swap2\n      sub\n      swap1\n      return\n        /* \"BaoBuaKeo.sol\":5105:6008  function getOutcome() public revealPhaseEnded returns (Outcomes) {... */\n    tag_10:\n      callvalue\n      dup1\n      iszero\n      tag_52\n      jumpi\n      0x00\n      dup1\n      revert\n    tag_52:\n      pop\n      tag_53\n      tag_54\n      jump\t// in\n    tag_53:\n      mload(0x40)\n      tag_55\n      swap2\n      swap1\n      tag_56\n      jump\t// in\n    tag_55:\n      mload(0x40)\n      dup1\n      swap2\n      sub\n      swap1\n      return\n        /* \"BaoBuaKeo.sol\":7892:8015  function bothPlayed() public view returns (bool) {... */\n    tag_11:\n      callvalue\n      dup1\n      iszero\n      tag_57\n      jumpi\n      0x00\n      dup1\n      revert\n    tag_57:\n      pop\n      tag_58\n      tag_59\n      jump\t// in\n    tag_58:\n      mload(0x40)\n      tag_60\n      swap2\n      swap1\n      tag_35\n      jump\t// in\n    tag_60:\n      mload(0x40)\n      dup1\n      swap2\n      sub\n      swap1\n      return\n        /* \"BaoBuaKeo.sol\":2380:2741  function play(bytes32 encrMove) public isRegistered returns (bool) {... */\n    tag_12:\n      callvalue\n      dup1\n      iszero\n      tag_61\n      jumpi\n      0x00\n      dup1\n      revert\n    tag_61:\n      pop\n      tag_62\n      0x04\n      dup1\n      calldatasize\n      sub\n      dup2\n      add\n      swap1\n      tag_63\n      swap2\n      swap1\n      tag_64\n      jump\t// in\n    tag_63:\n      tag_65\n      jump\t// in\n    tag_62:\n      mload(0x40)\n      tag_66\n      swap2\n      swap1\n      tag_35\n      jump\t// in\n    tag_66:\n      mload(0x40)\n      dup1\n      swap2\n      sub\n      swap1\n      return\n        /* \"BaoBuaKeo.sol\":7582:7808  function whoAmI() public view returns (uint) {... */\n    tag_13:\n      callvalue\n      dup1\n      iszero\n      tag_67\n      jumpi\n      0x00\n      dup1\n      revert\n    tag_67:\n      pop\n      tag_68\n      tag_69\n      jump\t// in\n    tag_68:\n      mload(0x40)\n      tag_70\n      swap2\n      swap1\n      tag_18\n      jump\t// in\n    tag_70:\n      mload(0x40)\n      dup1\n      swap2\n      sub\n      swap1\n      return\n        /* \"BaoBuaKeo.sol\":1551:1920  function register() public payable validBet notAlreadyRegistered returns (uint) {... */\n    tag_16:\n        /* \"BaoBuaKeo.sol\":1625:1629  uint */\n      0x00\n        /* \"BaoBuaKeo.sol\":131:135  1e16 */\n      0x2386f26fc10000\n        /* \"BaoBuaKeo.sol\":1242:1251  msg.value */\n      callvalue\n        /* \"BaoBuaKeo.sol\":1242:1262  msg.value >= BET_MIN */\n      lt\n      iszero\n        /* \"BaoBuaKeo.sol\":1234:1263  require(msg.value >= BET_MIN) */\n      tag_72\n      jumpi\n      0x00\n      dup1\n      revert\n    tag_72:\n        /* \"BaoBuaKeo.sol\":1295:1296  0 */\n      0x00\n        /* \"BaoBuaKeo.sol\":1281:1291  initialBet */\n      dup1\n      sload\n        /* \"BaoBuaKeo.sol\":1281:1296  initialBet == 0 */\n      eq\n        /* \"BaoBuaKeo.sol\":1281:1323  initialBet == 0 || msg.value >= initialBet */\n      dup1\n      tag_73\n      jumpi\n      pop\n        /* \"BaoBuaKeo.sol\":1313:1323  initialBet */\n      sload(0x00)\n        /* \"BaoBuaKeo.sol\":1300:1309  msg.value */\n      callvalue\n        /* \"BaoBuaKeo.sol\":1300:1323  msg.value >= initialBet */\n      lt\n      iszero\n        /* \"BaoBuaKeo.sol\":1281:1323  initialBet == 0 || msg.value >= initialBet */\n    tag_73:\n        /* \"BaoBuaKeo.sol\":1273:1324  require(initialBet == 0 || msg.value >= initialBet) */\n      tag_74\n      jumpi\n      0x00\n      dup1\n      revert\n    tag_74:\n        /* \"BaoBuaKeo.sol\":1412:1419  playerA */\n      0x02\n      0x00\n      swap1\n      sload\n      swap1\n      0x0100\n      exp\n      swap1\n      div\n      0xffffffffffffffffffffffffffffffffffffffff\n      and\n        /* \"BaoBuaKeo.sol\":1398:1419  msg.sender != playerA */\n      0xffffffffffffffffffffffffffffffffffffffff\n      and\n        /* \"BaoBuaKeo.sol\":1398:1408  msg.sender */\n      caller\n        /* \"BaoBuaKeo.sol\":1398:1419  msg.sender != playerA */\n      0xffffffffffffffffffffffffffffffffffffffff\n      and\n      eq\n      iszero\n        /* \"BaoBuaKeo.sol\":1398:1444  msg.sender != playerA && msg.sender != playerB */\n      dup1\n      iszero\n      tag_76\n      jumpi\n      pop\n        /* \"BaoBuaKeo.sol\":1437:1444  playerB */\n      0x03\n      0x00\n      swap1\n      sload\n      swap1\n      0x0100\n      exp\n      swap1\n      div\n      0xffffffffffffffffffffffffffffffffffffffff\n      and\n        /* \"BaoBuaKeo.sol\":1423:1444  msg.sender != playerB */\n      0xffffffffffffffffffffffffffffffffffffffff\n      and\n        /* \"BaoBuaKeo.sol\":1423:1433  msg.sender */\n      caller\n        /* \"BaoBuaKeo.sol\":1423:1444  msg.sender != playerB */\n      0xffffffffffffffffffffffffffffffffffffffff\n      and\n      eq\n      iszero\n        /* \"BaoBuaKeo.sol\":1398:1444  msg.sender != playerA && msg.sender != playerB */\n    tag_76:\n        /* \"BaoBuaKeo.sol\":1390:1445  require(msg.sender != playerA && msg.sender != playerB) */\n      tag_77\n      jumpi\n      0x00\n      dup1\n      revert\n    tag_77:\n        /* \"BaoBuaKeo.sol\":1664:1667  0x0 */\n      0x00\n        /* \"BaoBuaKeo.sol\":1645:1668  playerA == address(0x0) */\n      0xffffffffffffffffffffffffffffffffffffffff\n      and\n        /* \"BaoBuaKeo.sol\":1645:1652  playerA */\n      0x02\n      0x00\n      swap1\n      sload\n      swap1\n      0x0100\n      exp\n      swap1\n      div\n      0xffffffffffffffffffffffffffffffffffffffff\n      and\n        /* \"BaoBuaKeo.sol\":1645:1668  playerA == address(0x0) */\n      0xffffffffffffffffffffffffffffffffffffffff\n      and\n      sub\n        /* \"BaoBuaKeo.sol\":1641:1896  if (playerA == address(0x0)) {... */\n      tag_79\n      jumpi\n        /* \"BaoBuaKeo.sol\":1705:1715  msg.sender */\n      caller\n        /* \"BaoBuaKeo.sol\":1684:1691  playerA */\n      0x02\n      0x00\n        /* \"BaoBuaKeo.sol\":1684:1716  playerA    = payable(msg.sender) */\n      0x0100\n      exp\n      dup2\n      sload\n      dup2\n      0xffffffffffffffffffffffffffffffffffffffff\n      mul\n      not\n      and\n      swap1\n      dup4\n      0xffffffffffffffffffffffffffffffffffffffff\n      and\n      mul\n      or\n      swap1\n      sstore\n      pop\n        /* \"BaoBuaKeo.sol\":1743:1752  msg.value */\n      callvalue\n        /* \"BaoBuaKeo.sol\":1730:1740  initialBet */\n      0x00\n        /* \"BaoBuaKeo.sol\":1730:1752  initialBet = msg.value */\n      dup2\n      swap1\n      sstore\n      pop\n        /* \"BaoBuaKeo.sol\":1773:1774  1 */\n      0x01\n        /* \"BaoBuaKeo.sol\":1766:1774  return 1 */\n      swap1\n      pop\n      jump(tag_78)\n        /* \"BaoBuaKeo.sol\":1641:1896  if (playerA == address(0x0)) {... */\n    tag_79:\n        /* \"BaoBuaKeo.sol\":1814:1817  0x0 */\n      0x00\n        /* \"BaoBuaKeo.sol\":1795:1818  playerB == address(0x0) */\n      0xffffffffffffffffffffffffffffffffffffffff\n      and\n        /* \"BaoBuaKeo.sol\":1795:1802  playerB */\n      0x03\n      0x00\n      swap1\n      sload\n      swap1\n      0x0100\n      exp\n      swap1\n      div\n      0xffffffffffffffffffffffffffffffffffffffff\n      and\n        /* \"BaoBuaKeo.sol\":1795:1818  playerB == address(0x0) */\n      0xffffffffffffffffffffffffffffffffffffffff\n      and\n      sub\n        /* \"BaoBuaKeo.sol\":1791:1896  if (playerB == address(0x0)) {... */\n      tag_81\n      jumpi\n        /* \"BaoBuaKeo.sol\":1852:1862  msg.sender */\n      caller\n        /* \"BaoBuaKeo.sol\":1834:1841  playerB */\n      0x03\n      0x00\n        /* \"BaoBuaKeo.sol\":1834:1863  playerB = payable(msg.sender) */\n      0x0100\n      exp\n      dup2\n      sload\n      dup2\n      0xffffffffffffffffffffffffffffffffffffffff\n      mul\n      not\n      and\n      swap1\n      dup4\n      0xffffffffffffffffffffffffffffffffffffffff\n      and\n      mul\n      or\n      swap1\n      sstore\n      pop\n        /* \"BaoBuaKeo.sol\":1884:1885  2 */\n      0x02\n        /* \"BaoBuaKeo.sol\":1877:1885  return 2 */\n      swap1\n      pop\n      jump(tag_78)\n        /* \"BaoBuaKeo.sol\":1791:1896  if (playerB == address(0x0)) {... */\n    tag_81:\n        /* \"BaoBuaKeo.sol\":1912:1913  0 */\n      0x00\n        /* \"BaoBuaKeo.sol\":1905:1913  return 0 */\n      swap1\n      pop\n        /* \"BaoBuaKeo.sol\":1455:1456  _ */\n    tag_78:\n        /* \"BaoBuaKeo.sol\":1551:1920  function register() public payable validBet notAlreadyRegistered returns (uint) {... */\n      swap1\n      jump\t// out\n        /* \"BaoBuaKeo.sol\":266:288  uint public initialBet */\n    tag_21:\n      sload(0x00)\n      dup2\n      jump\t// out\n        /* \"BaoBuaKeo.sol\":93:135  uint constant public BET_MIN        = 1e16 */\n    tag_25:\n        /* \"BaoBuaKeo.sol\":131:135  1e16 */\n      0x2386f26fc10000\n        /* \"BaoBuaKeo.sol\":93:135  uint constant public BET_MIN        = 1e16 */\n      dup2\n      jump\t// out\n        /* \"BaoBuaKeo.sol\":178:226  uint constant public REVEAL_TIMEOUT = 10 minutes */\n    tag_29:\n        /* \"BaoBuaKeo.sol\":216:226  10 minutes */\n      0x0258\n        /* \"BaoBuaKeo.sol\":178:226  uint constant public REVEAL_TIMEOUT = 10 minutes */\n      dup2\n      jump\t// out\n        /* \"BaoBuaKeo.sol\":8103:8234  function bothRevealed() public view returns (bool) {... */\n    tag_33:\n        /* \"BaoBuaKeo.sol\":8148:8152  bool */\n      0x00\n        /* \"BaoBuaKeo.sol\":8187:8197  Moves.None */\n      dup1\n        /* \"BaoBuaKeo.sol\":8172:8197  movePlayerA != Moves.None */\n      0x03\n      dup2\n      gt\n      iszero\n      tag_83\n      jumpi\n      tag_84\n      tag_85\n      jump\t// in\n    tag_84:\n    tag_83:\n        /* \"BaoBuaKeo.sol\":8172:8183  movePlayerA */\n      0x06\n      0x00\n      swap1\n      sload\n      swap1\n      0x0100\n      exp\n      swap1\n      div\n      0xff\n      and\n        /* \"BaoBuaKeo.sol\":8172:8197  movePlayerA != Moves.None */\n      0x03\n      dup2\n      gt\n      iszero\n      tag_86\n      jumpi\n      tag_87\n      tag_85\n      jump\t// in\n    tag_87:\n    tag_86:\n      eq\n      iszero\n        /* \"BaoBuaKeo.sol\":8172:8226  movePlayerA != Moves.None && movePlayerB != Moves.None */\n      dup1\n      iszero\n      tag_88\n      jumpi\n      pop\n        /* \"BaoBuaKeo.sol\":8216:8226  Moves.None */\n      0x00\n        /* \"BaoBuaKeo.sol\":8201:8226  movePlayerB != Moves.None */\n      0x03\n      dup2\n      gt\n      iszero\n      tag_89\n      jumpi\n      tag_90\n      tag_85\n      jump\t// in\n    tag_90:\n    tag_89:\n        /* \"BaoBuaKeo.sol\":8201:8212  movePlayerB */\n      0x06\n      0x01\n      swap1\n      sload\n      swap1\n      0x0100\n      exp\n      swap1\n      div\n      0xff\n      and\n        /* \"BaoBuaKeo.sol\":8201:8226  movePlayerB != Moves.None */\n      0x03\n      dup2\n      gt\n      iszero\n      tag_91\n      jumpi\n      tag_92\n      tag_85\n      jump\t// in\n    tag_92:\n    tag_91:\n      eq\n      iszero\n        /* \"BaoBuaKeo.sol\":8172:8226  movePlayerA != Moves.None && movePlayerB != Moves.None */\n    tag_88:\n        /* \"BaoBuaKeo.sol\":8164:8227  return (movePlayerA != Moves.None && movePlayerB != Moves.None) */\n      swap1\n      pop\n        /* \"BaoBuaKeo.sol\":8103:8234  function bothRevealed() public view returns (bool) {... */\n      swap1\n      jump\t// out\n        /* \"BaoBuaKeo.sol\":3246:4162  function reveal(string memory clearMove) public isRegistered commitPhaseEnded returns (Moves) {... */\n    tag_40:\n        /* \"BaoBuaKeo.sol\":3333:3338  Moves */\n      0x00\n        /* \"BaoBuaKeo.sol\":2227:2234  playerA */\n      0x02\n      0x00\n      swap1\n      sload\n      swap1\n      0x0100\n      exp\n      swap1\n      div\n      0xffffffffffffffffffffffffffffffffffffffff\n      and\n        /* \"BaoBuaKeo.sol\":2213:2234  msg.sender == playerA */\n      0xffffffffffffffffffffffffffffffffffffffff\n      and\n        /* \"BaoBuaKeo.sol\":2213:2223  msg.sender */\n      caller\n        /* \"BaoBuaKeo.sol\":2213:2234  msg.sender == playerA */\n      0xffffffffffffffffffffffffffffffffffffffff\n      and\n      eq\n        /* \"BaoBuaKeo.sol\":2213:2259  msg.sender == playerA || msg.sender == playerB */\n      dup1\n      tag_94\n      jumpi\n      pop\n        /* \"BaoBuaKeo.sol\":2252:2259  playerB */\n      0x03\n      0x00\n      swap1\n      sload\n      swap1\n      0x0100\n      exp\n      swap1\n      div\n      0xffffffffffffffffffffffffffffffffffffffff\n      and\n        /* \"BaoBuaKeo.sol\":2238:2259  msg.sender == playerB */\n      0xffffffffffffffffffffffffffffffffffffffff\n      and\n        /* \"BaoBuaKeo.sol\":2238:2248  msg.sender */\n      caller\n        /* \"BaoBuaKeo.sol\":2238:2259  msg.sender == playerB */\n      0xffffffffffffffffffffffffffffffffffffffff\n      and\n      eq\n        /* \"BaoBuaKeo.sol\":2213:2259  msg.sender == playerA || msg.sender == playerB */\n    tag_94:\n        /* \"BaoBuaKeo.sol\":2204:2260  require (msg.sender == playerA || msg.sender == playerB) */\n      tag_95\n      jumpi\n      0x00\n      dup1\n      revert\n    tag_95:\n        /* \"BaoBuaKeo.sol\":3056:3059  0x0 */\n      0x00\n        /* \"BaoBuaKeo.sol\":3037:3059  encrMovePlayerA != 0x0 */\n      dup1\n      shl\n        /* \"BaoBuaKeo.sol\":3037:3052  encrMovePlayerA */\n      sload(0x04)\n        /* \"BaoBuaKeo.sol\":3037:3059  encrMovePlayerA != 0x0 */\n      eq\n      iszero\n        /* \"BaoBuaKeo.sol\":3037:3085  encrMovePlayerA != 0x0 && encrMovePlayerB != 0x0 */\n      dup1\n      iszero\n      tag_97\n      jumpi\n      pop\n        /* \"BaoBuaKeo.sol\":3082:3085  0x0 */\n      0x00\n        /* \"BaoBuaKeo.sol\":3063:3085  encrMovePlayerB != 0x0 */\n      dup1\n      shl\n        /* \"BaoBuaKeo.sol\":3063:3078  encrMovePlayerB */\n      sload(0x05)\n        /* \"BaoBuaKeo.sol\":3063:3085  encrMovePlayerB != 0x0 */\n      eq\n      iszero\n        /* \"BaoBuaKeo.sol\":3037:3085  encrMovePlayerA != 0x0 && encrMovePlayerB != 0x0 */\n    tag_97:\n        /* \"BaoBuaKeo.sol\":3029:3086  require(encrMovePlayerA != 0x0 && encrMovePlayerB != 0x0) */\n      tag_98\n      jumpi\n      0x00\n      dup1\n      revert\n    tag_98:\n        /* \"BaoBuaKeo.sol\":3350:3366  bytes32 encrMove */\n      0x00\n        /* \"BaoBuaKeo.sol\":3369:3404  sha256(abi.encodePacked(clearMove)) */\n      0x02\n        /* \"BaoBuaKeo.sol\":3393:3402  clearMove */\n      dup4\n        /* \"BaoBuaKeo.sol\":3376:3403  abi.encodePacked(clearMove) */\n      add(0x20, mload(0x40))\n      tag_100\n      swap2\n      swap1\n      tag_101\n      jump\t// in\n    tag_100:\n      mload(0x40)\n      0x20\n      dup2\n      dup4\n      sub\n      sub\n      dup2\n      mstore\n      swap1\n      0x40\n      mstore\n        /* \"BaoBuaKeo.sol\":3369:3404  sha256(abi.encodePacked(clearMove)) */\n      mload(0x40)\n      tag_102\n      swap2\n      swap1\n      tag_103\n      jump\t// in\n    tag_102:\n      0x20\n      mload(0x40)\n      dup1\n      dup4\n      sub\n      dup2\n      dup6\n      gas\n      staticcall\n      iszero\n      dup1\n      iszero\n      tag_105\n      jumpi\n      returndatasize\n      0x00\n      dup1\n      returndatacopy\n      revert(0x00, returndatasize)\n    tag_105:\n      pop\n      pop\n      pop\n      mload(0x40)\n      returndatasize\n      not(0x1f)\n      0x1f\n      dup3\n      add\n      and\n      dup3\n      add\n      dup1\n      0x40\n      mstore\n      pop\n      dup2\n      add\n      swap1\n      tag_106\n      swap2\n      swap1\n      tag_107\n      jump\t// in\n    tag_106:\n        /* \"BaoBuaKeo.sol\":3350:3404  bytes32 encrMove = sha256(abi.encodePacked(clearMove)) */\n      swap1\n      pop\n        /* \"BaoBuaKeo.sol\":3458:3468  Moves move */\n      0x00\n        /* \"BaoBuaKeo.sol\":3483:3506  getFirstChar(clearMove) */\n      tag_108\n        /* \"BaoBuaKeo.sol\":3496:3505  clearMove */\n      dup5\n        /* \"BaoBuaKeo.sol\":3483:3495  getFirstChar */\n      tag_109\n        /* \"BaoBuaKeo.sol\":3483:3506  getFirstChar(clearMove) */\n      jump\t// in\n    tag_108:\n        /* \"BaoBuaKeo.sol\":3477:3507  Moves(getFirstChar(clearMove)) */\n      0x03\n      dup2\n      gt\n      iszero\n      tag_110\n      jumpi\n      tag_111\n      tag_85\n      jump\t// in\n    tag_111:\n    tag_110:\n        /* \"BaoBuaKeo.sol\":3458:3507  Moves move       = Moves(getFirstChar(clearMove)) */\n      swap1\n      pop\n        /* \"BaoBuaKeo.sol\":3610:3620  Moves.None */\n      0x00\n        /* \"BaoBuaKeo.sol\":3602:3620  move == Moves.None */\n      0x03\n      dup2\n      gt\n      iszero\n      tag_112\n      jumpi\n      tag_113\n      tag_85\n      jump\t// in\n    tag_113:\n    tag_112:\n        /* \"BaoBuaKeo.sol\":3602:3606  move */\n      dup2\n        /* \"BaoBuaKeo.sol\":3602:3620  move == Moves.None */\n      0x03\n      dup2\n      gt\n      iszero\n      tag_114\n      jumpi\n      tag_115\n      tag_85\n      jump\t// in\n    tag_115:\n    tag_114:\n      sub\n        /* \"BaoBuaKeo.sol\":3598:3664  if (move == Moves.None) {... */\n      tag_116\n      jumpi\n        /* \"BaoBuaKeo.sol\":3643:3653  Moves.None */\n      0x00\n        /* \"BaoBuaKeo.sol\":3636:3653  return Moves.None */\n      swap3\n      pop\n      pop\n      pop\n      jump(tag_99)\n        /* \"BaoBuaKeo.sol\":3598:3664  if (move == Moves.None) {... */\n    tag_116:\n        /* \"BaoBuaKeo.sol\":3740:3747  playerA */\n      0x02\n      0x00\n      swap1\n      sload\n      swap1\n      0x0100\n      exp\n      swap1\n      div\n      0xffffffffffffffffffffffffffffffffffffffff\n      and\n        /* \"BaoBuaKeo.sol\":3726:3747  msg.sender == playerA */\n      0xffffffffffffffffffffffffffffffffffffffff\n      and\n        /* \"BaoBuaKeo.sol\":3726:3736  msg.sender */\n      caller\n        /* \"BaoBuaKeo.sol\":3726:3747  msg.sender == playerA */\n      0xffffffffffffffffffffffffffffffffffffffff\n      and\n      eq\n        /* \"BaoBuaKeo.sol\":3726:3778  msg.sender == playerA && encrMove == encrMovePlayerA */\n      dup1\n      iszero\n      tag_117\n      jumpi\n      pop\n        /* \"BaoBuaKeo.sol\":3763:3778  encrMovePlayerA */\n      sload(0x04)\n        /* \"BaoBuaKeo.sol\":3751:3759  encrMove */\n      dup3\n        /* \"BaoBuaKeo.sol\":3751:3778  encrMove == encrMovePlayerA */\n      eq\n        /* \"BaoBuaKeo.sol\":3726:3778  msg.sender == playerA && encrMove == encrMovePlayerA */\n    tag_117:\n        /* \"BaoBuaKeo.sol\":3722:3978  if (msg.sender == playerA && encrMove == encrMovePlayerA) {... */\n      iszero\n      tag_118\n      jumpi\n        /* \"BaoBuaKeo.sol\":3808:3812  move */\n      dup1\n        /* \"BaoBuaKeo.sol\":3794:3805  movePlayerA */\n      0x06\n      0x00\n        /* \"BaoBuaKeo.sol\":3794:3812  movePlayerA = move */\n      0x0100\n      exp\n      dup2\n      sload\n      dup2\n      0xff\n      mul\n      not\n      and\n      swap1\n      dup4\n      0x03\n      dup2\n      gt\n      iszero\n      tag_119\n      jumpi\n      tag_120\n      tag_85\n      jump\t// in\n    tag_120:\n    tag_119:\n      mul\n      or\n      swap1\n      sstore\n      pop\n        /* \"BaoBuaKeo.sol\":3722:3978  if (msg.sender == playerA && encrMove == encrMovePlayerA) {... */\n      jump(tag_121)\n    tag_118:\n        /* \"BaoBuaKeo.sol\":3847:3854  playerB */\n      0x03\n      0x00\n      swap1\n      sload\n      swap1\n      0x0100\n      exp\n      swap1\n      div\n      0xffffffffffffffffffffffffffffffffffffffff\n      and\n        /* \"BaoBuaKeo.sol\":3833:3854  msg.sender == playerB */\n      0xffffffffffffffffffffffffffffffffffffffff\n      and\n        /* \"BaoBuaKeo.sol\":3833:3843  msg.sender */\n      caller\n        /* \"BaoBuaKeo.sol\":3833:3854  msg.sender == playerB */\n      0xffffffffffffffffffffffffffffffffffffffff\n      and\n      eq\n        /* \"BaoBuaKeo.sol\":3833:3885  msg.sender == playerB && encrMove == encrMovePlayerB */\n      dup1\n      iszero\n      tag_122\n      jumpi\n      pop\n        /* \"BaoBuaKeo.sol\":3870:3885  encrMovePlayerB */\n      sload(0x05)\n        /* \"BaoBuaKeo.sol\":3858:3866  encrMove */\n      dup3\n        /* \"BaoBuaKeo.sol\":3858:3885  encrMove == encrMovePlayerB */\n      eq\n        /* \"BaoBuaKeo.sol\":3833:3885  msg.sender == playerB && encrMove == encrMovePlayerB */\n    tag_122:\n        /* \"BaoBuaKeo.sol\":3829:3978  if (msg.sender == playerB && encrMove == encrMovePlayerB) {... */\n      iszero\n      tag_123\n      jumpi\n        /* \"BaoBuaKeo.sol\":3915:3919  move */\n      dup1\n        /* \"BaoBuaKeo.sol\":3901:3912  movePlayerB */\n      0x06\n      0x01\n        /* \"BaoBuaKeo.sol\":3901:3919  movePlayerB = move */\n      0x0100\n      exp\n      dup2\n      sload\n      dup2\n      0xff\n      mul\n      not\n      and\n      swap1\n      dup4\n      0x03\n      dup2\n      gt\n      iszero\n      tag_124\n      jumpi\n      tag_125\n      tag_85\n      jump\t// in\n    tag_125:\n    tag_124:\n      mul\n      or\n      swap1\n      sstore\n      pop\n        /* \"BaoBuaKeo.sol\":3829:3978  if (msg.sender == playerB && encrMove == encrMovePlayerB) {... */\n      jump(tag_126)\n    tag_123:\n        /* \"BaoBuaKeo.sol\":3957:3967  Moves.None */\n      0x00\n        /* \"BaoBuaKeo.sol\":3950:3967  return Moves.None */\n      swap3\n      pop\n      pop\n      pop\n      jump(tag_99)\n        /* \"BaoBuaKeo.sol\":3829:3978  if (msg.sender == playerB && encrMove == encrMovePlayerB) {... */\n    tag_126:\n        /* \"BaoBuaKeo.sol\":3722:3978  if (msg.sender == playerA && encrMove == encrMovePlayerA) {... */\n    tag_121:\n        /* \"BaoBuaKeo.sol\":4077:4078  0 */\n      0x00\n        /* \"BaoBuaKeo.sol\":4062:4073  firstReveal */\n      sload(0x01)\n        /* \"BaoBuaKeo.sol\":4062:4078  firstReveal == 0 */\n      sub\n        /* \"BaoBuaKeo.sol\":4058:4134  if (firstReveal == 0) {... */\n      tag_127\n      jumpi\n        /* \"BaoBuaKeo.sol\":4108:4123  block.timestamp */\n      timestamp\n        /* \"BaoBuaKeo.sol\":4094:4105  firstReveal */\n      0x01\n        /* \"BaoBuaKeo.sol\":4094:4123  firstReveal = block.timestamp */\n      dup2\n      swap1\n      sstore\n      pop\n        /* \"BaoBuaKeo.sol\":4058:4134  if (firstReveal == 0) {... */\n    tag_127:\n        /* \"BaoBuaKeo.sol\":4151:4155  move */\n      dup1\n        /* \"BaoBuaKeo.sol\":4144:4155  return move */\n      swap3\n      pop\n      pop\n      pop\n        /* \"BaoBuaKeo.sol\":3096:3097  _ */\n    tag_99:\n        /* \"BaoBuaKeo.sol\":3246:4162  function reveal(string memory clearMove) public isRegistered commitPhaseEnded returns (Moves) {... */\n      swap2\n      swap1\n      pop\n      jump\t// out\n        /* \"BaoBuaKeo.sol\":8304:8515  function revealTimeLeft() public view returns (int) {... */\n    tag_45:\n        /* \"BaoBuaKeo.sol\":8351:8354  int */\n      0x00\n        /* \"BaoBuaKeo.sol\":8385:8386  0 */\n      dup1\n        /* \"BaoBuaKeo.sol\":8370:8381  firstReveal */\n      sload(0x01)\n        /* \"BaoBuaKeo.sol\":8370:8386  firstReveal != 0 */\n      eq\n        /* \"BaoBuaKeo.sol\":8366:8473  if (firstReveal != 0) {... */\n      tag_129\n      jumpi\n        /* \"BaoBuaKeo.sol\":8446:8461  block.timestamp */\n      timestamp\n        /* \"BaoBuaKeo.sol\":216:226  10 minutes */\n      0x0258\n        /* \"BaoBuaKeo.sol\":8414:8425  firstReveal */\n      sload(0x01)\n        /* \"BaoBuaKeo.sol\":8414:8442  firstReveal + REVEAL_TIMEOUT */\n      tag_130\n      swap2\n      swap1\n      tag_131\n      jump\t// in\n    tag_130:\n        /* \"BaoBuaKeo.sol\":8413:8461  (firstReveal + REVEAL_TIMEOUT) - block.timestamp */\n      tag_132\n      swap2\n      swap1\n      tag_133\n      jump\t// in\n    tag_132:\n        /* \"BaoBuaKeo.sol\":8402:8462  return int((firstReveal + REVEAL_TIMEOUT) - block.timestamp) */\n      swap1\n      pop\n      jump(tag_128)\n        /* \"BaoBuaKeo.sol\":8366:8473  if (firstReveal != 0) {... */\n    tag_129:\n        /* \"BaoBuaKeo.sol\":216:226  10 minutes */\n      0x0258\n        /* \"BaoBuaKeo.sol\":8482:8508  return int(REVEAL_TIMEOUT) */\n      swap1\n      pop\n        /* \"BaoBuaKeo.sol\":8304:8515  function revealTimeLeft() public view returns (int) {... */\n    tag_128:\n      swap1\n      jump\t// out\n        /* \"BaoBuaKeo.sol\":7448:7550  function getContractBalance() public view returns (uint) {... */\n    tag_50:\n        /* \"BaoBuaKeo.sol\":7499:7503  uint */\n      0x00\n        /* \"BaoBuaKeo.sol\":7522:7543  address(this).balance */\n      selfbalance\n        /* \"BaoBuaKeo.sol\":7515:7543  return address(this).balance */\n      swap1\n      pop\n        /* \"BaoBuaKeo.sol\":7448:7550  function getContractBalance() public view returns (uint) {... */\n      swap1\n      jump\t// out\n        /* \"BaoBuaKeo.sol\":5105:6008  function getOutcome() public revealPhaseEnded returns (Outcomes) {... */\n    tag_54:\n        /* \"BaoBuaKeo.sol\":5160:5168  Outcomes */\n      0x00\n        /* \"BaoBuaKeo.sol\":4875:4885  Moves.None */\n      dup1\n        /* \"BaoBuaKeo.sol\":4860:4885  movePlayerA != Moves.None */\n      0x03\n      dup2\n      gt\n      iszero\n      tag_136\n      jumpi\n      tag_137\n      tag_85\n      jump\t// in\n    tag_137:\n    tag_136:\n        /* \"BaoBuaKeo.sol\":4860:4871  movePlayerA */\n      0x06\n      0x00\n      swap1\n      sload\n      swap1\n      0x0100\n      exp\n      swap1\n      div\n      0xff\n      and\n        /* \"BaoBuaKeo.sol\":4860:4885  movePlayerA != Moves.None */\n      0x03\n      dup2\n      gt\n      iszero\n      tag_138\n      jumpi\n      tag_139\n      tag_85\n      jump\t// in\n    tag_139:\n    tag_138:\n      eq\n      iszero\n        /* \"BaoBuaKeo.sol\":4860:4914  movePlayerA != Moves.None && movePlayerB != Moves.None */\n      dup1\n      iszero\n      tag_140\n      jumpi\n      pop\n        /* \"BaoBuaKeo.sol\":4904:4914  Moves.None */\n      0x00\n        /* \"BaoBuaKeo.sol\":4889:4914  movePlayerB != Moves.None */\n      0x03\n      dup2\n      gt\n      iszero\n      tag_141\n      jumpi\n      tag_142\n      tag_85\n      jump\t// in\n    tag_142:\n    tag_141:\n        /* \"BaoBuaKeo.sol\":4889:4900  movePlayerB */\n      0x06\n      0x01\n      swap1\n      sload\n      swap1\n      0x0100\n      exp\n      swap1\n      div\n      0xff\n      and\n        /* \"BaoBuaKeo.sol\":4889:4914  movePlayerB != Moves.None */\n      0x03\n      dup2\n      gt\n      iszero\n      tag_143\n      jumpi\n      tag_144\n      tag_85\n      jump\t// in\n    tag_144:\n    tag_143:\n      eq\n      iszero\n        /* \"BaoBuaKeo.sol\":4860:4914  movePlayerA != Moves.None && movePlayerB != Moves.None */\n    tag_140:\n        /* \"BaoBuaKeo.sol\":4859:5003  (movePlayerA != Moves.None && movePlayerB != Moves.None) ||... */\n      dup1\n      tag_145\n      jumpi\n      pop\n        /* \"BaoBuaKeo.sol\":4951:4952  0 */\n      0x00\n        /* \"BaoBuaKeo.sol\":4936:4947  firstReveal */\n      sload(0x01)\n        /* \"BaoBuaKeo.sol\":4936:4952  firstReveal != 0 */\n      eq\n      iszero\n        /* \"BaoBuaKeo.sol\":4936:5002  firstReveal != 0 && block.timestamp > firstReveal + REVEAL_TIMEOUT */\n      dup1\n      iszero\n      tag_146\n      jumpi\n      pop\n        /* \"BaoBuaKeo.sol\":216:226  10 minutes */\n      0x0258\n        /* \"BaoBuaKeo.sol\":4974:4985  firstReveal */\n      sload(0x01)\n        /* \"BaoBuaKeo.sol\":4974:5002  firstReveal + REVEAL_TIMEOUT */\n      tag_147\n      swap2\n      swap1\n      tag_131\n      jump\t// in\n    tag_147:\n        /* \"BaoBuaKeo.sol\":4956:4971  block.timestamp */\n      timestamp\n        /* \"BaoBuaKeo.sol\":4956:5002  block.timestamp > firstReveal + REVEAL_TIMEOUT */\n      gt\n        /* \"BaoBuaKeo.sol\":4936:5002  firstReveal != 0 && block.timestamp > firstReveal + REVEAL_TIMEOUT */\n    tag_146:\n        /* \"BaoBuaKeo.sol\":4859:5003  (movePlayerA != Moves.None && movePlayerB != Moves.None) ||... */\n    tag_145:\n        /* \"BaoBuaKeo.sol\":4851:5004  require((movePlayerA != Moves.None && movePlayerB != Moves.None) ||... */\n      tag_148\n      jumpi\n      0x00\n      dup1\n      revert\n    tag_148:\n        /* \"BaoBuaKeo.sol\":5180:5196  Outcomes outcome */\n      0x00\n        /* \"BaoBuaKeo.sol\":5226:5237  movePlayerB */\n      0x06\n      0x01\n      swap1\n      sload\n      swap1\n      0x0100\n      exp\n      swap1\n      div\n      0xff\n      and\n        /* \"BaoBuaKeo.sol\":5211:5237  movePlayerA == movePlayerB */\n      0x03\n      dup2\n      gt\n      iszero\n      tag_150\n      jumpi\n      tag_151\n      tag_85\n      jump\t// in\n    tag_151:\n    tag_150:\n        /* \"BaoBuaKeo.sol\":5211:5222  movePlayerA */\n      0x06\n      0x00\n      swap1\n      sload\n      swap1\n      0x0100\n      exp\n      swap1\n      div\n      0xff\n      and\n        /* \"BaoBuaKeo.sol\":5211:5237  movePlayerA == movePlayerB */\n      0x03\n      dup2\n      gt\n      iszero\n      tag_152\n      jumpi\n      tag_153\n      tag_85\n      jump\t// in\n    tag_153:\n    tag_152:\n      sub\n        /* \"BaoBuaKeo.sol\":5207:5728  if (movePlayerA == movePlayerB) {... */\n      tag_154\n      jumpi\n        /* \"BaoBuaKeo.sol\":5263:5276  Outcomes.Draw */\n      0x03\n        /* \"BaoBuaKeo.sol\":5253:5276  outcome = Outcomes.Draw */\n      swap1\n      pop\n        /* \"BaoBuaKeo.sol\":5207:5728  if (movePlayerA == movePlayerB) {... */\n      jump(tag_155)\n    tag_154:\n        /* \"BaoBuaKeo.sol\":5313:5323  Moves.Rock */\n      0x01\n        /* \"BaoBuaKeo.sol\":5298:5323  movePlayerA == Moves.Rock */\n      0x03\n      dup2\n      gt\n      iszero\n      tag_156\n      jumpi\n      tag_157\n      tag_85\n      jump\t// in\n    tag_157:\n    tag_156:\n        /* \"BaoBuaKeo.sol\":5298:5309  movePlayerA */\n      0x06\n      0x00\n      swap1\n      sload\n      swap1\n      0x0100\n      exp\n      swap1\n      div\n      0xff\n      and\n        /* \"BaoBuaKeo.sol\":5298:5323  movePlayerA == Moves.Rock */\n      0x03\n      dup2\n      gt\n      iszero\n      tag_158\n      jumpi\n      tag_159\n      tag_85\n      jump\t// in\n    tag_159:\n    tag_158:\n      eq\n        /* \"BaoBuaKeo.sol\":5298:5360  movePlayerA == Moves.Rock     && movePlayerB == Moves.Scissors */\n      dup1\n      iszero\n      tag_160\n      jumpi\n      pop\n        /* \"BaoBuaKeo.sol\":5346:5360  Moves.Scissors */\n      0x03\n        /* \"BaoBuaKeo.sol\":5331:5360  movePlayerB == Moves.Scissors */\n      dup1\n      dup2\n      gt\n      iszero\n      tag_161\n      jumpi\n      tag_162\n      tag_85\n      jump\t// in\n    tag_162:\n    tag_161:\n        /* \"BaoBuaKeo.sol\":5331:5342  movePlayerB */\n      0x06\n      0x01\n      swap1\n      sload\n      swap1\n      0x0100\n      exp\n      swap1\n      div\n      0xff\n      and\n        /* \"BaoBuaKeo.sol\":5331:5360  movePlayerB == Moves.Scissors */\n      0x03\n      dup2\n      gt\n      iszero\n      tag_163\n      jumpi\n      tag_164\n      tag_85\n      jump\t// in\n    tag_164:\n    tag_163:\n      eq\n        /* \"BaoBuaKeo.sol\":5298:5360  movePlayerA == Moves.Rock     && movePlayerB == Moves.Scissors */\n    tag_160:\n        /* \"BaoBuaKeo.sol\":5297:5444  (movePlayerA == Moves.Rock     && movePlayerB == Moves.Scissors) ||... */\n      dup1\n      tag_165\n      jumpi\n      pop\n        /* \"BaoBuaKeo.sol\":5400:5411  Moves.Paper */\n      0x02\n        /* \"BaoBuaKeo.sol\":5385:5411  movePlayerA == Moves.Paper */\n      0x03\n      dup2\n      gt\n      iszero\n      tag_166\n      jumpi\n      tag_167\n      tag_85\n      jump\t// in\n    tag_167:\n    tag_166:\n        /* \"BaoBuaKeo.sol\":5385:5396  movePlayerA */\n      0x06\n      0x00\n      swap1\n      sload\n      swap1\n      0x0100\n      exp\n      swap1\n      div\n      0xff\n      and\n        /* \"BaoBuaKeo.sol\":5385:5411  movePlayerA == Moves.Paper */\n      0x03\n      dup2\n      gt\n      iszero\n      tag_168\n      jumpi\n      tag_169\n      tag_85\n      jump\t// in\n    tag_169:\n    tag_168:\n      eq\n        /* \"BaoBuaKeo.sol\":5385:5443  movePlayerA == Moves.Paper    && movePlayerB == Moves.Rock */\n      dup1\n      iszero\n      tag_170\n      jumpi\n      pop\n        /* \"BaoBuaKeo.sol\":5433:5443  Moves.Rock */\n      0x01\n        /* \"BaoBuaKeo.sol\":5418:5443  movePlayerB == Moves.Rock */\n      0x03\n      dup2\n      gt\n      iszero\n      tag_171\n      jumpi\n      tag_172\n      tag_85\n      jump\t// in\n    tag_172:\n    tag_171:\n        /* \"BaoBuaKeo.sol\":5418:5429  movePlayerB */\n      0x06\n      0x01\n      swap1\n      sload\n      swap1\n      0x0100\n      exp\n      swap1\n      div\n      0xff\n      and\n        /* \"BaoBuaKeo.sol\":5418:5443  movePlayerB == Moves.Rock */\n      0x03\n      dup2\n      gt\n      iszero\n      tag_173\n      jumpi\n      tag_174\n      tag_85\n      jump\t// in\n    tag_174:\n    tag_173:\n      eq\n        /* \"BaoBuaKeo.sol\":5385:5443  movePlayerA == Moves.Paper    && movePlayerB == Moves.Rock */\n    tag_170:\n        /* \"BaoBuaKeo.sol\":5297:5444  (movePlayerA == Moves.Rock     && movePlayerB == Moves.Scissors) ||... */\n    tag_165:\n        /* \"BaoBuaKeo.sol\":5297:5532  (movePlayerA == Moves.Rock     && movePlayerB == Moves.Scissors) ||... */\n      dup1\n      tag_175\n      jumpi\n      pop\n        /* \"BaoBuaKeo.sol\":5487:5501  Moves.Scissors */\n      0x03\n        /* \"BaoBuaKeo.sol\":5472:5501  movePlayerA == Moves.Scissors */\n      dup1\n      dup2\n      gt\n      iszero\n      tag_176\n      jumpi\n      tag_177\n      tag_85\n      jump\t// in\n    tag_177:\n    tag_176:\n        /* \"BaoBuaKeo.sol\":5472:5483  movePlayerA */\n      0x06\n      0x00\n      swap1\n      sload\n      swap1\n      0x0100\n      exp\n      swap1\n      div\n      0xff\n      and\n        /* \"BaoBuaKeo.sol\":5472:5501  movePlayerA == Moves.Scissors */\n      0x03\n      dup2\n      gt\n      iszero\n      tag_178\n      jumpi\n      tag_179\n      tag_85\n      jump\t// in\n    tag_179:\n    tag_178:\n      eq\n        /* \"BaoBuaKeo.sol\":5472:5531  movePlayerA == Moves.Scissors && movePlayerB == Moves.Paper */\n      dup1\n      iszero\n      tag_180\n      jumpi\n      pop\n        /* \"BaoBuaKeo.sol\":5520:5531  Moves.Paper */\n      0x02\n        /* \"BaoBuaKeo.sol\":5505:5531  movePlayerB == Moves.Paper */\n      0x03\n      dup2\n      gt\n      iszero\n      tag_181\n      jumpi\n      tag_182\n      tag_85\n      jump\t// in\n    tag_182:\n    tag_181:\n        /* \"BaoBuaKeo.sol\":5505:5516  movePlayerB */\n      0x06\n      0x01\n      swap1\n      sload\n      swap1\n      0x0100\n      exp\n      swap1\n      div\n      0xff\n      and\n        /* \"BaoBuaKeo.sol\":5505:5531  movePlayerB == Moves.Paper */\n      0x03\n      dup2\n      gt\n      iszero\n      tag_183\n      jumpi\n      tag_184\n      tag_85\n      jump\t// in\n    tag_184:\n    tag_183:\n      eq\n        /* \"BaoBuaKeo.sol\":5472:5531  movePlayerA == Moves.Scissors && movePlayerB == Moves.Paper */\n    tag_180:\n        /* \"BaoBuaKeo.sol\":5297:5532  (movePlayerA == Moves.Rock     && movePlayerB == Moves.Scissors) ||... */\n    tag_175:\n        /* \"BaoBuaKeo.sol\":5297:5618  (movePlayerA == Moves.Rock     && movePlayerB == Moves.Scissors) ||... */\n      dup1\n      tag_185\n      jumpi\n      pop\n        /* \"BaoBuaKeo.sol\":5574:5584  Moves.None */\n      0x00\n        /* \"BaoBuaKeo.sol\":5559:5584  movePlayerA != Moves.None */\n      0x03\n      dup2\n      gt\n      iszero\n      tag_186\n      jumpi\n      tag_187\n      tag_85\n      jump\t// in\n    tag_187:\n    tag_186:\n        /* \"BaoBuaKeo.sol\":5559:5570  movePlayerA */\n      0x06\n      0x00\n      swap1\n      sload\n      swap1\n      0x0100\n      exp\n      swap1\n      div\n      0xff\n      and\n        /* \"BaoBuaKeo.sol\":5559:5584  movePlayerA != Moves.None */\n      0x03\n      dup2\n      gt\n      iszero\n      tag_188\n      jumpi\n      tag_189\n      tag_85\n      jump\t// in\n    tag_189:\n    tag_188:\n      eq\n      iszero\n        /* \"BaoBuaKeo.sol\":5559:5617  movePlayerA != Moves.None     && movePlayerB == Moves.None */\n      dup1\n      iszero\n      tag_190\n      jumpi\n      pop\n        /* \"BaoBuaKeo.sol\":5607:5617  Moves.None */\n      0x00\n        /* \"BaoBuaKeo.sol\":5592:5617  movePlayerB == Moves.None */\n      0x03\n      dup2\n      gt\n      iszero\n      tag_191\n      jumpi\n      tag_192\n      tag_85\n      jump\t// in\n    tag_192:\n    tag_191:\n        /* \"BaoBuaKeo.sol\":5592:5603  movePlayerB */\n      0x06\n      0x01\n      swap1\n      sload\n      swap1\n      0x0100\n      exp\n      swap1\n      div\n      0xff\n      and\n        /* \"BaoBuaKeo.sol\":5592:5617  movePlayerB == Moves.None */\n      0x03\n      dup2\n      gt\n      iszero\n      tag_193\n      jumpi\n      tag_194\n      tag_85\n      jump\t// in\n    tag_194:\n    tag_193:\n      eq\n        /* \"BaoBuaKeo.sol\":5559:5617  movePlayerA != Moves.None     && movePlayerB == Moves.None */\n    tag_190:\n        /* \"BaoBuaKeo.sol\":5297:5618  (movePlayerA == Moves.Rock     && movePlayerB == Moves.Scissors) ||... */\n    tag_185:\n        /* \"BaoBuaKeo.sol\":5293:5728  if ((movePlayerA == Moves.Rock     && movePlayerB == Moves.Scissors) ||... */\n      iszero\n      tag_195\n      jumpi\n        /* \"BaoBuaKeo.sol\":5644:5660  Outcomes.PlayerA */\n      0x01\n        /* \"BaoBuaKeo.sol\":5634:5660  outcome = Outcomes.PlayerA */\n      swap1\n      pop\n        /* \"BaoBuaKeo.sol\":5293:5728  if ((movePlayerA == Moves.Rock     && movePlayerB == Moves.Scissors) ||... */\n      jump(tag_196)\n    tag_195:\n        /* \"BaoBuaKeo.sol\":5701:5717  Outcomes.PlayerB */\n      0x02\n        /* \"BaoBuaKeo.sol\":5691:5717  outcome = Outcomes.PlayerB */\n      swap1\n      pop\n        /* \"BaoBuaKeo.sol\":5293:5728  if ((movePlayerA == Moves.Rock     && movePlayerB == Moves.Scissors) ||... */\n    tag_196:\n        /* \"BaoBuaKeo.sol\":5207:5728  if (movePlayerA == movePlayerB) {... */\n    tag_155:\n        /* \"BaoBuaKeo.sol\":5738:5759  address payable addrA */\n      0x00\n        /* \"BaoBuaKeo.sol\":5762:5769  playerA */\n      0x02\n      0x00\n      swap1\n      sload\n      swap1\n      0x0100\n      exp\n      swap1\n      div\n      0xffffffffffffffffffffffffffffffffffffffff\n      and\n        /* \"BaoBuaKeo.sol\":5738:5769  address payable addrA = playerA */\n      swap1\n      pop\n        /* \"BaoBuaKeo.sol\":5779:5800  address payable addrB */\n      0x00\n        /* \"BaoBuaKeo.sol\":5803:5810  playerB */\n      0x03\n      0x00\n      swap1\n      sload\n      swap1\n      0x0100\n      exp\n      swap1\n      div\n      0xffffffffffffffffffffffffffffffffffffffff\n      and\n        /* \"BaoBuaKeo.sol\":5779:5810  address payable addrB = playerB */\n      swap1\n      pop\n        /* \"BaoBuaKeo.sol\":5820:5835  uint betPlayerA */\n      0x00\n        /* \"BaoBuaKeo.sol\":5844:5854  initialBet */\n      dup1\n      sload\n        /* \"BaoBuaKeo.sol\":5820:5854  uint betPlayerA       = initialBet */\n      swap1\n      pop\n        /* \"BaoBuaKeo.sol\":5864:5871  reset() */\n      tag_197\n        /* \"BaoBuaKeo.sol\":5864:5869  reset */\n      tag_198\n        /* \"BaoBuaKeo.sol\":5864:5871  reset() */\n      jump\t// in\n    tag_197:\n        /* \"BaoBuaKeo.sol\":5938:5976  pay(addrA, addrB, betPlayerA, outcome) */\n      tag_199\n        /* \"BaoBuaKeo.sol\":5942:5947  addrA */\n      dup4\n        /* \"BaoBuaKeo.sol\":5949:5954  addrB */\n      dup4\n        /* \"BaoBuaKeo.sol\":5956:5966  betPlayerA */\n      dup4\n        /* \"BaoBuaKeo.sol\":5968:5975  outcome */\n      dup8\n        /* \"BaoBuaKeo.sol\":5938:5941  pay */\n      tag_200\n        /* \"BaoBuaKeo.sol\":5938:5976  pay(addrA, addrB, betPlayerA, outcome) */\n      jump\t// in\n    tag_199:\n        /* \"BaoBuaKeo.sol\":5994:6001  outcome */\n      dup4\n        /* \"BaoBuaKeo.sol\":5987:6001  return outcome */\n      swap5\n      pop\n      pop\n      pop\n      pop\n      pop\n        /* \"BaoBuaKeo.sol\":5105:6008  function getOutcome() public revealPhaseEnded returns (Outcomes) {... */\n      swap1\n      jump\t// out\n        /* \"BaoBuaKeo.sol\":7892:8015  function bothPlayed() public view returns (bool) {... */\n    tag_59:\n        /* \"BaoBuaKeo.sol\":7935:7939  bool */\n      0x00\n        /* \"BaoBuaKeo.sol\":7978:7981  0x0 */\n      dup1\n        /* \"BaoBuaKeo.sol\":7959:7981  encrMovePlayerA != 0x0 */\n      0x00\n      shl\n        /* \"BaoBuaKeo.sol\":7959:7974  encrMovePlayerA */\n      sload(0x04)\n        /* \"BaoBuaKeo.sol\":7959:7981  encrMovePlayerA != 0x0 */\n      eq\n      iszero\n        /* \"BaoBuaKeo.sol\":7959:8007  encrMovePlayerA != 0x0 && encrMovePlayerB != 0x0 */\n      dup1\n      iszero\n      tag_202\n      jumpi\n      pop\n        /* \"BaoBuaKeo.sol\":8004:8007  0x0 */\n      0x00\n        /* \"BaoBuaKeo.sol\":7985:8007  encrMovePlayerB != 0x0 */\n      dup1\n      shl\n        /* \"BaoBuaKeo.sol\":7985:8000  encrMovePlayerB */\n      sload(0x05)\n        /* \"BaoBuaKeo.sol\":7985:8007  encrMovePlayerB != 0x0 */\n      eq\n      iszero\n        /* \"BaoBuaKeo.sol\":7959:8007  encrMovePlayerA != 0x0 && encrMovePlayerB != 0x0 */\n    tag_202:\n        /* \"BaoBuaKeo.sol\":7951:8008  return (encrMovePlayerA != 0x0 && encrMovePlayerB != 0x0) */\n      swap1\n      pop\n        /* \"BaoBuaKeo.sol\":7892:8015  function bothPlayed() public view returns (bool) {... */\n      swap1\n      jump\t// out\n        /* \"BaoBuaKeo.sol\":2380:2741  function play(bytes32 encrMove) public isRegistered returns (bool) {... */\n    tag_65:\n        /* \"BaoBuaKeo.sol\":2441:2445  bool */\n      0x00\n        /* \"BaoBuaKeo.sol\":2227:2234  playerA */\n      0x02\n      0x00\n      swap1\n      sload\n      swap1\n      0x0100\n      exp\n      swap1\n      div\n      0xffffffffffffffffffffffffffffffffffffffff\n      and\n        /* \"BaoBuaKeo.sol\":2213:2234  msg.sender == playerA */\n      0xffffffffffffffffffffffffffffffffffffffff\n      and\n        /* \"BaoBuaKeo.sol\":2213:2223  msg.sender */\n      caller\n        /* \"BaoBuaKeo.sol\":2213:2234  msg.sender == playerA */\n      0xffffffffffffffffffffffffffffffffffffffff\n      and\n      eq\n        /* \"BaoBuaKeo.sol\":2213:2259  msg.sender == playerA || msg.sender == playerB */\n      dup1\n      tag_204\n      jumpi\n      pop\n        /* \"BaoBuaKeo.sol\":2252:2259  playerB */\n      0x03\n      0x00\n      swap1\n      sload\n      swap1\n      0x0100\n      exp\n      swap1\n      div\n      0xffffffffffffffffffffffffffffffffffffffff\n      and\n        /* \"BaoBuaKeo.sol\":2238:2259  msg.sender == playerB */\n      0xffffffffffffffffffffffffffffffffffffffff\n      and\n        /* \"BaoBuaKeo.sol\":2238:2248  msg.sender */\n      caller\n        /* \"BaoBuaKeo.sol\":2238:2259  msg.sender == playerB */\n      0xffffffffffffffffffffffffffffffffffffffff\n      and\n      eq\n        /* \"BaoBuaKeo.sol\":2213:2259  msg.sender == playerA || msg.sender == playerB */\n    tag_204:\n        /* \"BaoBuaKeo.sol\":2204:2260  require (msg.sender == playerA || msg.sender == playerB) */\n      tag_205\n      jumpi\n      0x00\n      dup1\n      revert\n    tag_205:\n        /* \"BaoBuaKeo.sol\":2475:2482  playerA */\n      0x02\n      0x00\n      swap1\n      sload\n      swap1\n      0x0100\n      exp\n      swap1\n      div\n      0xffffffffffffffffffffffffffffffffffffffff\n      and\n        /* \"BaoBuaKeo.sol\":2461:2482  msg.sender == playerA */\n      0xffffffffffffffffffffffffffffffffffffffff\n      and\n        /* \"BaoBuaKeo.sol\":2461:2471  msg.sender */\n      caller\n        /* \"BaoBuaKeo.sol\":2461:2482  msg.sender == playerA */\n      0xffffffffffffffffffffffffffffffffffffffff\n      and\n      eq\n        /* \"BaoBuaKeo.sol\":2461:2508  msg.sender == playerA && encrMovePlayerA == 0x0 */\n      dup1\n      iszero\n      tag_207\n      jumpi\n      pop\n        /* \"BaoBuaKeo.sol\":2505:2508  0x0 */\n      0x00\n        /* \"BaoBuaKeo.sol\":2486:2508  encrMovePlayerA == 0x0 */\n      dup1\n      shl\n        /* \"BaoBuaKeo.sol\":2486:2501  encrMovePlayerA */\n      sload(0x04)\n        /* \"BaoBuaKeo.sol\":2486:2508  encrMovePlayerA == 0x0 */\n      eq\n        /* \"BaoBuaKeo.sol\":2461:2508  msg.sender == playerA && encrMovePlayerA == 0x0 */\n    tag_207:\n        /* \"BaoBuaKeo.sol\":2457:2714  if (msg.sender == playerA && encrMovePlayerA == 0x0) {... */\n      iszero\n      tag_208\n      jumpi\n        /* \"BaoBuaKeo.sol\":2542:2550  encrMove */\n      dup2\n        /* \"BaoBuaKeo.sol\":2524:2539  encrMovePlayerA */\n      0x04\n        /* \"BaoBuaKeo.sol\":2524:2550  encrMovePlayerA = encrMove */\n      dup2\n      swap1\n      sstore\n      pop\n        /* \"BaoBuaKeo.sol\":2457:2714  if (msg.sender == playerA && encrMovePlayerA == 0x0) {... */\n      jump(tag_209)\n    tag_208:\n        /* \"BaoBuaKeo.sol\":2585:2592  playerB */\n      0x03\n      0x00\n      swap1\n      sload\n      swap1\n      0x0100\n      exp\n      swap1\n      div\n      0xffffffffffffffffffffffffffffffffffffffff\n      and\n        /* \"BaoBuaKeo.sol\":2571:2592  msg.sender == playerB */\n      0xffffffffffffffffffffffffffffffffffffffff\n      and\n        /* \"BaoBuaKeo.sol\":2571:2581  msg.sender */\n      caller\n        /* \"BaoBuaKeo.sol\":2571:2592  msg.sender == playerB */\n      0xffffffffffffffffffffffffffffffffffffffff\n      and\n      eq\n        /* \"BaoBuaKeo.sol\":2571:2618  msg.sender == playerB && encrMovePlayerB == 0x0 */\n      dup1\n      iszero\n      tag_210\n      jumpi\n      pop\n        /* \"BaoBuaKeo.sol\":2615:2618  0x0 */\n      0x00\n        /* \"BaoBuaKeo.sol\":2596:2618  encrMovePlayerB == 0x0 */\n      dup1\n      shl\n        /* \"BaoBuaKeo.sol\":2596:2611  encrMovePlayerB */\n      sload(0x05)\n        /* \"BaoBuaKeo.sol\":2596:2618  encrMovePlayerB == 0x0 */\n      eq\n        /* \"BaoBuaKeo.sol\":2571:2618  msg.sender == playerB && encrMovePlayerB == 0x0 */\n    tag_210:\n        /* \"BaoBuaKeo.sol\":2567:2714  if (msg.sender == playerB && encrMovePlayerB == 0x0) {... */\n      iszero\n      tag_211\n      jumpi\n        /* \"BaoBuaKeo.sol\":2652:2660  encrMove */\n      dup2\n        /* \"BaoBuaKeo.sol\":2634:2649  encrMovePlayerB */\n      0x05\n        /* \"BaoBuaKeo.sol\":2634:2660  encrMovePlayerB = encrMove */\n      dup2\n      swap1\n      sstore\n      pop\n        /* \"BaoBuaKeo.sol\":2567:2714  if (msg.sender == playerB && encrMovePlayerB == 0x0) {... */\n      jump(tag_212)\n    tag_211:\n        /* \"BaoBuaKeo.sol\":2698:2703  false */\n      0x00\n        /* \"BaoBuaKeo.sol\":2691:2703  return false */\n      swap1\n      pop\n      jump(tag_206)\n        /* \"BaoBuaKeo.sol\":2567:2714  if (msg.sender == playerB && encrMovePlayerB == 0x0) {... */\n    tag_212:\n        /* \"BaoBuaKeo.sol\":2457:2714  if (msg.sender == playerA && encrMovePlayerA == 0x0) {... */\n    tag_209:\n        /* \"BaoBuaKeo.sol\":2730:2734  true */\n      0x01\n        /* \"BaoBuaKeo.sol\":2723:2734  return true */\n      swap1\n      pop\n        /* \"BaoBuaKeo.sol\":2270:2271  _ */\n    tag_206:\n        /* \"BaoBuaKeo.sol\":2380:2741  function play(bytes32 encrMove) public isRegistered returns (bool) {... */\n      swap2\n      swap1\n      pop\n      jump\t// out\n        /* \"BaoBuaKeo.sol\":7582:7808  function whoAmI() public view returns (uint) {... */\n    tag_69:\n        /* \"BaoBuaKeo.sol\":7621:7625  uint */\n      0x00\n        /* \"BaoBuaKeo.sol\":7655:7662  playerA */\n      0x02\n      0x00\n      swap1\n      sload\n      swap1\n      0x0100\n      exp\n      swap1\n      div\n      0xffffffffffffffffffffffffffffffffffffffff\n      and\n        /* \"BaoBuaKeo.sol\":7641:7662  msg.sender == playerA */\n      0xffffffffffffffffffffffffffffffffffffffff\n      and\n        /* \"BaoBuaKeo.sol\":7641:7651  msg.sender */\n      caller\n        /* \"BaoBuaKeo.sol\":7641:7662  msg.sender == playerA */\n      0xffffffffffffffffffffffffffffffffffffffff\n      and\n      sub\n        /* \"BaoBuaKeo.sol\":7637:7802  if (msg.sender == playerA) {... */\n      tag_214\n      jumpi\n        /* \"BaoBuaKeo.sol\":7685:7686  1 */\n      0x01\n        /* \"BaoBuaKeo.sol\":7678:7686  return 1 */\n      swap1\n      pop\n      jump(tag_213)\n        /* \"BaoBuaKeo.sol\":7637:7802  if (msg.sender == playerA) {... */\n    tag_214:\n        /* \"BaoBuaKeo.sol\":7721:7728  playerB */\n      0x03\n      0x00\n      swap1\n      sload\n      swap1\n      0x0100\n      exp\n      swap1\n      div\n      0xffffffffffffffffffffffffffffffffffffffff\n      and\n        /* \"BaoBuaKeo.sol\":7707:7728  msg.sender == playerB */\n      0xffffffffffffffffffffffffffffffffffffffff\n      and\n        /* \"BaoBuaKeo.sol\":7707:7717  msg.sender */\n      caller\n        /* \"BaoBuaKeo.sol\":7707:7728  msg.sender == playerB */\n      0xffffffffffffffffffffffffffffffffffffffff\n      and\n      sub\n        /* \"BaoBuaKeo.sol\":7703:7802  if (msg.sender == playerB) {... */\n      tag_216\n      jumpi\n        /* \"BaoBuaKeo.sol\":7751:7752  2 */\n      0x02\n        /* \"BaoBuaKeo.sol\":7744:7752  return 2 */\n      swap1\n      pop\n      jump(tag_213)\n        /* \"BaoBuaKeo.sol\":7703:7802  if (msg.sender == playerB) {... */\n    tag_216:\n        /* \"BaoBuaKeo.sol\":7790:7791  0 */\n      0x00\n        /* \"BaoBuaKeo.sol\":7783:7791  return 0 */\n      swap1\n      pop\n        /* \"BaoBuaKeo.sol\":7582:7808  function whoAmI() public view returns (uint) {... */\n    tag_213:\n      swap1\n      jump\t// out\n        /* \"BaoBuaKeo.sol\":4217:4563  function getFirstChar(string memory str) private pure returns (uint) {... */\n    tag_109:\n        /* \"BaoBuaKeo.sol\":4280:4284  uint */\n      0x00\n        /* \"BaoBuaKeo.sol\":4296:4312  bytes1 firstByte */\n      dup1\n        /* \"BaoBuaKeo.sol\":4321:4324  str */\n      dup3\n        /* \"BaoBuaKeo.sol\":4326:4327  0 */\n      0x00\n        /* \"BaoBuaKeo.sol\":4315:4328  bytes(str)[0] */\n      dup2\n      mload\n      dup2\n      lt\n      tag_219\n      jumpi\n      tag_220\n      tag_221\n      jump\t// in\n    tag_220:\n    tag_219:\n      0x20\n      add\n      add\n      mload\n      0xf8\n      shr\n      0xf8\n      shl\n        /* \"BaoBuaKeo.sol\":4296:4328  bytes1 firstByte = bytes(str)[0] */\n      swap1\n      pop\n        /* \"BaoBuaKeo.sol\":4355:4359  0x52 */\n      0x52\n        /* \"BaoBuaKeo.sol\":4342:4359  firstByte == 0x52 */\n      0xf8\n      shl\n        /* \"BaoBuaKeo.sol\":4342:4351  firstByte */\n      dup2\n        /* \"BaoBuaKeo.sol\":4342:4359  firstByte == 0x52 */\n      not(0xffffffffffffffffffffffffffffffffffffffffffffffffffffffffffffff)\n      and\n      sub\n        /* \"BaoBuaKeo.sol\":4338:4557  if (firstByte == 0x52) {... */\n      tag_222\n      jumpi\n        /* \"BaoBuaKeo.sol\":4382:4383  1 */\n      0x01\n        /* \"BaoBuaKeo.sol\":4375:4383  return 1 */\n      swap2\n      pop\n      pop\n      jump(tag_218)\n        /* \"BaoBuaKeo.sol\":4338:4557  if (firstByte == 0x52) {... */\n    tag_222:\n        /* \"BaoBuaKeo.sol\":4417:4421  0x50 */\n      0x50\n        /* \"BaoBuaKeo.sol\":4404:4421  firstByte == 0x50 */\n      0xf8\n      shl\n        /* \"BaoBuaKeo.sol\":4404:4413  firstByte */\n      dup2\n        /* \"BaoBuaKeo.sol\":4404:4421  firstByte == 0x50 */\n      not(0xffffffffffffffffffffffffffffffffffffffffffffffffffffffffffffff)\n      and\n      sub\n        /* \"BaoBuaKeo.sol\":4400:4557  if (firstByte == 0x50) {... */\n      tag_224\n      jumpi\n        /* \"BaoBuaKeo.sol\":4444:4445  2 */\n      0x02\n        /* \"BaoBuaKeo.sol\":4437:4445  return 2 */\n      swap2\n      pop\n      pop\n      jump(tag_218)\n        /* \"BaoBuaKeo.sol\":4400:4557  if (firstByte == 0x50) {... */\n    tag_224:\n        /* \"BaoBuaKeo.sol\":4479:4483  0x53 */\n      0x53\n        /* \"BaoBuaKeo.sol\":4466:4483  firstByte == 0x53 */\n      0xf8\n      shl\n        /* \"BaoBuaKeo.sol\":4466:4475  firstByte */\n      dup2\n        /* \"BaoBuaKeo.sol\":4466:4483  firstByte == 0x53 */\n      not(0xffffffffffffffffffffffffffffffffffffffffffffffffffffffffffffff)\n      and\n      sub\n        /* \"BaoBuaKeo.sol\":4462:4557  if (firstByte == 0x53) {... */\n      tag_226\n      jumpi\n        /* \"BaoBuaKeo.sol\":4506:4507  3 */\n      0x03\n        /* \"BaoBuaKeo.sol\":4499:4507  return 3 */\n      swap2\n      pop\n      pop\n      jump(tag_218)\n        /* \"BaoBuaKeo.sol\":4462:4557  if (firstByte == 0x53) {... */\n    tag_226:\n        /* \"BaoBuaKeo.sol\":4545:4546  0 */\n      0x00\n        /* \"BaoBuaKeo.sol\":4538:4546  return 0 */\n      swap2\n      pop\n      pop\n        /* \"BaoBuaKeo.sol\":4217:4563  function getFirstChar(string memory str) private pure returns (uint) {... */\n    tag_218:\n      swap2\n      swap1\n      pop\n      jump\t// out\n        /* \"BaoBuaKeo.sol\":6841:7167  function reset() private {... */\n    tag_198:\n        /* \"BaoBuaKeo.sol\":6894:6895  0 */\n      0x00\n        /* \"BaoBuaKeo.sol\":6876:6886  initialBet */\n      dup1\n        /* \"BaoBuaKeo.sol\":6876:6895  initialBet      = 0 */\n      dup2\n      swap1\n      sstore\n      pop\n        /* \"BaoBuaKeo.sol\":6923:6924  0 */\n      0x00\n        /* \"BaoBuaKeo.sol\":6905:6916  firstReveal */\n      0x01\n        /* \"BaoBuaKeo.sol\":6905:6924  firstReveal     = 0 */\n      dup2\n      swap1\n      sstore\n      pop\n        /* \"BaoBuaKeo.sol\":6968:6971  0x0 */\n      0x00\n        /* \"BaoBuaKeo.sol\":6934:6941  playerA */\n      0x02\n      0x00\n        /* \"BaoBuaKeo.sol\":6934:6973  playerA         = payable(address(0x0)) */\n      0x0100\n      exp\n      dup2\n      sload\n      dup2\n      0xffffffffffffffffffffffffffffffffffffffff\n      mul\n      not\n      and\n      swap1\n      dup4\n      0xffffffffffffffffffffffffffffffffffffffff\n      and\n      mul\n      or\n      swap1\n      sstore\n      pop\n        /* \"BaoBuaKeo.sol\":7017:7020  0x0 */\n      0x00\n        /* \"BaoBuaKeo.sol\":6983:6990  playerB */\n      0x03\n      0x00\n        /* \"BaoBuaKeo.sol\":6983:7022  playerB         = payable(address(0x0)) */\n      0x0100\n      exp\n      dup2\n      sload\n      dup2\n      0xffffffffffffffffffffffffffffffffffffffff\n      mul\n      not\n      and\n      swap1\n      dup4\n      0xffffffffffffffffffffffffffffffffffffffff\n      and\n      mul\n      or\n      swap1\n      sstore\n      pop\n        /* \"BaoBuaKeo.sol\":7050:7053  0x0 */\n      0x00\n        /* \"BaoBuaKeo.sol\":7032:7053  encrMovePlayerA = 0x0 */\n      dup1\n      shl\n        /* \"BaoBuaKeo.sol\":7032:7047  encrMovePlayerA */\n      0x04\n        /* \"BaoBuaKeo.sol\":7032:7053  encrMovePlayerA = 0x0 */\n      dup2\n      swap1\n      sstore\n      pop\n        /* \"BaoBuaKeo.sol\":7081:7084  0x0 */\n      0x00\n        /* \"BaoBuaKeo.sol\":7063:7084  encrMovePlayerB = 0x0 */\n      dup1\n      shl\n        /* \"BaoBuaKeo.sol\":7063:7078  encrMovePlayerB */\n      0x05\n        /* \"BaoBuaKeo.sol\":7063:7084  encrMovePlayerB = 0x0 */\n      dup2\n      swap1\n      sstore\n      pop\n        /* \"BaoBuaKeo.sol\":7112:7122  Moves.None */\n      0x00\n        /* \"BaoBuaKeo.sol\":7094:7105  movePlayerA */\n      0x06\n      0x00\n        /* \"BaoBuaKeo.sol\":7094:7122  movePlayerA     = Moves.None */\n      0x0100\n      exp\n      dup2\n      sload\n      dup2\n      0xff\n      mul\n      not\n      and\n      swap1\n      dup4\n      0x03\n      dup2\n      gt\n      iszero\n      tag_229\n      jumpi\n      tag_230\n      tag_85\n      jump\t// in\n    tag_230:\n    tag_229:\n      mul\n      or\n      swap1\n      sstore\n      pop\n        /* \"BaoBuaKeo.sol\":7150:7160  Moves.None */\n      0x00\n        /* \"BaoBuaKeo.sol\":7132:7143  movePlayerB */\n      0x06\n      0x01\n        /* \"BaoBuaKeo.sol\":7132:7160  movePlayerB     = Moves.None */\n      0x0100\n      exp\n      dup2\n      sload\n      dup2\n      0xff\n      mul\n      not\n      and\n      swap1\n      dup4\n      0x03\n      dup2\n      gt\n      iszero\n      tag_231\n      jumpi\n      tag_232\n      tag_85\n      jump\t// in\n    tag_232:\n    tag_231:\n      mul\n      or\n      swap1\n      sstore\n      pop\n        /* \"BaoBuaKeo.sol\":6841:7167  function reset() private {... */\n      jump\t// out\n        /* \"BaoBuaKeo.sol\":6040:6812  function pay(address payable addrA, address payable addrB, uint betPlayerA, Outcomes outcome) private {... */\n    tag_200:\n        /* \"BaoBuaKeo.sol\":6236:6252  Outcomes.PlayerA */\n      0x01\n        /* \"BaoBuaKeo.sol\":6225:6252  outcome == Outcomes.PlayerA */\n      0x03\n      dup2\n      gt\n      iszero\n      tag_234\n      jumpi\n      tag_235\n      tag_85\n      jump\t// in\n    tag_235:\n    tag_234:\n        /* \"BaoBuaKeo.sol\":6225:6232  outcome */\n      dup2\n        /* \"BaoBuaKeo.sol\":6225:6252  outcome == Outcomes.PlayerA */\n      0x03\n      dup2\n      gt\n      iszero\n      tag_236\n      jumpi\n      tag_237\n      tag_85\n      jump\t// in\n    tag_237:\n    tag_236:\n      sub\n        /* \"BaoBuaKeo.sol\":6221:6806  if (outcome == Outcomes.PlayerA) {... */\n      tag_238\n      jumpi\n        /* \"BaoBuaKeo.sol\":6268:6273  addrA */\n      dup4\n        /* \"BaoBuaKeo.sol\":6268:6282  addrA.transfer */\n      0xffffffffffffffffffffffffffffffffffffffff\n      and\n        /* \"BaoBuaKeo.sol\":6268:6305  addrA.transfer(address(this).balance) */\n      0x08fc\n        /* \"BaoBuaKeo.sol\":6283:6304  address(this).balance */\n      selfbalance\n        /* \"BaoBuaKeo.sol\":6268:6305  addrA.transfer(address(this).balance) */\n      swap1\n      dup2\n      iszero\n      mul\n      swap1\n      mload(0x40)\n      0x00\n      mload(0x40)\n      dup1\n      dup4\n      sub\n      dup2\n      dup6\n      dup9\n      dup9\n      call\n      swap4\n      pop\n      pop\n      pop\n      pop\n      iszero\n      dup1\n      iszero\n      tag_240\n      jumpi\n      returndatasize\n      0x00\n      dup1\n      returndatacopy\n      revert(0x00, returndatasize)\n    tag_240:\n      pop\n        /* \"BaoBuaKeo.sol\":6221:6806  if (outcome == Outcomes.PlayerA) {... */\n      jump(tag_241)\n    tag_238:\n        /* \"BaoBuaKeo.sol\":6410:6426  Outcomes.PlayerB */\n      0x02\n        /* \"BaoBuaKeo.sol\":6399:6426  outcome == Outcomes.PlayerB */\n      0x03\n      dup2\n      gt\n      iszero\n      tag_242\n      jumpi\n      tag_243\n      tag_85\n      jump\t// in\n    tag_243:\n    tag_242:\n        /* \"BaoBuaKeo.sol\":6399:6406  outcome */\n      dup2\n        /* \"BaoBuaKeo.sol\":6399:6426  outcome == Outcomes.PlayerB */\n      0x03\n      dup2\n      gt\n      iszero\n      tag_244\n      jumpi\n      tag_245\n      tag_85\n      jump\t// in\n    tag_245:\n    tag_244:\n      sub\n        /* \"BaoBuaKeo.sol\":6395:6806  if (outcome == Outcomes.PlayerB) {... */\n      tag_246\n      jumpi\n        /* \"BaoBuaKeo.sol\":6442:6447  addrB */\n      dup3\n        /* \"BaoBuaKeo.sol\":6442:6456  addrB.transfer */\n      0xffffffffffffffffffffffffffffffffffffffff\n      and\n        /* \"BaoBuaKeo.sol\":6442:6479  addrB.transfer(address(this).balance) */\n      0x08fc\n        /* \"BaoBuaKeo.sol\":6457:6478  address(this).balance */\n      selfbalance\n        /* \"BaoBuaKeo.sol\":6442:6479  addrB.transfer(address(this).balance) */\n      swap1\n      dup2\n      iszero\n      mul\n      swap1\n      mload(0x40)\n      0x00\n      mload(0x40)\n      dup1\n      dup4\n      sub\n      dup2\n      dup6\n      dup9\n      dup9\n      call\n      swap4\n      pop\n      pop\n      pop\n      pop\n      iszero\n      dup1\n      iszero\n      tag_248\n      jumpi\n      returndatasize\n      0x00\n      dup1\n      returndatacopy\n      revert(0x00, returndatasize)\n    tag_248:\n      pop\n        /* \"BaoBuaKeo.sol\":6395:6806  if (outcome == Outcomes.PlayerB) {... */\n      jump(tag_249)\n    tag_246:\n        /* \"BaoBuaKeo.sol\":6583:6588  addrA */\n      dup4\n        /* \"BaoBuaKeo.sol\":6583:6597  addrA.transfer */\n      0xffffffffffffffffffffffffffffffffffffffff\n      and\n        /* \"BaoBuaKeo.sol\":6583:6609  addrA.transfer(betPlayerA) */\n      0x08fc\n        /* \"BaoBuaKeo.sol\":6598:6608  betPlayerA */\n      dup4\n        /* \"BaoBuaKeo.sol\":6583:6609  addrA.transfer(betPlayerA) */\n      swap1\n      dup2\n      iszero\n      mul\n      swap1\n      mload(0x40)\n      0x00\n      mload(0x40)\n      dup1\n      dup4\n      sub\n      dup2\n      dup6\n      dup9\n      dup9\n      call\n      swap4\n      pop\n      pop\n      pop\n      pop\n      iszero\n      dup1\n      iszero\n      tag_251\n      jumpi\n      returndatasize\n      0x00\n      dup1\n      returndatacopy\n      revert(0x00, returndatasize)\n    tag_251:\n      pop\n        /* \"BaoBuaKeo.sol\":6623:6628  addrB */\n      dup3\n        /* \"BaoBuaKeo.sol\":6623:6637  addrB.transfer */\n      0xffffffffffffffffffffffffffffffffffffffff\n      and\n        /* \"BaoBuaKeo.sol\":6623:6660  addrB.transfer(address(this).balance) */\n      0x08fc\n        /* \"BaoBuaKeo.sol\":6638:6659  address(this).balance */\n      selfbalance\n        /* \"BaoBuaKeo.sol\":6623:6660  addrB.transfer(address(this).balance) */\n      swap1\n      dup2\n      iszero\n      mul\n      swap1\n      mload(0x40)\n      0x00\n      mload(0x40)\n      dup1\n      dup4\n      sub\n      dup2\n      dup6\n      dup9\n      dup9\n      call\n      swap4\n      pop\n      pop\n      pop\n      pop\n      iszero\n      dup1\n      iszero\n      tag_253\n      jumpi\n      returndatasize\n      0x00\n      dup1\n      returndatacopy\n      revert(0x00, returndatasize)\n    tag_253:\n      pop\n        /* \"BaoBuaKeo.sol\":6395:6806  if (outcome == Outcomes.PlayerB) {... */\n    tag_249:\n        /* \"BaoBuaKeo.sol\":6221:6806  if (outcome == Outcomes.PlayerA) {... */\n    tag_241:\n        /* \"BaoBuaKeo.sol\":6040:6812  function pay(address payable addrA, address payable addrB, uint betPlayerA, Outcomes outcome) private {... */\n      pop\n      pop\n      pop\n      pop\n      jump\t// out\n        /* \"#utility.yul\":7:84   */\n    tag_254:\n        /* \"#utility.yul\":44:51   */\n      0x00\n        /* \"#utility.yul\":73:78   */\n      dup2\n        /* \"#utility.yul\":62:78   */\n      swap1\n      pop\n        /* \"#utility.yul\":7:84   */\n      swap2\n      swap1\n      pop\n      jump\t// out\n        /* \"#utility.yul\":90:208   */\n    tag_255:\n        /* \"#utility.yul\":177:201   */\n      tag_296\n        /* \"#utility.yul\":195:200   */\n      dup2\n        /* \"#utility.yul\":177:201   */\n      tag_254\n      jump\t// in\n    tag_296:\n        /* \"#utility.yul\":172:175   */\n      dup3\n        /* \"#utility.yul\":165:202   */\n      mstore\n        /* \"#utility.yul\":90:208   */\n      pop\n      pop\n      jump\t// out\n        /* \"#utility.yul\":214:436   */\n    tag_18:\n        /* \"#utility.yul\":307:311   */\n      0x00\n        /* \"#utility.yul\":345:347   */\n      0x20\n        /* \"#utility.yul\":334:343   */\n      dup3\n        /* \"#utility.yul\":330:348   */\n      add\n        /* \"#utility.yul\":322:348   */\n      swap1\n      pop\n        /* \"#utility.yul\":358:429   */\n      tag_298\n        /* \"#utility.yul\":426:427   */\n      0x00\n        /* \"#utility.yul\":415:424   */\n      dup4\n        /* \"#utility.yul\":411:428   */\n      add\n        /* \"#utility.yul\":402:408   */\n      dup5\n        /* \"#utility.yul\":358:429   */\n      tag_255\n      jump\t// in\n    tag_298:\n        /* \"#utility.yul\":214:436   */\n      swap3\n      swap2\n      pop\n      pop\n      jump\t// out\n        /* \"#utility.yul\":442:532   */\n    tag_256:\n        /* \"#utility.yul\":476:483   */\n      0x00\n        /* \"#utility.yul\":519:524   */\n      dup2\n        /* \"#utility.yul\":512:525   */\n      iszero\n        /* \"#utility.yul\":505:526   */\n      iszero\n        /* \"#utility.yul\":494:526   */\n      swap1\n      pop\n        /* \"#utility.yul\":442:532   */\n      swap2\n      swap1\n      pop\n      jump\t// out\n        /* \"#utility.yul\":538:647   */\n    tag_257:\n        /* \"#utility.yul\":619:640   */\n      tag_301\n        /* \"#utility.yul\":634:639   */\n      dup2\n        /* \"#utility.yul\":619:640   */\n      tag_256\n      jump\t// in\n    tag_301:\n        /* \"#utility.yul\":614:617   */\n      dup3\n        /* \"#utility.yul\":607:641   */\n      mstore\n        /* \"#utility.yul\":538:647   */\n      pop\n      pop\n      jump\t// out\n        /* \"#utility.yul\":653:863   */\n    tag_35:\n        /* \"#utility.yul\":740:744   */\n      0x00\n        /* \"#utility.yul\":778:780   */\n      0x20\n        /* \"#utility.yul\":767:776   */\n      dup3\n        /* \"#utility.yul\":763:781   */\n      add\n        /* \"#utility.yul\":755:781   */\n      swap1\n      pop\n        /* \"#utility.yul\":791:856   */\n      tag_303\n        /* \"#utility.yul\":853:854   */\n      0x00\n        /* \"#utility.yul\":842:851   */\n      dup4\n        /* \"#utility.yul\":838:855   */\n      add\n        /* \"#utility.yul\":829:835   */\n      dup5\n        /* \"#utility.yul\":791:856   */\n      tag_257\n      jump\t// in\n    tag_303:\n        /* \"#utility.yul\":653:863   */\n      swap3\n      swap2\n      pop\n      pop\n      jump\t// out\n        /* \"#utility.yul\":869:944   */\n    tag_258:\n        /* \"#utility.yul\":902:908   */\n      0x00\n        /* \"#utility.yul\":935:937   */\n      0x40\n        /* \"#utility.yul\":929:938   */\n      mload\n        /* \"#utility.yul\":919:938   */\n      swap1\n      pop\n        /* \"#utility.yul\":869:944   */\n      swap1\n      jump\t// out\n        /* \"#utility.yul\":950:1067   */\n    tag_259:\n        /* \"#utility.yul\":1059:1060   */\n      0x00\n        /* \"#utility.yul\":1056:1057   */\n      dup1\n        /* \"#utility.yul\":1049:1061   */\n      revert\n        /* \"#utility.yul\":1073:1190   */\n    tag_260:\n        /* \"#utility.yul\":1182:1183   */\n      0x00\n        /* \"#utility.yul\":1179:1180   */\n      dup1\n        /* \"#utility.yul\":1172:1184   */\n      revert\n        /* \"#utility.yul\":1196:1313   */\n    tag_261:\n        /* \"#utility.yul\":1305:1306   */\n      0x00\n        /* \"#utility.yul\":1302:1303   */\n      dup1\n        /* \"#utility.yul\":1295:1307   */\n      revert\n        /* \"#utility.yul\":1319:1436   */\n    tag_262:\n        /* \"#utility.yul\":1428:1429   */\n      0x00\n        /* \"#utility.yul\":1425:1426   */\n      dup1\n        /* \"#utility.yul\":1418:1430   */\n      revert\n        /* \"#utility.yul\":1442:1544   */\n    tag_263:\n        /* \"#utility.yul\":1483:1489   */\n      0x00\n        /* \"#utility.yul\":1534:1536   */\n      0x1f\n        /* \"#utility.yul\":1530:1537   */\n      not\n        /* \"#utility.yul\":1525:1527   */\n      0x1f\n        /* \"#utility.yul\":1518:1523   */\n      dup4\n        /* \"#utility.yul\":1514:1528   */\n      add\n        /* \"#utility.yul\":1510:1538   */\n      and\n        /* \"#utility.yul\":1500:1538   */\n      swap1\n      pop\n        /* \"#utility.yul\":1442:1544   */\n      swap2\n      swap1\n      pop\n      jump\t// out\n        /* \"#utility.yul\":1550:1730   */\n    tag_264:\n        /* \"#utility.yul\":1598:1675   */\n      0x4e487b7100000000000000000000000000000000000000000000000000000000\n        /* \"#utility.yul\":1595:1596   */\n      0x00\n        /* \"#utility.yul\":1588:1676   */\n      mstore\n        /* \"#utility.yul\":1695:1699   */\n      0x41\n        /* \"#utility.yul\":1692:1693   */\n      0x04\n        /* \"#utility.yul\":1685:1700   */\n      mstore\n        /* \"#utility.yul\":1719:1723   */\n      0x24\n        /* \"#utility.yul\":1716:1717   */\n      0x00\n        /* \"#utility.yul\":1709:1724   */\n      revert\n        /* \"#utility.yul\":1736:2017   */\n    tag_265:\n        /* \"#utility.yul\":1819:1846   */\n      tag_312\n        /* \"#utility.yul\":1841:1845   */\n      dup3\n        /* \"#utility.yul\":1819:1846   */\n      tag_263\n      jump\t// in\n    tag_312:\n        /* \"#utility.yul\":1811:1817   */\n      dup2\n        /* \"#utility.yul\":1807:1847   */\n      add\n        /* \"#utility.yul\":1949:1955   */\n      dup2\n        /* \"#utility.yul\":1937:1947   */\n      dup2\n        /* \"#utility.yul\":1934:1956   */\n      lt\n        /* \"#utility.yul\":1913:1931   */\n      0xffffffffffffffff\n        /* \"#utility.yul\":1901:1911   */\n      dup3\n        /* \"#utility.yul\":1898:1932   */\n      gt\n        /* \"#utility.yul\":1895:1957   */\n      or\n        /* \"#utility.yul\":1892:1980   */\n      iszero\n      tag_313\n      jumpi\n        /* \"#utility.yul\":1960:1978   */\n      tag_314\n      tag_264\n      jump\t// in\n    tag_314:\n        /* \"#utility.yul\":1892:1980   */\n    tag_313:\n        /* \"#utility.yul\":2000:2010   */\n      dup1\n        /* \"#utility.yul\":1996:1998   */\n      0x40\n        /* \"#utility.yul\":1989:2011   */\n      mstore\n        /* \"#utility.yul\":1779:2017   */\n      pop\n        /* \"#utility.yul\":1736:2017   */\n      pop\n      pop\n      jump\t// out\n        /* \"#utility.yul\":2023:2152   */\n    tag_266:\n        /* \"#utility.yul\":2057:2063   */\n      0x00\n        /* \"#utility.yul\":2084:2104   */\n      tag_316\n      tag_258\n      jump\t// in\n    tag_316:\n        /* \"#utility.yul\":2074:2104   */\n      swap1\n      pop\n        /* \"#utility.yul\":2113:2146   */\n      tag_317\n        /* \"#utility.yul\":2141:2145   */\n      dup3\n        /* \"#utility.yul\":2133:2139   */\n      dup3\n        /* \"#utility.yul\":2113:2146   */\n      tag_265\n      jump\t// in\n    tag_317:\n        /* \"#utility.yul\":2023:2152   */\n      swap2\n      swap1\n      pop\n      jump\t// out\n        /* \"#utility.yul\":2158:2466   */\n    tag_267:\n        /* \"#utility.yul\":2220:2224   */\n      0x00\n        /* \"#utility.yul\":2310:2328   */\n      0xffffffffffffffff\n        /* \"#utility.yul\":2302:2308   */\n      dup3\n        /* \"#utility.yul\":2299:2329   */\n      gt\n        /* \"#utility.yul\":2296:2352   */\n      iszero\n      tag_319\n      jumpi\n        /* \"#utility.yul\":2332:2350   */\n      tag_320\n      tag_264\n      jump\t// in\n    tag_320:\n        /* \"#utility.yul\":2296:2352   */\n    tag_319:\n        /* \"#utility.yul\":2370:2399   */\n      tag_321\n        /* \"#utility.yul\":2392:2398   */\n      dup3\n        /* \"#utility.yul\":2370:2399   */\n      tag_263\n      jump\t// in\n    tag_321:\n        /* \"#utility.yul\":2362:2399   */\n      swap1\n      pop\n        /* \"#utility.yul\":2454:2458   */\n      0x20\n        /* \"#utility.yul\":2448:2452   */\n      dup2\n        /* \"#utility.yul\":2444:2459   */\n      add\n        /* \"#utility.yul\":2436:2459   */\n      swap1\n      pop\n        /* \"#utility.yul\":2158:2466   */\n      swap2\n      swap1\n      pop\n      jump\t// out\n        /* \"#utility.yul\":2472:2618   */\n    tag_268:\n        /* \"#utility.yul\":2569:2575   */\n      dup3\n        /* \"#utility.yul\":2564:2567   */\n      dup2\n        /* \"#utility.yul\":2559:2562   */\n      dup4\n        /* \"#utility.yul\":2546:2576   */\n      calldatacopy\n        /* \"#utility.yul\":2610:2611   */\n      0x00\n        /* \"#utility.yul\":2601:2607   */\n      dup4\n        /* \"#utility.yul\":2596:2599   */\n      dup4\n        /* \"#utility.yul\":2592:2608   */\n      add\n        /* \"#utility.yul\":2585:2612   */\n      mstore\n        /* \"#utility.yul\":2472:2618   */\n      pop\n      pop\n      pop\n      jump\t// out\n        /* \"#utility.yul\":2624:3049   */\n    tag_269:\n        /* \"#utility.yul\":2702:2707   */\n      0x00\n        /* \"#utility.yul\":2727:2793   */\n      tag_324\n        /* \"#utility.yul\":2743:2792   */\n      tag_325\n        /* \"#utility.yul\":2785:2791   */\n      dup5\n        /* \"#utility.yul\":2743:2792   */\n      tag_267\n      jump\t// in\n    tag_325:\n        /* \"#utility.yul\":2727:2793   */\n      tag_266\n      jump\t// in\n    tag_324:\n        /* \"#utility.yul\":2718:2793   */\n      swap1\n      pop\n        /* \"#utility.yul\":2816:2822   */\n      dup3\n        /* \"#utility.yul\":2809:2814   */\n      dup2\n        /* \"#utility.yul\":2802:2823   */\n      mstore\n        /* \"#utility.yul\":2854:2858   */\n      0x20\n        /* \"#utility.yul\":2847:2852   */\n      dup2\n        /* \"#utility.yul\":2843:2859   */\n      add\n        /* \"#utility.yul\":2892:2895   */\n      dup5\n        /* \"#utility.yul\":2883:2889   */\n      dup5\n        /* \"#utility.yul\":2878:2881   */\n      dup5\n        /* \"#utility.yul\":2874:2890   */\n      add\n        /* \"#utility.yul\":2871:2896   */\n      gt\n        /* \"#utility.yul\":2868:2980   */\n      iszero\n      tag_326\n      jumpi\n        /* \"#utility.yul\":2899:2978   */\n      tag_327\n      tag_262\n      jump\t// in\n    tag_327:\n        /* \"#utility.yul\":2868:2980   */\n    tag_326:\n        /* \"#utility.yul\":2989:3043   */\n      tag_328\n        /* \"#utility.yul\":3036:3042   */\n      dup5\n        /* \"#utility.yul\":3031:3034   */\n      dup3\n        /* \"#utility.yul\":3026:3029   */\n      dup6\n        /* \"#utility.yul\":2989:3043   */\n      tag_268\n      jump\t// in\n    tag_328:\n        /* \"#utility.yul\":2708:3049   */\n      pop\n        /* \"#utility.yul\":2624:3049   */\n      swap4\n      swap3\n      pop\n      pop\n      pop\n      jump\t// out\n        /* \"#utility.yul\":3069:3409   */\n    tag_270:\n        /* \"#utility.yul\":3125:3130   */\n      0x00\n        /* \"#utility.yul\":3174:3177   */\n      dup3\n        /* \"#utility.yul\":3167:3171   */\n      0x1f\n        /* \"#utility.yul\":3159:3165   */\n      dup4\n        /* \"#utility.yul\":3155:3172   */\n      add\n        /* \"#utility.yul\":3151:3178   */\n      slt\n        /* \"#utility.yul\":3141:3263   */\n      tag_330\n      jumpi\n        /* \"#utility.yul\":3182:3261   */\n      tag_331\n      tag_261\n      jump\t// in\n    tag_331:\n        /* \"#utility.yul\":3141:3263   */\n    tag_330:\n        /* \"#utility.yul\":3299:3305   */\n      dup2\n        /* \"#utility.yul\":3286:3306   */\n      calldataload\n        /* \"#utility.yul\":3324:3403   */\n      tag_332\n        /* \"#utility.yul\":3399:3402   */\n      dup5\n        /* \"#utility.yul\":3391:3397   */\n      dup3\n        /* \"#utility.yul\":3384:3388   */\n      0x20\n        /* \"#utility.yul\":3376:3382   */\n      dup7\n        /* \"#utility.yul\":3372:3389   */\n      add\n        /* \"#utility.yul\":3324:3403   */\n      tag_269\n      jump\t// in\n    tag_332:\n        /* \"#utility.yul\":3315:3403   */\n      swap2\n      pop\n        /* \"#utility.yul\":3131:3409   */\n      pop\n        /* \"#utility.yul\":3069:3409   */\n      swap3\n      swap2\n      pop\n      pop\n      jump\t// out\n        /* \"#utility.yul\":3415:3924   */\n    tag_39:\n        /* \"#utility.yul\":3484:3490   */\n      0x00\n        /* \"#utility.yul\":3533:3535   */\n      0x20\n        /* \"#utility.yul\":3521:3530   */\n      dup3\n        /* \"#utility.yul\":3512:3519   */\n      dup5\n        /* \"#utility.yul\":3508:3531   */\n      sub\n        /* \"#utility.yul\":3504:3536   */\n      slt\n        /* \"#utility.yul\":3501:3620   */\n      iszero\n      tag_334\n      jumpi\n        /* \"#utility.yul\":3539:3618   */\n      tag_335\n      tag_259\n      jump\t// in\n    tag_335:\n        /* \"#utility.yul\":3501:3620   */\n    tag_334:\n        /* \"#utility.yul\":3687:3688   */\n      0x00\n        /* \"#utility.yul\":3676:3685   */\n      dup3\n        /* \"#utility.yul\":3672:3689   */\n      add\n        /* \"#utility.yul\":3659:3690   */\n      calldataload\n        /* \"#utility.yul\":3717:3735   */\n      0xffffffffffffffff\n        /* \"#utility.yul\":3709:3715   */\n      dup2\n        /* \"#utility.yul\":3706:3736   */\n      gt\n        /* \"#utility.yul\":3703:3820   */\n      iszero\n      tag_336\n      jumpi\n        /* \"#utility.yul\":3739:3818   */\n      tag_337\n      tag_260\n      jump\t// in\n    tag_337:\n        /* \"#utility.yul\":3703:3820   */\n    tag_336:\n        /* \"#utility.yul\":3844:3907   */\n      tag_338\n        /* \"#utility.yul\":3899:3906   */\n      dup5\n        /* \"#utility.yul\":3890:3896   */\n      dup3\n        /* \"#utility.yul\":3879:3888   */\n      dup6\n        /* \"#utility.yul\":3875:3897   */\n      add\n        /* \"#utility.yul\":3844:3907   */\n      tag_270\n      jump\t// in\n    tag_338:\n        /* \"#utility.yul\":3834:3907   */\n      swap2\n      pop\n        /* \"#utility.yul\":3630:3917   */\n      pop\n        /* \"#utility.yul\":3415:3924   */\n      swap3\n      swap2\n      pop\n      pop\n      jump\t// out\n        /* \"#utility.yul\":3930:4110   */\n    tag_85:\n        /* \"#utility.yul\":3978:4055   */\n      0x4e487b7100000000000000000000000000000000000000000000000000000000\n        /* \"#utility.yul\":3975:3976   */\n      0x00\n        /* \"#utility.yul\":3968:4056   */\n      mstore\n        /* \"#utility.yul\":4075:4079   */\n      0x21\n        /* \"#utility.yul\":4072:4073   */\n      0x04\n        /* \"#utility.yul\":4065:4080   */\n      mstore\n        /* \"#utility.yul\":4099:4103   */\n      0x24\n        /* \"#utility.yul\":4096:4097   */\n      0x00\n        /* \"#utility.yul\":4089:4104   */\n      revert\n        /* \"#utility.yul\":4116:4229   */\n    tag_271:\n        /* \"#utility.yul\":4197:4198   */\n      0x04\n        /* \"#utility.yul\":4190:4195   */\n      dup2\n        /* \"#utility.yul\":4187:4199   */\n      lt\n        /* \"#utility.yul\":4177:4223   */\n      tag_341\n      jumpi\n        /* \"#utility.yul\":4203:4221   */\n      tag_342\n      tag_85\n      jump\t// in\n    tag_342:\n        /* \"#utility.yul\":4177:4223   */\n    tag_341:\n        /* \"#utility.yul\":4116:4229   */\n      pop\n      jump\t// out\n        /* \"#utility.yul\":4235:4362   */\n    tag_272:\n        /* \"#utility.yul\":4280:4287   */\n      0x00\n        /* \"#utility.yul\":4309:4314   */\n      dup2\n        /* \"#utility.yul\":4298:4314   */\n      swap1\n      pop\n        /* \"#utility.yul\":4315:4356   */\n      tag_344\n        /* \"#utility.yul\":4350:4355   */\n      dup3\n        /* \"#utility.yul\":4315:4356   */\n      tag_271\n      jump\t// in\n    tag_344:\n        /* \"#utility.yul\":4235:4362   */\n      swap2\n      swap1\n      pop\n      jump\t// out\n        /* \"#utility.yul\":4368:4495   */\n    tag_273:\n        /* \"#utility.yul\":4424:4433   */\n      0x00\n        /* \"#utility.yul\":4457:4489   */\n      tag_346\n        /* \"#utility.yul\":4483:4488   */\n      dup3\n        /* \"#utility.yul\":4457:4489   */\n      tag_272\n      jump\t// in\n    tag_346:\n        /* \"#utility.yul\":4444:4489   */\n      swap1\n      pop\n        /* \"#utility.yul\":4368:4495   */\n      swap2\n      swap1\n      pop\n      jump\t// out\n        /* \"#utility.yul\":4501:4644   */\n    tag_274:\n        /* \"#utility.yul\":4594:4637   */\n      tag_348\n        /* \"#utility.yul\":4631:4636   */\n      dup2\n        /* \"#utility.yul\":4594:4637   */\n      tag_273\n      jump\t// in\n    tag_348:\n        /* \"#utility.yul\":4589:4592   */\n      dup3\n        /* \"#utility.yul\":4582:4638   */\n      mstore\n        /* \"#utility.yul\":4501:4644   */\n      pop\n      pop\n      jump\t// out\n        /* \"#utility.yul\":4650:4884   */\n    tag_42:\n        /* \"#utility.yul\":4749:4753   */\n      0x00\n        /* \"#utility.yul\":4787:4789   */\n      0x20\n        /* \"#utility.yul\":4776:4785   */\n      dup3\n        /* \"#utility.yul\":4772:4790   */\n      add\n        /* \"#utility.yul\":4764:4790   */\n      swap1\n      pop\n        /* \"#utility.yul\":4800:4877   */\n      tag_350\n        /* \"#utility.yul\":4874:4875   */\n      0x00\n        /* \"#utility.yul\":4863:4872   */\n      dup4\n        /* \"#utility.yul\":4859:4876   */\n      add\n        /* \"#utility.yul\":4850:4856   */\n      dup5\n        /* \"#utility.yul\":4800:4877   */\n      tag_274\n      jump\t// in\n    tag_350:\n        /* \"#utility.yul\":4650:4884   */\n      swap3\n      swap2\n      pop\n      pop\n      jump\t// out\n        /* \"#utility.yul\":4890:4966   */\n    tag_275:\n        /* \"#utility.yul\":4926:4933   */\n      0x00\n        /* \"#utility.yul\":4955:4960   */\n      dup2\n        /* \"#utility.yul\":4944:4960   */\n      swap1\n      pop\n        /* \"#utility.yul\":4890:4966   */\n      swap2\n      swap1\n      pop\n      jump\t// out\n        /* \"#utility.yul\":4972:5087   */\n    tag_276:\n        /* \"#utility.yul\":5057:5080   */\n      tag_353\n        /* \"#utility.yul\":5074:5079   */\n      dup2\n        /* \"#utility.yul\":5057:5080   */\n      tag_275\n      jump\t// in\n    tag_353:\n        /* \"#utility.yul\":5052:5055   */\n      dup3\n        /* \"#utility.yul\":5045:5081   */\n      mstore\n        /* \"#utility.yul\":4972:5087   */\n      pop\n      pop\n      jump\t// out\n        /* \"#utility.yul\":5093:5311   */\n    tag_47:\n        /* \"#utility.yul\":5184:5188   */\n      0x00\n        /* \"#utility.yul\":5222:5224   */\n      0x20\n        /* \"#utility.yul\":5211:5220   */\n      dup3\n        /* \"#utility.yul\":5207:5225   */\n      add\n        /* \"#utility.yul\":5199:5225   */\n      swap1\n      pop\n        /* \"#utility.yul\":5235:5304   */\n      tag_355\n        /* \"#utility.yul\":5301:5302   */\n      0x00\n        /* \"#utility.yul\":5290:5299   */\n      dup4\n        /* \"#utility.yul\":5286:5303   */\n      add\n        /* \"#utility.yul\":5277:5283   */\n      dup5\n        /* \"#utility.yul\":5235:5304   */\n      tag_276\n      jump\t// in\n    tag_355:\n        /* \"#utility.yul\":5093:5311   */\n      swap3\n      swap2\n      pop\n      pop\n      jump\t// out\n        /* \"#utility.yul\":5317:5433   */\n    tag_277:\n        /* \"#utility.yul\":5401:5402   */\n      0x04\n        /* \"#utility.yul\":5394:5399   */\n      dup2\n        /* \"#utility.yul\":5391:5403   */\n      lt\n        /* \"#utility.yul\":5381:5427   */\n      tag_357\n      jumpi\n        /* \"#utility.yul\":5407:5425   */\n      tag_358\n      tag_85\n      jump\t// in\n    tag_358:\n        /* \"#utility.yul\":5381:5427   */\n    tag_357:\n        /* \"#utility.yul\":5317:5433   */\n      pop\n      jump\t// out\n        /* \"#utility.yul\":5439:5572   */\n    tag_278:\n        /* \"#utility.yul\":5487:5494   */\n      0x00\n        /* \"#utility.yul\":5516:5521   */\n      dup2\n        /* \"#utility.yul\":5505:5521   */\n      swap1\n      pop\n        /* \"#utility.yul\":5522:5566   */\n      tag_360\n        /* \"#utility.yul\":5560:5565   */\n      dup3\n        /* \"#utility.yul\":5522:5566   */\n      tag_277\n      jump\t// in\n    tag_360:\n        /* \"#utility.yul\":5439:5572   */\n      swap2\n      swap1\n      pop\n      jump\t// out\n        /* \"#utility.yul\":5578:5711   */\n    tag_279:\n        /* \"#utility.yul\":5637:5646   */\n      0x00\n        /* \"#utility.yul\":5670:5705   */\n      tag_362\n        /* \"#utility.yul\":5699:5704   */\n      dup3\n        /* \"#utility.yul\":5670:5705   */\n      tag_278\n      jump\t// in\n    tag_362:\n        /* \"#utility.yul\":5657:5705   */\n      swap1\n      pop\n        /* \"#utility.yul\":5578:5711   */\n      swap2\n      swap1\n      pop\n      jump\t// out\n        /* \"#utility.yul\":5717:5866   */\n    tag_280:\n        /* \"#utility.yul\":5813:5859   */\n      tag_364\n        /* \"#utility.yul\":5853:5858   */\n      dup2\n        /* \"#utility.yul\":5813:5859   */\n      tag_279\n      jump\t// in\n    tag_364:\n        /* \"#utility.yul\":5808:5811   */\n      dup3\n        /* \"#utility.yul\":5801:5860   */\n      mstore\n        /* \"#utility.yul\":5717:5866   */\n      pop\n      pop\n      jump\t// out\n        /* \"#utility.yul\":5872:6112   */\n    tag_56:\n        /* \"#utility.yul\":5974:5978   */\n      0x00\n        /* \"#utility.yul\":6012:6014   */\n      0x20\n        /* \"#utility.yul\":6001:6010   */\n      dup3\n        /* \"#utility.yul\":5997:6015   */\n      add\n        /* \"#utility.yul\":5989:6015   */\n      swap1\n      pop\n        /* \"#utility.yul\":6025:6105   */\n      tag_366\n        /* \"#utility.yul\":6102:6103   */\n      0x00\n        /* \"#utility.yul\":6091:6100   */\n      dup4\n        /* \"#utility.yul\":6087:6104   */\n      add\n        /* \"#utility.yul\":6078:6084   */\n      dup5\n        /* \"#utility.yul\":6025:6105   */\n      tag_280\n      jump\t// in\n    tag_366:\n        /* \"#utility.yul\":5872:6112   */\n      swap3\n      swap2\n      pop\n      pop\n      jump\t// out\n        /* \"#utility.yul\":6118:6195   */\n    tag_281:\n        /* \"#utility.yul\":6155:6162   */\n      0x00\n        /* \"#utility.yul\":6184:6189   */\n      dup2\n        /* \"#utility.yul\":6173:6189   */\n      swap1\n      pop\n        /* \"#utility.yul\":6118:6195   */\n      swap2\n      swap1\n      pop\n      jump\t// out\n        /* \"#utility.yul\":6201:6323   */\n    tag_282:\n        /* \"#utility.yul\":6274:6298   */\n      tag_369\n        /* \"#utility.yul\":6292:6297   */\n      dup2\n        /* \"#utility.yul\":6274:6298   */\n      tag_281\n      jump\t// in\n    tag_369:\n        /* \"#utility.yul\":6267:6272   */\n      dup2\n        /* \"#utility.yul\":6264:6299   */\n      eq\n        /* \"#utility.yul\":6254:6317   */\n      tag_370\n      jumpi\n        /* \"#utility.yul\":6313:6314   */\n      0x00\n        /* \"#utility.yul\":6310:6311   */\n      dup1\n        /* \"#utility.yul\":6303:6315   */\n      revert\n        /* \"#utility.yul\":6254:6317   */\n    tag_370:\n        /* \"#utility.yul\":6201:6323   */\n      pop\n      jump\t// out\n        /* \"#utility.yul\":6329:6468   */\n    tag_283:\n        /* \"#utility.yul\":6375:6380   */\n      0x00\n        /* \"#utility.yul\":6413:6419   */\n      dup2\n        /* \"#utility.yul\":6400:6420   */\n      calldataload\n        /* \"#utility.yul\":6391:6420   */\n      swap1\n      pop\n        /* \"#utility.yul\":6429:6462   */\n      tag_372\n        /* \"#utility.yul\":6456:6461   */\n      dup2\n        /* \"#utility.yul\":6429:6462   */\n      tag_282\n      jump\t// in\n    tag_372:\n        /* \"#utility.yul\":6329:6468   */\n      swap3\n      swap2\n      pop\n      pop\n      jump\t// out\n        /* \"#utility.yul\":6474:6803   */\n    tag_64:\n        /* \"#utility.yul\":6533:6539   */\n      0x00\n        /* \"#utility.yul\":6582:6584   */\n      0x20\n        /* \"#utility.yul\":6570:6579   */\n      dup3\n        /* \"#utility.yul\":6561:6568   */\n      dup5\n        /* \"#utility.yul\":6557:6580   */\n      sub\n        /* \"#utility.yul\":6553:6585   */\n      slt\n        /* \"#utility.yul\":6550:6669   */\n      iszero\n      tag_374\n      jumpi\n        /* \"#utility.yul\":6588:6667   */\n      tag_375\n      tag_259\n      jump\t// in\n    tag_375:\n        /* \"#utility.yul\":6550:6669   */\n    tag_374:\n        /* \"#utility.yul\":6708:6709   */\n      0x00\n        /* \"#utility.yul\":6733:6786   */\n      tag_376\n        /* \"#utility.yul\":6778:6785   */\n      dup5\n        /* \"#utility.yul\":6769:6775   */\n      dup3\n        /* \"#utility.yul\":6758:6767   */\n      dup6\n        /* \"#utility.yul\":6754:6776   */\n      add\n        /* \"#utility.yul\":6733:6786   */\n      tag_283\n      jump\t// in\n    tag_376:\n        /* \"#utility.yul\":6723:6786   */\n      swap2\n      pop\n        /* \"#utility.yul\":6679:6796   */\n      pop\n        /* \"#utility.yul\":6474:6803   */\n      swap3\n      swap2\n      pop\n      pop\n      jump\t// out\n        /* \"#utility.yul\":6809:6908   */\n    tag_284:\n        /* \"#utility.yul\":6861:6867   */\n      0x00\n        /* \"#utility.yul\":6895:6900   */\n      dup2\n        /* \"#utility.yul\":6889:6901   */\n      mload\n        /* \"#utility.yul\":6879:6901   */\n      swap1\n      pop\n        /* \"#utility.yul\":6809:6908   */\n      swap2\n      swap1\n      pop\n      jump\t// out\n        /* \"#utility.yul\":6914:7062   */\n    tag_285:\n        /* \"#utility.yul\":7016:7027   */\n      0x00\n        /* \"#utility.yul\":7053:7056   */\n      dup2\n        /* \"#utility.yul\":7038:7056   */\n      swap1\n      pop\n        /* \"#utility.yul\":6914:7062   */\n      swap3\n      swap2\n      pop\n      pop\n      jump\t// out\n        /* \"#utility.yul\":7068:7314   */\n    tag_286:\n        /* \"#utility.yul\":7149:7150   */\n      0x00\n        /* \"#utility.yul\":7159:7272   */\n    tag_380:\n        /* \"#utility.yul\":7173:7179   */\n      dup4\n        /* \"#utility.yul\":7170:7171   */\n      dup2\n        /* \"#utility.yul\":7167:7180   */\n      lt\n        /* \"#utility.yul\":7159:7272   */\n      iszero\n      tag_382\n      jumpi\n        /* \"#utility.yul\":7258:7259   */\n      dup1\n        /* \"#utility.yul\":7253:7256   */\n      dup3\n        /* \"#utility.yul\":7249:7260   */\n      add\n        /* \"#utility.yul\":7243:7261   */\n      mload\n        /* \"#utility.yul\":7239:7240   */\n      dup2\n        /* \"#utility.yul\":7234:7237   */\n      dup5\n        /* \"#utility.yul\":7230:7241   */\n      add\n        /* \"#utility.yul\":7223:7262   */\n      mstore\n        /* \"#utility.yul\":7195:7197   */\n      0x20\n        /* \"#utility.yul\":7192:7193   */\n      dup2\n        /* \"#utility.yul\":7188:7198   */\n      add\n        /* \"#utility.yul\":7183:7198   */\n      swap1\n      pop\n        /* \"#utility.yul\":7159:7272   */\n      jump(tag_380)\n    tag_382:\n        /* \"#utility.yul\":7306:7307   */\n      0x00\n        /* \"#utility.yul\":7297:7303   */\n      dup5\n        /* \"#utility.yul\":7292:7295   */\n      dup5\n        /* \"#utility.yul\":7288:7304   */\n      add\n        /* \"#utility.yul\":7281:7308   */\n      mstore\n        /* \"#utility.yul\":7130:7314   */\n      pop\n        /* \"#utility.yul\":7068:7314   */\n      pop\n      pop\n      pop\n      jump\t// out\n        /* \"#utility.yul\":7320:7710   */\n    tag_287:\n        /* \"#utility.yul\":7426:7429   */\n      0x00\n        /* \"#utility.yul\":7454:7493   */\n      tag_384\n        /* \"#utility.yul\":7487:7492   */\n      dup3\n        /* \"#utility.yul\":7454:7493   */\n      tag_284\n      jump\t// in\n    tag_384:\n        /* \"#utility.yul\":7509:7598   */\n      tag_385\n        /* \"#utility.yul\":7591:7597   */\n      dup2\n        /* \"#utility.yul\":7586:7589   */\n      dup6\n        /* \"#utility.yul\":7509:7598   */\n      tag_285\n      jump\t// in\n    tag_385:\n        /* \"#utility.yul\":7502:7598   */\n      swap4\n      pop\n        /* \"#utility.yul\":7607:7672   */\n      tag_386\n        /* \"#utility.yul\":7665:7671   */\n      dup2\n        /* \"#utility.yul\":7660:7663   */\n      dup6\n        /* \"#utility.yul\":7653:7657   */\n      0x20\n        /* \"#utility.yul\":7646:7651   */\n      dup7\n        /* \"#utility.yul\":7642:7658   */\n      add\n        /* \"#utility.yul\":7607:7672   */\n      tag_286\n      jump\t// in\n    tag_386:\n        /* \"#utility.yul\":7697:7703   */\n      dup1\n        /* \"#utility.yul\":7692:7695   */\n      dup5\n        /* \"#utility.yul\":7688:7704   */\n      add\n        /* \"#utility.yul\":7681:7704   */\n      swap2\n      pop\n        /* \"#utility.yul\":7430:7710   */\n      pop\n        /* \"#utility.yul\":7320:7710   */\n      swap3\n      swap2\n      pop\n      pop\n      jump\t// out\n        /* \"#utility.yul\":7716:7991   */\n    tag_101:\n        /* \"#utility.yul\":7848:7851   */\n      0x00\n        /* \"#utility.yul\":7870:7965   */\n      tag_388\n        /* \"#utility.yul\":7961:7964   */\n      dup3\n        /* \"#utility.yul\":7952:7958   */\n      dup5\n        /* \"#utility.yul\":7870:7965   */\n      tag_287\n      jump\t// in\n    tag_388:\n        /* \"#utility.yul\":7863:7965   */\n      swap2\n      pop\n        /* \"#utility.yul\":7982:7985   */\n      dup2\n        /* \"#utility.yul\":7975:7985   */\n      swap1\n      pop\n        /* \"#utility.yul\":7716:7991   */\n      swap3\n      swap2\n      pop\n      pop\n      jump\t// out\n        /* \"#utility.yul\":7997:8095   */\n    tag_288:\n        /* \"#utility.yul\":8048:8054   */\n      0x00\n        /* \"#utility.yul\":8082:8087   */\n      dup2\n        /* \"#utility.yul\":8076:8088   */\n      mload\n        /* \"#utility.yul\":8066:8088   */\n      swap1\n      pop\n        /* \"#utility.yul\":7997:8095   */\n      swap2\n      swap1\n      pop\n      jump\t// out\n        /* \"#utility.yul\":8101:8248   */\n    tag_289:\n        /* \"#utility.yul\":8202:8213   */\n      0x00\n        /* \"#utility.yul\":8239:8242   */\n      dup2\n        /* \"#utility.yul\":8224:8242   */\n      swap1\n      pop\n        /* \"#utility.yul\":8101:8248   */\n      swap3\n      swap2\n      pop\n      pop\n      jump\t// out\n        /* \"#utility.yul\":8254:8640   */\n    tag_290:\n        /* \"#utility.yul\":8358:8361   */\n      0x00\n        /* \"#utility.yul\":8386:8424   */\n      tag_392\n        /* \"#utility.yul\":8418:8423   */\n      dup3\n        /* \"#utility.yul\":8386:8424   */\n      tag_288\n      jump\t// in\n    tag_392:\n        /* \"#utility.yul\":8440:8528   */\n      tag_393\n        /* \"#utility.yul\":8521:8527   */\n      dup2\n        /* \"#utility.yul\":8516:8519   */\n      dup6\n        /* \"#utility.yul\":8440:8528   */\n      tag_289\n      jump\t// in\n    tag_393:\n        /* \"#utility.yul\":8433:8528   */\n      swap4\n      pop\n        /* \"#utility.yul\":8537:8602   */\n      tag_394\n        /* \"#utility.yul\":8595:8601   */\n      dup2\n        /* \"#utility.yul\":8590:8593   */\n      dup6\n        /* \"#utility.yul\":8583:8587   */\n      0x20\n        /* \"#utility.yul\":8576:8581   */\n      dup7\n        /* \"#utility.yul\":8572:8588   */\n      add\n        /* \"#utility.yul\":8537:8602   */\n      tag_286\n      jump\t// in\n    tag_394:\n        /* \"#utility.yul\":8627:8633   */\n      dup1\n        /* \"#utility.yul\":8622:8625   */\n      dup5\n        /* \"#utility.yul\":8618:8634   */\n      add\n        /* \"#utility.yul\":8611:8634   */\n      swap2\n      pop\n        /* \"#utility.yul\":8362:8640   */\n      pop\n        /* \"#utility.yul\":8254:8640   */\n      swap3\n      swap2\n      pop\n      pop\n      jump\t// out\n        /* \"#utility.yul\":8646:8917   */\n    tag_103:\n        /* \"#utility.yul\":8776:8779   */\n      0x00\n        /* \"#utility.yul\":8798:8891   */\n      tag_396\n        /* \"#utility.yul\":8887:8890   */\n      dup3\n        /* \"#utility.yul\":8878:8884   */\n      dup5\n        /* \"#utility.yul\":8798:8891   */\n      tag_290\n      jump\t// in\n    tag_396:\n        /* \"#utility.yul\":8791:8891   */\n      swap2\n      pop\n        /* \"#utility.yul\":8908:8911   */\n      dup2\n        /* \"#utility.yul\":8901:8911   */\n      swap1\n      pop\n        /* \"#utility.yul\":8646:8917   */\n      swap3\n      swap2\n      pop\n      pop\n      jump\t// out\n        /* \"#utility.yul\":8923:9066   */\n    tag_291:\n        /* \"#utility.yul\":8980:8985   */\n      0x00\n        /* \"#utility.yul\":9011:9017   */\n      dup2\n        /* \"#utility.yul\":9005:9018   */\n      mload\n        /* \"#utility.yul\":8996:9018   */\n      swap1\n      pop\n        /* \"#utility.yul\":9027:9060   */\n      tag_398\n        /* \"#utility.yul\":9054:9059   */\n      dup2\n        /* \"#utility.yul\":9027:9060   */\n      tag_282\n      jump\t// in\n    tag_398:\n        /* \"#utility.yul\":8923:9066   */\n      swap3\n      swap2\n      pop\n      pop\n      jump\t// out\n        /* \"#utility.yul\":9072:9423   */\n    tag_107:\n        /* \"#utility.yul\":9142:9148   */\n      0x00\n        /* \"#utility.yul\":9191:9193   */\n      0x20\n        /* \"#utility.yul\":9179:9188   */\n      dup3\n        /* \"#utility.yul\":9170:9177   */\n      dup5\n        /* \"#utility.yul\":9166:9189   */\n      sub\n        /* \"#utility.yul\":9162:9194   */\n      slt\n        /* \"#utility.yul\":9159:9278   */\n      iszero\n      tag_400\n      jumpi\n        /* \"#utility.yul\":9197:9276   */\n      tag_401\n      tag_259\n      jump\t// in\n    tag_401:\n        /* \"#utility.yul\":9159:9278   */\n    tag_400:\n        /* \"#utility.yul\":9317:9318   */\n      0x00\n        /* \"#utility.yul\":9342:9406   */\n      tag_402\n        /* \"#utility.yul\":9398:9405   */\n      dup5\n        /* \"#utility.yul\":9389:9395   */\n      dup3\n        /* \"#utility.yul\":9378:9387   */\n      dup6\n        /* \"#utility.yul\":9374:9396   */\n      add\n        /* \"#utility.yul\":9342:9406   */\n      tag_291\n      jump\t// in\n    tag_402:\n        /* \"#utility.yul\":9332:9406   */\n      swap2\n      pop\n        /* \"#utility.yul\":9288:9416   */\n      pop\n        /* \"#utility.yul\":9072:9423   */\n      swap3\n      swap2\n      pop\n      pop\n      jump\t// out\n        /* \"#utility.yul\":9429:9609   */\n    tag_292:\n        /* \"#utility.yul\":9477:9554   */\n      0x4e487b7100000000000000000000000000000000000000000000000000000000\n        /* \"#utility.yul\":9474:9475   */\n      0x00\n        /* \"#utility.yul\":9467:9555   */\n      mstore\n        /* \"#utility.yul\":9574:9578   */\n      0x11\n        /* \"#utility.yul\":9571:9572   */\n      0x04\n        /* \"#utility.yul\":9564:9579   */\n      mstore\n        /* \"#utility.yul\":9598:9602   */\n      0x24\n        /* \"#utility.yul\":9595:9596   */\n      0x00\n        /* \"#utility.yul\":9588:9603   */\n      revert\n        /* \"#utility.yul\":9615:9806   */\n    tag_131:\n        /* \"#utility.yul\":9655:9658   */\n      0x00\n        /* \"#utility.yul\":9674:9694   */\n      tag_405\n        /* \"#utility.yul\":9692:9693   */\n      dup3\n        /* \"#utility.yul\":9674:9694   */\n      tag_254\n      jump\t// in\n    tag_405:\n        /* \"#utility.yul\":9669:9694   */\n      swap2\n      pop\n        /* \"#utility.yul\":9708:9728   */\n      tag_406\n        /* \"#utility.yul\":9726:9727   */\n      dup4\n        /* \"#utility.yul\":9708:9728   */\n      tag_254\n      jump\t// in\n    tag_406:\n        /* \"#utility.yul\":9703:9728   */\n      swap3\n      pop\n        /* \"#utility.yul\":9751:9752   */\n      dup3\n        /* \"#utility.yul\":9748:9749   */\n      dup3\n        /* \"#utility.yul\":9744:9753   */\n      add\n        /* \"#utility.yul\":9737:9753   */\n      swap1\n      pop\n        /* \"#utility.yul\":9772:9775   */\n      dup1\n        /* \"#utility.yul\":9769:9770   */\n      dup3\n        /* \"#utility.yul\":9766:9776   */\n      gt\n        /* \"#utility.yul\":9763:9799   */\n      iszero\n      tag_407\n      jumpi\n        /* \"#utility.yul\":9779:9797   */\n      tag_408\n      tag_292\n      jump\t// in\n    tag_408:\n        /* \"#utility.yul\":9763:9799   */\n    tag_407:\n        /* \"#utility.yul\":9615:9806   */\n      swap3\n      swap2\n      pop\n      pop\n      jump\t// out\n        /* \"#utility.yul\":9812:10006   */\n    tag_133:\n        /* \"#utility.yul\":9852:9856   */\n      0x00\n        /* \"#utility.yul\":9872:9892   */\n      tag_410\n        /* \"#utility.yul\":9890:9891   */\n      dup3\n        /* \"#utility.yul\":9872:9892   */\n      tag_254\n      jump\t// in\n    tag_410:\n        /* \"#utility.yul\":9867:9892   */\n      swap2\n      pop\n        /* \"#utility.yul\":9906:9926   */\n      tag_411\n        /* \"#utility.yul\":9924:9925   */\n      dup4\n        /* \"#utility.yul\":9906:9926   */\n      tag_254\n      jump\t// in\n    tag_411:\n        /* \"#utility.yul\":9901:9926   */\n      swap3\n      pop\n        /* \"#utility.yul\":9950:9951   */\n      dup3\n        /* \"#utility.yul\":9947:9948   */\n      dup3\n        /* \"#utility.yul\":9943:9952   */\n      sub\n        /* \"#utility.yul\":9935:9952   */\n      swap1\n      pop\n        /* \"#utility.yul\":9974:9975   */\n      dup2\n        /* \"#utility.yul\":9968:9972   */\n      dup2\n        /* \"#utility.yul\":9965:9976   */\n      gt\n        /* \"#utility.yul\":9962:9999   */\n      iszero\n      tag_412\n      jumpi\n        /* \"#utility.yul\":9979:9997   */\n      tag_413\n      tag_292\n      jump\t// in\n    tag_413:\n        /* \"#utility.yul\":9962:9999   */\n    tag_412:\n        /* \"#utility.yul\":9812:10006   */\n      swap3\n      swap2\n      pop\n      pop\n      jump\t// out\n        /* \"#utility.yul\":10012:10192   */\n    tag_221:\n        /* \"#utility.yul\":10060:10137   */\n      0x4e487b7100000000000000000000000000000000000000000000000000000000\n        /* \"#utility.yul\":10057:10058   */\n      0x00\n        /* \"#utility.yul\":10050:10138   */\n      mstore\n        /* \"#utility.yul\":10157:10161   */\n      0x32\n        /* \"#utility.yul\":10154:10155   */\n      0x04\n        /* \"#utility.yul\":10147:10162   */\n      mstore\n        /* \"#utility.yul\":10181:10185   */\n      0x24\n        /* \"#utility.yul\":10178:10179   */\n      0x00\n        /* \"#utility.yul\":10171:10186   */\n      revert\n\n    auxdata: 0xa264697066735822122021bbf282965bbac861e87269ae5fda4aa8a221503dc1dbd23ea791f3b04a972c64736f6c63430008120033\n}\n",
				"bytecode": {
					"linkReferences": {},
					"object": "608060405234801561001057600080fd5b506117d5806100206000396000f3fe6080604052600436106100a75760003560e01c806351dcb1c31161006457806351dcb1c3146101b35780636f9fb98a146101de5780637e7e4b4714610209578063807c850414610234578063c7a1865b1461025f578063da91254c1461029c576100a7565b80631aa3a008146100ac5780631d73c64c146100ca5780632626ab08146100f55780633d6ae3a71461012057806343445ca81461014b5780634c26124714610176575b600080fd5b6100b46102c7565b6040516100c19190611231565b60405180910390f35b3480156100d657600080fd5b506100df6104fc565b6040516100ec9190611231565b60405180910390f35b34801561010157600080fd5b5061010a610502565b6040516101179190611231565b60405180910390f35b34801561012c57600080fd5b5061013561050d565b6040516101429190611231565b60405180910390f35b34801561015757600080fd5b50610160610513565b60405161016d9190611267565b60405180910390f35b34801561018257600080fd5b5061019d600480360381019061019891906113dc565b610591565b6040516101aa919061149c565b60405180910390f35b3480156101bf57600080fd5b506101c861087e565b6040516101d591906114d0565b60405180910390f35b3480156101ea57600080fd5b506101f36108b4565b6040516102009190611231565b60405180910390f35b34801561021557600080fd5b5061021e6108bc565b60405161022b9190611533565b60405180910390f35b34801561024057600080fd5b50610249610c2c565b6040516102569190611267565b60405180910390f35b34801561026b57600080fd5b5061028660048036038101906102819190611584565b610c4d565b6040516102939190611267565b60405180910390f35b3480156102a857600080fd5b506102b1610df9565b6040516102be9190611231565b60405180910390f35b6000662386f26fc100003410156102dd57600080fd5b6000805414806102ef57506000543410155b6102f857600080fd5b600260009054906101000a900473ffffffffffffffffffffffffffffffffffffffff1673ffffffffffffffffffffffffffffffffffffffff163373ffffffffffffffffffffffffffffffffffffffff16141580156103a45750600360009054906101000a900473ffffffffffffffffffffffffffffffffffffffff1673ffffffffffffffffffffffffffffffffffffffff163373ffffffffffffffffffffffffffffffffffffffff1614155b6103ad57600080fd5b600073ffffffffffffffffffffffffffffffffffffffff16600260009054906101000a900473ffffffffffffffffffffffffffffffffffffffff1673ffffffffffffffffffffffffffffffffffffffff16036104545733600260006101000a81548173ffffffffffffffffffffffffffffffffffffffff021916908373ffffffffffffffffffffffffffffffffffffffff16021790555034600081905550600190506104f9565b600073ffffffffffffffffffffffffffffffffffffffff16600360009054906101000a900473ffffffffffffffffffffffffffffffffffffffff1673ffffffffffffffffffffffffffffffffffffffff16036104f45733600360006101000a81548173ffffffffffffffffffffffffffffffffffffffff021916908373ffffffffffffffffffffffffffffffffffffffff160217905550600290506104f9565b600090505b90565b60005481565b662386f26fc1000081565b61025881565b600080600381111561052857610527611425565b5b600660009054906101000a900460ff16600381111561054a57610549611425565b5b1415801561058c57506000600381111561056757610566611425565b5b600660019054906101000a900460ff16600381111561058957610588611425565b5b14155b905090565b6000600260009054906101000a900473ffffffffffffffffffffffffffffffffffffffff1673ffffffffffffffffffffffffffffffffffffffff163373ffffffffffffffffffffffffffffffffffffffff16148061063c5750600360009054906101000a900473ffffffffffffffffffffffffffffffffffffffff1673ffffffffffffffffffffffffffffffffffffffff163373ffffffffffffffffffffffffffffffffffffffff16145b61064557600080fd5b6000801b6004541415801561065f57506000801b60055414155b61066857600080fd5b600060028360405160200161067d9190611622565b6040516020818303038152906040526040516106999190611680565b602060405180830381855afa1580156106b6573d6000803e3d6000fd5b5050506040513d601f19601f820116820180604052508101906106d991906116ac565b905060006106e684610ebf565b60038111156106f8576106f7611425565b5b90506000600381111561070e5761070d611425565b5b81600381111561072157610720611425565b5b0361073157600092505050610879565b600260009054906101000a900473ffffffffffffffffffffffffffffffffffffffff1673ffffffffffffffffffffffffffffffffffffffff163373ffffffffffffffffffffffffffffffffffffffff1614801561078f575060045482145b156107c35780600660006101000a81548160ff021916908360038111156107b9576107b8611425565b5b0217905550610861565b600360009054906101000a900473ffffffffffffffffffffffffffffffffffffffff1673ffffffffffffffffffffffffffffffffffffffff163373ffffffffffffffffffffffffffffffffffffffff16148015610821575060055482145b156108555780600660016101000a81548160ff0219169083600381111561084b5761084a611425565b5b0217905550610860565b600092505050610879565b5b60006001540361087357426001819055505b80925050505b919050565b600080600154146108ab574261025860015461089a9190611708565b6108a4919061173c565b90506108b1565b61025890505b90565b600047905090565b60008060038111156108d1576108d0611425565b5b600660009054906101000a900460ff1660038111156108f3576108f2611425565b5b141580156109355750600060038111156109105761090f611425565b5b600660019054906101000a900460ff16600381111561093257610931611425565b5b14155b8061095d575060006001541415801561095c57506102586001546109599190611708565b42115b5b61096657600080fd5b6000600660019054906101000a900460ff16600381111561098a57610989611425565b5b600660009054906101000a900460ff1660038111156109ac576109ab611425565b5b036109ba5760039050610bba565b600160038111156109ce576109cd611425565b5b600660009054906101000a900460ff1660038111156109f0576109ef611425565b5b148015610a2f5750600380811115610a0b57610a0a611425565b5b600660019054906101000a900460ff166003811115610a2d57610a2c611425565b5b145b80610aac575060026003811115610a4957610a48611425565b5b600660009054906101000a900460ff166003811115610a6b57610a6a611425565b5b148015610aab575060016003811115610a8757610a86611425565b5b600660019054906101000a900460ff166003811115610aa957610aa8611425565b5b145b5b80610b285750600380811115610ac557610ac4611425565b5b600660009054906101000a900460ff166003811115610ae757610ae6611425565b5b148015610b27575060026003811115610b0357610b02611425565b5b600660019054906101000a900460ff166003811115610b2557610b24611425565b5b145b5b80610ba6575060006003811115610b4257610b41611425565b5b600660009054906101000a900460ff166003811115610b6457610b63611425565b5b14158015610ba5575060006003811115610b8157610b80611425565b5b600660019054906101000a900460ff166003811115610ba357610ba2611425565b5b145b5b15610bb45760019050610bb9565b600290505b5b6000600260009054906101000a900473ffffffffffffffffffffffffffffffffffffffff1690506000600360009054906101000a900473ffffffffffffffffffffffffffffffffffffffff169050600080549050610c16610f93565b610c2283838387611092565b8394505050505090565b60008060001b60045414158015610c4857506000801b60055414155b905090565b6000600260009054906101000a900473ffffffffffffffffffffffffffffffffffffffff1673ffffffffffffffffffffffffffffffffffffffff163373ffffffffffffffffffffffffffffffffffffffff161480610cf85750600360009054906101000a900473ffffffffffffffffffffffffffffffffffffffff1673ffffffffffffffffffffffffffffffffffffffff163373ffffffffffffffffffffffffffffffffffffffff16145b610d0157600080fd5b600260009054906101000a900473ffffffffffffffffffffffffffffffffffffffff1673ffffffffffffffffffffffffffffffffffffffff163373ffffffffffffffffffffffffffffffffffffffff16148015610d6257506000801b600454145b15610d735781600481905550610def565b600360009054906101000a900473ffffffffffffffffffffffffffffffffffffffff1673ffffffffffffffffffffffffffffffffffffffff163373ffffffffffffffffffffffffffffffffffffffff16148015610dd457506000801b600554145b15610de55781600581905550610dee565b60009050610df4565b5b600190505b919050565b6000600260009054906101000a900473ffffffffffffffffffffffffffffffffffffffff1673ffffffffffffffffffffffffffffffffffffffff163373ffffffffffffffffffffffffffffffffffffffff1603610e595760019050610ebc565b600360009054906101000a900473ffffffffffffffffffffffffffffffffffffffff1673ffffffffffffffffffffffffffffffffffffffff163373ffffffffffffffffffffffffffffffffffffffff1603610eb75760029050610ebc565b600090505b90565b60008082600081518110610ed657610ed5611770565b5b602001015160f81c60f81b9050605260f81b817effffffffffffffffffffffffffffffffffffffffffffffffffffffffffffff191603610f1a576001915050610f8e565b605060f81b817effffffffffffffffffffffffffffffffffffffffffffffffffffffffffffff191603610f51576002915050610f8e565b605360f81b817effffffffffffffffffffffffffffffffffffffffffffffffffffffffffffff191603610f88576003915050610f8e565b60009150505b919050565b6000808190555060006001819055506000600260006101000a81548173ffffffffffffffffffffffffffffffffffffffff021916908373ffffffffffffffffffffffffffffffffffffffff1602179055506000600360006101000a81548173ffffffffffffffffffffffffffffffffffffffff021916908373ffffffffffffffffffffffffffffffffffffffff1602179055506000801b6004819055506000801b6005819055506000600660006101000a81548160ff021916908360038111156110605761105f611425565b5b02179055506000600660016101000a81548160ff0219169083600381111561108b5761108a611425565b5b0217905550565b600160038111156110a6576110a5611425565b5b8160038111156110b9576110b8611425565b5b0361110a578373ffffffffffffffffffffffffffffffffffffffff166108fc479081150290604051600060405180830381858888f19350505050158015611104573d6000803e3d6000fd5b50611212565b6002600381111561111e5761111d611425565b5b81600381111561113157611130611425565b5b03611182578273ffffffffffffffffffffffffffffffffffffffff166108fc479081150290604051600060405180830381858888f1935050505015801561117c573d6000803e3d6000fd5b50611211565b8373ffffffffffffffffffffffffffffffffffffffff166108fc839081150290604051600060405180830381858888f193505050501580156111c8573d6000803e3d6000fd5b508273ffffffffffffffffffffffffffffffffffffffff166108fc479081150290604051600060405180830381858888f1935050505015801561120f573d6000803e3d6000fd5b505b5b50505050565b6000819050919050565b61122b81611218565b82525050565b60006020820190506112466000830184611222565b92915050565b60008115159050919050565b6112618161124c565b82525050565b600060208201905061127c6000830184611258565b92915050565b6000604051905090565b600080fd5b600080fd5b600080fd5b600080fd5b6000601f19601f8301169050919050565b7f4e487b7100000000000000000000000000000000000000000000000000000000600052604160045260246000fd5b6112e9826112a0565b810181811067ffffffffffffffff82111715611308576113076112b1565b5b80604052505050565b600061131b611282565b905061132782826112e0565b919050565b600067ffffffffffffffff821115611347576113466112b1565b5b611350826112a0565b9050602081019050919050565b82818337600083830152505050565b600061137f61137a8461132c565b611311565b90508281526020810184848401111561139b5761139a61129b565b5b6113a684828561135d565b509392505050565b600082601f8301126113c3576113c2611296565b5b81356113d384826020860161136c565b91505092915050565b6000602082840312156113f2576113f161128c565b5b600082013567ffffffffffffffff8111156114105761140f611291565b5b61141c848285016113ae565b91505092915050565b7f4e487b7100000000000000000000000000000000000000000000000000000000600052602160045260246000fd5b6004811061146557611464611425565b5b50565b600081905061147682611454565b919050565b600061148682611468565b9050919050565b6114968161147b565b82525050565b60006020820190506114b1600083018461148d565b92915050565b6000819050919050565b6114ca816114b7565b82525050565b60006020820190506114e560008301846114c1565b92915050565b600481106114fc576114fb611425565b5b50565b600081905061150d826114eb565b919050565b600061151d826114ff565b9050919050565b61152d81611512565b82525050565b60006020820190506115486000830184611524565b92915050565b6000819050919050565b6115618161154e565b811461156c57600080fd5b50565b60008135905061157e81611558565b92915050565b60006020828403121561159a5761159961128c565b5b60006115a88482850161156f565b91505092915050565b600081519050919050565b600081905092915050565b60005b838110156115e55780820151818401526020810190506115ca565b60008484015250505050565b60006115fc826115b1565b61160681856115bc565b93506116168185602086016115c7565b80840191505092915050565b600061162e82846115f1565b915081905092915050565b600081519050919050565b600081905092915050565b600061165a82611639565b6116648185611644565b93506116748185602086016115c7565b80840191505092915050565b600061168c828461164f565b915081905092915050565b6000815190506116a681611558565b92915050565b6000602082840312156116c2576116c161128c565b5b60006116d084828501611697565b91505092915050565b7f4e487b7100000000000000000000000000000000000000000000000000000000600052601160045260246000fd5b600061171382611218565b915061171e83611218565b9250828201905080821115611736576117356116d9565b5b92915050565b600061174782611218565b915061175283611218565b925082820390508181111561176a576117696116d9565b5b92915050565b7f4e487b7100000000000000000000000000000000000000000000000000000000600052603260045260246000fdfea264697066735822122021bbf282965bbac861e87269ae5fda4aa8a221503dc1dbd23ea791f3b04a972c64736f6c63430008120033",
					"opcodes": "PUSH1 0x80 PUSH1 0x40 MSTORE CALLVALUE DUP1 ISZERO PUSH2 0x10 JUMPI PUSH1 0x0 DUP1 REVERT JUMPDEST POP PUSH2 0x17D5 DUP1 PUSH2 0x20 PUSH1 0x0 CODECOPY PUSH1 0x0 RETURN INVALID PUSH1 0x80 PUSH1 0x40 MSTORE PUSH1 0x4 CALLDATASIZE LT PUSH2 0xA7 JUMPI PUSH1 0x0 CALLDATALOAD PUSH1 0xE0 SHR DUP1 PUSH4 0x51DCB1C3 GT PUSH2 0x64 JUMPI DUP1 PUSH4 0x51DCB1C3 EQ PUSH2 0x1B3 JUMPI DUP1 PUSH4 0x6F9FB98A EQ PUSH2 0x1DE JUMPI DUP1 PUSH4 0x7E7E4B47 EQ PUSH2 0x209 JUMPI DUP1 PUSH4 0x807C8504 EQ PUSH2 0x234 JUMPI DUP1 PUSH4 0xC7A1865B EQ PUSH2 0x25F JUMPI DUP1 PUSH4 0xDA91254C EQ PUSH2 0x29C JUMPI PUSH2 0xA7 JUMP JUMPDEST DUP1 PUSH4 0x1AA3A008 EQ PUSH2 0xAC JUMPI DUP1 PUSH4 0x1D73C64C EQ PUSH2 0xCA JUMPI DUP1 PUSH4 0x2626AB08 EQ PUSH2 0xF5 JUMPI DUP1 PUSH4 0x3D6AE3A7 EQ PUSH2 0x120 JUMPI DUP1 PUSH4 0x43445CA8 EQ PUSH2 0x14B JUMPI DUP1 PUSH4 0x4C261247 EQ PUSH2 0x176 JUMPI JUMPDEST PUSH1 0x0 DUP1 REVERT JUMPDEST PUSH2 0xB4 PUSH2 0x2C7 JUMP JUMPDEST PUSH1 0x40 MLOAD PUSH2 0xC1 SWAP2 SWAP1 PUSH2 0x1231 JUMP JUMPDEST PUSH1 0x40 MLOAD DUP1 SWAP2 SUB SWAP1 RETURN JUMPDEST CALLVALUE DUP1 ISZERO PUSH2 0xD6 JUMPI PUSH1 0x0 DUP1 REVERT JUMPDEST POP PUSH2 0xDF PUSH2 0x4FC JUMP JUMPDEST PUSH1 0x40 MLOAD PUSH2 0xEC SWAP2 SWAP1 PUSH2 0x1231 JUMP JUMPDEST PUSH1 0x40 MLOAD DUP1 SWAP2 SUB SWAP1 RETURN JUMPDEST CALLVALUE DUP1 ISZERO PUSH2 0x101 JUMPI PUSH1 0x0 DUP1 REVERT JUMPDEST POP PUSH2 0x10A PUSH2 0x502 JUMP JUMPDEST PUSH1 0x40 MLOAD PUSH2 0x117 SWAP2 SWAP1 PUSH2 0x1231 JUMP JUMPDEST PUSH1 0x40 MLOAD DUP1 SWAP2 SUB SWAP1 RETURN JUMPDEST CALLVALUE DUP1 ISZERO PUSH2 0x12C JUMPI PUSH1 0x0 DUP1 REVERT JUMPDEST POP PUSH2 0x135 PUSH2 0x50D JUMP JUMPDEST PUSH1 0x40 MLOAD PUSH2 0x142 SWAP2 SWAP1 PUSH2 0x1231 JUMP JUMPDEST PUSH1 0x40 MLOAD DUP1 SWAP2 SUB SWAP1 RETURN JUMPDEST CALLVALUE DUP1 ISZERO PUSH2 0x157 JUMPI PUSH1 0x0 DUP1 REVERT JUMPDEST POP PUSH2 0x160 PUSH2 0x513 JUMP JUMPDEST PUSH1 0x40 MLOAD PUSH2 0x16D SWAP2 SWAP1 PUSH2 0x1267 JUMP JUMPDEST PUSH1 0x40 MLOAD DUP1 SWAP2 SUB SWAP1 RETURN JUMPDEST CALLVALUE DUP1 ISZERO PUSH2 0x182 JUMPI PUSH1 0x0 DUP1 REVERT JUMPDEST POP PUSH2 0x19D PUSH1 0x4 DUP1 CALLDATASIZE SUB DUP2 ADD SWAP1 PUSH2 0x198 SWAP2 SWAP1 PUSH2 0x13DC JUMP JUMPDEST PUSH2 0x591 JUMP JUMPDEST PUSH1 0x40 MLOAD PUSH2 0x1AA SWAP2 SWAP1 PUSH2 0x149C JUMP JUMPDEST PUSH1 0x40 MLOAD DUP1 SWAP2 SUB SWAP1 RETURN JUMPDEST CALLVALUE DUP1 ISZERO PUSH2 0x1BF JUMPI PUSH1 0x0 DUP1 REVERT JUMPDEST POP PUSH2 0x1C8 PUSH2 0x87E JUMP JUMPDEST PUSH1 0x40 MLOAD PUSH2 0x1D5 SWAP2 SWAP1 PUSH2 0x14D0 JUMP JUMPDEST PUSH1 0x40 MLOAD DUP1 SWAP2 SUB SWAP1 RETURN JUMPDEST CALLVALUE DUP1 ISZERO PUSH2 0x1EA JUMPI PUSH1 0x0 DUP1 REVERT JUMPDEST POP PUSH2 0x1F3 PUSH2 0x8B4 JUMP JUMPDEST PUSH1 0x40 MLOAD PUSH2 0x200 SWAP2 SWAP1 PUSH2 0x1231 JUMP JUMPDEST PUSH1 0x40 MLOAD DUP1 SWAP2 SUB SWAP1 RETURN JUMPDEST CALLVALUE DUP1 ISZERO PUSH2 0x215 JUMPI PUSH1 0x0 DUP1 REVERT JUMPDEST POP PUSH2 0x21E PUSH2 0x8BC JUMP JUMPDEST PUSH1 0x40 MLOAD PUSH2 0x22B SWAP2 SWAP1 PUSH2 0x1533 JUMP JUMPDEST PUSH1 0x40 MLOAD DUP1 SWAP2 SUB SWAP1 RETURN JUMPDEST CALLVALUE DUP1 ISZERO PUSH2 0x240 JUMPI PUSH1 0x0 DUP1 REVERT JUMPDEST POP PUSH2 0x249 PUSH2 0xC2C JUMP JUMPDEST PUSH1 0x40 MLOAD PUSH2 0x256 SWAP2 SWAP1 PUSH2 0x1267 JUMP JUMPDEST PUSH1 0x40 MLOAD DUP1 SWAP2 SUB SWAP1 RETURN JUMPDEST CALLVALUE DUP1 ISZERO PUSH2 0x26B JUMPI PUSH1 0x0 DUP1 REVERT JUMPDEST POP PUSH2 0x286 PUSH1 0x4 DUP1 CALLDATASIZE SUB DUP2 ADD SWAP1 PUSH2 0x281 SWAP2 SWAP1 PUSH2 0x1584 JUMP JUMPDEST PUSH2 0xC4D JUMP JUMPDEST PUSH1 0x40 MLOAD PUSH2 0x293 SWAP2 SWAP1 PUSH2 0x1267 JUMP JUMPDEST PUSH1 0x40 MLOAD DUP1 SWAP2 SUB SWAP1 RETURN JUMPDEST CALLVALUE DUP1 ISZERO PUSH2 0x2A8 JUMPI PUSH1 0x0 DUP1 REVERT JUMPDEST POP PUSH2 0x2B1 PUSH2 0xDF9 JUMP JUMPDEST PUSH1 0x40 MLOAD PUSH2 0x2BE SWAP2 SWAP1 PUSH2 0x1231 JUMP JUMPDEST PUSH1 0x40 MLOAD DUP1 SWAP2 SUB SWAP1 RETURN JUMPDEST PUSH1 0x0 PUSH7 0x2386F26FC10000 CALLVALUE LT ISZERO PUSH2 0x2DD JUMPI PUSH1 0x0 DUP1 REVERT JUMPDEST PUSH1 0x0 DUP1 SLOAD EQ DUP1 PUSH2 0x2EF JUMPI POP PUSH1 0x0 SLOAD CALLVALUE LT ISZERO JUMPDEST PUSH2 0x2F8 JUMPI PUSH1 0x0 DUP1 REVERT JUMPDEST PUSH1 0x2 PUSH1 0x0 SWAP1 SLOAD SWAP1 PUSH2 0x100 EXP SWAP1 DIV PUSH20 0xFFFFFFFFFFFFFFFFFFFFFFFFFFFFFFFFFFFFFFFF AND PUSH20 0xFFFFFFFFFFFFFFFFFFFFFFFFFFFFFFFFFFFFFFFF AND CALLER PUSH20 0xFFFFFFFFFFFFFFFFFFFFFFFFFFFFFFFFFFFFFFFF AND EQ ISZERO DUP1 ISZERO PUSH2 0x3A4 JUMPI POP PUSH1 0x3 PUSH1 0x0 SWAP1 SLOAD SWAP1 PUSH2 0x100 EXP SWAP1 DIV PUSH20 0xFFFFFFFFFFFFFFFFFFFFFFFFFFFFFFFFFFFFFFFF AND PUSH20 0xFFFFFFFFFFFFFFFFFFFFFFFFFFFFFFFFFFFFFFFF AND CALLER PUSH20 0xFFFFFFFFFFFFFFFFFFFFFFFFFFFFFFFFFFFFFFFF AND EQ ISZERO JUMPDEST PUSH2 0x3AD JUMPI PUSH1 0x0 DUP1 REVERT JUMPDEST PUSH1 0x0 PUSH20 0xFFFFFFFFFFFFFFFFFFFFFFFFFFFFFFFFFFFFFFFF AND PUSH1 0x2 PUSH1 0x0 SWAP1 SLOAD SWAP1 PUSH2 0x100 EXP SWAP1 DIV PUSH20 0xFFFFFFFFFFFFFFFFFFFFFFFFFFFFFFFFFFFFFFFF AND PUSH20 0xFFFFFFFFFFFFFFFFFFFFFFFFFFFFFFFFFFFFFFFF AND SUB PUSH2 0x454 JUMPI CALLER PUSH1 0x2 PUSH1 0x0 PUSH2 0x100 EXP DUP2 SLOAD DUP2 PUSH20 0xFFFFFFFFFFFFFFFFFFFFFFFFFFFFFFFFFFFFFFFF MUL NOT AND SWAP1 DUP4 PUSH20 0xFFFFFFFFFFFFFFFFFFFFFFFFFFFFFFFFFFFFFFFF AND MUL OR SWAP1 SSTORE POP CALLVALUE PUSH1 0x0 DUP2 SWAP1 SSTORE POP PUSH1 0x1 SWAP1 POP PUSH2 0x4F9 JUMP JUMPDEST PUSH1 0x0 PUSH20 0xFFFFFFFFFFFFFFFFFFFFFFFFFFFFFFFFFFFFFFFF AND PUSH1 0x3 PUSH1 0x0 SWAP1 SLOAD SWAP1 PUSH2 0x100 EXP SWAP1 DIV PUSH20 0xFFFFFFFFFFFFFFFFFFFFFFFFFFFFFFFFFFFFFFFF AND PUSH20 0xFFFFFFFFFFFFFFFFFFFFFFFFFFFFFFFFFFFFFFFF AND SUB PUSH2 0x4F4 JUMPI CALLER PUSH1 0x3 PUSH1 0x0 PUSH2 0x100 EXP DUP2 SLOAD DUP2 PUSH20 0xFFFFFFFFFFFFFFFFFFFFFFFFFFFFFFFFFFFFFFFF MUL NOT AND SWAP1 DUP4 PUSH20 0xFFFFFFFFFFFFFFFFFFFFFFFFFFFFFFFFFFFFFFFF AND MUL OR SWAP1 SSTORE POP PUSH1 0x2 SWAP1 POP PUSH2 0x4F9 JUMP JUMPDEST PUSH1 0x0 SWAP1 POP JUMPDEST SWAP1 JUMP JUMPDEST PUSH1 0x0 SLOAD DUP2 JUMP JUMPDEST PUSH7 0x2386F26FC10000 DUP2 JUMP JUMPDEST PUSH2 0x258 DUP2 JUMP JUMPDEST PUSH1 0x0 DUP1 PUSH1 0x3 DUP2 GT ISZERO PUSH2 0x528 JUMPI PUSH2 0x527 PUSH2 0x1425 JUMP JUMPDEST JUMPDEST PUSH1 0x6 PUSH1 0x0 SWAP1 SLOAD SWAP1 PUSH2 0x100 EXP SWAP1 DIV PUSH1 0xFF AND PUSH1 0x3 DUP2 GT ISZERO PUSH2 0x54A JUMPI PUSH2 0x549 PUSH2 0x1425 JUMP JUMPDEST JUMPDEST EQ ISZERO DUP1 ISZERO PUSH2 0x58C JUMPI POP PUSH1 0x0 PUSH1 0x3 DUP2 GT ISZERO PUSH2 0x567 JUMPI PUSH2 0x566 PUSH2 0x1425 JUMP JUMPDEST JUMPDEST PUSH1 0x6 PUSH1 0x1 SWAP1 SLOAD SWAP1 PUSH2 0x100 EXP SWAP1 DIV PUSH1 0xFF AND PUSH1 0x3 DUP2 GT ISZERO PUSH2 0x589 JUMPI PUSH2 0x588 PUSH2 0x1425 JUMP JUMPDEST JUMPDEST EQ ISZERO JUMPDEST SWAP1 POP SWAP1 JUMP JUMPDEST PUSH1 0x0 PUSH1 0x2 PUSH1 0x0 SWAP1 SLOAD SWAP1 PUSH2 0x100 EXP SWAP1 DIV PUSH20 0xFFFFFFFFFFFFFFFFFFFFFFFFFFFFFFFFFFFFFFFF AND PUSH20 0xFFFFFFFFFFFFFFFFFFFFFFFFFFFFFFFFFFFFFFFF AND CALLER PUSH20 0xFFFFFFFFFFFFFFFFFFFFFFFFFFFFFFFFFFFFFFFF AND EQ DUP1 PUSH2 0x63C JUMPI POP PUSH1 0x3 PUSH1 0x0 SWAP1 SLOAD SWAP1 PUSH2 0x100 EXP SWAP1 DIV PUSH20 0xFFFFFFFFFFFFFFFFFFFFFFFFFFFFFFFFFFFFFFFF AND PUSH20 0xFFFFFFFFFFFFFFFFFFFFFFFFFFFFFFFFFFFFFFFF AND CALLER PUSH20 0xFFFFFFFFFFFFFFFFFFFFFFFFFFFFFFFFFFFFFFFF AND EQ JUMPDEST PUSH2 0x645 JUMPI PUSH1 0x0 DUP1 REVERT JUMPDEST PUSH1 0x0 DUP1 SHL PUSH1 0x4 SLOAD EQ ISZERO DUP1 ISZERO PUSH2 0x65F JUMPI POP PUSH1 0x0 DUP1 SHL PUSH1 0x5 SLOAD EQ ISZERO JUMPDEST PUSH2 0x668 JUMPI PUSH1 0x0 DUP1 REVERT JUMPDEST PUSH1 0x0 PUSH1 0x2 DUP4 PUSH1 0x40 MLOAD PUSH1 0x20 ADD PUSH2 0x67D SWAP2 SWAP1 PUSH2 0x1622 JUMP JUMPDEST PUSH1 0x40 MLOAD PUSH1 0x20 DUP2 DUP4 SUB SUB DUP2 MSTORE SWAP1 PUSH1 0x40 MSTORE PUSH1 0x40 MLOAD PUSH2 0x699 SWAP2 SWAP1 PUSH2 0x1680 JUMP JUMPDEST PUSH1 0x20 PUSH1 0x40 MLOAD DUP1 DUP4 SUB DUP2 DUP6 GAS STATICCALL ISZERO DUP1 ISZERO PUSH2 0x6B6 JUMPI RETURNDATASIZE PUSH1 0x0 DUP1 RETURNDATACOPY RETURNDATASIZE PUSH1 0x0 REVERT JUMPDEST POP POP POP PUSH1 0x40 MLOAD RETURNDATASIZE PUSH1 0x1F NOT PUSH1 0x1F DUP3 ADD AND DUP3 ADD DUP1 PUSH1 0x40 MSTORE POP DUP2 ADD SWAP1 PUSH2 0x6D9 SWAP2 SWAP1 PUSH2 0x16AC JUMP JUMPDEST SWAP1 POP PUSH1 0x0 PUSH2 0x6E6 DUP5 PUSH2 0xEBF JUMP JUMPDEST PUSH1 0x3 DUP2 GT ISZERO PUSH2 0x6F8 JUMPI PUSH2 0x6F7 PUSH2 0x1425 JUMP JUMPDEST JUMPDEST SWAP1 POP PUSH1 0x0 PUSH1 0x3 DUP2 GT ISZERO PUSH2 0x70E JUMPI PUSH2 0x70D PUSH2 0x1425 JUMP JUMPDEST JUMPDEST DUP2 PUSH1 0x3 DUP2 GT ISZERO PUSH2 0x721 JUMPI PUSH2 0x720 PUSH2 0x1425 JUMP JUMPDEST JUMPDEST SUB PUSH2 0x731 JUMPI PUSH1 0x0 SWAP3 POP POP POP PUSH2 0x879 JUMP JUMPDEST PUSH1 0x2 PUSH1 0x0 SWAP1 SLOAD SWAP1 PUSH2 0x100 EXP SWAP1 DIV PUSH20 0xFFFFFFFFFFFFFFFFFFFFFFFFFFFFFFFFFFFFFFFF AND PUSH20 0xFFFFFFFFFFFFFFFFFFFFFFFFFFFFFFFFFFFFFFFF AND CALLER PUSH20 0xFFFFFFFFFFFFFFFFFFFFFFFFFFFFFFFFFFFFFFFF AND EQ DUP1 ISZERO PUSH2 0x78F JUMPI POP PUSH1 0x4 SLOAD DUP3 EQ JUMPDEST ISZERO PUSH2 0x7C3 JUMPI DUP1 PUSH1 0x6 PUSH1 0x0 PUSH2 0x100 EXP DUP2 SLOAD DUP2 PUSH1 0xFF MUL NOT AND SWAP1 DUP4 PUSH1 0x3 DUP2 GT ISZERO PUSH2 0x7B9 JUMPI PUSH2 0x7B8 PUSH2 0x1425 JUMP JUMPDEST JUMPDEST MUL OR SWAP1 SSTORE POP PUSH2 0x861 JUMP JUMPDEST PUSH1 0x3 PUSH1 0x0 SWAP1 SLOAD SWAP1 PUSH2 0x100 EXP SWAP1 DIV PUSH20 0xFFFFFFFFFFFFFFFFFFFFFFFFFFFFFFFFFFFFFFFF AND PUSH20 0xFFFFFFFFFFFFFFFFFFFFFFFFFFFFFFFFFFFFFFFF AND CALLER PUSH20 0xFFFFFFFFFFFFFFFFFFFFFFFFFFFFFFFFFFFFFFFF AND EQ DUP1 ISZERO PUSH2 0x821 JUMPI POP PUSH1 0x5 SLOAD DUP3 EQ JUMPDEST ISZERO PUSH2 0x855 JUMPI DUP1 PUSH1 0x6 PUSH1 0x1 PUSH2 0x100 EXP DUP2 SLOAD DUP2 PUSH1 0xFF MUL NOT AND SWAP1 DUP4 PUSH1 0x3 DUP2 GT ISZERO PUSH2 0x84B JUMPI PUSH2 0x84A PUSH2 0x1425 JUMP JUMPDEST JUMPDEST MUL OR SWAP1 SSTORE POP PUSH2 0x860 JUMP JUMPDEST PUSH1 0x0 SWAP3 POP POP POP PUSH2 0x879 JUMP JUMPDEST JUMPDEST PUSH1 0x0 PUSH1 0x1 SLOAD SUB PUSH2 0x873 JUMPI TIMESTAMP PUSH1 0x1 DUP2 SWAP1 SSTORE POP JUMPDEST DUP1 SWAP3 POP POP POP JUMPDEST SWAP2 SWAP1 POP JUMP JUMPDEST PUSH1 0x0 DUP1 PUSH1 0x1 SLOAD EQ PUSH2 0x8AB JUMPI TIMESTAMP PUSH2 0x258 PUSH1 0x1 SLOAD PUSH2 0x89A SWAP2 SWAP1 PUSH2 0x1708 JUMP JUMPDEST PUSH2 0x8A4 SWAP2 SWAP1 PUSH2 0x173C JUMP JUMPDEST SWAP1 POP PUSH2 0x8B1 JUMP JUMPDEST PUSH2 0x258 SWAP1 POP JUMPDEST SWAP1 JUMP JUMPDEST PUSH1 0x0 SELFBALANCE SWAP1 POP SWAP1 JUMP JUMPDEST PUSH1 0x0 DUP1 PUSH1 0x3 DUP2 GT ISZERO PUSH2 0x8D1 JUMPI PUSH2 0x8D0 PUSH2 0x1425 JUMP JUMPDEST JUMPDEST PUSH1 0x6 PUSH1 0x0 SWAP1 SLOAD SWAP1 PUSH2 0x100 EXP SWAP1 DIV PUSH1 0xFF AND PUSH1 0x3 DUP2 GT ISZERO PUSH2 0x8F3 JUMPI PUSH2 0x8F2 PUSH2 0x1425 JUMP JUMPDEST JUMPDEST EQ ISZERO DUP1 ISZERO PUSH2 0x935 JUMPI POP PUSH1 0x0 PUSH1 0x3 DUP2 GT ISZERO PUSH2 0x910 JUMPI PUSH2 0x90F PUSH2 0x1425 JUMP JUMPDEST JUMPDEST PUSH1 0x6 PUSH1 0x1 SWAP1 SLOAD SWAP1 PUSH2 0x100 EXP SWAP1 DIV PUSH1 0xFF AND PUSH1 0x3 DUP2 GT ISZERO PUSH2 0x932 JUMPI PUSH2 0x931 PUSH2 0x1425 JUMP JUMPDEST JUMPDEST EQ ISZERO JUMPDEST DUP1 PUSH2 0x95D JUMPI POP PUSH1 0x0 PUSH1 0x1 SLOAD EQ ISZERO DUP1 ISZERO PUSH2 0x95C JUMPI POP PUSH2 0x258 PUSH1 0x1 SLOAD PUSH2 0x959 SWAP2 SWAP1 PUSH2 0x1708 JUMP JUMPDEST TIMESTAMP GT JUMPDEST JUMPDEST PUSH2 0x966 JUMPI PUSH1 0x0 DUP1 REVERT JUMPDEST PUSH1 0x0 PUSH1 0x6 PUSH1 0x1 SWAP1 SLOAD SWAP1 PUSH2 0x100 EXP SWAP1 DIV PUSH1 0xFF AND PUSH1 0x3 DUP2 GT ISZERO PUSH2 0x98A JUMPI PUSH2 0x989 PUSH2 0x1425 JUMP JUMPDEST JUMPDEST PUSH1 0x6 PUSH1 0x0 SWAP1 SLOAD SWAP1 PUSH2 0x100 EXP SWAP1 DIV PUSH1 0xFF AND PUSH1 0x3 DUP2 GT ISZERO PUSH2 0x9AC JUMPI PUSH2 0x9AB PUSH2 0x1425 JUMP JUMPDEST JUMPDEST SUB PUSH2 0x9BA JUMPI PUSH1 0x3 SWAP1 POP PUSH2 0xBBA JUMP JUMPDEST PUSH1 0x1 PUSH1 0x3 DUP2 GT ISZERO PUSH2 0x9CE JUMPI PUSH2 0x9CD PUSH2 0x1425 JUMP JUMPDEST JUMPDEST PUSH1 0x6 PUSH1 0x0 SWAP1 SLOAD SWAP1 PUSH2 0x100 EXP SWAP1 DIV PUSH1 0xFF AND PUSH1 0x3 DUP2 GT ISZERO PUSH2 0x9F0 JUMPI PUSH2 0x9EF PUSH2 0x1425 JUMP JUMPDEST JUMPDEST EQ DUP1 ISZERO PUSH2 0xA2F JUMPI POP PUSH1 0x3 DUP1 DUP2 GT ISZERO PUSH2 0xA0B JUMPI PUSH2 0xA0A PUSH2 0x1425 JUMP JUMPDEST JUMPDEST PUSH1 0x6 PUSH1 0x1 SWAP1 SLOAD SWAP1 PUSH2 0x100 EXP SWAP1 DIV PUSH1 0xFF AND PUSH1 0x3 DUP2 GT ISZERO PUSH2 0xA2D JUMPI PUSH2 0xA2C PUSH2 0x1425 JUMP JUMPDEST JUMPDEST EQ JUMPDEST DUP1 PUSH2 0xAAC JUMPI POP PUSH1 0x2 PUSH1 0x3 DUP2 GT ISZERO PUSH2 0xA49 JUMPI PUSH2 0xA48 PUSH2 0x1425 JUMP JUMPDEST JUMPDEST PUSH1 0x6 PUSH1 0x0 SWAP1 SLOAD SWAP1 PUSH2 0x100 EXP SWAP1 DIV PUSH1 0xFF AND PUSH1 0x3 DUP2 GT ISZERO PUSH2 0xA6B JUMPI PUSH2 0xA6A PUSH2 0x1425 JUMP JUMPDEST JUMPDEST EQ DUP1 ISZERO PUSH2 0xAAB JUMPI POP PUSH1 0x1 PUSH1 0x3 DUP2 GT ISZERO PUSH2 0xA87 JUMPI PUSH2 0xA86 PUSH2 0x1425 JUMP JUMPDEST JUMPDEST PUSH1 0x6 PUSH1 0x1 SWAP1 SLOAD SWAP1 PUSH2 0x100 EXP SWAP1 DIV PUSH1 0xFF AND PUSH1 0x3 DUP2 GT ISZERO PUSH2 0xAA9 JUMPI PUSH2 0xAA8 PUSH2 0x1425 JUMP JUMPDEST JUMPDEST EQ JUMPDEST JUMPDEST DUP1 PUSH2 0xB28 JUMPI POP PUSH1 0x3 DUP1 DUP2 GT ISZERO PUSH2 0xAC5 JUMPI PUSH2 0xAC4 PUSH2 0x1425 JUMP JUMPDEST JUMPDEST PUSH1 0x6 PUSH1 0x0 SWAP1 SLOAD SWAP1 PUSH2 0x100 EXP SWAP1 DIV PUSH1 0xFF AND PUSH1 0x3 DUP2 GT ISZERO PUSH2 0xAE7 JUMPI PUSH2 0xAE6 PUSH2 0x1425 JUMP JUMPDEST JUMPDEST EQ DUP1 ISZERO PUSH2 0xB27 JUMPI POP PUSH1 0x2 PUSH1 0x3 DUP2 GT ISZERO PUSH2 0xB03 JUMPI PUSH2 0xB02 PUSH2 0x1425 JUMP JUMPDEST JUMPDEST PUSH1 0x6 PUSH1 0x1 SWAP1 SLOAD SWAP1 PUSH2 0x100 EXP SWAP1 DIV PUSH1 0xFF AND PUSH1 0x3 DUP2 GT ISZERO PUSH2 0xB25 JUMPI PUSH2 0xB24 PUSH2 0x1425 JUMP JUMPDEST JUMPDEST EQ JUMPDEST JUMPDEST DUP1 PUSH2 0xBA6 JUMPI POP PUSH1 0x0 PUSH1 0x3 DUP2 GT ISZERO PUSH2 0xB42 JUMPI PUSH2 0xB41 PUSH2 0x1425 JUMP JUMPDEST JUMPDEST PUSH1 0x6 PUSH1 0x0 SWAP1 SLOAD SWAP1 PUSH2 0x100 EXP SWAP1 DIV PUSH1 0xFF AND PUSH1 0x3 DUP2 GT ISZERO PUSH2 0xB64 JUMPI PUSH2 0xB63 PUSH2 0x1425 JUMP JUMPDEST JUMPDEST EQ ISZERO DUP1 ISZERO PUSH2 0xBA5 JUMPI POP PUSH1 0x0 PUSH1 0x3 DUP2 GT ISZERO PUSH2 0xB81 JUMPI PUSH2 0xB80 PUSH2 0x1425 JUMP JUMPDEST JUMPDEST PUSH1 0x6 PUSH1 0x1 SWAP1 SLOAD SWAP1 PUSH2 0x100 EXP SWAP1 DIV PUSH1 0xFF AND PUSH1 0x3 DUP2 GT ISZERO PUSH2 0xBA3 JUMPI PUSH2 0xBA2 PUSH2 0x1425 JUMP JUMPDEST JUMPDEST EQ JUMPDEST JUMPDEST ISZERO PUSH2 0xBB4 JUMPI PUSH1 0x1 SWAP1 POP PUSH2 0xBB9 JUMP JUMPDEST PUSH1 0x2 SWAP1 POP JUMPDEST JUMPDEST PUSH1 0x0 PUSH1 0x2 PUSH1 0x0 SWAP1 SLOAD SWAP1 PUSH2 0x100 EXP SWAP1 DIV PUSH20 0xFFFFFFFFFFFFFFFFFFFFFFFFFFFFFFFFFFFFFFFF AND SWAP1 POP PUSH1 0x0 PUSH1 0x3 PUSH1 0x0 SWAP1 SLOAD SWAP1 PUSH2 0x100 EXP SWAP1 DIV PUSH20 0xFFFFFFFFFFFFFFFFFFFFFFFFFFFFFFFFFFFFFFFF AND SWAP1 POP PUSH1 0x0 DUP1 SLOAD SWAP1 POP PUSH2 0xC16 PUSH2 0xF93 JUMP JUMPDEST PUSH2 0xC22 DUP4 DUP4 DUP4 DUP8 PUSH2 0x1092 JUMP JUMPDEST DUP4 SWAP5 POP POP POP POP POP SWAP1 JUMP JUMPDEST PUSH1 0x0 DUP1 PUSH1 0x0 SHL PUSH1 0x4 SLOAD EQ ISZERO DUP1 ISZERO PUSH2 0xC48 JUMPI POP PUSH1 0x0 DUP1 SHL PUSH1 0x5 SLOAD EQ ISZERO JUMPDEST SWAP1 POP SWAP1 JUMP JUMPDEST PUSH1 0x0 PUSH1 0x2 PUSH1 0x0 SWAP1 SLOAD SWAP1 PUSH2 0x100 EXP SWAP1 DIV PUSH20 0xFFFFFFFFFFFFFFFFFFFFFFFFFFFFFFFFFFFFFFFF AND PUSH20 0xFFFFFFFFFFFFFFFFFFFFFFFFFFFFFFFFFFFFFFFF AND CALLER PUSH20 0xFFFFFFFFFFFFFFFFFFFFFFFFFFFFFFFFFFFFFFFF AND EQ DUP1 PUSH2 0xCF8 JUMPI POP PUSH1 0x3 PUSH1 0x0 SWAP1 SLOAD SWAP1 PUSH2 0x100 EXP SWAP1 DIV PUSH20 0xFFFFFFFFFFFFFFFFFFFFFFFFFFFFFFFFFFFFFFFF AND PUSH20 0xFFFFFFFFFFFFFFFFFFFFFFFFFFFFFFFFFFFFFFFF AND CALLER PUSH20 0xFFFFFFFFFFFFFFFFFFFFFFFFFFFFFFFFFFFFFFFF AND EQ JUMPDEST PUSH2 0xD01 JUMPI PUSH1 0x0 DUP1 REVERT JUMPDEST PUSH1 0x2 PUSH1 0x0 SWAP1 SLOAD SWAP1 PUSH2 0x100 EXP SWAP1 DIV PUSH20 0xFFFFFFFFFFFFFFFFFFFFFFFFFFFFFFFFFFFFFFFF AND PUSH20 0xFFFFFFFFFFFFFFFFFFFFFFFFFFFFFFFFFFFFFFFF AND CALLER PUSH20 0xFFFFFFFFFFFFFFFFFFFFFFFFFFFFFFFFFFFFFFFF AND EQ DUP1 ISZERO PUSH2 0xD62 JUMPI POP PUSH1 0x0 DUP1 SHL PUSH1 0x4 SLOAD EQ JUMPDEST ISZERO PUSH2 0xD73 JUMPI DUP2 PUSH1 0x4 DUP2 SWAP1 SSTORE POP PUSH2 0xDEF JUMP JUMPDEST PUSH1 0x3 PUSH1 0x0 SWAP1 SLOAD SWAP1 PUSH2 0x100 EXP SWAP1 DIV PUSH20 0xFFFFFFFFFFFFFFFFFFFFFFFFFFFFFFFFFFFFFFFF AND PUSH20 0xFFFFFFFFFFFFFFFFFFFFFFFFFFFFFFFFFFFFFFFF AND CALLER PUSH20 0xFFFFFFFFFFFFFFFFFFFFFFFFFFFFFFFFFFFFFFFF AND EQ DUP1 ISZERO PUSH2 0xDD4 JUMPI POP PUSH1 0x0 DUP1 SHL PUSH1 0x5 SLOAD EQ JUMPDEST ISZERO PUSH2 0xDE5 JUMPI DUP2 PUSH1 0x5 DUP2 SWAP1 SSTORE POP PUSH2 0xDEE JUMP JUMPDEST PUSH1 0x0 SWAP1 POP PUSH2 0xDF4 JUMP JUMPDEST JUMPDEST PUSH1 0x1 SWAP1 POP JUMPDEST SWAP2 SWAP1 POP JUMP JUMPDEST PUSH1 0x0 PUSH1 0x2 PUSH1 0x0 SWAP1 SLOAD SWAP1 PUSH2 0x100 EXP SWAP1 DIV PUSH20 0xFFFFFFFFFFFFFFFFFFFFFFFFFFFFFFFFFFFFFFFF AND PUSH20 0xFFFFFFFFFFFFFFFFFFFFFFFFFFFFFFFFFFFFFFFF AND CALLER PUSH20 0xFFFFFFFFFFFFFFFFFFFFFFFFFFFFFFFFFFFFFFFF AND SUB PUSH2 0xE59 JUMPI PUSH1 0x1 SWAP1 POP PUSH2 0xEBC JUMP JUMPDEST PUSH1 0x3 PUSH1 0x0 SWAP1 SLOAD SWAP1 PUSH2 0x100 EXP SWAP1 DIV PUSH20 0xFFFFFFFFFFFFFFFFFFFFFFFFFFFFFFFFFFFFFFFF AND PUSH20 0xFFFFFFFFFFFFFFFFFFFFFFFFFFFFFFFFFFFFFFFF AND CALLER PUSH20 0xFFFFFFFFFFFFFFFFFFFFFFFFFFFFFFFFFFFFFFFF AND SUB PUSH2 0xEB7 JUMPI PUSH1 0x2 SWAP1 POP PUSH2 0xEBC JUMP JUMPDEST PUSH1 0x0 SWAP1 POP JUMPDEST SWAP1 JUMP JUMPDEST PUSH1 0x0 DUP1 DUP3 PUSH1 0x0 DUP2 MLOAD DUP2 LT PUSH2 0xED6 JUMPI PUSH2 0xED5 PUSH2 0x1770 JUMP JUMPDEST JUMPDEST PUSH1 0x20 ADD ADD MLOAD PUSH1 0xF8 SHR PUSH1 0xF8 SHL SWAP1 POP PUSH1 0x52 PUSH1 0xF8 SHL DUP2 PUSH31 0xFFFFFFFFFFFFFFFFFFFFFFFFFFFFFFFFFFFFFFFFFFFFFFFFFFFFFFFFFFFFFF NOT AND SUB PUSH2 0xF1A JUMPI PUSH1 0x1 SWAP2 POP POP PUSH2 0xF8E JUMP JUMPDEST PUSH1 0x50 PUSH1 0xF8 SHL DUP2 PUSH31 0xFFFFFFFFFFFFFFFFFFFFFFFFFFFFFFFFFFFFFFFFFFFFFFFFFFFFFFFFFFFFFF NOT AND SUB PUSH2 0xF51 JUMPI PUSH1 0x2 SWAP2 POP POP PUSH2 0xF8E JUMP JUMPDEST PUSH1 0x53 PUSH1 0xF8 SHL DUP2 PUSH31 0xFFFFFFFFFFFFFFFFFFFFFFFFFFFFFFFFFFFFFFFFFFFFFFFFFFFFFFFFFFFFFF NOT AND SUB PUSH2 0xF88 JUMPI PUSH1 0x3 SWAP2 POP POP PUSH2 0xF8E JUMP JUMPDEST PUSH1 0x0 SWAP2 POP POP JUMPDEST SWAP2 SWAP1 POP JUMP JUMPDEST PUSH1 0x0 DUP1 DUP2 SWAP1 SSTORE POP PUSH1 0x0 PUSH1 0x1 DUP2 SWAP1 SSTORE POP PUSH1 0x0 PUSH1 0x2 PUSH1 0x0 PUSH2 0x100 EXP DUP2 SLOAD DUP2 PUSH20 0xFFFFFFFFFFFFFFFFFFFFFFFFFFFFFFFFFFFFFFFF MUL NOT AND SWAP1 DUP4 PUSH20 0xFFFFFFFFFFFFFFFFFFFFFFFFFFFFFFFFFFFFFFFF AND MUL OR SWAP1 SSTORE POP PUSH1 0x0 PUSH1 0x3 PUSH1 0x0 PUSH2 0x100 EXP DUP2 SLOAD DUP2 PUSH20 0xFFFFFFFFFFFFFFFFFFFFFFFFFFFFFFFFFFFFFFFF MUL NOT AND SWAP1 DUP4 PUSH20 0xFFFFFFFFFFFFFFFFFFFFFFFFFFFFFFFFFFFFFFFF AND MUL OR SWAP1 SSTORE POP PUSH1 0x0 DUP1 SHL PUSH1 0x4 DUP2 SWAP1 SSTORE POP PUSH1 0x0 DUP1 SHL PUSH1 0x5 DUP2 SWAP1 SSTORE POP PUSH1 0x0 PUSH1 0x6 PUSH1 0x0 PUSH2 0x100 EXP DUP2 SLOAD DUP2 PUSH1 0xFF MUL NOT AND SWAP1 DUP4 PUSH1 0x3 DUP2 GT ISZERO PUSH2 0x1060 JUMPI PUSH2 0x105F PUSH2 0x1425 JUMP JUMPDEST JUMPDEST MUL OR SWAP1 SSTORE POP PUSH1 0x0 PUSH1 0x6 PUSH1 0x1 PUSH2 0x100 EXP DUP2 SLOAD DUP2 PUSH1 0xFF MUL NOT AND SWAP1 DUP4 PUSH1 0x3 DUP2 GT ISZERO PUSH2 0x108B JUMPI PUSH2 0x108A PUSH2 0x1425 JUMP JUMPDEST JUMPDEST MUL OR SWAP1 SSTORE POP JUMP JUMPDEST PUSH1 0x1 PUSH1 0x3 DUP2 GT ISZERO PUSH2 0x10A6 JUMPI PUSH2 0x10A5 PUSH2 0x1425 JUMP JUMPDEST JUMPDEST DUP2 PUSH1 0x3 DUP2 GT ISZERO PUSH2 0x10B9 JUMPI PUSH2 0x10B8 PUSH2 0x1425 JUMP JUMPDEST JUMPDEST SUB PUSH2 0x110A JUMPI DUP4 PUSH20 0xFFFFFFFFFFFFFFFFFFFFFFFFFFFFFFFFFFFFFFFF AND PUSH2 0x8FC SELFBALANCE SWAP1 DUP2 ISZERO MUL SWAP1 PUSH1 0x40 MLOAD PUSH1 0x0 PUSH1 0x40 MLOAD DUP1 DUP4 SUB DUP2 DUP6 DUP9 DUP9 CALL SWAP4 POP POP POP POP ISZERO DUP1 ISZERO PUSH2 0x1104 JUMPI RETURNDATASIZE PUSH1 0x0 DUP1 RETURNDATACOPY RETURNDATASIZE PUSH1 0x0 REVERT JUMPDEST POP PUSH2 0x1212 JUMP JUMPDEST PUSH1 0x2 PUSH1 0x3 DUP2 GT ISZERO PUSH2 0x111E JUMPI PUSH2 0x111D PUSH2 0x1425 JUMP JUMPDEST JUMPDEST DUP2 PUSH1 0x3 DUP2 GT ISZERO PUSH2 0x1131 JUMPI PUSH2 0x1130 PUSH2 0x1425 JUMP JUMPDEST JUMPDEST SUB PUSH2 0x1182 JUMPI DUP3 PUSH20 0xFFFFFFFFFFFFFFFFFFFFFFFFFFFFFFFFFFFFFFFF AND PUSH2 0x8FC SELFBALANCE SWAP1 DUP2 ISZERO MUL SWAP1 PUSH1 0x40 MLOAD PUSH1 0x0 PUSH1 0x40 MLOAD DUP1 DUP4 SUB DUP2 DUP6 DUP9 DUP9 CALL SWAP4 POP POP POP POP ISZERO DUP1 ISZERO PUSH2 0x117C JUMPI RETURNDATASIZE PUSH1 0x0 DUP1 RETURNDATACOPY RETURNDATASIZE PUSH1 0x0 REVERT JUMPDEST POP PUSH2 0x1211 JUMP JUMPDEST DUP4 PUSH20 0xFFFFFFFFFFFFFFFFFFFFFFFFFFFFFFFFFFFFFFFF AND PUSH2 0x8FC DUP4 SWAP1 DUP2 ISZERO MUL SWAP1 PUSH1 0x40 MLOAD PUSH1 0x0 PUSH1 0x40 MLOAD DUP1 DUP4 SUB DUP2 DUP6 DUP9 DUP9 CALL SWAP4 POP POP POP POP ISZERO DUP1 ISZERO PUSH2 0x11C8 JUMPI RETURNDATASIZE PUSH1 0x0 DUP1 RETURNDATACOPY RETURNDATASIZE PUSH1 0x0 REVERT JUMPDEST POP DUP3 PUSH20 0xFFFFFFFFFFFFFFFFFFFFFFFFFFFFFFFFFFFFFFFF AND PUSH2 0x8FC SELFBALANCE SWAP1 DUP2 ISZERO MUL SWAP1 PUSH1 0x40 MLOAD PUSH1 0x0 PUSH1 0x40 MLOAD DUP1 DUP4 SUB DUP2 DUP6 DUP9 DUP9 CALL SWAP4 POP POP POP POP ISZERO DUP1 ISZERO PUSH2 0x120F JUMPI RETURNDATASIZE PUSH1 0x0 DUP1 RETURNDATACOPY RETURNDATASIZE PUSH1 0x0 REVERT JUMPDEST POP JUMPDEST JUMPDEST POP POP POP POP JUMP JUMPDEST PUSH1 0x0 DUP2 SWAP1 POP SWAP2 SWAP1 POP JUMP JUMPDEST PUSH2 0x122B DUP2 PUSH2 0x1218 JUMP JUMPDEST DUP3 MSTORE POP POP JUMP JUMPDEST PUSH1 0x0 PUSH1 0x20 DUP3 ADD SWAP1 POP PUSH2 0x1246 PUSH1 0x0 DUP4 ADD DUP5 PUSH2 0x1222 JUMP JUMPDEST SWAP3 SWAP2 POP POP JUMP JUMPDEST PUSH1 0x0 DUP2 ISZERO ISZERO SWAP1 POP SWAP2 SWAP1 POP JUMP JUMPDEST PUSH2 0x1261 DUP2 PUSH2 0x124C JUMP JUMPDEST DUP3 MSTORE POP POP JUMP JUMPDEST PUSH1 0x0 PUSH1 0x20 DUP3 ADD SWAP1 POP PUSH2 0x127C PUSH1 0x0 DUP4 ADD DUP5 PUSH2 0x1258 JUMP JUMPDEST SWAP3 SWAP2 POP POP JUMP JUMPDEST PUSH1 0x0 PUSH1 0x40 MLOAD SWAP1 POP SWAP1 JUMP JUMPDEST PUSH1 0x0 DUP1 REVERT JUMPDEST PUSH1 0x0 DUP1 REVERT JUMPDEST PUSH1 0x0 DUP1 REVERT JUMPDEST PUSH1 0x0 DUP1 REVERT JUMPDEST PUSH1 0x0 PUSH1 0x1F NOT PUSH1 0x1F DUP4 ADD AND SWAP1 POP SWAP2 SWAP1 POP JUMP JUMPDEST PUSH32 0x4E487B7100000000000000000000000000000000000000000000000000000000 PUSH1 0x0 MSTORE PUSH1 0x41 PUSH1 0x4 MSTORE PUSH1 0x24 PUSH1 0x0 REVERT JUMPDEST PUSH2 0x12E9 DUP3 PUSH2 0x12A0 JUMP JUMPDEST DUP2 ADD DUP2 DUP2 LT PUSH8 0xFFFFFFFFFFFFFFFF DUP3 GT OR ISZERO PUSH2 0x1308 JUMPI PUSH2 0x1307 PUSH2 0x12B1 JUMP JUMPDEST JUMPDEST DUP1 PUSH1 0x40 MSTORE POP POP POP JUMP JUMPDEST PUSH1 0x0 PUSH2 0x131B PUSH2 0x1282 JUMP JUMPDEST SWAP1 POP PUSH2 0x1327 DUP3 DUP3 PUSH2 0x12E0 JUMP JUMPDEST SWAP2 SWAP1 POP JUMP JUMPDEST PUSH1 0x0 PUSH8 0xFFFFFFFFFFFFFFFF DUP3 GT ISZERO PUSH2 0x1347 JUMPI PUSH2 0x1346 PUSH2 0x12B1 JUMP JUMPDEST JUMPDEST PUSH2 0x1350 DUP3 PUSH2 0x12A0 JUMP JUMPDEST SWAP1 POP PUSH1 0x20 DUP2 ADD SWAP1 POP SWAP2 SWAP1 POP JUMP JUMPDEST DUP3 DUP2 DUP4 CALLDATACOPY PUSH1 0x0 DUP4 DUP4 ADD MSTORE POP POP POP JUMP JUMPDEST PUSH1 0x0 PUSH2 0x137F PUSH2 0x137A DUP5 PUSH2 0x132C JUMP JUMPDEST PUSH2 0x1311 JUMP JUMPDEST SWAP1 POP DUP3 DUP2 MSTORE PUSH1 0x20 DUP2 ADD DUP5 DUP5 DUP5 ADD GT ISZERO PUSH2 0x139B JUMPI PUSH2 0x139A PUSH2 0x129B JUMP JUMPDEST JUMPDEST PUSH2 0x13A6 DUP5 DUP3 DUP6 PUSH2 0x135D JUMP JUMPDEST POP SWAP4 SWAP3 POP POP POP JUMP JUMPDEST PUSH1 0x0 DUP3 PUSH1 0x1F DUP4 ADD SLT PUSH2 0x13C3 JUMPI PUSH2 0x13C2 PUSH2 0x1296 JUMP JUMPDEST JUMPDEST DUP2 CALLDATALOAD PUSH2 0x13D3 DUP5 DUP3 PUSH1 0x20 DUP7 ADD PUSH2 0x136C JUMP JUMPDEST SWAP2 POP POP SWAP3 SWAP2 POP POP JUMP JUMPDEST PUSH1 0x0 PUSH1 0x20 DUP3 DUP5 SUB SLT ISZERO PUSH2 0x13F2 JUMPI PUSH2 0x13F1 PUSH2 0x128C JUMP JUMPDEST JUMPDEST PUSH1 0x0 DUP3 ADD CALLDATALOAD PUSH8 0xFFFFFFFFFFFFFFFF DUP2 GT ISZERO PUSH2 0x1410 JUMPI PUSH2 0x140F PUSH2 0x1291 JUMP JUMPDEST JUMPDEST PUSH2 0x141C DUP5 DUP3 DUP6 ADD PUSH2 0x13AE JUMP JUMPDEST SWAP2 POP POP SWAP3 SWAP2 POP POP JUMP JUMPDEST PUSH32 0x4E487B7100000000000000000000000000000000000000000000000000000000 PUSH1 0x0 MSTORE PUSH1 0x21 PUSH1 0x4 MSTORE PUSH1 0x24 PUSH1 0x0 REVERT JUMPDEST PUSH1 0x4 DUP2 LT PUSH2 0x1465 JUMPI PUSH2 0x1464 PUSH2 0x1425 JUMP JUMPDEST JUMPDEST POP JUMP JUMPDEST PUSH1 0x0 DUP2 SWAP1 POP PUSH2 0x1476 DUP3 PUSH2 0x1454 JUMP JUMPDEST SWAP2 SWAP1 POP JUMP JUMPDEST PUSH1 0x0 PUSH2 0x1486 DUP3 PUSH2 0x1468 JUMP JUMPDEST SWAP1 POP SWAP2 SWAP1 POP JUMP JUMPDEST PUSH2 0x1496 DUP2 PUSH2 0x147B JUMP JUMPDEST DUP3 MSTORE POP POP JUMP JUMPDEST PUSH1 0x0 PUSH1 0x20 DUP3 ADD SWAP1 POP PUSH2 0x14B1 PUSH1 0x0 DUP4 ADD DUP5 PUSH2 0x148D JUMP JUMPDEST SWAP3 SWAP2 POP POP JUMP JUMPDEST PUSH1 0x0 DUP2 SWAP1 POP SWAP2 SWAP1 POP JUMP JUMPDEST PUSH2 0x14CA DUP2 PUSH2 0x14B7 JUMP JUMPDEST DUP3 MSTORE POP POP JUMP JUMPDEST PUSH1 0x0 PUSH1 0x20 DUP3 ADD SWAP1 POP PUSH2 0x14E5 PUSH1 0x0 DUP4 ADD DUP5 PUSH2 0x14C1 JUMP JUMPDEST SWAP3 SWAP2 POP POP JUMP JUMPDEST PUSH1 0x4 DUP2 LT PUSH2 0x14FC JUMPI PUSH2 0x14FB PUSH2 0x1425 JUMP JUMPDEST JUMPDEST POP JUMP JUMPDEST PUSH1 0x0 DUP2 SWAP1 POP PUSH2 0x150D DUP3 PUSH2 0x14EB JUMP JUMPDEST SWAP2 SWAP1 POP JUMP JUMPDEST PUSH1 0x0 PUSH2 0x151D DUP3 PUSH2 0x14FF JUMP JUMPDEST SWAP1 POP SWAP2 SWAP1 POP JUMP JUMPDEST PUSH2 0x152D DUP2 PUSH2 0x1512 JUMP JUMPDEST DUP3 MSTORE POP POP JUMP JUMPDEST PUSH1 0x0 PUSH1 0x20 DUP3 ADD SWAP1 POP PUSH2 0x1548 PUSH1 0x0 DUP4 ADD DUP5 PUSH2 0x1524 JUMP JUMPDEST SWAP3 SWAP2 POP POP JUMP JUMPDEST PUSH1 0x0 DUP2 SWAP1 POP SWAP2 SWAP1 POP JUMP JUMPDEST PUSH2 0x1561 DUP2 PUSH2 0x154E JUMP JUMPDEST DUP2 EQ PUSH2 0x156C JUMPI PUSH1 0x0 DUP1 REVERT JUMPDEST POP JUMP JUMPDEST PUSH1 0x0 DUP2 CALLDATALOAD SWAP1 POP PUSH2 0x157E DUP2 PUSH2 0x1558 JUMP JUMPDEST SWAP3 SWAP2 POP POP JUMP JUMPDEST PUSH1 0x0 PUSH1 0x20 DUP3 DUP5 SUB SLT ISZERO PUSH2 0x159A JUMPI PUSH2 0x1599 PUSH2 0x128C JUMP JUMPDEST JUMPDEST PUSH1 0x0 PUSH2 0x15A8 DUP5 DUP3 DUP6 ADD PUSH2 0x156F JUMP JUMPDEST SWAP2 POP POP SWAP3 SWAP2 POP POP JUMP JUMPDEST PUSH1 0x0 DUP2 MLOAD SWAP1 POP SWAP2 SWAP1 POP JUMP JUMPDEST PUSH1 0x0 DUP2 SWAP1 POP SWAP3 SWAP2 POP POP JUMP JUMPDEST PUSH1 0x0 JUMPDEST DUP4 DUP2 LT ISZERO PUSH2 0x15E5 JUMPI DUP1 DUP3 ADD MLOAD DUP2 DUP5 ADD MSTORE PUSH1 0x20 DUP2 ADD SWAP1 POP PUSH2 0x15CA JUMP JUMPDEST PUSH1 0x0 DUP5 DUP5 ADD MSTORE POP POP POP POP JUMP JUMPDEST PUSH1 0x0 PUSH2 0x15FC DUP3 PUSH2 0x15B1 JUMP JUMPDEST PUSH2 0x1606 DUP2 DUP6 PUSH2 0x15BC JUMP JUMPDEST SWAP4 POP PUSH2 0x1616 DUP2 DUP6 PUSH1 0x20 DUP7 ADD PUSH2 0x15C7 JUMP JUMPDEST DUP1 DUP5 ADD SWAP2 POP POP SWAP3 SWAP2 POP POP JUMP JUMPDEST PUSH1 0x0 PUSH2 0x162E DUP3 DUP5 PUSH2 0x15F1 JUMP JUMPDEST SWAP2 POP DUP2 SWAP1 POP SWAP3 SWAP2 POP POP JUMP JUMPDEST PUSH1 0x0 DUP2 MLOAD SWAP1 POP SWAP2 SWAP1 POP JUMP JUMPDEST PUSH1 0x0 DUP2 SWAP1 POP SWAP3 SWAP2 POP POP JUMP JUMPDEST PUSH1 0x0 PUSH2 0x165A DUP3 PUSH2 0x1639 JUMP JUMPDEST PUSH2 0x1664 DUP2 DUP6 PUSH2 0x1644 JUMP JUMPDEST SWAP4 POP PUSH2 0x1674 DUP2 DUP6 PUSH1 0x20 DUP7 ADD PUSH2 0x15C7 JUMP JUMPDEST DUP1 DUP5 ADD SWAP2 POP POP SWAP3 SWAP2 POP POP JUMP JUMPDEST PUSH1 0x0 PUSH2 0x168C DUP3 DUP5 PUSH2 0x164F JUMP JUMPDEST SWAP2 POP DUP2 SWAP1 POP SWAP3 SWAP2 POP POP JUMP JUMPDEST PUSH1 0x0 DUP2 MLOAD SWAP1 POP PUSH2 0x16A6 DUP2 PUSH2 0x1558 JUMP JUMPDEST SWAP3 SWAP2 POP POP JUMP JUMPDEST PUSH1 0x0 PUSH1 0x20 DUP3 DUP5 SUB SLT ISZERO PUSH2 0x16C2 JUMPI PUSH2 0x16C1 PUSH2 0x128C JUMP JUMPDEST JUMPDEST PUSH1 0x0 PUSH2 0x16D0 DUP5 DUP3 DUP6 ADD PUSH2 0x1697 JUMP JUMPDEST SWAP2 POP POP SWAP3 SWAP2 POP POP JUMP JUMPDEST PUSH32 0x4E487B7100000000000000000000000000000000000000000000000000000000 PUSH1 0x0 MSTORE PUSH1 0x11 PUSH1 0x4 MSTORE PUSH1 0x24 PUSH1 0x0 REVERT JUMPDEST PUSH1 0x0 PUSH2 0x1713 DUP3 PUSH2 0x1218 JUMP JUMPDEST SWAP2 POP PUSH2 0x171E DUP4 PUSH2 0x1218 JUMP JUMPDEST SWAP3 POP DUP3 DUP3 ADD SWAP1 POP DUP1 DUP3 GT ISZERO PUSH2 0x1736 JUMPI PUSH2 0x1735 PUSH2 0x16D9 JUMP JUMPDEST JUMPDEST SWAP3 SWAP2 POP POP JUMP JUMPDEST PUSH1 0x0 PUSH2 0x1747 DUP3 PUSH2 0x1218 JUMP JUMPDEST SWAP2 POP PUSH2 0x1752 DUP4 PUSH2 0x1218 JUMP JUMPDEST SWAP3 POP DUP3 DUP3 SUB SWAP1 POP DUP2 DUP2 GT ISZERO PUSH2 0x176A JUMPI PUSH2 0x1769 PUSH2 0x16D9 JUMP JUMPDEST JUMPDEST SWAP3 SWAP2 POP POP JUMP JUMPDEST PUSH32 0x4E487B7100000000000000000000000000000000000000000000000000000000 PUSH1 0x0 MSTORE PUSH1 0x32 PUSH1 0x4 MSTORE PUSH1 0x24 PUSH1 0x0 REVERT INVALID LOG2 PUSH5 0x6970667358 0x22 SLT KECCAK256 0x21 0xBB CALLCODE DUP3 SWAP7 JUMPDEST 0xBA 0xC8 PUSH2 0xE872 PUSH10 0xAE5FDA4AA8A221503DC1 0xDB 0xD2 RETURNDATACOPY 0xA7 SWAP2 RETURN 0xB0 0x4A SWAP8 0x2C PUSH5 0x736F6C6343 STOP ADDMOD SLT STOP CALLER "
				},
				"gasEstimates": {
					"creation": {
						"codeDepositCost": "1220200",
						"executionCost": "1268",
						"totalCost": "1221468"
					},
					"external": {
						"BET_MIN()": "374",
						"REVEAL_TIMEOUT()": "396",
						"bothPlayed()": "4664",
						"bothRevealed()": "4901",
						"getContractBalance()": "361",
						"getOutcome()": "infinite",
						"initialBet()": "2452",
						"play(bytes32)": "35788",
						"register()": "57507",
						"reveal(string)": "infinite",
						"revealTimeLeft()": "infinite",
						"whoAmI()": "4798"
					},
					"internal": {
						"getFirstChar(string memory)": "infinite",
						"pay(address payable,address payable,uint256,enum RockPaperScissors.Outcomes)": "infinite",
						"reset()": "117235"
					}
				},
				"methodIdentifiers": {
					"BET_MIN()": "2626ab08",
					"REVEAL_TIMEOUT()": "3d6ae3a7",
					"bothPlayed()": "807c8504",
					"bothRevealed()": "43445ca8",
					"getContractBalance()": "6f9fb98a",
					"getOutcome()": "7e7e4b47",
					"initialBet()": "1d73c64c",
					"play(bytes32)": "c7a1865b",
					"register()": "1aa3a008",
					"reveal(string)": "4c261247",
					"revealTimeLeft()": "51dcb1c3",
					"whoAmI()": "da91254c"
				}
			},
			"storageLayout": {
				"storage": [
					{
						"astId": 9,
						"contract": "BaoBuaKeo.sol:RockPaperScissors",
						"label": "initialBet",
						"offset": 0,
						"slot": "0",
						"type": "t_uint256"
					},
					{
						"astId": 11,
						"contract": "BaoBuaKeo.sol:RockPaperScissors",
						"label": "firstReveal",
						"offset": 0,
						"slot": "1",
						"type": "t_uint256"
					},
					{
						"astId": 23,
						"contract": "BaoBuaKeo.sol:RockPaperScissors",
						"label": "playerA",
						"offset": 0,
						"slot": "2",
						"type": "t_address_payable"
					},
					{
						"astId": 25,
						"contract": "BaoBuaKeo.sol:RockPaperScissors",
						"label": "playerB",
						"offset": 0,
						"slot": "3",
						"type": "t_address_payable"
					},
					{
						"astId": 27,
						"contract": "BaoBuaKeo.sol:RockPaperScissors",
						"label": "encrMovePlayerA",
						"offset": 0,
						"slot": "4",
						"type": "t_bytes32"
					},
					{
						"astId": 29,
						"contract": "BaoBuaKeo.sol:RockPaperScissors",
						"label": "encrMovePlayerB",
						"offset": 0,
						"slot": "5",
						"type": "t_bytes32"
					},
					{
						"astId": 32,
						"contract": "BaoBuaKeo.sol:RockPaperScissors",
						"label": "movePlayerA",
						"offset": 0,
						"slot": "6",
						"type": "t_enum(Moves)16"
					},
					{
						"astId": 35,
						"contract": "BaoBuaKeo.sol:RockPaperScissors",
						"label": "movePlayerB",
						"offset": 1,
						"slot": "6",
						"type": "t_enum(Moves)16"
					}
				],
				"types": {
					"t_address_payable": {
						"encoding": "inplace",
						"label": "address payable",
						"numberOfBytes": "20"
					},
					"t_bytes32": {
						"encoding": "inplace",
						"label": "bytes32",
						"numberOfBytes": "32"
					},
					"t_enum(Moves)16": {
						"encoding": "inplace",
						"label": "enum RockPaperScissors.Moves",
						"numberOfBytes": "1"
					},
					"t_uint256": {
						"encoding": "inplace",
						"label": "uint256",
						"numberOfBytes": "32"
					}
				}
			},
			"userdoc": {
				"kind": "user",
				"methods": {},
				"version": 1
			}
		}
	}
}