{
	"call.sol": {
		"Call": {
			"abi": [
				{
					"inputs": [
						{
							"internalType": "address",
							"name": "_test",
							"type": "address"
						}
					],
					"name": "callDoesNotExit",
					"outputs": [],
					"stateMutability": "nonpayable",
					"type": "function"
				},
				{
					"inputs": [
						{
							"internalType": "address",
							"name": "_test",
							"type": "address"
						}
					],
					"name": "callFoo",
					"outputs": [],
					"stateMutability": "payable",
					"type": "function"
				},
				{
					"inputs": [],
					"name": "data",
					"outputs": [
						{
							"internalType": "bytes",
							"name": "",
							"type": "bytes"
						}
					],
					"stateMutability": "view",
					"type": "function"
				}
			],
			"devdoc": {
				"kind": "dev",
				"methods": {},
				"version": 1
			},
			"evm": {
				"assembly": "    /* \"call.sol\":415:919  contract Call {... */\n  mstore(0x40, 0x80)\n  callvalue\n  dup1\n  iszero\n  tag_1\n  jumpi\n  0x00\n  dup1\n  revert\ntag_1:\n  pop\n  dataSize(sub_0)\n  dup1\n  dataOffset(sub_0)\n  0x00\n  codecopy\n  0x00\n  return\nstop\n\nsub_0: assembly {\n        /* \"call.sol\":415:919  contract Call {... */\n      mstore(0x40, 0x80)\n      jumpi(tag_1, lt(calldatasize, 0x04))\n      shr(0xe0, calldataload(0x00))\n      dup1\n      0x14c3ec88\n      eq\n      tag_2\n      jumpi\n      dup1\n      0x73d4a13a\n      eq\n      tag_3\n      jumpi\n      dup1\n      0xedcbe76c\n      eq\n      tag_4\n      jumpi\n    tag_1:\n      0x00\n      dup1\n      revert\n        /* \"call.sol\":738:917  function callDoesNotExit (address _test) external{... */\n    tag_2:\n      callvalue\n      dup1\n      iszero\n      tag_5\n      jumpi\n      0x00\n      dup1\n      revert\n    tag_5:\n      pop\n      tag_6\n      0x04\n      dup1\n      calldatasize\n      sub\n      dup2\n      add\n      swap1\n      tag_7\n      swap2\n      swap1\n      tag_8\n      jump\t// in\n    tag_7:\n      tag_9\n      jump\t// in\n    tag_6:\n      stop\n        /* \"call.sol\":435:452  bytes public data */\n    tag_3:\n      callvalue\n      dup1\n      iszero\n      tag_10\n      jumpi\n      0x00\n      dup1\n      revert\n    tag_10:\n      pop\n      tag_11\n      tag_12\n      jump\t// in\n    tag_11:\n      mload(0x40)\n      tag_13\n      swap2\n      swap1\n      tag_14\n      jump\t// in\n    tag_13:\n      mload(0x40)\n      dup1\n      swap2\n      sub\n      swap1\n      return\n        /* \"call.sol\":458:732  function callFoo(address _test) external payable{... */\n    tag_4:\n      tag_15\n      0x04\n      dup1\n      calldatasize\n      sub\n      dup2\n      add\n      swap1\n      tag_16\n      swap2\n      swap1\n      tag_8\n      jump\t// in\n    tag_16:\n      tag_17\n      jump\t// in\n    tag_15:\n      stop\n        /* \"call.sol\":738:917  function callDoesNotExit (address _test) external{... */\n    tag_9:\n        /* \"call.sol\":798:810  bool success */\n      0x00\n        /* \"call.sol\":816:821  _test */\n      dup2\n        /* \"call.sol\":816:826  _test.call */\n      0xffffffffffffffffffffffffffffffffffffffff\n      and\n        /* \"call.sol\":827:868  abi.encodeWithSignature(\"doesNotExist()\") */\n      add(0x24, mload(0x40))\n      mload(0x40)\n      0x20\n      dup2\n      dup4\n      sub\n      sub\n      dup2\n      mstore\n      swap1\n      0x40\n      mstore\n      and(not(0xffffffffffffffffffffffffffffffffffffffffffffffffffffffff), 0x1dcc85ae00000000000000000000000000000000000000000000000000000000)\n      0x20\n      dup3\n      add\n      dup1\n      mload\n      0xffffffffffffffffffffffffffffffffffffffffffffffffffffffff\n      dup4\n      dup2\n      dup4\n      and\n      or\n      dup4\n      mstore\n      pop\n      pop\n      pop\n      pop\n        /* \"call.sol\":816:869  _test.call(abi.encodeWithSignature(\"doesNotExist()\")) */\n      mload(0x40)\n      tag_19\n      swap2\n      swap1\n      tag_20\n      jump\t// in\n    tag_19:\n      0x00\n      mload(0x40)\n      dup1\n      dup4\n      sub\n      dup2\n      0x00\n      dup7\n      gas\n      call\n      swap2\n      pop\n      pop\n      returndatasize\n      dup1\n      0x00\n      dup2\n      eq\n      tag_23\n      jumpi\n      mload(0x40)\n      swap2\n      pop\n      and(add(returndatasize, 0x3f), not(0x1f))\n      dup3\n      add\n      0x40\n      mstore\n      returndatasize\n      dup3\n      mstore\n      returndatasize\n      0x00\n      0x20\n      dup5\n      add\n      returndatacopy\n      jump(tag_22)\n    tag_23:\n      0x60\n      swap2\n      pop\n    tag_22:\n      pop\n        /* \"call.sol\":797:869  (bool success, ) = _test.call(abi.encodeWithSignature(\"doesNotExist()\")) */\n      pop\n      swap1\n      pop\n        /* \"call.sol\":887:894  success */\n      dup1\n        /* \"call.sol\":879:910  require(success, \"call failed\") */\n      tag_24\n      jumpi\n      mload(0x40)\n      0x08c379a000000000000000000000000000000000000000000000000000000000\n      dup2\n      mstore\n      0x04\n      add\n      tag_25\n      swap1\n      tag_26\n      jump\t// in\n    tag_25:\n      mload(0x40)\n      dup1\n      swap2\n      sub\n      swap1\n      revert\n    tag_24:\n        /* \"call.sol\":787:917  {... */\n      pop\n        /* \"call.sol\":738:917  function callDoesNotExit (address _test) external{... */\n      pop\n      jump\t// out\n        /* \"call.sol\":435:452  bytes public data */\n    tag_12:\n      0x00\n      dup1\n      sload\n      tag_27\n      swap1\n      tag_28\n      jump\t// in\n    tag_27:\n      dup1\n      0x1f\n      add\n      0x20\n      dup1\n      swap2\n      div\n      mul\n      0x20\n      add\n      mload(0x40)\n      swap1\n      dup2\n      add\n      0x40\n      mstore\n      dup1\n      swap3\n      swap2\n      swap1\n      dup2\n      dup2\n      mstore\n      0x20\n      add\n      dup3\n      dup1\n      sload\n      tag_29\n      swap1\n      tag_28\n      jump\t// in\n    tag_29:\n      dup1\n      iszero\n      tag_30\n      jumpi\n      dup1\n      0x1f\n      lt\n      tag_31\n      jumpi\n      0x0100\n      dup1\n      dup4\n      sload\n      div\n      mul\n      dup4\n      mstore\n      swap2\n      0x20\n      add\n      swap2\n      jump(tag_30)\n    tag_31:\n      dup3\n      add\n      swap2\n      swap1\n      0x00\n      mstore\n      keccak256(0x00, 0x20)\n      swap1\n    tag_32:\n      dup2\n      sload\n      dup2\n      mstore\n      swap1\n      0x01\n      add\n      swap1\n      0x20\n      add\n      dup1\n      dup4\n      gt\n      tag_32\n      jumpi\n      dup3\n      swap1\n      sub\n      0x1f\n      and\n      dup3\n      add\n      swap2\n    tag_30:\n      pop\n      pop\n      pop\n      pop\n      pop\n      dup2\n      jump\t// out\n        /* \"call.sol\":458:732  function callFoo(address _test) external payable{... */\n    tag_17:\n        /* \"call.sol\":517:529  bool success */\n      0x00\n        /* \"call.sol\":531:549  bytes memory _data */\n      dup1\n        /* \"call.sol\":553:558  _test */\n      dup3\n        /* \"call.sol\":553:563  _test.call */\n      0xffffffffffffffffffffffffffffffffffffffff\n      and\n        /* \"call.sol\":571:574  111 */\n      0x6f\n        /* \"call.sol\":648:651  123 */\n      0x7b\n        /* \"call.sol\":576:661  abi.encodeWithSignature(... */\n      add(0x24, mload(0x40))\n      tag_34\n      swap2\n      swap1\n      tag_35\n      jump\t// in\n    tag_34:\n      mload(0x40)\n      0x20\n      dup2\n      dup4\n      sub\n      sub\n      dup2\n      mstore\n      swap1\n      0x40\n      mstore\n      and(not(0xffffffffffffffffffffffffffffffffffffffffffffffffffffffff), 0x24ccab8f00000000000000000000000000000000000000000000000000000000)\n      0x20\n      dup3\n      add\n      dup1\n      mload\n      0xffffffffffffffffffffffffffffffffffffffffffffffffffffffff\n      dup4\n      dup2\n      dup4\n      and\n      or\n      dup4\n      mstore\n      pop\n      pop\n      pop\n      pop\n        /* \"call.sol\":553:662  _test.call{value: 111}(abi.encodeWithSignature(... */\n      mload(0x40)\n      tag_36\n      swap2\n      swap1\n      tag_20\n      jump\t// in\n    tag_36:\n      0x00\n      mload(0x40)\n      dup1\n      dup4\n      sub\n      dup2\n      dup6\n      dup8\n      gas\n      call\n      swap3\n      pop\n      pop\n      pop\n      returndatasize\n      dup1\n      0x00\n      dup2\n      eq\n      tag_39\n      jumpi\n      mload(0x40)\n      swap2\n      pop\n      and(add(returndatasize, 0x3f), not(0x1f))\n      dup3\n      add\n      0x40\n      mstore\n      returndatasize\n      dup3\n      mstore\n      returndatasize\n      0x00\n      0x20\n      dup5\n      add\n      returndatacopy\n      jump(tag_38)\n    tag_39:\n      0x60\n      swap2\n      pop\n    tag_38:\n      pop\n        /* \"call.sol\":516:662  (bool success, bytes memory _data) = _test.call{value: 111}(abi.encodeWithSignature(... */\n      swap2\n      pop\n      swap2\n      pop\n        /* \"call.sol\":680:687  success */\n      dup2\n        /* \"call.sol\":672:703  require(success, \"call failed\") */\n      tag_40\n      jumpi\n      mload(0x40)\n      0x08c379a000000000000000000000000000000000000000000000000000000000\n      dup2\n      mstore\n      0x04\n      add\n      tag_41\n      swap1\n      tag_26\n      jump\t// in\n    tag_41:\n      mload(0x40)\n      dup1\n      swap2\n      sub\n      swap1\n      revert\n    tag_40:\n        /* \"call.sol\":720:725  _data */\n      dup1\n        /* \"call.sol\":713:717  data */\n      0x00\n        /* \"call.sol\":713:725  data = _data */\n      swap1\n      dup2\n      tag_42\n      swap2\n      swap1\n      tag_43\n      jump\t// in\n    tag_42:\n      pop\n        /* \"call.sol\":506:732  {... */\n      pop\n      pop\n        /* \"call.sol\":458:732  function callFoo(address _test) external payable{... */\n      pop\n      jump\t// out\n        /* \"#utility.yul\":88:205   */\n    tag_45:\n        /* \"#utility.yul\":197:198   */\n      0x00\n        /* \"#utility.yul\":194:195   */\n      dup1\n        /* \"#utility.yul\":187:199   */\n      revert\n        /* \"#utility.yul\":334:460   */\n    tag_47:\n        /* \"#utility.yul\":371:378   */\n      0x00\n        /* \"#utility.yul\":411:453   */\n      0xffffffffffffffffffffffffffffffffffffffff\n        /* \"#utility.yul\":404:409   */\n      dup3\n        /* \"#utility.yul\":400:454   */\n      and\n        /* \"#utility.yul\":389:454   */\n      swap1\n      pop\n        /* \"#utility.yul\":334:460   */\n      swap2\n      swap1\n      pop\n      jump\t// out\n        /* \"#utility.yul\":466:562   */\n    tag_48:\n        /* \"#utility.yul\":503:510   */\n      0x00\n        /* \"#utility.yul\":532:556   */\n      tag_91\n        /* \"#utility.yul\":550:555   */\n      dup3\n        /* \"#utility.yul\":532:556   */\n      tag_47\n      jump\t// in\n    tag_91:\n        /* \"#utility.yul\":521:556   */\n      swap1\n      pop\n        /* \"#utility.yul\":466:562   */\n      swap2\n      swap1\n      pop\n      jump\t// out\n        /* \"#utility.yul\":568:690   */\n    tag_49:\n        /* \"#utility.yul\":641:665   */\n      tag_93\n        /* \"#utility.yul\":659:664   */\n      dup2\n        /* \"#utility.yul\":641:665   */\n      tag_48\n      jump\t// in\n    tag_93:\n        /* \"#utility.yul\":634:639   */\n      dup2\n        /* \"#utility.yul\":631:666   */\n      eq\n        /* \"#utility.yul\":621:684   */\n      tag_94\n      jumpi\n        /* \"#utility.yul\":680:681   */\n      0x00\n        /* \"#utility.yul\":677:678   */\n      dup1\n        /* \"#utility.yul\":670:682   */\n      revert\n        /* \"#utility.yul\":621:684   */\n    tag_94:\n        /* \"#utility.yul\":568:690   */\n      pop\n      jump\t// out\n        /* \"#utility.yul\":696:835   */\n    tag_50:\n        /* \"#utility.yul\":742:747   */\n      0x00\n        /* \"#utility.yul\":780:786   */\n      dup2\n        /* \"#utility.yul\":767:787   */\n      calldataload\n        /* \"#utility.yul\":758:787   */\n      swap1\n      pop\n        /* \"#utility.yul\":796:829   */\n      tag_96\n        /* \"#utility.yul\":823:828   */\n      dup2\n        /* \"#utility.yul\":796:829   */\n      tag_49\n      jump\t// in\n    tag_96:\n        /* \"#utility.yul\":696:835   */\n      swap3\n      swap2\n      pop\n      pop\n      jump\t// out\n        /* \"#utility.yul\":841:1170   */\n    tag_8:\n        /* \"#utility.yul\":900:906   */\n      0x00\n        /* \"#utility.yul\":949:951   */\n      0x20\n        /* \"#utility.yul\":937:946   */\n      dup3\n        /* \"#utility.yul\":928:935   */\n      dup5\n        /* \"#utility.yul\":924:947   */\n      sub\n        /* \"#utility.yul\":920:952   */\n      slt\n        /* \"#utility.yul\":917:1036   */\n      iszero\n      tag_98\n      jumpi\n        /* \"#utility.yul\":955:1034   */\n      tag_99\n      tag_45\n      jump\t// in\n    tag_99:\n        /* \"#utility.yul\":917:1036   */\n    tag_98:\n        /* \"#utility.yul\":1075:1076   */\n      0x00\n        /* \"#utility.yul\":1100:1153   */\n      tag_100\n        /* \"#utility.yul\":1145:1152   */\n      dup5\n        /* \"#utility.yul\":1136:1142   */\n      dup3\n        /* \"#utility.yul\":1125:1134   */\n      dup6\n        /* \"#utility.yul\":1121:1143   */\n      add\n        /* \"#utility.yul\":1100:1153   */\n      tag_50\n      jump\t// in\n    tag_100:\n        /* \"#utility.yul\":1090:1153   */\n      swap2\n      pop\n        /* \"#utility.yul\":1046:1163   */\n      pop\n        /* \"#utility.yul\":841:1170   */\n      swap3\n      swap2\n      pop\n      pop\n      jump\t// out\n        /* \"#utility.yul\":1176:1274   */\n    tag_51:\n        /* \"#utility.yul\":1227:1233   */\n      0x00\n        /* \"#utility.yul\":1261:1266   */\n      dup2\n        /* \"#utility.yul\":1255:1267   */\n      mload\n        /* \"#utility.yul\":1245:1267   */\n      swap1\n      pop\n        /* \"#utility.yul\":1176:1274   */\n      swap2\n      swap1\n      pop\n      jump\t// out\n        /* \"#utility.yul\":1280:1448   */\n    tag_52:\n        /* \"#utility.yul\":1363:1374   */\n      0x00\n        /* \"#utility.yul\":1397:1403   */\n      dup3\n        /* \"#utility.yul\":1392:1395   */\n      dup3\n        /* \"#utility.yul\":1385:1404   */\n      mstore\n        /* \"#utility.yul\":1437:1441   */\n      0x20\n        /* \"#utility.yul\":1432:1435   */\n      dup3\n        /* \"#utility.yul\":1428:1442   */\n      add\n        /* \"#utility.yul\":1413:1442   */\n      swap1\n      pop\n        /* \"#utility.yul\":1280:1448   */\n      swap3\n      swap2\n      pop\n      pop\n      jump\t// out\n        /* \"#utility.yul\":1454:1700   */\n    tag_53:\n        /* \"#utility.yul\":1535:1536   */\n      0x00\n        /* \"#utility.yul\":1545:1658   */\n    tag_104:\n        /* \"#utility.yul\":1559:1565   */\n      dup4\n        /* \"#utility.yul\":1556:1557   */\n      dup2\n        /* \"#utility.yul\":1553:1566   */\n      lt\n        /* \"#utility.yul\":1545:1658   */\n      iszero\n      tag_106\n      jumpi\n        /* \"#utility.yul\":1644:1645   */\n      dup1\n        /* \"#utility.yul\":1639:1642   */\n      dup3\n        /* \"#utility.yul\":1635:1646   */\n      add\n        /* \"#utility.yul\":1629:1647   */\n      mload\n        /* \"#utility.yul\":1625:1626   */\n      dup2\n        /* \"#utility.yul\":1620:1623   */\n      dup5\n        /* \"#utility.yul\":1616:1627   */\n      add\n        /* \"#utility.yul\":1609:1648   */\n      mstore\n        /* \"#utility.yul\":1581:1583   */\n      0x20\n        /* \"#utility.yul\":1578:1579   */\n      dup2\n        /* \"#utility.yul\":1574:1584   */\n      add\n        /* \"#utility.yul\":1569:1584   */\n      swap1\n      pop\n        /* \"#utility.yul\":1545:1658   */\n      jump(tag_104)\n    tag_106:\n        /* \"#utility.yul\":1692:1693   */\n      0x00\n        /* \"#utility.yul\":1683:1689   */\n      dup5\n        /* \"#utility.yul\":1678:1681   */\n      dup5\n        /* \"#utility.yul\":1674:1690   */\n      add\n        /* \"#utility.yul\":1667:1694   */\n      mstore\n        /* \"#utility.yul\":1516:1700   */\n      pop\n        /* \"#utility.yul\":1454:1700   */\n      pop\n      pop\n      pop\n      jump\t// out\n        /* \"#utility.yul\":1706:1808   */\n    tag_54:\n        /* \"#utility.yul\":1747:1753   */\n      0x00\n        /* \"#utility.yul\":1798:1800   */\n      0x1f\n        /* \"#utility.yul\":1794:1801   */\n      not\n        /* \"#utility.yul\":1789:1791   */\n      0x1f\n        /* \"#utility.yul\":1782:1787   */\n      dup4\n        /* \"#utility.yul\":1778:1792   */\n      add\n        /* \"#utility.yul\":1774:1802   */\n      and\n        /* \"#utility.yul\":1764:1802   */\n      swap1\n      pop\n        /* \"#utility.yul\":1706:1808   */\n      swap2\n      swap1\n      pop\n      jump\t// out\n        /* \"#utility.yul\":1814:2187   */\n    tag_55:\n        /* \"#utility.yul\":1900:1903   */\n      0x00\n        /* \"#utility.yul\":1928:1966   */\n      tag_109\n        /* \"#utility.yul\":1960:1965   */\n      dup3\n        /* \"#utility.yul\":1928:1966   */\n      tag_51\n      jump\t// in\n    tag_109:\n        /* \"#utility.yul\":1982:2052   */\n      tag_110\n        /* \"#utility.yul\":2045:2051   */\n      dup2\n        /* \"#utility.yul\":2040:2043   */\n      dup6\n        /* \"#utility.yul\":1982:2052   */\n      tag_52\n      jump\t// in\n    tag_110:\n        /* \"#utility.yul\":1975:2052   */\n      swap4\n      pop\n        /* \"#utility.yul\":2061:2126   */\n      tag_111\n        /* \"#utility.yul\":2119:2125   */\n      dup2\n        /* \"#utility.yul\":2114:2117   */\n      dup6\n        /* \"#utility.yul\":2107:2111   */\n      0x20\n        /* \"#utility.yul\":2100:2105   */\n      dup7\n        /* \"#utility.yul\":2096:2112   */\n      add\n        /* \"#utility.yul\":2061:2126   */\n      tag_53\n      jump\t// in\n    tag_111:\n        /* \"#utility.yul\":2151:2180   */\n      tag_112\n        /* \"#utility.yul\":2173:2179   */\n      dup2\n        /* \"#utility.yul\":2151:2180   */\n      tag_54\n      jump\t// in\n    tag_112:\n        /* \"#utility.yul\":2146:2149   */\n      dup5\n        /* \"#utility.yul\":2142:2181   */\n      add\n        /* \"#utility.yul\":2135:2181   */\n      swap2\n      pop\n        /* \"#utility.yul\":1904:2187   */\n      pop\n        /* \"#utility.yul\":1814:2187   */\n      swap3\n      swap2\n      pop\n      pop\n      jump\t// out\n        /* \"#utility.yul\":2193:2502   */\n    tag_14:\n        /* \"#utility.yul\":2304:2308   */\n      0x00\n        /* \"#utility.yul\":2342:2344   */\n      0x20\n        /* \"#utility.yul\":2331:2340   */\n      dup3\n        /* \"#utility.yul\":2327:2345   */\n      add\n        /* \"#utility.yul\":2319:2345   */\n      swap1\n      pop\n        /* \"#utility.yul\":2391:2400   */\n      dup2\n        /* \"#utility.yul\":2385:2389   */\n      dup2\n        /* \"#utility.yul\":2381:2401   */\n      sub\n        /* \"#utility.yul\":2377:2378   */\n      0x00\n        /* \"#utility.yul\":2366:2375   */\n      dup4\n        /* \"#utility.yul\":2362:2379   */\n      add\n        /* \"#utility.yul\":2355:2402   */\n      mstore\n        /* \"#utility.yul\":2419:2495   */\n      tag_114\n        /* \"#utility.yul\":2490:2494   */\n      dup2\n        /* \"#utility.yul\":2481:2487   */\n      dup5\n        /* \"#utility.yul\":2419:2495   */\n      tag_55\n      jump\t// in\n    tag_114:\n        /* \"#utility.yul\":2411:2495   */\n      swap1\n      pop\n        /* \"#utility.yul\":2193:2502   */\n      swap3\n      swap2\n      pop\n      pop\n      jump\t// out\n        /* \"#utility.yul\":2508:2655   */\n    tag_56:\n        /* \"#utility.yul\":2609:2620   */\n      0x00\n        /* \"#utility.yul\":2646:2649   */\n      dup2\n        /* \"#utility.yul\":2631:2649   */\n      swap1\n      pop\n        /* \"#utility.yul\":2508:2655   */\n      swap3\n      swap2\n      pop\n      pop\n      jump\t// out\n        /* \"#utility.yul\":2661:3047   */\n    tag_57:\n        /* \"#utility.yul\":2765:2768   */\n      0x00\n        /* \"#utility.yul\":2793:2831   */\n      tag_117\n        /* \"#utility.yul\":2825:2830   */\n      dup3\n        /* \"#utility.yul\":2793:2831   */\n      tag_51\n      jump\t// in\n    tag_117:\n        /* \"#utility.yul\":2847:2935   */\n      tag_118\n        /* \"#utility.yul\":2928:2934   */\n      dup2\n        /* \"#utility.yul\":2923:2926   */\n      dup6\n        /* \"#utility.yul\":2847:2935   */\n      tag_56\n      jump\t// in\n    tag_118:\n        /* \"#utility.yul\":2840:2935   */\n      swap4\n      pop\n        /* \"#utility.yul\":2944:3009   */\n      tag_119\n        /* \"#utility.yul\":3002:3008   */\n      dup2\n        /* \"#utility.yul\":2997:3000   */\n      dup6\n        /* \"#utility.yul\":2990:2994   */\n      0x20\n        /* \"#utility.yul\":2983:2988   */\n      dup7\n        /* \"#utility.yul\":2979:2995   */\n      add\n        /* \"#utility.yul\":2944:3009   */\n      tag_53\n      jump\t// in\n    tag_119:\n        /* \"#utility.yul\":3034:3040   */\n      dup1\n        /* \"#utility.yul\":3029:3032   */\n      dup5\n        /* \"#utility.yul\":3025:3041   */\n      add\n        /* \"#utility.yul\":3018:3041   */\n      swap2\n      pop\n        /* \"#utility.yul\":2769:3047   */\n      pop\n        /* \"#utility.yul\":2661:3047   */\n      swap3\n      swap2\n      pop\n      pop\n      jump\t// out\n        /* \"#utility.yul\":3053:3324   */\n    tag_20:\n        /* \"#utility.yul\":3183:3186   */\n      0x00\n        /* \"#utility.yul\":3205:3298   */\n      tag_121\n        /* \"#utility.yul\":3294:3297   */\n      dup3\n        /* \"#utility.yul\":3285:3291   */\n      dup5\n        /* \"#utility.yul\":3205:3298   */\n      tag_57\n      jump\t// in\n    tag_121:\n        /* \"#utility.yul\":3198:3298   */\n      swap2\n      pop\n        /* \"#utility.yul\":3315:3318   */\n      dup2\n        /* \"#utility.yul\":3308:3318   */\n      swap1\n      pop\n        /* \"#utility.yul\":3053:3324   */\n      swap3\n      swap2\n      pop\n      pop\n      jump\t// out\n        /* \"#utility.yul\":3330:3499   */\n    tag_58:\n        /* \"#utility.yul\":3414:3425   */\n      0x00\n        /* \"#utility.yul\":3448:3454   */\n      dup3\n        /* \"#utility.yul\":3443:3446   */\n      dup3\n        /* \"#utility.yul\":3436:3455   */\n      mstore\n        /* \"#utility.yul\":3488:3492   */\n      0x20\n        /* \"#utility.yul\":3483:3486   */\n      dup3\n        /* \"#utility.yul\":3479:3493   */\n      add\n        /* \"#utility.yul\":3464:3493   */\n      swap1\n      pop\n        /* \"#utility.yul\":3330:3499   */\n      swap3\n      swap2\n      pop\n      pop\n      jump\t// out\n        /* \"#utility.yul\":3505:3666   */\n    tag_59:\n        /* \"#utility.yul\":3645:3658   */\n      0x63616c6c206661696c6564000000000000000000000000000000000000000000\n        /* \"#utility.yul\":3641:3642   */\n      0x00\n        /* \"#utility.yul\":3633:3639   */\n      dup3\n        /* \"#utility.yul\":3629:3643   */\n      add\n        /* \"#utility.yul\":3622:3659   */\n      mstore\n        /* \"#utility.yul\":3505:3666   */\n      pop\n      jump\t// out\n        /* \"#utility.yul\":3672:4038   */\n    tag_60:\n        /* \"#utility.yul\":3814:3817   */\n      0x00\n        /* \"#utility.yul\":3835:3902   */\n      tag_125\n        /* \"#utility.yul\":3899:3901   */\n      0x0b\n        /* \"#utility.yul\":3894:3897   */\n      dup4\n        /* \"#utility.yul\":3835:3902   */\n      tag_58\n      jump\t// in\n    tag_125:\n        /* \"#utility.yul\":3828:3902   */\n      swap2\n      pop\n        /* \"#utility.yul\":3911:4004   */\n      tag_126\n        /* \"#utility.yul\":4000:4003   */\n      dup3\n        /* \"#utility.yul\":3911:4004   */\n      tag_59\n      jump\t// in\n    tag_126:\n        /* \"#utility.yul\":4029:4031   */\n      0x20\n        /* \"#utility.yul\":4024:4027   */\n      dup3\n        /* \"#utility.yul\":4020:4032   */\n      add\n        /* \"#utility.yul\":4013:4032   */\n      swap1\n      pop\n        /* \"#utility.yul\":3672:4038   */\n      swap2\n      swap1\n      pop\n      jump\t// out\n        /* \"#utility.yul\":4044:4463   */\n    tag_26:\n        /* \"#utility.yul\":4210:4214   */\n      0x00\n        /* \"#utility.yul\":4248:4250   */\n      0x20\n        /* \"#utility.yul\":4237:4246   */\n      dup3\n        /* \"#utility.yul\":4233:4251   */\n      add\n        /* \"#utility.yul\":4225:4251   */\n      swap1\n      pop\n        /* \"#utility.yul\":4297:4306   */\n      dup2\n        /* \"#utility.yul\":4291:4295   */\n      dup2\n        /* \"#utility.yul\":4287:4307   */\n      sub\n        /* \"#utility.yul\":4283:4284   */\n      0x00\n        /* \"#utility.yul\":4272:4281   */\n      dup4\n        /* \"#utility.yul\":4268:4285   */\n      add\n        /* \"#utility.yul\":4261:4308   */\n      mstore\n        /* \"#utility.yul\":4325:4456   */\n      tag_128\n        /* \"#utility.yul\":4451:4455   */\n      dup2\n        /* \"#utility.yul\":4325:4456   */\n      tag_60\n      jump\t// in\n    tag_128:\n        /* \"#utility.yul\":4317:4456   */\n      swap1\n      pop\n        /* \"#utility.yul\":4044:4463   */\n      swap2\n      swap1\n      pop\n      jump\t// out\n        /* \"#utility.yul\":4469:4649   */\n    tag_61:\n        /* \"#utility.yul\":4517:4594   */\n      0x4e487b7100000000000000000000000000000000000000000000000000000000\n        /* \"#utility.yul\":4514:4515   */\n      0x00\n        /* \"#utility.yul\":4507:4595   */\n      mstore\n        /* \"#utility.yul\":4614:4618   */\n      0x22\n        /* \"#utility.yul\":4611:4612   */\n      0x04\n        /* \"#utility.yul\":4604:4619   */\n      mstore\n        /* \"#utility.yul\":4638:4642   */\n      0x24\n        /* \"#utility.yul\":4635:4636   */\n      0x00\n        /* \"#utility.yul\":4628:4643   */\n      revert\n        /* \"#utility.yul\":4655:4975   */\n    tag_28:\n        /* \"#utility.yul\":4699:4705   */\n      0x00\n        /* \"#utility.yul\":4736:4737   */\n      0x02\n        /* \"#utility.yul\":4730:4734   */\n      dup3\n        /* \"#utility.yul\":4726:4738   */\n      div\n        /* \"#utility.yul\":4716:4738   */\n      swap1\n      pop\n        /* \"#utility.yul\":4783:4784   */\n      0x01\n        /* \"#utility.yul\":4777:4781   */\n      dup3\n        /* \"#utility.yul\":4773:4785   */\n      and\n        /* \"#utility.yul\":4804:4822   */\n      dup1\n        /* \"#utility.yul\":4794:4875   */\n      tag_131\n      jumpi\n        /* \"#utility.yul\":4860:4864   */\n      0x7f\n        /* \"#utility.yul\":4852:4858   */\n      dup3\n        /* \"#utility.yul\":4848:4865   */\n      and\n        /* \"#utility.yul\":4838:4865   */\n      swap2\n      pop\n        /* \"#utility.yul\":4794:4875   */\n    tag_131:\n        /* \"#utility.yul\":4922:4924   */\n      0x20\n        /* \"#utility.yul\":4914:4920   */\n      dup3\n        /* \"#utility.yul\":4911:4925   */\n      lt\n        /* \"#utility.yul\":4891:4909   */\n      dup2\n        /* \"#utility.yul\":4888:4926   */\n      sub\n        /* \"#utility.yul\":4885:4969   */\n      tag_132\n      jumpi\n        /* \"#utility.yul\":4941:4959   */\n      tag_133\n      tag_61\n      jump\t// in\n    tag_133:\n        /* \"#utility.yul\":4885:4969   */\n    tag_132:\n        /* \"#utility.yul\":4706:4975   */\n      pop\n        /* \"#utility.yul\":4655:4975   */\n      swap2\n      swap1\n      pop\n      jump\t// out\n        /* \"#utility.yul\":4981:5139   */\n    tag_62:\n        /* \"#utility.yul\":5121:5131   */\n      0x63616c6c20666f6f000000000000000000000000000000000000000000000000\n        /* \"#utility.yul\":5117:5118   */\n      0x00\n        /* \"#utility.yul\":5109:5115   */\n      dup3\n        /* \"#utility.yul\":5105:5119   */\n      add\n        /* \"#utility.yul\":5098:5132   */\n      mstore\n        /* \"#utility.yul\":4981:5139   */\n      pop\n      jump\t// out\n        /* \"#utility.yul\":5145:5510   */\n    tag_63:\n        /* \"#utility.yul\":5287:5290   */\n      0x00\n        /* \"#utility.yul\":5308:5374   */\n      tag_136\n        /* \"#utility.yul\":5372:5373   */\n      0x08\n        /* \"#utility.yul\":5367:5370   */\n      dup4\n        /* \"#utility.yul\":5308:5374   */\n      tag_58\n      jump\t// in\n    tag_136:\n        /* \"#utility.yul\":5301:5374   */\n      swap2\n      pop\n        /* \"#utility.yul\":5383:5476   */\n      tag_137\n        /* \"#utility.yul\":5472:5475   */\n      dup3\n        /* \"#utility.yul\":5383:5476   */\n      tag_62\n      jump\t// in\n    tag_137:\n        /* \"#utility.yul\":5501:5503   */\n      0x20\n        /* \"#utility.yul\":5496:5499   */\n      dup3\n        /* \"#utility.yul\":5492:5504   */\n      add\n        /* \"#utility.yul\":5485:5504   */\n      swap1\n      pop\n        /* \"#utility.yul\":5145:5510   */\n      swap2\n      swap1\n      pop\n      jump\t// out\n        /* \"#utility.yul\":5516:5603   */\n    tag_64:\n        /* \"#utility.yul\":5563:5570   */\n      0x00\n        /* \"#utility.yul\":5592:5597   */\n      dup2\n        /* \"#utility.yul\":5581:5597   */\n      swap1\n      pop\n        /* \"#utility.yul\":5516:5603   */\n      swap2\n      swap1\n      pop\n      jump\t// out\n        /* \"#utility.yul\":5609:5695   */\n    tag_65:\n        /* \"#utility.yul\":5644:5651   */\n      0x00\n        /* \"#utility.yul\":5684:5688   */\n      0xff\n        /* \"#utility.yul\":5677:5682   */\n      dup3\n        /* \"#utility.yul\":5673:5689   */\n      and\n        /* \"#utility.yul\":5662:5689   */\n      swap1\n      pop\n        /* \"#utility.yul\":5609:5695   */\n      swap2\n      swap1\n      pop\n      jump\t// out\n        /* \"#utility.yul\":5701:5761   */\n    tag_66:\n        /* \"#utility.yul\":5729:5732   */\n      0x00\n        /* \"#utility.yul\":5750:5755   */\n      dup2\n        /* \"#utility.yul\":5743:5755   */\n      swap1\n      pop\n        /* \"#utility.yul\":5701:5761   */\n      swap2\n      swap1\n      pop\n      jump\t// out\n        /* \"#utility.yul\":5767:5925   */\n    tag_67:\n        /* \"#utility.yul\":5825:5834   */\n      0x00\n        /* \"#utility.yul\":5858:5919   */\n      tag_142\n        /* \"#utility.yul\":5874:5918   */\n      tag_143\n        /* \"#utility.yul\":5883:5917   */\n      tag_144\n        /* \"#utility.yul\":5911:5916   */\n      dup5\n        /* \"#utility.yul\":5883:5917   */\n      tag_64\n      jump\t// in\n    tag_144:\n        /* \"#utility.yul\":5874:5918   */\n      tag_66\n      jump\t// in\n    tag_143:\n        /* \"#utility.yul\":5858:5919   */\n      tag_65\n      jump\t// in\n    tag_142:\n        /* \"#utility.yul\":5845:5919   */\n      swap1\n      pop\n        /* \"#utility.yul\":5767:5925   */\n      swap2\n      swap1\n      pop\n      jump\t// out\n        /* \"#utility.yul\":5931:6078   */\n    tag_68:\n        /* \"#utility.yul\":6026:6071   */\n      tag_146\n        /* \"#utility.yul\":6065:6070   */\n      dup2\n        /* \"#utility.yul\":6026:6071   */\n      tag_67\n      jump\t// in\n    tag_146:\n        /* \"#utility.yul\":6021:6024   */\n      dup3\n        /* \"#utility.yul\":6014:6072   */\n      mstore\n        /* \"#utility.yul\":5931:6078   */\n      pop\n      pop\n      jump\t// out\n        /* \"#utility.yul\":6084:6629   */\n    tag_35:\n        /* \"#utility.yul\":6286:6290   */\n      0x00\n        /* \"#utility.yul\":6324:6326   */\n      0x40\n        /* \"#utility.yul\":6313:6322   */\n      dup3\n        /* \"#utility.yul\":6309:6327   */\n      add\n        /* \"#utility.yul\":6301:6327   */\n      swap1\n      pop\n        /* \"#utility.yul\":6373:6382   */\n      dup2\n        /* \"#utility.yul\":6367:6371   */\n      dup2\n        /* \"#utility.yul\":6363:6383   */\n      sub\n        /* \"#utility.yul\":6359:6360   */\n      0x00\n        /* \"#utility.yul\":6348:6357   */\n      dup4\n        /* \"#utility.yul\":6344:6361   */\n      add\n        /* \"#utility.yul\":6337:6384   */\n      mstore\n        /* \"#utility.yul\":6401:6532   */\n      tag_148\n        /* \"#utility.yul\":6527:6531   */\n      dup2\n        /* \"#utility.yul\":6401:6532   */\n      tag_63\n      jump\t// in\n    tag_148:\n        /* \"#utility.yul\":6393:6532   */\n      swap1\n      pop\n        /* \"#utility.yul\":6542:6622   */\n      tag_149\n        /* \"#utility.yul\":6618:6620   */\n      0x20\n        /* \"#utility.yul\":6607:6616   */\n      dup4\n        /* \"#utility.yul\":6603:6621   */\n      add\n        /* \"#utility.yul\":6594:6600   */\n      dup5\n        /* \"#utility.yul\":6542:6622   */\n      tag_68\n      jump\t// in\n    tag_149:\n        /* \"#utility.yul\":6084:6629   */\n      swap3\n      swap2\n      pop\n      pop\n      jump\t// out\n        /* \"#utility.yul\":6635:6815   */\n    tag_69:\n        /* \"#utility.yul\":6683:6760   */\n      0x4e487b7100000000000000000000000000000000000000000000000000000000\n        /* \"#utility.yul\":6680:6681   */\n      0x00\n        /* \"#utility.yul\":6673:6761   */\n      mstore\n        /* \"#utility.yul\":6780:6784   */\n      0x41\n        /* \"#utility.yul\":6777:6778   */\n      0x04\n        /* \"#utility.yul\":6770:6785   */\n      mstore\n        /* \"#utility.yul\":6804:6808   */\n      0x24\n        /* \"#utility.yul\":6801:6802   */\n      0x00\n        /* \"#utility.yul\":6794:6809   */\n      revert\n        /* \"#utility.yul\":6821:6961   */\n    tag_70:\n        /* \"#utility.yul\":6869:6873   */\n      0x00\n        /* \"#utility.yul\":6892:6895   */\n      dup2\n        /* \"#utility.yul\":6884:6895   */\n      swap1\n      pop\n        /* \"#utility.yul\":6915:6918   */\n      dup2\n        /* \"#utility.yul\":6912:6913   */\n      0x00\n        /* \"#utility.yul\":6905:6919   */\n      mstore\n        /* \"#utility.yul\":6949:6953   */\n      0x20\n        /* \"#utility.yul\":6946:6947   */\n      0x00\n        /* \"#utility.yul\":6936:6954   */\n      keccak256\n        /* \"#utility.yul\":6928:6954   */\n      swap1\n      pop\n        /* \"#utility.yul\":6821:6961   */\n      swap2\n      swap1\n      pop\n      jump\t// out\n        /* \"#utility.yul\":6967:7060   */\n    tag_71:\n        /* \"#utility.yul\":7004:7010   */\n      0x00\n        /* \"#utility.yul\":7051:7053   */\n      0x20\n        /* \"#utility.yul\":7046:7048   */\n      0x1f\n        /* \"#utility.yul\":7039:7044   */\n      dup4\n        /* \"#utility.yul\":7035:7049   */\n      add\n        /* \"#utility.yul\":7031:7054   */\n      div\n        /* \"#utility.yul\":7021:7054   */\n      swap1\n      pop\n        /* \"#utility.yul\":6967:7060   */\n      swap2\n      swap1\n      pop\n      jump\t// out\n        /* \"#utility.yul\":7066:7173   */\n    tag_72:\n        /* \"#utility.yul\":7110:7118   */\n      0x00\n        /* \"#utility.yul\":7160:7165   */\n      dup3\n        /* \"#utility.yul\":7154:7158   */\n      dup3\n        /* \"#utility.yul\":7150:7166   */\n      shl\n        /* \"#utility.yul\":7129:7166   */\n      swap1\n      pop\n        /* \"#utility.yul\":7066:7173   */\n      swap3\n      swap2\n      pop\n      pop\n      jump\t// out\n        /* \"#utility.yul\":7179:7572   */\n    tag_73:\n        /* \"#utility.yul\":7248:7254   */\n      0x00\n        /* \"#utility.yul\":7298:7299   */\n      0x08\n        /* \"#utility.yul\":7286:7296   */\n      dup4\n        /* \"#utility.yul\":7282:7300   */\n      mul\n        /* \"#utility.yul\":7321:7418   */\n      tag_155\n        /* \"#utility.yul\":7351:7417   */\n      0xffffffffffffffffffffffffffffffffffffffffffffffffffffffffffffffff\n        /* \"#utility.yul\":7340:7349   */\n      dup3\n        /* \"#utility.yul\":7321:7418   */\n      tag_72\n      jump\t// in\n    tag_155:\n        /* \"#utility.yul\":7439:7478   */\n      tag_156\n        /* \"#utility.yul\":7469:7477   */\n      dup7\n        /* \"#utility.yul\":7458:7467   */\n      dup4\n        /* \"#utility.yul\":7439:7478   */\n      tag_72\n      jump\t// in\n    tag_156:\n        /* \"#utility.yul\":7427:7478   */\n      swap6\n      pop\n        /* \"#utility.yul\":7511:7515   */\n      dup1\n        /* \"#utility.yul\":7507:7516   */\n      not\n        /* \"#utility.yul\":7500:7505   */\n      dup5\n        /* \"#utility.yul\":7496:7517   */\n      and\n        /* \"#utility.yul\":7487:7517   */\n      swap4\n      pop\n        /* \"#utility.yul\":7560:7564   */\n      dup1\n        /* \"#utility.yul\":7550:7558   */\n      dup7\n        /* \"#utility.yul\":7546:7565   */\n      and\n        /* \"#utility.yul\":7539:7544   */\n      dup5\n        /* \"#utility.yul\":7536:7566   */\n      or\n        /* \"#utility.yul\":7526:7566   */\n      swap3\n      pop\n        /* \"#utility.yul\":7255:7572   */\n      pop\n      pop\n        /* \"#utility.yul\":7179:7572   */\n      swap4\n      swap3\n      pop\n      pop\n      pop\n      jump\t// out\n        /* \"#utility.yul\":7578:7655   */\n    tag_74:\n        /* \"#utility.yul\":7615:7622   */\n      0x00\n        /* \"#utility.yul\":7644:7649   */\n      dup2\n        /* \"#utility.yul\":7633:7649   */\n      swap1\n      pop\n        /* \"#utility.yul\":7578:7655   */\n      swap2\n      swap1\n      pop\n      jump\t// out\n        /* \"#utility.yul\":7661:7803   */\n    tag_75:\n        /* \"#utility.yul\":7711:7720   */\n      0x00\n        /* \"#utility.yul\":7744:7797   */\n      tag_159\n        /* \"#utility.yul\":7762:7796   */\n      tag_160\n        /* \"#utility.yul\":7771:7795   */\n      tag_161\n        /* \"#utility.yul\":7789:7794   */\n      dup5\n        /* \"#utility.yul\":7771:7795   */\n      tag_74\n      jump\t// in\n    tag_161:\n        /* \"#utility.yul\":7762:7796   */\n      tag_66\n      jump\t// in\n    tag_160:\n        /* \"#utility.yul\":7744:7797   */\n      tag_74\n      jump\t// in\n    tag_159:\n        /* \"#utility.yul\":7731:7797   */\n      swap1\n      pop\n        /* \"#utility.yul\":7661:7803   */\n      swap2\n      swap1\n      pop\n      jump\t// out\n        /* \"#utility.yul\":7809:7884   */\n    tag_76:\n        /* \"#utility.yul\":7852:7855   */\n      0x00\n        /* \"#utility.yul\":7873:7878   */\n      dup2\n        /* \"#utility.yul\":7866:7878   */\n      swap1\n      pop\n        /* \"#utility.yul\":7809:7884   */\n      swap2\n      swap1\n      pop\n      jump\t// out\n        /* \"#utility.yul\":7890:8159   */\n    tag_77:\n        /* \"#utility.yul\":8000:8039   */\n      tag_164\n        /* \"#utility.yul\":8031:8038   */\n      dup4\n        /* \"#utility.yul\":8000:8039   */\n      tag_75\n      jump\t// in\n    tag_164:\n        /* \"#utility.yul\":8061:8152   */\n      tag_165\n        /* \"#utility.yul\":8110:8151   */\n      tag_166\n        /* \"#utility.yul\":8134:8150   */\n      dup3\n        /* \"#utility.yul\":8110:8151   */\n      tag_76\n      jump\t// in\n    tag_166:\n        /* \"#utility.yul\":8102:8108   */\n      dup5\n        /* \"#utility.yul\":8095:8099   */\n      dup5\n        /* \"#utility.yul\":8089:8100   */\n      sload\n        /* \"#utility.yul\":8061:8152   */\n      tag_73\n      jump\t// in\n    tag_165:\n        /* \"#utility.yul\":8055:8059   */\n      dup3\n        /* \"#utility.yul\":8048:8153   */\n      sstore\n        /* \"#utility.yul\":7966:8159   */\n      pop\n        /* \"#utility.yul\":7890:8159   */\n      pop\n      pop\n      pop\n      jump\t// out\n        /* \"#utility.yul\":8165:8238   */\n    tag_78:\n        /* \"#utility.yul\":8210:8213   */\n      0x00\n        /* \"#utility.yul\":8165:8238   */\n      swap1\n      jump\t// out\n        /* \"#utility.yul\":8244:8433   */\n    tag_79:\n        /* \"#utility.yul\":8321:8353   */\n      tag_169\n      tag_78\n      jump\t// in\n    tag_169:\n        /* \"#utility.yul\":8362:8427   */\n      tag_170\n        /* \"#utility.yul\":8420:8426   */\n      dup2\n        /* \"#utility.yul\":8412:8418   */\n      dup5\n        /* \"#utility.yul\":8406:8410   */\n      dup5\n        /* \"#utility.yul\":8362:8427   */\n      tag_77\n      jump\t// in\n    tag_170:\n        /* \"#utility.yul\":8297:8433   */\n      pop\n        /* \"#utility.yul\":8244:8433   */\n      pop\n      pop\n      jump\t// out\n        /* \"#utility.yul\":8439:8625   */\n    tag_80:\n        /* \"#utility.yul\":8499:8619   */\n    tag_172:\n        /* \"#utility.yul\":8516:8519   */\n      dup2\n        /* \"#utility.yul\":8509:8514   */\n      dup2\n        /* \"#utility.yul\":8506:8520   */\n      lt\n        /* \"#utility.yul\":8499:8619   */\n      iszero\n      tag_174\n      jumpi\n        /* \"#utility.yul\":8570:8609   */\n      tag_175\n        /* \"#utility.yul\":8607:8608   */\n      0x00\n        /* \"#utility.yul\":8600:8605   */\n      dup3\n        /* \"#utility.yul\":8570:8609   */\n      tag_79\n      jump\t// in\n    tag_175:\n        /* \"#utility.yul\":8543:8544   */\n      0x01\n        /* \"#utility.yul\":8536:8541   */\n      dup2\n        /* \"#utility.yul\":8532:8545   */\n      add\n        /* \"#utility.yul\":8523:8545   */\n      swap1\n      pop\n        /* \"#utility.yul\":8499:8619   */\n      jump(tag_172)\n    tag_174:\n        /* \"#utility.yul\":8439:8625   */\n      pop\n      pop\n      jump\t// out\n        /* \"#utility.yul\":8631:9172   */\n    tag_81:\n        /* \"#utility.yul\":8731:8733   */\n      0x1f\n        /* \"#utility.yul\":8726:8729   */\n      dup3\n        /* \"#utility.yul\":8723:8734   */\n      gt\n        /* \"#utility.yul\":8720:9165   */\n      iszero\n      tag_177\n      jumpi\n        /* \"#utility.yul\":8765:8802   */\n      tag_178\n        /* \"#utility.yul\":8796:8801   */\n      dup2\n        /* \"#utility.yul\":8765:8802   */\n      tag_70\n      jump\t// in\n    tag_178:\n        /* \"#utility.yul\":8848:8877   */\n      tag_179\n        /* \"#utility.yul\":8866:8876   */\n      dup5\n        /* \"#utility.yul\":8848:8877   */\n      tag_71\n      jump\t// in\n    tag_179:\n        /* \"#utility.yul\":8838:8846   */\n      dup2\n        /* \"#utility.yul\":8834:8878   */\n      add\n        /* \"#utility.yul\":9031:9033   */\n      0x20\n        /* \"#utility.yul\":9019:9029   */\n      dup6\n        /* \"#utility.yul\":9016:9034   */\n      lt\n        /* \"#utility.yul\":9013:9062   */\n      iszero\n      tag_180\n      jumpi\n        /* \"#utility.yul\":9052:9060   */\n      dup2\n        /* \"#utility.yul\":9037:9060   */\n      swap1\n      pop\n        /* \"#utility.yul\":9013:9062   */\n    tag_180:\n        /* \"#utility.yul\":9075:9155   */\n      tag_181\n        /* \"#utility.yul\":9131:9153   */\n      tag_182\n        /* \"#utility.yul\":9149:9152   */\n      dup6\n        /* \"#utility.yul\":9131:9153   */\n      tag_71\n      jump\t// in\n    tag_182:\n        /* \"#utility.yul\":9121:9129   */\n      dup4\n        /* \"#utility.yul\":9117:9154   */\n      add\n        /* \"#utility.yul\":9104:9115   */\n      dup3\n        /* \"#utility.yul\":9075:9155   */\n      tag_80\n      jump\t// in\n    tag_181:\n        /* \"#utility.yul\":8735:9165   */\n      pop\n      pop\n        /* \"#utility.yul\":8720:9165   */\n    tag_177:\n        /* \"#utility.yul\":8631:9172   */\n      pop\n      pop\n      pop\n      jump\t// out\n        /* \"#utility.yul\":9178:9295   */\n    tag_82:\n        /* \"#utility.yul\":9232:9240   */\n      0x00\n        /* \"#utility.yul\":9282:9287   */\n      dup3\n        /* \"#utility.yul\":9276:9280   */\n      dup3\n        /* \"#utility.yul\":9272:9288   */\n      shr\n        /* \"#utility.yul\":9251:9288   */\n      swap1\n      pop\n        /* \"#utility.yul\":9178:9295   */\n      swap3\n      swap2\n      pop\n      pop\n      jump\t// out\n        /* \"#utility.yul\":9301:9470   */\n    tag_83:\n        /* \"#utility.yul\":9345:9351   */\n      0x00\n        /* \"#utility.yul\":9378:9429   */\n      tag_185\n        /* \"#utility.yul\":9426:9427   */\n      0x00\n        /* \"#utility.yul\":9422:9428   */\n      not\n        /* \"#utility.yul\":9414:9419   */\n      dup5\n        /* \"#utility.yul\":9411:9412   */\n      0x08\n        /* \"#utility.yul\":9407:9420   */\n      mul\n        /* \"#utility.yul\":9378:9429   */\n      tag_82\n      jump\t// in\n    tag_185:\n        /* \"#utility.yul\":9374:9430   */\n      not\n        /* \"#utility.yul\":9459:9463   */\n      dup1\n        /* \"#utility.yul\":9453:9457   */\n      dup4\n        /* \"#utility.yul\":9449:9464   */\n      and\n        /* \"#utility.yul\":9439:9464   */\n      swap2\n      pop\n        /* \"#utility.yul\":9352:9470   */\n      pop\n        /* \"#utility.yul\":9301:9470   */\n      swap3\n      swap2\n      pop\n      pop\n      jump\t// out\n        /* \"#utility.yul\":9475:9770   */\n    tag_84:\n        /* \"#utility.yul\":9551:9555   */\n      0x00\n        /* \"#utility.yul\":9697:9726   */\n      tag_187\n        /* \"#utility.yul\":9722:9725   */\n      dup4\n        /* \"#utility.yul\":9716:9720   */\n      dup4\n        /* \"#utility.yul\":9697:9726   */\n      tag_83\n      jump\t// in\n    tag_187:\n        /* \"#utility.yul\":9689:9726   */\n      swap2\n      pop\n        /* \"#utility.yul\":9759:9762   */\n      dup3\n        /* \"#utility.yul\":9756:9757   */\n      0x02\n        /* \"#utility.yul\":9752:9763   */\n      mul\n        /* \"#utility.yul\":9746:9750   */\n      dup3\n        /* \"#utility.yul\":9743:9764   */\n      or\n        /* \"#utility.yul\":9735:9764   */\n      swap1\n      pop\n        /* \"#utility.yul\":9475:9770   */\n      swap3\n      swap2\n      pop\n      pop\n      jump\t// out\n        /* \"#utility.yul\":9775:11165   */\n    tag_43:\n        /* \"#utility.yul\":9890:9926   */\n      tag_189\n        /* \"#utility.yul\":9922:9925   */\n      dup3\n        /* \"#utility.yul\":9890:9926   */\n      tag_51\n      jump\t// in\n    tag_189:\n        /* \"#utility.yul\":9991:10009   */\n      0xffffffffffffffff\n        /* \"#utility.yul\":9983:9989   */\n      dup2\n        /* \"#utility.yul\":9980:10010   */\n      gt\n        /* \"#utility.yul\":9977:10033   */\n      iszero\n      tag_190\n      jumpi\n        /* \"#utility.yul\":10013:10031   */\n      tag_191\n      tag_69\n      jump\t// in\n    tag_191:\n        /* \"#utility.yul\":9977:10033   */\n    tag_190:\n        /* \"#utility.yul\":10057:10095   */\n      tag_192\n        /* \"#utility.yul\":10089:10093   */\n      dup3\n        /* \"#utility.yul\":10083:10094   */\n      sload\n        /* \"#utility.yul\":10057:10095   */\n      tag_28\n      jump\t// in\n    tag_192:\n        /* \"#utility.yul\":10142:10208   */\n      tag_193\n        /* \"#utility.yul\":10201:10207   */\n      dup3\n        /* \"#utility.yul\":10193:10199   */\n      dup3\n        /* \"#utility.yul\":10187:10191   */\n      dup6\n        /* \"#utility.yul\":10142:10208   */\n      tag_81\n      jump\t// in\n    tag_193:\n        /* \"#utility.yul\":10235:10236   */\n      0x00\n        /* \"#utility.yul\":10259:10263   */\n      0x20\n        /* \"#utility.yul\":10246:10263   */\n      swap1\n      pop\n        /* \"#utility.yul\":10291:10293   */\n      0x1f\n        /* \"#utility.yul\":10283:10289   */\n      dup4\n        /* \"#utility.yul\":10280:10294   */\n      gt\n        /* \"#utility.yul\":10308:10309   */\n      0x01\n        /* \"#utility.yul\":10303:10920   */\n      dup2\n      eq\n      tag_195\n      jumpi\n        /* \"#utility.yul\":10964:10965   */\n      0x00\n        /* \"#utility.yul\":10981:10987   */\n      dup5\n        /* \"#utility.yul\":10978:11055   */\n      iszero\n      tag_196\n      jumpi\n        /* \"#utility.yul\":11030:11039   */\n      dup3\n        /* \"#utility.yul\":11025:11028   */\n      dup8\n        /* \"#utility.yul\":11021:11040   */\n      add\n        /* \"#utility.yul\":11015:11041   */\n      mload\n        /* \"#utility.yul\":11006:11041   */\n      swap1\n      pop\n        /* \"#utility.yul\":10978:11055   */\n    tag_196:\n        /* \"#utility.yul\":11081:11148   */\n      tag_197\n        /* \"#utility.yul\":11141:11147   */\n      dup6\n        /* \"#utility.yul\":11134:11139   */\n      dup3\n        /* \"#utility.yul\":11081:11148   */\n      tag_84\n      jump\t// in\n    tag_197:\n        /* \"#utility.yul\":11075:11079   */\n      dup7\n        /* \"#utility.yul\":11068:11149   */\n      sstore\n        /* \"#utility.yul\":10937:11159   */\n      pop\n        /* \"#utility.yul\":10273:11159   */\n      jump(tag_194)\n        /* \"#utility.yul\":10303:10920   */\n    tag_195:\n        /* \"#utility.yul\":10355:10359   */\n      0x1f\n        /* \"#utility.yul\":10351:10360   */\n      not\n        /* \"#utility.yul\":10343:10349   */\n      dup5\n        /* \"#utility.yul\":10339:10361   */\n      and\n        /* \"#utility.yul\":10389:10425   */\n      tag_198\n        /* \"#utility.yul\":10420:10424   */\n      dup7\n        /* \"#utility.yul\":10389:10425   */\n      tag_70\n      jump\t// in\n    tag_198:\n        /* \"#utility.yul\":10447:10448   */\n      0x00\n        /* \"#utility.yul\":10461:10669   */\n    tag_199:\n        /* \"#utility.yul\":10475:10482   */\n      dup3\n        /* \"#utility.yul\":10472:10473   */\n      dup2\n        /* \"#utility.yul\":10469:10483   */\n      lt\n        /* \"#utility.yul\":10461:10669   */\n      iszero\n      tag_201\n      jumpi\n        /* \"#utility.yul\":10554:10563   */\n      dup5\n        /* \"#utility.yul\":10549:10552   */\n      dup10\n        /* \"#utility.yul\":10545:10564   */\n      add\n        /* \"#utility.yul\":10539:10565   */\n      mload\n        /* \"#utility.yul\":10531:10537   */\n      dup3\n        /* \"#utility.yul\":10524:10566   */\n      sstore\n        /* \"#utility.yul\":10605:10606   */\n      0x01\n        /* \"#utility.yul\":10597:10603   */\n      dup3\n        /* \"#utility.yul\":10593:10607   */\n      add\n        /* \"#utility.yul\":10583:10607   */\n      swap2\n      pop\n        /* \"#utility.yul\":10652:10654   */\n      0x20\n        /* \"#utility.yul\":10641:10650   */\n      dup6\n        /* \"#utility.yul\":10637:10655   */\n      add\n        /* \"#utility.yul\":10624:10655   */\n      swap5\n      pop\n        /* \"#utility.yul\":10498:10502   */\n      0x20\n        /* \"#utility.yul\":10495:10496   */\n      dup2\n        /* \"#utility.yul\":10491:10503   */\n      add\n        /* \"#utility.yul\":10486:10503   */\n      swap1\n      pop\n        /* \"#utility.yul\":10461:10669   */\n      jump(tag_199)\n    tag_201:\n        /* \"#utility.yul\":10697:10703   */\n      dup7\n        /* \"#utility.yul\":10688:10695   */\n      dup4\n        /* \"#utility.yul\":10685:10704   */\n      lt\n        /* \"#utility.yul\":10682:10861   */\n      iszero\n      tag_202\n      jumpi\n        /* \"#utility.yul\":10755:10764   */\n      dup5\n        /* \"#utility.yul\":10750:10753   */\n      dup10\n        /* \"#utility.yul\":10746:10765   */\n      add\n        /* \"#utility.yul\":10740:10766   */\n      mload\n        /* \"#utility.yul\":10798:10846   */\n      tag_203\n        /* \"#utility.yul\":10840:10844   */\n      0x1f\n        /* \"#utility.yul\":10832:10838   */\n      dup10\n        /* \"#utility.yul\":10828:10845   */\n      and\n        /* \"#utility.yul\":10817:10826   */\n      dup3\n        /* \"#utility.yul\":10798:10846   */\n      tag_83\n      jump\t// in\n    tag_203:\n        /* \"#utility.yul\":10790:10796   */\n      dup4\n        /* \"#utility.yul\":10783:10847   */\n      sstore\n        /* \"#utility.yul\":10705:10861   */\n      pop\n        /* \"#utility.yul\":10682:10861   */\n    tag_202:\n        /* \"#utility.yul\":10907:10908   */\n      0x01\n        /* \"#utility.yul\":10903:10904   */\n      0x02\n        /* \"#utility.yul\":10895:10901   */\n      dup9\n        /* \"#utility.yul\":10891:10905   */\n      mul\n        /* \"#utility.yul\":10887:10909   */\n      add\n        /* \"#utility.yul\":10881:10885   */\n      dup9\n        /* \"#utility.yul\":10874:10910   */\n      sstore\n        /* \"#utility.yul\":10310:10920   */\n      pop\n      pop\n      pop\n        /* \"#utility.yul\":10273:11159   */\n    tag_194:\n      pop\n        /* \"#utility.yul\":9865:11165   */\n      pop\n      pop\n      pop\n        /* \"#utility.yul\":9775:11165   */\n      pop\n      pop\n      jump\t// out\n\n    auxdata: 0xa26469706673582212202ff659b4e13238df63701a89b429b1bbf3a9a19ffd032df098f2236844361ccb64736f6c63430008120033\n}\n",
				"bytecode": {
					"linkReferences": {},
					"object": "608060405234801561001057600080fd5b506109df806100206000396000f3fe6080604052600436106100345760003560e01c806314c3ec881461003957806373d4a13a14610062578063edcbe76c1461008d575b600080fd5b34801561004557600080fd5b50610060600480360381019061005b9190610421565b6100a9565b005b34801561006e57600080fd5b506100776101dc565b60405161008491906104de565b60405180910390f35b6100a760048036038101906100a29190610421565b61026a565b005b60008173ffffffffffffffffffffffffffffffffffffffff166040516024016040516020818303038152906040527f1dcc85ae000000000000000000000000000000000000000000000000000000007bffffffffffffffffffffffffffffffffffffffffffffffffffffffff19166020820180517bffffffffffffffffffffffffffffffffffffffffffffffffffffffff8381831617835250505050604051610152919061053c565b6000604051808303816000865af19150503d806000811461018f576040519150601f19603f3d011682016040523d82523d6000602084013e610194565b606091505b50509050806101d8576040517f08c379a00000000000000000000000000000000000000000000000000000000081526004016101cf906105b0565b60405180910390fd5b5050565b600080546101e9906105ff565b80601f0160208091040260200160405190810160405280929190818152602001828054610215906105ff565b80156102625780601f1061023757610100808354040283529160200191610262565b820191906000526020600020905b81548152906001019060200180831161024557829003601f168201915b505050505081565b6000808273ffffffffffffffffffffffffffffffffffffffff16606f607b60405160240161029891906106ce565b6040516020818303038152906040527f24ccab8f000000000000000000000000000000000000000000000000000000007bffffffffffffffffffffffffffffffffffffffffffffffffffffffff19166020820180517bffffffffffffffffffffffffffffffffffffffffffffffffffffffff8381831617835250505050604051610322919061053c565b60006040518083038185875af1925050503d806000811461035f576040519150601f19603f3d011682016040523d82523d6000602084013e610364565b606091505b5091509150816103a9576040517f08c379a00000000000000000000000000000000000000000000000000000000081526004016103a0906105b0565b60405180910390fd5b80600090816103b891906108d7565b50505050565b600080fd5b600073ffffffffffffffffffffffffffffffffffffffff82169050919050565b60006103ee826103c3565b9050919050565b6103fe816103e3565b811461040957600080fd5b50565b60008135905061041b816103f5565b92915050565b600060208284031215610437576104366103be565b5b60006104458482850161040c565b91505092915050565b600081519050919050565b600082825260208201905092915050565b60005b8381101561048857808201518184015260208101905061046d565b60008484015250505050565b6000601f19601f8301169050919050565b60006104b08261044e565b6104ba8185610459565b93506104ca81856020860161046a565b6104d381610494565b840191505092915050565b600060208201905081810360008301526104f881846104a5565b905092915050565b600081905092915050565b60006105168261044e565b6105208185610500565b935061053081856020860161046a565b80840191505092915050565b6000610548828461050b565b915081905092915050565b600082825260208201905092915050565b7f63616c6c206661696c6564000000000000000000000000000000000000000000600082015250565b600061059a600b83610553565b91506105a582610564565b602082019050919050565b600060208201905081810360008301526105c98161058d565b9050919050565b7f4e487b7100000000000000000000000000000000000000000000000000000000600052602260045260246000fd5b6000600282049050600182168061061757607f821691505b60208210810361062a576106296105d0565b5b50919050565b7f63616c6c20666f6f000000000000000000000000000000000000000000000000600082015250565b6000610666600883610553565b915061067182610630565b602082019050919050565b6000819050919050565b600060ff82169050919050565b6000819050919050565b60006106b86106b36106ae8461067c565b610693565b610686565b9050919050565b6106c88161069d565b82525050565b600060408201905081810360008301526106e781610659565b90506106f660208301846106bf565b92915050565b7f4e487b7100000000000000000000000000000000000000000000000000000000600052604160045260246000fd5b60008190508160005260206000209050919050565b60006020601f8301049050919050565b600082821b905092915050565b60006008830261078d7fffffffffffffffffffffffffffffffffffffffffffffffffffffffffffffffff82610750565b6107978683610750565b95508019841693508086168417925050509392505050565b6000819050919050565b60006107d46107cf6107ca846107af565b610693565b6107af565b9050919050565b6000819050919050565b6107ee836107b9565b6108026107fa826107db565b84845461075d565b825550505050565b600090565b61081761080a565b6108228184846107e5565b505050565b5b818110156108465761083b60008261080f565b600181019050610828565b5050565b601f82111561088b5761085c8161072b565b61086584610740565b81016020851015610874578190505b61088861088085610740565b830182610827565b50505b505050565b600082821c905092915050565b60006108ae60001984600802610890565b1980831691505092915050565b60006108c7838361089d565b9150826002028217905092915050565b6108e08261044e565b67ffffffffffffffff8111156108f9576108f86106fc565b5b61090382546105ff565b61090e82828561084a565b600060209050601f831160018114610941576000841561092f578287015190505b61093985826108bb565b8655506109a1565b601f19841661094f8661072b565b60005b8281101561097757848901518255600182019150602085019450602081019050610952565b868310156109945784890151610990601f89168261089d565b8355505b6001600288020188555050505b50505050505056fea26469706673582212202ff659b4e13238df63701a89b429b1bbf3a9a19ffd032df098f2236844361ccb64736f6c63430008120033",
					"opcodes": "PUSH1 0x80 PUSH1 0x40 MSTORE CALLVALUE DUP1 ISZERO PUSH2 0x10 JUMPI PUSH1 0x0 DUP1 REVERT JUMPDEST POP PUSH2 0x9DF DUP1 PUSH2 0x20 PUSH1 0x0 CODECOPY PUSH1 0x0 RETURN INVALID PUSH1 0x80 PUSH1 0x40 MSTORE PUSH1 0x4 CALLDATASIZE LT PUSH2 0x34 JUMPI PUSH1 0x0 CALLDATALOAD PUSH1 0xE0 SHR DUP1 PUSH4 0x14C3EC88 EQ PUSH2 0x39 JUMPI DUP1 PUSH4 0x73D4A13A EQ PUSH2 0x62 JUMPI DUP1 PUSH4 0xEDCBE76C EQ PUSH2 0x8D JUMPI JUMPDEST PUSH1 0x0 DUP1 REVERT JUMPDEST CALLVALUE DUP1 ISZERO PUSH2 0x45 JUMPI PUSH1 0x0 DUP1 REVERT JUMPDEST POP PUSH2 0x60 PUSH1 0x4 DUP1 CALLDATASIZE SUB DUP2 ADD SWAP1 PUSH2 0x5B SWAP2 SWAP1 PUSH2 0x421 JUMP JUMPDEST PUSH2 0xA9 JUMP JUMPDEST STOP JUMPDEST CALLVALUE DUP1 ISZERO PUSH2 0x6E JUMPI PUSH1 0x0 DUP1 REVERT JUMPDEST POP PUSH2 0x77 PUSH2 0x1DC JUMP JUMPDEST PUSH1 0x40 MLOAD PUSH2 0x84 SWAP2 SWAP1 PUSH2 0x4DE JUMP JUMPDEST PUSH1 0x40 MLOAD DUP1 SWAP2 SUB SWAP1 RETURN JUMPDEST PUSH2 0xA7 PUSH1 0x4 DUP1 CALLDATASIZE SUB DUP2 ADD SWAP1 PUSH2 0xA2 SWAP2 SWAP1 PUSH2 0x421 JUMP JUMPDEST PUSH2 0x26A JUMP JUMPDEST STOP JUMPDEST PUSH1 0x0 DUP2 PUSH20 0xFFFFFFFFFFFFFFFFFFFFFFFFFFFFFFFFFFFFFFFF AND PUSH1 0x40 MLOAD PUSH1 0x24 ADD PUSH1 0x40 MLOAD PUSH1 0x20 DUP2 DUP4 SUB SUB DUP2 MSTORE SWAP1 PUSH1 0x40 MSTORE PUSH32 0x1DCC85AE00000000000000000000000000000000000000000000000000000000 PUSH28 0xFFFFFFFFFFFFFFFFFFFFFFFFFFFFFFFFFFFFFFFFFFFFFFFFFFFFFFFF NOT AND PUSH1 0x20 DUP3 ADD DUP1 MLOAD PUSH28 0xFFFFFFFFFFFFFFFFFFFFFFFFFFFFFFFFFFFFFFFFFFFFFFFFFFFFFFFF DUP4 DUP2 DUP4 AND OR DUP4 MSTORE POP POP POP POP PUSH1 0x40 MLOAD PUSH2 0x152 SWAP2 SWAP1 PUSH2 0x53C JUMP JUMPDEST PUSH1 0x0 PUSH1 0x40 MLOAD DUP1 DUP4 SUB DUP2 PUSH1 0x0 DUP7 GAS CALL SWAP2 POP POP RETURNDATASIZE DUP1 PUSH1 0x0 DUP2 EQ PUSH2 0x18F JUMPI PUSH1 0x40 MLOAD SWAP2 POP PUSH1 0x1F NOT PUSH1 0x3F RETURNDATASIZE ADD AND DUP3 ADD PUSH1 0x40 MSTORE RETURNDATASIZE DUP3 MSTORE RETURNDATASIZE PUSH1 0x0 PUSH1 0x20 DUP5 ADD RETURNDATACOPY PUSH2 0x194 JUMP JUMPDEST PUSH1 0x60 SWAP2 POP JUMPDEST POP POP SWAP1 POP DUP1 PUSH2 0x1D8 JUMPI PUSH1 0x40 MLOAD PUSH32 0x8C379A000000000000000000000000000000000000000000000000000000000 DUP2 MSTORE PUSH1 0x4 ADD PUSH2 0x1CF SWAP1 PUSH2 0x5B0 JUMP JUMPDEST PUSH1 0x40 MLOAD DUP1 SWAP2 SUB SWAP1 REVERT JUMPDEST POP POP JUMP JUMPDEST PUSH1 0x0 DUP1 SLOAD PUSH2 0x1E9 SWAP1 PUSH2 0x5FF JUMP JUMPDEST DUP1 PUSH1 0x1F ADD PUSH1 0x20 DUP1 SWAP2 DIV MUL PUSH1 0x20 ADD PUSH1 0x40 MLOAD SWAP1 DUP2 ADD PUSH1 0x40 MSTORE DUP1 SWAP3 SWAP2 SWAP1 DUP2 DUP2 MSTORE PUSH1 0x20 ADD DUP3 DUP1 SLOAD PUSH2 0x215 SWAP1 PUSH2 0x5FF JUMP JUMPDEST DUP1 ISZERO PUSH2 0x262 JUMPI DUP1 PUSH1 0x1F LT PUSH2 0x237 JUMPI PUSH2 0x100 DUP1 DUP4 SLOAD DIV MUL DUP4 MSTORE SWAP2 PUSH1 0x20 ADD SWAP2 PUSH2 0x262 JUMP JUMPDEST DUP3 ADD SWAP2 SWAP1 PUSH1 0x0 MSTORE PUSH1 0x20 PUSH1 0x0 KECCAK256 SWAP1 JUMPDEST DUP2 SLOAD DUP2 MSTORE SWAP1 PUSH1 0x1 ADD SWAP1 PUSH1 0x20 ADD DUP1 DUP4 GT PUSH2 0x245 JUMPI DUP3 SWAP1 SUB PUSH1 0x1F AND DUP3 ADD SWAP2 JUMPDEST POP POP POP POP POP DUP2 JUMP JUMPDEST PUSH1 0x0 DUP1 DUP3 PUSH20 0xFFFFFFFFFFFFFFFFFFFFFFFFFFFFFFFFFFFFFFFF AND PUSH1 0x6F PUSH1 0x7B PUSH1 0x40 MLOAD PUSH1 0x24 ADD PUSH2 0x298 SWAP2 SWAP1 PUSH2 0x6CE JUMP JUMPDEST PUSH1 0x40 MLOAD PUSH1 0x20 DUP2 DUP4 SUB SUB DUP2 MSTORE SWAP1 PUSH1 0x40 MSTORE PUSH32 0x24CCAB8F00000000000000000000000000000000000000000000000000000000 PUSH28 0xFFFFFFFFFFFFFFFFFFFFFFFFFFFFFFFFFFFFFFFFFFFFFFFFFFFFFFFF NOT AND PUSH1 0x20 DUP3 ADD DUP1 MLOAD PUSH28 0xFFFFFFFFFFFFFFFFFFFFFFFFFFFFFFFFFFFFFFFFFFFFFFFFFFFFFFFF DUP4 DUP2 DUP4 AND OR DUP4 MSTORE POP POP POP POP PUSH1 0x40 MLOAD PUSH2 0x322 SWAP2 SWAP1 PUSH2 0x53C JUMP JUMPDEST PUSH1 0x0 PUSH1 0x40 MLOAD DUP1 DUP4 SUB DUP2 DUP6 DUP8 GAS CALL SWAP3 POP POP POP RETURNDATASIZE DUP1 PUSH1 0x0 DUP2 EQ PUSH2 0x35F JUMPI PUSH1 0x40 MLOAD SWAP2 POP PUSH1 0x1F NOT PUSH1 0x3F RETURNDATASIZE ADD AND DUP3 ADD PUSH1 0x40 MSTORE RETURNDATASIZE DUP3 MSTORE RETURNDATASIZE PUSH1 0x0 PUSH1 0x20 DUP5 ADD RETURNDATACOPY PUSH2 0x364 JUMP JUMPDEST PUSH1 0x60 SWAP2 POP JUMPDEST POP SWAP2 POP SWAP2 POP DUP2 PUSH2 0x3A9 JUMPI PUSH1 0x40 MLOAD PUSH32 0x8C379A000000000000000000000000000000000000000000000000000000000 DUP2 MSTORE PUSH1 0x4 ADD PUSH2 0x3A0 SWAP1 PUSH2 0x5B0 JUMP JUMPDEST PUSH1 0x40 MLOAD DUP1 SWAP2 SUB SWAP1 REVERT JUMPDEST DUP1 PUSH1 0x0 SWAP1 DUP2 PUSH2 0x3B8 SWAP2 SWAP1 PUSH2 0x8D7 JUMP JUMPDEST POP POP POP POP JUMP JUMPDEST PUSH1 0x0 DUP1 REVERT JUMPDEST PUSH1 0x0 PUSH20 0xFFFFFFFFFFFFFFFFFFFFFFFFFFFFFFFFFFFFFFFF DUP3 AND SWAP1 POP SWAP2 SWAP1 POP JUMP JUMPDEST PUSH1 0x0 PUSH2 0x3EE DUP3 PUSH2 0x3C3 JUMP JUMPDEST SWAP1 POP SWAP2 SWAP1 POP JUMP JUMPDEST PUSH2 0x3FE DUP2 PUSH2 0x3E3 JUMP JUMPDEST DUP2 EQ PUSH2 0x409 JUMPI PUSH1 0x0 DUP1 REVERT JUMPDEST POP JUMP JUMPDEST PUSH1 0x0 DUP2 CALLDATALOAD SWAP1 POP PUSH2 0x41B DUP2 PUSH2 0x3F5 JUMP JUMPDEST SWAP3 SWAP2 POP POP JUMP JUMPDEST PUSH1 0x0 PUSH1 0x20 DUP3 DUP5 SUB SLT ISZERO PUSH2 0x437 JUMPI PUSH2 0x436 PUSH2 0x3BE JUMP JUMPDEST JUMPDEST PUSH1 0x0 PUSH2 0x445 DUP5 DUP3 DUP6 ADD PUSH2 0x40C JUMP JUMPDEST SWAP2 POP POP SWAP3 SWAP2 POP POP JUMP JUMPDEST PUSH1 0x0 DUP2 MLOAD SWAP1 POP SWAP2 SWAP1 POP JUMP JUMPDEST PUSH1 0x0 DUP3 DUP3 MSTORE PUSH1 0x20 DUP3 ADD SWAP1 POP SWAP3 SWAP2 POP POP JUMP JUMPDEST PUSH1 0x0 JUMPDEST DUP4 DUP2 LT ISZERO PUSH2 0x488 JUMPI DUP1 DUP3 ADD MLOAD DUP2 DUP5 ADD MSTORE PUSH1 0x20 DUP2 ADD SWAP1 POP PUSH2 0x46D JUMP JUMPDEST PUSH1 0x0 DUP5 DUP5 ADD MSTORE POP POP POP POP JUMP JUMPDEST PUSH1 0x0 PUSH1 0x1F NOT PUSH1 0x1F DUP4 ADD AND SWAP1 POP SWAP2 SWAP1 POP JUMP JUMPDEST PUSH1 0x0 PUSH2 0x4B0 DUP3 PUSH2 0x44E JUMP JUMPDEST PUSH2 0x4BA DUP2 DUP6 PUSH2 0x459 JUMP JUMPDEST SWAP4 POP PUSH2 0x4CA DUP2 DUP6 PUSH1 0x20 DUP7 ADD PUSH2 0x46A JUMP JUMPDEST PUSH2 0x4D3 DUP2 PUSH2 0x494 JUMP JUMPDEST DUP5 ADD SWAP2 POP POP SWAP3 SWAP2 POP POP JUMP JUMPDEST PUSH1 0x0 PUSH1 0x20 DUP3 ADD SWAP1 POP DUP2 DUP2 SUB PUSH1 0x0 DUP4 ADD MSTORE PUSH2 0x4F8 DUP2 DUP5 PUSH2 0x4A5 JUMP JUMPDEST SWAP1 POP SWAP3 SWAP2 POP POP JUMP JUMPDEST PUSH1 0x0 DUP2 SWAP1 POP SWAP3 SWAP2 POP POP JUMP JUMPDEST PUSH1 0x0 PUSH2 0x516 DUP3 PUSH2 0x44E JUMP JUMPDEST PUSH2 0x520 DUP2 DUP6 PUSH2 0x500 JUMP JUMPDEST SWAP4 POP PUSH2 0x530 DUP2 DUP6 PUSH1 0x20 DUP7 ADD PUSH2 0x46A JUMP JUMPDEST DUP1 DUP5 ADD SWAP2 POP POP SWAP3 SWAP2 POP POP JUMP JUMPDEST PUSH1 0x0 PUSH2 0x548 DUP3 DUP5 PUSH2 0x50B JUMP JUMPDEST SWAP2 POP DUP2 SWAP1 POP SWAP3 SWAP2 POP POP JUMP JUMPDEST PUSH1 0x0 DUP3 DUP3 MSTORE PUSH1 0x20 DUP3 ADD SWAP1 POP SWAP3 SWAP2 POP POP JUMP JUMPDEST PUSH32 0x63616C6C206661696C6564000000000000000000000000000000000000000000 PUSH1 0x0 DUP3 ADD MSTORE POP JUMP JUMPDEST PUSH1 0x0 PUSH2 0x59A PUSH1 0xB DUP4 PUSH2 0x553 JUMP JUMPDEST SWAP2 POP PUSH2 0x5A5 DUP3 PUSH2 0x564 JUMP JUMPDEST PUSH1 0x20 DUP3 ADD SWAP1 POP SWAP2 SWAP1 POP JUMP JUMPDEST PUSH1 0x0 PUSH1 0x20 DUP3 ADD SWAP1 POP DUP2 DUP2 SUB PUSH1 0x0 DUP4 ADD MSTORE PUSH2 0x5C9 DUP2 PUSH2 0x58D JUMP JUMPDEST SWAP1 POP SWAP2 SWAP1 POP JUMP JUMPDEST PUSH32 0x4E487B7100000000000000000000000000000000000000000000000000000000 PUSH1 0x0 MSTORE PUSH1 0x22 PUSH1 0x4 MSTORE PUSH1 0x24 PUSH1 0x0 REVERT JUMPDEST PUSH1 0x0 PUSH1 0x2 DUP3 DIV SWAP1 POP PUSH1 0x1 DUP3 AND DUP1 PUSH2 0x617 JUMPI PUSH1 0x7F DUP3 AND SWAP2 POP JUMPDEST PUSH1 0x20 DUP3 LT DUP2 SUB PUSH2 0x62A JUMPI PUSH2 0x629 PUSH2 0x5D0 JUMP JUMPDEST JUMPDEST POP SWAP2 SWAP1 POP JUMP JUMPDEST PUSH32 0x63616C6C20666F6F000000000000000000000000000000000000000000000000 PUSH1 0x0 DUP3 ADD MSTORE POP JUMP JUMPDEST PUSH1 0x0 PUSH2 0x666 PUSH1 0x8 DUP4 PUSH2 0x553 JUMP JUMPDEST SWAP2 POP PUSH2 0x671 DUP3 PUSH2 0x630 JUMP JUMPDEST PUSH1 0x20 DUP3 ADD SWAP1 POP SWAP2 SWAP1 POP JUMP JUMPDEST PUSH1 0x0 DUP2 SWAP1 POP SWAP2 SWAP1 POP JUMP JUMPDEST PUSH1 0x0 PUSH1 0xFF DUP3 AND SWAP1 POP SWAP2 SWAP1 POP JUMP JUMPDEST PUSH1 0x0 DUP2 SWAP1 POP SWAP2 SWAP1 POP JUMP JUMPDEST PUSH1 0x0 PUSH2 0x6B8 PUSH2 0x6B3 PUSH2 0x6AE DUP5 PUSH2 0x67C JUMP JUMPDEST PUSH2 0x693 JUMP JUMPDEST PUSH2 0x686 JUMP JUMPDEST SWAP1 POP SWAP2 SWAP1 POP JUMP JUMPDEST PUSH2 0x6C8 DUP2 PUSH2 0x69D JUMP JUMPDEST DUP3 MSTORE POP POP JUMP JUMPDEST PUSH1 0x0 PUSH1 0x40 DUP3 ADD SWAP1 POP DUP2 DUP2 SUB PUSH1 0x0 DUP4 ADD MSTORE PUSH2 0x6E7 DUP2 PUSH2 0x659 JUMP JUMPDEST SWAP1 POP PUSH2 0x6F6 PUSH1 0x20 DUP4 ADD DUP5 PUSH2 0x6BF JUMP JUMPDEST SWAP3 SWAP2 POP POP JUMP JUMPDEST PUSH32 0x4E487B7100000000000000000000000000000000000000000000000000000000 PUSH1 0x0 MSTORE PUSH1 0x41 PUSH1 0x4 MSTORE PUSH1 0x24 PUSH1 0x0 REVERT JUMPDEST PUSH1 0x0 DUP2 SWAP1 POP DUP2 PUSH1 0x0 MSTORE PUSH1 0x20 PUSH1 0x0 KECCAK256 SWAP1 POP SWAP2 SWAP1 POP JUMP JUMPDEST PUSH1 0x0 PUSH1 0x20 PUSH1 0x1F DUP4 ADD DIV SWAP1 POP SWAP2 SWAP1 POP JUMP JUMPDEST PUSH1 0x0 DUP3 DUP3 SHL SWAP1 POP SWAP3 SWAP2 POP POP JUMP JUMPDEST PUSH1 0x0 PUSH1 0x8 DUP4 MUL PUSH2 0x78D PUSH32 0xFFFFFFFFFFFFFFFFFFFFFFFFFFFFFFFFFFFFFFFFFFFFFFFFFFFFFFFFFFFFFFFF DUP3 PUSH2 0x750 JUMP JUMPDEST PUSH2 0x797 DUP7 DUP4 PUSH2 0x750 JUMP JUMPDEST SWAP6 POP DUP1 NOT DUP5 AND SWAP4 POP DUP1 DUP7 AND DUP5 OR SWAP3 POP POP POP SWAP4 SWAP3 POP POP POP JUMP JUMPDEST PUSH1 0x0 DUP2 SWAP1 POP SWAP2 SWAP1 POP JUMP JUMPDEST PUSH1 0x0 PUSH2 0x7D4 PUSH2 0x7CF PUSH2 0x7CA DUP5 PUSH2 0x7AF JUMP JUMPDEST PUSH2 0x693 JUMP JUMPDEST PUSH2 0x7AF JUMP JUMPDEST SWAP1 POP SWAP2 SWAP1 POP JUMP JUMPDEST PUSH1 0x0 DUP2 SWAP1 POP SWAP2 SWAP1 POP JUMP JUMPDEST PUSH2 0x7EE DUP4 PUSH2 0x7B9 JUMP JUMPDEST PUSH2 0x802 PUSH2 0x7FA DUP3 PUSH2 0x7DB JUMP JUMPDEST DUP5 DUP5 SLOAD PUSH2 0x75D JUMP JUMPDEST DUP3 SSTORE POP POP POP POP JUMP JUMPDEST PUSH1 0x0 SWAP1 JUMP JUMPDEST PUSH2 0x817 PUSH2 0x80A JUMP JUMPDEST PUSH2 0x822 DUP2 DUP5 DUP5 PUSH2 0x7E5 JUMP JUMPDEST POP POP POP JUMP JUMPDEST JUMPDEST DUP2 DUP2 LT ISZERO PUSH2 0x846 JUMPI PUSH2 0x83B PUSH1 0x0 DUP3 PUSH2 0x80F JUMP JUMPDEST PUSH1 0x1 DUP2 ADD SWAP1 POP PUSH2 0x828 JUMP JUMPDEST POP POP JUMP JUMPDEST PUSH1 0x1F DUP3 GT ISZERO PUSH2 0x88B JUMPI PUSH2 0x85C DUP2 PUSH2 0x72B JUMP JUMPDEST PUSH2 0x865 DUP5 PUSH2 0x740 JUMP JUMPDEST DUP2 ADD PUSH1 0x20 DUP6 LT ISZERO PUSH2 0x874 JUMPI DUP2 SWAP1 POP JUMPDEST PUSH2 0x888 PUSH2 0x880 DUP6 PUSH2 0x740 JUMP JUMPDEST DUP4 ADD DUP3 PUSH2 0x827 JUMP JUMPDEST POP POP JUMPDEST POP POP POP JUMP JUMPDEST PUSH1 0x0 DUP3 DUP3 SHR SWAP1 POP SWAP3 SWAP2 POP POP JUMP JUMPDEST PUSH1 0x0 PUSH2 0x8AE PUSH1 0x0 NOT DUP5 PUSH1 0x8 MUL PUSH2 0x890 JUMP JUMPDEST NOT DUP1 DUP4 AND SWAP2 POP POP SWAP3 SWAP2 POP POP JUMP JUMPDEST PUSH1 0x0 PUSH2 0x8C7 DUP4 DUP4 PUSH2 0x89D JUMP JUMPDEST SWAP2 POP DUP3 PUSH1 0x2 MUL DUP3 OR SWAP1 POP SWAP3 SWAP2 POP POP JUMP JUMPDEST PUSH2 0x8E0 DUP3 PUSH2 0x44E JUMP JUMPDEST PUSH8 0xFFFFFFFFFFFFFFFF DUP2 GT ISZERO PUSH2 0x8F9 JUMPI PUSH2 0x8F8 PUSH2 0x6FC JUMP JUMPDEST JUMPDEST PUSH2 0x903 DUP3 SLOAD PUSH2 0x5FF JUMP JUMPDEST PUSH2 0x90E DUP3 DUP3 DUP6 PUSH2 0x84A JUMP JUMPDEST PUSH1 0x0 PUSH1 0x20 SWAP1 POP PUSH1 0x1F DUP4 GT PUSH1 0x1 DUP2 EQ PUSH2 0x941 JUMPI PUSH1 0x0 DUP5 ISZERO PUSH2 0x92F JUMPI DUP3 DUP8 ADD MLOAD SWAP1 POP JUMPDEST PUSH2 0x939 DUP6 DUP3 PUSH2 0x8BB JUMP JUMPDEST DUP7 SSTORE POP PUSH2 0x9A1 JUMP JUMPDEST PUSH1 0x1F NOT DUP5 AND PUSH2 0x94F DUP7 PUSH2 0x72B JUMP JUMPDEST PUSH1 0x0 JUMPDEST DUP3 DUP2 LT ISZERO PUSH2 0x977 JUMPI DUP5 DUP10 ADD MLOAD DUP3 SSTORE PUSH1 0x1 DUP3 ADD SWAP2 POP PUSH1 0x20 DUP6 ADD SWAP5 POP PUSH1 0x20 DUP2 ADD SWAP1 POP PUSH2 0x952 JUMP JUMPDEST DUP7 DUP4 LT ISZERO PUSH2 0x994 JUMPI DUP5 DUP10 ADD MLOAD PUSH2 0x990 PUSH1 0x1F DUP10 AND DUP3 PUSH2 0x89D JUMP JUMPDEST DUP4 SSTORE POP JUMPDEST PUSH1 0x1 PUSH1 0x2 DUP9 MUL ADD DUP9 SSTORE POP POP POP JUMPDEST POP POP POP POP POP POP JUMP INVALID LOG2 PUSH5 0x6970667358 0x22 SLT KECCAK256 0x2F 0xF6 MSIZE 0xB4 0xE1 ORIGIN CODESIZE 0xDF PUSH4 0x701A89B4 0x29 0xB1 0xBB RETURN 0xA9 LOG1 SWAP16 REVERT SUB 0x2D CREATE SWAP9 CALLCODE 0x23 PUSH9 0x44361CCB64736F6C63 NUMBER STOP ADDMOD SLT STOP CALLER "
				},
				"gasEstimates": {
					"creation": {
						"codeDepositCost": "505400",
						"executionCost": "537",
						"totalCost": "505937"
					},
					"external": {
						"callDoesNotExit(address)": "infinite",
						"callFoo(address)": "infinite",
						"data()": "infinite"
					}
				},
				"methodIdentifiers": {
					"callDoesNotExit(address)": "14c3ec88",
					"callFoo(address)": "edcbe76c",
					"data()": "73d4a13a"
				}
			},
			"storageLayout": {
				"storage": [
					{
						"astId": 36,
						"contract": "call.sol:Call",
						"label": "data",
						"offset": 0,
						"slot": "0",
						"type": "t_bytes_storage"
					}
				],
				"types": {
					"t_bytes_storage": {
						"encoding": "bytes",
						"label": "bytes",
						"numberOfBytes": "32"
					}
				}
			},
			"userdoc": {
				"kind": "user",
				"methods": {},
				"version": 1
			}
		}
	}
}