{
	"merkletree.sol": {
		"TestMerkleProof": {
			"abi": [
				{
					"inputs": [],
					"stateMutability": "nonpayable",
					"type": "constructor"
				},
				{
					"inputs": [],
					"name": "getRoot",
					"outputs": [
						{
							"internalType": "bytes32",
							"name": "",
							"type": "bytes32"
						}
					],
					"stateMutability": "view",
					"type": "function"
				},
				{
					"inputs": [
						{
							"internalType": "bytes32",
							"name": "_value1",
							"type": "bytes32"
						},
						{
							"internalType": "bytes32",
							"name": "_value2",
							"type": "bytes32"
						}
					],
					"name": "hashbytes32",
					"outputs": [
						{
							"internalType": "bytes32",
							"name": "",
							"type": "bytes32"
						}
					],
					"stateMutability": "view",
					"type": "function"
				},
				{
					"inputs": [
						{
							"internalType": "uint256",
							"name": "",
							"type": "uint256"
						}
					],
					"name": "hashes",
					"outputs": [
						{
							"internalType": "bytes32",
							"name": "",
							"type": "bytes32"
						}
					],
					"stateMutability": "view",
					"type": "function"
				},
				{
					"inputs": [
						{
							"internalType": "string",
							"name": "_text",
							"type": "string"
						}
					],
					"name": "testfirst",
					"outputs": [
						{
							"internalType": "bytes32",
							"name": "",
							"type": "bytes32"
						}
					],
					"stateMutability": "view",
					"type": "function"
				},
				{
					"inputs": [
						{
							"internalType": "bytes32[]",
							"name": "proof",
							"type": "bytes32[]"
						},
						{
							"internalType": "bytes32",
							"name": "root",
							"type": "bytes32"
						},
						{
							"internalType": "bytes32",
							"name": "leaf",
							"type": "bytes32"
						},
						{
							"internalType": "uint256",
							"name": "index",
							"type": "uint256"
						}
					],
					"name": "verify",
					"outputs": [
						{
							"internalType": "bool",
							"name": "",
							"type": "bool"
						}
					],
					"stateMutability": "pure",
					"type": "function"
				}
			],
			"devdoc": {
				"kind": "dev",
				"methods": {},
				"version": 1
			},
			"evm": {
				"assembly": "    /* \"merkletree.sol\":652:3390  contract TestMerkleProof is MerkleProof {... */\n  mstore(0x40, 0x80)\n    /* \"merkletree.sol\":728:2078  constructor() {... */\n  callvalue\n  dup1\n  iszero\n  tag_1\n  jumpi\n  0x00\n  dup1\n  revert\ntag_1:\n  pop\n    /* \"merkletree.sol\":752:781  string[4] memory transactions */\n  0x00\n    /* \"merkletree.sol\":752:906  string[4] memory transactions = [... */\n  mload(0x40)\n  dup1\n  0x80\n  add\n  0x40\n  mstore\n  dup1\n  mload(0x40)\n  dup1\n  0x40\n  add\n  0x40\n  mstore\n  dup1\n  0x0c\n  dup2\n  mstore\n  0x20\n  add\n  0x616c696365202d3e20626f620000000000000000000000000000000000000000\n  dup2\n  mstore\n  pop\n  dup2\n  mstore\n  0x20\n  add\n  mload(0x40)\n  dup1\n  0x40\n  add\n  0x40\n  mstore\n  dup1\n  0x0b\n  dup2\n  mstore\n  0x20\n  add\n  0x626f62202d3e2064617665000000000000000000000000000000000000000000\n  dup2\n  mstore\n  pop\n  dup2\n  mstore\n  0x20\n  add\n  mload(0x40)\n  dup1\n  0x40\n  add\n  0x40\n  mstore\n  dup1\n  0x0e\n  dup2\n  mstore\n  0x20\n  add\n  0x6361726f6c202d3e20616c696365000000000000000000000000000000000000\n  dup2\n  mstore\n  pop\n  dup2\n  mstore\n  0x20\n  add\n  mload(0x40)\n  dup1\n  0x40\n  add\n  0x40\n  mstore\n  dup1\n  0x0b\n  dup2\n  mstore\n  0x20\n  add\n  0x64617665202d3e20626f62000000000000000000000000000000000000000000\n  dup2\n  mstore\n  pop\n  dup2\n  mstore\n  pop\n  swap1\n  pop\n    /* \"merkletree.sol\":1467:1473  uint i */\n  0x00\n    /* \"merkletree.sol\":1462:1591  for (uint i = 0; i < transactions.length; i++) {... */\ntag_4:\n    /* \"merkletree.sol\":1483:1502  transactions.length */\n  0x04\n    /* \"merkletree.sol\":1479:1480  i */\n  dup2\n    /* \"merkletree.sol\":1479:1502  i < transactions.length */\n  lt\n    /* \"merkletree.sol\":1462:1591  for (uint i = 0; i < transactions.length; i++) {... */\n  iszero\n  tag_5\n  jumpi\n    /* \"merkletree.sol\":1523:1529  hashes */\n  0x00\n    /* \"merkletree.sol\":1562:1574  transactions */\n  dup3\n    /* \"merkletree.sol\":1575:1576  i */\n  dup3\n    /* \"merkletree.sol\":1562:1577  transactions[i] */\n  0x04\n  dup2\n  lt\n  tag_7\n  jumpi\n  tag_8\n  tag_9\n  jump\t// in\ntag_8:\ntag_7:\n  0x20\n  mul\n  add\n  mload\n    /* \"merkletree.sol\":1545:1578  abi.encodePacked(transactions[i]) */\n  add(0x20, mload(0x40))\n  tag_10\n  swap2\n  swap1\n  tag_11\n  jump\t// in\ntag_10:\n  mload(0x40)\n  0x20\n  dup2\n  dup4\n  sub\n  sub\n  dup2\n  mstore\n  swap1\n  0x40\n  mstore\n    /* \"merkletree.sol\":1535:1579  keccak256(abi.encodePacked(transactions[i])) */\n  dup1\n  mload\n  swap1\n  0x20\n  add\n  keccak256\n    /* \"merkletree.sol\":1523:1580  hashes.push(keccak256(abi.encodePacked(transactions[i]))) */\n  swap1\n  dup1\n  0x01\n  dup2\n  sload\n  add\n  dup1\n  dup3\n  sstore\n  dup1\n  swap2\n  pop\n  pop\n  0x01\n  swap1\n  sub\n  swap1\n  0x00\n  mstore\n  keccak256(0x00, 0x20)\n  add\n  0x00\n  swap1\n  swap2\n  swap1\n  swap2\n  swap1\n  swap2\n  pop\n  sstore\n    /* \"merkletree.sol\":1504:1507  i++ */\n  dup1\n  dup1\n  tag_13\n  swap1\n  tag_14\n  jump\t// in\ntag_13:\n  swap2\n  pop\n  pop\n    /* \"merkletree.sol\":1462:1591  for (uint i = 0; i < transactions.length; i++) {... */\n  jump(tag_4)\ntag_5:\n  pop\n    /* \"merkletree.sol\":1685:1691  uint n */\n  0x00\n    /* \"merkletree.sol\":1694:1713  transactions.length */\n  0x04\n    /* \"merkletree.sol\":1685:1713  uint n = transactions.length */\n  swap1\n  pop\n    /* \"merkletree.sol\":1723:1734  uint offset */\n  0x00\n    /* \"merkletree.sol\":1749:2072  while (n > 0) {... */\ntag_15:\n    /* \"merkletree.sol\":1760:1761  0 */\n  0x00\n    /* \"merkletree.sol\":1756:1757  n */\n  dup3\n    /* \"merkletree.sol\":1756:1761  n > 0 */\n  gt\n    /* \"merkletree.sol\":1749:2072  while (n > 0) {... */\n  iszero\n  tag_16\n  jumpi\n    /* \"merkletree.sol\":1782:1788  uint i */\n  0x00\n    /* \"merkletree.sol\":1777:2014  for (uint i = 0; i < n - 1; i += 2) {... */\ntag_17:\n    /* \"merkletree.sol\":1802:1803  1 */\n  0x01\n    /* \"merkletree.sol\":1798:1799  n */\n  dup4\n    /* \"merkletree.sol\":1798:1803  n - 1 */\n  tag_20\n  swap2\n  swap1\n  tag_21\n  jump\t// in\ntag_20:\n    /* \"merkletree.sol\":1794:1795  i */\n  dup2\n    /* \"merkletree.sol\":1794:1803  i < n - 1 */\n  lt\n    /* \"merkletree.sol\":1777:2014  for (uint i = 0; i < n - 1; i += 2) {... */\n  iszero\n  tag_18\n  jumpi\n    /* \"merkletree.sol\":1831:1837  hashes */\n  0x00\n    /* \"merkletree.sol\":1916:1922  hashes */\n  dup1\n    /* \"merkletree.sol\":1932:1933  i */\n  dup3\n    /* \"merkletree.sol\":1923:1929  offset */\n  dup5\n    /* \"merkletree.sol\":1923:1933  offset + i */\n  tag_22\n  swap2\n  swap1\n  tag_23\n  jump\t// in\ntag_22:\n    /* \"merkletree.sol\":1916:1934  hashes[offset + i] */\n  dup2\n  sload\n  dup2\n  lt\n  tag_24\n  jumpi\n  tag_25\n  tag_9\n  jump\t// in\ntag_25:\ntag_24:\n  swap1\n  0x00\n  mstore\n  keccak256(0x00, 0x20)\n  add\n  sload\n    /* \"merkletree.sol\":1936:1942  hashes */\n  0x00\n    /* \"merkletree.sol\":1956:1957  1 */\n  0x01\n    /* \"merkletree.sol\":1952:1953  i */\n  dup5\n    /* \"merkletree.sol\":1943:1949  offset */\n  dup7\n    /* \"merkletree.sol\":1943:1953  offset + i */\n  tag_27\n  swap2\n  swap1\n  tag_23\n  jump\t// in\ntag_27:\n    /* \"merkletree.sol\":1943:1957  offset + i + 1 */\n  tag_28\n  swap2\n  swap1\n  tag_23\n  jump\t// in\ntag_28:\n    /* \"merkletree.sol\":1936:1958  hashes[offset + i + 1] */\n  dup2\n  sload\n  dup2\n  lt\n  tag_29\n  jumpi\n  tag_30\n  tag_9\n  jump\t// in\ntag_30:\ntag_29:\n  swap1\n  0x00\n  mstore\n  keccak256(0x00, 0x20)\n  add\n  sload\n    /* \"merkletree.sol\":1899:1959  abi.encodePacked(hashes[offset + i], hashes[offset + i + 1]) */\n  add(0x20, mload(0x40))\n  tag_32\n  swap3\n  swap2\n  swap1\n  tag_33\n  jump\t// in\ntag_32:\n  mload(0x40)\n  0x20\n  dup2\n  dup4\n  sub\n  sub\n  dup2\n  mstore\n  swap1\n  0x40\n  mstore\n    /* \"merkletree.sol\":1864:1981  keccak256(... */\n  dup1\n  mload\n  swap1\n  0x20\n  add\n  keccak256\n    /* \"merkletree.sol\":1831:1999  hashes.push(... */\n  swap1\n  dup1\n  0x01\n  dup2\n  sload\n  add\n  dup1\n  dup3\n  sstore\n  dup1\n  swap2\n  pop\n  pop\n  0x01\n  swap1\n  sub\n  swap1\n  0x00\n  mstore\n  keccak256(0x00, 0x20)\n  add\n  0x00\n  swap1\n  swap2\n  swap1\n  swap2\n  swap1\n  swap2\n  pop\n  sstore\n    /* \"merkletree.sol\":1810:1811  2 */\n  0x02\n    /* \"merkletree.sol\":1805:1811  i += 2 */\n  dup2\n  tag_35\n  swap2\n  swap1\n  tag_23\n  jump\t// in\ntag_35:\n  swap1\n  pop\n    /* \"merkletree.sol\":1777:2014  for (uint i = 0; i < n - 1; i += 2) {... */\n  jump(tag_17)\ntag_18:\n  pop\n    /* \"merkletree.sol\":2037:2038  n */\n  dup2\n    /* \"merkletree.sol\":2027:2038  offset += n */\n  dup2\n  tag_36\n  swap2\n  swap1\n  tag_23\n  jump\t// in\ntag_36:\n  swap1\n  pop\n    /* \"merkletree.sol\":2060:2061  2 */\n  0x02\n    /* \"merkletree.sol\":2056:2057  n */\n  dup3\n    /* \"merkletree.sol\":2056:2061  n / 2 */\n  tag_37\n  swap2\n  swap1\n  tag_38\n  jump\t// in\ntag_37:\n    /* \"merkletree.sol\":2052:2061  n = n / 2 */\n  swap2\n  pop\n    /* \"merkletree.sol\":1749:2072  while (n > 0) {... */\n  jump(tag_15)\ntag_16:\n    /* \"merkletree.sol\":742:2078  {... */\n  pop\n  pop\n  pop\n    /* \"merkletree.sol\":652:3390  contract TestMerkleProof is MerkleProof {... */\n  jump(tag_39)\n    /* \"#utility.yul\":7:187   */\ntag_9:\n    /* \"#utility.yul\":55:132   */\n  0x4e487b7100000000000000000000000000000000000000000000000000000000\n    /* \"#utility.yul\":52:53   */\n  0x00\n    /* \"#utility.yul\":45:133   */\n  mstore\n    /* \"#utility.yul\":152:156   */\n  0x32\n    /* \"#utility.yul\":149:150   */\n  0x04\n    /* \"#utility.yul\":142:157   */\n  mstore\n    /* \"#utility.yul\":176:180   */\n  0x24\n    /* \"#utility.yul\":173:174   */\n  0x00\n    /* \"#utility.yul\":166:181   */\n  revert\n    /* \"#utility.yul\":193:292   */\ntag_40:\n    /* \"#utility.yul\":245:251   */\n  0x00\n    /* \"#utility.yul\":279:284   */\n  dup2\n    /* \"#utility.yul\":273:285   */\n  mload\n    /* \"#utility.yul\":263:285   */\n  swap1\n  pop\n    /* \"#utility.yul\":193:292   */\n  swap2\n  swap1\n  pop\n  jump\t// out\n    /* \"#utility.yul\":298:446   */\ntag_41:\n    /* \"#utility.yul\":400:411   */\n  0x00\n    /* \"#utility.yul\":437:440   */\n  dup2\n    /* \"#utility.yul\":422:440   */\n  swap1\n  pop\n    /* \"#utility.yul\":298:446   */\n  swap3\n  swap2\n  pop\n  pop\n  jump\t// out\n    /* \"#utility.yul\":452:698   */\ntag_42:\n    /* \"#utility.yul\":533:534   */\n  0x00\n    /* \"#utility.yul\":543:656   */\ntag_55:\n    /* \"#utility.yul\":557:563   */\n  dup4\n    /* \"#utility.yul\":554:555   */\n  dup2\n    /* \"#utility.yul\":551:564   */\n  lt\n    /* \"#utility.yul\":543:656   */\n  iszero\n  tag_57\n  jumpi\n    /* \"#utility.yul\":642:643   */\n  dup1\n    /* \"#utility.yul\":637:640   */\n  dup3\n    /* \"#utility.yul\":633:644   */\n  add\n    /* \"#utility.yul\":627:645   */\n  mload\n    /* \"#utility.yul\":623:624   */\n  dup2\n    /* \"#utility.yul\":618:621   */\n  dup5\n    /* \"#utility.yul\":614:625   */\n  add\n    /* \"#utility.yul\":607:646   */\n  mstore\n    /* \"#utility.yul\":579:581   */\n  0x20\n    /* \"#utility.yul\":576:577   */\n  dup2\n    /* \"#utility.yul\":572:582   */\n  add\n    /* \"#utility.yul\":567:582   */\n  swap1\n  pop\n    /* \"#utility.yul\":543:656   */\n  jump(tag_55)\ntag_57:\n    /* \"#utility.yul\":690:691   */\n  0x00\n    /* \"#utility.yul\":681:687   */\n  dup5\n    /* \"#utility.yul\":676:679   */\n  dup5\n    /* \"#utility.yul\":672:688   */\n  add\n    /* \"#utility.yul\":665:692   */\n  mstore\n    /* \"#utility.yul\":514:698   */\n  pop\n    /* \"#utility.yul\":452:698   */\n  pop\n  pop\n  pop\n  jump\t// out\n    /* \"#utility.yul\":704:1094   */\ntag_43:\n    /* \"#utility.yul\":810:813   */\n  0x00\n    /* \"#utility.yul\":838:877   */\n  tag_59\n    /* \"#utility.yul\":871:876   */\n  dup3\n    /* \"#utility.yul\":838:877   */\n  tag_40\n  jump\t// in\ntag_59:\n    /* \"#utility.yul\":893:982   */\n  tag_60\n    /* \"#utility.yul\":975:981   */\n  dup2\n    /* \"#utility.yul\":970:973   */\n  dup6\n    /* \"#utility.yul\":893:982   */\n  tag_41\n  jump\t// in\ntag_60:\n    /* \"#utility.yul\":886:982   */\n  swap4\n  pop\n    /* \"#utility.yul\":991:1056   */\n  tag_61\n    /* \"#utility.yul\":1049:1055   */\n  dup2\n    /* \"#utility.yul\":1044:1047   */\n  dup6\n    /* \"#utility.yul\":1037:1041   */\n  0x20\n    /* \"#utility.yul\":1030:1035   */\n  dup7\n    /* \"#utility.yul\":1026:1042   */\n  add\n    /* \"#utility.yul\":991:1056   */\n  tag_42\n  jump\t// in\ntag_61:\n    /* \"#utility.yul\":1081:1087   */\n  dup1\n    /* \"#utility.yul\":1076:1079   */\n  dup5\n    /* \"#utility.yul\":1072:1088   */\n  add\n    /* \"#utility.yul\":1065:1088   */\n  swap2\n  pop\n    /* \"#utility.yul\":814:1094   */\n  pop\n    /* \"#utility.yul\":704:1094   */\n  swap3\n  swap2\n  pop\n  pop\n  jump\t// out\n    /* \"#utility.yul\":1100:1375   */\ntag_11:\n    /* \"#utility.yul\":1232:1235   */\n  0x00\n    /* \"#utility.yul\":1254:1349   */\n  tag_63\n    /* \"#utility.yul\":1345:1348   */\n  dup3\n    /* \"#utility.yul\":1336:1342   */\n  dup5\n    /* \"#utility.yul\":1254:1349   */\n  tag_43\n  jump\t// in\ntag_63:\n    /* \"#utility.yul\":1247:1349   */\n  swap2\n  pop\n    /* \"#utility.yul\":1366:1369   */\n  dup2\n    /* \"#utility.yul\":1359:1369   */\n  swap1\n  pop\n    /* \"#utility.yul\":1100:1375   */\n  swap3\n  swap2\n  pop\n  pop\n  jump\t// out\n    /* \"#utility.yul\":1381:1561   */\ntag_44:\n    /* \"#utility.yul\":1429:1506   */\n  0x4e487b7100000000000000000000000000000000000000000000000000000000\n    /* \"#utility.yul\":1426:1427   */\n  0x00\n    /* \"#utility.yul\":1419:1507   */\n  mstore\n    /* \"#utility.yul\":1526:1530   */\n  0x11\n    /* \"#utility.yul\":1523:1524   */\n  0x04\n    /* \"#utility.yul\":1516:1531   */\n  mstore\n    /* \"#utility.yul\":1550:1554   */\n  0x24\n    /* \"#utility.yul\":1547:1548   */\n  0x00\n    /* \"#utility.yul\":1540:1555   */\n  revert\n    /* \"#utility.yul\":1567:1644   */\ntag_45:\n    /* \"#utility.yul\":1604:1611   */\n  0x00\n    /* \"#utility.yul\":1633:1638   */\n  dup2\n    /* \"#utility.yul\":1622:1638   */\n  swap1\n  pop\n    /* \"#utility.yul\":1567:1644   */\n  swap2\n  swap1\n  pop\n  jump\t// out\n    /* \"#utility.yul\":1650:1883   */\ntag_14:\n    /* \"#utility.yul\":1689:1692   */\n  0x00\n    /* \"#utility.yul\":1712:1736   */\n  tag_67\n    /* \"#utility.yul\":1730:1735   */\n  dup3\n    /* \"#utility.yul\":1712:1736   */\n  tag_45\n  jump\t// in\ntag_67:\n    /* \"#utility.yul\":1703:1736   */\n  swap2\n  pop\n    /* \"#utility.yul\":1758:1824   */\n  0xffffffffffffffffffffffffffffffffffffffffffffffffffffffffffffffff\n    /* \"#utility.yul\":1751:1756   */\n  dup3\n    /* \"#utility.yul\":1748:1825   */\n  sub\n    /* \"#utility.yul\":1745:1848   */\n  tag_68\n  jumpi\n    /* \"#utility.yul\":1828:1846   */\n  tag_69\n  tag_44\n  jump\t// in\ntag_69:\n    /* \"#utility.yul\":1745:1848   */\ntag_68:\n    /* \"#utility.yul\":1875:1876   */\n  0x01\n    /* \"#utility.yul\":1868:1873   */\n  dup3\n    /* \"#utility.yul\":1864:1877   */\n  add\n    /* \"#utility.yul\":1857:1877   */\n  swap1\n  pop\n    /* \"#utility.yul\":1650:1883   */\n  swap2\n  swap1\n  pop\n  jump\t// out\n    /* \"#utility.yul\":1889:2083   */\ntag_21:\n    /* \"#utility.yul\":1929:1933   */\n  0x00\n    /* \"#utility.yul\":1949:1969   */\n  tag_71\n    /* \"#utility.yul\":1967:1968   */\n  dup3\n    /* \"#utility.yul\":1949:1969   */\n  tag_45\n  jump\t// in\ntag_71:\n    /* \"#utility.yul\":1944:1969   */\n  swap2\n  pop\n    /* \"#utility.yul\":1983:2003   */\n  tag_72\n    /* \"#utility.yul\":2001:2002   */\n  dup4\n    /* \"#utility.yul\":1983:2003   */\n  tag_45\n  jump\t// in\ntag_72:\n    /* \"#utility.yul\":1978:2003   */\n  swap3\n  pop\n    /* \"#utility.yul\":2027:2028   */\n  dup3\n    /* \"#utility.yul\":2024:2025   */\n  dup3\n    /* \"#utility.yul\":2020:2029   */\n  sub\n    /* \"#utility.yul\":2012:2029   */\n  swap1\n  pop\n    /* \"#utility.yul\":2051:2052   */\n  dup2\n    /* \"#utility.yul\":2045:2049   */\n  dup2\n    /* \"#utility.yul\":2042:2053   */\n  gt\n    /* \"#utility.yul\":2039:2076   */\n  iszero\n  tag_73\n  jumpi\n    /* \"#utility.yul\":2056:2074   */\n  tag_74\n  tag_44\n  jump\t// in\ntag_74:\n    /* \"#utility.yul\":2039:2076   */\ntag_73:\n    /* \"#utility.yul\":1889:2083   */\n  swap3\n  swap2\n  pop\n  pop\n  jump\t// out\n    /* \"#utility.yul\":2089:2280   */\ntag_23:\n    /* \"#utility.yul\":2129:2132   */\n  0x00\n    /* \"#utility.yul\":2148:2168   */\n  tag_76\n    /* \"#utility.yul\":2166:2167   */\n  dup3\n    /* \"#utility.yul\":2148:2168   */\n  tag_45\n  jump\t// in\ntag_76:\n    /* \"#utility.yul\":2143:2168   */\n  swap2\n  pop\n    /* \"#utility.yul\":2182:2202   */\n  tag_77\n    /* \"#utility.yul\":2200:2201   */\n  dup4\n    /* \"#utility.yul\":2182:2202   */\n  tag_45\n  jump\t// in\ntag_77:\n    /* \"#utility.yul\":2177:2202   */\n  swap3\n  pop\n    /* \"#utility.yul\":2225:2226   */\n  dup3\n    /* \"#utility.yul\":2222:2223   */\n  dup3\n    /* \"#utility.yul\":2218:2227   */\n  add\n    /* \"#utility.yul\":2211:2227   */\n  swap1\n  pop\n    /* \"#utility.yul\":2246:2249   */\n  dup1\n    /* \"#utility.yul\":2243:2244   */\n  dup3\n    /* \"#utility.yul\":2240:2250   */\n  gt\n    /* \"#utility.yul\":2237:2273   */\n  iszero\n  tag_78\n  jumpi\n    /* \"#utility.yul\":2253:2271   */\n  tag_79\n  tag_44\n  jump\t// in\ntag_79:\n    /* \"#utility.yul\":2237:2273   */\ntag_78:\n    /* \"#utility.yul\":2089:2280   */\n  swap3\n  swap2\n  pop\n  pop\n  jump\t// out\n    /* \"#utility.yul\":2286:2363   */\ntag_46:\n    /* \"#utility.yul\":2323:2330   */\n  0x00\n    /* \"#utility.yul\":2352:2357   */\n  dup2\n    /* \"#utility.yul\":2341:2357   */\n  swap1\n  pop\n    /* \"#utility.yul\":2286:2363   */\n  swap2\n  swap1\n  pop\n  jump\t// out\n    /* \"#utility.yul\":2369:2448   */\ntag_47:\n    /* \"#utility.yul\":2408:2415   */\n  0x00\n    /* \"#utility.yul\":2437:2442   */\n  dup2\n    /* \"#utility.yul\":2426:2442   */\n  swap1\n  pop\n    /* \"#utility.yul\":2369:2448   */\n  swap2\n  swap1\n  pop\n  jump\t// out\n    /* \"#utility.yul\":2454:2611   */\ntag_48:\n    /* \"#utility.yul\":2559:2604   */\n  tag_83\n    /* \"#utility.yul\":2579:2603   */\n  tag_84\n    /* \"#utility.yul\":2597:2602   */\n  dup3\n    /* \"#utility.yul\":2579:2603   */\n  tag_46\n  jump\t// in\ntag_84:\n    /* \"#utility.yul\":2559:2604   */\n  tag_47\n  jump\t// in\ntag_83:\n    /* \"#utility.yul\":2554:2557   */\n  dup3\n    /* \"#utility.yul\":2547:2605   */\n  mstore\n    /* \"#utility.yul\":2454:2611   */\n  pop\n  pop\n  jump\t// out\n    /* \"#utility.yul\":2617:3014   */\ntag_33:\n    /* \"#utility.yul\":2757:2760   */\n  0x00\n    /* \"#utility.yul\":2772:2847   */\n  tag_86\n    /* \"#utility.yul\":2843:2846   */\n  dup3\n    /* \"#utility.yul\":2834:2840   */\n  dup6\n    /* \"#utility.yul\":2772:2847   */\n  tag_48\n  jump\t// in\ntag_86:\n    /* \"#utility.yul\":2872:2874   */\n  0x20\n    /* \"#utility.yul\":2867:2870   */\n  dup3\n    /* \"#utility.yul\":2863:2875   */\n  add\n    /* \"#utility.yul\":2856:2875   */\n  swap2\n  pop\n    /* \"#utility.yul\":2885:2960   */\n  tag_87\n    /* \"#utility.yul\":2956:2959   */\n  dup3\n    /* \"#utility.yul\":2947:2953   */\n  dup5\n    /* \"#utility.yul\":2885:2960   */\n  tag_48\n  jump\t// in\ntag_87:\n    /* \"#utility.yul\":2985:2987   */\n  0x20\n    /* \"#utility.yul\":2980:2983   */\n  dup3\n    /* \"#utility.yul\":2976:2988   */\n  add\n    /* \"#utility.yul\":2969:2988   */\n  swap2\n  pop\n    /* \"#utility.yul\":3005:3008   */\n  dup2\n    /* \"#utility.yul\":2998:3008   */\n  swap1\n  pop\n    /* \"#utility.yul\":2617:3014   */\n  swap4\n  swap3\n  pop\n  pop\n  pop\n  jump\t// out\n    /* \"#utility.yul\":3020:3200   */\ntag_49:\n    /* \"#utility.yul\":3068:3145   */\n  0x4e487b7100000000000000000000000000000000000000000000000000000000\n    /* \"#utility.yul\":3065:3066   */\n  0x00\n    /* \"#utility.yul\":3058:3146   */\n  mstore\n    /* \"#utility.yul\":3165:3169   */\n  0x12\n    /* \"#utility.yul\":3162:3163   */\n  0x04\n    /* \"#utility.yul\":3155:3170   */\n  mstore\n    /* \"#utility.yul\":3189:3193   */\n  0x24\n    /* \"#utility.yul\":3186:3187   */\n  0x00\n    /* \"#utility.yul\":3179:3194   */\n  revert\n    /* \"#utility.yul\":3206:3391   */\ntag_38:\n    /* \"#utility.yul\":3246:3247   */\n  0x00\n    /* \"#utility.yul\":3263:3283   */\n  tag_90\n    /* \"#utility.yul\":3281:3282   */\n  dup3\n    /* \"#utility.yul\":3263:3283   */\n  tag_45\n  jump\t// in\ntag_90:\n    /* \"#utility.yul\":3258:3283   */\n  swap2\n  pop\n    /* \"#utility.yul\":3297:3317   */\n  tag_91\n    /* \"#utility.yul\":3315:3316   */\n  dup4\n    /* \"#utility.yul\":3297:3317   */\n  tag_45\n  jump\t// in\ntag_91:\n    /* \"#utility.yul\":3292:3317   */\n  swap3\n  pop\n    /* \"#utility.yul\":3336:3337   */\n  dup3\n    /* \"#utility.yul\":3326:3361   */\n  tag_92\n  jumpi\n    /* \"#utility.yul\":3341:3359   */\n  tag_93\n  tag_49\n  jump\t// in\ntag_93:\n    /* \"#utility.yul\":3326:3361   */\ntag_92:\n    /* \"#utility.yul\":3383:3384   */\n  dup3\n    /* \"#utility.yul\":3380:3381   */\n  dup3\n    /* \"#utility.yul\":3376:3385   */\n  div\n    /* \"#utility.yul\":3371:3385   */\n  swap1\n  pop\n    /* \"#utility.yul\":3206:3391   */\n  swap3\n  swap2\n  pop\n  pop\n  jump\t// out\n    /* \"merkletree.sol\":652:3390  contract TestMerkleProof is MerkleProof {... */\ntag_39:\n  dataSize(sub_0)\n  dup1\n  dataOffset(sub_0)\n  0x00\n  codecopy\n  0x00\n  return\nstop\n\nsub_0: assembly {\n        /* \"merkletree.sol\":652:3390  contract TestMerkleProof is MerkleProof {... */\n      mstore(0x40, 0x80)\n      callvalue\n      dup1\n      iszero\n      tag_1\n      jumpi\n      0x00\n      dup1\n      revert\n    tag_1:\n      pop\n      jumpi(tag_2, lt(calldatasize, 0x04))\n      shr(0xe0, calldataload(0x00))\n      dup1\n      0x21fb335c\n      eq\n      tag_3\n      jumpi\n      dup1\n      0x29f74aaf\n      eq\n      tag_4\n      jumpi\n      dup1\n      0x501895ae\n      eq\n      tag_5\n      jumpi\n      dup1\n      0x5ca1e165\n      eq\n      tag_6\n      jumpi\n      dup1\n      0x7cc395e2\n      eq\n      tag_7\n      jumpi\n    tag_2:\n      0x00\n      dup1\n      revert\n        /* \"merkletree.sol\":85:648  function verify(... */\n    tag_3:\n      tag_8\n      0x04\n      dup1\n      calldatasize\n      sub\n      dup2\n      add\n      swap1\n      tag_9\n      swap2\n      swap1\n      tag_10\n      jump\t// in\n    tag_9:\n      tag_11\n      jump\t// in\n    tag_8:\n      mload(0x40)\n      tag_12\n      swap2\n      swap1\n      tag_13\n      jump\t// in\n    tag_12:\n      mload(0x40)\n      dup1\n      swap2\n      sub\n      swap1\n      return\n        /* \"merkletree.sol\":2188:2313  function testfirst(string memory _text) public view returns (bytes32){... */\n    tag_4:\n      tag_14\n      0x04\n      dup1\n      calldatasize\n      sub\n      dup2\n      add\n      swap1\n      tag_15\n      swap2\n      swap1\n      tag_16\n      jump\t// in\n    tag_15:\n      tag_17\n      jump\t// in\n    tag_14:\n      mload(0x40)\n      tag_18\n      swap2\n      swap1\n      tag_19\n      jump\t// in\n    tag_18:\n      mload(0x40)\n      dup1\n      swap2\n      sub\n      swap1\n      return\n        /* \"merkletree.sol\":698:721  bytes32[] public hashes */\n    tag_5:\n      tag_20\n      0x04\n      dup1\n      calldatasize\n      sub\n      dup2\n      add\n      swap1\n      tag_21\n      swap2\n      swap1\n      tag_22\n      jump\t// in\n    tag_21:\n      tag_23\n      jump\t// in\n    tag_20:\n      mload(0x40)\n      tag_24\n      swap2\n      swap1\n      tag_19\n      jump\t// in\n    tag_24:\n      mload(0x40)\n      dup1\n      swap2\n      sub\n      swap1\n      return\n        /* \"merkletree.sol\":2084:2182  function getRoot() public view returns (bytes32) {... */\n    tag_6:\n      tag_25\n      tag_26\n      jump\t// in\n    tag_25:\n      mload(0x40)\n      tag_27\n      swap2\n      swap1\n      tag_19\n      jump\t// in\n    tag_27:\n      mload(0x40)\n      dup1\n      swap2\n      sub\n      swap1\n      return\n        /* \"merkletree.sol\":2320:2473  function hashbytes32(bytes32 _value1, bytes32 _value2) public view returns (bytes32){... */\n    tag_7:\n      tag_28\n      0x04\n      dup1\n      calldatasize\n      sub\n      dup2\n      add\n      swap1\n      tag_29\n      swap2\n      swap1\n      tag_30\n      jump\t// in\n    tag_29:\n      tag_31\n      jump\t// in\n    tag_28:\n      mload(0x40)\n      tag_32\n      swap2\n      swap1\n      tag_19\n      jump\t// in\n    tag_32:\n      mload(0x40)\n      dup1\n      swap2\n      sub\n      swap1\n      return\n        /* \"merkletree.sol\":85:648  function verify(... */\n    tag_11:\n        /* \"merkletree.sol\":224:228  bool */\n      0x00\n        /* \"merkletree.sol\":240:252  bytes32 hash */\n      dup1\n        /* \"merkletree.sol\":255:259  leaf */\n      dup4\n        /* \"merkletree.sol\":240:259  bytes32 hash = leaf */\n      swap1\n      pop\n        /* \"merkletree.sol\":275:281  uint i */\n      0x00\n        /* \"merkletree.sol\":270:612  for (uint i = 0; i < proof.length; i++) {... */\n    tag_34:\n        /* \"merkletree.sol\":291:296  proof */\n      dup7\n        /* \"merkletree.sol\":291:303  proof.length */\n      mload\n        /* \"merkletree.sol\":287:288  i */\n      dup2\n        /* \"merkletree.sol\":287:303  i < proof.length */\n      lt\n        /* \"merkletree.sol\":270:612  for (uint i = 0; i < proof.length; i++) {... */\n      iszero\n      tag_35\n      jumpi\n        /* \"merkletree.sol\":324:344  bytes32 proofElement */\n      0x00\n        /* \"merkletree.sol\":347:352  proof */\n      dup8\n        /* \"merkletree.sol\":353:354  i */\n      dup3\n        /* \"merkletree.sol\":347:355  proof[i] */\n      dup2\n      mload\n      dup2\n      lt\n      tag_37\n      jumpi\n      tag_38\n      tag_39\n      jump\t// in\n    tag_38:\n    tag_37:\n      0x20\n      mul\n      0x20\n      add\n      add\n      mload\n        /* \"merkletree.sol\":324:355  bytes32 proofElement = proof[i] */\n      swap1\n      pop\n        /* \"merkletree.sol\":387:388  0 */\n      0x00\n        /* \"merkletree.sol\":382:383  2 */\n      0x02\n        /* \"merkletree.sol\":374:379  index */\n      dup7\n        /* \"merkletree.sol\":374:383  index % 2 */\n      tag_40\n      swap2\n      swap1\n      tag_41\n      jump\t// in\n    tag_40:\n        /* \"merkletree.sol\":374:388  index % 2 == 0 */\n      sub\n        /* \"merkletree.sol\":370:570  if (index % 2 == 0) {... */\n      tag_42\n      jumpi\n        /* \"merkletree.sol\":442:446  hash */\n      dup3\n        /* \"merkletree.sol\":448:460  proofElement */\n      dup2\n        /* \"merkletree.sol\":425:461  abi.encodePacked(hash, proofElement) */\n      add(0x20, mload(0x40))\n      tag_43\n      swap3\n      swap2\n      swap1\n      tag_44\n      jump\t// in\n    tag_43:\n      mload(0x40)\n      0x20\n      dup2\n      dup4\n      sub\n      sub\n      dup2\n      mstore\n      swap1\n      0x40\n      mstore\n        /* \"merkletree.sol\":415:462  keccak256(abi.encodePacked(hash, proofElement)) */\n      dup1\n      mload\n      swap1\n      0x20\n      add\n      keccak256\n        /* \"merkletree.sol\":408:462  hash = keccak256(abi.encodePacked(hash, proofElement)) */\n      swap3\n      pop\n        /* \"merkletree.sol\":370:570  if (index % 2 == 0) {... */\n      jump(tag_45)\n    tag_42:\n        /* \"merkletree.sol\":535:547  proofElement */\n      dup1\n        /* \"merkletree.sol\":549:553  hash */\n      dup4\n        /* \"merkletree.sol\":518:554  abi.encodePacked(proofElement, hash) */\n      add(0x20, mload(0x40))\n      tag_46\n      swap3\n      swap2\n      swap1\n      tag_44\n      jump\t// in\n    tag_46:\n      mload(0x40)\n      0x20\n      dup2\n      dup4\n      sub\n      sub\n      dup2\n      mstore\n      swap1\n      0x40\n      mstore\n        /* \"merkletree.sol\":508:555  keccak256(abi.encodePacked(proofElement, hash)) */\n      dup1\n      mload\n      swap1\n      0x20\n      add\n      keccak256\n        /* \"merkletree.sol\":501:555  hash = keccak256(abi.encodePacked(proofElement, hash)) */\n      swap3\n      pop\n        /* \"merkletree.sol\":370:570  if (index % 2 == 0) {... */\n    tag_45:\n        /* \"merkletree.sol\":600:601  2 */\n      0x02\n        /* \"merkletree.sol\":592:597  index */\n      dup6\n        /* \"merkletree.sol\":592:601  index / 2 */\n      tag_47\n      swap2\n      swap1\n      tag_48\n      jump\t// in\n    tag_47:\n        /* \"merkletree.sol\":584:601  index = index / 2 */\n      swap5\n      pop\n        /* \"merkletree.sol\":310:612  {... */\n      pop\n        /* \"merkletree.sol\":305:308  i++ */\n      dup1\n      dup1\n      tag_49\n      swap1\n      tag_50\n      jump\t// in\n    tag_49:\n      swap2\n      pop\n      pop\n        /* \"merkletree.sol\":270:612  for (uint i = 0; i < proof.length; i++) {... */\n      jump(tag_34)\n    tag_35:\n      pop\n        /* \"merkletree.sol\":637:641  root */\n      dup5\n        /* \"merkletree.sol\":629:633  hash */\n      dup2\n        /* \"merkletree.sol\":629:641  hash == root */\n      eq\n        /* \"merkletree.sol\":622:641  return hash == root */\n      swap2\n      pop\n      pop\n        /* \"merkletree.sol\":85:648  function verify(... */\n      swap5\n      swap4\n      pop\n      pop\n      pop\n      pop\n      jump\t// out\n        /* \"merkletree.sol\":2188:2313  function testfirst(string memory _text) public view returns (bytes32){... */\n    tag_17:\n        /* \"merkletree.sol\":2249:2256  bytes32 */\n      0x00\n        /* \"merkletree.sol\":2299:2304  _text */\n      dup2\n        /* \"merkletree.sol\":2282:2305  abi.encodePacked(_text) */\n      add(0x20, mload(0x40))\n      tag_52\n      swap2\n      swap1\n      tag_53\n      jump\t// in\n    tag_52:\n      mload(0x40)\n      0x20\n      dup2\n      dup4\n      sub\n      sub\n      dup2\n      mstore\n      swap1\n      0x40\n      mstore\n        /* \"merkletree.sol\":2272:2306  keccak256(abi.encodePacked(_text)) */\n      dup1\n      mload\n      swap1\n      0x20\n      add\n      keccak256\n        /* \"merkletree.sol\":2265:2306  return keccak256(abi.encodePacked(_text)) */\n      swap1\n      pop\n        /* \"merkletree.sol\":2188:2313  function testfirst(string memory _text) public view returns (bytes32){... */\n      swap2\n      swap1\n      pop\n      jump\t// out\n        /* \"merkletree.sol\":698:721  bytes32[] public hashes */\n    tag_23:\n      0x00\n      dup2\n      dup2\n      sload\n      dup2\n      lt\n      tag_54\n      jumpi\n      0x00\n      dup1\n      revert\n    tag_54:\n      swap1\n      0x00\n      mstore\n      keccak256(0x00, 0x20)\n      add\n      0x00\n      swap2\n      pop\n      swap1\n      pop\n      sload\n      dup2\n      jump\t// out\n        /* \"merkletree.sol\":2084:2182  function getRoot() public view returns (bytes32) {... */\n    tag_26:\n        /* \"merkletree.sol\":2124:2131  bytes32 */\n      0x00\n        /* \"merkletree.sol\":2150:2156  hashes */\n      dup1\n        /* \"merkletree.sol\":2173:2174  1 */\n      0x01\n        /* \"merkletree.sol\":2157:2163  hashes */\n      0x00\n        /* \"merkletree.sol\":2157:2170  hashes.length */\n      dup1\n      sload\n      swap1\n      pop\n        /* \"merkletree.sol\":2157:2174  hashes.length - 1 */\n      tag_57\n      swap2\n      swap1\n      tag_58\n      jump\t// in\n    tag_57:\n        /* \"merkletree.sol\":2150:2175  hashes[hashes.length - 1] */\n      dup2\n      sload\n      dup2\n      lt\n      tag_59\n      jumpi\n      tag_60\n      tag_39\n      jump\t// in\n    tag_60:\n    tag_59:\n      swap1\n      0x00\n      mstore\n      keccak256(0x00, 0x20)\n      add\n      sload\n        /* \"merkletree.sol\":2143:2175  return hashes[hashes.length - 1] */\n      swap1\n      pop\n        /* \"merkletree.sol\":2084:2182  function getRoot() public view returns (bytes32) {... */\n      swap1\n      jump\t// out\n        /* \"merkletree.sol\":2320:2473  function hashbytes32(bytes32 _value1, bytes32 _value2) public view returns (bytes32){... */\n    tag_31:\n        /* \"merkletree.sol\":2396:2403  bytes32 */\n      0x00\n        /* \"merkletree.sol\":2448:2455  _value1 */\n      dup3\n        /* \"merkletree.sol\":2457:2464  _value2 */\n      dup3\n        /* \"merkletree.sol\":2431:2465  abi.encodePacked(_value1, _value2) */\n      add(0x20, mload(0x40))\n      tag_63\n      swap3\n      swap2\n      swap1\n      tag_44\n      jump\t// in\n    tag_63:\n      mload(0x40)\n      0x20\n      dup2\n      dup4\n      sub\n      sub\n      dup2\n      mstore\n      swap1\n      0x40\n      mstore\n        /* \"merkletree.sol\":2421:2466  keccak256(abi.encodePacked(_value1, _value2)) */\n      dup1\n      mload\n      swap1\n      0x20\n      add\n      keccak256\n        /* \"merkletree.sol\":2414:2466  return keccak256(abi.encodePacked(_value1, _value2)) */\n      swap1\n      pop\n        /* \"merkletree.sol\":2320:2473  function hashbytes32(bytes32 _value1, bytes32 _value2) public view returns (bytes32){... */\n      swap3\n      swap2\n      pop\n      pop\n      jump\t// out\n        /* \"#utility.yul\":7:82   */\n    tag_64:\n        /* \"#utility.yul\":40:46   */\n      0x00\n        /* \"#utility.yul\":73:75   */\n      0x40\n        /* \"#utility.yul\":67:76   */\n      mload\n        /* \"#utility.yul\":57:76   */\n      swap1\n      pop\n        /* \"#utility.yul\":7:82   */\n      swap1\n      jump\t// out\n        /* \"#utility.yul\":88:205   */\n    tag_65:\n        /* \"#utility.yul\":197:198   */\n      0x00\n        /* \"#utility.yul\":194:195   */\n      dup1\n        /* \"#utility.yul\":187:199   */\n      revert\n        /* \"#utility.yul\":211:328   */\n    tag_66:\n        /* \"#utility.yul\":320:321   */\n      0x00\n        /* \"#utility.yul\":317:318   */\n      dup1\n        /* \"#utility.yul\":310:322   */\n      revert\n        /* \"#utility.yul\":334:451   */\n    tag_67:\n        /* \"#utility.yul\":443:444   */\n      0x00\n        /* \"#utility.yul\":440:441   */\n      dup1\n        /* \"#utility.yul\":433:445   */\n      revert\n        /* \"#utility.yul\":457:559   */\n    tag_68:\n        /* \"#utility.yul\":498:504   */\n      0x00\n        /* \"#utility.yul\":549:551   */\n      0x1f\n        /* \"#utility.yul\":545:552   */\n      not\n        /* \"#utility.yul\":540:542   */\n      0x1f\n        /* \"#utility.yul\":533:538   */\n      dup4\n        /* \"#utility.yul\":529:543   */\n      add\n        /* \"#utility.yul\":525:553   */\n      and\n        /* \"#utility.yul\":515:553   */\n      swap1\n      pop\n        /* \"#utility.yul\":457:559   */\n      swap2\n      swap1\n      pop\n      jump\t// out\n        /* \"#utility.yul\":565:745   */\n    tag_69:\n        /* \"#utility.yul\":613:690   */\n      0x4e487b7100000000000000000000000000000000000000000000000000000000\n        /* \"#utility.yul\":610:611   */\n      0x00\n        /* \"#utility.yul\":603:691   */\n      mstore\n        /* \"#utility.yul\":710:714   */\n      0x41\n        /* \"#utility.yul\":707:708   */\n      0x04\n        /* \"#utility.yul\":700:715   */\n      mstore\n        /* \"#utility.yul\":734:738   */\n      0x24\n        /* \"#utility.yul\":731:732   */\n      0x00\n        /* \"#utility.yul\":724:739   */\n      revert\n        /* \"#utility.yul\":751:1032   */\n    tag_70:\n        /* \"#utility.yul\":834:861   */\n      tag_106\n        /* \"#utility.yul\":856:860   */\n      dup3\n        /* \"#utility.yul\":834:861   */\n      tag_68\n      jump\t// in\n    tag_106:\n        /* \"#utility.yul\":826:832   */\n      dup2\n        /* \"#utility.yul\":822:862   */\n      add\n        /* \"#utility.yul\":964:970   */\n      dup2\n        /* \"#utility.yul\":952:962   */\n      dup2\n        /* \"#utility.yul\":949:971   */\n      lt\n        /* \"#utility.yul\":928:946   */\n      0xffffffffffffffff\n        /* \"#utility.yul\":916:926   */\n      dup3\n        /* \"#utility.yul\":913:947   */\n      gt\n        /* \"#utility.yul\":910:972   */\n      or\n        /* \"#utility.yul\":907:995   */\n      iszero\n      tag_107\n      jumpi\n        /* \"#utility.yul\":975:993   */\n      tag_108\n      tag_69\n      jump\t// in\n    tag_108:\n        /* \"#utility.yul\":907:995   */\n    tag_107:\n        /* \"#utility.yul\":1015:1025   */\n      dup1\n        /* \"#utility.yul\":1011:1013   */\n      0x40\n        /* \"#utility.yul\":1004:1026   */\n      mstore\n        /* \"#utility.yul\":794:1032   */\n      pop\n        /* \"#utility.yul\":751:1032   */\n      pop\n      pop\n      jump\t// out\n        /* \"#utility.yul\":1038:1167   */\n    tag_71:\n        /* \"#utility.yul\":1072:1078   */\n      0x00\n        /* \"#utility.yul\":1099:1119   */\n      tag_110\n      tag_64\n      jump\t// in\n    tag_110:\n        /* \"#utility.yul\":1089:1119   */\n      swap1\n      pop\n        /* \"#utility.yul\":1128:1161   */\n      tag_111\n        /* \"#utility.yul\":1156:1160   */\n      dup3\n        /* \"#utility.yul\":1148:1154   */\n      dup3\n        /* \"#utility.yul\":1128:1161   */\n      tag_70\n      jump\t// in\n    tag_111:\n        /* \"#utility.yul\":1038:1167   */\n      swap2\n      swap1\n      pop\n      jump\t// out\n        /* \"#utility.yul\":1173:1484   */\n    tag_72:\n        /* \"#utility.yul\":1250:1254   */\n      0x00\n        /* \"#utility.yul\":1340:1358   */\n      0xffffffffffffffff\n        /* \"#utility.yul\":1332:1338   */\n      dup3\n        /* \"#utility.yul\":1329:1359   */\n      gt\n        /* \"#utility.yul\":1326:1382   */\n      iszero\n      tag_113\n      jumpi\n        /* \"#utility.yul\":1362:1380   */\n      tag_114\n      tag_69\n      jump\t// in\n    tag_114:\n        /* \"#utility.yul\":1326:1382   */\n    tag_113:\n        /* \"#utility.yul\":1412:1416   */\n      0x20\n        /* \"#utility.yul\":1404:1410   */\n      dup3\n        /* \"#utility.yul\":1400:1417   */\n      mul\n        /* \"#utility.yul\":1392:1417   */\n      swap1\n      pop\n        /* \"#utility.yul\":1472:1476   */\n      0x20\n        /* \"#utility.yul\":1466:1470   */\n      dup2\n        /* \"#utility.yul\":1462:1477   */\n      add\n        /* \"#utility.yul\":1454:1477   */\n      swap1\n      pop\n        /* \"#utility.yul\":1173:1484   */\n      swap2\n      swap1\n      pop\n      jump\t// out\n        /* \"#utility.yul\":1490:1607   */\n    tag_73:\n        /* \"#utility.yul\":1599:1600   */\n      0x00\n        /* \"#utility.yul\":1596:1597   */\n      dup1\n        /* \"#utility.yul\":1589:1601   */\n      revert\n        /* \"#utility.yul\":1613:1690   */\n    tag_74:\n        /* \"#utility.yul\":1650:1657   */\n      0x00\n        /* \"#utility.yul\":1679:1684   */\n      dup2\n        /* \"#utility.yul\":1668:1684   */\n      swap1\n      pop\n        /* \"#utility.yul\":1613:1690   */\n      swap2\n      swap1\n      pop\n      jump\t// out\n        /* \"#utility.yul\":1696:1818   */\n    tag_75:\n        /* \"#utility.yul\":1769:1793   */\n      tag_118\n        /* \"#utility.yul\":1787:1792   */\n      dup2\n        /* \"#utility.yul\":1769:1793   */\n      tag_74\n      jump\t// in\n    tag_118:\n        /* \"#utility.yul\":1762:1767   */\n      dup2\n        /* \"#utility.yul\":1759:1794   */\n      eq\n        /* \"#utility.yul\":1749:1812   */\n      tag_119\n      jumpi\n        /* \"#utility.yul\":1808:1809   */\n      0x00\n        /* \"#utility.yul\":1805:1806   */\n      dup1\n        /* \"#utility.yul\":1798:1810   */\n      revert\n        /* \"#utility.yul\":1749:1812   */\n    tag_119:\n        /* \"#utility.yul\":1696:1818   */\n      pop\n      jump\t// out\n        /* \"#utility.yul\":1824:1963   */\n    tag_76:\n        /* \"#utility.yul\":1870:1875   */\n      0x00\n        /* \"#utility.yul\":1908:1914   */\n      dup2\n        /* \"#utility.yul\":1895:1915   */\n      calldataload\n        /* \"#utility.yul\":1886:1915   */\n      swap1\n      pop\n        /* \"#utility.yul\":1924:1957   */\n      tag_121\n        /* \"#utility.yul\":1951:1956   */\n      dup2\n        /* \"#utility.yul\":1924:1957   */\n      tag_75\n      jump\t// in\n    tag_121:\n        /* \"#utility.yul\":1824:1963   */\n      swap3\n      swap2\n      pop\n      pop\n      jump\t// out\n        /* \"#utility.yul\":1986:2696   */\n    tag_77:\n        /* \"#utility.yul\":2082:2087   */\n      0x00\n        /* \"#utility.yul\":2107:2188   */\n      tag_123\n        /* \"#utility.yul\":2123:2187   */\n      tag_124\n        /* \"#utility.yul\":2180:2186   */\n      dup5\n        /* \"#utility.yul\":2123:2187   */\n      tag_72\n      jump\t// in\n    tag_124:\n        /* \"#utility.yul\":2107:2188   */\n      tag_71\n      jump\t// in\n    tag_123:\n        /* \"#utility.yul\":2098:2188   */\n      swap1\n      pop\n        /* \"#utility.yul\":2208:2213   */\n      dup1\n        /* \"#utility.yul\":2237:2243   */\n      dup4\n        /* \"#utility.yul\":2230:2235   */\n      dup3\n        /* \"#utility.yul\":2223:2244   */\n      mstore\n        /* \"#utility.yul\":2271:2275   */\n      0x20\n        /* \"#utility.yul\":2264:2269   */\n      dup3\n        /* \"#utility.yul\":2260:2276   */\n      add\n        /* \"#utility.yul\":2253:2276   */\n      swap1\n      pop\n        /* \"#utility.yul\":2324:2328   */\n      0x20\n        /* \"#utility.yul\":2316:2322   */\n      dup5\n        /* \"#utility.yul\":2312:2329   */\n      mul\n        /* \"#utility.yul\":2304:2310   */\n      dup4\n        /* \"#utility.yul\":2300:2330   */\n      add\n        /* \"#utility.yul\":2353:2356   */\n      dup6\n        /* \"#utility.yul\":2345:2351   */\n      dup2\n        /* \"#utility.yul\":2342:2357   */\n      gt\n        /* \"#utility.yul\":2339:2461   */\n      iszero\n      tag_125\n      jumpi\n        /* \"#utility.yul\":2372:2451   */\n      tag_126\n      tag_73\n      jump\t// in\n    tag_126:\n        /* \"#utility.yul\":2339:2461   */\n    tag_125:\n        /* \"#utility.yul\":2487:2493   */\n      dup4\n        /* \"#utility.yul\":2470:2690   */\n    tag_127:\n        /* \"#utility.yul\":2504:2510   */\n      dup2\n        /* \"#utility.yul\":2499:2502   */\n      dup2\n        /* \"#utility.yul\":2496:2511   */\n      lt\n        /* \"#utility.yul\":2470:2690   */\n      iszero\n      tag_129\n      jumpi\n        /* \"#utility.yul\":2579:2582   */\n      dup1\n        /* \"#utility.yul\":2608:2645   */\n      tag_130\n        /* \"#utility.yul\":2641:2644   */\n      dup9\n        /* \"#utility.yul\":2629:2639   */\n      dup3\n        /* \"#utility.yul\":2608:2645   */\n      tag_76\n      jump\t// in\n    tag_130:\n        /* \"#utility.yul\":2603:2606   */\n      dup5\n        /* \"#utility.yul\":2596:2646   */\n      mstore\n        /* \"#utility.yul\":2675:2679   */\n      0x20\n        /* \"#utility.yul\":2670:2673   */\n      dup5\n        /* \"#utility.yul\":2666:2680   */\n      add\n        /* \"#utility.yul\":2659:2680   */\n      swap4\n      pop\n        /* \"#utility.yul\":2546:2690   */\n      pop\n        /* \"#utility.yul\":2530:2534   */\n      0x20\n        /* \"#utility.yul\":2525:2528   */\n      dup2\n        /* \"#utility.yul\":2521:2535   */\n      add\n        /* \"#utility.yul\":2514:2535   */\n      swap1\n      pop\n        /* \"#utility.yul\":2470:2690   */\n      jump(tag_127)\n    tag_129:\n        /* \"#utility.yul\":2474:2495   */\n      pop\n        /* \"#utility.yul\":2088:2696   */\n      pop\n      pop\n        /* \"#utility.yul\":1986:2696   */\n      swap4\n      swap3\n      pop\n      pop\n      pop\n      jump\t// out\n        /* \"#utility.yul\":2719:3089   */\n    tag_78:\n        /* \"#utility.yul\":2790:2795   */\n      0x00\n        /* \"#utility.yul\":2839:2842   */\n      dup3\n        /* \"#utility.yul\":2832:2836   */\n      0x1f\n        /* \"#utility.yul\":2824:2830   */\n      dup4\n        /* \"#utility.yul\":2820:2837   */\n      add\n        /* \"#utility.yul\":2816:2843   */\n      slt\n        /* \"#utility.yul\":2806:2928   */\n      tag_132\n      jumpi\n        /* \"#utility.yul\":2847:2926   */\n      tag_133\n      tag_67\n      jump\t// in\n    tag_133:\n        /* \"#utility.yul\":2806:2928   */\n    tag_132:\n        /* \"#utility.yul\":2964:2970   */\n      dup2\n        /* \"#utility.yul\":2951:2971   */\n      calldataload\n        /* \"#utility.yul\":2989:3083   */\n      tag_134\n        /* \"#utility.yul\":3079:3082   */\n      dup5\n        /* \"#utility.yul\":3071:3077   */\n      dup3\n        /* \"#utility.yul\":3064:3068   */\n      0x20\n        /* \"#utility.yul\":3056:3062   */\n      dup7\n        /* \"#utility.yul\":3052:3069   */\n      add\n        /* \"#utility.yul\":2989:3083   */\n      tag_77\n      jump\t// in\n    tag_134:\n        /* \"#utility.yul\":2980:3083   */\n      swap2\n      pop\n        /* \"#utility.yul\":2796:3089   */\n      pop\n        /* \"#utility.yul\":2719:3089   */\n      swap3\n      swap2\n      pop\n      pop\n      jump\t// out\n        /* \"#utility.yul\":3095:3172   */\n    tag_79:\n        /* \"#utility.yul\":3132:3139   */\n      0x00\n        /* \"#utility.yul\":3161:3166   */\n      dup2\n        /* \"#utility.yul\":3150:3166   */\n      swap1\n      pop\n        /* \"#utility.yul\":3095:3172   */\n      swap2\n      swap1\n      pop\n      jump\t// out\n        /* \"#utility.yul\":3178:3300   */\n    tag_80:\n        /* \"#utility.yul\":3251:3275   */\n      tag_137\n        /* \"#utility.yul\":3269:3274   */\n      dup2\n        /* \"#utility.yul\":3251:3275   */\n      tag_79\n      jump\t// in\n    tag_137:\n        /* \"#utility.yul\":3244:3249   */\n      dup2\n        /* \"#utility.yul\":3241:3276   */\n      eq\n        /* \"#utility.yul\":3231:3294   */\n      tag_138\n      jumpi\n        /* \"#utility.yul\":3290:3291   */\n      0x00\n        /* \"#utility.yul\":3287:3288   */\n      dup1\n        /* \"#utility.yul\":3280:3292   */\n      revert\n        /* \"#utility.yul\":3231:3294   */\n    tag_138:\n        /* \"#utility.yul\":3178:3300   */\n      pop\n      jump\t// out\n        /* \"#utility.yul\":3306:3445   */\n    tag_81:\n        /* \"#utility.yul\":3352:3357   */\n      0x00\n        /* \"#utility.yul\":3390:3396   */\n      dup2\n        /* \"#utility.yul\":3377:3397   */\n      calldataload\n        /* \"#utility.yul\":3368:3397   */\n      swap1\n      pop\n        /* \"#utility.yul\":3406:3439   */\n      tag_140\n        /* \"#utility.yul\":3433:3438   */\n      dup2\n        /* \"#utility.yul\":3406:3439   */\n      tag_80\n      jump\t// in\n    tag_140:\n        /* \"#utility.yul\":3306:3445   */\n      swap3\n      swap2\n      pop\n      pop\n      jump\t// out\n        /* \"#utility.yul\":3451:4426   */\n    tag_10:\n        /* \"#utility.yul\":3562:3568   */\n      0x00\n        /* \"#utility.yul\":3570:3576   */\n      dup1\n        /* \"#utility.yul\":3578:3584   */\n      0x00\n        /* \"#utility.yul\":3586:3592   */\n      dup1\n        /* \"#utility.yul\":3635:3638   */\n      0x80\n        /* \"#utility.yul\":3623:3632   */\n      dup6\n        /* \"#utility.yul\":3614:3621   */\n      dup8\n        /* \"#utility.yul\":3610:3633   */\n      sub\n        /* \"#utility.yul\":3606:3639   */\n      slt\n        /* \"#utility.yul\":3603:3723   */\n      iszero\n      tag_142\n      jumpi\n        /* \"#utility.yul\":3642:3721   */\n      tag_143\n      tag_65\n      jump\t// in\n    tag_143:\n        /* \"#utility.yul\":3603:3723   */\n    tag_142:\n        /* \"#utility.yul\":3790:3791   */\n      0x00\n        /* \"#utility.yul\":3779:3788   */\n      dup6\n        /* \"#utility.yul\":3775:3792   */\n      add\n        /* \"#utility.yul\":3762:3793   */\n      calldataload\n        /* \"#utility.yul\":3820:3838   */\n      0xffffffffffffffff\n        /* \"#utility.yul\":3812:3818   */\n      dup2\n        /* \"#utility.yul\":3809:3839   */\n      gt\n        /* \"#utility.yul\":3806:3923   */\n      iszero\n      tag_144\n      jumpi\n        /* \"#utility.yul\":3842:3921   */\n      tag_145\n      tag_66\n      jump\t// in\n    tag_145:\n        /* \"#utility.yul\":3806:3923   */\n    tag_144:\n        /* \"#utility.yul\":3947:4025   */\n      tag_146\n        /* \"#utility.yul\":4017:4024   */\n      dup8\n        /* \"#utility.yul\":4008:4014   */\n      dup3\n        /* \"#utility.yul\":3997:4006   */\n      dup9\n        /* \"#utility.yul\":3993:4015   */\n      add\n        /* \"#utility.yul\":3947:4025   */\n      tag_78\n      jump\t// in\n    tag_146:\n        /* \"#utility.yul\":3937:4025   */\n      swap5\n      pop\n        /* \"#utility.yul\":3733:4035   */\n      pop\n        /* \"#utility.yul\":4074:4076   */\n      0x20\n        /* \"#utility.yul\":4100:4153   */\n      tag_147\n        /* \"#utility.yul\":4145:4152   */\n      dup8\n        /* \"#utility.yul\":4136:4142   */\n      dup3\n        /* \"#utility.yul\":4125:4134   */\n      dup9\n        /* \"#utility.yul\":4121:4143   */\n      add\n        /* \"#utility.yul\":4100:4153   */\n      tag_76\n      jump\t// in\n    tag_147:\n        /* \"#utility.yul\":4090:4153   */\n      swap4\n      pop\n        /* \"#utility.yul\":4045:4163   */\n      pop\n        /* \"#utility.yul\":4202:4204   */\n      0x40\n        /* \"#utility.yul\":4228:4281   */\n      tag_148\n        /* \"#utility.yul\":4273:4280   */\n      dup8\n        /* \"#utility.yul\":4264:4270   */\n      dup3\n        /* \"#utility.yul\":4253:4262   */\n      dup9\n        /* \"#utility.yul\":4249:4271   */\n      add\n        /* \"#utility.yul\":4228:4281   */\n      tag_76\n      jump\t// in\n    tag_148:\n        /* \"#utility.yul\":4218:4281   */\n      swap3\n      pop\n        /* \"#utility.yul\":4173:4291   */\n      pop\n        /* \"#utility.yul\":4330:4332   */\n      0x60\n        /* \"#utility.yul\":4356:4409   */\n      tag_149\n        /* \"#utility.yul\":4401:4408   */\n      dup8\n        /* \"#utility.yul\":4392:4398   */\n      dup3\n        /* \"#utility.yul\":4381:4390   */\n      dup9\n        /* \"#utility.yul\":4377:4399   */\n      add\n        /* \"#utility.yul\":4356:4409   */\n      tag_81\n      jump\t// in\n    tag_149:\n        /* \"#utility.yul\":4346:4409   */\n      swap2\n      pop\n        /* \"#utility.yul\":4301:4419   */\n      pop\n        /* \"#utility.yul\":3451:4426   */\n      swap3\n      swap6\n      swap2\n      swap5\n      pop\n      swap3\n      pop\n      jump\t// out\n        /* \"#utility.yul\":4432:4522   */\n    tag_82:\n        /* \"#utility.yul\":4466:4473   */\n      0x00\n        /* \"#utility.yul\":4509:4514   */\n      dup2\n        /* \"#utility.yul\":4502:4515   */\n      iszero\n        /* \"#utility.yul\":4495:4516   */\n      iszero\n        /* \"#utility.yul\":4484:4516   */\n      swap1\n      pop\n        /* \"#utility.yul\":4432:4522   */\n      swap2\n      swap1\n      pop\n      jump\t// out\n        /* \"#utility.yul\":4528:4637   */\n    tag_83:\n        /* \"#utility.yul\":4609:4630   */\n      tag_152\n        /* \"#utility.yul\":4624:4629   */\n      dup2\n        /* \"#utility.yul\":4609:4630   */\n      tag_82\n      jump\t// in\n    tag_152:\n        /* \"#utility.yul\":4604:4607   */\n      dup3\n        /* \"#utility.yul\":4597:4631   */\n      mstore\n        /* \"#utility.yul\":4528:4637   */\n      pop\n      pop\n      jump\t// out\n        /* \"#utility.yul\":4643:4853   */\n    tag_13:\n        /* \"#utility.yul\":4730:4734   */\n      0x00\n        /* \"#utility.yul\":4768:4770   */\n      0x20\n        /* \"#utility.yul\":4757:4766   */\n      dup3\n        /* \"#utility.yul\":4753:4771   */\n      add\n        /* \"#utility.yul\":4745:4771   */\n      swap1\n      pop\n        /* \"#utility.yul\":4781:4846   */\n      tag_154\n        /* \"#utility.yul\":4843:4844   */\n      0x00\n        /* \"#utility.yul\":4832:4841   */\n      dup4\n        /* \"#utility.yul\":4828:4845   */\n      add\n        /* \"#utility.yul\":4819:4825   */\n      dup5\n        /* \"#utility.yul\":4781:4846   */\n      tag_83\n      jump\t// in\n    tag_154:\n        /* \"#utility.yul\":4643:4853   */\n      swap3\n      swap2\n      pop\n      pop\n      jump\t// out\n        /* \"#utility.yul\":4859:4976   */\n    tag_84:\n        /* \"#utility.yul\":4968:4969   */\n      0x00\n        /* \"#utility.yul\":4965:4966   */\n      dup1\n        /* \"#utility.yul\":4958:4970   */\n      revert\n        /* \"#utility.yul\":4982:5290   */\n    tag_85:\n        /* \"#utility.yul\":5044:5048   */\n      0x00\n        /* \"#utility.yul\":5134:5152   */\n      0xffffffffffffffff\n        /* \"#utility.yul\":5126:5132   */\n      dup3\n        /* \"#utility.yul\":5123:5153   */\n      gt\n        /* \"#utility.yul\":5120:5176   */\n      iszero\n      tag_157\n      jumpi\n        /* \"#utility.yul\":5156:5174   */\n      tag_158\n      tag_69\n      jump\t// in\n    tag_158:\n        /* \"#utility.yul\":5120:5176   */\n    tag_157:\n        /* \"#utility.yul\":5194:5223   */\n      tag_159\n        /* \"#utility.yul\":5216:5222   */\n      dup3\n        /* \"#utility.yul\":5194:5223   */\n      tag_68\n      jump\t// in\n    tag_159:\n        /* \"#utility.yul\":5186:5223   */\n      swap1\n      pop\n        /* \"#utility.yul\":5278:5282   */\n      0x20\n        /* \"#utility.yul\":5272:5276   */\n      dup2\n        /* \"#utility.yul\":5268:5283   */\n      add\n        /* \"#utility.yul\":5260:5283   */\n      swap1\n      pop\n        /* \"#utility.yul\":4982:5290   */\n      swap2\n      swap1\n      pop\n      jump\t// out\n        /* \"#utility.yul\":5296:5442   */\n    tag_86:\n        /* \"#utility.yul\":5393:5399   */\n      dup3\n        /* \"#utility.yul\":5388:5391   */\n      dup2\n        /* \"#utility.yul\":5383:5386   */\n      dup4\n        /* \"#utility.yul\":5370:5400   */\n      calldatacopy\n        /* \"#utility.yul\":5434:5435   */\n      0x00\n        /* \"#utility.yul\":5425:5431   */\n      dup4\n        /* \"#utility.yul\":5420:5423   */\n      dup4\n        /* \"#utility.yul\":5416:5432   */\n      add\n        /* \"#utility.yul\":5409:5436   */\n      mstore\n        /* \"#utility.yul\":5296:5442   */\n      pop\n      pop\n      pop\n      jump\t// out\n        /* \"#utility.yul\":5448:5873   */\n    tag_87:\n        /* \"#utility.yul\":5526:5531   */\n      0x00\n        /* \"#utility.yul\":5551:5617   */\n      tag_162\n        /* \"#utility.yul\":5567:5616   */\n      tag_163\n        /* \"#utility.yul\":5609:5615   */\n      dup5\n        /* \"#utility.yul\":5567:5616   */\n      tag_85\n      jump\t// in\n    tag_163:\n        /* \"#utility.yul\":5551:5617   */\n      tag_71\n      jump\t// in\n    tag_162:\n        /* \"#utility.yul\":5542:5617   */\n      swap1\n      pop\n        /* \"#utility.yul\":5640:5646   */\n      dup3\n        /* \"#utility.yul\":5633:5638   */\n      dup2\n        /* \"#utility.yul\":5626:5647   */\n      mstore\n        /* \"#utility.yul\":5678:5682   */\n      0x20\n        /* \"#utility.yul\":5671:5676   */\n      dup2\n        /* \"#utility.yul\":5667:5683   */\n      add\n        /* \"#utility.yul\":5716:5719   */\n      dup5\n        /* \"#utility.yul\":5707:5713   */\n      dup5\n        /* \"#utility.yul\":5702:5705   */\n      dup5\n        /* \"#utility.yul\":5698:5714   */\n      add\n        /* \"#utility.yul\":5695:5720   */\n      gt\n        /* \"#utility.yul\":5692:5804   */\n      iszero\n      tag_164\n      jumpi\n        /* \"#utility.yul\":5723:5802   */\n      tag_165\n      tag_84\n      jump\t// in\n    tag_165:\n        /* \"#utility.yul\":5692:5804   */\n    tag_164:\n        /* \"#utility.yul\":5813:5867   */\n      tag_166\n        /* \"#utility.yul\":5860:5866   */\n      dup5\n        /* \"#utility.yul\":5855:5858   */\n      dup3\n        /* \"#utility.yul\":5850:5853   */\n      dup6\n        /* \"#utility.yul\":5813:5867   */\n      tag_86\n      jump\t// in\n    tag_166:\n        /* \"#utility.yul\":5532:5873   */\n      pop\n        /* \"#utility.yul\":5448:5873   */\n      swap4\n      swap3\n      pop\n      pop\n      pop\n      jump\t// out\n        /* \"#utility.yul\":5893:6233   */\n    tag_88:\n        /* \"#utility.yul\":5949:5954   */\n      0x00\n        /* \"#utility.yul\":5998:6001   */\n      dup3\n        /* \"#utility.yul\":5991:5995   */\n      0x1f\n        /* \"#utility.yul\":5983:5989   */\n      dup4\n        /* \"#utility.yul\":5979:5996   */\n      add\n        /* \"#utility.yul\":5975:6002   */\n      slt\n        /* \"#utility.yul\":5965:6087   */\n      tag_168\n      jumpi\n        /* \"#utility.yul\":6006:6085   */\n      tag_169\n      tag_67\n      jump\t// in\n    tag_169:\n        /* \"#utility.yul\":5965:6087   */\n    tag_168:\n        /* \"#utility.yul\":6123:6129   */\n      dup2\n        /* \"#utility.yul\":6110:6130   */\n      calldataload\n        /* \"#utility.yul\":6148:6227   */\n      tag_170\n        /* \"#utility.yul\":6223:6226   */\n      dup5\n        /* \"#utility.yul\":6215:6221   */\n      dup3\n        /* \"#utility.yul\":6208:6212   */\n      0x20\n        /* \"#utility.yul\":6200:6206   */\n      dup7\n        /* \"#utility.yul\":6196:6213   */\n      add\n        /* \"#utility.yul\":6148:6227   */\n      tag_87\n      jump\t// in\n    tag_170:\n        /* \"#utility.yul\":6139:6227   */\n      swap2\n      pop\n        /* \"#utility.yul\":5955:6233   */\n      pop\n        /* \"#utility.yul\":5893:6233   */\n      swap3\n      swap2\n      pop\n      pop\n      jump\t// out\n        /* \"#utility.yul\":6239:6748   */\n    tag_16:\n        /* \"#utility.yul\":6308:6314   */\n      0x00\n        /* \"#utility.yul\":6357:6359   */\n      0x20\n        /* \"#utility.yul\":6345:6354   */\n      dup3\n        /* \"#utility.yul\":6336:6343   */\n      dup5\n        /* \"#utility.yul\":6332:6355   */\n      sub\n        /* \"#utility.yul\":6328:6360   */\n      slt\n        /* \"#utility.yul\":6325:6444   */\n      iszero\n      tag_172\n      jumpi\n        /* \"#utility.yul\":6363:6442   */\n      tag_173\n      tag_65\n      jump\t// in\n    tag_173:\n        /* \"#utility.yul\":6325:6444   */\n    tag_172:\n        /* \"#utility.yul\":6511:6512   */\n      0x00\n        /* \"#utility.yul\":6500:6509   */\n      dup3\n        /* \"#utility.yul\":6496:6513   */\n      add\n        /* \"#utility.yul\":6483:6514   */\n      calldataload\n        /* \"#utility.yul\":6541:6559   */\n      0xffffffffffffffff\n        /* \"#utility.yul\":6533:6539   */\n      dup2\n        /* \"#utility.yul\":6530:6560   */\n      gt\n        /* \"#utility.yul\":6527:6644   */\n      iszero\n      tag_174\n      jumpi\n        /* \"#utility.yul\":6563:6642   */\n      tag_175\n      tag_66\n      jump\t// in\n    tag_175:\n        /* \"#utility.yul\":6527:6644   */\n    tag_174:\n        /* \"#utility.yul\":6668:6731   */\n      tag_176\n        /* \"#utility.yul\":6723:6730   */\n      dup5\n        /* \"#utility.yul\":6714:6720   */\n      dup3\n        /* \"#utility.yul\":6703:6712   */\n      dup6\n        /* \"#utility.yul\":6699:6721   */\n      add\n        /* \"#utility.yul\":6668:6731   */\n      tag_88\n      jump\t// in\n    tag_176:\n        /* \"#utility.yul\":6658:6731   */\n      swap2\n      pop\n        /* \"#utility.yul\":6454:6741   */\n      pop\n        /* \"#utility.yul\":6239:6748   */\n      swap3\n      swap2\n      pop\n      pop\n      jump\t// out\n        /* \"#utility.yul\":6754:6872   */\n    tag_89:\n        /* \"#utility.yul\":6841:6865   */\n      tag_178\n        /* \"#utility.yul\":6859:6864   */\n      dup2\n        /* \"#utility.yul\":6841:6865   */\n      tag_74\n      jump\t// in\n    tag_178:\n        /* \"#utility.yul\":6836:6839   */\n      dup3\n        /* \"#utility.yul\":6829:6866   */\n      mstore\n        /* \"#utility.yul\":6754:6872   */\n      pop\n      pop\n      jump\t// out\n        /* \"#utility.yul\":6878:7100   */\n    tag_19:\n        /* \"#utility.yul\":6971:6975   */\n      0x00\n        /* \"#utility.yul\":7009:7011   */\n      0x20\n        /* \"#utility.yul\":6998:7007   */\n      dup3\n        /* \"#utility.yul\":6994:7012   */\n      add\n        /* \"#utility.yul\":6986:7012   */\n      swap1\n      pop\n        /* \"#utility.yul\":7022:7093   */\n      tag_180\n        /* \"#utility.yul\":7090:7091   */\n      0x00\n        /* \"#utility.yul\":7079:7088   */\n      dup4\n        /* \"#utility.yul\":7075:7092   */\n      add\n        /* \"#utility.yul\":7066:7072   */\n      dup5\n        /* \"#utility.yul\":7022:7093   */\n      tag_89\n      jump\t// in\n    tag_180:\n        /* \"#utility.yul\":6878:7100   */\n      swap3\n      swap2\n      pop\n      pop\n      jump\t// out\n        /* \"#utility.yul\":7106:7435   */\n    tag_22:\n        /* \"#utility.yul\":7165:7171   */\n      0x00\n        /* \"#utility.yul\":7214:7216   */\n      0x20\n        /* \"#utility.yul\":7202:7211   */\n      dup3\n        /* \"#utility.yul\":7193:7200   */\n      dup5\n        /* \"#utility.yul\":7189:7212   */\n      sub\n        /* \"#utility.yul\":7185:7217   */\n      slt\n        /* \"#utility.yul\":7182:7301   */\n      iszero\n      tag_182\n      jumpi\n        /* \"#utility.yul\":7220:7299   */\n      tag_183\n      tag_65\n      jump\t// in\n    tag_183:\n        /* \"#utility.yul\":7182:7301   */\n    tag_182:\n        /* \"#utility.yul\":7340:7341   */\n      0x00\n        /* \"#utility.yul\":7365:7418   */\n      tag_184\n        /* \"#utility.yul\":7410:7417   */\n      dup5\n        /* \"#utility.yul\":7401:7407   */\n      dup3\n        /* \"#utility.yul\":7390:7399   */\n      dup6\n        /* \"#utility.yul\":7386:7408   */\n      add\n        /* \"#utility.yul\":7365:7418   */\n      tag_81\n      jump\t// in\n    tag_184:\n        /* \"#utility.yul\":7355:7418   */\n      swap2\n      pop\n        /* \"#utility.yul\":7311:7428   */\n      pop\n        /* \"#utility.yul\":7106:7435   */\n      swap3\n      swap2\n      pop\n      pop\n      jump\t// out\n        /* \"#utility.yul\":7441:7915   */\n    tag_30:\n        /* \"#utility.yul\":7509:7515   */\n      0x00\n        /* \"#utility.yul\":7517:7523   */\n      dup1\n        /* \"#utility.yul\":7566:7568   */\n      0x40\n        /* \"#utility.yul\":7554:7563   */\n      dup4\n        /* \"#utility.yul\":7545:7552   */\n      dup6\n        /* \"#utility.yul\":7541:7564   */\n      sub\n        /* \"#utility.yul\":7537:7569   */\n      slt\n        /* \"#utility.yul\":7534:7653   */\n      iszero\n      tag_186\n      jumpi\n        /* \"#utility.yul\":7572:7651   */\n      tag_187\n      tag_65\n      jump\t// in\n    tag_187:\n        /* \"#utility.yul\":7534:7653   */\n    tag_186:\n        /* \"#utility.yul\":7692:7693   */\n      0x00\n        /* \"#utility.yul\":7717:7770   */\n      tag_188\n        /* \"#utility.yul\":7762:7769   */\n      dup6\n        /* \"#utility.yul\":7753:7759   */\n      dup3\n        /* \"#utility.yul\":7742:7751   */\n      dup7\n        /* \"#utility.yul\":7738:7760   */\n      add\n        /* \"#utility.yul\":7717:7770   */\n      tag_76\n      jump\t// in\n    tag_188:\n        /* \"#utility.yul\":7707:7770   */\n      swap3\n      pop\n        /* \"#utility.yul\":7663:7780   */\n      pop\n        /* \"#utility.yul\":7819:7821   */\n      0x20\n        /* \"#utility.yul\":7845:7898   */\n      tag_189\n        /* \"#utility.yul\":7890:7897   */\n      dup6\n        /* \"#utility.yul\":7881:7887   */\n      dup3\n        /* \"#utility.yul\":7870:7879   */\n      dup7\n        /* \"#utility.yul\":7866:7888   */\n      add\n        /* \"#utility.yul\":7845:7898   */\n      tag_76\n      jump\t// in\n    tag_189:\n        /* \"#utility.yul\":7835:7898   */\n      swap2\n      pop\n        /* \"#utility.yul\":7790:7908   */\n      pop\n        /* \"#utility.yul\":7441:7915   */\n      swap3\n      pop\n      swap3\n      swap1\n      pop\n      jump\t// out\n        /* \"#utility.yul\":7921:8101   */\n    tag_39:\n        /* \"#utility.yul\":7969:8046   */\n      0x4e487b7100000000000000000000000000000000000000000000000000000000\n        /* \"#utility.yul\":7966:7967   */\n      0x00\n        /* \"#utility.yul\":7959:8047   */\n      mstore\n        /* \"#utility.yul\":8066:8070   */\n      0x32\n        /* \"#utility.yul\":8063:8064   */\n      0x04\n        /* \"#utility.yul\":8056:8071   */\n      mstore\n        /* \"#utility.yul\":8090:8094   */\n      0x24\n        /* \"#utility.yul\":8087:8088   */\n      0x00\n        /* \"#utility.yul\":8080:8095   */\n      revert\n        /* \"#utility.yul\":8107:8287   */\n    tag_90:\n        /* \"#utility.yul\":8155:8232   */\n      0x4e487b7100000000000000000000000000000000000000000000000000000000\n        /* \"#utility.yul\":8152:8153   */\n      0x00\n        /* \"#utility.yul\":8145:8233   */\n      mstore\n        /* \"#utility.yul\":8252:8256   */\n      0x12\n        /* \"#utility.yul\":8249:8250   */\n      0x04\n        /* \"#utility.yul\":8242:8257   */\n      mstore\n        /* \"#utility.yul\":8276:8280   */\n      0x24\n        /* \"#utility.yul\":8273:8274   */\n      0x00\n        /* \"#utility.yul\":8266:8281   */\n      revert\n        /* \"#utility.yul\":8293:8469   */\n    tag_41:\n        /* \"#utility.yul\":8325:8326   */\n      0x00\n        /* \"#utility.yul\":8342:8362   */\n      tag_193\n        /* \"#utility.yul\":8360:8361   */\n      dup3\n        /* \"#utility.yul\":8342:8362   */\n      tag_79\n      jump\t// in\n    tag_193:\n        /* \"#utility.yul\":8337:8362   */\n      swap2\n      pop\n        /* \"#utility.yul\":8376:8396   */\n      tag_194\n        /* \"#utility.yul\":8394:8395   */\n      dup4\n        /* \"#utility.yul\":8376:8396   */\n      tag_79\n      jump\t// in\n    tag_194:\n        /* \"#utility.yul\":8371:8396   */\n      swap3\n      pop\n        /* \"#utility.yul\":8415:8416   */\n      dup3\n        /* \"#utility.yul\":8405:8440   */\n      tag_195\n      jumpi\n        /* \"#utility.yul\":8420:8438   */\n      tag_196\n      tag_90\n      jump\t// in\n    tag_196:\n        /* \"#utility.yul\":8405:8440   */\n    tag_195:\n        /* \"#utility.yul\":8461:8462   */\n      dup3\n        /* \"#utility.yul\":8458:8459   */\n      dup3\n        /* \"#utility.yul\":8454:8463   */\n      mod\n        /* \"#utility.yul\":8449:8463   */\n      swap1\n      pop\n        /* \"#utility.yul\":8293:8469   */\n      swap3\n      swap2\n      pop\n      pop\n      jump\t// out\n        /* \"#utility.yul\":8475:8554   */\n    tag_91:\n        /* \"#utility.yul\":8514:8521   */\n      0x00\n        /* \"#utility.yul\":8543:8548   */\n      dup2\n        /* \"#utility.yul\":8532:8548   */\n      swap1\n      pop\n        /* \"#utility.yul\":8475:8554   */\n      swap2\n      swap1\n      pop\n      jump\t// out\n        /* \"#utility.yul\":8560:8717   */\n    tag_92:\n        /* \"#utility.yul\":8665:8710   */\n      tag_199\n        /* \"#utility.yul\":8685:8709   */\n      tag_200\n        /* \"#utility.yul\":8703:8708   */\n      dup3\n        /* \"#utility.yul\":8685:8709   */\n      tag_74\n      jump\t// in\n    tag_200:\n        /* \"#utility.yul\":8665:8710   */\n      tag_91\n      jump\t// in\n    tag_199:\n        /* \"#utility.yul\":8660:8663   */\n      dup3\n        /* \"#utility.yul\":8653:8711   */\n      mstore\n        /* \"#utility.yul\":8560:8717   */\n      pop\n      pop\n      jump\t// out\n        /* \"#utility.yul\":8723:9120   */\n    tag_44:\n        /* \"#utility.yul\":8863:8866   */\n      0x00\n        /* \"#utility.yul\":8878:8953   */\n      tag_202\n        /* \"#utility.yul\":8949:8952   */\n      dup3\n        /* \"#utility.yul\":8940:8946   */\n      dup6\n        /* \"#utility.yul\":8878:8953   */\n      tag_92\n      jump\t// in\n    tag_202:\n        /* \"#utility.yul\":8978:8980   */\n      0x20\n        /* \"#utility.yul\":8973:8976   */\n      dup3\n        /* \"#utility.yul\":8969:8981   */\n      add\n        /* \"#utility.yul\":8962:8981   */\n      swap2\n      pop\n        /* \"#utility.yul\":8991:9066   */\n      tag_203\n        /* \"#utility.yul\":9062:9065   */\n      dup3\n        /* \"#utility.yul\":9053:9059   */\n      dup5\n        /* \"#utility.yul\":8991:9066   */\n      tag_92\n      jump\t// in\n    tag_203:\n        /* \"#utility.yul\":9091:9093   */\n      0x20\n        /* \"#utility.yul\":9086:9089   */\n      dup3\n        /* \"#utility.yul\":9082:9094   */\n      add\n        /* \"#utility.yul\":9075:9094   */\n      swap2\n      pop\n        /* \"#utility.yul\":9111:9114   */\n      dup2\n        /* \"#utility.yul\":9104:9114   */\n      swap1\n      pop\n        /* \"#utility.yul\":8723:9120   */\n      swap4\n      swap3\n      pop\n      pop\n      pop\n      jump\t// out\n        /* \"#utility.yul\":9126:9306   */\n    tag_93:\n        /* \"#utility.yul\":9174:9251   */\n      0x4e487b7100000000000000000000000000000000000000000000000000000000\n        /* \"#utility.yul\":9171:9172   */\n      0x00\n        /* \"#utility.yul\":9164:9252   */\n      mstore\n        /* \"#utility.yul\":9271:9275   */\n      0x11\n        /* \"#utility.yul\":9268:9269   */\n      0x04\n        /* \"#utility.yul\":9261:9276   */\n      mstore\n        /* \"#utility.yul\":9295:9299   */\n      0x24\n        /* \"#utility.yul\":9292:9293   */\n      0x00\n        /* \"#utility.yul\":9285:9300   */\n      revert\n        /* \"#utility.yul\":9312:9497   */\n    tag_48:\n        /* \"#utility.yul\":9352:9353   */\n      0x00\n        /* \"#utility.yul\":9369:9389   */\n      tag_206\n        /* \"#utility.yul\":9387:9388   */\n      dup3\n        /* \"#utility.yul\":9369:9389   */\n      tag_79\n      jump\t// in\n    tag_206:\n        /* \"#utility.yul\":9364:9389   */\n      swap2\n      pop\n        /* \"#utility.yul\":9403:9423   */\n      tag_207\n        /* \"#utility.yul\":9421:9422   */\n      dup4\n        /* \"#utility.yul\":9403:9423   */\n      tag_79\n      jump\t// in\n    tag_207:\n        /* \"#utility.yul\":9398:9423   */\n      swap3\n      pop\n        /* \"#utility.yul\":9442:9443   */\n      dup3\n        /* \"#utility.yul\":9432:9467   */\n      tag_208\n      jumpi\n        /* \"#utility.yul\":9447:9465   */\n      tag_209\n      tag_90\n      jump\t// in\n    tag_209:\n        /* \"#utility.yul\":9432:9467   */\n    tag_208:\n        /* \"#utility.yul\":9489:9490   */\n      dup3\n        /* \"#utility.yul\":9486:9487   */\n      dup3\n        /* \"#utility.yul\":9482:9491   */\n      div\n        /* \"#utility.yul\":9477:9491   */\n      swap1\n      pop\n        /* \"#utility.yul\":9312:9497   */\n      swap3\n      swap2\n      pop\n      pop\n      jump\t// out\n        /* \"#utility.yul\":9503:9736   */\n    tag_50:\n        /* \"#utility.yul\":9542:9545   */\n      0x00\n        /* \"#utility.yul\":9565:9589   */\n      tag_211\n        /* \"#utility.yul\":9583:9588   */\n      dup3\n        /* \"#utility.yul\":9565:9589   */\n      tag_79\n      jump\t// in\n    tag_211:\n        /* \"#utility.yul\":9556:9589   */\n      swap2\n      pop\n        /* \"#utility.yul\":9611:9677   */\n      0xffffffffffffffffffffffffffffffffffffffffffffffffffffffffffffffff\n        /* \"#utility.yul\":9604:9609   */\n      dup3\n        /* \"#utility.yul\":9601:9678   */\n      sub\n        /* \"#utility.yul\":9598:9701   */\n      tag_212\n      jumpi\n        /* \"#utility.yul\":9681:9699   */\n      tag_213\n      tag_93\n      jump\t// in\n    tag_213:\n        /* \"#utility.yul\":9598:9701   */\n    tag_212:\n        /* \"#utility.yul\":9728:9729   */\n      0x01\n        /* \"#utility.yul\":9721:9726   */\n      dup3\n        /* \"#utility.yul\":9717:9730   */\n      add\n        /* \"#utility.yul\":9710:9730   */\n      swap1\n      pop\n        /* \"#utility.yul\":9503:9736   */\n      swap2\n      swap1\n      pop\n      jump\t// out\n        /* \"#utility.yul\":9742:9841   */\n    tag_94:\n        /* \"#utility.yul\":9794:9800   */\n      0x00\n        /* \"#utility.yul\":9828:9833   */\n      dup2\n        /* \"#utility.yul\":9822:9834   */\n      mload\n        /* \"#utility.yul\":9812:9834   */\n      swap1\n      pop\n        /* \"#utility.yul\":9742:9841   */\n      swap2\n      swap1\n      pop\n      jump\t// out\n        /* \"#utility.yul\":9847:9995   */\n    tag_95:\n        /* \"#utility.yul\":9949:9960   */\n      0x00\n        /* \"#utility.yul\":9986:9989   */\n      dup2\n        /* \"#utility.yul\":9971:9989   */\n      swap1\n      pop\n        /* \"#utility.yul\":9847:9995   */\n      swap3\n      swap2\n      pop\n      pop\n      jump\t// out\n        /* \"#utility.yul\":10001:10247   */\n    tag_96:\n        /* \"#utility.yul\":10082:10083   */\n      0x00\n        /* \"#utility.yul\":10092:10205   */\n    tag_217:\n        /* \"#utility.yul\":10106:10112   */\n      dup4\n        /* \"#utility.yul\":10103:10104   */\n      dup2\n        /* \"#utility.yul\":10100:10113   */\n      lt\n        /* \"#utility.yul\":10092:10205   */\n      iszero\n      tag_219\n      jumpi\n        /* \"#utility.yul\":10191:10192   */\n      dup1\n        /* \"#utility.yul\":10186:10189   */\n      dup3\n        /* \"#utility.yul\":10182:10193   */\n      add\n        /* \"#utility.yul\":10176:10194   */\n      mload\n        /* \"#utility.yul\":10172:10173   */\n      dup2\n        /* \"#utility.yul\":10167:10170   */\n      dup5\n        /* \"#utility.yul\":10163:10174   */\n      add\n        /* \"#utility.yul\":10156:10195   */\n      mstore\n        /* \"#utility.yul\":10128:10130   */\n      0x20\n        /* \"#utility.yul\":10125:10126   */\n      dup2\n        /* \"#utility.yul\":10121:10131   */\n      add\n        /* \"#utility.yul\":10116:10131   */\n      swap1\n      pop\n        /* \"#utility.yul\":10092:10205   */\n      jump(tag_217)\n    tag_219:\n        /* \"#utility.yul\":10239:10240   */\n      0x00\n        /* \"#utility.yul\":10230:10236   */\n      dup5\n        /* \"#utility.yul\":10225:10228   */\n      dup5\n        /* \"#utility.yul\":10221:10237   */\n      add\n        /* \"#utility.yul\":10214:10241   */\n      mstore\n        /* \"#utility.yul\":10063:10247   */\n      pop\n        /* \"#utility.yul\":10001:10247   */\n      pop\n      pop\n      pop\n      jump\t// out\n        /* \"#utility.yul\":10253:10643   */\n    tag_97:\n        /* \"#utility.yul\":10359:10362   */\n      0x00\n        /* \"#utility.yul\":10387:10426   */\n      tag_221\n        /* \"#utility.yul\":10420:10425   */\n      dup3\n        /* \"#utility.yul\":10387:10426   */\n      tag_94\n      jump\t// in\n    tag_221:\n        /* \"#utility.yul\":10442:10531   */\n      tag_222\n        /* \"#utility.yul\":10524:10530   */\n      dup2\n        /* \"#utility.yul\":10519:10522   */\n      dup6\n        /* \"#utility.yul\":10442:10531   */\n      tag_95\n      jump\t// in\n    tag_222:\n        /* \"#utility.yul\":10435:10531   */\n      swap4\n      pop\n        /* \"#utility.yul\":10540:10605   */\n      tag_223\n        /* \"#utility.yul\":10598:10604   */\n      dup2\n        /* \"#utility.yul\":10593:10596   */\n      dup6\n        /* \"#utility.yul\":10586:10590   */\n      0x20\n        /* \"#utility.yul\":10579:10584   */\n      dup7\n        /* \"#utility.yul\":10575:10591   */\n      add\n        /* \"#utility.yul\":10540:10605   */\n      tag_96\n      jump\t// in\n    tag_223:\n        /* \"#utility.yul\":10630:10636   */\n      dup1\n        /* \"#utility.yul\":10625:10628   */\n      dup5\n        /* \"#utility.yul\":10621:10637   */\n      add\n        /* \"#utility.yul\":10614:10637   */\n      swap2\n      pop\n        /* \"#utility.yul\":10363:10643   */\n      pop\n        /* \"#utility.yul\":10253:10643   */\n      swap3\n      swap2\n      pop\n      pop\n      jump\t// out\n        /* \"#utility.yul\":10649:10924   */\n    tag_53:\n        /* \"#utility.yul\":10781:10784   */\n      0x00\n        /* \"#utility.yul\":10803:10898   */\n      tag_225\n        /* \"#utility.yul\":10894:10897   */\n      dup3\n        /* \"#utility.yul\":10885:10891   */\n      dup5\n        /* \"#utility.yul\":10803:10898   */\n      tag_97\n      jump\t// in\n    tag_225:\n        /* \"#utility.yul\":10796:10898   */\n      swap2\n      pop\n        /* \"#utility.yul\":10915:10918   */\n      dup2\n        /* \"#utility.yul\":10908:10918   */\n      swap1\n      pop\n        /* \"#utility.yul\":10649:10924   */\n      swap3\n      swap2\n      pop\n      pop\n      jump\t// out\n        /* \"#utility.yul\":10930:11124   */\n    tag_58:\n        /* \"#utility.yul\":10970:10974   */\n      0x00\n        /* \"#utility.yul\":10990:11010   */\n      tag_227\n        /* \"#utility.yul\":11008:11009   */\n      dup3\n        /* \"#utility.yul\":10990:11010   */\n      tag_79\n      jump\t// in\n    tag_227:\n        /* \"#utility.yul\":10985:11010   */\n      swap2\n      pop\n        /* \"#utility.yul\":11024:11044   */\n      tag_228\n        /* \"#utility.yul\":11042:11043   */\n      dup4\n        /* \"#utility.yul\":11024:11044   */\n      tag_79\n      jump\t// in\n    tag_228:\n        /* \"#utility.yul\":11019:11044   */\n      swap3\n      pop\n        /* \"#utility.yul\":11068:11069   */\n      dup3\n        /* \"#utility.yul\":11065:11066   */\n      dup3\n        /* \"#utility.yul\":11061:11070   */\n      sub\n        /* \"#utility.yul\":11053:11070   */\n      swap1\n      pop\n        /* \"#utility.yul\":11092:11093   */\n      dup2\n        /* \"#utility.yul\":11086:11090   */\n      dup2\n        /* \"#utility.yul\":11083:11094   */\n      gt\n        /* \"#utility.yul\":11080:11117   */\n      iszero\n      tag_229\n      jumpi\n        /* \"#utility.yul\":11097:11115   */\n      tag_230\n      tag_93\n      jump\t// in\n    tag_230:\n        /* \"#utility.yul\":11080:11117   */\n    tag_229:\n        /* \"#utility.yul\":10930:11124   */\n      swap3\n      swap2\n      pop\n      pop\n      jump\t// out\n\n    auxdata: 0xa2646970667358221220c8408e640711781c29d8891837a250e03016d1594d8ce2a798b30d874d03069964736f6c63430008120033\n}\n",
				"bytecode": {
					"linkReferences": {},
					"object": "60806040523480156200001157600080fd5b50600060405180608001604052806040518060400160405280600c81526020017f616c696365202d3e20626f62000000000000000000000000000000000000000081525081526020016040518060400160405280600b81526020017f626f62202d3e206461766500000000000000000000000000000000000000000081525081526020016040518060400160405280600e81526020017f6361726f6c202d3e20616c69636500000000000000000000000000000000000081525081526020016040518060400160405280600b81526020017f64617665202d3e20626f62000000000000000000000000000000000000000000815250815250905060005b60048110156200019957600082826004811062000130576200012f620002cb565b5b602002015160405160200162000147919062000373565b60405160208183030381529060405280519060200120908060018154018082558091505060019003906000526020600020016000909190919091505580806200019090620003c5565b9150506200010e565b5060006004905060005b6000821115620002c25760005b600183620001bf919062000412565b8110156200029a576000808284620001d891906200044d565b81548110620001ec57620001eb620002cb565b5b90600052602060002001546000600184866200020991906200044d565b6200021591906200044d565b81548110620002295762000228620002cb565b5b906000526020600020015460405160200162000247929190620004b7565b6040516020818303038152906040528051906020012090806001815401808255809150506001900390600052602060002001600090919091909150556002816200029291906200044d565b9050620001b0565b508181620002a991906200044d565b9050600282620002ba919062000516565b9150620001a3565b5050506200054e565b7f4e487b7100000000000000000000000000000000000000000000000000000000600052603260045260246000fd5b600081519050919050565b600081905092915050565b60005b838110156200033057808201518184015260208101905062000313565b60008484015250505050565b60006200034982620002fa565b62000355818562000305565b93506200036781856020860162000310565b80840191505092915050565b60006200038182846200033c565b915081905092915050565b7f4e487b7100000000000000000000000000000000000000000000000000000000600052601160045260246000fd5b6000819050919050565b6000620003d282620003bb565b91507fffffffffffffffffffffffffffffffffffffffffffffffffffffffffffffffff82036200040757620004066200038c565b5b600182019050919050565b60006200041f82620003bb565b91506200042c83620003bb565b92508282039050818111156200044757620004466200038c565b5b92915050565b60006200045a82620003bb565b91506200046783620003bb565b92508282019050808211156200048257620004816200038c565b5b92915050565b6000819050919050565b6000819050919050565b620004b1620004ab8262000488565b62000492565b82525050565b6000620004c582856200049c565b602082019150620004d782846200049c565b6020820191508190509392505050565b7f4e487b7100000000000000000000000000000000000000000000000000000000600052601260045260246000fd5b60006200052382620003bb565b91506200053083620003bb565b925082620005435762000542620004e7565b5b828204905092915050565b610967806200055e6000396000f3fe608060405234801561001057600080fd5b50600436106100575760003560e01c806321fb335c1461005c57806329f74aaf1461008c578063501895ae146100bc5780635ca1e165146100ec5780637cc395e21461010a575b600080fd5b610076600480360381019061007191906104a3565b61013a565b6040516100839190610541565b60405180910390f35b6100a660048036038101906100a19190610611565b61020d565b6040516100b39190610669565b60405180910390f35b6100d660048036038101906100d19190610684565b61023d565b6040516100e39190610669565b60405180910390f35b6100f4610261565b6040516101019190610669565b60405180910390f35b610124600480360381019061011f91906106b1565b610297565b6040516101319190610669565b60405180910390f35b60008083905060005b86518110156101fe576000878281518110610161576101606106f1565b5b60200260200101519050600060028661017a919061074f565b036101af5782816040516020016101929291906107a1565b6040516020818303038152906040528051906020012092506101db565b80836040516020016101c29291906107a1565b6040516020818303038152906040528051906020012092505b6002856101e891906107fc565b94505080806101f69061082d565b915050610143565b50848114915050949350505050565b60008160405160200161022091906108e6565b604051602081830303815290604052805190602001209050919050565b6000818154811061024d57600080fd5b906000526020600020016000915090505481565b600080600160008054905061027691906108fd565b81548110610287576102866106f1565b5b9060005260206000200154905090565b600082826040516020016102ac9291906107a1565b60405160208183030381529060405280519060200120905092915050565b6000604051905090565b600080fd5b600080fd5b600080fd5b6000601f19601f8301169050919050565b7f4e487b7100000000000000000000000000000000000000000000000000000000600052604160045260246000fd5b61032c826102e3565b810181811067ffffffffffffffff8211171561034b5761034a6102f4565b5b80604052505050565b600061035e6102ca565b905061036a8282610323565b919050565b600067ffffffffffffffff82111561038a576103896102f4565b5b602082029050602081019050919050565b600080fd5b6000819050919050565b6103b3816103a0565b81146103be57600080fd5b50565b6000813590506103d0816103aa565b92915050565b60006103e96103e48461036f565b610354565b9050808382526020820190506020840283018581111561040c5761040b61039b565b5b835b81811015610435578061042188826103c1565b84526020840193505060208101905061040e565b5050509392505050565b600082601f830112610454576104536102de565b5b81356104648482602086016103d6565b91505092915050565b6000819050919050565b6104808161046d565b811461048b57600080fd5b50565b60008135905061049d81610477565b92915050565b600080600080608085870312156104bd576104bc6102d4565b5b600085013567ffffffffffffffff8111156104db576104da6102d9565b5b6104e78782880161043f565b94505060206104f8878288016103c1565b9350506040610509878288016103c1565b925050606061051a8782880161048e565b91505092959194509250565b60008115159050919050565b61053b81610526565b82525050565b60006020820190506105566000830184610532565b92915050565b600080fd5b600067ffffffffffffffff82111561057c5761057b6102f4565b5b610585826102e3565b9050602081019050919050565b82818337600083830152505050565b60006105b46105af84610561565b610354565b9050828152602081018484840111156105d0576105cf61055c565b5b6105db848285610592565b509392505050565b600082601f8301126105f8576105f76102de565b5b81356106088482602086016105a1565b91505092915050565b600060208284031215610627576106266102d4565b5b600082013567ffffffffffffffff811115610645576106446102d9565b5b610651848285016105e3565b91505092915050565b610663816103a0565b82525050565b600060208201905061067e600083018461065a565b92915050565b60006020828403121561069a576106996102d4565b5b60006106a88482850161048e565b91505092915050565b600080604083850312156106c8576106c76102d4565b5b60006106d6858286016103c1565b92505060206106e7858286016103c1565b9150509250929050565b7f4e487b7100000000000000000000000000000000000000000000000000000000600052603260045260246000fd5b7f4e487b7100000000000000000000000000000000000000000000000000000000600052601260045260246000fd5b600061075a8261046d565b91506107658361046d565b92508261077557610774610720565b5b828206905092915050565b6000819050919050565b61079b610796826103a0565b610780565b82525050565b60006107ad828561078a565b6020820191506107bd828461078a565b6020820191508190509392505050565b7f4e487b7100000000000000000000000000000000000000000000000000000000600052601160045260246000fd5b60006108078261046d565b91506108128361046d565b92508261082257610821610720565b5b828204905092915050565b60006108388261046d565b91507fffffffffffffffffffffffffffffffffffffffffffffffffffffffffffffffff820361086a576108696107cd565b5b600182019050919050565b600081519050919050565b600081905092915050565b60005b838110156108a957808201518184015260208101905061088e565b60008484015250505050565b60006108c082610875565b6108ca8185610880565b93506108da81856020860161088b565b80840191505092915050565b60006108f282846108b5565b915081905092915050565b60006109088261046d565b91506109138361046d565b925082820390508181111561092b5761092a6107cd565b5b9291505056fea2646970667358221220c8408e640711781c29d8891837a250e03016d1594d8ce2a798b30d874d03069964736f6c63430008120033",
					"opcodes": "PUSH1 0x80 PUSH1 0x40 MSTORE CALLVALUE DUP1 ISZERO PUSH3 0x11 JUMPI PUSH1 0x0 DUP1 REVERT JUMPDEST POP PUSH1 0x0 PUSH1 0x40 MLOAD DUP1 PUSH1 0x80 ADD PUSH1 0x40 MSTORE DUP1 PUSH1 0x40 MLOAD DUP1 PUSH1 0x40 ADD PUSH1 0x40 MSTORE DUP1 PUSH1 0xC DUP2 MSTORE PUSH1 0x20 ADD PUSH32 0x616C696365202D3E20626F620000000000000000000000000000000000000000 DUP2 MSTORE POP DUP2 MSTORE PUSH1 0x20 ADD PUSH1 0x40 MLOAD DUP1 PUSH1 0x40 ADD PUSH1 0x40 MSTORE DUP1 PUSH1 0xB DUP2 MSTORE PUSH1 0x20 ADD PUSH32 0x626F62202D3E2064617665000000000000000000000000000000000000000000 DUP2 MSTORE POP DUP2 MSTORE PUSH1 0x20 ADD PUSH1 0x40 MLOAD DUP1 PUSH1 0x40 ADD PUSH1 0x40 MSTORE DUP1 PUSH1 0xE DUP2 MSTORE PUSH1 0x20 ADD PUSH32 0x6361726F6C202D3E20616C696365000000000000000000000000000000000000 DUP2 MSTORE POP DUP2 MSTORE PUSH1 0x20 ADD PUSH1 0x40 MLOAD DUP1 PUSH1 0x40 ADD PUSH1 0x40 MSTORE DUP1 PUSH1 0xB DUP2 MSTORE PUSH1 0x20 ADD PUSH32 0x64617665202D3E20626F62000000000000000000000000000000000000000000 DUP2 MSTORE POP DUP2 MSTORE POP SWAP1 POP PUSH1 0x0 JUMPDEST PUSH1 0x4 DUP2 LT ISZERO PUSH3 0x199 JUMPI PUSH1 0x0 DUP3 DUP3 PUSH1 0x4 DUP2 LT PUSH3 0x130 JUMPI PUSH3 0x12F PUSH3 0x2CB JUMP JUMPDEST JUMPDEST PUSH1 0x20 MUL ADD MLOAD PUSH1 0x40 MLOAD PUSH1 0x20 ADD PUSH3 0x147 SWAP2 SWAP1 PUSH3 0x373 JUMP JUMPDEST PUSH1 0x40 MLOAD PUSH1 0x20 DUP2 DUP4 SUB SUB DUP2 MSTORE SWAP1 PUSH1 0x40 MSTORE DUP1 MLOAD SWAP1 PUSH1 0x20 ADD KECCAK256 SWAP1 DUP1 PUSH1 0x1 DUP2 SLOAD ADD DUP1 DUP3 SSTORE DUP1 SWAP2 POP POP PUSH1 0x1 SWAP1 SUB SWAP1 PUSH1 0x0 MSTORE PUSH1 0x20 PUSH1 0x0 KECCAK256 ADD PUSH1 0x0 SWAP1 SWAP2 SWAP1 SWAP2 SWAP1 SWAP2 POP SSTORE DUP1 DUP1 PUSH3 0x190 SWAP1 PUSH3 0x3C5 JUMP JUMPDEST SWAP2 POP POP PUSH3 0x10E JUMP JUMPDEST POP PUSH1 0x0 PUSH1 0x4 SWAP1 POP PUSH1 0x0 JUMPDEST PUSH1 0x0 DUP3 GT ISZERO PUSH3 0x2C2 JUMPI PUSH1 0x0 JUMPDEST PUSH1 0x1 DUP4 PUSH3 0x1BF SWAP2 SWAP1 PUSH3 0x412 JUMP JUMPDEST DUP2 LT ISZERO PUSH3 0x29A JUMPI PUSH1 0x0 DUP1 DUP3 DUP5 PUSH3 0x1D8 SWAP2 SWAP1 PUSH3 0x44D JUMP JUMPDEST DUP2 SLOAD DUP2 LT PUSH3 0x1EC JUMPI PUSH3 0x1EB PUSH3 0x2CB JUMP JUMPDEST JUMPDEST SWAP1 PUSH1 0x0 MSTORE PUSH1 0x20 PUSH1 0x0 KECCAK256 ADD SLOAD PUSH1 0x0 PUSH1 0x1 DUP5 DUP7 PUSH3 0x209 SWAP2 SWAP1 PUSH3 0x44D JUMP JUMPDEST PUSH3 0x215 SWAP2 SWAP1 PUSH3 0x44D JUMP JUMPDEST DUP2 SLOAD DUP2 LT PUSH3 0x229 JUMPI PUSH3 0x228 PUSH3 0x2CB JUMP JUMPDEST JUMPDEST SWAP1 PUSH1 0x0 MSTORE PUSH1 0x20 PUSH1 0x0 KECCAK256 ADD SLOAD PUSH1 0x40 MLOAD PUSH1 0x20 ADD PUSH3 0x247 SWAP3 SWAP2 SWAP1 PUSH3 0x4B7 JUMP JUMPDEST PUSH1 0x40 MLOAD PUSH1 0x20 DUP2 DUP4 SUB SUB DUP2 MSTORE SWAP1 PUSH1 0x40 MSTORE DUP1 MLOAD SWAP1 PUSH1 0x20 ADD KECCAK256 SWAP1 DUP1 PUSH1 0x1 DUP2 SLOAD ADD DUP1 DUP3 SSTORE DUP1 SWAP2 POP POP PUSH1 0x1 SWAP1 SUB SWAP1 PUSH1 0x0 MSTORE PUSH1 0x20 PUSH1 0x0 KECCAK256 ADD PUSH1 0x0 SWAP1 SWAP2 SWAP1 SWAP2 SWAP1 SWAP2 POP SSTORE PUSH1 0x2 DUP2 PUSH3 0x292 SWAP2 SWAP1 PUSH3 0x44D JUMP JUMPDEST SWAP1 POP PUSH3 0x1B0 JUMP JUMPDEST POP DUP2 DUP2 PUSH3 0x2A9 SWAP2 SWAP1 PUSH3 0x44D JUMP JUMPDEST SWAP1 POP PUSH1 0x2 DUP3 PUSH3 0x2BA SWAP2 SWAP1 PUSH3 0x516 JUMP JUMPDEST SWAP2 POP PUSH3 0x1A3 JUMP JUMPDEST POP POP POP PUSH3 0x54E JUMP JUMPDEST PUSH32 0x4E487B7100000000000000000000000000000000000000000000000000000000 PUSH1 0x0 MSTORE PUSH1 0x32 PUSH1 0x4 MSTORE PUSH1 0x24 PUSH1 0x0 REVERT JUMPDEST PUSH1 0x0 DUP2 MLOAD SWAP1 POP SWAP2 SWAP1 POP JUMP JUMPDEST PUSH1 0x0 DUP2 SWAP1 POP SWAP3 SWAP2 POP POP JUMP JUMPDEST PUSH1 0x0 JUMPDEST DUP4 DUP2 LT ISZERO PUSH3 0x330 JUMPI DUP1 DUP3 ADD MLOAD DUP2 DUP5 ADD MSTORE PUSH1 0x20 DUP2 ADD SWAP1 POP PUSH3 0x313 JUMP JUMPDEST PUSH1 0x0 DUP5 DUP5 ADD MSTORE POP POP POP POP JUMP JUMPDEST PUSH1 0x0 PUSH3 0x349 DUP3 PUSH3 0x2FA JUMP JUMPDEST PUSH3 0x355 DUP2 DUP6 PUSH3 0x305 JUMP JUMPDEST SWAP4 POP PUSH3 0x367 DUP2 DUP6 PUSH1 0x20 DUP7 ADD PUSH3 0x310 JUMP JUMPDEST DUP1 DUP5 ADD SWAP2 POP POP SWAP3 SWAP2 POP POP JUMP JUMPDEST PUSH1 0x0 PUSH3 0x381 DUP3 DUP5 PUSH3 0x33C JUMP JUMPDEST SWAP2 POP DUP2 SWAP1 POP SWAP3 SWAP2 POP POP JUMP JUMPDEST PUSH32 0x4E487B7100000000000000000000000000000000000000000000000000000000 PUSH1 0x0 MSTORE PUSH1 0x11 PUSH1 0x4 MSTORE PUSH1 0x24 PUSH1 0x0 REVERT JUMPDEST PUSH1 0x0 DUP2 SWAP1 POP SWAP2 SWAP1 POP JUMP JUMPDEST PUSH1 0x0 PUSH3 0x3D2 DUP3 PUSH3 0x3BB JUMP JUMPDEST SWAP2 POP PUSH32 0xFFFFFFFFFFFFFFFFFFFFFFFFFFFFFFFFFFFFFFFFFFFFFFFFFFFFFFFFFFFFFFFF DUP3 SUB PUSH3 0x407 JUMPI PUSH3 0x406 PUSH3 0x38C JUMP JUMPDEST JUMPDEST PUSH1 0x1 DUP3 ADD SWAP1 POP SWAP2 SWAP1 POP JUMP JUMPDEST PUSH1 0x0 PUSH3 0x41F DUP3 PUSH3 0x3BB JUMP JUMPDEST SWAP2 POP PUSH3 0x42C DUP4 PUSH3 0x3BB JUMP JUMPDEST SWAP3 POP DUP3 DUP3 SUB SWAP1 POP DUP2 DUP2 GT ISZERO PUSH3 0x447 JUMPI PUSH3 0x446 PUSH3 0x38C JUMP JUMPDEST JUMPDEST SWAP3 SWAP2 POP POP JUMP JUMPDEST PUSH1 0x0 PUSH3 0x45A DUP3 PUSH3 0x3BB JUMP JUMPDEST SWAP2 POP PUSH3 0x467 DUP4 PUSH3 0x3BB JUMP JUMPDEST SWAP3 POP DUP3 DUP3 ADD SWAP1 POP DUP1 DUP3 GT ISZERO PUSH3 0x482 JUMPI PUSH3 0x481 PUSH3 0x38C JUMP JUMPDEST JUMPDEST SWAP3 SWAP2 POP POP JUMP JUMPDEST PUSH1 0x0 DUP2 SWAP1 POP SWAP2 SWAP1 POP JUMP JUMPDEST PUSH1 0x0 DUP2 SWAP1 POP SWAP2 SWAP1 POP JUMP JUMPDEST PUSH3 0x4B1 PUSH3 0x4AB DUP3 PUSH3 0x488 JUMP JUMPDEST PUSH3 0x492 JUMP JUMPDEST DUP3 MSTORE POP POP JUMP JUMPDEST PUSH1 0x0 PUSH3 0x4C5 DUP3 DUP6 PUSH3 0x49C JUMP JUMPDEST PUSH1 0x20 DUP3 ADD SWAP2 POP PUSH3 0x4D7 DUP3 DUP5 PUSH3 0x49C JUMP JUMPDEST PUSH1 0x20 DUP3 ADD SWAP2 POP DUP2 SWAP1 POP SWAP4 SWAP3 POP POP POP JUMP JUMPDEST PUSH32 0x4E487B7100000000000000000000000000000000000000000000000000000000 PUSH1 0x0 MSTORE PUSH1 0x12 PUSH1 0x4 MSTORE PUSH1 0x24 PUSH1 0x0 REVERT JUMPDEST PUSH1 0x0 PUSH3 0x523 DUP3 PUSH3 0x3BB JUMP JUMPDEST SWAP2 POP PUSH3 0x530 DUP4 PUSH3 0x3BB JUMP JUMPDEST SWAP3 POP DUP3 PUSH3 0x543 JUMPI PUSH3 0x542 PUSH3 0x4E7 JUMP JUMPDEST JUMPDEST DUP3 DUP3 DIV SWAP1 POP SWAP3 SWAP2 POP POP JUMP JUMPDEST PUSH2 0x967 DUP1 PUSH3 0x55E PUSH1 0x0 CODECOPY PUSH1 0x0 RETURN INVALID PUSH1 0x80 PUSH1 0x40 MSTORE CALLVALUE DUP1 ISZERO PUSH2 0x10 JUMPI PUSH1 0x0 DUP1 REVERT JUMPDEST POP PUSH1 0x4 CALLDATASIZE LT PUSH2 0x57 JUMPI PUSH1 0x0 CALLDATALOAD PUSH1 0xE0 SHR DUP1 PUSH4 0x21FB335C EQ PUSH2 0x5C JUMPI DUP1 PUSH4 0x29F74AAF EQ PUSH2 0x8C JUMPI DUP1 PUSH4 0x501895AE EQ PUSH2 0xBC JUMPI DUP1 PUSH4 0x5CA1E165 EQ PUSH2 0xEC JUMPI DUP1 PUSH4 0x7CC395E2 EQ PUSH2 0x10A JUMPI JUMPDEST PUSH1 0x0 DUP1 REVERT JUMPDEST PUSH2 0x76 PUSH1 0x4 DUP1 CALLDATASIZE SUB DUP2 ADD SWAP1 PUSH2 0x71 SWAP2 SWAP1 PUSH2 0x4A3 JUMP JUMPDEST PUSH2 0x13A JUMP JUMPDEST PUSH1 0x40 MLOAD PUSH2 0x83 SWAP2 SWAP1 PUSH2 0x541 JUMP JUMPDEST PUSH1 0x40 MLOAD DUP1 SWAP2 SUB SWAP1 RETURN JUMPDEST PUSH2 0xA6 PUSH1 0x4 DUP1 CALLDATASIZE SUB DUP2 ADD SWAP1 PUSH2 0xA1 SWAP2 SWAP1 PUSH2 0x611 JUMP JUMPDEST PUSH2 0x20D JUMP JUMPDEST PUSH1 0x40 MLOAD PUSH2 0xB3 SWAP2 SWAP1 PUSH2 0x669 JUMP JUMPDEST PUSH1 0x40 MLOAD DUP1 SWAP2 SUB SWAP1 RETURN JUMPDEST PUSH2 0xD6 PUSH1 0x4 DUP1 CALLDATASIZE SUB DUP2 ADD SWAP1 PUSH2 0xD1 SWAP2 SWAP1 PUSH2 0x684 JUMP JUMPDEST PUSH2 0x23D JUMP JUMPDEST PUSH1 0x40 MLOAD PUSH2 0xE3 SWAP2 SWAP1 PUSH2 0x669 JUMP JUMPDEST PUSH1 0x40 MLOAD DUP1 SWAP2 SUB SWAP1 RETURN JUMPDEST PUSH2 0xF4 PUSH2 0x261 JUMP JUMPDEST PUSH1 0x40 MLOAD PUSH2 0x101 SWAP2 SWAP1 PUSH2 0x669 JUMP JUMPDEST PUSH1 0x40 MLOAD DUP1 SWAP2 SUB SWAP1 RETURN JUMPDEST PUSH2 0x124 PUSH1 0x4 DUP1 CALLDATASIZE SUB DUP2 ADD SWAP1 PUSH2 0x11F SWAP2 SWAP1 PUSH2 0x6B1 JUMP JUMPDEST PUSH2 0x297 JUMP JUMPDEST PUSH1 0x40 MLOAD PUSH2 0x131 SWAP2 SWAP1 PUSH2 0x669 JUMP JUMPDEST PUSH1 0x40 MLOAD DUP1 SWAP2 SUB SWAP1 RETURN JUMPDEST PUSH1 0x0 DUP1 DUP4 SWAP1 POP PUSH1 0x0 JUMPDEST DUP7 MLOAD DUP2 LT ISZERO PUSH2 0x1FE JUMPI PUSH1 0x0 DUP8 DUP3 DUP2 MLOAD DUP2 LT PUSH2 0x161 JUMPI PUSH2 0x160 PUSH2 0x6F1 JUMP JUMPDEST JUMPDEST PUSH1 0x20 MUL PUSH1 0x20 ADD ADD MLOAD SWAP1 POP PUSH1 0x0 PUSH1 0x2 DUP7 PUSH2 0x17A SWAP2 SWAP1 PUSH2 0x74F JUMP JUMPDEST SUB PUSH2 0x1AF JUMPI DUP3 DUP2 PUSH1 0x40 MLOAD PUSH1 0x20 ADD PUSH2 0x192 SWAP3 SWAP2 SWAP1 PUSH2 0x7A1 JUMP JUMPDEST PUSH1 0x40 MLOAD PUSH1 0x20 DUP2 DUP4 SUB SUB DUP2 MSTORE SWAP1 PUSH1 0x40 MSTORE DUP1 MLOAD SWAP1 PUSH1 0x20 ADD KECCAK256 SWAP3 POP PUSH2 0x1DB JUMP JUMPDEST DUP1 DUP4 PUSH1 0x40 MLOAD PUSH1 0x20 ADD PUSH2 0x1C2 SWAP3 SWAP2 SWAP1 PUSH2 0x7A1 JUMP JUMPDEST PUSH1 0x40 MLOAD PUSH1 0x20 DUP2 DUP4 SUB SUB DUP2 MSTORE SWAP1 PUSH1 0x40 MSTORE DUP1 MLOAD SWAP1 PUSH1 0x20 ADD KECCAK256 SWAP3 POP JUMPDEST PUSH1 0x2 DUP6 PUSH2 0x1E8 SWAP2 SWAP1 PUSH2 0x7FC JUMP JUMPDEST SWAP5 POP POP DUP1 DUP1 PUSH2 0x1F6 SWAP1 PUSH2 0x82D JUMP JUMPDEST SWAP2 POP POP PUSH2 0x143 JUMP JUMPDEST POP DUP5 DUP2 EQ SWAP2 POP POP SWAP5 SWAP4 POP POP POP POP JUMP JUMPDEST PUSH1 0x0 DUP2 PUSH1 0x40 MLOAD PUSH1 0x20 ADD PUSH2 0x220 SWAP2 SWAP1 PUSH2 0x8E6 JUMP JUMPDEST PUSH1 0x40 MLOAD PUSH1 0x20 DUP2 DUP4 SUB SUB DUP2 MSTORE SWAP1 PUSH1 0x40 MSTORE DUP1 MLOAD SWAP1 PUSH1 0x20 ADD KECCAK256 SWAP1 POP SWAP2 SWAP1 POP JUMP JUMPDEST PUSH1 0x0 DUP2 DUP2 SLOAD DUP2 LT PUSH2 0x24D JUMPI PUSH1 0x0 DUP1 REVERT JUMPDEST SWAP1 PUSH1 0x0 MSTORE PUSH1 0x20 PUSH1 0x0 KECCAK256 ADD PUSH1 0x0 SWAP2 POP SWAP1 POP SLOAD DUP2 JUMP JUMPDEST PUSH1 0x0 DUP1 PUSH1 0x1 PUSH1 0x0 DUP1 SLOAD SWAP1 POP PUSH2 0x276 SWAP2 SWAP1 PUSH2 0x8FD JUMP JUMPDEST DUP2 SLOAD DUP2 LT PUSH2 0x287 JUMPI PUSH2 0x286 PUSH2 0x6F1 JUMP JUMPDEST JUMPDEST SWAP1 PUSH1 0x0 MSTORE PUSH1 0x20 PUSH1 0x0 KECCAK256 ADD SLOAD SWAP1 POP SWAP1 JUMP JUMPDEST PUSH1 0x0 DUP3 DUP3 PUSH1 0x40 MLOAD PUSH1 0x20 ADD PUSH2 0x2AC SWAP3 SWAP2 SWAP1 PUSH2 0x7A1 JUMP JUMPDEST PUSH1 0x40 MLOAD PUSH1 0x20 DUP2 DUP4 SUB SUB DUP2 MSTORE SWAP1 PUSH1 0x40 MSTORE DUP1 MLOAD SWAP1 PUSH1 0x20 ADD KECCAK256 SWAP1 POP SWAP3 SWAP2 POP POP JUMP JUMPDEST PUSH1 0x0 PUSH1 0x40 MLOAD SWAP1 POP SWAP1 JUMP JUMPDEST PUSH1 0x0 DUP1 REVERT JUMPDEST PUSH1 0x0 DUP1 REVERT JUMPDEST PUSH1 0x0 DUP1 REVERT JUMPDEST PUSH1 0x0 PUSH1 0x1F NOT PUSH1 0x1F DUP4 ADD AND SWAP1 POP SWAP2 SWAP1 POP JUMP JUMPDEST PUSH32 0x4E487B7100000000000000000000000000000000000000000000000000000000 PUSH1 0x0 MSTORE PUSH1 0x41 PUSH1 0x4 MSTORE PUSH1 0x24 PUSH1 0x0 REVERT JUMPDEST PUSH2 0x32C DUP3 PUSH2 0x2E3 JUMP JUMPDEST DUP2 ADD DUP2 DUP2 LT PUSH8 0xFFFFFFFFFFFFFFFF DUP3 GT OR ISZERO PUSH2 0x34B JUMPI PUSH2 0x34A PUSH2 0x2F4 JUMP JUMPDEST JUMPDEST DUP1 PUSH1 0x40 MSTORE POP POP POP JUMP JUMPDEST PUSH1 0x0 PUSH2 0x35E PUSH2 0x2CA JUMP JUMPDEST SWAP1 POP PUSH2 0x36A DUP3 DUP3 PUSH2 0x323 JUMP JUMPDEST SWAP2 SWAP1 POP JUMP JUMPDEST PUSH1 0x0 PUSH8 0xFFFFFFFFFFFFFFFF DUP3 GT ISZERO PUSH2 0x38A JUMPI PUSH2 0x389 PUSH2 0x2F4 JUMP JUMPDEST JUMPDEST PUSH1 0x20 DUP3 MUL SWAP1 POP PUSH1 0x20 DUP2 ADD SWAP1 POP SWAP2 SWAP1 POP JUMP JUMPDEST PUSH1 0x0 DUP1 REVERT JUMPDEST PUSH1 0x0 DUP2 SWAP1 POP SWAP2 SWAP1 POP JUMP JUMPDEST PUSH2 0x3B3 DUP2 PUSH2 0x3A0 JUMP JUMPDEST DUP2 EQ PUSH2 0x3BE JUMPI PUSH1 0x0 DUP1 REVERT JUMPDEST POP JUMP JUMPDEST PUSH1 0x0 DUP2 CALLDATALOAD SWAP1 POP PUSH2 0x3D0 DUP2 PUSH2 0x3AA JUMP JUMPDEST SWAP3 SWAP2 POP POP JUMP JUMPDEST PUSH1 0x0 PUSH2 0x3E9 PUSH2 0x3E4 DUP5 PUSH2 0x36F JUMP JUMPDEST PUSH2 0x354 JUMP JUMPDEST SWAP1 POP DUP1 DUP4 DUP3 MSTORE PUSH1 0x20 DUP3 ADD SWAP1 POP PUSH1 0x20 DUP5 MUL DUP4 ADD DUP6 DUP2 GT ISZERO PUSH2 0x40C JUMPI PUSH2 0x40B PUSH2 0x39B JUMP JUMPDEST JUMPDEST DUP4 JUMPDEST DUP2 DUP2 LT ISZERO PUSH2 0x435 JUMPI DUP1 PUSH2 0x421 DUP9 DUP3 PUSH2 0x3C1 JUMP JUMPDEST DUP5 MSTORE PUSH1 0x20 DUP5 ADD SWAP4 POP POP PUSH1 0x20 DUP2 ADD SWAP1 POP PUSH2 0x40E JUMP JUMPDEST POP POP POP SWAP4 SWAP3 POP POP POP JUMP JUMPDEST PUSH1 0x0 DUP3 PUSH1 0x1F DUP4 ADD SLT PUSH2 0x454 JUMPI PUSH2 0x453 PUSH2 0x2DE JUMP JUMPDEST JUMPDEST DUP2 CALLDATALOAD PUSH2 0x464 DUP5 DUP3 PUSH1 0x20 DUP7 ADD PUSH2 0x3D6 JUMP JUMPDEST SWAP2 POP POP SWAP3 SWAP2 POP POP JUMP JUMPDEST PUSH1 0x0 DUP2 SWAP1 POP SWAP2 SWAP1 POP JUMP JUMPDEST PUSH2 0x480 DUP2 PUSH2 0x46D JUMP JUMPDEST DUP2 EQ PUSH2 0x48B JUMPI PUSH1 0x0 DUP1 REVERT JUMPDEST POP JUMP JUMPDEST PUSH1 0x0 DUP2 CALLDATALOAD SWAP1 POP PUSH2 0x49D DUP2 PUSH2 0x477 JUMP JUMPDEST SWAP3 SWAP2 POP POP JUMP JUMPDEST PUSH1 0x0 DUP1 PUSH1 0x0 DUP1 PUSH1 0x80 DUP6 DUP8 SUB SLT ISZERO PUSH2 0x4BD JUMPI PUSH2 0x4BC PUSH2 0x2D4 JUMP JUMPDEST JUMPDEST PUSH1 0x0 DUP6 ADD CALLDATALOAD PUSH8 0xFFFFFFFFFFFFFFFF DUP2 GT ISZERO PUSH2 0x4DB JUMPI PUSH2 0x4DA PUSH2 0x2D9 JUMP JUMPDEST JUMPDEST PUSH2 0x4E7 DUP8 DUP3 DUP9 ADD PUSH2 0x43F JUMP JUMPDEST SWAP5 POP POP PUSH1 0x20 PUSH2 0x4F8 DUP8 DUP3 DUP9 ADD PUSH2 0x3C1 JUMP JUMPDEST SWAP4 POP POP PUSH1 0x40 PUSH2 0x509 DUP8 DUP3 DUP9 ADD PUSH2 0x3C1 JUMP JUMPDEST SWAP3 POP POP PUSH1 0x60 PUSH2 0x51A DUP8 DUP3 DUP9 ADD PUSH2 0x48E JUMP JUMPDEST SWAP2 POP POP SWAP3 SWAP6 SWAP2 SWAP5 POP SWAP3 POP JUMP JUMPDEST PUSH1 0x0 DUP2 ISZERO ISZERO SWAP1 POP SWAP2 SWAP1 POP JUMP JUMPDEST PUSH2 0x53B DUP2 PUSH2 0x526 JUMP JUMPDEST DUP3 MSTORE POP POP JUMP JUMPDEST PUSH1 0x0 PUSH1 0x20 DUP3 ADD SWAP1 POP PUSH2 0x556 PUSH1 0x0 DUP4 ADD DUP5 PUSH2 0x532 JUMP JUMPDEST SWAP3 SWAP2 POP POP JUMP JUMPDEST PUSH1 0x0 DUP1 REVERT JUMPDEST PUSH1 0x0 PUSH8 0xFFFFFFFFFFFFFFFF DUP3 GT ISZERO PUSH2 0x57C JUMPI PUSH2 0x57B PUSH2 0x2F4 JUMP JUMPDEST JUMPDEST PUSH2 0x585 DUP3 PUSH2 0x2E3 JUMP JUMPDEST SWAP1 POP PUSH1 0x20 DUP2 ADD SWAP1 POP SWAP2 SWAP1 POP JUMP JUMPDEST DUP3 DUP2 DUP4 CALLDATACOPY PUSH1 0x0 DUP4 DUP4 ADD MSTORE POP POP POP JUMP JUMPDEST PUSH1 0x0 PUSH2 0x5B4 PUSH2 0x5AF DUP5 PUSH2 0x561 JUMP JUMPDEST PUSH2 0x354 JUMP JUMPDEST SWAP1 POP DUP3 DUP2 MSTORE PUSH1 0x20 DUP2 ADD DUP5 DUP5 DUP5 ADD GT ISZERO PUSH2 0x5D0 JUMPI PUSH2 0x5CF PUSH2 0x55C JUMP JUMPDEST JUMPDEST PUSH2 0x5DB DUP5 DUP3 DUP6 PUSH2 0x592 JUMP JUMPDEST POP SWAP4 SWAP3 POP POP POP JUMP JUMPDEST PUSH1 0x0 DUP3 PUSH1 0x1F DUP4 ADD SLT PUSH2 0x5F8 JUMPI PUSH2 0x5F7 PUSH2 0x2DE JUMP JUMPDEST JUMPDEST DUP2 CALLDATALOAD PUSH2 0x608 DUP5 DUP3 PUSH1 0x20 DUP7 ADD PUSH2 0x5A1 JUMP JUMPDEST SWAP2 POP POP SWAP3 SWAP2 POP POP JUMP JUMPDEST PUSH1 0x0 PUSH1 0x20 DUP3 DUP5 SUB SLT ISZERO PUSH2 0x627 JUMPI PUSH2 0x626 PUSH2 0x2D4 JUMP JUMPDEST JUMPDEST PUSH1 0x0 DUP3 ADD CALLDATALOAD PUSH8 0xFFFFFFFFFFFFFFFF DUP2 GT ISZERO PUSH2 0x645 JUMPI PUSH2 0x644 PUSH2 0x2D9 JUMP JUMPDEST JUMPDEST PUSH2 0x651 DUP5 DUP3 DUP6 ADD PUSH2 0x5E3 JUMP JUMPDEST SWAP2 POP POP SWAP3 SWAP2 POP POP JUMP JUMPDEST PUSH2 0x663 DUP2 PUSH2 0x3A0 JUMP JUMPDEST DUP3 MSTORE POP POP JUMP JUMPDEST PUSH1 0x0 PUSH1 0x20 DUP3 ADD SWAP1 POP PUSH2 0x67E PUSH1 0x0 DUP4 ADD DUP5 PUSH2 0x65A JUMP JUMPDEST SWAP3 SWAP2 POP POP JUMP JUMPDEST PUSH1 0x0 PUSH1 0x20 DUP3 DUP5 SUB SLT ISZERO PUSH2 0x69A JUMPI PUSH2 0x699 PUSH2 0x2D4 JUMP JUMPDEST JUMPDEST PUSH1 0x0 PUSH2 0x6A8 DUP5 DUP3 DUP6 ADD PUSH2 0x48E JUMP JUMPDEST SWAP2 POP POP SWAP3 SWAP2 POP POP JUMP JUMPDEST PUSH1 0x0 DUP1 PUSH1 0x40 DUP4 DUP6 SUB SLT ISZERO PUSH2 0x6C8 JUMPI PUSH2 0x6C7 PUSH2 0x2D4 JUMP JUMPDEST JUMPDEST PUSH1 0x0 PUSH2 0x6D6 DUP6 DUP3 DUP7 ADD PUSH2 0x3C1 JUMP JUMPDEST SWAP3 POP POP PUSH1 0x20 PUSH2 0x6E7 DUP6 DUP3 DUP7 ADD PUSH2 0x3C1 JUMP JUMPDEST SWAP2 POP POP SWAP3 POP SWAP3 SWAP1 POP JUMP JUMPDEST PUSH32 0x4E487B7100000000000000000000000000000000000000000000000000000000 PUSH1 0x0 MSTORE PUSH1 0x32 PUSH1 0x4 MSTORE PUSH1 0x24 PUSH1 0x0 REVERT JUMPDEST PUSH32 0x4E487B7100000000000000000000000000000000000000000000000000000000 PUSH1 0x0 MSTORE PUSH1 0x12 PUSH1 0x4 MSTORE PUSH1 0x24 PUSH1 0x0 REVERT JUMPDEST PUSH1 0x0 PUSH2 0x75A DUP3 PUSH2 0x46D JUMP JUMPDEST SWAP2 POP PUSH2 0x765 DUP4 PUSH2 0x46D JUMP JUMPDEST SWAP3 POP DUP3 PUSH2 0x775 JUMPI PUSH2 0x774 PUSH2 0x720 JUMP JUMPDEST JUMPDEST DUP3 DUP3 MOD SWAP1 POP SWAP3 SWAP2 POP POP JUMP JUMPDEST PUSH1 0x0 DUP2 SWAP1 POP SWAP2 SWAP1 POP JUMP JUMPDEST PUSH2 0x79B PUSH2 0x796 DUP3 PUSH2 0x3A0 JUMP JUMPDEST PUSH2 0x780 JUMP JUMPDEST DUP3 MSTORE POP POP JUMP JUMPDEST PUSH1 0x0 PUSH2 0x7AD DUP3 DUP6 PUSH2 0x78A JUMP JUMPDEST PUSH1 0x20 DUP3 ADD SWAP2 POP PUSH2 0x7BD DUP3 DUP5 PUSH2 0x78A JUMP JUMPDEST PUSH1 0x20 DUP3 ADD SWAP2 POP DUP2 SWAP1 POP SWAP4 SWAP3 POP POP POP JUMP JUMPDEST PUSH32 0x4E487B7100000000000000000000000000000000000000000000000000000000 PUSH1 0x0 MSTORE PUSH1 0x11 PUSH1 0x4 MSTORE PUSH1 0x24 PUSH1 0x0 REVERT JUMPDEST PUSH1 0x0 PUSH2 0x807 DUP3 PUSH2 0x46D JUMP JUMPDEST SWAP2 POP PUSH2 0x812 DUP4 PUSH2 0x46D JUMP JUMPDEST SWAP3 POP DUP3 PUSH2 0x822 JUMPI PUSH2 0x821 PUSH2 0x720 JUMP JUMPDEST JUMPDEST DUP3 DUP3 DIV SWAP1 POP SWAP3 SWAP2 POP POP JUMP JUMPDEST PUSH1 0x0 PUSH2 0x838 DUP3 PUSH2 0x46D JUMP JUMPDEST SWAP2 POP PUSH32 0xFFFFFFFFFFFFFFFFFFFFFFFFFFFFFFFFFFFFFFFFFFFFFFFFFFFFFFFFFFFFFFFF DUP3 SUB PUSH2 0x86A JUMPI PUSH2 0x869 PUSH2 0x7CD JUMP JUMPDEST JUMPDEST PUSH1 0x1 DUP3 ADD SWAP1 POP SWAP2 SWAP1 POP JUMP JUMPDEST PUSH1 0x0 DUP2 MLOAD SWAP1 POP SWAP2 SWAP1 POP JUMP JUMPDEST PUSH1 0x0 DUP2 SWAP1 POP SWAP3 SWAP2 POP POP JUMP JUMPDEST PUSH1 0x0 JUMPDEST DUP4 DUP2 LT ISZERO PUSH2 0x8A9 JUMPI DUP1 DUP3 ADD MLOAD DUP2 DUP5 ADD MSTORE PUSH1 0x20 DUP2 ADD SWAP1 POP PUSH2 0x88E JUMP JUMPDEST PUSH1 0x0 DUP5 DUP5 ADD MSTORE POP POP POP POP JUMP JUMPDEST PUSH1 0x0 PUSH2 0x8C0 DUP3 PUSH2 0x875 JUMP JUMPDEST PUSH2 0x8CA DUP2 DUP6 PUSH2 0x880 JUMP JUMPDEST SWAP4 POP PUSH2 0x8DA DUP2 DUP6 PUSH1 0x20 DUP7 ADD PUSH2 0x88B JUMP JUMPDEST DUP1 DUP5 ADD SWAP2 POP POP SWAP3 SWAP2 POP POP JUMP JUMPDEST PUSH1 0x0 PUSH2 0x8F2 DUP3 DUP5 PUSH2 0x8B5 JUMP JUMPDEST SWAP2 POP DUP2 SWAP1 POP SWAP3 SWAP2 POP POP JUMP JUMPDEST PUSH1 0x0 PUSH2 0x908 DUP3 PUSH2 0x46D JUMP JUMPDEST SWAP2 POP PUSH2 0x913 DUP4 PUSH2 0x46D JUMP JUMPDEST SWAP3 POP DUP3 DUP3 SUB SWAP1 POP DUP2 DUP2 GT ISZERO PUSH2 0x92B JUMPI PUSH2 0x92A PUSH2 0x7CD JUMP JUMPDEST JUMPDEST SWAP3 SWAP2 POP POP JUMP INVALID LOG2 PUSH5 0x6970667358 0x22 SLT KECCAK256 0xC8 BLOCKHASH DUP15 PUSH5 0x711781C29 0xD8 DUP10 XOR CALLDATACOPY LOG2 POP 0xE0 ADDRESS AND 0xD1 MSIZE 0x4D DUP13 0xE2 0xA7 SWAP9 0xB3 0xD DUP8 0x4D SUB MOD SWAP10 PUSH5 0x736F6C6343 STOP ADDMOD SLT STOP CALLER "
				},
				"gasEstimates": {
					"creation": {
						"codeDepositCost": "481400",
						"executionCost": "infinite",
						"totalCost": "infinite"
					},
					"external": {
						"getRoot()": "infinite",
						"hashbytes32(bytes32,bytes32)": "infinite",
						"hashes(uint256)": "4904",
						"testfirst(string)": "infinite",
						"verify(bytes32[],bytes32,bytes32,uint256)": "infinite"
					}
				},
				"methodIdentifiers": {
					"getRoot()": "5ca1e165",
					"hashbytes32(bytes32,bytes32)": "7cc395e2",
					"hashes(uint256)": "501895ae",
					"testfirst(string)": "29f74aaf",
					"verify(bytes32[],bytes32,bytes32,uint256)": "21fb335c"
				}
			},
			"storageLayout": {
				"storage": [
					{
						"astId": 83,
						"contract": "merkletree.sol:TestMerkleProof",
						"label": "hashes",
						"offset": 0,
						"slot": "0",
						"type": "t_array(t_bytes32)dyn_storage"
					}
				],
				"types": {
					"t_array(t_bytes32)dyn_storage": {
						"base": "t_bytes32",
						"encoding": "dynamic_array",
						"label": "bytes32[]",
						"numberOfBytes": "32"
					},
					"t_bytes32": {
						"encoding": "inplace",
						"label": "bytes32",
						"numberOfBytes": "32"
					}
				}
			},
			"userdoc": {
				"kind": "user",
				"methods": {},
				"version": 1
			}
		}
	}
}