{
	"retest.sol": {
		"testMapping": {
			"abi": [
				{
					"inputs": [
						{
							"internalType": "uint256",
							"name": "",
							"type": "uint256"
						}
					],
					"name": "day",
					"outputs": [
						{
							"internalType": "uint256",
							"name": "",
							"type": "uint256"
						}
					],
					"stateMutability": "view",
					"type": "function"
				},
				{
					"inputs": [
						{
							"internalType": "uint256",
							"name": "_num",
							"type": "uint256"
						}
					],
					"name": "deleteNameOfIndex",
					"outputs": [],
					"stateMutability": "nonpayable",
					"type": "function"
				},
				{
					"inputs": [
						{
							"internalType": "uint256",
							"name": "",
							"type": "uint256"
						}
					],
					"name": "indexAndName",
					"outputs": [
						{
							"internalType": "string",
							"name": "",
							"type": "string"
						}
					],
					"stateMutability": "view",
					"type": "function"
				},
				{
					"inputs": [],
					"name": "popLast",
					"outputs": [],
					"stateMutability": "nonpayable",
					"type": "function"
				},
				{
					"inputs": [
						{
							"internalType": "uint256",
							"name": "_num",
							"type": "uint256"
						}
					],
					"name": "push",
					"outputs": [],
					"stateMutability": "nonpayable",
					"type": "function"
				},
				{
					"inputs": [
						{
							"internalType": "uint256",
							"name": "_num",
							"type": "uint256"
						},
						{
							"internalType": "string",
							"name": "_name",
							"type": "string"
						}
					],
					"name": "set",
					"outputs": [],
					"stateMutability": "nonpayable",
					"type": "function"
				}
			],
			"devdoc": {
				"kind": "dev",
				"methods": {},
				"version": 1
			},
			"evm": {
				"assembly": "    /* \"retest.sol\":59:482  contract testMapping{... */\n  mstore(0x40, 0x80)\n  callvalue\n  dup1\n  iszero\n  tag_1\n  jumpi\n  0x00\n  dup1\n  revert\ntag_1:\n  pop\n  dataSize(sub_0)\n  dup1\n  dataOffset(sub_0)\n  0x00\n  codecopy\n  0x00\n  return\nstop\n\nsub_0: assembly {\n        /* \"retest.sol\":59:482  contract testMapping{... */\n      mstore(0x40, 0x80)\n      callvalue\n      dup1\n      iszero\n      tag_1\n      jumpi\n      0x00\n      dup1\n      revert\n    tag_1:\n      pop\n      jumpi(tag_2, lt(calldatasize, 0x04))\n      shr(0xe0, calldataload(0x00))\n      dup1\n      0x2a2e6cb7\n      eq\n      tag_3\n      jumpi\n      dup1\n      0x506c16ee\n      eq\n      tag_4\n      jumpi\n      dup1\n      0x64371977\n      eq\n      tag_5\n      jumpi\n      dup1\n      0x8ff12b6d\n      eq\n      tag_6\n      jumpi\n      dup1\n      0x959ac484\n      eq\n      tag_7\n      jumpi\n      dup1\n      0xff7b791d\n      eq\n      tag_8\n      jumpi\n    tag_2:\n      0x00\n      dup1\n      revert\n        /* \"retest.sol\":85:128  mapping(uint => string) public indexAndName */\n    tag_3:\n      tag_9\n      0x04\n      dup1\n      calldatasize\n      sub\n      dup2\n      add\n      swap1\n      tag_10\n      swap2\n      swap1\n      tag_11\n      jump\t// in\n    tag_10:\n      tag_12\n      jump\t// in\n    tag_9:\n      mload(0x40)\n      tag_13\n      swap2\n      swap1\n      tag_14\n      jump\t// in\n    tag_13:\n      mload(0x40)\n      dup1\n      swap2\n      sub\n      swap1\n      return\n        /* \"retest.sol\":427:479  function popLast() public {... */\n    tag_4:\n      tag_15\n      tag_16\n      jump\t// in\n    tag_15:\n      stop\n        /* \"retest.sol\":158:255  function set(uint _num, string calldata _name) public {... */\n    tag_5:\n      tag_17\n      0x04\n      dup1\n      calldatasize\n      sub\n      dup2\n      add\n      swap1\n      tag_18\n      swap2\n      swap1\n      tag_19\n      jump\t// in\n    tag_18:\n      tag_20\n      jump\t// in\n    tag_17:\n      stop\n        /* \"retest.sol\":135:152  uint[] public day */\n    tag_6:\n      tag_21\n      0x04\n      dup1\n      calldatasize\n      sub\n      dup2\n      add\n      swap1\n      tag_22\n      swap2\n      swap1\n      tag_11\n      jump\t// in\n    tag_22:\n      tag_23\n      jump\t// in\n    tag_21:\n      mload(0x40)\n      tag_24\n      swap2\n      swap1\n      tag_25\n      jump\t// in\n    tag_24:\n      mload(0x40)\n      dup1\n      swap2\n      sub\n      swap1\n      return\n        /* \"retest.sol\":354:417  function push(uint _num) public {... */\n    tag_7:\n      tag_26\n      0x04\n      dup1\n      calldatasize\n      sub\n      dup2\n      add\n      swap1\n      tag_27\n      swap2\n      swap1\n      tag_11\n      jump\t// in\n    tag_27:\n      tag_28\n      jump\t// in\n    tag_26:\n      stop\n        /* \"retest.sol\":261:348  function deleteNameOfIndex(uint _num) public {... */\n    tag_8:\n      tag_29\n      0x04\n      dup1\n      calldatasize\n      sub\n      dup2\n      add\n      swap1\n      tag_30\n      swap2\n      swap1\n      tag_11\n      jump\t// in\n    tag_30:\n      tag_31\n      jump\t// in\n    tag_29:\n      stop\n        /* \"retest.sol\":85:128  mapping(uint => string) public indexAndName */\n    tag_12:\n      mstore(0x20, 0x00)\n      dup1\n      0x00\n      mstore\n      keccak256(0x00, 0x40)\n      0x00\n      swap2\n      pop\n      swap1\n      pop\n      dup1\n      sload\n      tag_32\n      swap1\n      tag_33\n      jump\t// in\n    tag_32:\n      dup1\n      0x1f\n      add\n      0x20\n      dup1\n      swap2\n      div\n      mul\n      0x20\n      add\n      mload(0x40)\n      swap1\n      dup2\n      add\n      0x40\n      mstore\n      dup1\n      swap3\n      swap2\n      swap1\n      dup2\n      dup2\n      mstore\n      0x20\n      add\n      dup3\n      dup1\n      sload\n      tag_34\n      swap1\n      tag_33\n      jump\t// in\n    tag_34:\n      dup1\n      iszero\n      tag_35\n      jumpi\n      dup1\n      0x1f\n      lt\n      tag_36\n      jumpi\n      0x0100\n      dup1\n      dup4\n      sload\n      div\n      mul\n      dup4\n      mstore\n      swap2\n      0x20\n      add\n      swap2\n      jump(tag_35)\n    tag_36:\n      dup3\n      add\n      swap2\n      swap1\n      0x00\n      mstore\n      keccak256(0x00, 0x20)\n      swap1\n    tag_37:\n      dup2\n      sload\n      dup2\n      mstore\n      swap1\n      0x01\n      add\n      swap1\n      0x20\n      add\n      dup1\n      dup4\n      gt\n      tag_37\n      jumpi\n      dup3\n      swap1\n      sub\n      0x1f\n      and\n      dup3\n      add\n      swap2\n    tag_35:\n      pop\n      pop\n      pop\n      pop\n      pop\n      dup2\n      jump\t// out\n        /* \"retest.sol\":427:479  function popLast() public {... */\n    tag_16:\n        /* \"retest.sol\":463:466  day */\n      0x01\n        /* \"retest.sol\":463:472  day.pop() */\n      dup1\n      sload\n      dup1\n      tag_39\n      jumpi\n      tag_40\n      tag_41\n      jump\t// in\n    tag_40:\n    tag_39:\n      0x01\n      swap1\n      sub\n      dup2\n      dup2\n      swap1\n      0x00\n      mstore\n      keccak256(0x00, 0x20)\n      add\n      0x00\n      swap1\n      sstore\n      swap1\n      sstore\n        /* \"retest.sol\":427:479  function popLast() public {... */\n      jump\t// out\n        /* \"retest.sol\":158:255  function set(uint _num, string calldata _name) public {... */\n    tag_20:\n        /* \"retest.sol\":243:248  _name */\n      dup2\n      dup2\n        /* \"retest.sol\":222:234  indexAndName */\n      0x00\n        /* \"retest.sol\":222:240  indexAndName[_num] */\n      dup1\n        /* \"retest.sol\":235:239  _num */\n      dup7\n        /* \"retest.sol\":222:240  indexAndName[_num] */\n      dup2\n      mstore\n      0x20\n      add\n      swap1\n      dup2\n      mstore\n      0x20\n      add\n      0x00\n      keccak256\n        /* \"retest.sol\":222:248  indexAndName[_num] = _name */\n      swap2\n      dup3\n      tag_44\n      swap3\n      swap2\n      swap1\n      tag_45\n      jump\t// in\n    tag_44:\n      pop\n        /* \"retest.sol\":158:255  function set(uint _num, string calldata _name) public {... */\n      pop\n      pop\n      pop\n      jump\t// out\n        /* \"retest.sol\":135:152  uint[] public day */\n    tag_23:\n      0x01\n      dup2\n      dup2\n      sload\n      dup2\n      lt\n      tag_46\n      jumpi\n      0x00\n      dup1\n      revert\n    tag_46:\n      swap1\n      0x00\n      mstore\n      keccak256(0x00, 0x20)\n      add\n      0x00\n      swap2\n      pop\n      swap1\n      pop\n      sload\n      dup2\n      jump\t// out\n        /* \"retest.sol\":354:417  function push(uint _num) public {... */\n    tag_28:\n        /* \"retest.sol\":396:399  day */\n      0x01\n        /* \"retest.sol\":405:409  _num */\n      dup2\n        /* \"retest.sol\":396:410  day.push(_num) */\n      swap1\n      dup1\n      0x01\n      dup2\n      sload\n      add\n      dup1\n      dup3\n      sstore\n      dup1\n      swap2\n      pop\n      pop\n      0x01\n      swap1\n      sub\n      swap1\n      0x00\n      mstore\n      keccak256(0x00, 0x20)\n      add\n      0x00\n      swap1\n      swap2\n      swap1\n      swap2\n      swap1\n      swap2\n      pop\n      sstore\n        /* \"retest.sol\":354:417  function push(uint _num) public {... */\n      pop\n      jump\t// out\n        /* \"retest.sol\":261:348  function deleteNameOfIndex(uint _num) public {... */\n    tag_31:\n        /* \"retest.sol\":323:335  indexAndName */\n      0x00\n        /* \"retest.sol\":323:341  indexAndName[_num] */\n      dup1\n        /* \"retest.sol\":336:340  _num */\n      dup3\n        /* \"retest.sol\":323:341  indexAndName[_num] */\n      dup2\n      mstore\n      0x20\n      add\n      swap1\n      dup2\n      mstore\n      0x20\n      add\n      0x00\n      keccak256\n      0x00\n        /* \"retest.sol\":316:341  delete indexAndName[_num] */\n      tag_51\n      swap2\n      swap1\n      tag_52\n      jump\t// in\n    tag_51:\n        /* \"retest.sol\":261:348  function deleteNameOfIndex(uint _num) public {... */\n      pop\n      jump\t// out\n    tag_52:\n      pop\n      dup1\n      sload\n      tag_53\n      swap1\n      tag_33\n      jump\t// in\n    tag_53:\n      0x00\n      dup3\n      sstore\n      dup1\n      0x1f\n      lt\n      tag_55\n      jumpi\n      pop\n      jump(tag_54)\n    tag_55:\n      0x1f\n      add\n      0x20\n      swap1\n      div\n      swap1\n      0x00\n      mstore\n      keccak256(0x00, 0x20)\n      swap1\n      dup2\n      add\n      swap1\n      tag_56\n      swap2\n      swap1\n      tag_57\n      jump\t// in\n    tag_56:\n    tag_54:\n      pop\n      jump\t// out\n    tag_57:\n    tag_58:\n      dup1\n      dup3\n      gt\n      iszero\n      tag_59\n      jumpi\n      0x00\n      dup2\n      0x00\n      swap1\n      sstore\n      pop\n      0x01\n      add\n      jump(tag_58)\n    tag_59:\n      pop\n      swap1\n      jump\t// out\n        /* \"#utility.yul\":88:205   */\n    tag_61:\n        /* \"#utility.yul\":197:198   */\n      0x00\n        /* \"#utility.yul\":194:195   */\n      dup1\n        /* \"#utility.yul\":187:199   */\n      revert\n        /* \"#utility.yul\":211:328   */\n    tag_62:\n        /* \"#utility.yul\":320:321   */\n      0x00\n        /* \"#utility.yul\":317:318   */\n      dup1\n        /* \"#utility.yul\":310:322   */\n      revert\n        /* \"#utility.yul\":334:411   */\n    tag_63:\n        /* \"#utility.yul\":371:378   */\n      0x00\n        /* \"#utility.yul\":400:405   */\n      dup2\n        /* \"#utility.yul\":389:405   */\n      swap1\n      pop\n        /* \"#utility.yul\":334:411   */\n      swap2\n      swap1\n      pop\n      jump\t// out\n        /* \"#utility.yul\":417:539   */\n    tag_64:\n        /* \"#utility.yul\":490:514   */\n      tag_100\n        /* \"#utility.yul\":508:513   */\n      dup2\n        /* \"#utility.yul\":490:514   */\n      tag_63\n      jump\t// in\n    tag_100:\n        /* \"#utility.yul\":483:488   */\n      dup2\n        /* \"#utility.yul\":480:515   */\n      eq\n        /* \"#utility.yul\":470:533   */\n      tag_101\n      jumpi\n        /* \"#utility.yul\":529:530   */\n      0x00\n        /* \"#utility.yul\":526:527   */\n      dup1\n        /* \"#utility.yul\":519:531   */\n      revert\n        /* \"#utility.yul\":470:533   */\n    tag_101:\n        /* \"#utility.yul\":417:539   */\n      pop\n      jump\t// out\n        /* \"#utility.yul\":545:684   */\n    tag_65:\n        /* \"#utility.yul\":591:596   */\n      0x00\n        /* \"#utility.yul\":629:635   */\n      dup2\n        /* \"#utility.yul\":616:636   */\n      calldataload\n        /* \"#utility.yul\":607:636   */\n      swap1\n      pop\n        /* \"#utility.yul\":645:678   */\n      tag_103\n        /* \"#utility.yul\":672:677   */\n      dup2\n        /* \"#utility.yul\":645:678   */\n      tag_64\n      jump\t// in\n    tag_103:\n        /* \"#utility.yul\":545:684   */\n      swap3\n      swap2\n      pop\n      pop\n      jump\t// out\n        /* \"#utility.yul\":690:1019   */\n    tag_11:\n        /* \"#utility.yul\":749:755   */\n      0x00\n        /* \"#utility.yul\":798:800   */\n      0x20\n        /* \"#utility.yul\":786:795   */\n      dup3\n        /* \"#utility.yul\":777:784   */\n      dup5\n        /* \"#utility.yul\":773:796   */\n      sub\n        /* \"#utility.yul\":769:801   */\n      slt\n        /* \"#utility.yul\":766:885   */\n      iszero\n      tag_105\n      jumpi\n        /* \"#utility.yul\":804:883   */\n      tag_106\n      tag_61\n      jump\t// in\n    tag_106:\n        /* \"#utility.yul\":766:885   */\n    tag_105:\n        /* \"#utility.yul\":924:925   */\n      0x00\n        /* \"#utility.yul\":949:1002   */\n      tag_107\n        /* \"#utility.yul\":994:1001   */\n      dup5\n        /* \"#utility.yul\":985:991   */\n      dup3\n        /* \"#utility.yul\":974:983   */\n      dup6\n        /* \"#utility.yul\":970:992   */\n      add\n        /* \"#utility.yul\":949:1002   */\n      tag_65\n      jump\t// in\n    tag_107:\n        /* \"#utility.yul\":939:1002   */\n      swap2\n      pop\n        /* \"#utility.yul\":895:1012   */\n      pop\n        /* \"#utility.yul\":690:1019   */\n      swap3\n      swap2\n      pop\n      pop\n      jump\t// out\n        /* \"#utility.yul\":1025:1124   */\n    tag_66:\n        /* \"#utility.yul\":1077:1083   */\n      0x00\n        /* \"#utility.yul\":1111:1116   */\n      dup2\n        /* \"#utility.yul\":1105:1117   */\n      mload\n        /* \"#utility.yul\":1095:1117   */\n      swap1\n      pop\n        /* \"#utility.yul\":1025:1124   */\n      swap2\n      swap1\n      pop\n      jump\t// out\n        /* \"#utility.yul\":1130:1299   */\n    tag_67:\n        /* \"#utility.yul\":1214:1225   */\n      0x00\n        /* \"#utility.yul\":1248:1254   */\n      dup3\n        /* \"#utility.yul\":1243:1246   */\n      dup3\n        /* \"#utility.yul\":1236:1255   */\n      mstore\n        /* \"#utility.yul\":1288:1292   */\n      0x20\n        /* \"#utility.yul\":1283:1286   */\n      dup3\n        /* \"#utility.yul\":1279:1293   */\n      add\n        /* \"#utility.yul\":1264:1293   */\n      swap1\n      pop\n        /* \"#utility.yul\":1130:1299   */\n      swap3\n      swap2\n      pop\n      pop\n      jump\t// out\n        /* \"#utility.yul\":1305:1551   */\n    tag_68:\n        /* \"#utility.yul\":1386:1387   */\n      0x00\n        /* \"#utility.yul\":1396:1509   */\n    tag_111:\n        /* \"#utility.yul\":1410:1416   */\n      dup4\n        /* \"#utility.yul\":1407:1408   */\n      dup2\n        /* \"#utility.yul\":1404:1417   */\n      lt\n        /* \"#utility.yul\":1396:1509   */\n      iszero\n      tag_113\n      jumpi\n        /* \"#utility.yul\":1495:1496   */\n      dup1\n        /* \"#utility.yul\":1490:1493   */\n      dup3\n        /* \"#utility.yul\":1486:1497   */\n      add\n        /* \"#utility.yul\":1480:1498   */\n      mload\n        /* \"#utility.yul\":1476:1477   */\n      dup2\n        /* \"#utility.yul\":1471:1474   */\n      dup5\n        /* \"#utility.yul\":1467:1478   */\n      add\n        /* \"#utility.yul\":1460:1499   */\n      mstore\n        /* \"#utility.yul\":1432:1434   */\n      0x20\n        /* \"#utility.yul\":1429:1430   */\n      dup2\n        /* \"#utility.yul\":1425:1435   */\n      add\n        /* \"#utility.yul\":1420:1435   */\n      swap1\n      pop\n        /* \"#utility.yul\":1396:1509   */\n      jump(tag_111)\n    tag_113:\n        /* \"#utility.yul\":1543:1544   */\n      0x00\n        /* \"#utility.yul\":1534:1540   */\n      dup5\n        /* \"#utility.yul\":1529:1532   */\n      dup5\n        /* \"#utility.yul\":1525:1541   */\n      add\n        /* \"#utility.yul\":1518:1545   */\n      mstore\n        /* \"#utility.yul\":1367:1551   */\n      pop\n        /* \"#utility.yul\":1305:1551   */\n      pop\n      pop\n      pop\n      jump\t// out\n        /* \"#utility.yul\":1557:1659   */\n    tag_69:\n        /* \"#utility.yul\":1598:1604   */\n      0x00\n        /* \"#utility.yul\":1649:1651   */\n      0x1f\n        /* \"#utility.yul\":1645:1652   */\n      not\n        /* \"#utility.yul\":1640:1642   */\n      0x1f\n        /* \"#utility.yul\":1633:1638   */\n      dup4\n        /* \"#utility.yul\":1629:1643   */\n      add\n        /* \"#utility.yul\":1625:1653   */\n      and\n        /* \"#utility.yul\":1615:1653   */\n      swap1\n      pop\n        /* \"#utility.yul\":1557:1659   */\n      swap2\n      swap1\n      pop\n      jump\t// out\n        /* \"#utility.yul\":1665:2042   */\n    tag_70:\n        /* \"#utility.yul\":1753:1756   */\n      0x00\n        /* \"#utility.yul\":1781:1820   */\n      tag_116\n        /* \"#utility.yul\":1814:1819   */\n      dup3\n        /* \"#utility.yul\":1781:1820   */\n      tag_66\n      jump\t// in\n    tag_116:\n        /* \"#utility.yul\":1836:1907   */\n      tag_117\n        /* \"#utility.yul\":1900:1906   */\n      dup2\n        /* \"#utility.yul\":1895:1898   */\n      dup6\n        /* \"#utility.yul\":1836:1907   */\n      tag_67\n      jump\t// in\n    tag_117:\n        /* \"#utility.yul\":1829:1907   */\n      swap4\n      pop\n        /* \"#utility.yul\":1916:1981   */\n      tag_118\n        /* \"#utility.yul\":1974:1980   */\n      dup2\n        /* \"#utility.yul\":1969:1972   */\n      dup6\n        /* \"#utility.yul\":1962:1966   */\n      0x20\n        /* \"#utility.yul\":1955:1960   */\n      dup7\n        /* \"#utility.yul\":1951:1967   */\n      add\n        /* \"#utility.yul\":1916:1981   */\n      tag_68\n      jump\t// in\n    tag_118:\n        /* \"#utility.yul\":2006:2035   */\n      tag_119\n        /* \"#utility.yul\":2028:2034   */\n      dup2\n        /* \"#utility.yul\":2006:2035   */\n      tag_69\n      jump\t// in\n    tag_119:\n        /* \"#utility.yul\":2001:2004   */\n      dup5\n        /* \"#utility.yul\":1997:2036   */\n      add\n        /* \"#utility.yul\":1990:2036   */\n      swap2\n      pop\n        /* \"#utility.yul\":1757:2042   */\n      pop\n        /* \"#utility.yul\":1665:2042   */\n      swap3\n      swap2\n      pop\n      pop\n      jump\t// out\n        /* \"#utility.yul\":2048:2361   */\n    tag_14:\n        /* \"#utility.yul\":2161:2165   */\n      0x00\n        /* \"#utility.yul\":2199:2201   */\n      0x20\n        /* \"#utility.yul\":2188:2197   */\n      dup3\n        /* \"#utility.yul\":2184:2202   */\n      add\n        /* \"#utility.yul\":2176:2202   */\n      swap1\n      pop\n        /* \"#utility.yul\":2248:2257   */\n      dup2\n        /* \"#utility.yul\":2242:2246   */\n      dup2\n        /* \"#utility.yul\":2238:2258   */\n      sub\n        /* \"#utility.yul\":2234:2235   */\n      0x00\n        /* \"#utility.yul\":2223:2232   */\n      dup4\n        /* \"#utility.yul\":2219:2236   */\n      add\n        /* \"#utility.yul\":2212:2259   */\n      mstore\n        /* \"#utility.yul\":2276:2354   */\n      tag_121\n        /* \"#utility.yul\":2349:2353   */\n      dup2\n        /* \"#utility.yul\":2340:2346   */\n      dup5\n        /* \"#utility.yul\":2276:2354   */\n      tag_70\n      jump\t// in\n    tag_121:\n        /* \"#utility.yul\":2268:2354   */\n      swap1\n      pop\n        /* \"#utility.yul\":2048:2361   */\n      swap3\n      swap2\n      pop\n      pop\n      jump\t// out\n        /* \"#utility.yul\":2367:2484   */\n    tag_71:\n        /* \"#utility.yul\":2476:2477   */\n      0x00\n        /* \"#utility.yul\":2473:2474   */\n      dup1\n        /* \"#utility.yul\":2466:2478   */\n      revert\n        /* \"#utility.yul\":2490:2607   */\n    tag_72:\n        /* \"#utility.yul\":2599:2600   */\n      0x00\n        /* \"#utility.yul\":2596:2597   */\n      dup1\n        /* \"#utility.yul\":2589:2601   */\n      revert\n        /* \"#utility.yul\":2613:2730   */\n    tag_73:\n        /* \"#utility.yul\":2722:2723   */\n      0x00\n        /* \"#utility.yul\":2719:2720   */\n      dup1\n        /* \"#utility.yul\":2712:2724   */\n      revert\n        /* \"#utility.yul\":2750:3303   */\n    tag_74:\n        /* \"#utility.yul\":2808:2816   */\n      0x00\n        /* \"#utility.yul\":2818:2824   */\n      dup1\n        /* \"#utility.yul\":2868:2871   */\n      dup4\n        /* \"#utility.yul\":2861:2865   */\n      0x1f\n        /* \"#utility.yul\":2853:2859   */\n      dup5\n        /* \"#utility.yul\":2849:2866   */\n      add\n        /* \"#utility.yul\":2845:2872   */\n      slt\n        /* \"#utility.yul\":2835:2957   */\n      tag_126\n      jumpi\n        /* \"#utility.yul\":2876:2955   */\n      tag_127\n      tag_71\n      jump\t// in\n    tag_127:\n        /* \"#utility.yul\":2835:2957   */\n    tag_126:\n        /* \"#utility.yul\":2989:2995   */\n      dup3\n        /* \"#utility.yul\":2976:2996   */\n      calldataload\n        /* \"#utility.yul\":2966:2996   */\n      swap1\n      pop\n        /* \"#utility.yul\":3019:3037   */\n      0xffffffffffffffff\n        /* \"#utility.yul\":3011:3017   */\n      dup2\n        /* \"#utility.yul\":3008:3038   */\n      gt\n        /* \"#utility.yul\":3005:3122   */\n      iszero\n      tag_128\n      jumpi\n        /* \"#utility.yul\":3041:3120   */\n      tag_129\n      tag_72\n      jump\t// in\n    tag_129:\n        /* \"#utility.yul\":3005:3122   */\n    tag_128:\n        /* \"#utility.yul\":3155:3159   */\n      0x20\n        /* \"#utility.yul\":3147:3153   */\n      dup4\n        /* \"#utility.yul\":3143:3160   */\n      add\n        /* \"#utility.yul\":3131:3160   */\n      swap2\n      pop\n        /* \"#utility.yul\":3209:3212   */\n      dup4\n        /* \"#utility.yul\":3201:3205   */\n      0x01\n        /* \"#utility.yul\":3193:3199   */\n      dup3\n        /* \"#utility.yul\":3189:3206   */\n      mul\n        /* \"#utility.yul\":3179:3187   */\n      dup4\n        /* \"#utility.yul\":3175:3207   */\n      add\n        /* \"#utility.yul\":3172:3213   */\n      gt\n        /* \"#utility.yul\":3169:3297   */\n      iszero\n      tag_130\n      jumpi\n        /* \"#utility.yul\":3216:3295   */\n      tag_131\n      tag_73\n      jump\t// in\n    tag_131:\n        /* \"#utility.yul\":3169:3297   */\n    tag_130:\n        /* \"#utility.yul\":2750:3303   */\n      swap3\n      pop\n      swap3\n      swap1\n      pop\n      jump\t// out\n        /* \"#utility.yul\":3309:3983   */\n    tag_19:\n        /* \"#utility.yul\":3389:3395   */\n      0x00\n        /* \"#utility.yul\":3397:3403   */\n      dup1\n        /* \"#utility.yul\":3405:3411   */\n      0x00\n        /* \"#utility.yul\":3454:3456   */\n      0x40\n        /* \"#utility.yul\":3442:3451   */\n      dup5\n        /* \"#utility.yul\":3433:3440   */\n      dup7\n        /* \"#utility.yul\":3429:3452   */\n      sub\n        /* \"#utility.yul\":3425:3457   */\n      slt\n        /* \"#utility.yul\":3422:3541   */\n      iszero\n      tag_133\n      jumpi\n        /* \"#utility.yul\":3460:3539   */\n      tag_134\n      tag_61\n      jump\t// in\n    tag_134:\n        /* \"#utility.yul\":3422:3541   */\n    tag_133:\n        /* \"#utility.yul\":3580:3581   */\n      0x00\n        /* \"#utility.yul\":3605:3658   */\n      tag_135\n        /* \"#utility.yul\":3650:3657   */\n      dup7\n        /* \"#utility.yul\":3641:3647   */\n      dup3\n        /* \"#utility.yul\":3630:3639   */\n      dup8\n        /* \"#utility.yul\":3626:3648   */\n      add\n        /* \"#utility.yul\":3605:3658   */\n      tag_65\n      jump\t// in\n    tag_135:\n        /* \"#utility.yul\":3595:3658   */\n      swap4\n      pop\n        /* \"#utility.yul\":3551:3668   */\n      pop\n        /* \"#utility.yul\":3735:3737   */\n      0x20\n        /* \"#utility.yul\":3724:3733   */\n      dup5\n        /* \"#utility.yul\":3720:3738   */\n      add\n        /* \"#utility.yul\":3707:3739   */\n      calldataload\n        /* \"#utility.yul\":3766:3784   */\n      0xffffffffffffffff\n        /* \"#utility.yul\":3758:3764   */\n      dup2\n        /* \"#utility.yul\":3755:3785   */\n      gt\n        /* \"#utility.yul\":3752:3869   */\n      iszero\n      tag_136\n      jumpi\n        /* \"#utility.yul\":3788:3867   */\n      tag_137\n      tag_62\n      jump\t// in\n    tag_137:\n        /* \"#utility.yul\":3752:3869   */\n    tag_136:\n        /* \"#utility.yul\":3901:3966   */\n      tag_138\n        /* \"#utility.yul\":3958:3965   */\n      dup7\n        /* \"#utility.yul\":3949:3955   */\n      dup3\n        /* \"#utility.yul\":3938:3947   */\n      dup8\n        /* \"#utility.yul\":3934:3956   */\n      add\n        /* \"#utility.yul\":3901:3966   */\n      tag_74\n      jump\t// in\n    tag_138:\n        /* \"#utility.yul\":3883:3966   */\n      swap3\n      pop\n      swap3\n      pop\n        /* \"#utility.yul\":3678:3976   */\n      pop\n        /* \"#utility.yul\":3309:3983   */\n      swap3\n      pop\n      swap3\n      pop\n      swap3\n      jump\t// out\n        /* \"#utility.yul\":3989:4107   */\n    tag_75:\n        /* \"#utility.yul\":4076:4100   */\n      tag_140\n        /* \"#utility.yul\":4094:4099   */\n      dup2\n        /* \"#utility.yul\":4076:4100   */\n      tag_63\n      jump\t// in\n    tag_140:\n        /* \"#utility.yul\":4071:4074   */\n      dup3\n        /* \"#utility.yul\":4064:4101   */\n      mstore\n        /* \"#utility.yul\":3989:4107   */\n      pop\n      pop\n      jump\t// out\n        /* \"#utility.yul\":4113:4335   */\n    tag_25:\n        /* \"#utility.yul\":4206:4210   */\n      0x00\n        /* \"#utility.yul\":4244:4246   */\n      0x20\n        /* \"#utility.yul\":4233:4242   */\n      dup3\n        /* \"#utility.yul\":4229:4247   */\n      add\n        /* \"#utility.yul\":4221:4247   */\n      swap1\n      pop\n        /* \"#utility.yul\":4257:4328   */\n      tag_142\n        /* \"#utility.yul\":4325:4326   */\n      0x00\n        /* \"#utility.yul\":4314:4323   */\n      dup4\n        /* \"#utility.yul\":4310:4327   */\n      add\n        /* \"#utility.yul\":4301:4307   */\n      dup5\n        /* \"#utility.yul\":4257:4328   */\n      tag_75\n      jump\t// in\n    tag_142:\n        /* \"#utility.yul\":4113:4335   */\n      swap3\n      swap2\n      pop\n      pop\n      jump\t// out\n        /* \"#utility.yul\":4341:4521   */\n    tag_76:\n        /* \"#utility.yul\":4389:4466   */\n      0x4e487b7100000000000000000000000000000000000000000000000000000000\n        /* \"#utility.yul\":4386:4387   */\n      0x00\n        /* \"#utility.yul\":4379:4467   */\n      mstore\n        /* \"#utility.yul\":4486:4490   */\n      0x22\n        /* \"#utility.yul\":4483:4484   */\n      0x04\n        /* \"#utility.yul\":4476:4491   */\n      mstore\n        /* \"#utility.yul\":4510:4514   */\n      0x24\n        /* \"#utility.yul\":4507:4508   */\n      0x00\n        /* \"#utility.yul\":4500:4515   */\n      revert\n        /* \"#utility.yul\":4527:4847   */\n    tag_33:\n        /* \"#utility.yul\":4571:4577   */\n      0x00\n        /* \"#utility.yul\":4608:4609   */\n      0x02\n        /* \"#utility.yul\":4602:4606   */\n      dup3\n        /* \"#utility.yul\":4598:4610   */\n      div\n        /* \"#utility.yul\":4588:4610   */\n      swap1\n      pop\n        /* \"#utility.yul\":4655:4656   */\n      0x01\n        /* \"#utility.yul\":4649:4653   */\n      dup3\n        /* \"#utility.yul\":4645:4657   */\n      and\n        /* \"#utility.yul\":4676:4694   */\n      dup1\n        /* \"#utility.yul\":4666:4747   */\n      tag_145\n      jumpi\n        /* \"#utility.yul\":4732:4736   */\n      0x7f\n        /* \"#utility.yul\":4724:4730   */\n      dup3\n        /* \"#utility.yul\":4720:4737   */\n      and\n        /* \"#utility.yul\":4710:4737   */\n      swap2\n      pop\n        /* \"#utility.yul\":4666:4747   */\n    tag_145:\n        /* \"#utility.yul\":4794:4796   */\n      0x20\n        /* \"#utility.yul\":4786:4792   */\n      dup3\n        /* \"#utility.yul\":4783:4797   */\n      lt\n        /* \"#utility.yul\":4763:4781   */\n      dup2\n        /* \"#utility.yul\":4760:4798   */\n      sub\n        /* \"#utility.yul\":4757:4841   */\n      tag_146\n      jumpi\n        /* \"#utility.yul\":4813:4831   */\n      tag_147\n      tag_76\n      jump\t// in\n    tag_147:\n        /* \"#utility.yul\":4757:4841   */\n    tag_146:\n        /* \"#utility.yul\":4578:4847   */\n      pop\n        /* \"#utility.yul\":4527:4847   */\n      swap2\n      swap1\n      pop\n      jump\t// out\n        /* \"#utility.yul\":4853:5033   */\n    tag_41:\n        /* \"#utility.yul\":4901:4978   */\n      0x4e487b7100000000000000000000000000000000000000000000000000000000\n        /* \"#utility.yul\":4898:4899   */\n      0x00\n        /* \"#utility.yul\":4891:4979   */\n      mstore\n        /* \"#utility.yul\":4998:5002   */\n      0x31\n        /* \"#utility.yul\":4995:4996   */\n      0x04\n        /* \"#utility.yul\":4988:5003   */\n      mstore\n        /* \"#utility.yul\":5022:5026   */\n      0x24\n        /* \"#utility.yul\":5019:5020   */\n      0x00\n        /* \"#utility.yul\":5012:5027   */\n      revert\n        /* \"#utility.yul\":5039:5136   */\n    tag_77:\n        /* \"#utility.yul\":5098:5104   */\n      0x00\n        /* \"#utility.yul\":5126:5129   */\n      dup3\n        /* \"#utility.yul\":5116:5129   */\n      swap1\n      pop\n        /* \"#utility.yul\":5039:5136   */\n      swap3\n      swap2\n      pop\n      pop\n      jump\t// out\n        /* \"#utility.yul\":5142:5322   */\n    tag_78:\n        /* \"#utility.yul\":5190:5267   */\n      0x4e487b7100000000000000000000000000000000000000000000000000000000\n        /* \"#utility.yul\":5187:5188   */\n      0x00\n        /* \"#utility.yul\":5180:5268   */\n      mstore\n        /* \"#utility.yul\":5287:5291   */\n      0x41\n        /* \"#utility.yul\":5284:5285   */\n      0x04\n        /* \"#utility.yul\":5277:5292   */\n      mstore\n        /* \"#utility.yul\":5311:5315   */\n      0x24\n        /* \"#utility.yul\":5308:5309   */\n      0x00\n        /* \"#utility.yul\":5301:5316   */\n      revert\n        /* \"#utility.yul\":5328:5469   */\n    tag_79:\n        /* \"#utility.yul\":5377:5381   */\n      0x00\n        /* \"#utility.yul\":5400:5403   */\n      dup2\n        /* \"#utility.yul\":5392:5403   */\n      swap1\n      pop\n        /* \"#utility.yul\":5423:5426   */\n      dup2\n        /* \"#utility.yul\":5420:5421   */\n      0x00\n        /* \"#utility.yul\":5413:5427   */\n      mstore\n        /* \"#utility.yul\":5457:5461   */\n      0x20\n        /* \"#utility.yul\":5454:5455   */\n      0x00\n        /* \"#utility.yul\":5444:5462   */\n      keccak256\n        /* \"#utility.yul\":5436:5462   */\n      swap1\n      pop\n        /* \"#utility.yul\":5328:5469   */\n      swap2\n      swap1\n      pop\n      jump\t// out\n        /* \"#utility.yul\":5475:5568   */\n    tag_80:\n        /* \"#utility.yul\":5512:5518   */\n      0x00\n        /* \"#utility.yul\":5559:5561   */\n      0x20\n        /* \"#utility.yul\":5554:5556   */\n      0x1f\n        /* \"#utility.yul\":5547:5552   */\n      dup4\n        /* \"#utility.yul\":5543:5557   */\n      add\n        /* \"#utility.yul\":5539:5562   */\n      div\n        /* \"#utility.yul\":5529:5562   */\n      swap1\n      pop\n        /* \"#utility.yul\":5475:5568   */\n      swap2\n      swap1\n      pop\n      jump\t// out\n        /* \"#utility.yul\":5574:5681   */\n    tag_81:\n        /* \"#utility.yul\":5618:5626   */\n      0x00\n        /* \"#utility.yul\":5668:5673   */\n      dup3\n        /* \"#utility.yul\":5662:5666   */\n      dup3\n        /* \"#utility.yul\":5658:5674   */\n      shl\n        /* \"#utility.yul\":5637:5674   */\n      swap1\n      pop\n        /* \"#utility.yul\":5574:5681   */\n      swap3\n      swap2\n      pop\n      pop\n      jump\t// out\n        /* \"#utility.yul\":5687:6080   */\n    tag_82:\n        /* \"#utility.yul\":5756:5762   */\n      0x00\n        /* \"#utility.yul\":5806:5807   */\n      0x08\n        /* \"#utility.yul\":5794:5804   */\n      dup4\n        /* \"#utility.yul\":5790:5808   */\n      mul\n        /* \"#utility.yul\":5829:5926   */\n      tag_155\n        /* \"#utility.yul\":5859:5925   */\n      0xffffffffffffffffffffffffffffffffffffffffffffffffffffffffffffffff\n        /* \"#utility.yul\":5848:5857   */\n      dup3\n        /* \"#utility.yul\":5829:5926   */\n      tag_81\n      jump\t// in\n    tag_155:\n        /* \"#utility.yul\":5947:5986   */\n      tag_156\n        /* \"#utility.yul\":5977:5985   */\n      dup7\n        /* \"#utility.yul\":5966:5975   */\n      dup4\n        /* \"#utility.yul\":5947:5986   */\n      tag_81\n      jump\t// in\n    tag_156:\n        /* \"#utility.yul\":5935:5986   */\n      swap6\n      pop\n        /* \"#utility.yul\":6019:6023   */\n      dup1\n        /* \"#utility.yul\":6015:6024   */\n      not\n        /* \"#utility.yul\":6008:6013   */\n      dup5\n        /* \"#utility.yul\":6004:6025   */\n      and\n        /* \"#utility.yul\":5995:6025   */\n      swap4\n      pop\n        /* \"#utility.yul\":6068:6072   */\n      dup1\n        /* \"#utility.yul\":6058:6066   */\n      dup7\n        /* \"#utility.yul\":6054:6073   */\n      and\n        /* \"#utility.yul\":6047:6052   */\n      dup5\n        /* \"#utility.yul\":6044:6074   */\n      or\n        /* \"#utility.yul\":6034:6074   */\n      swap3\n      pop\n        /* \"#utility.yul\":5763:6080   */\n      pop\n      pop\n        /* \"#utility.yul\":5687:6080   */\n      swap4\n      swap3\n      pop\n      pop\n      pop\n      jump\t// out\n        /* \"#utility.yul\":6086:6146   */\n    tag_83:\n        /* \"#utility.yul\":6114:6117   */\n      0x00\n        /* \"#utility.yul\":6135:6140   */\n      dup2\n        /* \"#utility.yul\":6128:6140   */\n      swap1\n      pop\n        /* \"#utility.yul\":6086:6146   */\n      swap2\n      swap1\n      pop\n      jump\t// out\n        /* \"#utility.yul\":6152:6294   */\n    tag_84:\n        /* \"#utility.yul\":6202:6211   */\n      0x00\n        /* \"#utility.yul\":6235:6288   */\n      tag_159\n        /* \"#utility.yul\":6253:6287   */\n      tag_160\n        /* \"#utility.yul\":6262:6286   */\n      tag_161\n        /* \"#utility.yul\":6280:6285   */\n      dup5\n        /* \"#utility.yul\":6262:6286   */\n      tag_63\n      jump\t// in\n    tag_161:\n        /* \"#utility.yul\":6253:6287   */\n      tag_83\n      jump\t// in\n    tag_160:\n        /* \"#utility.yul\":6235:6288   */\n      tag_63\n      jump\t// in\n    tag_159:\n        /* \"#utility.yul\":6222:6288   */\n      swap1\n      pop\n        /* \"#utility.yul\":6152:6294   */\n      swap2\n      swap1\n      pop\n      jump\t// out\n        /* \"#utility.yul\":6300:6375   */\n    tag_85:\n        /* \"#utility.yul\":6343:6346   */\n      0x00\n        /* \"#utility.yul\":6364:6369   */\n      dup2\n        /* \"#utility.yul\":6357:6369   */\n      swap1\n      pop\n        /* \"#utility.yul\":6300:6375   */\n      swap2\n      swap1\n      pop\n      jump\t// out\n        /* \"#utility.yul\":6381:6650   */\n    tag_86:\n        /* \"#utility.yul\":6491:6530   */\n      tag_164\n        /* \"#utility.yul\":6522:6529   */\n      dup4\n        /* \"#utility.yul\":6491:6530   */\n      tag_84\n      jump\t// in\n    tag_164:\n        /* \"#utility.yul\":6552:6643   */\n      tag_165\n        /* \"#utility.yul\":6601:6642   */\n      tag_166\n        /* \"#utility.yul\":6625:6641   */\n      dup3\n        /* \"#utility.yul\":6601:6642   */\n      tag_85\n      jump\t// in\n    tag_166:\n        /* \"#utility.yul\":6593:6599   */\n      dup5\n        /* \"#utility.yul\":6586:6590   */\n      dup5\n        /* \"#utility.yul\":6580:6591   */\n      sload\n        /* \"#utility.yul\":6552:6643   */\n      tag_82\n      jump\t// in\n    tag_165:\n        /* \"#utility.yul\":6546:6550   */\n      dup3\n        /* \"#utility.yul\":6539:6644   */\n      sstore\n        /* \"#utility.yul\":6457:6650   */\n      pop\n        /* \"#utility.yul\":6381:6650   */\n      pop\n      pop\n      pop\n      jump\t// out\n        /* \"#utility.yul\":6656:6729   */\n    tag_87:\n        /* \"#utility.yul\":6701:6704   */\n      0x00\n        /* \"#utility.yul\":6656:6729   */\n      swap1\n      jump\t// out\n        /* \"#utility.yul\":6735:6924   */\n    tag_88:\n        /* \"#utility.yul\":6812:6844   */\n      tag_169\n      tag_87\n      jump\t// in\n    tag_169:\n        /* \"#utility.yul\":6853:6918   */\n      tag_170\n        /* \"#utility.yul\":6911:6917   */\n      dup2\n        /* \"#utility.yul\":6903:6909   */\n      dup5\n        /* \"#utility.yul\":6897:6901   */\n      dup5\n        /* \"#utility.yul\":6853:6918   */\n      tag_86\n      jump\t// in\n    tag_170:\n        /* \"#utility.yul\":6788:6924   */\n      pop\n        /* \"#utility.yul\":6735:6924   */\n      pop\n      pop\n      jump\t// out\n        /* \"#utility.yul\":6930:7116   */\n    tag_89:\n        /* \"#utility.yul\":6990:7110   */\n    tag_172:\n        /* \"#utility.yul\":7007:7010   */\n      dup2\n        /* \"#utility.yul\":7000:7005   */\n      dup2\n        /* \"#utility.yul\":6997:7011   */\n      lt\n        /* \"#utility.yul\":6990:7110   */\n      iszero\n      tag_174\n      jumpi\n        /* \"#utility.yul\":7061:7100   */\n      tag_175\n        /* \"#utility.yul\":7098:7099   */\n      0x00\n        /* \"#utility.yul\":7091:7096   */\n      dup3\n        /* \"#utility.yul\":7061:7100   */\n      tag_88\n      jump\t// in\n    tag_175:\n        /* \"#utility.yul\":7034:7035   */\n      0x01\n        /* \"#utility.yul\":7027:7032   */\n      dup2\n        /* \"#utility.yul\":7023:7036   */\n      add\n        /* \"#utility.yul\":7014:7036   */\n      swap1\n      pop\n        /* \"#utility.yul\":6990:7110   */\n      jump(tag_172)\n    tag_174:\n        /* \"#utility.yul\":6930:7116   */\n      pop\n      pop\n      jump\t// out\n        /* \"#utility.yul\":7122:7665   */\n    tag_90:\n        /* \"#utility.yul\":7223:7225   */\n      0x1f\n        /* \"#utility.yul\":7218:7221   */\n      dup3\n        /* \"#utility.yul\":7215:7226   */\n      gt\n        /* \"#utility.yul\":7212:7658   */\n      iszero\n      tag_177\n      jumpi\n        /* \"#utility.yul\":7257:7295   */\n      tag_178\n        /* \"#utility.yul\":7289:7294   */\n      dup2\n        /* \"#utility.yul\":7257:7295   */\n      tag_79\n      jump\t// in\n    tag_178:\n        /* \"#utility.yul\":7341:7370   */\n      tag_179\n        /* \"#utility.yul\":7359:7369   */\n      dup5\n        /* \"#utility.yul\":7341:7370   */\n      tag_80\n      jump\t// in\n    tag_179:\n        /* \"#utility.yul\":7331:7339   */\n      dup2\n        /* \"#utility.yul\":7327:7371   */\n      add\n        /* \"#utility.yul\":7524:7526   */\n      0x20\n        /* \"#utility.yul\":7512:7522   */\n      dup6\n        /* \"#utility.yul\":7509:7527   */\n      lt\n        /* \"#utility.yul\":7506:7555   */\n      iszero\n      tag_180\n      jumpi\n        /* \"#utility.yul\":7545:7553   */\n      dup2\n        /* \"#utility.yul\":7530:7553   */\n      swap1\n      pop\n        /* \"#utility.yul\":7506:7555   */\n    tag_180:\n        /* \"#utility.yul\":7568:7648   */\n      tag_181\n        /* \"#utility.yul\":7624:7646   */\n      tag_182\n        /* \"#utility.yul\":7642:7645   */\n      dup6\n        /* \"#utility.yul\":7624:7646   */\n      tag_80\n      jump\t// in\n    tag_182:\n        /* \"#utility.yul\":7614:7622   */\n      dup4\n        /* \"#utility.yul\":7610:7647   */\n      add\n        /* \"#utility.yul\":7597:7608   */\n      dup3\n        /* \"#utility.yul\":7568:7648   */\n      tag_89\n      jump\t// in\n    tag_181:\n        /* \"#utility.yul\":7227:7658   */\n      pop\n      pop\n        /* \"#utility.yul\":7212:7658   */\n    tag_177:\n        /* \"#utility.yul\":7122:7665   */\n      pop\n      pop\n      pop\n      jump\t// out\n        /* \"#utility.yul\":7671:7788   */\n    tag_91:\n        /* \"#utility.yul\":7725:7733   */\n      0x00\n        /* \"#utility.yul\":7775:7780   */\n      dup3\n        /* \"#utility.yul\":7769:7773   */\n      dup3\n        /* \"#utility.yul\":7765:7781   */\n      shr\n        /* \"#utility.yul\":7744:7781   */\n      swap1\n      pop\n        /* \"#utility.yul\":7671:7788   */\n      swap3\n      swap2\n      pop\n      pop\n      jump\t// out\n        /* \"#utility.yul\":7794:7963   */\n    tag_92:\n        /* \"#utility.yul\":7838:7844   */\n      0x00\n        /* \"#utility.yul\":7871:7922   */\n      tag_185\n        /* \"#utility.yul\":7919:7920   */\n      0x00\n        /* \"#utility.yul\":7915:7921   */\n      not\n        /* \"#utility.yul\":7907:7912   */\n      dup5\n        /* \"#utility.yul\":7904:7905   */\n      0x08\n        /* \"#utility.yul\":7900:7913   */\n      mul\n        /* \"#utility.yul\":7871:7922   */\n      tag_91\n      jump\t// in\n    tag_185:\n        /* \"#utility.yul\":7867:7923   */\n      not\n        /* \"#utility.yul\":7952:7956   */\n      dup1\n        /* \"#utility.yul\":7946:7950   */\n      dup4\n        /* \"#utility.yul\":7942:7957   */\n      and\n        /* \"#utility.yul\":7932:7957   */\n      swap2\n      pop\n        /* \"#utility.yul\":7845:7963   */\n      pop\n        /* \"#utility.yul\":7794:7963   */\n      swap3\n      swap2\n      pop\n      pop\n      jump\t// out\n        /* \"#utility.yul\":7968:8263   */\n    tag_93:\n        /* \"#utility.yul\":8044:8048   */\n      0x00\n        /* \"#utility.yul\":8190:8219   */\n      tag_187\n        /* \"#utility.yul\":8215:8218   */\n      dup4\n        /* \"#utility.yul\":8209:8213   */\n      dup4\n        /* \"#utility.yul\":8190:8219   */\n      tag_92\n      jump\t// in\n    tag_187:\n        /* \"#utility.yul\":8182:8219   */\n      swap2\n      pop\n        /* \"#utility.yul\":8252:8255   */\n      dup3\n        /* \"#utility.yul\":8249:8250   */\n      0x02\n        /* \"#utility.yul\":8245:8256   */\n      mul\n        /* \"#utility.yul\":8239:8243   */\n      dup3\n        /* \"#utility.yul\":8236:8257   */\n      or\n        /* \"#utility.yul\":8228:8257   */\n      swap1\n      pop\n        /* \"#utility.yul\":7968:8263   */\n      swap3\n      swap2\n      pop\n      pop\n      jump\t// out\n        /* \"#utility.yul\":8268:9671   */\n    tag_45:\n        /* \"#utility.yul\":8392:8436   */\n      tag_189\n        /* \"#utility.yul\":8432:8435   */\n      dup4\n        /* \"#utility.yul\":8427:8430   */\n      dup4\n        /* \"#utility.yul\":8392:8436   */\n      tag_77\n      jump\t// in\n    tag_189:\n        /* \"#utility.yul\":8501:8519   */\n      0xffffffffffffffff\n        /* \"#utility.yul\":8493:8499   */\n      dup2\n        /* \"#utility.yul\":8490:8520   */\n      gt\n        /* \"#utility.yul\":8487:8543   */\n      iszero\n      tag_190\n      jumpi\n        /* \"#utility.yul\":8523:8541   */\n      tag_191\n      tag_78\n      jump\t// in\n    tag_191:\n        /* \"#utility.yul\":8487:8543   */\n    tag_190:\n        /* \"#utility.yul\":8567:8605   */\n      tag_192\n        /* \"#utility.yul\":8599:8603   */\n      dup3\n        /* \"#utility.yul\":8593:8604   */\n      sload\n        /* \"#utility.yul\":8567:8605   */\n      tag_33\n      jump\t// in\n    tag_192:\n        /* \"#utility.yul\":8652:8719   */\n      tag_193\n        /* \"#utility.yul\":8712:8718   */\n      dup3\n        /* \"#utility.yul\":8704:8710   */\n      dup3\n        /* \"#utility.yul\":8698:8702   */\n      dup6\n        /* \"#utility.yul\":8652:8719   */\n      tag_90\n      jump\t// in\n    tag_193:\n        /* \"#utility.yul\":8746:8747   */\n      0x00\n        /* \"#utility.yul\":8775:8777   */\n      0x1f\n        /* \"#utility.yul\":8767:8773   */\n      dup4\n        /* \"#utility.yul\":8764:8778   */\n      gt\n        /* \"#utility.yul\":8792:8793   */\n      0x01\n        /* \"#utility.yul\":8787:9419   */\n      dup2\n      eq\n      tag_195\n      jumpi\n        /* \"#utility.yul\":9463:9464   */\n      0x00\n        /* \"#utility.yul\":9480:9486   */\n      dup5\n        /* \"#utility.yul\":9477:9561   */\n      iszero\n      tag_196\n      jumpi\n        /* \"#utility.yul\":9536:9545   */\n      dup3\n        /* \"#utility.yul\":9531:9534   */\n      dup8\n        /* \"#utility.yul\":9527:9546   */\n      add\n        /* \"#utility.yul\":9514:9547   */\n      calldataload\n        /* \"#utility.yul\":9505:9547   */\n      swap1\n      pop\n        /* \"#utility.yul\":9477:9561   */\n    tag_196:\n        /* \"#utility.yul\":9587:9654   */\n      tag_197\n        /* \"#utility.yul\":9647:9653   */\n      dup6\n        /* \"#utility.yul\":9640:9645   */\n      dup3\n        /* \"#utility.yul\":9587:9654   */\n      tag_93\n      jump\t// in\n    tag_197:\n        /* \"#utility.yul\":9581:9585   */\n      dup7\n        /* \"#utility.yul\":9574:9655   */\n      sstore\n        /* \"#utility.yul\":9436:9665   */\n      pop\n        /* \"#utility.yul\":8757:9665   */\n      jump(tag_194)\n        /* \"#utility.yul\":8787:9419   */\n    tag_195:\n        /* \"#utility.yul\":8839:8843   */\n      0x1f\n        /* \"#utility.yul\":8835:8844   */\n      not\n        /* \"#utility.yul\":8827:8833   */\n      dup5\n        /* \"#utility.yul\":8823:8845   */\n      and\n        /* \"#utility.yul\":8873:8910   */\n      tag_198\n        /* \"#utility.yul\":8905:8909   */\n      dup7\n        /* \"#utility.yul\":8873:8910   */\n      tag_79\n      jump\t// in\n    tag_198:\n        /* \"#utility.yul\":8932:8933   */\n      0x00\n        /* \"#utility.yul\":8946:9161   */\n    tag_199:\n        /* \"#utility.yul\":8960:8967   */\n      dup3\n        /* \"#utility.yul\":8957:8958   */\n      dup2\n        /* \"#utility.yul\":8954:8968   */\n      lt\n        /* \"#utility.yul\":8946:9161   */\n      iszero\n      tag_201\n      jumpi\n        /* \"#utility.yul\":9046:9055   */\n      dup5\n        /* \"#utility.yul\":9041:9044   */\n      dup10\n        /* \"#utility.yul\":9037:9056   */\n      add\n        /* \"#utility.yul\":9024:9057   */\n      calldataload\n        /* \"#utility.yul\":9016:9022   */\n      dup3\n        /* \"#utility.yul\":9009:9058   */\n      sstore\n        /* \"#utility.yul\":9097:9098   */\n      0x01\n        /* \"#utility.yul\":9089:9095   */\n      dup3\n        /* \"#utility.yul\":9085:9099   */\n      add\n        /* \"#utility.yul\":9075:9099   */\n      swap2\n      pop\n        /* \"#utility.yul\":9144:9146   */\n      0x20\n        /* \"#utility.yul\":9133:9142   */\n      dup6\n        /* \"#utility.yul\":9129:9147   */\n      add\n        /* \"#utility.yul\":9116:9147   */\n      swap5\n      pop\n        /* \"#utility.yul\":8983:8987   */\n      0x20\n        /* \"#utility.yul\":8980:8981   */\n      dup2\n        /* \"#utility.yul\":8976:8988   */\n      add\n        /* \"#utility.yul\":8971:8988   */\n      swap1\n      pop\n        /* \"#utility.yul\":8946:9161   */\n      jump(tag_199)\n    tag_201:\n        /* \"#utility.yul\":9189:9195   */\n      dup7\n        /* \"#utility.yul\":9180:9187   */\n      dup4\n        /* \"#utility.yul\":9177:9196   */\n      lt\n        /* \"#utility.yul\":9174:9360   */\n      iszero\n      tag_202\n      jumpi\n        /* \"#utility.yul\":9254:9263   */\n      dup5\n        /* \"#utility.yul\":9249:9252   */\n      dup10\n        /* \"#utility.yul\":9245:9264   */\n      add\n        /* \"#utility.yul\":9232:9265   */\n      calldataload\n        /* \"#utility.yul\":9297:9345   */\n      tag_203\n        /* \"#utility.yul\":9339:9343   */\n      0x1f\n        /* \"#utility.yul\":9331:9337   */\n      dup10\n        /* \"#utility.yul\":9327:9344   */\n      and\n        /* \"#utility.yul\":9316:9325   */\n      dup3\n        /* \"#utility.yul\":9297:9345   */\n      tag_92\n      jump\t// in\n    tag_203:\n        /* \"#utility.yul\":9289:9295   */\n      dup4\n        /* \"#utility.yul\":9282:9346   */\n      sstore\n        /* \"#utility.yul\":9197:9360   */\n      pop\n        /* \"#utility.yul\":9174:9360   */\n    tag_202:\n        /* \"#utility.yul\":9406:9407   */\n      0x01\n        /* \"#utility.yul\":9402:9403   */\n      0x02\n        /* \"#utility.yul\":9394:9400   */\n      dup9\n        /* \"#utility.yul\":9390:9404   */\n      mul\n        /* \"#utility.yul\":9386:9408   */\n      add\n        /* \"#utility.yul\":9380:9384   */\n      dup9\n        /* \"#utility.yul\":9373:9409   */\n      sstore\n        /* \"#utility.yul\":8794:9419   */\n      pop\n      pop\n      pop\n        /* \"#utility.yul\":8757:9665   */\n    tag_194:\n      pop\n        /* \"#utility.yul\":8367:9671   */\n      pop\n      pop\n      pop\n        /* \"#utility.yul\":8268:9671   */\n      pop\n      pop\n      pop\n      jump\t// out\n\n    auxdata: 0xa26469706673582212208506cdad1e9749c11fe2e9f7f395743dee7017a41c06c8e379d0610682a9a25a64736f6c63430008120033\n}\n",
				"bytecode": {
					"linkReferences": {},
					"object": "608060405234801561001057600080fd5b5061086d806100206000396000f3fe608060405234801561001057600080fd5b50600436106100625760003560e01c80632a2e6cb714610067578063506c16ee1461009757806364371977146100a15780638ff12b6d146100bd578063959ac484146100ed578063ff7b791d14610109575b600080fd5b610081600480360381019061007c9190610324565b610125565b60405161008e91906103e1565b60405180910390f35b61009f6101c5565b005b6100bb60048036038101906100b69190610468565b6101ef565b005b6100d760048036038101906100d29190610324565b610216565b6040516100e491906104d7565b60405180910390f35b61010760048036038101906101029190610324565b61023a565b005b610123600480360381019061011e9190610324565b610266565b005b6000602052806000526040600020600091509050805461014490610521565b80601f016020809104026020016040519081016040528092919081815260200182805461017090610521565b80156101bd5780601f10610192576101008083540402835291602001916101bd565b820191906000526020600020905b8154815290600101906020018083116101a057829003601f168201915b505050505081565b60018054806101d7576101d6610552565b5b60019003818190600052602060002001600090559055565b81816000808681526020019081526020016000209182610210929190610767565b50505050565b6001818154811061022657600080fd5b906000526020600020016000915090505481565b600181908060018154018082558091505060019003906000526020600020016000909190919091505550565b60008082815260200190815260200160002060006102849190610287565b50565b50805461029390610521565b6000825580601f106102a557506102c4565b601f0160209004906000526020600020908101906102c391906102c7565b5b50565b5b808211156102e05760008160009055506001016102c8565b5090565b600080fd5b600080fd5b6000819050919050565b610301816102ee565b811461030c57600080fd5b50565b60008135905061031e816102f8565b92915050565b60006020828403121561033a576103396102e4565b5b60006103488482850161030f565b91505092915050565b600081519050919050565b600082825260208201905092915050565b60005b8381101561038b578082015181840152602081019050610370565b60008484015250505050565b6000601f19601f8301169050919050565b60006103b382610351565b6103bd818561035c565b93506103cd81856020860161036d565b6103d681610397565b840191505092915050565b600060208201905081810360008301526103fb81846103a8565b905092915050565b600080fd5b600080fd5b600080fd5b60008083601f84011261042857610427610403565b5b8235905067ffffffffffffffff81111561044557610444610408565b5b6020830191508360018202830111156104615761046061040d565b5b9250929050565b600080600060408486031215610481576104806102e4565b5b600061048f8682870161030f565b935050602084013567ffffffffffffffff8111156104b0576104af6102e9565b5b6104bc86828701610412565b92509250509250925092565b6104d1816102ee565b82525050565b60006020820190506104ec60008301846104c8565b92915050565b7f4e487b7100000000000000000000000000000000000000000000000000000000600052602260045260246000fd5b6000600282049050600182168061053957607f821691505b60208210810361054c5761054b6104f2565b5b50919050565b7f4e487b7100000000000000000000000000000000000000000000000000000000600052603160045260246000fd5b600082905092915050565b7f4e487b7100000000000000000000000000000000000000000000000000000000600052604160045260246000fd5b60008190508160005260206000209050919050565b60006020601f8301049050919050565b600082821b905092915050565b60006008830261061d7fffffffffffffffffffffffffffffffffffffffffffffffffffffffffffffffff826105e0565b61062786836105e0565b95508019841693508086168417925050509392505050565b6000819050919050565b600061066461065f61065a846102ee565b61063f565b6102ee565b9050919050565b6000819050919050565b61067e83610649565b61069261068a8261066b565b8484546105ed565b825550505050565b600090565b6106a761069a565b6106b2818484610675565b505050565b5b818110156106d6576106cb60008261069f565b6001810190506106b8565b5050565b601f82111561071b576106ec816105bb565b6106f5846105d0565b81016020851015610704578190505b610718610710856105d0565b8301826106b7565b50505b505050565b600082821c905092915050565b600061073e60001984600802610720565b1980831691505092915050565b6000610757838361072d565b9150826002028217905092915050565b6107718383610581565b67ffffffffffffffff81111561078a5761078961058c565b5b6107948254610521565b61079f8282856106da565b6000601f8311600181146107ce57600084156107bc578287013590505b6107c6858261074b565b86555061082e565b601f1984166107dc866105bb565b60005b82811015610804578489013582556001820191506020850194506020810190506107df565b86831015610821578489013561081d601f89168261072d565b8355505b6001600288020188555050505b5050505050505056fea26469706673582212208506cdad1e9749c11fe2e9f7f395743dee7017a41c06c8e379d0610682a9a25a64736f6c63430008120033",
					"opcodes": "PUSH1 0x80 PUSH1 0x40 MSTORE CALLVALUE DUP1 ISZERO PUSH2 0x10 JUMPI PUSH1 0x0 DUP1 REVERT JUMPDEST POP PUSH2 0x86D DUP1 PUSH2 0x20 PUSH1 0x0 CODECOPY PUSH1 0x0 RETURN INVALID PUSH1 0x80 PUSH1 0x40 MSTORE CALLVALUE DUP1 ISZERO PUSH2 0x10 JUMPI PUSH1 0x0 DUP1 REVERT JUMPDEST POP PUSH1 0x4 CALLDATASIZE LT PUSH2 0x62 JUMPI PUSH1 0x0 CALLDATALOAD PUSH1 0xE0 SHR DUP1 PUSH4 0x2A2E6CB7 EQ PUSH2 0x67 JUMPI DUP1 PUSH4 0x506C16EE EQ PUSH2 0x97 JUMPI DUP1 PUSH4 0x64371977 EQ PUSH2 0xA1 JUMPI DUP1 PUSH4 0x8FF12B6D EQ PUSH2 0xBD JUMPI DUP1 PUSH4 0x959AC484 EQ PUSH2 0xED JUMPI DUP1 PUSH4 0xFF7B791D EQ PUSH2 0x109 JUMPI JUMPDEST PUSH1 0x0 DUP1 REVERT JUMPDEST PUSH2 0x81 PUSH1 0x4 DUP1 CALLDATASIZE SUB DUP2 ADD SWAP1 PUSH2 0x7C SWAP2 SWAP1 PUSH2 0x324 JUMP JUMPDEST PUSH2 0x125 JUMP JUMPDEST PUSH1 0x40 MLOAD PUSH2 0x8E SWAP2 SWAP1 PUSH2 0x3E1 JUMP JUMPDEST PUSH1 0x40 MLOAD DUP1 SWAP2 SUB SWAP1 RETURN JUMPDEST PUSH2 0x9F PUSH2 0x1C5 JUMP JUMPDEST STOP JUMPDEST PUSH2 0xBB PUSH1 0x4 DUP1 CALLDATASIZE SUB DUP2 ADD SWAP1 PUSH2 0xB6 SWAP2 SWAP1 PUSH2 0x468 JUMP JUMPDEST PUSH2 0x1EF JUMP JUMPDEST STOP JUMPDEST PUSH2 0xD7 PUSH1 0x4 DUP1 CALLDATASIZE SUB DUP2 ADD SWAP1 PUSH2 0xD2 SWAP2 SWAP1 PUSH2 0x324 JUMP JUMPDEST PUSH2 0x216 JUMP JUMPDEST PUSH1 0x40 MLOAD PUSH2 0xE4 SWAP2 SWAP1 PUSH2 0x4D7 JUMP JUMPDEST PUSH1 0x40 MLOAD DUP1 SWAP2 SUB SWAP1 RETURN JUMPDEST PUSH2 0x107 PUSH1 0x4 DUP1 CALLDATASIZE SUB DUP2 ADD SWAP1 PUSH2 0x102 SWAP2 SWAP1 PUSH2 0x324 JUMP JUMPDEST PUSH2 0x23A JUMP JUMPDEST STOP JUMPDEST PUSH2 0x123 PUSH1 0x4 DUP1 CALLDATASIZE SUB DUP2 ADD SWAP1 PUSH2 0x11E SWAP2 SWAP1 PUSH2 0x324 JUMP JUMPDEST PUSH2 0x266 JUMP JUMPDEST STOP JUMPDEST PUSH1 0x0 PUSH1 0x20 MSTORE DUP1 PUSH1 0x0 MSTORE PUSH1 0x40 PUSH1 0x0 KECCAK256 PUSH1 0x0 SWAP2 POP SWAP1 POP DUP1 SLOAD PUSH2 0x144 SWAP1 PUSH2 0x521 JUMP JUMPDEST DUP1 PUSH1 0x1F ADD PUSH1 0x20 DUP1 SWAP2 DIV MUL PUSH1 0x20 ADD PUSH1 0x40 MLOAD SWAP1 DUP2 ADD PUSH1 0x40 MSTORE DUP1 SWAP3 SWAP2 SWAP1 DUP2 DUP2 MSTORE PUSH1 0x20 ADD DUP3 DUP1 SLOAD PUSH2 0x170 SWAP1 PUSH2 0x521 JUMP JUMPDEST DUP1 ISZERO PUSH2 0x1BD JUMPI DUP1 PUSH1 0x1F LT PUSH2 0x192 JUMPI PUSH2 0x100 DUP1 DUP4 SLOAD DIV MUL DUP4 MSTORE SWAP2 PUSH1 0x20 ADD SWAP2 PUSH2 0x1BD JUMP JUMPDEST DUP3 ADD SWAP2 SWAP1 PUSH1 0x0 MSTORE PUSH1 0x20 PUSH1 0x0 KECCAK256 SWAP1 JUMPDEST DUP2 SLOAD DUP2 MSTORE SWAP1 PUSH1 0x1 ADD SWAP1 PUSH1 0x20 ADD DUP1 DUP4 GT PUSH2 0x1A0 JUMPI DUP3 SWAP1 SUB PUSH1 0x1F AND DUP3 ADD SWAP2 JUMPDEST POP POP POP POP POP DUP2 JUMP JUMPDEST PUSH1 0x1 DUP1 SLOAD DUP1 PUSH2 0x1D7 JUMPI PUSH2 0x1D6 PUSH2 0x552 JUMP JUMPDEST JUMPDEST PUSH1 0x1 SWAP1 SUB DUP2 DUP2 SWAP1 PUSH1 0x0 MSTORE PUSH1 0x20 PUSH1 0x0 KECCAK256 ADD PUSH1 0x0 SWAP1 SSTORE SWAP1 SSTORE JUMP JUMPDEST DUP2 DUP2 PUSH1 0x0 DUP1 DUP7 DUP2 MSTORE PUSH1 0x20 ADD SWAP1 DUP2 MSTORE PUSH1 0x20 ADD PUSH1 0x0 KECCAK256 SWAP2 DUP3 PUSH2 0x210 SWAP3 SWAP2 SWAP1 PUSH2 0x767 JUMP JUMPDEST POP POP POP POP JUMP JUMPDEST PUSH1 0x1 DUP2 DUP2 SLOAD DUP2 LT PUSH2 0x226 JUMPI PUSH1 0x0 DUP1 REVERT JUMPDEST SWAP1 PUSH1 0x0 MSTORE PUSH1 0x20 PUSH1 0x0 KECCAK256 ADD PUSH1 0x0 SWAP2 POP SWAP1 POP SLOAD DUP2 JUMP JUMPDEST PUSH1 0x1 DUP2 SWAP1 DUP1 PUSH1 0x1 DUP2 SLOAD ADD DUP1 DUP3 SSTORE DUP1 SWAP2 POP POP PUSH1 0x1 SWAP1 SUB SWAP1 PUSH1 0x0 MSTORE PUSH1 0x20 PUSH1 0x0 KECCAK256 ADD PUSH1 0x0 SWAP1 SWAP2 SWAP1 SWAP2 SWAP1 SWAP2 POP SSTORE POP JUMP JUMPDEST PUSH1 0x0 DUP1 DUP3 DUP2 MSTORE PUSH1 0x20 ADD SWAP1 DUP2 MSTORE PUSH1 0x20 ADD PUSH1 0x0 KECCAK256 PUSH1 0x0 PUSH2 0x284 SWAP2 SWAP1 PUSH2 0x287 JUMP JUMPDEST POP JUMP JUMPDEST POP DUP1 SLOAD PUSH2 0x293 SWAP1 PUSH2 0x521 JUMP JUMPDEST PUSH1 0x0 DUP3 SSTORE DUP1 PUSH1 0x1F LT PUSH2 0x2A5 JUMPI POP PUSH2 0x2C4 JUMP JUMPDEST PUSH1 0x1F ADD PUSH1 0x20 SWAP1 DIV SWAP1 PUSH1 0x0 MSTORE PUSH1 0x20 PUSH1 0x0 KECCAK256 SWAP1 DUP2 ADD SWAP1 PUSH2 0x2C3 SWAP2 SWAP1 PUSH2 0x2C7 JUMP JUMPDEST JUMPDEST POP JUMP JUMPDEST JUMPDEST DUP1 DUP3 GT ISZERO PUSH2 0x2E0 JUMPI PUSH1 0x0 DUP2 PUSH1 0x0 SWAP1 SSTORE POP PUSH1 0x1 ADD PUSH2 0x2C8 JUMP JUMPDEST POP SWAP1 JUMP JUMPDEST PUSH1 0x0 DUP1 REVERT JUMPDEST PUSH1 0x0 DUP1 REVERT JUMPDEST PUSH1 0x0 DUP2 SWAP1 POP SWAP2 SWAP1 POP JUMP JUMPDEST PUSH2 0x301 DUP2 PUSH2 0x2EE JUMP JUMPDEST DUP2 EQ PUSH2 0x30C JUMPI PUSH1 0x0 DUP1 REVERT JUMPDEST POP JUMP JUMPDEST PUSH1 0x0 DUP2 CALLDATALOAD SWAP1 POP PUSH2 0x31E DUP2 PUSH2 0x2F8 JUMP JUMPDEST SWAP3 SWAP2 POP POP JUMP JUMPDEST PUSH1 0x0 PUSH1 0x20 DUP3 DUP5 SUB SLT ISZERO PUSH2 0x33A JUMPI PUSH2 0x339 PUSH2 0x2E4 JUMP JUMPDEST JUMPDEST PUSH1 0x0 PUSH2 0x348 DUP5 DUP3 DUP6 ADD PUSH2 0x30F JUMP JUMPDEST SWAP2 POP POP SWAP3 SWAP2 POP POP JUMP JUMPDEST PUSH1 0x0 DUP2 MLOAD SWAP1 POP SWAP2 SWAP1 POP JUMP JUMPDEST PUSH1 0x0 DUP3 DUP3 MSTORE PUSH1 0x20 DUP3 ADD SWAP1 POP SWAP3 SWAP2 POP POP JUMP JUMPDEST PUSH1 0x0 JUMPDEST DUP4 DUP2 LT ISZERO PUSH2 0x38B JUMPI DUP1 DUP3 ADD MLOAD DUP2 DUP5 ADD MSTORE PUSH1 0x20 DUP2 ADD SWAP1 POP PUSH2 0x370 JUMP JUMPDEST PUSH1 0x0 DUP5 DUP5 ADD MSTORE POP POP POP POP JUMP JUMPDEST PUSH1 0x0 PUSH1 0x1F NOT PUSH1 0x1F DUP4 ADD AND SWAP1 POP SWAP2 SWAP1 POP JUMP JUMPDEST PUSH1 0x0 PUSH2 0x3B3 DUP3 PUSH2 0x351 JUMP JUMPDEST PUSH2 0x3BD DUP2 DUP6 PUSH2 0x35C JUMP JUMPDEST SWAP4 POP PUSH2 0x3CD DUP2 DUP6 PUSH1 0x20 DUP7 ADD PUSH2 0x36D JUMP JUMPDEST PUSH2 0x3D6 DUP2 PUSH2 0x397 JUMP JUMPDEST DUP5 ADD SWAP2 POP POP SWAP3 SWAP2 POP POP JUMP JUMPDEST PUSH1 0x0 PUSH1 0x20 DUP3 ADD SWAP1 POP DUP2 DUP2 SUB PUSH1 0x0 DUP4 ADD MSTORE PUSH2 0x3FB DUP2 DUP5 PUSH2 0x3A8 JUMP JUMPDEST SWAP1 POP SWAP3 SWAP2 POP POP JUMP JUMPDEST PUSH1 0x0 DUP1 REVERT JUMPDEST PUSH1 0x0 DUP1 REVERT JUMPDEST PUSH1 0x0 DUP1 REVERT JUMPDEST PUSH1 0x0 DUP1 DUP4 PUSH1 0x1F DUP5 ADD SLT PUSH2 0x428 JUMPI PUSH2 0x427 PUSH2 0x403 JUMP JUMPDEST JUMPDEST DUP3 CALLDATALOAD SWAP1 POP PUSH8 0xFFFFFFFFFFFFFFFF DUP2 GT ISZERO PUSH2 0x445 JUMPI PUSH2 0x444 PUSH2 0x408 JUMP JUMPDEST JUMPDEST PUSH1 0x20 DUP4 ADD SWAP2 POP DUP4 PUSH1 0x1 DUP3 MUL DUP4 ADD GT ISZERO PUSH2 0x461 JUMPI PUSH2 0x460 PUSH2 0x40D JUMP JUMPDEST JUMPDEST SWAP3 POP SWAP3 SWAP1 POP JUMP JUMPDEST PUSH1 0x0 DUP1 PUSH1 0x0 PUSH1 0x40 DUP5 DUP7 SUB SLT ISZERO PUSH2 0x481 JUMPI PUSH2 0x480 PUSH2 0x2E4 JUMP JUMPDEST JUMPDEST PUSH1 0x0 PUSH2 0x48F DUP7 DUP3 DUP8 ADD PUSH2 0x30F JUMP JUMPDEST SWAP4 POP POP PUSH1 0x20 DUP5 ADD CALLDATALOAD PUSH8 0xFFFFFFFFFFFFFFFF DUP2 GT ISZERO PUSH2 0x4B0 JUMPI PUSH2 0x4AF PUSH2 0x2E9 JUMP JUMPDEST JUMPDEST PUSH2 0x4BC DUP7 DUP3 DUP8 ADD PUSH2 0x412 JUMP JUMPDEST SWAP3 POP SWAP3 POP POP SWAP3 POP SWAP3 POP SWAP3 JUMP JUMPDEST PUSH2 0x4D1 DUP2 PUSH2 0x2EE JUMP JUMPDEST DUP3 MSTORE POP POP JUMP JUMPDEST PUSH1 0x0 PUSH1 0x20 DUP3 ADD SWAP1 POP PUSH2 0x4EC PUSH1 0x0 DUP4 ADD DUP5 PUSH2 0x4C8 JUMP JUMPDEST SWAP3 SWAP2 POP POP JUMP JUMPDEST PUSH32 0x4E487B7100000000000000000000000000000000000000000000000000000000 PUSH1 0x0 MSTORE PUSH1 0x22 PUSH1 0x4 MSTORE PUSH1 0x24 PUSH1 0x0 REVERT JUMPDEST PUSH1 0x0 PUSH1 0x2 DUP3 DIV SWAP1 POP PUSH1 0x1 DUP3 AND DUP1 PUSH2 0x539 JUMPI PUSH1 0x7F DUP3 AND SWAP2 POP JUMPDEST PUSH1 0x20 DUP3 LT DUP2 SUB PUSH2 0x54C JUMPI PUSH2 0x54B PUSH2 0x4F2 JUMP JUMPDEST JUMPDEST POP SWAP2 SWAP1 POP JUMP JUMPDEST PUSH32 0x4E487B7100000000000000000000000000000000000000000000000000000000 PUSH1 0x0 MSTORE PUSH1 0x31 PUSH1 0x4 MSTORE PUSH1 0x24 PUSH1 0x0 REVERT JUMPDEST PUSH1 0x0 DUP3 SWAP1 POP SWAP3 SWAP2 POP POP JUMP JUMPDEST PUSH32 0x4E487B7100000000000000000000000000000000000000000000000000000000 PUSH1 0x0 MSTORE PUSH1 0x41 PUSH1 0x4 MSTORE PUSH1 0x24 PUSH1 0x0 REVERT JUMPDEST PUSH1 0x0 DUP2 SWAP1 POP DUP2 PUSH1 0x0 MSTORE PUSH1 0x20 PUSH1 0x0 KECCAK256 SWAP1 POP SWAP2 SWAP1 POP JUMP JUMPDEST PUSH1 0x0 PUSH1 0x20 PUSH1 0x1F DUP4 ADD DIV SWAP1 POP SWAP2 SWAP1 POP JUMP JUMPDEST PUSH1 0x0 DUP3 DUP3 SHL SWAP1 POP SWAP3 SWAP2 POP POP JUMP JUMPDEST PUSH1 0x0 PUSH1 0x8 DUP4 MUL PUSH2 0x61D PUSH32 0xFFFFFFFFFFFFFFFFFFFFFFFFFFFFFFFFFFFFFFFFFFFFFFFFFFFFFFFFFFFFFFFF DUP3 PUSH2 0x5E0 JUMP JUMPDEST PUSH2 0x627 DUP7 DUP4 PUSH2 0x5E0 JUMP JUMPDEST SWAP6 POP DUP1 NOT DUP5 AND SWAP4 POP DUP1 DUP7 AND DUP5 OR SWAP3 POP POP POP SWAP4 SWAP3 POP POP POP JUMP JUMPDEST PUSH1 0x0 DUP2 SWAP1 POP SWAP2 SWAP1 POP JUMP JUMPDEST PUSH1 0x0 PUSH2 0x664 PUSH2 0x65F PUSH2 0x65A DUP5 PUSH2 0x2EE JUMP JUMPDEST PUSH2 0x63F JUMP JUMPDEST PUSH2 0x2EE JUMP JUMPDEST SWAP1 POP SWAP2 SWAP1 POP JUMP JUMPDEST PUSH1 0x0 DUP2 SWAP1 POP SWAP2 SWAP1 POP JUMP JUMPDEST PUSH2 0x67E DUP4 PUSH2 0x649 JUMP JUMPDEST PUSH2 0x692 PUSH2 0x68A DUP3 PUSH2 0x66B JUMP JUMPDEST DUP5 DUP5 SLOAD PUSH2 0x5ED JUMP JUMPDEST DUP3 SSTORE POP POP POP POP JUMP JUMPDEST PUSH1 0x0 SWAP1 JUMP JUMPDEST PUSH2 0x6A7 PUSH2 0x69A JUMP JUMPDEST PUSH2 0x6B2 DUP2 DUP5 DUP5 PUSH2 0x675 JUMP JUMPDEST POP POP POP JUMP JUMPDEST JUMPDEST DUP2 DUP2 LT ISZERO PUSH2 0x6D6 JUMPI PUSH2 0x6CB PUSH1 0x0 DUP3 PUSH2 0x69F JUMP JUMPDEST PUSH1 0x1 DUP2 ADD SWAP1 POP PUSH2 0x6B8 JUMP JUMPDEST POP POP JUMP JUMPDEST PUSH1 0x1F DUP3 GT ISZERO PUSH2 0x71B JUMPI PUSH2 0x6EC DUP2 PUSH2 0x5BB JUMP JUMPDEST PUSH2 0x6F5 DUP5 PUSH2 0x5D0 JUMP JUMPDEST DUP2 ADD PUSH1 0x20 DUP6 LT ISZERO PUSH2 0x704 JUMPI DUP2 SWAP1 POP JUMPDEST PUSH2 0x718 PUSH2 0x710 DUP6 PUSH2 0x5D0 JUMP JUMPDEST DUP4 ADD DUP3 PUSH2 0x6B7 JUMP JUMPDEST POP POP JUMPDEST POP POP POP JUMP JUMPDEST PUSH1 0x0 DUP3 DUP3 SHR SWAP1 POP SWAP3 SWAP2 POP POP JUMP JUMPDEST PUSH1 0x0 PUSH2 0x73E PUSH1 0x0 NOT DUP5 PUSH1 0x8 MUL PUSH2 0x720 JUMP JUMPDEST NOT DUP1 DUP4 AND SWAP2 POP POP SWAP3 SWAP2 POP POP JUMP JUMPDEST PUSH1 0x0 PUSH2 0x757 DUP4 DUP4 PUSH2 0x72D JUMP JUMPDEST SWAP2 POP DUP3 PUSH1 0x2 MUL DUP3 OR SWAP1 POP SWAP3 SWAP2 POP POP JUMP JUMPDEST PUSH2 0x771 DUP4 DUP4 PUSH2 0x581 JUMP JUMPDEST PUSH8 0xFFFFFFFFFFFFFFFF DUP2 GT ISZERO PUSH2 0x78A JUMPI PUSH2 0x789 PUSH2 0x58C JUMP JUMPDEST JUMPDEST PUSH2 0x794 DUP3 SLOAD PUSH2 0x521 JUMP JUMPDEST PUSH2 0x79F DUP3 DUP3 DUP6 PUSH2 0x6DA JUMP JUMPDEST PUSH1 0x0 PUSH1 0x1F DUP4 GT PUSH1 0x1 DUP2 EQ PUSH2 0x7CE JUMPI PUSH1 0x0 DUP5 ISZERO PUSH2 0x7BC JUMPI DUP3 DUP8 ADD CALLDATALOAD SWAP1 POP JUMPDEST PUSH2 0x7C6 DUP6 DUP3 PUSH2 0x74B JUMP JUMPDEST DUP7 SSTORE POP PUSH2 0x82E JUMP JUMPDEST PUSH1 0x1F NOT DUP5 AND PUSH2 0x7DC DUP7 PUSH2 0x5BB JUMP JUMPDEST PUSH1 0x0 JUMPDEST DUP3 DUP2 LT ISZERO PUSH2 0x804 JUMPI DUP5 DUP10 ADD CALLDATALOAD DUP3 SSTORE PUSH1 0x1 DUP3 ADD SWAP2 POP PUSH1 0x20 DUP6 ADD SWAP5 POP PUSH1 0x20 DUP2 ADD SWAP1 POP PUSH2 0x7DF JUMP JUMPDEST DUP7 DUP4 LT ISZERO PUSH2 0x821 JUMPI DUP5 DUP10 ADD CALLDATALOAD PUSH2 0x81D PUSH1 0x1F DUP10 AND DUP3 PUSH2 0x72D JUMP JUMPDEST DUP4 SSTORE POP JUMPDEST PUSH1 0x1 PUSH1 0x2 DUP9 MUL ADD DUP9 SSTORE POP POP POP JUMPDEST POP POP POP POP POP POP POP JUMP INVALID LOG2 PUSH5 0x6970667358 0x22 SLT KECCAK256 DUP6 MOD 0xCD 0xAD 0x1E SWAP8 0x49 0xC1 0x1F 0xE2 0xE9 0xF7 RETURN SWAP6 PUSH21 0x3DEE7017A41C06C8E379D0610682A9A25A64736F6C PUSH4 0x43000812 STOP CALLER "
				},
				"gasEstimates": {
					"creation": {
						"codeDepositCost": "431400",
						"executionCost": "468",
						"totalCost": "431868"
					},
					"external": {
						"day(uint256)": "infinite",
						"deleteNameOfIndex(uint256)": "infinite",
						"indexAndName(uint256)": "infinite",
						"popLast()": "29445",
						"push(uint256)": "46895",
						"set(uint256,string)": "infinite"
					}
				},
				"methodIdentifiers": {
					"day(uint256)": "8ff12b6d",
					"deleteNameOfIndex(uint256)": "ff7b791d",
					"indexAndName(uint256)": "2a2e6cb7",
					"popLast()": "506c16ee",
					"push(uint256)": "959ac484",
					"set(uint256,string)": "64371977"
				}
			},
			"storageLayout": {
				"storage": [
					{
						"astId": 5,
						"contract": "retest.sol:testMapping",
						"label": "indexAndName",
						"offset": 0,
						"slot": "0",
						"type": "t_mapping(t_uint256,t_string_storage)"
					},
					{
						"astId": 8,
						"contract": "retest.sol:testMapping",
						"label": "day",
						"offset": 0,
						"slot": "1",
						"type": "t_array(t_uint256)dyn_storage"
					}
				],
				"types": {
					"t_array(t_uint256)dyn_storage": {
						"base": "t_uint256",
						"encoding": "dynamic_array",
						"label": "uint256[]",
						"numberOfBytes": "32"
					},
					"t_mapping(t_uint256,t_string_storage)": {
						"encoding": "mapping",
						"key": "t_uint256",
						"label": "mapping(uint256 => string)",
						"numberOfBytes": "32",
						"value": "t_string_storage"
					},
					"t_string_storage": {
						"encoding": "bytes",
						"label": "string",
						"numberOfBytes": "32"
					},
					"t_uint256": {
						"encoding": "inplace",
						"label": "uint256",
						"numberOfBytes": "32"
					}
				}
			},
			"userdoc": {
				"kind": "user",
				"methods": {},
				"version": 1
			}
		}
	}
}