{
	"TestCallWithValue.sol": {
		"Test": {
			"abi": [
				{
					"inputs": [
						{
							"internalType": "address",
							"name": "_add",
							"type": "address"
						},
						{
							"internalType": "bytes",
							"name": "_data",
							"type": "bytes"
						},
						{
							"internalType": "uint256",
							"name": "_num",
							"type": "uint256"
						}
					],
					"name": "executeTransaction",
					"outputs": [],
					"stateMutability": "nonpayable",
					"type": "function"
				},
				{
					"stateMutability": "payable",
					"type": "receive"
				}
			],
			"devdoc": {
				"kind": "dev",
				"methods": {},
				"version": 1
			},
			"evm": {
				"assembly": "    /* \"TestCallWithValue.sol\":59:344  contract Test{... */\n  mstore(0x40, 0x80)\n  callvalue\n  dup1\n  iszero\n  tag_1\n  jumpi\n  0x00\n  dup1\n  revert\ntag_1:\n  pop\n  dataSize(sub_0)\n  dup1\n  dataOffset(sub_0)\n  0x00\n  codecopy\n  0x00\n  return\nstop\n\nsub_0: assembly {\n        /* \"TestCallWithValue.sol\":59:344  contract Test{... */\n      mstore(0x40, 0x80)\n      jumpi(tag_1, lt(calldatasize, 0x04))\n      shr(0xe0, calldataload(0x00))\n      dup1\n      0x6b8d7a12\n      eq\n      tag_3\n      jumpi\n      jump(tag_2)\n    tag_1:\n      jumpi(tag_2, calldatasize)\n      stop\n    tag_2:\n      0x00\n      dup1\n      revert\n        /* \"TestCallWithValue.sol\":78:308  function executeTransaction(... */\n    tag_3:\n      callvalue\n      dup1\n      iszero\n      tag_6\n      jumpi\n      0x00\n      dup1\n      revert\n    tag_6:\n      pop\n      tag_7\n      0x04\n      dup1\n      calldatasize\n      sub\n      dup2\n      add\n      swap1\n      tag_8\n      swap2\n      swap1\n      tag_9\n      jump\t// in\n    tag_8:\n      tag_10\n      jump\t// in\n    tag_7:\n      stop\n    tag_10:\n        /* \"TestCallWithValue.sol\":183:195  bool success */\n      0x00\n        /* \"TestCallWithValue.sol\":210:214  _add */\n      dup4\n        /* \"TestCallWithValue.sol\":201:220  payable (_add).call */\n      0xffffffffffffffffffffffffffffffffffffffff\n      and\n        /* \"TestCallWithValue.sol\":228:232  _num */\n      dup3\n        /* \"TestCallWithValue.sol\":247:252  _data */\n      dup5\n        /* \"TestCallWithValue.sol\":201:262  payable (_add).call{value: _num}(... */\n      mload(0x40)\n      tag_12\n      swap2\n      swap1\n      tag_13\n      jump\t// in\n    tag_12:\n      0x00\n      mload(0x40)\n      dup1\n      dup4\n      sub\n      dup2\n      dup6\n      dup8\n      gas\n      call\n      swap3\n      pop\n      pop\n      pop\n      returndatasize\n      dup1\n      0x00\n      dup2\n      eq\n      tag_16\n      jumpi\n      mload(0x40)\n      swap2\n      pop\n      and(add(returndatasize, 0x3f), not(0x1f))\n      dup3\n      add\n      0x40\n      mstore\n      returndatasize\n      dup3\n      mstore\n      returndatasize\n      0x00\n      0x20\n      dup5\n      add\n      returndatacopy\n      jump(tag_15)\n    tag_16:\n      0x60\n      swap2\n      pop\n    tag_15:\n      pop\n        /* \"TestCallWithValue.sol\":182:262  (bool success, ) = payable (_add).call{value: _num}(... */\n      pop\n      swap1\n      pop\n        /* \"TestCallWithValue.sol\":280:287  success */\n      dup1\n        /* \"TestCallWithValue.sol\":272:301  require(success, \"tx failed\") */\n      tag_17\n      jumpi\n      mload(0x40)\n      0x08c379a000000000000000000000000000000000000000000000000000000000\n      dup2\n      mstore\n      0x04\n      add\n      tag_18\n      swap1\n      tag_19\n      jump\t// in\n    tag_18:\n      mload(0x40)\n      dup1\n      swap2\n      sub\n      swap1\n      revert\n    tag_17:\n        /* \"TestCallWithValue.sol\":172:308  {... */\n      pop\n        /* \"TestCallWithValue.sol\":78:308  function executeTransaction(... */\n      pop\n      pop\n      pop\n      jump\t// out\n        /* \"#utility.yul\":7:82   */\n    tag_20:\n        /* \"#utility.yul\":40:46   */\n      0x00\n        /* \"#utility.yul\":73:75   */\n      0x40\n        /* \"#utility.yul\":67:76   */\n      mload\n        /* \"#utility.yul\":57:76   */\n      swap1\n      pop\n        /* \"#utility.yul\":7:82   */\n      swap1\n      jump\t// out\n        /* \"#utility.yul\":88:205   */\n    tag_21:\n        /* \"#utility.yul\":197:198   */\n      0x00\n        /* \"#utility.yul\":194:195   */\n      dup1\n        /* \"#utility.yul\":187:199   */\n      revert\n        /* \"#utility.yul\":211:328   */\n    tag_22:\n        /* \"#utility.yul\":320:321   */\n      0x00\n        /* \"#utility.yul\":317:318   */\n      dup1\n        /* \"#utility.yul\":310:322   */\n      revert\n        /* \"#utility.yul\":334:460   */\n    tag_23:\n        /* \"#utility.yul\":371:378   */\n      0x00\n        /* \"#utility.yul\":411:453   */\n      0xffffffffffffffffffffffffffffffffffffffff\n        /* \"#utility.yul\":404:409   */\n      dup3\n        /* \"#utility.yul\":400:454   */\n      and\n        /* \"#utility.yul\":389:454   */\n      swap1\n      pop\n        /* \"#utility.yul\":334:460   */\n      swap2\n      swap1\n      pop\n      jump\t// out\n        /* \"#utility.yul\":466:562   */\n    tag_24:\n        /* \"#utility.yul\":503:510   */\n      0x00\n        /* \"#utility.yul\":532:556   */\n      tag_53\n        /* \"#utility.yul\":550:555   */\n      dup3\n        /* \"#utility.yul\":532:556   */\n      tag_23\n      jump\t// in\n    tag_53:\n        /* \"#utility.yul\":521:556   */\n      swap1\n      pop\n        /* \"#utility.yul\":466:562   */\n      swap2\n      swap1\n      pop\n      jump\t// out\n        /* \"#utility.yul\":568:690   */\n    tag_25:\n        /* \"#utility.yul\":641:665   */\n      tag_55\n        /* \"#utility.yul\":659:664   */\n      dup2\n        /* \"#utility.yul\":641:665   */\n      tag_24\n      jump\t// in\n    tag_55:\n        /* \"#utility.yul\":634:639   */\n      dup2\n        /* \"#utility.yul\":631:666   */\n      eq\n        /* \"#utility.yul\":621:684   */\n      tag_56\n      jumpi\n        /* \"#utility.yul\":680:681   */\n      0x00\n        /* \"#utility.yul\":677:678   */\n      dup1\n        /* \"#utility.yul\":670:682   */\n      revert\n        /* \"#utility.yul\":621:684   */\n    tag_56:\n        /* \"#utility.yul\":568:690   */\n      pop\n      jump\t// out\n        /* \"#utility.yul\":696:835   */\n    tag_26:\n        /* \"#utility.yul\":742:747   */\n      0x00\n        /* \"#utility.yul\":780:786   */\n      dup2\n        /* \"#utility.yul\":767:787   */\n      calldataload\n        /* \"#utility.yul\":758:787   */\n      swap1\n      pop\n        /* \"#utility.yul\":796:829   */\n      tag_58\n        /* \"#utility.yul\":823:828   */\n      dup2\n        /* \"#utility.yul\":796:829   */\n      tag_25\n      jump\t// in\n    tag_58:\n        /* \"#utility.yul\":696:835   */\n      swap3\n      swap2\n      pop\n      pop\n      jump\t// out\n        /* \"#utility.yul\":841:958   */\n    tag_27:\n        /* \"#utility.yul\":950:951   */\n      0x00\n        /* \"#utility.yul\":947:948   */\n      dup1\n        /* \"#utility.yul\":940:952   */\n      revert\n        /* \"#utility.yul\":964:1081   */\n    tag_28:\n        /* \"#utility.yul\":1073:1074   */\n      0x00\n        /* \"#utility.yul\":1070:1071   */\n      dup1\n        /* \"#utility.yul\":1063:1075   */\n      revert\n        /* \"#utility.yul\":1087:1189   */\n    tag_29:\n        /* \"#utility.yul\":1128:1134   */\n      0x00\n        /* \"#utility.yul\":1179:1181   */\n      0x1f\n        /* \"#utility.yul\":1175:1182   */\n      not\n        /* \"#utility.yul\":1170:1172   */\n      0x1f\n        /* \"#utility.yul\":1163:1168   */\n      dup4\n        /* \"#utility.yul\":1159:1173   */\n      add\n        /* \"#utility.yul\":1155:1183   */\n      and\n        /* \"#utility.yul\":1145:1183   */\n      swap1\n      pop\n        /* \"#utility.yul\":1087:1189   */\n      swap2\n      swap1\n      pop\n      jump\t// out\n        /* \"#utility.yul\":1195:1375   */\n    tag_30:\n        /* \"#utility.yul\":1243:1320   */\n      0x4e487b7100000000000000000000000000000000000000000000000000000000\n        /* \"#utility.yul\":1240:1241   */\n      0x00\n        /* \"#utility.yul\":1233:1321   */\n      mstore\n        /* \"#utility.yul\":1340:1344   */\n      0x41\n        /* \"#utility.yul\":1337:1338   */\n      0x04\n        /* \"#utility.yul\":1330:1345   */\n      mstore\n        /* \"#utility.yul\":1364:1368   */\n      0x24\n        /* \"#utility.yul\":1361:1362   */\n      0x00\n        /* \"#utility.yul\":1354:1369   */\n      revert\n        /* \"#utility.yul\":1381:1662   */\n    tag_31:\n        /* \"#utility.yul\":1464:1491   */\n      tag_64\n        /* \"#utility.yul\":1486:1490   */\n      dup3\n        /* \"#utility.yul\":1464:1491   */\n      tag_29\n      jump\t// in\n    tag_64:\n        /* \"#utility.yul\":1456:1462   */\n      dup2\n        /* \"#utility.yul\":1452:1492   */\n      add\n        /* \"#utility.yul\":1594:1600   */\n      dup2\n        /* \"#utility.yul\":1582:1592   */\n      dup2\n        /* \"#utility.yul\":1579:1601   */\n      lt\n        /* \"#utility.yul\":1558:1576   */\n      0xffffffffffffffff\n        /* \"#utility.yul\":1546:1556   */\n      dup3\n        /* \"#utility.yul\":1543:1577   */\n      gt\n        /* \"#utility.yul\":1540:1602   */\n      or\n        /* \"#utility.yul\":1537:1625   */\n      iszero\n      tag_65\n      jumpi\n        /* \"#utility.yul\":1605:1623   */\n      tag_66\n      tag_30\n      jump\t// in\n    tag_66:\n        /* \"#utility.yul\":1537:1625   */\n    tag_65:\n        /* \"#utility.yul\":1645:1655   */\n      dup1\n        /* \"#utility.yul\":1641:1643   */\n      0x40\n        /* \"#utility.yul\":1634:1656   */\n      mstore\n        /* \"#utility.yul\":1424:1662   */\n      pop\n        /* \"#utility.yul\":1381:1662   */\n      pop\n      pop\n      jump\t// out\n        /* \"#utility.yul\":1668:1797   */\n    tag_32:\n        /* \"#utility.yul\":1702:1708   */\n      0x00\n        /* \"#utility.yul\":1729:1749   */\n      tag_68\n      tag_20\n      jump\t// in\n    tag_68:\n        /* \"#utility.yul\":1719:1749   */\n      swap1\n      pop\n        /* \"#utility.yul\":1758:1791   */\n      tag_69\n        /* \"#utility.yul\":1786:1790   */\n      dup3\n        /* \"#utility.yul\":1778:1784   */\n      dup3\n        /* \"#utility.yul\":1758:1791   */\n      tag_31\n      jump\t// in\n    tag_69:\n        /* \"#utility.yul\":1668:1797   */\n      swap2\n      swap1\n      pop\n      jump\t// out\n        /* \"#utility.yul\":1803:2110   */\n    tag_33:\n        /* \"#utility.yul\":1864:1868   */\n      0x00\n        /* \"#utility.yul\":1954:1972   */\n      0xffffffffffffffff\n        /* \"#utility.yul\":1946:1952   */\n      dup3\n        /* \"#utility.yul\":1943:1973   */\n      gt\n        /* \"#utility.yul\":1940:1996   */\n      iszero\n      tag_71\n      jumpi\n        /* \"#utility.yul\":1976:1994   */\n      tag_72\n      tag_30\n      jump\t// in\n    tag_72:\n        /* \"#utility.yul\":1940:1996   */\n    tag_71:\n        /* \"#utility.yul\":2014:2043   */\n      tag_73\n        /* \"#utility.yul\":2036:2042   */\n      dup3\n        /* \"#utility.yul\":2014:2043   */\n      tag_29\n      jump\t// in\n    tag_73:\n        /* \"#utility.yul\":2006:2043   */\n      swap1\n      pop\n        /* \"#utility.yul\":2098:2102   */\n      0x20\n        /* \"#utility.yul\":2092:2096   */\n      dup2\n        /* \"#utility.yul\":2088:2103   */\n      add\n        /* \"#utility.yul\":2080:2103   */\n      swap1\n      pop\n        /* \"#utility.yul\":1803:2110   */\n      swap2\n      swap1\n      pop\n      jump\t// out\n        /* \"#utility.yul\":2116:2262   */\n    tag_34:\n        /* \"#utility.yul\":2213:2219   */\n      dup3\n        /* \"#utility.yul\":2208:2211   */\n      dup2\n        /* \"#utility.yul\":2203:2206   */\n      dup4\n        /* \"#utility.yul\":2190:2220   */\n      calldatacopy\n        /* \"#utility.yul\":2254:2255   */\n      0x00\n        /* \"#utility.yul\":2245:2251   */\n      dup4\n        /* \"#utility.yul\":2240:2243   */\n      dup4\n        /* \"#utility.yul\":2236:2252   */\n      add\n        /* \"#utility.yul\":2229:2256   */\n      mstore\n        /* \"#utility.yul\":2116:2262   */\n      pop\n      pop\n      pop\n      jump\t// out\n        /* \"#utility.yul\":2268:2691   */\n    tag_35:\n        /* \"#utility.yul\":2345:2350   */\n      0x00\n        /* \"#utility.yul\":2370:2435   */\n      tag_76\n        /* \"#utility.yul\":2386:2434   */\n      tag_77\n        /* \"#utility.yul\":2427:2433   */\n      dup5\n        /* \"#utility.yul\":2386:2434   */\n      tag_33\n      jump\t// in\n    tag_77:\n        /* \"#utility.yul\":2370:2435   */\n      tag_32\n      jump\t// in\n    tag_76:\n        /* \"#utility.yul\":2361:2435   */\n      swap1\n      pop\n        /* \"#utility.yul\":2458:2464   */\n      dup3\n        /* \"#utility.yul\":2451:2456   */\n      dup2\n        /* \"#utility.yul\":2444:2465   */\n      mstore\n        /* \"#utility.yul\":2496:2500   */\n      0x20\n        /* \"#utility.yul\":2489:2494   */\n      dup2\n        /* \"#utility.yul\":2485:2501   */\n      add\n        /* \"#utility.yul\":2534:2537   */\n      dup5\n        /* \"#utility.yul\":2525:2531   */\n      dup5\n        /* \"#utility.yul\":2520:2523   */\n      dup5\n        /* \"#utility.yul\":2516:2532   */\n      add\n        /* \"#utility.yul\":2513:2538   */\n      gt\n        /* \"#utility.yul\":2510:2622   */\n      iszero\n      tag_78\n      jumpi\n        /* \"#utility.yul\":2541:2620   */\n      tag_79\n      tag_28\n      jump\t// in\n    tag_79:\n        /* \"#utility.yul\":2510:2622   */\n    tag_78:\n        /* \"#utility.yul\":2631:2685   */\n      tag_80\n        /* \"#utility.yul\":2678:2684   */\n      dup5\n        /* \"#utility.yul\":2673:2676   */\n      dup3\n        /* \"#utility.yul\":2668:2671   */\n      dup6\n        /* \"#utility.yul\":2631:2685   */\n      tag_34\n      jump\t// in\n    tag_80:\n        /* \"#utility.yul\":2351:2691   */\n      pop\n        /* \"#utility.yul\":2268:2691   */\n      swap4\n      swap3\n      pop\n      pop\n      pop\n      jump\t// out\n        /* \"#utility.yul\":2710:3048   */\n    tag_36:\n        /* \"#utility.yul\":2765:2770   */\n      0x00\n        /* \"#utility.yul\":2814:2817   */\n      dup3\n        /* \"#utility.yul\":2807:2811   */\n      0x1f\n        /* \"#utility.yul\":2799:2805   */\n      dup4\n        /* \"#utility.yul\":2795:2812   */\n      add\n        /* \"#utility.yul\":2791:2818   */\n      slt\n        /* \"#utility.yul\":2781:2903   */\n      tag_82\n      jumpi\n        /* \"#utility.yul\":2822:2901   */\n      tag_83\n      tag_27\n      jump\t// in\n    tag_83:\n        /* \"#utility.yul\":2781:2903   */\n    tag_82:\n        /* \"#utility.yul\":2939:2945   */\n      dup2\n        /* \"#utility.yul\":2926:2946   */\n      calldataload\n        /* \"#utility.yul\":2964:3042   */\n      tag_84\n        /* \"#utility.yul\":3038:3041   */\n      dup5\n        /* \"#utility.yul\":3030:3036   */\n      dup3\n        /* \"#utility.yul\":3023:3027   */\n      0x20\n        /* \"#utility.yul\":3015:3021   */\n      dup7\n        /* \"#utility.yul\":3011:3028   */\n      add\n        /* \"#utility.yul\":2964:3042   */\n      tag_35\n      jump\t// in\n    tag_84:\n        /* \"#utility.yul\":2955:3042   */\n      swap2\n      pop\n        /* \"#utility.yul\":2771:3048   */\n      pop\n        /* \"#utility.yul\":2710:3048   */\n      swap3\n      swap2\n      pop\n      pop\n      jump\t// out\n        /* \"#utility.yul\":3054:3131   */\n    tag_37:\n        /* \"#utility.yul\":3091:3098   */\n      0x00\n        /* \"#utility.yul\":3120:3125   */\n      dup2\n        /* \"#utility.yul\":3109:3125   */\n      swap1\n      pop\n        /* \"#utility.yul\":3054:3131   */\n      swap2\n      swap1\n      pop\n      jump\t// out\n        /* \"#utility.yul\":3137:3259   */\n    tag_38:\n        /* \"#utility.yul\":3210:3234   */\n      tag_87\n        /* \"#utility.yul\":3228:3233   */\n      dup2\n        /* \"#utility.yul\":3210:3234   */\n      tag_37\n      jump\t// in\n    tag_87:\n        /* \"#utility.yul\":3203:3208   */\n      dup2\n        /* \"#utility.yul\":3200:3235   */\n      eq\n        /* \"#utility.yul\":3190:3253   */\n      tag_88\n      jumpi\n        /* \"#utility.yul\":3249:3250   */\n      0x00\n        /* \"#utility.yul\":3246:3247   */\n      dup1\n        /* \"#utility.yul\":3239:3251   */\n      revert\n        /* \"#utility.yul\":3190:3253   */\n    tag_88:\n        /* \"#utility.yul\":3137:3259   */\n      pop\n      jump\t// out\n        /* \"#utility.yul\":3265:3404   */\n    tag_39:\n        /* \"#utility.yul\":3311:3316   */\n      0x00\n        /* \"#utility.yul\":3349:3355   */\n      dup2\n        /* \"#utility.yul\":3336:3356   */\n      calldataload\n        /* \"#utility.yul\":3327:3356   */\n      swap1\n      pop\n        /* \"#utility.yul\":3365:3398   */\n      tag_90\n        /* \"#utility.yul\":3392:3397   */\n      dup2\n        /* \"#utility.yul\":3365:3398   */\n      tag_38\n      jump\t// in\n    tag_90:\n        /* \"#utility.yul\":3265:3404   */\n      swap3\n      swap2\n      pop\n      pop\n      jump\t// out\n        /* \"#utility.yul\":3410:4207   */\n    tag_9:\n        /* \"#utility.yul\":3496:3502   */\n      0x00\n        /* \"#utility.yul\":3504:3510   */\n      dup1\n        /* \"#utility.yul\":3512:3518   */\n      0x00\n        /* \"#utility.yul\":3561:3563   */\n      0x60\n        /* \"#utility.yul\":3549:3558   */\n      dup5\n        /* \"#utility.yul\":3540:3547   */\n      dup7\n        /* \"#utility.yul\":3536:3559   */\n      sub\n        /* \"#utility.yul\":3532:3564   */\n      slt\n        /* \"#utility.yul\":3529:3648   */\n      iszero\n      tag_92\n      jumpi\n        /* \"#utility.yul\":3567:3646   */\n      tag_93\n      tag_21\n      jump\t// in\n    tag_93:\n        /* \"#utility.yul\":3529:3648   */\n    tag_92:\n        /* \"#utility.yul\":3687:3688   */\n      0x00\n        /* \"#utility.yul\":3712:3765   */\n      tag_94\n        /* \"#utility.yul\":3757:3764   */\n      dup7\n        /* \"#utility.yul\":3748:3754   */\n      dup3\n        /* \"#utility.yul\":3737:3746   */\n      dup8\n        /* \"#utility.yul\":3733:3755   */\n      add\n        /* \"#utility.yul\":3712:3765   */\n      tag_26\n      jump\t// in\n    tag_94:\n        /* \"#utility.yul\":3702:3765   */\n      swap4\n      pop\n        /* \"#utility.yul\":3658:3775   */\n      pop\n        /* \"#utility.yul\":3842:3844   */\n      0x20\n        /* \"#utility.yul\":3831:3840   */\n      dup5\n        /* \"#utility.yul\":3827:3845   */\n      add\n        /* \"#utility.yul\":3814:3846   */\n      calldataload\n        /* \"#utility.yul\":3873:3891   */\n      0xffffffffffffffff\n        /* \"#utility.yul\":3865:3871   */\n      dup2\n        /* \"#utility.yul\":3862:3892   */\n      gt\n        /* \"#utility.yul\":3859:3976   */\n      iszero\n      tag_95\n      jumpi\n        /* \"#utility.yul\":3895:3974   */\n      tag_96\n      tag_22\n      jump\t// in\n    tag_96:\n        /* \"#utility.yul\":3859:3976   */\n    tag_95:\n        /* \"#utility.yul\":4000:4062   */\n      tag_97\n        /* \"#utility.yul\":4054:4061   */\n      dup7\n        /* \"#utility.yul\":4045:4051   */\n      dup3\n        /* \"#utility.yul\":4034:4043   */\n      dup8\n        /* \"#utility.yul\":4030:4052   */\n      add\n        /* \"#utility.yul\":4000:4062   */\n      tag_36\n      jump\t// in\n    tag_97:\n        /* \"#utility.yul\":3990:4062   */\n      swap3\n      pop\n        /* \"#utility.yul\":3785:4072   */\n      pop\n        /* \"#utility.yul\":4111:4113   */\n      0x40\n        /* \"#utility.yul\":4137:4190   */\n      tag_98\n        /* \"#utility.yul\":4182:4189   */\n      dup7\n        /* \"#utility.yul\":4173:4179   */\n      dup3\n        /* \"#utility.yul\":4162:4171   */\n      dup8\n        /* \"#utility.yul\":4158:4180   */\n      add\n        /* \"#utility.yul\":4137:4190   */\n      tag_39\n      jump\t// in\n    tag_98:\n        /* \"#utility.yul\":4127:4190   */\n      swap2\n      pop\n        /* \"#utility.yul\":4082:4200   */\n      pop\n        /* \"#utility.yul\":3410:4207   */\n      swap3\n      pop\n      swap3\n      pop\n      swap3\n      jump\t// out\n        /* \"#utility.yul\":4213:4311   */\n    tag_40:\n        /* \"#utility.yul\":4264:4270   */\n      0x00\n        /* \"#utility.yul\":4298:4303   */\n      dup2\n        /* \"#utility.yul\":4292:4304   */\n      mload\n        /* \"#utility.yul\":4282:4304   */\n      swap1\n      pop\n        /* \"#utility.yul\":4213:4311   */\n      swap2\n      swap1\n      pop\n      jump\t// out\n        /* \"#utility.yul\":4317:4464   */\n    tag_41:\n        /* \"#utility.yul\":4418:4429   */\n      0x00\n        /* \"#utility.yul\":4455:4458   */\n      dup2\n        /* \"#utility.yul\":4440:4458   */\n      swap1\n      pop\n        /* \"#utility.yul\":4317:4464   */\n      swap3\n      swap2\n      pop\n      pop\n      jump\t// out\n        /* \"#utility.yul\":4470:4716   */\n    tag_42:\n        /* \"#utility.yul\":4551:4552   */\n      0x00\n        /* \"#utility.yul\":4561:4674   */\n    tag_102:\n        /* \"#utility.yul\":4575:4581   */\n      dup4\n        /* \"#utility.yul\":4572:4573   */\n      dup2\n        /* \"#utility.yul\":4569:4582   */\n      lt\n        /* \"#utility.yul\":4561:4674   */\n      iszero\n      tag_104\n      jumpi\n        /* \"#utility.yul\":4660:4661   */\n      dup1\n        /* \"#utility.yul\":4655:4658   */\n      dup3\n        /* \"#utility.yul\":4651:4662   */\n      add\n        /* \"#utility.yul\":4645:4663   */\n      mload\n        /* \"#utility.yul\":4641:4642   */\n      dup2\n        /* \"#utility.yul\":4636:4639   */\n      dup5\n        /* \"#utility.yul\":4632:4643   */\n      add\n        /* \"#utility.yul\":4625:4664   */\n      mstore\n        /* \"#utility.yul\":4597:4599   */\n      0x20\n        /* \"#utility.yul\":4594:4595   */\n      dup2\n        /* \"#utility.yul\":4590:4600   */\n      add\n        /* \"#utility.yul\":4585:4600   */\n      swap1\n      pop\n        /* \"#utility.yul\":4561:4674   */\n      jump(tag_102)\n    tag_104:\n        /* \"#utility.yul\":4708:4709   */\n      0x00\n        /* \"#utility.yul\":4699:4705   */\n      dup5\n        /* \"#utility.yul\":4694:4697   */\n      dup5\n        /* \"#utility.yul\":4690:4706   */\n      add\n        /* \"#utility.yul\":4683:4710   */\n      mstore\n        /* \"#utility.yul\":4532:4716   */\n      pop\n        /* \"#utility.yul\":4470:4716   */\n      pop\n      pop\n      pop\n      jump\t// out\n        /* \"#utility.yul\":4722:5108   */\n    tag_43:\n        /* \"#utility.yul\":4826:4829   */\n      0x00\n        /* \"#utility.yul\":4854:4892   */\n      tag_106\n        /* \"#utility.yul\":4886:4891   */\n      dup3\n        /* \"#utility.yul\":4854:4892   */\n      tag_40\n      jump\t// in\n    tag_106:\n        /* \"#utility.yul\":4908:4996   */\n      tag_107\n        /* \"#utility.yul\":4989:4995   */\n      dup2\n        /* \"#utility.yul\":4984:4987   */\n      dup6\n        /* \"#utility.yul\":4908:4996   */\n      tag_41\n      jump\t// in\n    tag_107:\n        /* \"#utility.yul\":4901:4996   */\n      swap4\n      pop\n        /* \"#utility.yul\":5005:5070   */\n      tag_108\n        /* \"#utility.yul\":5063:5069   */\n      dup2\n        /* \"#utility.yul\":5058:5061   */\n      dup6\n        /* \"#utility.yul\":5051:5055   */\n      0x20\n        /* \"#utility.yul\":5044:5049   */\n      dup7\n        /* \"#utility.yul\":5040:5056   */\n      add\n        /* \"#utility.yul\":5005:5070   */\n      tag_42\n      jump\t// in\n    tag_108:\n        /* \"#utility.yul\":5095:5101   */\n      dup1\n        /* \"#utility.yul\":5090:5093   */\n      dup5\n        /* \"#utility.yul\":5086:5102   */\n      add\n        /* \"#utility.yul\":5079:5102   */\n      swap2\n      pop\n        /* \"#utility.yul\":4830:5108   */\n      pop\n        /* \"#utility.yul\":4722:5108   */\n      swap3\n      swap2\n      pop\n      pop\n      jump\t// out\n        /* \"#utility.yul\":5114:5385   */\n    tag_13:\n        /* \"#utility.yul\":5244:5247   */\n      0x00\n        /* \"#utility.yul\":5266:5359   */\n      tag_110\n        /* \"#utility.yul\":5355:5358   */\n      dup3\n        /* \"#utility.yul\":5346:5352   */\n      dup5\n        /* \"#utility.yul\":5266:5359   */\n      tag_43\n      jump\t// in\n    tag_110:\n        /* \"#utility.yul\":5259:5359   */\n      swap2\n      pop\n        /* \"#utility.yul\":5376:5379   */\n      dup2\n        /* \"#utility.yul\":5369:5379   */\n      swap1\n      pop\n        /* \"#utility.yul\":5114:5385   */\n      swap3\n      swap2\n      pop\n      pop\n      jump\t// out\n        /* \"#utility.yul\":5391:5560   */\n    tag_44:\n        /* \"#utility.yul\":5475:5486   */\n      0x00\n        /* \"#utility.yul\":5509:5515   */\n      dup3\n        /* \"#utility.yul\":5504:5507   */\n      dup3\n        /* \"#utility.yul\":5497:5516   */\n      mstore\n        /* \"#utility.yul\":5549:5553   */\n      0x20\n        /* \"#utility.yul\":5544:5547   */\n      dup3\n        /* \"#utility.yul\":5540:5554   */\n      add\n        /* \"#utility.yul\":5525:5554   */\n      swap1\n      pop\n        /* \"#utility.yul\":5391:5560   */\n      swap3\n      swap2\n      pop\n      pop\n      jump\t// out\n        /* \"#utility.yul\":5566:5725   */\n    tag_45:\n        /* \"#utility.yul\":5706:5717   */\n      0x7478206661696c65640000000000000000000000000000000000000000000000\n        /* \"#utility.yul\":5702:5703   */\n      0x00\n        /* \"#utility.yul\":5694:5700   */\n      dup3\n        /* \"#utility.yul\":5690:5704   */\n      add\n        /* \"#utility.yul\":5683:5718   */\n      mstore\n        /* \"#utility.yul\":5566:5725   */\n      pop\n      jump\t// out\n        /* \"#utility.yul\":5731:6096   */\n    tag_46:\n        /* \"#utility.yul\":5873:5876   */\n      0x00\n        /* \"#utility.yul\":5894:5960   */\n      tag_114\n        /* \"#utility.yul\":5958:5959   */\n      0x09\n        /* \"#utility.yul\":5953:5956   */\n      dup4\n        /* \"#utility.yul\":5894:5960   */\n      tag_44\n      jump\t// in\n    tag_114:\n        /* \"#utility.yul\":5887:5960   */\n      swap2\n      pop\n        /* \"#utility.yul\":5969:6062   */\n      tag_115\n        /* \"#utility.yul\":6058:6061   */\n      dup3\n        /* \"#utility.yul\":5969:6062   */\n      tag_45\n      jump\t// in\n    tag_115:\n        /* \"#utility.yul\":6087:6089   */\n      0x20\n        /* \"#utility.yul\":6082:6085   */\n      dup3\n        /* \"#utility.yul\":6078:6090   */\n      add\n        /* \"#utility.yul\":6071:6090   */\n      swap1\n      pop\n        /* \"#utility.yul\":5731:6096   */\n      swap2\n      swap1\n      pop\n      jump\t// out\n        /* \"#utility.yul\":6102:6521   */\n    tag_19:\n        /* \"#utility.yul\":6268:6272   */\n      0x00\n        /* \"#utility.yul\":6306:6308   */\n      0x20\n        /* \"#utility.yul\":6295:6304   */\n      dup3\n        /* \"#utility.yul\":6291:6309   */\n      add\n        /* \"#utility.yul\":6283:6309   */\n      swap1\n      pop\n        /* \"#utility.yul\":6355:6364   */\n      dup2\n        /* \"#utility.yul\":6349:6353   */\n      dup2\n        /* \"#utility.yul\":6345:6365   */\n      sub\n        /* \"#utility.yul\":6341:6342   */\n      0x00\n        /* \"#utility.yul\":6330:6339   */\n      dup4\n        /* \"#utility.yul\":6326:6343   */\n      add\n        /* \"#utility.yul\":6319:6366   */\n      mstore\n        /* \"#utility.yul\":6383:6514   */\n      tag_117\n        /* \"#utility.yul\":6509:6513   */\n      dup2\n        /* \"#utility.yul\":6383:6514   */\n      tag_46\n      jump\t// in\n    tag_117:\n        /* \"#utility.yul\":6375:6514   */\n      swap1\n      pop\n        /* \"#utility.yul\":6102:6521   */\n      swap2\n      swap1\n      pop\n      jump\t// out\n\n    auxdata: 0xa2646970667358221220b02e65d737e75862fce02671eb2cd3a399706e7d9bb2b918ffa9acb236ed675864736f6c63430008120033\n}\n",
				"bytecode": {
					"linkReferences": {},
					"object": "608060405234801561001057600080fd5b506104a3806100206000396000f3fe6080604052600436106100225760003560e01c80636b8d7a121461002e57610029565b3661002957005b600080fd5b34801561003a57600080fd5b50610055600480360381019061005091906102f9565b610057565b005b60008373ffffffffffffffffffffffffffffffffffffffff16828460405161007f91906103d9565b60006040518083038185875af1925050503d80600081146100bc576040519150601f19603f3d011682016040523d82523d6000602084013e6100c1565b606091505b5050905080610105576040517f08c379a00000000000000000000000000000000000000000000000000000000081526004016100fc9061044d565b60405180910390fd5b50505050565b6000604051905090565b600080fd5b600080fd5b600073ffffffffffffffffffffffffffffffffffffffff82169050919050565b600061014a8261011f565b9050919050565b61015a8161013f565b811461016557600080fd5b50565b60008135905061017781610151565b92915050565b600080fd5b600080fd5b6000601f19601f8301169050919050565b7f4e487b7100000000000000000000000000000000000000000000000000000000600052604160045260246000fd5b6101d082610187565b810181811067ffffffffffffffff821117156101ef576101ee610198565b5b80604052505050565b600061020261010b565b905061020e82826101c7565b919050565b600067ffffffffffffffff82111561022e5761022d610198565b5b61023782610187565b9050602081019050919050565b82818337600083830152505050565b600061026661026184610213565b6101f8565b90508281526020810184848401111561028257610281610182565b5b61028d848285610244565b509392505050565b600082601f8301126102aa576102a961017d565b5b81356102ba848260208601610253565b91505092915050565b6000819050919050565b6102d6816102c3565b81146102e157600080fd5b50565b6000813590506102f3816102cd565b92915050565b60008060006060848603121561031257610311610115565b5b600061032086828701610168565b935050602084013567ffffffffffffffff8111156103415761034061011a565b5b61034d86828701610295565b925050604061035e868287016102e4565b9150509250925092565b600081519050919050565b600081905092915050565b60005b8381101561039c578082015181840152602081019050610381565b60008484015250505050565b60006103b382610368565b6103bd8185610373565b93506103cd81856020860161037e565b80840191505092915050565b60006103e582846103a8565b915081905092915050565b600082825260208201905092915050565b7f7478206661696c65640000000000000000000000000000000000000000000000600082015250565b60006104376009836103f0565b915061044282610401565b602082019050919050565b600060208201905081810360008301526104668161042a565b905091905056fea2646970667358221220b02e65d737e75862fce02671eb2cd3a399706e7d9bb2b918ffa9acb236ed675864736f6c63430008120033",
					"opcodes": "PUSH1 0x80 PUSH1 0x40 MSTORE CALLVALUE DUP1 ISZERO PUSH2 0x10 JUMPI PUSH1 0x0 DUP1 REVERT JUMPDEST POP PUSH2 0x4A3 DUP1 PUSH2 0x20 PUSH1 0x0 CODECOPY PUSH1 0x0 RETURN INVALID PUSH1 0x80 PUSH1 0x40 MSTORE PUSH1 0x4 CALLDATASIZE LT PUSH2 0x22 JUMPI PUSH1 0x0 CALLDATALOAD PUSH1 0xE0 SHR DUP1 PUSH4 0x6B8D7A12 EQ PUSH2 0x2E JUMPI PUSH2 0x29 JUMP JUMPDEST CALLDATASIZE PUSH2 0x29 JUMPI STOP JUMPDEST PUSH1 0x0 DUP1 REVERT JUMPDEST CALLVALUE DUP1 ISZERO PUSH2 0x3A JUMPI PUSH1 0x0 DUP1 REVERT JUMPDEST POP PUSH2 0x55 PUSH1 0x4 DUP1 CALLDATASIZE SUB DUP2 ADD SWAP1 PUSH2 0x50 SWAP2 SWAP1 PUSH2 0x2F9 JUMP JUMPDEST PUSH2 0x57 JUMP JUMPDEST STOP JUMPDEST PUSH1 0x0 DUP4 PUSH20 0xFFFFFFFFFFFFFFFFFFFFFFFFFFFFFFFFFFFFFFFF AND DUP3 DUP5 PUSH1 0x40 MLOAD PUSH2 0x7F SWAP2 SWAP1 PUSH2 0x3D9 JUMP JUMPDEST PUSH1 0x0 PUSH1 0x40 MLOAD DUP1 DUP4 SUB DUP2 DUP6 DUP8 GAS CALL SWAP3 POP POP POP RETURNDATASIZE DUP1 PUSH1 0x0 DUP2 EQ PUSH2 0xBC JUMPI PUSH1 0x40 MLOAD SWAP2 POP PUSH1 0x1F NOT PUSH1 0x3F RETURNDATASIZE ADD AND DUP3 ADD PUSH1 0x40 MSTORE RETURNDATASIZE DUP3 MSTORE RETURNDATASIZE PUSH1 0x0 PUSH1 0x20 DUP5 ADD RETURNDATACOPY PUSH2 0xC1 JUMP JUMPDEST PUSH1 0x60 SWAP2 POP JUMPDEST POP POP SWAP1 POP DUP1 PUSH2 0x105 JUMPI PUSH1 0x40 MLOAD PUSH32 0x8C379A000000000000000000000000000000000000000000000000000000000 DUP2 MSTORE PUSH1 0x4 ADD PUSH2 0xFC SWAP1 PUSH2 0x44D JUMP JUMPDEST PUSH1 0x40 MLOAD DUP1 SWAP2 SUB SWAP1 REVERT JUMPDEST POP POP POP POP JUMP JUMPDEST PUSH1 0x0 PUSH1 0x40 MLOAD SWAP1 POP SWAP1 JUMP JUMPDEST PUSH1 0x0 DUP1 REVERT JUMPDEST PUSH1 0x0 DUP1 REVERT JUMPDEST PUSH1 0x0 PUSH20 0xFFFFFFFFFFFFFFFFFFFFFFFFFFFFFFFFFFFFFFFF DUP3 AND SWAP1 POP SWAP2 SWAP1 POP JUMP JUMPDEST PUSH1 0x0 PUSH2 0x14A DUP3 PUSH2 0x11F JUMP JUMPDEST SWAP1 POP SWAP2 SWAP1 POP JUMP JUMPDEST PUSH2 0x15A DUP2 PUSH2 0x13F JUMP JUMPDEST DUP2 EQ PUSH2 0x165 JUMPI PUSH1 0x0 DUP1 REVERT JUMPDEST POP JUMP JUMPDEST PUSH1 0x0 DUP2 CALLDATALOAD SWAP1 POP PUSH2 0x177 DUP2 PUSH2 0x151 JUMP JUMPDEST SWAP3 SWAP2 POP POP JUMP JUMPDEST PUSH1 0x0 DUP1 REVERT JUMPDEST PUSH1 0x0 DUP1 REVERT JUMPDEST PUSH1 0x0 PUSH1 0x1F NOT PUSH1 0x1F DUP4 ADD AND SWAP1 POP SWAP2 SWAP1 POP JUMP JUMPDEST PUSH32 0x4E487B7100000000000000000000000000000000000000000000000000000000 PUSH1 0x0 MSTORE PUSH1 0x41 PUSH1 0x4 MSTORE PUSH1 0x24 PUSH1 0x0 REVERT JUMPDEST PUSH2 0x1D0 DUP3 PUSH2 0x187 JUMP JUMPDEST DUP2 ADD DUP2 DUP2 LT PUSH8 0xFFFFFFFFFFFFFFFF DUP3 GT OR ISZERO PUSH2 0x1EF JUMPI PUSH2 0x1EE PUSH2 0x198 JUMP JUMPDEST JUMPDEST DUP1 PUSH1 0x40 MSTORE POP POP POP JUMP JUMPDEST PUSH1 0x0 PUSH2 0x202 PUSH2 0x10B JUMP JUMPDEST SWAP1 POP PUSH2 0x20E DUP3 DUP3 PUSH2 0x1C7 JUMP JUMPDEST SWAP2 SWAP1 POP JUMP JUMPDEST PUSH1 0x0 PUSH8 0xFFFFFFFFFFFFFFFF DUP3 GT ISZERO PUSH2 0x22E JUMPI PUSH2 0x22D PUSH2 0x198 JUMP JUMPDEST JUMPDEST PUSH2 0x237 DUP3 PUSH2 0x187 JUMP JUMPDEST SWAP1 POP PUSH1 0x20 DUP2 ADD SWAP1 POP SWAP2 SWAP1 POP JUMP JUMPDEST DUP3 DUP2 DUP4 CALLDATACOPY PUSH1 0x0 DUP4 DUP4 ADD MSTORE POP POP POP JUMP JUMPDEST PUSH1 0x0 PUSH2 0x266 PUSH2 0x261 DUP5 PUSH2 0x213 JUMP JUMPDEST PUSH2 0x1F8 JUMP JUMPDEST SWAP1 POP DUP3 DUP2 MSTORE PUSH1 0x20 DUP2 ADD DUP5 DUP5 DUP5 ADD GT ISZERO PUSH2 0x282 JUMPI PUSH2 0x281 PUSH2 0x182 JUMP JUMPDEST JUMPDEST PUSH2 0x28D DUP5 DUP3 DUP6 PUSH2 0x244 JUMP JUMPDEST POP SWAP4 SWAP3 POP POP POP JUMP JUMPDEST PUSH1 0x0 DUP3 PUSH1 0x1F DUP4 ADD SLT PUSH2 0x2AA JUMPI PUSH2 0x2A9 PUSH2 0x17D JUMP JUMPDEST JUMPDEST DUP2 CALLDATALOAD PUSH2 0x2BA DUP5 DUP3 PUSH1 0x20 DUP7 ADD PUSH2 0x253 JUMP JUMPDEST SWAP2 POP POP SWAP3 SWAP2 POP POP JUMP JUMPDEST PUSH1 0x0 DUP2 SWAP1 POP SWAP2 SWAP1 POP JUMP JUMPDEST PUSH2 0x2D6 DUP2 PUSH2 0x2C3 JUMP JUMPDEST DUP2 EQ PUSH2 0x2E1 JUMPI PUSH1 0x0 DUP1 REVERT JUMPDEST POP JUMP JUMPDEST PUSH1 0x0 DUP2 CALLDATALOAD SWAP1 POP PUSH2 0x2F3 DUP2 PUSH2 0x2CD JUMP JUMPDEST SWAP3 SWAP2 POP POP JUMP JUMPDEST PUSH1 0x0 DUP1 PUSH1 0x0 PUSH1 0x60 DUP5 DUP7 SUB SLT ISZERO PUSH2 0x312 JUMPI PUSH2 0x311 PUSH2 0x115 JUMP JUMPDEST JUMPDEST PUSH1 0x0 PUSH2 0x320 DUP7 DUP3 DUP8 ADD PUSH2 0x168 JUMP JUMPDEST SWAP4 POP POP PUSH1 0x20 DUP5 ADD CALLDATALOAD PUSH8 0xFFFFFFFFFFFFFFFF DUP2 GT ISZERO PUSH2 0x341 JUMPI PUSH2 0x340 PUSH2 0x11A JUMP JUMPDEST JUMPDEST PUSH2 0x34D DUP7 DUP3 DUP8 ADD PUSH2 0x295 JUMP JUMPDEST SWAP3 POP POP PUSH1 0x40 PUSH2 0x35E DUP7 DUP3 DUP8 ADD PUSH2 0x2E4 JUMP JUMPDEST SWAP2 POP POP SWAP3 POP SWAP3 POP SWAP3 JUMP JUMPDEST PUSH1 0x0 DUP2 MLOAD SWAP1 POP SWAP2 SWAP1 POP JUMP JUMPDEST PUSH1 0x0 DUP2 SWAP1 POP SWAP3 SWAP2 POP POP JUMP JUMPDEST PUSH1 0x0 JUMPDEST DUP4 DUP2 LT ISZERO PUSH2 0x39C JUMPI DUP1 DUP3 ADD MLOAD DUP2 DUP5 ADD MSTORE PUSH1 0x20 DUP2 ADD SWAP1 POP PUSH2 0x381 JUMP JUMPDEST PUSH1 0x0 DUP5 DUP5 ADD MSTORE POP POP POP POP JUMP JUMPDEST PUSH1 0x0 PUSH2 0x3B3 DUP3 PUSH2 0x368 JUMP JUMPDEST PUSH2 0x3BD DUP2 DUP6 PUSH2 0x373 JUMP JUMPDEST SWAP4 POP PUSH2 0x3CD DUP2 DUP6 PUSH1 0x20 DUP7 ADD PUSH2 0x37E JUMP JUMPDEST DUP1 DUP5 ADD SWAP2 POP POP SWAP3 SWAP2 POP POP JUMP JUMPDEST PUSH1 0x0 PUSH2 0x3E5 DUP3 DUP5 PUSH2 0x3A8 JUMP JUMPDEST SWAP2 POP DUP2 SWAP1 POP SWAP3 SWAP2 POP POP JUMP JUMPDEST PUSH1 0x0 DUP3 DUP3 MSTORE PUSH1 0x20 DUP3 ADD SWAP1 POP SWAP3 SWAP2 POP POP JUMP JUMPDEST PUSH32 0x7478206661696C65640000000000000000000000000000000000000000000000 PUSH1 0x0 DUP3 ADD MSTORE POP JUMP JUMPDEST PUSH1 0x0 PUSH2 0x437 PUSH1 0x9 DUP4 PUSH2 0x3F0 JUMP JUMPDEST SWAP2 POP PUSH2 0x442 DUP3 PUSH2 0x401 JUMP JUMPDEST PUSH1 0x20 DUP3 ADD SWAP1 POP SWAP2 SWAP1 POP JUMP JUMPDEST PUSH1 0x0 PUSH1 0x20 DUP3 ADD SWAP1 POP DUP2 DUP2 SUB PUSH1 0x0 DUP4 ADD MSTORE PUSH2 0x466 DUP2 PUSH2 0x42A JUMP JUMPDEST SWAP1 POP SWAP2 SWAP1 POP JUMP INVALID LOG2 PUSH5 0x6970667358 0x22 SLT KECCAK256 0xB0 0x2E PUSH6 0xD737E75862FC 0xE0 0x26 PUSH18 0xEB2CD3A399706E7D9BB2B918FFA9ACB236ED PUSH8 0x5864736F6C634300 ADDMOD SLT STOP CALLER "
				},
				"gasEstimates": {
					"creation": {
						"codeDepositCost": "237400",
						"executionCost": "281",
						"totalCost": "237681"
					},
					"external": {
						"executeTransaction(address,bytes,uint256)": "infinite"
					}
				},
				"methodIdentifiers": {
					"executeTransaction(address,bytes,uint256)": "6b8d7a12"
				}
			},
			"storageLayout": {
				"storage": [],
				"types": null
			},
			"userdoc": {
				"kind": "user",
				"methods": {},
				"version": 1
			}
		}
	}
}