{
	"data": {
		"bytecode": {
			"linkReferences": {},
			"object": "608060405234801561001057600080fd5b503360405161001e90610089565b61002891906100d7565b604051809103906000f080158015610044573d6000803e3d6000fd5b506000806101000a81548173ffffffffffffffffffffffffffffffffffffffff021916908373ffffffffffffffffffffffffffffffffffffffff1602179055506100f2565b610691806112f283390190565b600073ffffffffffffffffffffffffffffffffffffffff82169050919050565b60006100c182610096565b9050919050565b6100d1816100b6565b82525050565b60006020820190506100ec60008301846100c8565b92915050565b6111f1806101016000396000f3fe60806040523480156200001157600080fd5b5060043610620000525760003560e01c806319ae8994146200005757806377bdab831462000077578063933ac0841462000097578063c298557814620000b7575b600080fd5b6200007560048036038101906200006f91906200056d565b620000d9565b005b6200009560048036038101906200008f919062000604565b62000299565b005b620000b56004803603810190620000af91906200056d565b620003ee565b005b620000c1620004f1565b604051620000d09190620006a1565b60405180910390f35b60008054906101000a900473ffffffffffffffffffffffffffffffffffffffff1673ffffffffffffffffffffffffffffffffffffffff166350628c96826040518263ffffffff1660e01b8152600401620001349190620006cf565b602060405180830381865afa9250505080156200017157506040513d601f19601f820116820180604052508101906200016e919062000703565b60015b6200025b576200018062000742565b806308c379a003620001e4575062000197620007dd565b80620001a45750620001e6565b7fcf34ef537ac33ee1ac626ca1587a0a7e8e51561e5514f8cb36afa1c5102b3bab81604051620001d5919062000901565b60405180910390a15062000255565b505b3d806000811462000214576040519150601f19603f3d011682016040523d82523d6000602084013e62000219565b606091505b507f532fd6ea96cfb78bb46e09279a26828b8b493de1a2b8b1ee1face527978a15a5816040516200024b919062000982565b60405180910390a1505b62000296565b7f2d0c8788895d8ad417968b42c8074ad3f00659cbb2cafed150d5daeccdb54228816040516200028c9190620006cf565b60405180910390a1505b50565b80604051620002a89062000515565b620002b49190620009b7565b604051809103906000f08015620002c85760015b620003b257620002d762000742565b806308c379a0036200033b5750620002ee620007dd565b80620002fb57506200033d565b7fcf34ef537ac33ee1ac626ca1587a0a7e8e51561e5514f8cb36afa1c5102b3bab816040516200032c919062000901565b60405180910390a150620003ac565b505b3d80600081146200036b576040519150601f19603f3d011682016040523d82523d6000602084013e62000370565b606091505b507f532fd6ea96cfb78bb46e09279a26828b8b493de1a2b8b1ee1face527978a15a581604051620003a2919062000982565b60405180910390a1505b620003eb565b7fcf34ef537ac33ee1ac626ca1587a0a7e8e51561e5514f8cb36afa1c5102b3bab604051620003e19062000a24565b60405180910390a1505b50565b60008054906101000a900473ffffffffffffffffffffffffffffffffffffffff1673ffffffffffffffffffffffffffffffffffffffff1663a9bf5633826040518263ffffffff1660e01b8152600401620004499190620006cf565b60006040518083038186803b1580156200046257600080fd5b505afa92505050801562000474575060015b620004b6577fcf34ef537ac33ee1ac626ca1587a0a7e8e51561e5514f8cb36afa1c5102b3bab604051620004a89062000a96565b60405180910390a1620004ee565b7fcf34ef537ac33ee1ac626ca1587a0a7e8e51561e5514f8cb36afa1c5102b3bab604051620004e59062000b08565b60405180910390a15b50565b60008054906101000a900473ffffffffffffffffffffffffffffffffffffffff1681565b6106918062000b2b83390190565b6000604051905090565b600080fd5b6000819050919050565b620005478162000532565b81146200055357600080fd5b50565b60008135905062000567816200053c565b92915050565b6000602082840312156200058657620005856200052d565b5b6000620005968482850162000556565b91505092915050565b600073ffffffffffffffffffffffffffffffffffffffff82169050919050565b6000620005cc826200059f565b9050919050565b620005de81620005bf565b8114620005ea57600080fd5b50565b600081359050620005fe81620005d3565b92915050565b6000602082840312156200061d576200061c6200052d565b5b60006200062d84828501620005ed565b91505092915050565b6000819050919050565b6000620006616200065b62000655846200059f565b62000636565b6200059f565b9050919050565b6000620006758262000640565b9050919050565b6000620006898262000668565b9050919050565b6200069b816200067c565b82525050565b6000602082019050620006b8600083018462000690565b92915050565b620006c98162000532565b82525050565b6000602082019050620006e66000830184620006be565b92915050565b600081519050620006fd816200053c565b92915050565b6000602082840312156200071c576200071b6200052d565b5b60006200072c84828501620006ec565b91505092915050565b60008160e01c9050919050565b600060033d1115620007645760046000803e6200076160005162000735565b90505b90565b6000601f19601f8301169050919050565b7f4e487b7100000000000000000000000000000000000000000000000000000000600052604160045260246000fd5b620007b28262000767565b810181811067ffffffffffffffff82111715620007d457620007d362000778565b5b80604052505050565b600060443d106200087557620007f262000523565b60043d036004823e80513d602482011167ffffffffffffffff821117156200081c57505062000875565b808201805167ffffffffffffffff8111156200083c575050505062000875565b80602083010160043d0385018111156200085b57505050505062000875565b6200086c82602001850186620007a7565b82955050505050505b90565b600081519050919050565b600082825260208201905092915050565b60005b83811015620008b457808201518184015260208101905062000897565b60008484015250505050565b6000620008cd8262000878565b620008d9818562000883565b9350620008eb81856020860162000894565b620008f68162000767565b840191505092915050565b600060208201905081810360008301526200091d8184620008c0565b905092915050565b600081519050919050565b600082825260208201905092915050565b60006200094e8262000925565b6200095a818562000930565b93506200096c81856020860162000894565b620009778162000767565b840191505092915050565b600060208201905081810360008301526200099e818462000941565b905092915050565b620009b181620005bf565b82525050565b6000602082019050620009ce6000830184620009a6565b92915050565b7f466f6f2063726561746564000000000000000000000000000000000000000000600082015250565b600062000a0c600b8362000883565b915062000a1982620009d4565b602082019050919050565b6000602082019050818103600083015262000a3f81620009fd565b9050919050565b7f65787465726e616c2063616c6c206661696c6564000000000000000000000000600082015250565b600062000a7e60148362000883565b915062000a8b8262000a46565b602082019050919050565b6000602082019050818103600083015262000ab18162000a6f565b9050919050565b7f746120636869612068616f000000000000000000000000000000000000000000600082015250565b600062000af0600b8362000883565b915062000afd8262000ab8565b602082019050919050565b6000602082019050818103600083015262000b238162000ae1565b905091905056fe608060405234801561001057600080fd5b5060405161069138038061069183398181016040528101906100329190610187565b600073ffffffffffffffffffffffffffffffffffffffff168173ffffffffffffffffffffffffffffffffffffffff16036100a1576040517f08c379a000000000000000000000000000000000000000000000000000000000815260040161009890610211565b60405180910390fd5b600173ffffffffffffffffffffffffffffffffffffffff168173ffffffffffffffffffffffffffffffffffffffff16036100de576100dd610231565b5b806000806101000a81548173ffffffffffffffffffffffffffffffffffffffff021916908373ffffffffffffffffffffffffffffffffffffffff16021790555050610260565b600080fd5b600073ffffffffffffffffffffffffffffffffffffffff82169050919050565b600061015482610129565b9050919050565b61016481610149565b811461016f57600080fd5b50565b6000815190506101818161015b565b92915050565b60006020828403121561019d5761019c610124565b5b60006101ab84828501610172565b91505092915050565b600082825260208201905092915050565b7f696e76616c696420616464726573730000000000000000000000000000000000600082015250565b60006101fb600f836101b4565b9150610206826101c5565b602082019050919050565b6000602082019050818103600083015261022a816101ee565b9050919050565b7f4e487b7100000000000000000000000000000000000000000000000000000000600052600160045260246000fd5b6104228061026f6000396000f3fe608060405234801561001057600080fd5b50600436106100415760003560e01c806350628c96146100465780638da5cb5b14610076578063a9bf563314610094575b600080fd5b610060600480360381019061005b91906101be565b6100b0565b60405161006d91906101fa565b60405180910390f35b61007e610119565b60405161008b9190610256565b60405180910390f35b6100ae60048036038101906100a991906101be565b61013d565b005b60008082036100f4576040517f08c379a00000000000000000000000000000000000000000000000000000000081526004016100eb906102ce565b60405180910390fd5b60018203610105576101046102ee565b5b600182610112919061034c565b9050919050565b60008054906101000a900473ffffffffffffffffffffffffffffffffffffffff1681565b60008103610180576040517f08c379a0000000000000000000000000000000000000000000000000000000008152600401610177906103cc565b60405180910390fd5b50565b600080fd5b6000819050919050565b61019b81610188565b81146101a657600080fd5b50565b6000813590506101b881610192565b92915050565b6000602082840312156101d4576101d3610183565b5b60006101e2848285016101a9565b91505092915050565b6101f481610188565b82525050565b600060208201905061020f60008301846101eb565b92915050565b600073ffffffffffffffffffffffffffffffffffffffff82169050919050565b600061024082610215565b9050919050565b61025081610235565b82525050565b600060208201905061026b6000830184610247565b92915050565b600082825260208201905092915050565b7f782070686169206b686163206b686f6e67000000000000000000000000000000600082015250565b60006102b8601183610271565b91506102c382610282565b602082019050919050565b600060208201905081810360008301526102e7816102ab565b9050919050565b7f4e487b7100000000000000000000000000000000000000000000000000000000600052600160045260246000fd5b7f4e487b7100000000000000000000000000000000000000000000000000000000600052601160045260246000fd5b600061035782610188565b915061036283610188565b925082820190508082111561037a5761037961031d565b5b92915050565b7f72657175697265206661696c6564000000000000000000000000000000000000600082015250565b60006103b6600e83610271565b91506103c182610380565b602082019050919050565b600060208201905081810360008301526103e5816103a9565b905091905056fea264697066735822122090d5640c2a25a8e2049d6a3fee1f2ae356f0a89173abe34c9498e6303ba958cc64736f6c63430008120033a26469706673582212204ff1f7958d6b0ab9843a29bc87affb763a769d42df3f1b723c8d976a9ae8a8fa64736f6c63430008120033608060405234801561001057600080fd5b5060405161069138038061069183398181016040528101906100329190610187565b600073ffffffffffffffffffffffffffffffffffffffff168173ffffffffffffffffffffffffffffffffffffffff16036100a1576040517f08c379a000000000000000000000000000000000000000000000000000000000815260040161009890610211565b60405180910390fd5b600173ffffffffffffffffffffffffffffffffffffffff168173ffffffffffffffffffffffffffffffffffffffff16036100de576100dd610231565b5b806000806101000a81548173ffffffffffffffffffffffffffffffffffffffff021916908373ffffffffffffffffffffffffffffffffffffffff16021790555050610260565b600080fd5b600073ffffffffffffffffffffffffffffffffffffffff82169050919050565b600061015482610129565b9050919050565b61016481610149565b811461016f57600080fd5b50565b6000815190506101818161015b565b92915050565b60006020828403121561019d5761019c610124565b5b60006101ab84828501610172565b91505092915050565b600082825260208201905092915050565b7f696e76616c696420616464726573730000000000000000000000000000000000600082015250565b60006101fb600f836101b4565b9150610206826101c5565b602082019050919050565b6000602082019050818103600083015261022a816101ee565b9050919050565b7f4e487b7100000000000000000000000000000000000000000000000000000000600052600160045260246000fd5b6104228061026f6000396000f3fe608060405234801561001057600080fd5b50600436106100415760003560e01c806350628c96146100465780638da5cb5b14610076578063a9bf563314610094575b600080fd5b610060600480360381019061005b91906101be565b6100b0565b60405161006d91906101fa565b60405180910390f35b61007e610119565b60405161008b9190610256565b60405180910390f35b6100ae60048036038101906100a991906101be565b61013d565b005b60008082036100f4576040517f08c379a00000000000000000000000000000000000000000000000000000000081526004016100eb906102ce565b60405180910390fd5b60018203610105576101046102ee565b5b600182610112919061034c565b9050919050565b60008054906101000a900473ffffffffffffffffffffffffffffffffffffffff1681565b60008103610180576040517f08c379a0000000000000000000000000000000000000000000000000000000008152600401610177906103cc565b60405180910390fd5b50565b600080fd5b6000819050919050565b61019b81610188565b81146101a657600080fd5b50565b6000813590506101b881610192565b92915050565b6000602082840312156101d4576101d3610183565b5b60006101e2848285016101a9565b91505092915050565b6101f481610188565b82525050565b600060208201905061020f60008301846101eb565b92915050565b600073ffffffffffffffffffffffffffffffffffffffff82169050919050565b600061024082610215565b9050919050565b61025081610235565b82525050565b600060208201905061026b6000830184610247565b92915050565b600082825260208201905092915050565b7f782070686169206b686163206b686f6e67000000000000000000000000000000600082015250565b60006102b8601183610271565b91506102c382610282565b602082019050919050565b600060208201905081810360008301526102e7816102ab565b9050919050565b7f4e487b7100000000000000000000000000000000000000000000000000000000600052600160045260246000fd5b7f4e487b7100000000000000000000000000000000000000000000000000000000600052601160045260246000fd5b600061035782610188565b915061036283610188565b925082820190508082111561037a5761037961031d565b5b92915050565b7f72657175697265206661696c6564000000000000000000000000000000000000600082015250565b60006103b6600e83610271565b91506103c182610380565b602082019050919050565b600060208201905081810360008301526103e5816103a9565b905091905056fea264697066735822122090d5640c2a25a8e2049d6a3fee1f2ae356f0a89173abe34c9498e6303ba958cc64736f6c63430008120033",
			"opcodes": "PUSH1 0x80 PUSH1 0x40 MSTORE CALLVALUE DUP1 ISZERO PUSH2 0x10 JUMPI PUSH1 0x0 DUP1 REVERT JUMPDEST POP CALLER PUSH1 0x40 MLOAD PUSH2 0x1E SWAP1 PUSH2 0x89 JUMP JUMPDEST PUSH2 0x28 SWAP2 SWAP1 PUSH2 0xD7 JUMP JUMPDEST PUSH1 0x40 MLOAD DUP1 SWAP2 SUB SWAP1 PUSH1 0x0 CREATE DUP1 ISZERO DUP1 ISZERO PUSH2 0x44 JUMPI RETURNDATASIZE PUSH1 0x0 DUP1 RETURNDATACOPY RETURNDATASIZE PUSH1 0x0 REVERT JUMPDEST POP PUSH1 0x0 DUP1 PUSH2 0x100 EXP DUP2 SLOAD DUP2 PUSH20 0xFFFFFFFFFFFFFFFFFFFFFFFFFFFFFFFFFFFFFFFF MUL NOT AND SWAP1 DUP4 PUSH20 0xFFFFFFFFFFFFFFFFFFFFFFFFFFFFFFFFFFFFFFFF AND MUL OR SWAP1 SSTORE POP PUSH2 0xF2 JUMP JUMPDEST PUSH2 0x691 DUP1 PUSH2 0x12F2 DUP4 CODECOPY ADD SWAP1 JUMP JUMPDEST PUSH1 0x0 PUSH20 0xFFFFFFFFFFFFFFFFFFFFFFFFFFFFFFFFFFFFFFFF DUP3 AND SWAP1 POP SWAP2 SWAP1 POP JUMP JUMPDEST PUSH1 0x0 PUSH2 0xC1 DUP3 PUSH2 0x96 JUMP JUMPDEST SWAP1 POP SWAP2 SWAP1 POP JUMP JUMPDEST PUSH2 0xD1 DUP2 PUSH2 0xB6 JUMP JUMPDEST DUP3 MSTORE POP POP JUMP JUMPDEST PUSH1 0x0 PUSH1 0x20 DUP3 ADD SWAP1 POP PUSH2 0xEC PUSH1 0x0 DUP4 ADD DUP5 PUSH2 0xC8 JUMP JUMPDEST SWAP3 SWAP2 POP POP JUMP JUMPDEST PUSH2 0x11F1 DUP1 PUSH2 0x101 PUSH1 0x0 CODECOPY PUSH1 0x0 RETURN INVALID PUSH1 0x80 PUSH1 0x40 MSTORE CALLVALUE DUP1 ISZERO PUSH3 0x11 JUMPI PUSH1 0x0 DUP1 REVERT JUMPDEST POP PUSH1 0x4 CALLDATASIZE LT PUSH3 0x52 JUMPI PUSH1 0x0 CALLDATALOAD PUSH1 0xE0 SHR DUP1 PUSH4 0x19AE8994 EQ PUSH3 0x57 JUMPI DUP1 PUSH4 0x77BDAB83 EQ PUSH3 0x77 JUMPI DUP1 PUSH4 0x933AC084 EQ PUSH3 0x97 JUMPI DUP1 PUSH4 0xC2985578 EQ PUSH3 0xB7 JUMPI JUMPDEST PUSH1 0x0 DUP1 REVERT JUMPDEST PUSH3 0x75 PUSH1 0x4 DUP1 CALLDATASIZE SUB DUP2 ADD SWAP1 PUSH3 0x6F SWAP2 SWAP1 PUSH3 0x56D JUMP JUMPDEST PUSH3 0xD9 JUMP JUMPDEST STOP JUMPDEST PUSH3 0x95 PUSH1 0x4 DUP1 CALLDATASIZE SUB DUP2 ADD SWAP1 PUSH3 0x8F SWAP2 SWAP1 PUSH3 0x604 JUMP JUMPDEST PUSH3 0x299 JUMP JUMPDEST STOP JUMPDEST PUSH3 0xB5 PUSH1 0x4 DUP1 CALLDATASIZE SUB DUP2 ADD SWAP1 PUSH3 0xAF SWAP2 SWAP1 PUSH3 0x56D JUMP JUMPDEST PUSH3 0x3EE JUMP JUMPDEST STOP JUMPDEST PUSH3 0xC1 PUSH3 0x4F1 JUMP JUMPDEST PUSH1 0x40 MLOAD PUSH3 0xD0 SWAP2 SWAP1 PUSH3 0x6A1 JUMP JUMPDEST PUSH1 0x40 MLOAD DUP1 SWAP2 SUB SWAP1 RETURN JUMPDEST PUSH1 0x0 DUP1 SLOAD SWAP1 PUSH2 0x100 EXP SWAP1 DIV PUSH20 0xFFFFFFFFFFFFFFFFFFFFFFFFFFFFFFFFFFFFFFFF AND PUSH20 0xFFFFFFFFFFFFFFFFFFFFFFFFFFFFFFFFFFFFFFFF AND PUSH4 0x50628C96 DUP3 PUSH1 0x40 MLOAD DUP3 PUSH4 0xFFFFFFFF AND PUSH1 0xE0 SHL DUP2 MSTORE PUSH1 0x4 ADD PUSH3 0x134 SWAP2 SWAP1 PUSH3 0x6CF JUMP JUMPDEST PUSH1 0x20 PUSH1 0x40 MLOAD DUP1 DUP4 SUB DUP2 DUP7 GAS STATICCALL SWAP3 POP POP POP DUP1 ISZERO PUSH3 0x171 JUMPI POP PUSH1 0x40 MLOAD RETURNDATASIZE PUSH1 0x1F NOT PUSH1 0x1F DUP3 ADD AND DUP3 ADD DUP1 PUSH1 0x40 MSTORE POP DUP2 ADD SWAP1 PUSH3 0x16E SWAP2 SWAP1 PUSH3 0x703 JUMP JUMPDEST PUSH1 0x1 JUMPDEST PUSH3 0x25B JUMPI PUSH3 0x180 PUSH3 0x742 JUMP JUMPDEST DUP1 PUSH4 0x8C379A0 SUB PUSH3 0x1E4 JUMPI POP PUSH3 0x197 PUSH3 0x7DD JUMP JUMPDEST DUP1 PUSH3 0x1A4 JUMPI POP PUSH3 0x1E6 JUMP JUMPDEST PUSH32 0xCF34EF537AC33EE1AC626CA1587A0A7E8E51561E5514F8CB36AFA1C5102B3BAB DUP2 PUSH1 0x40 MLOAD PUSH3 0x1D5 SWAP2 SWAP1 PUSH3 0x901 JUMP JUMPDEST PUSH1 0x40 MLOAD DUP1 SWAP2 SUB SWAP1 LOG1 POP PUSH3 0x255 JUMP JUMPDEST POP JUMPDEST RETURNDATASIZE DUP1 PUSH1 0x0 DUP2 EQ PUSH3 0x214 JUMPI PUSH1 0x40 MLOAD SWAP2 POP PUSH1 0x1F NOT PUSH1 0x3F RETURNDATASIZE ADD AND DUP3 ADD PUSH1 0x40 MSTORE RETURNDATASIZE DUP3 MSTORE RETURNDATASIZE PUSH1 0x0 PUSH1 0x20 DUP5 ADD RETURNDATACOPY PUSH3 0x219 JUMP JUMPDEST PUSH1 0x60 SWAP2 POP JUMPDEST POP PUSH32 0x532FD6EA96CFB78BB46E09279A26828B8B493DE1A2B8B1EE1FACE527978A15A5 DUP2 PUSH1 0x40 MLOAD PUSH3 0x24B SWAP2 SWAP1 PUSH3 0x982 JUMP JUMPDEST PUSH1 0x40 MLOAD DUP1 SWAP2 SUB SWAP1 LOG1 POP JUMPDEST PUSH3 0x296 JUMP JUMPDEST PUSH32 0x2D0C8788895D8AD417968B42C8074AD3F00659CBB2CAFED150D5DAECCDB54228 DUP2 PUSH1 0x40 MLOAD PUSH3 0x28C SWAP2 SWAP1 PUSH3 0x6CF JUMP JUMPDEST PUSH1 0x40 MLOAD DUP1 SWAP2 SUB SWAP1 LOG1 POP JUMPDEST POP JUMP JUMPDEST DUP1 PUSH1 0x40 MLOAD PUSH3 0x2A8 SWAP1 PUSH3 0x515 JUMP JUMPDEST PUSH3 0x2B4 SWAP2 SWAP1 PUSH3 0x9B7 JUMP JUMPDEST PUSH1 0x40 MLOAD DUP1 SWAP2 SUB SWAP1 PUSH1 0x0 CREATE DUP1 ISZERO PUSH3 0x2C8 JUMPI PUSH1 0x1 JUMPDEST PUSH3 0x3B2 JUMPI PUSH3 0x2D7 PUSH3 0x742 JUMP JUMPDEST DUP1 PUSH4 0x8C379A0 SUB PUSH3 0x33B JUMPI POP PUSH3 0x2EE PUSH3 0x7DD JUMP JUMPDEST DUP1 PUSH3 0x2FB JUMPI POP PUSH3 0x33D JUMP JUMPDEST PUSH32 0xCF34EF537AC33EE1AC626CA1587A0A7E8E51561E5514F8CB36AFA1C5102B3BAB DUP2 PUSH1 0x40 MLOAD PUSH3 0x32C SWAP2 SWAP1 PUSH3 0x901 JUMP JUMPDEST PUSH1 0x40 MLOAD DUP1 SWAP2 SUB SWAP1 LOG1 POP PUSH3 0x3AC JUMP JUMPDEST POP JUMPDEST RETURNDATASIZE DUP1 PUSH1 0x0 DUP2 EQ PUSH3 0x36B JUMPI PUSH1 0x40 MLOAD SWAP2 POP PUSH1 0x1F NOT PUSH1 0x3F RETURNDATASIZE ADD AND DUP3 ADD PUSH1 0x40 MSTORE RETURNDATASIZE DUP3 MSTORE RETURNDATASIZE PUSH1 0x0 PUSH1 0x20 DUP5 ADD RETURNDATACOPY PUSH3 0x370 JUMP JUMPDEST PUSH1 0x60 SWAP2 POP JUMPDEST POP PUSH32 0x532FD6EA96CFB78BB46E09279A26828B8B493DE1A2B8B1EE1FACE527978A15A5 DUP2 PUSH1 0x40 MLOAD PUSH3 0x3A2 SWAP2 SWAP1 PUSH3 0x982 JUMP JUMPDEST PUSH1 0x40 MLOAD DUP1 SWAP2 SUB SWAP1 LOG1 POP JUMPDEST PUSH3 0x3EB JUMP JUMPDEST PUSH32 0xCF34EF537AC33EE1AC626CA1587A0A7E8E51561E5514F8CB36AFA1C5102B3BAB PUSH1 0x40 MLOAD PUSH3 0x3E1 SWAP1 PUSH3 0xA24 JUMP JUMPDEST PUSH1 0x40 MLOAD DUP1 SWAP2 SUB SWAP1 LOG1 POP JUMPDEST POP JUMP JUMPDEST PUSH1 0x0 DUP1 SLOAD SWAP1 PUSH2 0x100 EXP SWAP1 DIV PUSH20 0xFFFFFFFFFFFFFFFFFFFFFFFFFFFFFFFFFFFFFFFF AND PUSH20 0xFFFFFFFFFFFFFFFFFFFFFFFFFFFFFFFFFFFFFFFF AND PUSH4 0xA9BF5633 DUP3 PUSH1 0x40 MLOAD DUP3 PUSH4 0xFFFFFFFF AND PUSH1 0xE0 SHL DUP2 MSTORE PUSH1 0x4 ADD PUSH3 0x449 SWAP2 SWAP1 PUSH3 0x6CF JUMP JUMPDEST PUSH1 0x0 PUSH1 0x40 MLOAD DUP1 DUP4 SUB DUP2 DUP7 DUP1 EXTCODESIZE ISZERO DUP1 ISZERO PUSH3 0x462 JUMPI PUSH1 0x0 DUP1 REVERT JUMPDEST POP GAS STATICCALL SWAP3 POP POP POP DUP1 ISZERO PUSH3 0x474 JUMPI POP PUSH1 0x1 JUMPDEST PUSH3 0x4B6 JUMPI PUSH32 0xCF34EF537AC33EE1AC626CA1587A0A7E8E51561E5514F8CB36AFA1C5102B3BAB PUSH1 0x40 MLOAD PUSH3 0x4A8 SWAP1 PUSH3 0xA96 JUMP JUMPDEST PUSH1 0x40 MLOAD DUP1 SWAP2 SUB SWAP1 LOG1 PUSH3 0x4EE JUMP JUMPDEST PUSH32 0xCF34EF537AC33EE1AC626CA1587A0A7E8E51561E5514F8CB36AFA1C5102B3BAB PUSH1 0x40 MLOAD PUSH3 0x4E5 SWAP1 PUSH3 0xB08 JUMP JUMPDEST PUSH1 0x40 MLOAD DUP1 SWAP2 SUB SWAP1 LOG1 JUMPDEST POP JUMP JUMPDEST PUSH1 0x0 DUP1 SLOAD SWAP1 PUSH2 0x100 EXP SWAP1 DIV PUSH20 0xFFFFFFFFFFFFFFFFFFFFFFFFFFFFFFFFFFFFFFFF AND DUP2 JUMP JUMPDEST PUSH2 0x691 DUP1 PUSH3 0xB2B DUP4 CODECOPY ADD SWAP1 JUMP JUMPDEST PUSH1 0x0 PUSH1 0x40 MLOAD SWAP1 POP SWAP1 JUMP JUMPDEST PUSH1 0x0 DUP1 REVERT JUMPDEST PUSH1 0x0 DUP2 SWAP1 POP SWAP2 SWAP1 POP JUMP JUMPDEST PUSH3 0x547 DUP2 PUSH3 0x532 JUMP JUMPDEST DUP2 EQ PUSH3 0x553 JUMPI PUSH1 0x0 DUP1 REVERT JUMPDEST POP JUMP JUMPDEST PUSH1 0x0 DUP2 CALLDATALOAD SWAP1 POP PUSH3 0x567 DUP2 PUSH3 0x53C JUMP JUMPDEST SWAP3 SWAP2 POP POP JUMP JUMPDEST PUSH1 0x0 PUSH1 0x20 DUP3 DUP5 SUB SLT ISZERO PUSH3 0x586 JUMPI PUSH3 0x585 PUSH3 0x52D JUMP JUMPDEST JUMPDEST PUSH1 0x0 PUSH3 0x596 DUP5 DUP3 DUP6 ADD PUSH3 0x556 JUMP JUMPDEST SWAP2 POP POP SWAP3 SWAP2 POP POP JUMP JUMPDEST PUSH1 0x0 PUSH20 0xFFFFFFFFFFFFFFFFFFFFFFFFFFFFFFFFFFFFFFFF DUP3 AND SWAP1 POP SWAP2 SWAP1 POP JUMP JUMPDEST PUSH1 0x0 PUSH3 0x5CC DUP3 PUSH3 0x59F JUMP JUMPDEST SWAP1 POP SWAP2 SWAP1 POP JUMP JUMPDEST PUSH3 0x5DE DUP2 PUSH3 0x5BF JUMP JUMPDEST DUP2 EQ PUSH3 0x5EA JUMPI PUSH1 0x0 DUP1 REVERT JUMPDEST POP JUMP JUMPDEST PUSH1 0x0 DUP2 CALLDATALOAD SWAP1 POP PUSH3 0x5FE DUP2 PUSH3 0x5D3 JUMP JUMPDEST SWAP3 SWAP2 POP POP JUMP JUMPDEST PUSH1 0x0 PUSH1 0x20 DUP3 DUP5 SUB SLT ISZERO PUSH3 0x61D JUMPI PUSH3 0x61C PUSH3 0x52D JUMP JUMPDEST JUMPDEST PUSH1 0x0 PUSH3 0x62D DUP5 DUP3 DUP6 ADD PUSH3 0x5ED JUMP JUMPDEST SWAP2 POP POP SWAP3 SWAP2 POP POP JUMP JUMPDEST PUSH1 0x0 DUP2 SWAP1 POP SWAP2 SWAP1 POP JUMP JUMPDEST PUSH1 0x0 PUSH3 0x661 PUSH3 0x65B PUSH3 0x655 DUP5 PUSH3 0x59F JUMP JUMPDEST PUSH3 0x636 JUMP JUMPDEST PUSH3 0x59F JUMP JUMPDEST SWAP1 POP SWAP2 SWAP1 POP JUMP JUMPDEST PUSH1 0x0 PUSH3 0x675 DUP3 PUSH3 0x640 JUMP JUMPDEST SWAP1 POP SWAP2 SWAP1 POP JUMP JUMPDEST PUSH1 0x0 PUSH3 0x689 DUP3 PUSH3 0x668 JUMP JUMPDEST SWAP1 POP SWAP2 SWAP1 POP JUMP JUMPDEST PUSH3 0x69B DUP2 PUSH3 0x67C JUMP JUMPDEST DUP3 MSTORE POP POP JUMP JUMPDEST PUSH1 0x0 PUSH1 0x20 DUP3 ADD SWAP1 POP PUSH3 0x6B8 PUSH1 0x0 DUP4 ADD DUP5 PUSH3 0x690 JUMP JUMPDEST SWAP3 SWAP2 POP POP JUMP JUMPDEST PUSH3 0x6C9 DUP2 PUSH3 0x532 JUMP JUMPDEST DUP3 MSTORE POP POP JUMP JUMPDEST PUSH1 0x0 PUSH1 0x20 DUP3 ADD SWAP1 POP PUSH3 0x6E6 PUSH1 0x0 DUP4 ADD DUP5 PUSH3 0x6BE JUMP JUMPDEST SWAP3 SWAP2 POP POP JUMP JUMPDEST PUSH1 0x0 DUP2 MLOAD SWAP1 POP PUSH3 0x6FD DUP2 PUSH3 0x53C JUMP JUMPDEST SWAP3 SWAP2 POP POP JUMP JUMPDEST PUSH1 0x0 PUSH1 0x20 DUP3 DUP5 SUB SLT ISZERO PUSH3 0x71C JUMPI PUSH3 0x71B PUSH3 0x52D JUMP JUMPDEST JUMPDEST PUSH1 0x0 PUSH3 0x72C DUP5 DUP3 DUP6 ADD PUSH3 0x6EC JUMP JUMPDEST SWAP2 POP POP SWAP3 SWAP2 POP POP JUMP JUMPDEST PUSH1 0x0 DUP2 PUSH1 0xE0 SHR SWAP1 POP SWAP2 SWAP1 POP JUMP JUMPDEST PUSH1 0x0 PUSH1 0x3 RETURNDATASIZE GT ISZERO PUSH3 0x764 JUMPI PUSH1 0x4 PUSH1 0x0 DUP1 RETURNDATACOPY PUSH3 0x761 PUSH1 0x0 MLOAD PUSH3 0x735 JUMP JUMPDEST SWAP1 POP JUMPDEST SWAP1 JUMP JUMPDEST PUSH1 0x0 PUSH1 0x1F NOT PUSH1 0x1F DUP4 ADD AND SWAP1 POP SWAP2 SWAP1 POP JUMP JUMPDEST PUSH32 0x4E487B7100000000000000000000000000000000000000000000000000000000 PUSH1 0x0 MSTORE PUSH1 0x41 PUSH1 0x4 MSTORE PUSH1 0x24 PUSH1 0x0 REVERT JUMPDEST PUSH3 0x7B2 DUP3 PUSH3 0x767 JUMP JUMPDEST DUP2 ADD DUP2 DUP2 LT PUSH8 0xFFFFFFFFFFFFFFFF DUP3 GT OR ISZERO PUSH3 0x7D4 JUMPI PUSH3 0x7D3 PUSH3 0x778 JUMP JUMPDEST JUMPDEST DUP1 PUSH1 0x40 MSTORE POP POP POP JUMP JUMPDEST PUSH1 0x0 PUSH1 0x44 RETURNDATASIZE LT PUSH3 0x875 JUMPI PUSH3 0x7F2 PUSH3 0x523 JUMP JUMPDEST PUSH1 0x4 RETURNDATASIZE SUB PUSH1 0x4 DUP3 RETURNDATACOPY DUP1 MLOAD RETURNDATASIZE PUSH1 0x24 DUP3 ADD GT PUSH8 0xFFFFFFFFFFFFFFFF DUP3 GT OR ISZERO PUSH3 0x81C JUMPI POP POP PUSH3 0x875 JUMP JUMPDEST DUP1 DUP3 ADD DUP1 MLOAD PUSH8 0xFFFFFFFFFFFFFFFF DUP2 GT ISZERO PUSH3 0x83C JUMPI POP POP POP POP PUSH3 0x875 JUMP JUMPDEST DUP1 PUSH1 0x20 DUP4 ADD ADD PUSH1 0x4 RETURNDATASIZE SUB DUP6 ADD DUP2 GT ISZERO PUSH3 0x85B JUMPI POP POP POP POP POP PUSH3 0x875 JUMP JUMPDEST PUSH3 0x86C DUP3 PUSH1 0x20 ADD DUP6 ADD DUP7 PUSH3 0x7A7 JUMP JUMPDEST DUP3 SWAP6 POP POP POP POP POP POP JUMPDEST SWAP1 JUMP JUMPDEST PUSH1 0x0 DUP2 MLOAD SWAP1 POP SWAP2 SWAP1 POP JUMP JUMPDEST PUSH1 0x0 DUP3 DUP3 MSTORE PUSH1 0x20 DUP3 ADD SWAP1 POP SWAP3 SWAP2 POP POP JUMP JUMPDEST PUSH1 0x0 JUMPDEST DUP4 DUP2 LT ISZERO PUSH3 0x8B4 JUMPI DUP1 DUP3 ADD MLOAD DUP2 DUP5 ADD MSTORE PUSH1 0x20 DUP2 ADD SWAP1 POP PUSH3 0x897 JUMP JUMPDEST PUSH1 0x0 DUP5 DUP5 ADD MSTORE POP POP POP POP JUMP JUMPDEST PUSH1 0x0 PUSH3 0x8CD DUP3 PUSH3 0x878 JUMP JUMPDEST PUSH3 0x8D9 DUP2 DUP6 PUSH3 0x883 JUMP JUMPDEST SWAP4 POP PUSH3 0x8EB DUP2 DUP6 PUSH1 0x20 DUP7 ADD PUSH3 0x894 JUMP JUMPDEST PUSH3 0x8F6 DUP2 PUSH3 0x767 JUMP JUMPDEST DUP5 ADD SWAP2 POP POP SWAP3 SWAP2 POP POP JUMP JUMPDEST PUSH1 0x0 PUSH1 0x20 DUP3 ADD SWAP1 POP DUP2 DUP2 SUB PUSH1 0x0 DUP4 ADD MSTORE PUSH3 0x91D DUP2 DUP5 PUSH3 0x8C0 JUMP JUMPDEST SWAP1 POP SWAP3 SWAP2 POP POP JUMP JUMPDEST PUSH1 0x0 DUP2 MLOAD SWAP1 POP SWAP2 SWAP1 POP JUMP JUMPDEST PUSH1 0x0 DUP3 DUP3 MSTORE PUSH1 0x20 DUP3 ADD SWAP1 POP SWAP3 SWAP2 POP POP JUMP JUMPDEST PUSH1 0x0 PUSH3 0x94E DUP3 PUSH3 0x925 JUMP JUMPDEST PUSH3 0x95A DUP2 DUP6 PUSH3 0x930 JUMP JUMPDEST SWAP4 POP PUSH3 0x96C DUP2 DUP6 PUSH1 0x20 DUP7 ADD PUSH3 0x894 JUMP JUMPDEST PUSH3 0x977 DUP2 PUSH3 0x767 JUMP JUMPDEST DUP5 ADD SWAP2 POP POP SWAP3 SWAP2 POP POP JUMP JUMPDEST PUSH1 0x0 PUSH1 0x20 DUP3 ADD SWAP1 POP DUP2 DUP2 SUB PUSH1 0x0 DUP4 ADD MSTORE PUSH3 0x99E DUP2 DUP5 PUSH3 0x941 JUMP JUMPDEST SWAP1 POP SWAP3 SWAP2 POP POP JUMP JUMPDEST PUSH3 0x9B1 DUP2 PUSH3 0x5BF JUMP JUMPDEST DUP3 MSTORE POP POP JUMP JUMPDEST PUSH1 0x0 PUSH1 0x20 DUP3 ADD SWAP1 POP PUSH3 0x9CE PUSH1 0x0 DUP4 ADD DUP5 PUSH3 0x9A6 JUMP JUMPDEST SWAP3 SWAP2 POP POP JUMP JUMPDEST PUSH32 0x466F6F2063726561746564000000000000000000000000000000000000000000 PUSH1 0x0 DUP3 ADD MSTORE POP JUMP JUMPDEST PUSH1 0x0 PUSH3 0xA0C PUSH1 0xB DUP4 PUSH3 0x883 JUMP JUMPDEST SWAP2 POP PUSH3 0xA19 DUP3 PUSH3 0x9D4 JUMP JUMPDEST PUSH1 0x20 DUP3 ADD SWAP1 POP SWAP2 SWAP1 POP JUMP JUMPDEST PUSH1 0x0 PUSH1 0x20 DUP3 ADD SWAP1 POP DUP2 DUP2 SUB PUSH1 0x0 DUP4 ADD MSTORE PUSH3 0xA3F DUP2 PUSH3 0x9FD JUMP JUMPDEST SWAP1 POP SWAP2 SWAP1 POP JUMP JUMPDEST PUSH32 0x65787465726E616C2063616C6C206661696C6564000000000000000000000000 PUSH1 0x0 DUP3 ADD MSTORE POP JUMP JUMPDEST PUSH1 0x0 PUSH3 0xA7E PUSH1 0x14 DUP4 PUSH3 0x883 JUMP JUMPDEST SWAP2 POP PUSH3 0xA8B DUP3 PUSH3 0xA46 JUMP JUMPDEST PUSH1 0x20 DUP3 ADD SWAP1 POP SWAP2 SWAP1 POP JUMP JUMPDEST PUSH1 0x0 PUSH1 0x20 DUP3 ADD SWAP1 POP DUP2 DUP2 SUB PUSH1 0x0 DUP4 ADD MSTORE PUSH3 0xAB1 DUP2 PUSH3 0xA6F JUMP JUMPDEST SWAP1 POP SWAP2 SWAP1 POP JUMP JUMPDEST PUSH32 0x746120636869612068616F000000000000000000000000000000000000000000 PUSH1 0x0 DUP3 ADD MSTORE POP JUMP JUMPDEST PUSH1 0x0 PUSH3 0xAF0 PUSH1 0xB DUP4 PUSH3 0x883 JUMP JUMPDEST SWAP2 POP PUSH3 0xAFD DUP3 PUSH3 0xAB8 JUMP JUMPDEST PUSH1 0x20 DUP3 ADD SWAP1 POP SWAP2 SWAP1 POP JUMP JUMPDEST PUSH1 0x0 PUSH1 0x20 DUP3 ADD SWAP1 POP DUP2 DUP2 SUB PUSH1 0x0 DUP4 ADD MSTORE PUSH3 0xB23 DUP2 PUSH3 0xAE1 JUMP JUMPDEST SWAP1 POP SWAP2 SWAP1 POP JUMP INVALID PUSH1 0x80 PUSH1 0x40 MSTORE CALLVALUE DUP1 ISZERO PUSH2 0x10 JUMPI PUSH1 0x0 DUP1 REVERT JUMPDEST POP PUSH1 0x40 MLOAD PUSH2 0x691 CODESIZE SUB DUP1 PUSH2 0x691 DUP4 CODECOPY DUP2 DUP2 ADD PUSH1 0x40 MSTORE DUP2 ADD SWAP1 PUSH2 0x32 SWAP2 SWAP1 PUSH2 0x187 JUMP JUMPDEST PUSH1 0x0 PUSH20 0xFFFFFFFFFFFFFFFFFFFFFFFFFFFFFFFFFFFFFFFF AND DUP2 PUSH20 0xFFFFFFFFFFFFFFFFFFFFFFFFFFFFFFFFFFFFFFFF AND SUB PUSH2 0xA1 JUMPI PUSH1 0x40 MLOAD PUSH32 0x8C379A000000000000000000000000000000000000000000000000000000000 DUP2 MSTORE PUSH1 0x4 ADD PUSH2 0x98 SWAP1 PUSH2 0x211 JUMP JUMPDEST PUSH1 0x40 MLOAD DUP1 SWAP2 SUB SWAP1 REVERT JUMPDEST PUSH1 0x1 PUSH20 0xFFFFFFFFFFFFFFFFFFFFFFFFFFFFFFFFFFFFFFFF AND DUP2 PUSH20 0xFFFFFFFFFFFFFFFFFFFFFFFFFFFFFFFFFFFFFFFF AND SUB PUSH2 0xDE JUMPI PUSH2 0xDD PUSH2 0x231 JUMP JUMPDEST JUMPDEST DUP1 PUSH1 0x0 DUP1 PUSH2 0x100 EXP DUP2 SLOAD DUP2 PUSH20 0xFFFFFFFFFFFFFFFFFFFFFFFFFFFFFFFFFFFFFFFF MUL NOT AND SWAP1 DUP4 PUSH20 0xFFFFFFFFFFFFFFFFFFFFFFFFFFFFFFFFFFFFFFFF AND MUL OR SWAP1 SSTORE POP POP PUSH2 0x260 JUMP JUMPDEST PUSH1 0x0 DUP1 REVERT JUMPDEST PUSH1 0x0 PUSH20 0xFFFFFFFFFFFFFFFFFFFFFFFFFFFFFFFFFFFFFFFF DUP3 AND SWAP1 POP SWAP2 SWAP1 POP JUMP JUMPDEST PUSH1 0x0 PUSH2 0x154 DUP3 PUSH2 0x129 JUMP JUMPDEST SWAP1 POP SWAP2 SWAP1 POP JUMP JUMPDEST PUSH2 0x164 DUP2 PUSH2 0x149 JUMP JUMPDEST DUP2 EQ PUSH2 0x16F JUMPI PUSH1 0x0 DUP1 REVERT JUMPDEST POP JUMP JUMPDEST PUSH1 0x0 DUP2 MLOAD SWAP1 POP PUSH2 0x181 DUP2 PUSH2 0x15B JUMP JUMPDEST SWAP3 SWAP2 POP POP JUMP JUMPDEST PUSH1 0x0 PUSH1 0x20 DUP3 DUP5 SUB SLT ISZERO PUSH2 0x19D JUMPI PUSH2 0x19C PUSH2 0x124 JUMP JUMPDEST JUMPDEST PUSH1 0x0 PUSH2 0x1AB DUP5 DUP3 DUP6 ADD PUSH2 0x172 JUMP JUMPDEST SWAP2 POP POP SWAP3 SWAP2 POP POP JUMP JUMPDEST PUSH1 0x0 DUP3 DUP3 MSTORE PUSH1 0x20 DUP3 ADD SWAP1 POP SWAP3 SWAP2 POP POP JUMP JUMPDEST PUSH32 0x696E76616C696420616464726573730000000000000000000000000000000000 PUSH1 0x0 DUP3 ADD MSTORE POP JUMP JUMPDEST PUSH1 0x0 PUSH2 0x1FB PUSH1 0xF DUP4 PUSH2 0x1B4 JUMP JUMPDEST SWAP2 POP PUSH2 0x206 DUP3 PUSH2 0x1C5 JUMP JUMPDEST PUSH1 0x20 DUP3 ADD SWAP1 POP SWAP2 SWAP1 POP JUMP JUMPDEST PUSH1 0x0 PUSH1 0x20 DUP3 ADD SWAP1 POP DUP2 DUP2 SUB PUSH1 0x0 DUP4 ADD MSTORE PUSH2 0x22A DUP2 PUSH2 0x1EE JUMP JUMPDEST SWAP1 POP SWAP2 SWAP1 POP JUMP JUMPDEST PUSH32 0x4E487B7100000000000000000000000000000000000000000000000000000000 PUSH1 0x0 MSTORE PUSH1 0x1 PUSH1 0x4 MSTORE PUSH1 0x24 PUSH1 0x0 REVERT JUMPDEST PUSH2 0x422 DUP1 PUSH2 0x26F PUSH1 0x0 CODECOPY PUSH1 0x0 RETURN INVALID PUSH1 0x80 PUSH1 0x40 MSTORE CALLVALUE DUP1 ISZERO PUSH2 0x10 JUMPI PUSH1 0x0 DUP1 REVERT JUMPDEST POP PUSH1 0x4 CALLDATASIZE LT PUSH2 0x41 JUMPI PUSH1 0x0 CALLDATALOAD PUSH1 0xE0 SHR DUP1 PUSH4 0x50628C96 EQ PUSH2 0x46 JUMPI DUP1 PUSH4 0x8DA5CB5B EQ PUSH2 0x76 JUMPI DUP1 PUSH4 0xA9BF5633 EQ PUSH2 0x94 JUMPI JUMPDEST PUSH1 0x0 DUP1 REVERT JUMPDEST PUSH2 0x60 PUSH1 0x4 DUP1 CALLDATASIZE SUB DUP2 ADD SWAP1 PUSH2 0x5B SWAP2 SWAP1 PUSH2 0x1BE JUMP JUMPDEST PUSH2 0xB0 JUMP JUMPDEST PUSH1 0x40 MLOAD PUSH2 0x6D SWAP2 SWAP1 PUSH2 0x1FA JUMP JUMPDEST PUSH1 0x40 MLOAD DUP1 SWAP2 SUB SWAP1 RETURN JUMPDEST PUSH2 0x7E PUSH2 0x119 JUMP JUMPDEST PUSH1 0x40 MLOAD PUSH2 0x8B SWAP2 SWAP1 PUSH2 0x256 JUMP JUMPDEST PUSH1 0x40 MLOAD DUP1 SWAP2 SUB SWAP1 RETURN JUMPDEST PUSH2 0xAE PUSH1 0x4 DUP1 CALLDATASIZE SUB DUP2 ADD SWAP1 PUSH2 0xA9 SWAP2 SWAP1 PUSH2 0x1BE JUMP JUMPDEST PUSH2 0x13D JUMP JUMPDEST STOP JUMPDEST PUSH1 0x0 DUP1 DUP3 SUB PUSH2 0xF4 JUMPI PUSH1 0x40 MLOAD PUSH32 0x8C379A000000000000000000000000000000000000000000000000000000000 DUP2 MSTORE PUSH1 0x4 ADD PUSH2 0xEB SWAP1 PUSH2 0x2CE JUMP JUMPDEST PUSH1 0x40 MLOAD DUP1 SWAP2 SUB SWAP1 REVERT JUMPDEST PUSH1 0x1 DUP3 SUB PUSH2 0x105 JUMPI PUSH2 0x104 PUSH2 0x2EE JUMP JUMPDEST JUMPDEST PUSH1 0x1 DUP3 PUSH2 0x112 SWAP2 SWAP1 PUSH2 0x34C JUMP JUMPDEST SWAP1 POP SWAP2 SWAP1 POP JUMP JUMPDEST PUSH1 0x0 DUP1 SLOAD SWAP1 PUSH2 0x100 EXP SWAP1 DIV PUSH20 0xFFFFFFFFFFFFFFFFFFFFFFFFFFFFFFFFFFFFFFFF AND DUP2 JUMP JUMPDEST PUSH1 0x0 DUP2 SUB PUSH2 0x180 JUMPI PUSH1 0x40 MLOAD PUSH32 0x8C379A000000000000000000000000000000000000000000000000000000000 DUP2 MSTORE PUSH1 0x4 ADD PUSH2 0x177 SWAP1 PUSH2 0x3CC JUMP JUMPDEST PUSH1 0x40 MLOAD DUP1 SWAP2 SUB SWAP1 REVERT JUMPDEST POP JUMP JUMPDEST PUSH1 0x0 DUP1 REVERT JUMPDEST PUSH1 0x0 DUP2 SWAP1 POP SWAP2 SWAP1 POP JUMP JUMPDEST PUSH2 0x19B DUP2 PUSH2 0x188 JUMP JUMPDEST DUP2 EQ PUSH2 0x1A6 JUMPI PUSH1 0x0 DUP1 REVERT JUMPDEST POP JUMP JUMPDEST PUSH1 0x0 DUP2 CALLDATALOAD SWAP1 POP PUSH2 0x1B8 DUP2 PUSH2 0x192 JUMP JUMPDEST SWAP3 SWAP2 POP POP JUMP JUMPDEST PUSH1 0x0 PUSH1 0x20 DUP3 DUP5 SUB SLT ISZERO PUSH2 0x1D4 JUMPI PUSH2 0x1D3 PUSH2 0x183 JUMP JUMPDEST JUMPDEST PUSH1 0x0 PUSH2 0x1E2 DUP5 DUP3 DUP6 ADD PUSH2 0x1A9 JUMP JUMPDEST SWAP2 POP POP SWAP3 SWAP2 POP POP JUMP JUMPDEST PUSH2 0x1F4 DUP2 PUSH2 0x188 JUMP JUMPDEST DUP3 MSTORE POP POP JUMP JUMPDEST PUSH1 0x0 PUSH1 0x20 DUP3 ADD SWAP1 POP PUSH2 0x20F PUSH1 0x0 DUP4 ADD DUP5 PUSH2 0x1EB JUMP JUMPDEST SWAP3 SWAP2 POP POP JUMP JUMPDEST PUSH1 0x0 PUSH20 0xFFFFFFFFFFFFFFFFFFFFFFFFFFFFFFFFFFFFFFFF DUP3 AND SWAP1 POP SWAP2 SWAP1 POP JUMP JUMPDEST PUSH1 0x0 PUSH2 0x240 DUP3 PUSH2 0x215 JUMP JUMPDEST SWAP1 POP SWAP2 SWAP1 POP JUMP JUMPDEST PUSH2 0x250 DUP2 PUSH2 0x235 JUMP JUMPDEST DUP3 MSTORE POP POP JUMP JUMPDEST PUSH1 0x0 PUSH1 0x20 DUP3 ADD SWAP1 POP PUSH2 0x26B PUSH1 0x0 DUP4 ADD DUP5 PUSH2 0x247 JUMP JUMPDEST SWAP3 SWAP2 POP POP JUMP JUMPDEST PUSH1 0x0 DUP3 DUP3 MSTORE PUSH1 0x20 DUP3 ADD SWAP1 POP SWAP3 SWAP2 POP POP JUMP JUMPDEST PUSH32 0x782070686169206B686163206B686F6E67000000000000000000000000000000 PUSH1 0x0 DUP3 ADD MSTORE POP JUMP JUMPDEST PUSH1 0x0 PUSH2 0x2B8 PUSH1 0x11 DUP4 PUSH2 0x271 JUMP JUMPDEST SWAP2 POP PUSH2 0x2C3 DUP3 PUSH2 0x282 JUMP JUMPDEST PUSH1 0x20 DUP3 ADD SWAP1 POP SWAP2 SWAP1 POP JUMP JUMPDEST PUSH1 0x0 PUSH1 0x20 DUP3 ADD SWAP1 POP DUP2 DUP2 SUB PUSH1 0x0 DUP4 ADD MSTORE PUSH2 0x2E7 DUP2 PUSH2 0x2AB JUMP JUMPDEST SWAP1 POP SWAP2 SWAP1 POP JUMP JUMPDEST PUSH32 0x4E487B7100000000000000000000000000000000000000000000000000000000 PUSH1 0x0 MSTORE PUSH1 0x1 PUSH1 0x4 MSTORE PUSH1 0x24 PUSH1 0x0 REVERT JUMPDEST PUSH32 0x4E487B7100000000000000000000000000000000000000000000000000000000 PUSH1 0x0 MSTORE PUSH1 0x11 PUSH1 0x4 MSTORE PUSH1 0x24 PUSH1 0x0 REVERT JUMPDEST PUSH1 0x0 PUSH2 0x357 DUP3 PUSH2 0x188 JUMP JUMPDEST SWAP2 POP PUSH2 0x362 DUP4 PUSH2 0x188 JUMP JUMPDEST SWAP3 POP DUP3 DUP3 ADD SWAP1 POP DUP1 DUP3 GT ISZERO PUSH2 0x37A JUMPI PUSH2 0x379 PUSH2 0x31D JUMP JUMPDEST JUMPDEST SWAP3 SWAP2 POP POP JUMP JUMPDEST PUSH32 0x72657175697265206661696C6564000000000000000000000000000000000000 PUSH1 0x0 DUP3 ADD MSTORE POP JUMP JUMPDEST PUSH1 0x0 PUSH2 0x3B6 PUSH1 0xE DUP4 PUSH2 0x271 JUMP JUMPDEST SWAP2 POP PUSH2 0x3C1 DUP3 PUSH2 0x380 JUMP JUMPDEST PUSH1 0x20 DUP3 ADD SWAP1 POP SWAP2 SWAP1 POP JUMP JUMPDEST PUSH1 0x0 PUSH1 0x20 DUP3 ADD SWAP1 POP DUP2 DUP2 SUB PUSH1 0x0 DUP4 ADD MSTORE PUSH2 0x3E5 DUP2 PUSH2 0x3A9 JUMP JUMPDEST SWAP1 POP SWAP2 SWAP1 POP JUMP INVALID LOG2 PUSH5 0x6970667358 0x22 SLT KECCAK256 SWAP1 0xD5 PUSH5 0xC2A25A8E2 DIV SWAP14 PUSH11 0x3FEE1F2AE356F0A89173AB 0xE3 0x4C SWAP5 SWAP9 0xE6 ADDRESS EXTCODESIZE 0xA9 PC 0xCC PUSH5 0x736F6C6343 STOP ADDMOD SLT STOP CALLER LOG2 PUSH5 0x6970667358 0x22 SLT KECCAK256 0x4F CALL 0xF7 SWAP6 DUP14 PUSH12 0xAB9843A29BC87AFFB763A76 SWAP14 TIMESTAMP 0xDF EXTCODEHASH SHL PUSH19 0x3C8D976A9AE8A8FA64736F6C63430008120033 PUSH1 0x80 PUSH1 0x40 MSTORE CALLVALUE DUP1 ISZERO PUSH2 0x10 JUMPI PUSH1 0x0 DUP1 REVERT JUMPDEST POP PUSH1 0x40 MLOAD PUSH2 0x691 CODESIZE SUB DUP1 PUSH2 0x691 DUP4 CODECOPY DUP2 DUP2 ADD PUSH1 0x40 MSTORE DUP2 ADD SWAP1 PUSH2 0x32 SWAP2 SWAP1 PUSH2 0x187 JUMP JUMPDEST PUSH1 0x0 PUSH20 0xFFFFFFFFFFFFFFFFFFFFFFFFFFFFFFFFFFFFFFFF AND DUP2 PUSH20 0xFFFFFFFFFFFFFFFFFFFFFFFFFFFFFFFFFFFFFFFF AND SUB PUSH2 0xA1 JUMPI PUSH1 0x40 MLOAD PUSH32 0x8C379A000000000000000000000000000000000000000000000000000000000 DUP2 MSTORE PUSH1 0x4 ADD PUSH2 0x98 SWAP1 PUSH2 0x211 JUMP JUMPDEST PUSH1 0x40 MLOAD DUP1 SWAP2 SUB SWAP1 REVERT JUMPDEST PUSH1 0x1 PUSH20 0xFFFFFFFFFFFFFFFFFFFFFFFFFFFFFFFFFFFFFFFF AND DUP2 PUSH20 0xFFFFFFFFFFFFFFFFFFFFFFFFFFFFFFFFFFFFFFFF AND SUB PUSH2 0xDE JUMPI PUSH2 0xDD PUSH2 0x231 JUMP JUMPDEST JUMPDEST DUP1 PUSH1 0x0 DUP1 PUSH2 0x100 EXP DUP2 SLOAD DUP2 PUSH20 0xFFFFFFFFFFFFFFFFFFFFFFFFFFFFFFFFFFFFFFFF MUL NOT AND SWAP1 DUP4 PUSH20 0xFFFFFFFFFFFFFFFFFFFFFFFFFFFFFFFFFFFFFFFF AND MUL OR SWAP1 SSTORE POP POP PUSH2 0x260 JUMP JUMPDEST PUSH1 0x0 DUP1 REVERT JUMPDEST PUSH1 0x0 PUSH20 0xFFFFFFFFFFFFFFFFFFFFFFFFFFFFFFFFFFFFFFFF DUP3 AND SWAP1 POP SWAP2 SWAP1 POP JUMP JUMPDEST PUSH1 0x0 PUSH2 0x154 DUP3 PUSH2 0x129 JUMP JUMPDEST SWAP1 POP SWAP2 SWAP1 POP JUMP JUMPDEST PUSH2 0x164 DUP2 PUSH2 0x149 JUMP JUMPDEST DUP2 EQ PUSH2 0x16F JUMPI PUSH1 0x0 DUP1 REVERT JUMPDEST POP JUMP JUMPDEST PUSH1 0x0 DUP2 MLOAD SWAP1 POP PUSH2 0x181 DUP2 PUSH2 0x15B JUMP JUMPDEST SWAP3 SWAP2 POP POP JUMP JUMPDEST PUSH1 0x0 PUSH1 0x20 DUP3 DUP5 SUB SLT ISZERO PUSH2 0x19D JUMPI PUSH2 0x19C PUSH2 0x124 JUMP JUMPDEST JUMPDEST PUSH1 0x0 PUSH2 0x1AB DUP5 DUP3 DUP6 ADD PUSH2 0x172 JUMP JUMPDEST SWAP2 POP POP SWAP3 SWAP2 POP POP JUMP JUMPDEST PUSH1 0x0 DUP3 DUP3 MSTORE PUSH1 0x20 DUP3 ADD SWAP1 POP SWAP3 SWAP2 POP POP JUMP JUMPDEST PUSH32 0x696E76616C696420616464726573730000000000000000000000000000000000 PUSH1 0x0 DUP3 ADD MSTORE POP JUMP JUMPDEST PUSH1 0x0 PUSH2 0x1FB PUSH1 0xF DUP4 PUSH2 0x1B4 JUMP JUMPDEST SWAP2 POP PUSH2 0x206 DUP3 PUSH2 0x1C5 JUMP JUMPDEST PUSH1 0x20 DUP3 ADD SWAP1 POP SWAP2 SWAP1 POP JUMP JUMPDEST PUSH1 0x0 PUSH1 0x20 DUP3 ADD SWAP1 POP DUP2 DUP2 SUB PUSH1 0x0 DUP4 ADD MSTORE PUSH2 0x22A DUP2 PUSH2 0x1EE JUMP JUMPDEST SWAP1 POP SWAP2 SWAP1 POP JUMP JUMPDEST PUSH32 0x4E487B7100000000000000000000000000000000000000000000000000000000 PUSH1 0x0 MSTORE PUSH1 0x1 PUSH1 0x4 MSTORE PUSH1 0x24 PUSH1 0x0 REVERT JUMPDEST PUSH2 0x422 DUP1 PUSH2 0x26F PUSH1 0x0 CODECOPY PUSH1 0x0 RETURN INVALID PUSH1 0x80 PUSH1 0x40 MSTORE CALLVALUE DUP1 ISZERO PUSH2 0x10 JUMPI PUSH1 0x0 DUP1 REVERT JUMPDEST POP PUSH1 0x4 CALLDATASIZE LT PUSH2 0x41 JUMPI PUSH1 0x0 CALLDATALOAD PUSH1 0xE0 SHR DUP1 PUSH4 0x50628C96 EQ PUSH2 0x46 JUMPI DUP1 PUSH4 0x8DA5CB5B EQ PUSH2 0x76 JUMPI DUP1 PUSH4 0xA9BF5633 EQ PUSH2 0x94 JUMPI JUMPDEST PUSH1 0x0 DUP1 REVERT JUMPDEST PUSH2 0x60 PUSH1 0x4 DUP1 CALLDATASIZE SUB DUP2 ADD SWAP1 PUSH2 0x5B SWAP2 SWAP1 PUSH2 0x1BE JUMP JUMPDEST PUSH2 0xB0 JUMP JUMPDEST PUSH1 0x40 MLOAD PUSH2 0x6D SWAP2 SWAP1 PUSH2 0x1FA JUMP JUMPDEST PUSH1 0x40 MLOAD DUP1 SWAP2 SUB SWAP1 RETURN JUMPDEST PUSH2 0x7E PUSH2 0x119 JUMP JUMPDEST PUSH1 0x40 MLOAD PUSH2 0x8B SWAP2 SWAP1 PUSH2 0x256 JUMP JUMPDEST PUSH1 0x40 MLOAD DUP1 SWAP2 SUB SWAP1 RETURN JUMPDEST PUSH2 0xAE PUSH1 0x4 DUP1 CALLDATASIZE SUB DUP2 ADD SWAP1 PUSH2 0xA9 SWAP2 SWAP1 PUSH2 0x1BE JUMP JUMPDEST PUSH2 0x13D JUMP JUMPDEST STOP JUMPDEST PUSH1 0x0 DUP1 DUP3 SUB PUSH2 0xF4 JUMPI PUSH1 0x40 MLOAD PUSH32 0x8C379A000000000000000000000000000000000000000000000000000000000 DUP2 MSTORE PUSH1 0x4 ADD PUSH2 0xEB SWAP1 PUSH2 0x2CE JUMP JUMPDEST PUSH1 0x40 MLOAD DUP1 SWAP2 SUB SWAP1 REVERT JUMPDEST PUSH1 0x1 DUP3 SUB PUSH2 0x105 JUMPI PUSH2 0x104 PUSH2 0x2EE JUMP JUMPDEST JUMPDEST PUSH1 0x1 DUP3 PUSH2 0x112 SWAP2 SWAP1 PUSH2 0x34C JUMP JUMPDEST SWAP1 POP SWAP2 SWAP1 POP JUMP JUMPDEST PUSH1 0x0 DUP1 SLOAD SWAP1 PUSH2 0x100 EXP SWAP1 DIV PUSH20 0xFFFFFFFFFFFFFFFFFFFFFFFFFFFFFFFFFFFFFFFF AND DUP2 JUMP JUMPDEST PUSH1 0x0 DUP2 SUB PUSH2 0x180 JUMPI PUSH1 0x40 MLOAD PUSH32 0x8C379A000000000000000000000000000000000000000000000000000000000 DUP2 MSTORE PUSH1 0x4 ADD PUSH2 0x177 SWAP1 PUSH2 0x3CC JUMP JUMPDEST PUSH1 0x40 MLOAD DUP1 SWAP2 SUB SWAP1 REVERT JUMPDEST POP JUMP JUMPDEST PUSH1 0x0 DUP1 REVERT JUMPDEST PUSH1 0x0 DUP2 SWAP1 POP SWAP2 SWAP1 POP JUMP JUMPDEST PUSH2 0x19B DUP2 PUSH2 0x188 JUMP JUMPDEST DUP2 EQ PUSH2 0x1A6 JUMPI PUSH1 0x0 DUP1 REVERT JUMPDEST POP JUMP JUMPDEST PUSH1 0x0 DUP2 CALLDATALOAD SWAP1 POP PUSH2 0x1B8 DUP2 PUSH2 0x192 JUMP JUMPDEST SWAP3 SWAP2 POP POP JUMP JUMPDEST PUSH1 0x0 PUSH1 0x20 DUP3 DUP5 SUB SLT ISZERO PUSH2 0x1D4 JUMPI PUSH2 0x1D3 PUSH2 0x183 JUMP JUMPDEST JUMPDEST PUSH1 0x0 PUSH2 0x1E2 DUP5 DUP3 DUP6 ADD PUSH2 0x1A9 JUMP JUMPDEST SWAP2 POP POP SWAP3 SWAP2 POP POP JUMP JUMPDEST PUSH2 0x1F4 DUP2 PUSH2 0x188 JUMP JUMPDEST DUP3 MSTORE POP POP JUMP JUMPDEST PUSH1 0x0 PUSH1 0x20 DUP3 ADD SWAP1 POP PUSH2 0x20F PUSH1 0x0 DUP4 ADD DUP5 PUSH2 0x1EB JUMP JUMPDEST SWAP3 SWAP2 POP POP JUMP JUMPDEST PUSH1 0x0 PUSH20 0xFFFFFFFFFFFFFFFFFFFFFFFFFFFFFFFFFFFFFFFF DUP3 AND SWAP1 POP SWAP2 SWAP1 POP JUMP JUMPDEST PUSH1 0x0 PUSH2 0x240 DUP3 PUSH2 0x215 JUMP JUMPDEST SWAP1 POP SWAP2 SWAP1 POP JUMP JUMPDEST PUSH2 0x250 DUP2 PUSH2 0x235 JUMP JUMPDEST DUP3 MSTORE POP POP JUMP JUMPDEST PUSH1 0x0 PUSH1 0x20 DUP3 ADD SWAP1 POP PUSH2 0x26B PUSH1 0x0 DUP4 ADD DUP5 PUSH2 0x247 JUMP JUMPDEST SWAP3 SWAP2 POP POP JUMP JUMPDEST PUSH1 0x0 DUP3 DUP3 MSTORE PUSH1 0x20 DUP3 ADD SWAP1 POP SWAP3 SWAP2 POP POP JUMP JUMPDEST PUSH32 0x782070686169206B686163206B686F6E67000000000000000000000000000000 PUSH1 0x0 DUP3 ADD MSTORE POP JUMP JUMPDEST PUSH1 0x0 PUSH2 0x2B8 PUSH1 0x11 DUP4 PUSH2 0x271 JUMP JUMPDEST SWAP2 POP PUSH2 0x2C3 DUP3 PUSH2 0x282 JUMP JUMPDEST PUSH1 0x20 DUP3 ADD SWAP1 POP SWAP2 SWAP1 POP JUMP JUMPDEST PUSH1 0x0 PUSH1 0x20 DUP3 ADD SWAP1 POP DUP2 DUP2 SUB PUSH1 0x0 DUP4 ADD MSTORE PUSH2 0x2E7 DUP2 PUSH2 0x2AB JUMP JUMPDEST SWAP1 POP SWAP2 SWAP1 POP JUMP JUMPDEST PUSH32 0x4E487B7100000000000000000000000000000000000000000000000000000000 PUSH1 0x0 MSTORE PUSH1 0x1 PUSH1 0x4 MSTORE PUSH1 0x24 PUSH1 0x0 REVERT JUMPDEST PUSH32 0x4E487B7100000000000000000000000000000000000000000000000000000000 PUSH1 0x0 MSTORE PUSH1 0x11 PUSH1 0x4 MSTORE PUSH1 0x24 PUSH1 0x0 REVERT JUMPDEST PUSH1 0x0 PUSH2 0x357 DUP3 PUSH2 0x188 JUMP JUMPDEST SWAP2 POP PUSH2 0x362 DUP4 PUSH2 0x188 JUMP JUMPDEST SWAP3 POP DUP3 DUP3 ADD SWAP1 POP DUP1 DUP3 GT ISZERO PUSH2 0x37A JUMPI PUSH2 0x379 PUSH2 0x31D JUMP JUMPDEST JUMPDEST SWAP3 SWAP2 POP POP JUMP JUMPDEST PUSH32 0x72657175697265206661696C6564000000000000000000000000000000000000 PUSH1 0x0 DUP3 ADD MSTORE POP JUMP JUMPDEST PUSH1 0x0 PUSH2 0x3B6 PUSH1 0xE DUP4 PUSH2 0x271 JUMP JUMPDEST SWAP2 POP PUSH2 0x3C1 DUP3 PUSH2 0x380 JUMP JUMPDEST PUSH1 0x20 DUP3 ADD SWAP1 POP SWAP2 SWAP1 POP JUMP JUMPDEST PUSH1 0x0 PUSH1 0x20 DUP3 ADD SWAP1 POP DUP2 DUP2 SUB PUSH1 0x0 DUP4 ADD MSTORE PUSH2 0x3E5 DUP2 PUSH2 0x3A9 JUMP JUMPDEST SWAP1 POP SWAP2 SWAP1 POP JUMP INVALID LOG2 PUSH5 0x6970667358 0x22 SLT KECCAK256 SWAP1 0xD5 PUSH5 0xC2A25A8E2 DIV SWAP14 PUSH11 0x3FEE1F2AE356F0A89173AB 0xE3 0x4C SWAP5 SWAP9 0xE6 ADDRESS EXTCODESIZE 0xA9 PC 0xCC PUSH5 0x736F6C6343 STOP ADDMOD SLT STOP CALLER "
		},
		"gasEstimates": {
			"creation": {
				"codeDepositCost": "918600",
				"executionCost": "infinite",
				"totalCost": "infinite"
			},
			"external": {
				"foo()": "infinite",
				"test1(uint256)": "infinite",
				"tryCatchExternalCall(uint256)": "infinite",
				"tryCatchNewContract(address)": "infinite"
			}
		},
		"methodIdentifiers": {
			"foo()": "c2985578",
			"test1(uint256)": "19ae8994",
			"tryCatchExternalCall(uint256)": "933ac084",
			"tryCatchNewContract(address)": "77bdab83"
		}
	},
	"abi": [
		{
			"inputs": [],
			"stateMutability": "nonpayable",
			"type": "constructor"
		},
		{
			"anonymous": false,
			"inputs": [
				{
					"indexed": false,
					"internalType": "string",
					"name": "message",
					"type": "string"
				}
			],
			"name": "Log",
			"type": "event"
		},
		{
			"anonymous": false,
			"inputs": [
				{
					"indexed": false,
					"internalType": "bytes",
					"name": "data",
					"type": "bytes"
				}
			],
			"name": "LogBytes",
			"type": "event"
		},
		{
			"anonymous": false,
			"inputs": [
				{
					"indexed": false,
					"internalType": "uint256",
					"name": "num",
					"type": "uint256"
				}
			],
			"name": "LogNum",
			"type": "event"
		},
		{
			"inputs": [],
			"name": "foo",
			"outputs": [
				{
					"internalType": "contract Foo",
					"name": "",
					"type": "address"
				}
			],
			"stateMutability": "view",
			"type": "function"
		},
		{
			"inputs": [
				{
					"internalType": "uint256",
					"name": "_i",
					"type": "uint256"
				}
			],
			"name": "test1",
			"outputs": [],
			"stateMutability": "nonpayable",
			"type": "function"
		},
		{
			"inputs": [
				{
					"internalType": "uint256",
					"name": "_i",
					"type": "uint256"
				}
			],
			"name": "tryCatchExternalCall",
			"outputs": [],
			"stateMutability": "nonpayable",
			"type": "function"
		},
		{
			"inputs": [
				{
					"internalType": "address",
					"name": "_owner",
					"type": "address"
				}
			],
			"name": "tryCatchNewContract",
			"outputs": [],
			"stateMutability": "nonpayable",
			"type": "function"
		}
	]
}