{
	"data": {
		"bytecode": {
			"linkReferences": {},
			"object": "608060405234801561001057600080fd5b50610ebe806100206000396000f3fe608060405234801561001057600080fd5b50600436106100625760003560e01c806338cc4831146100675780633fc8ae06146100855780635c07a4b0146100a1578063ad38867e146100ab578063c7a1865b146100c9578063f71d96cb146100e5575b600080fd5b61006f610117565b60405161007c9190610acf565b60405180910390f35b61009f600480360381019061009a9190610b4a565b61011f565b005b6100a96101f9565b005b6100b3610450565b6040516100c09190610acf565b60405180910390f35b6100e360048036038101906100de9190610b8a565b6107ea565b005b6100ff60048036038101906100fa9190610bed565b61081a565b60405161010e93929190610ca0565b60405180910390f35b600030905090565b6000801b6000806002811061013757610136610cd7565b5b60020201600101541415801561016c57506000801b600060016002811061016157610160610cd7565b5b600202016001015414155b61017557600080fd5b600061017f610877565b905061018b8383610a59565b6000826002811061019f5761019e610cd7565b5b6002020160010154146101b157600080fd5b82600082600281106101c6576101c5610cd7565b5b6002020160000160146101000a81548160ff021916908360038111156101ef576101ee610c1a565b5b0217905550505050565b600073ffffffffffffffffffffffffffffffffffffffff166000806002811061022557610224610cd7565b5b6002020160000160009054906101000a900473ffffffffffffffffffffffffffffffffffffffff1673ffffffffffffffffffffffffffffffffffffffff16036102c757336000806002811061027d5761027c610cd7565b5b6002020160000160006101000a81548173ffffffffffffffffffffffffffffffffffffffff021916908373ffffffffffffffffffffffffffffffffffffffff16021790555061044e565b600073ffffffffffffffffffffffffffffffffffffffff1660006001600281106102f4576102f3610cd7565b5b6002020160000160009054906101000a900473ffffffffffffffffffffffffffffffffffffffff1673ffffffffffffffffffffffffffffffffffffffff16036103975733600060016002811061034d5761034c610cd7565b5b6002020160000160006101000a81548173ffffffffffffffffffffffffffffffffffffffff021916908373ffffffffffffffffffffffffffffffffffffffff16021790555061044d565b600080600281106103ab576103aa610cd7565b5b6002020160000160009054906101000a900473ffffffffffffffffffffffffffffffffffffffff1660006001600281106103e8576103e7610cd7565b5b6002020160000160009054906101000a900473ffffffffffffffffffffffffffffffffffffffff166040517fd340e102000000000000000000000000000000000000000000000000000000008152600401610444929190610d06565b60405180910390fd5b5b565b60008060016002811061046657610465610cd7565b5b6002020160000160149054906101000a900460ff16600381111561048d5761048c610c1a565b5b600080600281106104a1576104a0610cd7565b5b6002020160000160149054906101000a900460ff1660038111156104c8576104c7610c1a565b5b036104d657600090506107e7565b600160038111156104ea576104e9610c1a565b5b600080600281106104fe576104fd610cd7565b5b6002020160000160149054906101000a900460ff16600381111561052557610524610c1a565b5b14801561057e57506003808111156105405761053f610c1a565b5b600060016002811061055557610554610cd7565b5b6002020160000160149054906101000a900460ff16600381111561057c5761057b610c1a565b5b145b156105c6576000806002811061059757610596610cd7565b5b6002020160000160009054906101000a900473ffffffffffffffffffffffffffffffffffffffff1690506107e7565b600260038111156105da576105d9610c1a565b5b600080600281106105ee576105ed610cd7565b5b6002020160000160149054906101000a900460ff16600381111561061557610614610c1a565b5b14801561066f57506001600381111561063157610630610c1a565b5b600060016002811061064657610645610cd7565b5b6002020160000160149054906101000a900460ff16600381111561066d5761066c610c1a565b5b145b156106b7576000806002811061068857610687610cd7565b5b6002020160000160009054906101000a900473ffffffffffffffffffffffffffffffffffffffff1690506107e7565b6003808111156106ca576106c9610c1a565b5b600080600281106106de576106dd610cd7565b5b6002020160000160149054906101000a900460ff16600381111561070557610704610c1a565b5b14801561075f57506002600381111561072157610720610c1a565b5b600060016002811061073657610735610cd7565b5b6002020160000160149054906101000a900460ff16600381111561075d5761075c610c1a565b5b145b156107a7576000806002811061077857610777610cd7565b5b6002020160000160009054906101000a900473ffffffffffffffffffffffffffffffffffffffff1690506107e7565b60006001600281106107bc576107bb610cd7565b5b6002020160000160009054906101000a900473ffffffffffffffffffffffffffffffffffffffff1690505b90565b60006107f4610877565b9050816000826002811061080b5761080a610cd7565b5b60020201600101819055505050565b6000816002811061082a57600080fd5b600202016000915090508060000160009054906101000a900473ffffffffffffffffffffffffffffffffffffffff16908060000160149054906101000a900460ff16908060010154905083565b60003373ffffffffffffffffffffffffffffffffffffffff16600080600281106108a4576108a3610cd7565b5b6002020160000160009054906101000a900473ffffffffffffffffffffffffffffffffffffffff1673ffffffffffffffffffffffffffffffffffffffff1614801561093b5750600060038111156108fe576108fd610c1a565b5b6000806002811061091257610911610cd7565b5b6002020160000160149054906101000a900460ff16600381111561093957610938610c1a565b5b145b156109495760009050610a56565b3373ffffffffffffffffffffffffffffffffffffffff16600060016002811061097557610974610cd7565b5b6002020160000160009054906101000a900473ffffffffffffffffffffffffffffffffffffffff1673ffffffffffffffffffffffffffffffffffffffff16148015610a0d5750600060038111156109cf576109ce610c1a565b5b60006001600281106109e4576109e3610cd7565b5b6002020160000160149054906101000a900460ff166003811115610a0b57610a0a610c1a565b5b145b15610a1b5760019050610a56565b6040517f08c379a0000000000000000000000000000000000000000000000000000000008152600401610a4d90610d8c565b60405180910390fd5b90565b6000308383604051602001610a7093929190610e4b565b60405160208183030381529060405280519060200120905092915050565b600073ffffffffffffffffffffffffffffffffffffffff82169050919050565b6000610ab982610a8e565b9050919050565b610ac981610aae565b82525050565b6000602082019050610ae46000830184610ac0565b92915050565b600080fd5b60048110610afc57600080fd5b50565b600081359050610b0e81610aef565b92915050565b6000819050919050565b610b2781610b14565b8114610b3257600080fd5b50565b600081359050610b4481610b1e565b92915050565b60008060408385031215610b6157610b60610aea565b5b6000610b6f85828601610aff565b9250506020610b8085828601610b35565b9150509250929050565b600060208284031215610ba057610b9f610aea565b5b6000610bae84828501610b35565b91505092915050565b6000819050919050565b610bca81610bb7565b8114610bd557600080fd5b50565b600081359050610be781610bc1565b92915050565b600060208284031215610c0357610c02610aea565b5b6000610c1184828501610bd8565b91505092915050565b7f4e487b7100000000000000000000000000000000000000000000000000000000600052602160045260246000fd5b60048110610c5a57610c59610c1a565b5b50565b6000819050610c6b82610c49565b919050565b6000610c7b82610c5d565b9050919050565b610c8b81610c70565b82525050565b610c9a81610b14565b82525050565b6000606082019050610cb56000830186610ac0565b610cc26020830185610c82565b610ccf6040830184610c91565b949350505050565b7f4e487b7100000000000000000000000000000000000000000000000000000000600052603260045260246000fd5b6000604082019050610d1b6000830185610ac0565b610d286020830184610ac0565b9392505050565b600082825260208201905092915050565b7f496e76616c69642063616c6c0000000000000000000000000000000000000000600082015250565b6000610d76600c83610d2f565b9150610d8182610d40565b602082019050919050565b60006020820190508181036000830152610da581610d69565b9050919050565b60008160601b9050919050565b6000610dc482610dac565b9050919050565b6000610dd682610db9565b9050919050565b610dee610de982610aae565b610dcb565b82525050565b60008160f81b9050919050565b6000610e0c82610df4565b9050919050565b610e24610e1f82610c70565b610e01565b82525050565b6000819050919050565b610e45610e4082610b14565b610e2a565b82525050565b6000610e578286610ddd565b601482019150610e678285610e13565b600182019150610e778284610e34565b60208201915081905094935050505056fea264697066735822122011b146b6abe252d83760af7db0457090200e3b2a8102bb4573f4d520362ac02064736f6c63430008120033",
			"opcodes": "PUSH1 0x80 PUSH1 0x40 MSTORE CALLVALUE DUP1 ISZERO PUSH2 0x10 JUMPI PUSH1 0x0 DUP1 REVERT JUMPDEST POP PUSH2 0xEBE DUP1 PUSH2 0x20 PUSH1 0x0 CODECOPY PUSH1 0x0 RETURN INVALID PUSH1 0x80 PUSH1 0x40 MSTORE CALLVALUE DUP1 ISZERO PUSH2 0x10 JUMPI PUSH1 0x0 DUP1 REVERT JUMPDEST POP PUSH1 0x4 CALLDATASIZE LT PUSH2 0x62 JUMPI PUSH1 0x0 CALLDATALOAD PUSH1 0xE0 SHR DUP1 PUSH4 0x38CC4831 EQ PUSH2 0x67 JUMPI DUP1 PUSH4 0x3FC8AE06 EQ PUSH2 0x85 JUMPI DUP1 PUSH4 0x5C07A4B0 EQ PUSH2 0xA1 JUMPI DUP1 PUSH4 0xAD38867E EQ PUSH2 0xAB JUMPI DUP1 PUSH4 0xC7A1865B EQ PUSH2 0xC9 JUMPI DUP1 PUSH4 0xF71D96CB EQ PUSH2 0xE5 JUMPI JUMPDEST PUSH1 0x0 DUP1 REVERT JUMPDEST PUSH2 0x6F PUSH2 0x117 JUMP JUMPDEST PUSH1 0x40 MLOAD PUSH2 0x7C SWAP2 SWAP1 PUSH2 0xACF JUMP JUMPDEST PUSH1 0x40 MLOAD DUP1 SWAP2 SUB SWAP1 RETURN JUMPDEST PUSH2 0x9F PUSH1 0x4 DUP1 CALLDATASIZE SUB DUP2 ADD SWAP1 PUSH2 0x9A SWAP2 SWAP1 PUSH2 0xB4A JUMP JUMPDEST PUSH2 0x11F JUMP JUMPDEST STOP JUMPDEST PUSH2 0xA9 PUSH2 0x1F9 JUMP JUMPDEST STOP JUMPDEST PUSH2 0xB3 PUSH2 0x450 JUMP JUMPDEST PUSH1 0x40 MLOAD PUSH2 0xC0 SWAP2 SWAP1 PUSH2 0xACF JUMP JUMPDEST PUSH1 0x40 MLOAD DUP1 SWAP2 SUB SWAP1 RETURN JUMPDEST PUSH2 0xE3 PUSH1 0x4 DUP1 CALLDATASIZE SUB DUP2 ADD SWAP1 PUSH2 0xDE SWAP2 SWAP1 PUSH2 0xB8A JUMP JUMPDEST PUSH2 0x7EA JUMP JUMPDEST STOP JUMPDEST PUSH2 0xFF PUSH1 0x4 DUP1 CALLDATASIZE SUB DUP2 ADD SWAP1 PUSH2 0xFA SWAP2 SWAP1 PUSH2 0xBED JUMP JUMPDEST PUSH2 0x81A JUMP JUMPDEST PUSH1 0x40 MLOAD PUSH2 0x10E SWAP4 SWAP3 SWAP2 SWAP1 PUSH2 0xCA0 JUMP JUMPDEST PUSH1 0x40 MLOAD DUP1 SWAP2 SUB SWAP1 RETURN JUMPDEST PUSH1 0x0 ADDRESS SWAP1 POP SWAP1 JUMP JUMPDEST PUSH1 0x0 DUP1 SHL PUSH1 0x0 DUP1 PUSH1 0x2 DUP2 LT PUSH2 0x137 JUMPI PUSH2 0x136 PUSH2 0xCD7 JUMP JUMPDEST JUMPDEST PUSH1 0x2 MUL ADD PUSH1 0x1 ADD SLOAD EQ ISZERO DUP1 ISZERO PUSH2 0x16C JUMPI POP PUSH1 0x0 DUP1 SHL PUSH1 0x0 PUSH1 0x1 PUSH1 0x2 DUP2 LT PUSH2 0x161 JUMPI PUSH2 0x160 PUSH2 0xCD7 JUMP JUMPDEST JUMPDEST PUSH1 0x2 MUL ADD PUSH1 0x1 ADD SLOAD EQ ISZERO JUMPDEST PUSH2 0x175 JUMPI PUSH1 0x0 DUP1 REVERT JUMPDEST PUSH1 0x0 PUSH2 0x17F PUSH2 0x877 JUMP JUMPDEST SWAP1 POP PUSH2 0x18B DUP4 DUP4 PUSH2 0xA59 JUMP JUMPDEST PUSH1 0x0 DUP3 PUSH1 0x2 DUP2 LT PUSH2 0x19F JUMPI PUSH2 0x19E PUSH2 0xCD7 JUMP JUMPDEST JUMPDEST PUSH1 0x2 MUL ADD PUSH1 0x1 ADD SLOAD EQ PUSH2 0x1B1 JUMPI PUSH1 0x0 DUP1 REVERT JUMPDEST DUP3 PUSH1 0x0 DUP3 PUSH1 0x2 DUP2 LT PUSH2 0x1C6 JUMPI PUSH2 0x1C5 PUSH2 0xCD7 JUMP JUMPDEST JUMPDEST PUSH1 0x2 MUL ADD PUSH1 0x0 ADD PUSH1 0x14 PUSH2 0x100 EXP DUP2 SLOAD DUP2 PUSH1 0xFF MUL NOT AND SWAP1 DUP4 PUSH1 0x3 DUP2 GT ISZERO PUSH2 0x1EF JUMPI PUSH2 0x1EE PUSH2 0xC1A JUMP JUMPDEST JUMPDEST MUL OR SWAP1 SSTORE POP POP POP POP JUMP JUMPDEST PUSH1 0x0 PUSH20 0xFFFFFFFFFFFFFFFFFFFFFFFFFFFFFFFFFFFFFFFF AND PUSH1 0x0 DUP1 PUSH1 0x2 DUP2 LT PUSH2 0x225 JUMPI PUSH2 0x224 PUSH2 0xCD7 JUMP JUMPDEST JUMPDEST PUSH1 0x2 MUL ADD PUSH1 0x0 ADD PUSH1 0x0 SWAP1 SLOAD SWAP1 PUSH2 0x100 EXP SWAP1 DIV PUSH20 0xFFFFFFFFFFFFFFFFFFFFFFFFFFFFFFFFFFFFFFFF AND PUSH20 0xFFFFFFFFFFFFFFFFFFFFFFFFFFFFFFFFFFFFFFFF AND SUB PUSH2 0x2C7 JUMPI CALLER PUSH1 0x0 DUP1 PUSH1 0x2 DUP2 LT PUSH2 0x27D JUMPI PUSH2 0x27C PUSH2 0xCD7 JUMP JUMPDEST JUMPDEST PUSH1 0x2 MUL ADD PUSH1 0x0 ADD PUSH1 0x0 PUSH2 0x100 EXP DUP2 SLOAD DUP2 PUSH20 0xFFFFFFFFFFFFFFFFFFFFFFFFFFFFFFFFFFFFFFFF MUL NOT AND SWAP1 DUP4 PUSH20 0xFFFFFFFFFFFFFFFFFFFFFFFFFFFFFFFFFFFFFFFF AND MUL OR SWAP1 SSTORE POP PUSH2 0x44E JUMP JUMPDEST PUSH1 0x0 PUSH20 0xFFFFFFFFFFFFFFFFFFFFFFFFFFFFFFFFFFFFFFFF AND PUSH1 0x0 PUSH1 0x1 PUSH1 0x2 DUP2 LT PUSH2 0x2F4 JUMPI PUSH2 0x2F3 PUSH2 0xCD7 JUMP JUMPDEST JUMPDEST PUSH1 0x2 MUL ADD PUSH1 0x0 ADD PUSH1 0x0 SWAP1 SLOAD SWAP1 PUSH2 0x100 EXP SWAP1 DIV PUSH20 0xFFFFFFFFFFFFFFFFFFFFFFFFFFFFFFFFFFFFFFFF AND PUSH20 0xFFFFFFFFFFFFFFFFFFFFFFFFFFFFFFFFFFFFFFFF AND SUB PUSH2 0x397 JUMPI CALLER PUSH1 0x0 PUSH1 0x1 PUSH1 0x2 DUP2 LT PUSH2 0x34D JUMPI PUSH2 0x34C PUSH2 0xCD7 JUMP JUMPDEST JUMPDEST PUSH1 0x2 MUL ADD PUSH1 0x0 ADD PUSH1 0x0 PUSH2 0x100 EXP DUP2 SLOAD DUP2 PUSH20 0xFFFFFFFFFFFFFFFFFFFFFFFFFFFFFFFFFFFFFFFF MUL NOT AND SWAP1 DUP4 PUSH20 0xFFFFFFFFFFFFFFFFFFFFFFFFFFFFFFFFFFFFFFFF AND MUL OR SWAP1 SSTORE POP PUSH2 0x44D JUMP JUMPDEST PUSH1 0x0 DUP1 PUSH1 0x2 DUP2 LT PUSH2 0x3AB JUMPI PUSH2 0x3AA PUSH2 0xCD7 JUMP JUMPDEST JUMPDEST PUSH1 0x2 MUL ADD PUSH1 0x0 ADD PUSH1 0x0 SWAP1 SLOAD SWAP1 PUSH2 0x100 EXP SWAP1 DIV PUSH20 0xFFFFFFFFFFFFFFFFFFFFFFFFFFFFFFFFFFFFFFFF AND PUSH1 0x0 PUSH1 0x1 PUSH1 0x2 DUP2 LT PUSH2 0x3E8 JUMPI PUSH2 0x3E7 PUSH2 0xCD7 JUMP JUMPDEST JUMPDEST PUSH1 0x2 MUL ADD PUSH1 0x0 ADD PUSH1 0x0 SWAP1 SLOAD SWAP1 PUSH2 0x100 EXP SWAP1 DIV PUSH20 0xFFFFFFFFFFFFFFFFFFFFFFFFFFFFFFFFFFFFFFFF AND PUSH1 0x40 MLOAD PUSH32 0xD340E10200000000000000000000000000000000000000000000000000000000 DUP2 MSTORE PUSH1 0x4 ADD PUSH2 0x444 SWAP3 SWAP2 SWAP1 PUSH2 0xD06 JUMP JUMPDEST PUSH1 0x40 MLOAD DUP1 SWAP2 SUB SWAP1 REVERT JUMPDEST JUMPDEST JUMP JUMPDEST PUSH1 0x0 DUP1 PUSH1 0x1 PUSH1 0x2 DUP2 LT PUSH2 0x466 JUMPI PUSH2 0x465 PUSH2 0xCD7 JUMP JUMPDEST JUMPDEST PUSH1 0x2 MUL ADD PUSH1 0x0 ADD PUSH1 0x14 SWAP1 SLOAD SWAP1 PUSH2 0x100 EXP SWAP1 DIV PUSH1 0xFF AND PUSH1 0x3 DUP2 GT ISZERO PUSH2 0x48D JUMPI PUSH2 0x48C PUSH2 0xC1A JUMP JUMPDEST JUMPDEST PUSH1 0x0 DUP1 PUSH1 0x2 DUP2 LT PUSH2 0x4A1 JUMPI PUSH2 0x4A0 PUSH2 0xCD7 JUMP JUMPDEST JUMPDEST PUSH1 0x2 MUL ADD PUSH1 0x0 ADD PUSH1 0x14 SWAP1 SLOAD SWAP1 PUSH2 0x100 EXP SWAP1 DIV PUSH1 0xFF AND PUSH1 0x3 DUP2 GT ISZERO PUSH2 0x4C8 JUMPI PUSH2 0x4C7 PUSH2 0xC1A JUMP JUMPDEST JUMPDEST SUB PUSH2 0x4D6 JUMPI PUSH1 0x0 SWAP1 POP PUSH2 0x7E7 JUMP JUMPDEST PUSH1 0x1 PUSH1 0x3 DUP2 GT ISZERO PUSH2 0x4EA JUMPI PUSH2 0x4E9 PUSH2 0xC1A JUMP JUMPDEST JUMPDEST PUSH1 0x0 DUP1 PUSH1 0x2 DUP2 LT PUSH2 0x4FE JUMPI PUSH2 0x4FD PUSH2 0xCD7 JUMP JUMPDEST JUMPDEST PUSH1 0x2 MUL ADD PUSH1 0x0 ADD PUSH1 0x14 SWAP1 SLOAD SWAP1 PUSH2 0x100 EXP SWAP1 DIV PUSH1 0xFF AND PUSH1 0x3 DUP2 GT ISZERO PUSH2 0x525 JUMPI PUSH2 0x524 PUSH2 0xC1A JUMP JUMPDEST JUMPDEST EQ DUP1 ISZERO PUSH2 0x57E JUMPI POP PUSH1 0x3 DUP1 DUP2 GT ISZERO PUSH2 0x540 JUMPI PUSH2 0x53F PUSH2 0xC1A JUMP JUMPDEST JUMPDEST PUSH1 0x0 PUSH1 0x1 PUSH1 0x2 DUP2 LT PUSH2 0x555 JUMPI PUSH2 0x554 PUSH2 0xCD7 JUMP JUMPDEST JUMPDEST PUSH1 0x2 MUL ADD PUSH1 0x0 ADD PUSH1 0x14 SWAP1 SLOAD SWAP1 PUSH2 0x100 EXP SWAP1 DIV PUSH1 0xFF AND PUSH1 0x3 DUP2 GT ISZERO PUSH2 0x57C JUMPI PUSH2 0x57B PUSH2 0xC1A JUMP JUMPDEST JUMPDEST EQ JUMPDEST ISZERO PUSH2 0x5C6 JUMPI PUSH1 0x0 DUP1 PUSH1 0x2 DUP2 LT PUSH2 0x597 JUMPI PUSH2 0x596 PUSH2 0xCD7 JUMP JUMPDEST JUMPDEST PUSH1 0x2 MUL ADD PUSH1 0x0 ADD PUSH1 0x0 SWAP1 SLOAD SWAP1 PUSH2 0x100 EXP SWAP1 DIV PUSH20 0xFFFFFFFFFFFFFFFFFFFFFFFFFFFFFFFFFFFFFFFF AND SWAP1 POP PUSH2 0x7E7 JUMP JUMPDEST PUSH1 0x2 PUSH1 0x3 DUP2 GT ISZERO PUSH2 0x5DA JUMPI PUSH2 0x5D9 PUSH2 0xC1A JUMP JUMPDEST JUMPDEST PUSH1 0x0 DUP1 PUSH1 0x2 DUP2 LT PUSH2 0x5EE JUMPI PUSH2 0x5ED PUSH2 0xCD7 JUMP JUMPDEST JUMPDEST PUSH1 0x2 MUL ADD PUSH1 0x0 ADD PUSH1 0x14 SWAP1 SLOAD SWAP1 PUSH2 0x100 EXP SWAP1 DIV PUSH1 0xFF AND PUSH1 0x3 DUP2 GT ISZERO PUSH2 0x615 JUMPI PUSH2 0x614 PUSH2 0xC1A JUMP JUMPDEST JUMPDEST EQ DUP1 ISZERO PUSH2 0x66F JUMPI POP PUSH1 0x1 PUSH1 0x3 DUP2 GT ISZERO PUSH2 0x631 JUMPI PUSH2 0x630 PUSH2 0xC1A JUMP JUMPDEST JUMPDEST PUSH1 0x0 PUSH1 0x1 PUSH1 0x2 DUP2 LT PUSH2 0x646 JUMPI PUSH2 0x645 PUSH2 0xCD7 JUMP JUMPDEST JUMPDEST PUSH1 0x2 MUL ADD PUSH1 0x0 ADD PUSH1 0x14 SWAP1 SLOAD SWAP1 PUSH2 0x100 EXP SWAP1 DIV PUSH1 0xFF AND PUSH1 0x3 DUP2 GT ISZERO PUSH2 0x66D JUMPI PUSH2 0x66C PUSH2 0xC1A JUMP JUMPDEST JUMPDEST EQ JUMPDEST ISZERO PUSH2 0x6B7 JUMPI PUSH1 0x0 DUP1 PUSH1 0x2 DUP2 LT PUSH2 0x688 JUMPI PUSH2 0x687 PUSH2 0xCD7 JUMP JUMPDEST JUMPDEST PUSH1 0x2 MUL ADD PUSH1 0x0 ADD PUSH1 0x0 SWAP1 SLOAD SWAP1 PUSH2 0x100 EXP SWAP1 DIV PUSH20 0xFFFFFFFFFFFFFFFFFFFFFFFFFFFFFFFFFFFFFFFF AND SWAP1 POP PUSH2 0x7E7 JUMP JUMPDEST PUSH1 0x3 DUP1 DUP2 GT ISZERO PUSH2 0x6CA JUMPI PUSH2 0x6C9 PUSH2 0xC1A JUMP JUMPDEST JUMPDEST PUSH1 0x0 DUP1 PUSH1 0x2 DUP2 LT PUSH2 0x6DE JUMPI PUSH2 0x6DD PUSH2 0xCD7 JUMP JUMPDEST JUMPDEST PUSH1 0x2 MUL ADD PUSH1 0x0 ADD PUSH1 0x14 SWAP1 SLOAD SWAP1 PUSH2 0x100 EXP SWAP1 DIV PUSH1 0xFF AND PUSH1 0x3 DUP2 GT ISZERO PUSH2 0x705 JUMPI PUSH2 0x704 PUSH2 0xC1A JUMP JUMPDEST JUMPDEST EQ DUP1 ISZERO PUSH2 0x75F JUMPI POP PUSH1 0x2 PUSH1 0x3 DUP2 GT ISZERO PUSH2 0x721 JUMPI PUSH2 0x720 PUSH2 0xC1A JUMP JUMPDEST JUMPDEST PUSH1 0x0 PUSH1 0x1 PUSH1 0x2 DUP2 LT PUSH2 0x736 JUMPI PUSH2 0x735 PUSH2 0xCD7 JUMP JUMPDEST JUMPDEST PUSH1 0x2 MUL ADD PUSH1 0x0 ADD PUSH1 0x14 SWAP1 SLOAD SWAP1 PUSH2 0x100 EXP SWAP1 DIV PUSH1 0xFF AND PUSH1 0x3 DUP2 GT ISZERO PUSH2 0x75D JUMPI PUSH2 0x75C PUSH2 0xC1A JUMP JUMPDEST JUMPDEST EQ JUMPDEST ISZERO PUSH2 0x7A7 JUMPI PUSH1 0x0 DUP1 PUSH1 0x2 DUP2 LT PUSH2 0x778 JUMPI PUSH2 0x777 PUSH2 0xCD7 JUMP JUMPDEST JUMPDEST PUSH1 0x2 MUL ADD PUSH1 0x0 ADD PUSH1 0x0 SWAP1 SLOAD SWAP1 PUSH2 0x100 EXP SWAP1 DIV PUSH20 0xFFFFFFFFFFFFFFFFFFFFFFFFFFFFFFFFFFFFFFFF AND SWAP1 POP PUSH2 0x7E7 JUMP JUMPDEST PUSH1 0x0 PUSH1 0x1 PUSH1 0x2 DUP2 LT PUSH2 0x7BC JUMPI PUSH2 0x7BB PUSH2 0xCD7 JUMP JUMPDEST JUMPDEST PUSH1 0x2 MUL ADD PUSH1 0x0 ADD PUSH1 0x0 SWAP1 SLOAD SWAP1 PUSH2 0x100 EXP SWAP1 DIV PUSH20 0xFFFFFFFFFFFFFFFFFFFFFFFFFFFFFFFFFFFFFFFF AND SWAP1 POP JUMPDEST SWAP1 JUMP JUMPDEST PUSH1 0x0 PUSH2 0x7F4 PUSH2 0x877 JUMP JUMPDEST SWAP1 POP DUP2 PUSH1 0x0 DUP3 PUSH1 0x2 DUP2 LT PUSH2 0x80B JUMPI PUSH2 0x80A PUSH2 0xCD7 JUMP JUMPDEST JUMPDEST PUSH1 0x2 MUL ADD PUSH1 0x1 ADD DUP2 SWAP1 SSTORE POP POP POP JUMP JUMPDEST PUSH1 0x0 DUP2 PUSH1 0x2 DUP2 LT PUSH2 0x82A JUMPI PUSH1 0x0 DUP1 REVERT JUMPDEST PUSH1 0x2 MUL ADD PUSH1 0x0 SWAP2 POP SWAP1 POP DUP1 PUSH1 0x0 ADD PUSH1 0x0 SWAP1 SLOAD SWAP1 PUSH2 0x100 EXP SWAP1 DIV PUSH20 0xFFFFFFFFFFFFFFFFFFFFFFFFFFFFFFFFFFFFFFFF AND SWAP1 DUP1 PUSH1 0x0 ADD PUSH1 0x14 SWAP1 SLOAD SWAP1 PUSH2 0x100 EXP SWAP1 DIV PUSH1 0xFF AND SWAP1 DUP1 PUSH1 0x1 ADD SLOAD SWAP1 POP DUP4 JUMP JUMPDEST PUSH1 0x0 CALLER PUSH20 0xFFFFFFFFFFFFFFFFFFFFFFFFFFFFFFFFFFFFFFFF AND PUSH1 0x0 DUP1 PUSH1 0x2 DUP2 LT PUSH2 0x8A4 JUMPI PUSH2 0x8A3 PUSH2 0xCD7 JUMP JUMPDEST JUMPDEST PUSH1 0x2 MUL ADD PUSH1 0x0 ADD PUSH1 0x0 SWAP1 SLOAD SWAP1 PUSH2 0x100 EXP SWAP1 DIV PUSH20 0xFFFFFFFFFFFFFFFFFFFFFFFFFFFFFFFFFFFFFFFF AND PUSH20 0xFFFFFFFFFFFFFFFFFFFFFFFFFFFFFFFFFFFFFFFF AND EQ DUP1 ISZERO PUSH2 0x93B JUMPI POP PUSH1 0x0 PUSH1 0x3 DUP2 GT ISZERO PUSH2 0x8FE JUMPI PUSH2 0x8FD PUSH2 0xC1A JUMP JUMPDEST JUMPDEST PUSH1 0x0 DUP1 PUSH1 0x2 DUP2 LT PUSH2 0x912 JUMPI PUSH2 0x911 PUSH2 0xCD7 JUMP JUMPDEST JUMPDEST PUSH1 0x2 MUL ADD PUSH1 0x0 ADD PUSH1 0x14 SWAP1 SLOAD SWAP1 PUSH2 0x100 EXP SWAP1 DIV PUSH1 0xFF AND PUSH1 0x3 DUP2 GT ISZERO PUSH2 0x939 JUMPI PUSH2 0x938 PUSH2 0xC1A JUMP JUMPDEST JUMPDEST EQ JUMPDEST ISZERO PUSH2 0x949 JUMPI PUSH1 0x0 SWAP1 POP PUSH2 0xA56 JUMP JUMPDEST CALLER PUSH20 0xFFFFFFFFFFFFFFFFFFFFFFFFFFFFFFFFFFFFFFFF AND PUSH1 0x0 PUSH1 0x1 PUSH1 0x2 DUP2 LT PUSH2 0x975 JUMPI PUSH2 0x974 PUSH2 0xCD7 JUMP JUMPDEST JUMPDEST PUSH1 0x2 MUL ADD PUSH1 0x0 ADD PUSH1 0x0 SWAP1 SLOAD SWAP1 PUSH2 0x100 EXP SWAP1 DIV PUSH20 0xFFFFFFFFFFFFFFFFFFFFFFFFFFFFFFFFFFFFFFFF AND PUSH20 0xFFFFFFFFFFFFFFFFFFFFFFFFFFFFFFFFFFFFFFFF AND EQ DUP1 ISZERO PUSH2 0xA0D JUMPI POP PUSH1 0x0 PUSH1 0x3 DUP2 GT ISZERO PUSH2 0x9CF JUMPI PUSH2 0x9CE PUSH2 0xC1A JUMP JUMPDEST JUMPDEST PUSH1 0x0 PUSH1 0x1 PUSH1 0x2 DUP2 LT PUSH2 0x9E4 JUMPI PUSH2 0x9E3 PUSH2 0xCD7 JUMP JUMPDEST JUMPDEST PUSH1 0x2 MUL ADD PUSH1 0x0 ADD PUSH1 0x14 SWAP1 SLOAD SWAP1 PUSH2 0x100 EXP SWAP1 DIV PUSH1 0xFF AND PUSH1 0x3 DUP2 GT ISZERO PUSH2 0xA0B JUMPI PUSH2 0xA0A PUSH2 0xC1A JUMP JUMPDEST JUMPDEST EQ JUMPDEST ISZERO PUSH2 0xA1B JUMPI PUSH1 0x1 SWAP1 POP PUSH2 0xA56 JUMP JUMPDEST PUSH1 0x40 MLOAD PUSH32 0x8C379A000000000000000000000000000000000000000000000000000000000 DUP2 MSTORE PUSH1 0x4 ADD PUSH2 0xA4D SWAP1 PUSH2 0xD8C JUMP JUMPDEST PUSH1 0x40 MLOAD DUP1 SWAP2 SUB SWAP1 REVERT JUMPDEST SWAP1 JUMP JUMPDEST PUSH1 0x0 ADDRESS DUP4 DUP4 PUSH1 0x40 MLOAD PUSH1 0x20 ADD PUSH2 0xA70 SWAP4 SWAP3 SWAP2 SWAP1 PUSH2 0xE4B JUMP JUMPDEST PUSH1 0x40 MLOAD PUSH1 0x20 DUP2 DUP4 SUB SUB DUP2 MSTORE SWAP1 PUSH1 0x40 MSTORE DUP1 MLOAD SWAP1 PUSH1 0x20 ADD KECCAK256 SWAP1 POP SWAP3 SWAP2 POP POP JUMP JUMPDEST PUSH1 0x0 PUSH20 0xFFFFFFFFFFFFFFFFFFFFFFFFFFFFFFFFFFFFFFFF DUP3 AND SWAP1 POP SWAP2 SWAP1 POP JUMP JUMPDEST PUSH1 0x0 PUSH2 0xAB9 DUP3 PUSH2 0xA8E JUMP JUMPDEST SWAP1 POP SWAP2 SWAP1 POP JUMP JUMPDEST PUSH2 0xAC9 DUP2 PUSH2 0xAAE JUMP JUMPDEST DUP3 MSTORE POP POP JUMP JUMPDEST PUSH1 0x0 PUSH1 0x20 DUP3 ADD SWAP1 POP PUSH2 0xAE4 PUSH1 0x0 DUP4 ADD DUP5 PUSH2 0xAC0 JUMP JUMPDEST SWAP3 SWAP2 POP POP JUMP JUMPDEST PUSH1 0x0 DUP1 REVERT JUMPDEST PUSH1 0x4 DUP2 LT PUSH2 0xAFC JUMPI PUSH1 0x0 DUP1 REVERT JUMPDEST POP JUMP JUMPDEST PUSH1 0x0 DUP2 CALLDATALOAD SWAP1 POP PUSH2 0xB0E DUP2 PUSH2 0xAEF JUMP JUMPDEST SWAP3 SWAP2 POP POP JUMP JUMPDEST PUSH1 0x0 DUP2 SWAP1 POP SWAP2 SWAP1 POP JUMP JUMPDEST PUSH2 0xB27 DUP2 PUSH2 0xB14 JUMP JUMPDEST DUP2 EQ PUSH2 0xB32 JUMPI PUSH1 0x0 DUP1 REVERT JUMPDEST POP JUMP JUMPDEST PUSH1 0x0 DUP2 CALLDATALOAD SWAP1 POP PUSH2 0xB44 DUP2 PUSH2 0xB1E JUMP JUMPDEST SWAP3 SWAP2 POP POP JUMP JUMPDEST PUSH1 0x0 DUP1 PUSH1 0x40 DUP4 DUP6 SUB SLT ISZERO PUSH2 0xB61 JUMPI PUSH2 0xB60 PUSH2 0xAEA JUMP JUMPDEST JUMPDEST PUSH1 0x0 PUSH2 0xB6F DUP6 DUP3 DUP7 ADD PUSH2 0xAFF JUMP JUMPDEST SWAP3 POP POP PUSH1 0x20 PUSH2 0xB80 DUP6 DUP3 DUP7 ADD PUSH2 0xB35 JUMP JUMPDEST SWAP2 POP POP SWAP3 POP SWAP3 SWAP1 POP JUMP JUMPDEST PUSH1 0x0 PUSH1 0x20 DUP3 DUP5 SUB SLT ISZERO PUSH2 0xBA0 JUMPI PUSH2 0xB9F PUSH2 0xAEA JUMP JUMPDEST JUMPDEST PUSH1 0x0 PUSH2 0xBAE DUP5 DUP3 DUP6 ADD PUSH2 0xB35 JUMP JUMPDEST SWAP2 POP POP SWAP3 SWAP2 POP POP JUMP JUMPDEST PUSH1 0x0 DUP2 SWAP1 POP SWAP2 SWAP1 POP JUMP JUMPDEST PUSH2 0xBCA DUP2 PUSH2 0xBB7 JUMP JUMPDEST DUP2 EQ PUSH2 0xBD5 JUMPI PUSH1 0x0 DUP1 REVERT JUMPDEST POP JUMP JUMPDEST PUSH1 0x0 DUP2 CALLDATALOAD SWAP1 POP PUSH2 0xBE7 DUP2 PUSH2 0xBC1 JUMP JUMPDEST SWAP3 SWAP2 POP POP JUMP JUMPDEST PUSH1 0x0 PUSH1 0x20 DUP3 DUP5 SUB SLT ISZERO PUSH2 0xC03 JUMPI PUSH2 0xC02 PUSH2 0xAEA JUMP JUMPDEST JUMPDEST PUSH1 0x0 PUSH2 0xC11 DUP5 DUP3 DUP6 ADD PUSH2 0xBD8 JUMP JUMPDEST SWAP2 POP POP SWAP3 SWAP2 POP POP JUMP JUMPDEST PUSH32 0x4E487B7100000000000000000000000000000000000000000000000000000000 PUSH1 0x0 MSTORE PUSH1 0x21 PUSH1 0x4 MSTORE PUSH1 0x24 PUSH1 0x0 REVERT JUMPDEST PUSH1 0x4 DUP2 LT PUSH2 0xC5A JUMPI PUSH2 0xC59 PUSH2 0xC1A JUMP JUMPDEST JUMPDEST POP JUMP JUMPDEST PUSH1 0x0 DUP2 SWAP1 POP PUSH2 0xC6B DUP3 PUSH2 0xC49 JUMP JUMPDEST SWAP2 SWAP1 POP JUMP JUMPDEST PUSH1 0x0 PUSH2 0xC7B DUP3 PUSH2 0xC5D JUMP JUMPDEST SWAP1 POP SWAP2 SWAP1 POP JUMP JUMPDEST PUSH2 0xC8B DUP2 PUSH2 0xC70 JUMP JUMPDEST DUP3 MSTORE POP POP JUMP JUMPDEST PUSH2 0xC9A DUP2 PUSH2 0xB14 JUMP JUMPDEST DUP3 MSTORE POP POP JUMP JUMPDEST PUSH1 0x0 PUSH1 0x60 DUP3 ADD SWAP1 POP PUSH2 0xCB5 PUSH1 0x0 DUP4 ADD DUP7 PUSH2 0xAC0 JUMP JUMPDEST PUSH2 0xCC2 PUSH1 0x20 DUP4 ADD DUP6 PUSH2 0xC82 JUMP JUMPDEST PUSH2 0xCCF PUSH1 0x40 DUP4 ADD DUP5 PUSH2 0xC91 JUMP JUMPDEST SWAP5 SWAP4 POP POP POP POP JUMP JUMPDEST PUSH32 0x4E487B7100000000000000000000000000000000000000000000000000000000 PUSH1 0x0 MSTORE PUSH1 0x32 PUSH1 0x4 MSTORE PUSH1 0x24 PUSH1 0x0 REVERT JUMPDEST PUSH1 0x0 PUSH1 0x40 DUP3 ADD SWAP1 POP PUSH2 0xD1B PUSH1 0x0 DUP4 ADD DUP6 PUSH2 0xAC0 JUMP JUMPDEST PUSH2 0xD28 PUSH1 0x20 DUP4 ADD DUP5 PUSH2 0xAC0 JUMP JUMPDEST SWAP4 SWAP3 POP POP POP JUMP JUMPDEST PUSH1 0x0 DUP3 DUP3 MSTORE PUSH1 0x20 DUP3 ADD SWAP1 POP SWAP3 SWAP2 POP POP JUMP JUMPDEST PUSH32 0x496E76616C69642063616C6C0000000000000000000000000000000000000000 PUSH1 0x0 DUP3 ADD MSTORE POP JUMP JUMPDEST PUSH1 0x0 PUSH2 0xD76 PUSH1 0xC DUP4 PUSH2 0xD2F JUMP JUMPDEST SWAP2 POP PUSH2 0xD81 DUP3 PUSH2 0xD40 JUMP JUMPDEST PUSH1 0x20 DUP3 ADD SWAP1 POP SWAP2 SWAP1 POP JUMP JUMPDEST PUSH1 0x0 PUSH1 0x20 DUP3 ADD SWAP1 POP DUP2 DUP2 SUB PUSH1 0x0 DUP4 ADD MSTORE PUSH2 0xDA5 DUP2 PUSH2 0xD69 JUMP JUMPDEST SWAP1 POP SWAP2 SWAP1 POP JUMP JUMPDEST PUSH1 0x0 DUP2 PUSH1 0x60 SHL SWAP1 POP SWAP2 SWAP1 POP JUMP JUMPDEST PUSH1 0x0 PUSH2 0xDC4 DUP3 PUSH2 0xDAC JUMP JUMPDEST SWAP1 POP SWAP2 SWAP1 POP JUMP JUMPDEST PUSH1 0x0 PUSH2 0xDD6 DUP3 PUSH2 0xDB9 JUMP JUMPDEST SWAP1 POP SWAP2 SWAP1 POP JUMP JUMPDEST PUSH2 0xDEE PUSH2 0xDE9 DUP3 PUSH2 0xAAE JUMP JUMPDEST PUSH2 0xDCB JUMP JUMPDEST DUP3 MSTORE POP POP JUMP JUMPDEST PUSH1 0x0 DUP2 PUSH1 0xF8 SHL SWAP1 POP SWAP2 SWAP1 POP JUMP JUMPDEST PUSH1 0x0 PUSH2 0xE0C DUP3 PUSH2 0xDF4 JUMP JUMPDEST SWAP1 POP SWAP2 SWAP1 POP JUMP JUMPDEST PUSH2 0xE24 PUSH2 0xE1F DUP3 PUSH2 0xC70 JUMP JUMPDEST PUSH2 0xE01 JUMP JUMPDEST DUP3 MSTORE POP POP JUMP JUMPDEST PUSH1 0x0 DUP2 SWAP1 POP SWAP2 SWAP1 POP JUMP JUMPDEST PUSH2 0xE45 PUSH2 0xE40 DUP3 PUSH2 0xB14 JUMP JUMPDEST PUSH2 0xE2A JUMP JUMPDEST DUP3 MSTORE POP POP JUMP JUMPDEST PUSH1 0x0 PUSH2 0xE57 DUP3 DUP7 PUSH2 0xDDD JUMP JUMPDEST PUSH1 0x14 DUP3 ADD SWAP2 POP PUSH2 0xE67 DUP3 DUP6 PUSH2 0xE13 JUMP JUMPDEST PUSH1 0x1 DUP3 ADD SWAP2 POP PUSH2 0xE77 DUP3 DUP5 PUSH2 0xE34 JUMP JUMPDEST PUSH1 0x20 DUP3 ADD SWAP2 POP DUP2 SWAP1 POP SWAP5 SWAP4 POP POP POP POP JUMP INVALID LOG2 PUSH5 0x6970667358 0x22 SLT KECCAK256 GT 0xB1 CHAINID 0xB6 0xAB 0xE2 MSTORE 0xD8 CALLDATACOPY PUSH1 0xAF PUSH30 0xB0457090200E3B2A8102BB4573F4D520362AC02064736F6C634300081200 CALLER "
		},
		"gasEstimates": {
			"creation": {
				"codeDepositCost": "754800",
				"executionCost": "786",
				"totalCost": "755586"
			},
			"external": {
				"checkWinner()": "21010",
				"getAddress()": "363",
				"play(bytes32)": "31744",
				"players(uint256)": "7531",
				"registerPlayer()": "infinite",
				"reveal(uint8,bytes32)": "infinite"
			},
			"internal": {
				"getSaltedHash(enum RockPaperScissor.Choice,bytes32)": "infinite",
				"validateAndFindPlayerIndex()": "infinite"
			}
		},
		"methodIdentifiers": {
			"checkWinner()": "ad38867e",
			"getAddress()": "38cc4831",
			"play(bytes32)": "c7a1865b",
			"players(uint256)": "f71d96cb",
			"registerPlayer()": "5c07a4b0",
			"reveal(uint8,bytes32)": "3fc8ae06"
		}
	},
	"abi": [
		{
			"inputs": [
				{
					"internalType": "address",
					"name": "player1",
					"type": "address"
				},
				{
					"internalType": "address",
					"name": "player2",
					"type": "address"
				}
			],
			"name": "AllPlayersRegistered",
			"type": "error"
		},
		{
			"inputs": [],
			"name": "checkWinner",
			"outputs": [
				{
					"internalType": "address",
					"name": "",
					"type": "address"
				}
			],
			"stateMutability": "view",
			"type": "function"
		},
		{
			"inputs": [],
			"name": "getAddress",
			"outputs": [
				{
					"internalType": "address",
					"name": "",
					"type": "address"
				}
			],
			"stateMutability": "view",
			"type": "function"
		},
		{
			"inputs": [
				{
					"internalType": "bytes32",
					"name": "_commitHash",
					"type": "bytes32"
				}
			],
			"name": "play",
			"outputs": [],
			"stateMutability": "nonpayable",
			"type": "function"
		},
		{
			"inputs": [
				{
					"internalType": "uint256",
					"name": "",
					"type": "uint256"
				}
			],
			"name": "players",
			"outputs": [
				{
					"internalType": "address",
					"name": "player",
					"type": "address"
				},
				{
					"internalType": "enum RockPaperScissor.Choice",
					"name": "choice",
					"type": "uint8"
				},
				{
					"internalType": "bytes32",
					"name": "commitHash",
					"type": "bytes32"
				}
			],
			"stateMutability": "view",
			"type": "function"
		},
		{
			"inputs": [],
			"name": "registerPlayer",
			"outputs": [],
			"stateMutability": "nonpayable",
			"type": "function"
		},
		{
			"inputs": [
				{
					"internalType": "enum RockPaperScissor.Choice",
					"name": "_choice",
					"type": "uint8"
				},
				{
					"internalType": "bytes32",
					"name": "_salt",
					"type": "bytes32"
				}
			],
			"name": "reveal",
			"outputs": [],
			"stateMutability": "nonpayable",
			"type": "function"
		}
	]
}