{
	"data": {
		"bytecode": {
			"linkReferences": {
				"IlteratingMapping.sol": {
					"IterableMapping": [
						{
							"length": 20,
							"start": 94
						},
						{
							"length": 20,
							"start": 205
						},
						{
							"length": 20,
							"start": 317
						},
						{
							"length": 20,
							"start": 429
						},
						{
							"length": 20,
							"start": 541
						},
						{
							"length": 20,
							"start": 657
						},
						{
							"length": 20,
							"start": 788
						},
						{
							"length": 20,
							"start": 928
						},
						{
							"length": 20,
							"start": 1088
						},
						{
							"length": 20,
							"start": 1199
						},
						{
							"length": 20,
							"start": 1360
						},
						{
							"length": 20,
							"start": 1546
						},
						{
							"length": 20,
							"start": 1732
						}
					]
				}
			},
			"object": "608060405234801561001057600080fd5b50610caa806100206000396000f3fe608060405234801561001057600080fd5b506004361061002b5760003560e01c8063d230a0d514610030575b600080fd5b61003861003a565b005b600073__$e0adddc25097f0c821dfebf85e69d26875$__63bc2b405c90916000806040518463ffffffff1660e01b8152600401610079939291906107db565b60006040518083038186803b15801561009157600080fd5b505af41580156100a5573d6000803e3d6000fd5b50505050600073__$e0adddc25097f0c821dfebf85e69d26875$__63bc2b405c9091600160646040518463ffffffff1660e01b81526004016100e99392919061084d565b60006040518083038186803b15801561010157600080fd5b505af4158015610115573d6000803e3d6000fd5b50505050600073__$e0adddc25097f0c821dfebf85e69d26875$__63bc2b405c9091600260c86040518463ffffffff1660e01b8152600401610159939291906108bf565b60006040518083038186803b15801561017157600080fd5b505af4158015610185573d6000803e3d6000fd5b50505050600073__$e0adddc25097f0c821dfebf85e69d26875$__63bc2b405c9091600260c86040518463ffffffff1660e01b81526004016101c9939291906108bf565b60006040518083038186803b1580156101e157600080fd5b505af41580156101f5573d6000803e3d6000fd5b50505050600073__$e0adddc25097f0c821dfebf85e69d26875$__63bc2b405c9091600361012c6040518463ffffffff1660e01b815260040161023a93929190610931565b60006040518083038186803b15801561025257600080fd5b505af4158015610266573d6000803e3d6000fd5b5050505060005b600073__$e0adddc25097f0c821dfebf85e69d26875$__63deb3d89690916040518263ffffffff1660e01b81526004016102a79190610968565b602060405180830381865af41580156102c4573d6000803e3d6000fd5b505050506040513d601f19601f820116820180604052508101906102e891906109b4565b81101561041b5760008073__$e0adddc25097f0c821dfebf85e69d26875$__63d1aa9e7e9091846040518363ffffffff1660e01b815260040161032c9291906109f0565b602060405180830381865af4158015610349573d6000803e3d6000fd5b505050506040513d601f19601f8201168201806040525081019061036d9190610a45565b905060648261037c9190610aa1565b600073__$e0adddc25097f0c821dfebf85e69d26875$__63732a2ccf9091846040518363ffffffff1660e01b81526004016103b8929190610ae3565b602060405180830381865af41580156103d5573d6000803e3d6000fd5b505050506040513d601f19601f820116820180604052508101906103f991906109b4565b1461040757610406610b0c565b5b50808061041390610b3b565b91505061026d565b50600073__$e0adddc25097f0c821dfebf85e69d26875$__634c60db9c909160016040518363ffffffff1660e01b8152600401610459929190610ae3565b60006040518083038186803b15801561047157600080fd5b505af4158015610485573d6000803e3d6000fd5b505050506003600073__$e0adddc25097f0c821dfebf85e69d26875$__63deb3d89690916040518263ffffffff1660e01b81526004016104c59190610968565b602060405180830381865af41580156104e2573d6000803e3d6000fd5b505050506040513d601f19601f8201168201806040525081019061050691906109b4565b1461051457610513610b0c565b5b600073ffffffffffffffffffffffffffffffffffffffff16600073__$e0adddc25097f0c821dfebf85e69d26875$__63d1aa9e7e909160006040518363ffffffff1660e01b8152600401610569929190610b83565b602060405180830381865af4158015610586573d6000803e3d6000fd5b505050506040513d601f19601f820116820180604052508101906105aa9190610a45565b73ffffffffffffffffffffffffffffffffffffffff16146105ce576105cd610b0c565b5b600373ffffffffffffffffffffffffffffffffffffffff16600073__$e0adddc25097f0c821dfebf85e69d26875$__63d1aa9e7e909160016040518363ffffffff1660e01b8152600401610623929190610be7565b602060405180830381865af4158015610640573d6000803e3d6000fd5b505050506040513d601f19601f820116820180604052508101906106649190610a45565b73ffffffffffffffffffffffffffffffffffffffff161461068857610687610b0c565b5b600273ffffffffffffffffffffffffffffffffffffffff16600073__$e0adddc25097f0c821dfebf85e69d26875$__63d1aa9e7e909160026040518363ffffffff1660e01b81526004016106dd929190610c4b565b602060405180830381865af41580156106fa573d6000803e3d6000fd5b505050506040513d601f19601f8201168201806040525081019061071e9190610a45565b73ffffffffffffffffffffffffffffffffffffffff161461074257610741610b0c565b5b565b8082525050565b600073ffffffffffffffffffffffffffffffffffffffff82169050919050565b60006107768261074b565b9050919050565b6107868161076b565b82525050565b6000819050919050565b6000819050919050565b6000819050919050565b60006107c56107c06107bb8461078c565b6107a0565b610796565b9050919050565b6107d5816107aa565b82525050565b60006060820190506107f06000830186610744565b6107fd602083018561077d565b61080a60408301846107cc565b949350505050565b6000819050919050565b600061083761083261082d84610812565b6107a0565b610796565b9050919050565b6108478161081c565b82525050565b60006060820190506108626000830186610744565b61086f602083018561077d565b61087c604083018461083e565b949350505050565b6000819050919050565b60006108a96108a461089f84610884565b6107a0565b610796565b9050919050565b6108b98161088e565b82525050565b60006060820190506108d46000830186610744565b6108e1602083018561077d565b6108ee60408301846108b0565b949350505050565b6000819050919050565b600061091b610916610911846108f6565b6107a0565b610796565b9050919050565b61092b81610900565b82525050565b60006060820190506109466000830186610744565b610953602083018561077d565b6109606040830184610922565b949350505050565b600060208201905061097d6000830184610744565b92915050565b600080fd5b61099181610796565b811461099c57600080fd5b50565b6000815190506109ae81610988565b92915050565b6000602082840312156109ca576109c9610983565b5b60006109d88482850161099f565b91505092915050565b6109ea81610796565b82525050565b6000604082019050610a056000830185610744565b610a1260208301846109e1565b9392505050565b610a228161076b565b8114610a2d57600080fd5b50565b600081519050610a3f81610a19565b92915050565b600060208284031215610a5b57610a5a610983565b5b6000610a6984828501610a30565b91505092915050565b7f4e487b7100000000000000000000000000000000000000000000000000000000600052601160045260246000fd5b6000610aac82610796565b9150610ab783610796565b9250828202610ac581610796565b91508282048414831517610adc57610adb610a72565b5b5092915050565b6000604082019050610af86000830185610744565b610b05602083018461077d565b9392505050565b7f4e487b7100000000000000000000000000000000000000000000000000000000600052600160045260246000fd5b6000610b4682610796565b91507fffffffffffffffffffffffffffffffffffffffffffffffffffffffffffffffff8203610b7857610b77610a72565b5b600182019050919050565b6000604082019050610b986000830185610744565b610ba560208301846107cc565b9392505050565b6000819050919050565b6000610bd1610bcc610bc784610bac565b6107a0565b610796565b9050919050565b610be181610bb6565b82525050565b6000604082019050610bfc6000830185610744565b610c096020830184610bd8565b9392505050565b6000819050919050565b6000610c35610c30610c2b84610c10565b6107a0565b610796565b9050919050565b610c4581610c1a565b82525050565b6000604082019050610c606000830185610744565b610c6d6020830184610c3c565b939250505056fea2646970667358221220d975b6f28a06601845fbda42d29c261d057c5b12f7937700efc6d8af1e3aaa5a64736f6c63430008120033",
			"opcodes": "PUSH1 0x80 PUSH1 0x40 MSTORE CALLVALUE DUP1 ISZERO PUSH2 0x10 JUMPI PUSH1 0x0 DUP1 REVERT JUMPDEST POP PUSH2 0xCAA DUP1 PUSH2 0x20 PUSH1 0x0 CODECOPY PUSH1 0x0 RETURN INVALID PUSH1 0x80 PUSH1 0x40 MSTORE CALLVALUE DUP1 ISZERO PUSH2 0x10 JUMPI PUSH1 0x0 DUP1 REVERT JUMPDEST POP PUSH1 0x4 CALLDATASIZE LT PUSH2 0x2B JUMPI PUSH1 0x0 CALLDATALOAD PUSH1 0xE0 SHR DUP1 PUSH4 0xD230A0D5 EQ PUSH2 0x30 JUMPI JUMPDEST PUSH1 0x0 DUP1 REVERT JUMPDEST PUSH2 0x38 PUSH2 0x3A JUMP JUMPDEST STOP JUMPDEST PUSH1 0x0 PUSH20 0x0 PUSH4 0xBC2B405C SWAP1 SWAP2 PUSH1 0x0 DUP1 PUSH1 0x40 MLOAD DUP5 PUSH4 0xFFFFFFFF AND PUSH1 0xE0 SHL DUP2 MSTORE PUSH1 0x4 ADD PUSH2 0x79 SWAP4 SWAP3 SWAP2 SWAP1 PUSH2 0x7DB JUMP JUMPDEST PUSH1 0x0 PUSH1 0x40 MLOAD DUP1 DUP4 SUB DUP2 DUP7 DUP1 EXTCODESIZE ISZERO DUP1 ISZERO PUSH2 0x91 JUMPI PUSH1 0x0 DUP1 REVERT JUMPDEST POP GAS DELEGATECALL ISZERO DUP1 ISZERO PUSH2 0xA5 JUMPI RETURNDATASIZE PUSH1 0x0 DUP1 RETURNDATACOPY RETURNDATASIZE PUSH1 0x0 REVERT JUMPDEST POP POP POP POP PUSH1 0x0 PUSH20 0x0 PUSH4 0xBC2B405C SWAP1 SWAP2 PUSH1 0x1 PUSH1 0x64 PUSH1 0x40 MLOAD DUP5 PUSH4 0xFFFFFFFF AND PUSH1 0xE0 SHL DUP2 MSTORE PUSH1 0x4 ADD PUSH2 0xE9 SWAP4 SWAP3 SWAP2 SWAP1 PUSH2 0x84D JUMP JUMPDEST PUSH1 0x0 PUSH1 0x40 MLOAD DUP1 DUP4 SUB DUP2 DUP7 DUP1 EXTCODESIZE ISZERO DUP1 ISZERO PUSH2 0x101 JUMPI PUSH1 0x0 DUP1 REVERT JUMPDEST POP GAS DELEGATECALL ISZERO DUP1 ISZERO PUSH2 0x115 JUMPI RETURNDATASIZE PUSH1 0x0 DUP1 RETURNDATACOPY RETURNDATASIZE PUSH1 0x0 REVERT JUMPDEST POP POP POP POP PUSH1 0x0 PUSH20 0x0 PUSH4 0xBC2B405C SWAP1 SWAP2 PUSH1 0x2 PUSH1 0xC8 PUSH1 0x40 MLOAD DUP5 PUSH4 0xFFFFFFFF AND PUSH1 0xE0 SHL DUP2 MSTORE PUSH1 0x4 ADD PUSH2 0x159 SWAP4 SWAP3 SWAP2 SWAP1 PUSH2 0x8BF JUMP JUMPDEST PUSH1 0x0 PUSH1 0x40 MLOAD DUP1 DUP4 SUB DUP2 DUP7 DUP1 EXTCODESIZE ISZERO DUP1 ISZERO PUSH2 0x171 JUMPI PUSH1 0x0 DUP1 REVERT JUMPDEST POP GAS DELEGATECALL ISZERO DUP1 ISZERO PUSH2 0x185 JUMPI RETURNDATASIZE PUSH1 0x0 DUP1 RETURNDATACOPY RETURNDATASIZE PUSH1 0x0 REVERT JUMPDEST POP POP POP POP PUSH1 0x0 PUSH20 0x0 PUSH4 0xBC2B405C SWAP1 SWAP2 PUSH1 0x2 PUSH1 0xC8 PUSH1 0x40 MLOAD DUP5 PUSH4 0xFFFFFFFF AND PUSH1 0xE0 SHL DUP2 MSTORE PUSH1 0x4 ADD PUSH2 0x1C9 SWAP4 SWAP3 SWAP2 SWAP1 PUSH2 0x8BF JUMP JUMPDEST PUSH1 0x0 PUSH1 0x40 MLOAD DUP1 DUP4 SUB DUP2 DUP7 DUP1 EXTCODESIZE ISZERO DUP1 ISZERO PUSH2 0x1E1 JUMPI PUSH1 0x0 DUP1 REVERT JUMPDEST POP GAS DELEGATECALL ISZERO DUP1 ISZERO PUSH2 0x1F5 JUMPI RETURNDATASIZE PUSH1 0x0 DUP1 RETURNDATACOPY RETURNDATASIZE PUSH1 0x0 REVERT JUMPDEST POP POP POP POP PUSH1 0x0 PUSH20 0x0 PUSH4 0xBC2B405C SWAP1 SWAP2 PUSH1 0x3 PUSH2 0x12C PUSH1 0x40 MLOAD DUP5 PUSH4 0xFFFFFFFF AND PUSH1 0xE0 SHL DUP2 MSTORE PUSH1 0x4 ADD PUSH2 0x23A SWAP4 SWAP3 SWAP2 SWAP1 PUSH2 0x931 JUMP JUMPDEST PUSH1 0x0 PUSH1 0x40 MLOAD DUP1 DUP4 SUB DUP2 DUP7 DUP1 EXTCODESIZE ISZERO DUP1 ISZERO PUSH2 0x252 JUMPI PUSH1 0x0 DUP1 REVERT JUMPDEST POP GAS DELEGATECALL ISZERO DUP1 ISZERO PUSH2 0x266 JUMPI RETURNDATASIZE PUSH1 0x0 DUP1 RETURNDATACOPY RETURNDATASIZE PUSH1 0x0 REVERT JUMPDEST POP POP POP POP PUSH1 0x0 JUMPDEST PUSH1 0x0 PUSH20 0x0 PUSH4 0xDEB3D896 SWAP1 SWAP2 PUSH1 0x40 MLOAD DUP3 PUSH4 0xFFFFFFFF AND PUSH1 0xE0 SHL DUP2 MSTORE PUSH1 0x4 ADD PUSH2 0x2A7 SWAP2 SWAP1 PUSH2 0x968 JUMP JUMPDEST PUSH1 0x20 PUSH1 0x40 MLOAD DUP1 DUP4 SUB DUP2 DUP7 GAS DELEGATECALL ISZERO DUP1 ISZERO PUSH2 0x2C4 JUMPI RETURNDATASIZE PUSH1 0x0 DUP1 RETURNDATACOPY RETURNDATASIZE PUSH1 0x0 REVERT JUMPDEST POP POP POP POP PUSH1 0x40 MLOAD RETURNDATASIZE PUSH1 0x1F NOT PUSH1 0x1F DUP3 ADD AND DUP3 ADD DUP1 PUSH1 0x40 MSTORE POP DUP2 ADD SWAP1 PUSH2 0x2E8 SWAP2 SWAP1 PUSH2 0x9B4 JUMP JUMPDEST DUP2 LT ISZERO PUSH2 0x41B JUMPI PUSH1 0x0 DUP1 PUSH20 0x0 PUSH4 0xD1AA9E7E SWAP1 SWAP2 DUP5 PUSH1 0x40 MLOAD DUP4 PUSH4 0xFFFFFFFF AND PUSH1 0xE0 SHL DUP2 MSTORE PUSH1 0x4 ADD PUSH2 0x32C SWAP3 SWAP2 SWAP1 PUSH2 0x9F0 JUMP JUMPDEST PUSH1 0x20 PUSH1 0x40 MLOAD DUP1 DUP4 SUB DUP2 DUP7 GAS DELEGATECALL ISZERO DUP1 ISZERO PUSH2 0x349 JUMPI RETURNDATASIZE PUSH1 0x0 DUP1 RETURNDATACOPY RETURNDATASIZE PUSH1 0x0 REVERT JUMPDEST POP POP POP POP PUSH1 0x40 MLOAD RETURNDATASIZE PUSH1 0x1F NOT PUSH1 0x1F DUP3 ADD AND DUP3 ADD DUP1 PUSH1 0x40 MSTORE POP DUP2 ADD SWAP1 PUSH2 0x36D SWAP2 SWAP1 PUSH2 0xA45 JUMP JUMPDEST SWAP1 POP PUSH1 0x64 DUP3 PUSH2 0x37C SWAP2 SWAP1 PUSH2 0xAA1 JUMP JUMPDEST PUSH1 0x0 PUSH20 0x0 PUSH4 0x732A2CCF SWAP1 SWAP2 DUP5 PUSH1 0x40 MLOAD DUP4 PUSH4 0xFFFFFFFF AND PUSH1 0xE0 SHL DUP2 MSTORE PUSH1 0x4 ADD PUSH2 0x3B8 SWAP3 SWAP2 SWAP1 PUSH2 0xAE3 JUMP JUMPDEST PUSH1 0x20 PUSH1 0x40 MLOAD DUP1 DUP4 SUB DUP2 DUP7 GAS DELEGATECALL ISZERO DUP1 ISZERO PUSH2 0x3D5 JUMPI RETURNDATASIZE PUSH1 0x0 DUP1 RETURNDATACOPY RETURNDATASIZE PUSH1 0x0 REVERT JUMPDEST POP POP POP POP PUSH1 0x40 MLOAD RETURNDATASIZE PUSH1 0x1F NOT PUSH1 0x1F DUP3 ADD AND DUP3 ADD DUP1 PUSH1 0x40 MSTORE POP DUP2 ADD SWAP1 PUSH2 0x3F9 SWAP2 SWAP1 PUSH2 0x9B4 JUMP JUMPDEST EQ PUSH2 0x407 JUMPI PUSH2 0x406 PUSH2 0xB0C JUMP JUMPDEST JUMPDEST POP DUP1 DUP1 PUSH2 0x413 SWAP1 PUSH2 0xB3B JUMP JUMPDEST SWAP2 POP POP PUSH2 0x26D JUMP JUMPDEST POP PUSH1 0x0 PUSH20 0x0 PUSH4 0x4C60DB9C SWAP1 SWAP2 PUSH1 0x1 PUSH1 0x40 MLOAD DUP4 PUSH4 0xFFFFFFFF AND PUSH1 0xE0 SHL DUP2 MSTORE PUSH1 0x4 ADD PUSH2 0x459 SWAP3 SWAP2 SWAP1 PUSH2 0xAE3 JUMP JUMPDEST PUSH1 0x0 PUSH1 0x40 MLOAD DUP1 DUP4 SUB DUP2 DUP7 DUP1 EXTCODESIZE ISZERO DUP1 ISZERO PUSH2 0x471 JUMPI PUSH1 0x0 DUP1 REVERT JUMPDEST POP GAS DELEGATECALL ISZERO DUP1 ISZERO PUSH2 0x485 JUMPI RETURNDATASIZE PUSH1 0x0 DUP1 RETURNDATACOPY RETURNDATASIZE PUSH1 0x0 REVERT JUMPDEST POP POP POP POP PUSH1 0x3 PUSH1 0x0 PUSH20 0x0 PUSH4 0xDEB3D896 SWAP1 SWAP2 PUSH1 0x40 MLOAD DUP3 PUSH4 0xFFFFFFFF AND PUSH1 0xE0 SHL DUP2 MSTORE PUSH1 0x4 ADD PUSH2 0x4C5 SWAP2 SWAP1 PUSH2 0x968 JUMP JUMPDEST PUSH1 0x20 PUSH1 0x40 MLOAD DUP1 DUP4 SUB DUP2 DUP7 GAS DELEGATECALL ISZERO DUP1 ISZERO PUSH2 0x4E2 JUMPI RETURNDATASIZE PUSH1 0x0 DUP1 RETURNDATACOPY RETURNDATASIZE PUSH1 0x0 REVERT JUMPDEST POP POP POP POP PUSH1 0x40 MLOAD RETURNDATASIZE PUSH1 0x1F NOT PUSH1 0x1F DUP3 ADD AND DUP3 ADD DUP1 PUSH1 0x40 MSTORE POP DUP2 ADD SWAP1 PUSH2 0x506 SWAP2 SWAP1 PUSH2 0x9B4 JUMP JUMPDEST EQ PUSH2 0x514 JUMPI PUSH2 0x513 PUSH2 0xB0C JUMP JUMPDEST JUMPDEST PUSH1 0x0 PUSH20 0xFFFFFFFFFFFFFFFFFFFFFFFFFFFFFFFFFFFFFFFF AND PUSH1 0x0 PUSH20 0x0 PUSH4 0xD1AA9E7E SWAP1 SWAP2 PUSH1 0x0 PUSH1 0x40 MLOAD DUP4 PUSH4 0xFFFFFFFF AND PUSH1 0xE0 SHL DUP2 MSTORE PUSH1 0x4 ADD PUSH2 0x569 SWAP3 SWAP2 SWAP1 PUSH2 0xB83 JUMP JUMPDEST PUSH1 0x20 PUSH1 0x40 MLOAD DUP1 DUP4 SUB DUP2 DUP7 GAS DELEGATECALL ISZERO DUP1 ISZERO PUSH2 0x586 JUMPI RETURNDATASIZE PUSH1 0x0 DUP1 RETURNDATACOPY RETURNDATASIZE PUSH1 0x0 REVERT JUMPDEST POP POP POP POP PUSH1 0x40 MLOAD RETURNDATASIZE PUSH1 0x1F NOT PUSH1 0x1F DUP3 ADD AND DUP3 ADD DUP1 PUSH1 0x40 MSTORE POP DUP2 ADD SWAP1 PUSH2 0x5AA SWAP2 SWAP1 PUSH2 0xA45 JUMP JUMPDEST PUSH20 0xFFFFFFFFFFFFFFFFFFFFFFFFFFFFFFFFFFFFFFFF AND EQ PUSH2 0x5CE JUMPI PUSH2 0x5CD PUSH2 0xB0C JUMP JUMPDEST JUMPDEST PUSH1 0x3 PUSH20 0xFFFFFFFFFFFFFFFFFFFFFFFFFFFFFFFFFFFFFFFF AND PUSH1 0x0 PUSH20 0x0 PUSH4 0xD1AA9E7E SWAP1 SWAP2 PUSH1 0x1 PUSH1 0x40 MLOAD DUP4 PUSH4 0xFFFFFFFF AND PUSH1 0xE0 SHL DUP2 MSTORE PUSH1 0x4 ADD PUSH2 0x623 SWAP3 SWAP2 SWAP1 PUSH2 0xBE7 JUMP JUMPDEST PUSH1 0x20 PUSH1 0x40 MLOAD DUP1 DUP4 SUB DUP2 DUP7 GAS DELEGATECALL ISZERO DUP1 ISZERO PUSH2 0x640 JUMPI RETURNDATASIZE PUSH1 0x0 DUP1 RETURNDATACOPY RETURNDATASIZE PUSH1 0x0 REVERT JUMPDEST POP POP POP POP PUSH1 0x40 MLOAD RETURNDATASIZE PUSH1 0x1F NOT PUSH1 0x1F DUP3 ADD AND DUP3 ADD DUP1 PUSH1 0x40 MSTORE POP DUP2 ADD SWAP1 PUSH2 0x664 SWAP2 SWAP1 PUSH2 0xA45 JUMP JUMPDEST PUSH20 0xFFFFFFFFFFFFFFFFFFFFFFFFFFFFFFFFFFFFFFFF AND EQ PUSH2 0x688 JUMPI PUSH2 0x687 PUSH2 0xB0C JUMP JUMPDEST JUMPDEST PUSH1 0x2 PUSH20 0xFFFFFFFFFFFFFFFFFFFFFFFFFFFFFFFFFFFFFFFF AND PUSH1 0x0 PUSH20 0x0 PUSH4 0xD1AA9E7E SWAP1 SWAP2 PUSH1 0x2 PUSH1 0x40 MLOAD DUP4 PUSH4 0xFFFFFFFF AND PUSH1 0xE0 SHL DUP2 MSTORE PUSH1 0x4 ADD PUSH2 0x6DD SWAP3 SWAP2 SWAP1 PUSH2 0xC4B JUMP JUMPDEST PUSH1 0x20 PUSH1 0x40 MLOAD DUP1 DUP4 SUB DUP2 DUP7 GAS DELEGATECALL ISZERO DUP1 ISZERO PUSH2 0x6FA JUMPI RETURNDATASIZE PUSH1 0x0 DUP1 RETURNDATACOPY RETURNDATASIZE PUSH1 0x0 REVERT JUMPDEST POP POP POP POP PUSH1 0x40 MLOAD RETURNDATASIZE PUSH1 0x1F NOT PUSH1 0x1F DUP3 ADD AND DUP3 ADD DUP1 PUSH1 0x40 MSTORE POP DUP2 ADD SWAP1 PUSH2 0x71E SWAP2 SWAP1 PUSH2 0xA45 JUMP JUMPDEST PUSH20 0xFFFFFFFFFFFFFFFFFFFFFFFFFFFFFFFFFFFFFFFF AND EQ PUSH2 0x742 JUMPI PUSH2 0x741 PUSH2 0xB0C JUMP JUMPDEST JUMPDEST JUMP JUMPDEST DUP1 DUP3 MSTORE POP POP JUMP JUMPDEST PUSH1 0x0 PUSH20 0xFFFFFFFFFFFFFFFFFFFFFFFFFFFFFFFFFFFFFFFF DUP3 AND SWAP1 POP SWAP2 SWAP1 POP JUMP JUMPDEST PUSH1 0x0 PUSH2 0x776 DUP3 PUSH2 0x74B JUMP JUMPDEST SWAP1 POP SWAP2 SWAP1 POP JUMP JUMPDEST PUSH2 0x786 DUP2 PUSH2 0x76B JUMP JUMPDEST DUP3 MSTORE POP POP JUMP JUMPDEST PUSH1 0x0 DUP2 SWAP1 POP SWAP2 SWAP1 POP JUMP JUMPDEST PUSH1 0x0 DUP2 SWAP1 POP SWAP2 SWAP1 POP JUMP JUMPDEST PUSH1 0x0 DUP2 SWAP1 POP SWAP2 SWAP1 POP JUMP JUMPDEST PUSH1 0x0 PUSH2 0x7C5 PUSH2 0x7C0 PUSH2 0x7BB DUP5 PUSH2 0x78C JUMP JUMPDEST PUSH2 0x7A0 JUMP JUMPDEST PUSH2 0x796 JUMP JUMPDEST SWAP1 POP SWAP2 SWAP1 POP JUMP JUMPDEST PUSH2 0x7D5 DUP2 PUSH2 0x7AA JUMP JUMPDEST DUP3 MSTORE POP POP JUMP JUMPDEST PUSH1 0x0 PUSH1 0x60 DUP3 ADD SWAP1 POP PUSH2 0x7F0 PUSH1 0x0 DUP4 ADD DUP7 PUSH2 0x744 JUMP JUMPDEST PUSH2 0x7FD PUSH1 0x20 DUP4 ADD DUP6 PUSH2 0x77D JUMP JUMPDEST PUSH2 0x80A PUSH1 0x40 DUP4 ADD DUP5 PUSH2 0x7CC JUMP JUMPDEST SWAP5 SWAP4 POP POP POP POP JUMP JUMPDEST PUSH1 0x0 DUP2 SWAP1 POP SWAP2 SWAP1 POP JUMP JUMPDEST PUSH1 0x0 PUSH2 0x837 PUSH2 0x832 PUSH2 0x82D DUP5 PUSH2 0x812 JUMP JUMPDEST PUSH2 0x7A0 JUMP JUMPDEST PUSH2 0x796 JUMP JUMPDEST SWAP1 POP SWAP2 SWAP1 POP JUMP JUMPDEST PUSH2 0x847 DUP2 PUSH2 0x81C JUMP JUMPDEST DUP3 MSTORE POP POP JUMP JUMPDEST PUSH1 0x0 PUSH1 0x60 DUP3 ADD SWAP1 POP PUSH2 0x862 PUSH1 0x0 DUP4 ADD DUP7 PUSH2 0x744 JUMP JUMPDEST PUSH2 0x86F PUSH1 0x20 DUP4 ADD DUP6 PUSH2 0x77D JUMP JUMPDEST PUSH2 0x87C PUSH1 0x40 DUP4 ADD DUP5 PUSH2 0x83E JUMP JUMPDEST SWAP5 SWAP4 POP POP POP POP JUMP JUMPDEST PUSH1 0x0 DUP2 SWAP1 POP SWAP2 SWAP1 POP JUMP JUMPDEST PUSH1 0x0 PUSH2 0x8A9 PUSH2 0x8A4 PUSH2 0x89F DUP5 PUSH2 0x884 JUMP JUMPDEST PUSH2 0x7A0 JUMP JUMPDEST PUSH2 0x796 JUMP JUMPDEST SWAP1 POP SWAP2 SWAP1 POP JUMP JUMPDEST PUSH2 0x8B9 DUP2 PUSH2 0x88E JUMP JUMPDEST DUP3 MSTORE POP POP JUMP JUMPDEST PUSH1 0x0 PUSH1 0x60 DUP3 ADD SWAP1 POP PUSH2 0x8D4 PUSH1 0x0 DUP4 ADD DUP7 PUSH2 0x744 JUMP JUMPDEST PUSH2 0x8E1 PUSH1 0x20 DUP4 ADD DUP6 PUSH2 0x77D JUMP JUMPDEST PUSH2 0x8EE PUSH1 0x40 DUP4 ADD DUP5 PUSH2 0x8B0 JUMP JUMPDEST SWAP5 SWAP4 POP POP POP POP JUMP JUMPDEST PUSH1 0x0 DUP2 SWAP1 POP SWAP2 SWAP1 POP JUMP JUMPDEST PUSH1 0x0 PUSH2 0x91B PUSH2 0x916 PUSH2 0x911 DUP5 PUSH2 0x8F6 JUMP JUMPDEST PUSH2 0x7A0 JUMP JUMPDEST PUSH2 0x796 JUMP JUMPDEST SWAP1 POP SWAP2 SWAP1 POP JUMP JUMPDEST PUSH2 0x92B DUP2 PUSH2 0x900 JUMP JUMPDEST DUP3 MSTORE POP POP JUMP JUMPDEST PUSH1 0x0 PUSH1 0x60 DUP3 ADD SWAP1 POP PUSH2 0x946 PUSH1 0x0 DUP4 ADD DUP7 PUSH2 0x744 JUMP JUMPDEST PUSH2 0x953 PUSH1 0x20 DUP4 ADD DUP6 PUSH2 0x77D JUMP JUMPDEST PUSH2 0x960 PUSH1 0x40 DUP4 ADD DUP5 PUSH2 0x922 JUMP JUMPDEST SWAP5 SWAP4 POP POP POP POP JUMP JUMPDEST PUSH1 0x0 PUSH1 0x20 DUP3 ADD SWAP1 POP PUSH2 0x97D PUSH1 0x0 DUP4 ADD DUP5 PUSH2 0x744 JUMP JUMPDEST SWAP3 SWAP2 POP POP JUMP JUMPDEST PUSH1 0x0 DUP1 REVERT JUMPDEST PUSH2 0x991 DUP2 PUSH2 0x796 JUMP JUMPDEST DUP2 EQ PUSH2 0x99C JUMPI PUSH1 0x0 DUP1 REVERT JUMPDEST POP JUMP JUMPDEST PUSH1 0x0 DUP2 MLOAD SWAP1 POP PUSH2 0x9AE DUP2 PUSH2 0x988 JUMP JUMPDEST SWAP3 SWAP2 POP POP JUMP JUMPDEST PUSH1 0x0 PUSH1 0x20 DUP3 DUP5 SUB SLT ISZERO PUSH2 0x9CA JUMPI PUSH2 0x9C9 PUSH2 0x983 JUMP JUMPDEST JUMPDEST PUSH1 0x0 PUSH2 0x9D8 DUP5 DUP3 DUP6 ADD PUSH2 0x99F JUMP JUMPDEST SWAP2 POP POP SWAP3 SWAP2 POP POP JUMP JUMPDEST PUSH2 0x9EA DUP2 PUSH2 0x796 JUMP JUMPDEST DUP3 MSTORE POP POP JUMP JUMPDEST PUSH1 0x0 PUSH1 0x40 DUP3 ADD SWAP1 POP PUSH2 0xA05 PUSH1 0x0 DUP4 ADD DUP6 PUSH2 0x744 JUMP JUMPDEST PUSH2 0xA12 PUSH1 0x20 DUP4 ADD DUP5 PUSH2 0x9E1 JUMP JUMPDEST SWAP4 SWAP3 POP POP POP JUMP JUMPDEST PUSH2 0xA22 DUP2 PUSH2 0x76B JUMP JUMPDEST DUP2 EQ PUSH2 0xA2D JUMPI PUSH1 0x0 DUP1 REVERT JUMPDEST POP JUMP JUMPDEST PUSH1 0x0 DUP2 MLOAD SWAP1 POP PUSH2 0xA3F DUP2 PUSH2 0xA19 JUMP JUMPDEST SWAP3 SWAP2 POP POP JUMP JUMPDEST PUSH1 0x0 PUSH1 0x20 DUP3 DUP5 SUB SLT ISZERO PUSH2 0xA5B JUMPI PUSH2 0xA5A PUSH2 0x983 JUMP JUMPDEST JUMPDEST PUSH1 0x0 PUSH2 0xA69 DUP5 DUP3 DUP6 ADD PUSH2 0xA30 JUMP JUMPDEST SWAP2 POP POP SWAP3 SWAP2 POP POP JUMP JUMPDEST PUSH32 0x4E487B7100000000000000000000000000000000000000000000000000000000 PUSH1 0x0 MSTORE PUSH1 0x11 PUSH1 0x4 MSTORE PUSH1 0x24 PUSH1 0x0 REVERT JUMPDEST PUSH1 0x0 PUSH2 0xAAC DUP3 PUSH2 0x796 JUMP JUMPDEST SWAP2 POP PUSH2 0xAB7 DUP4 PUSH2 0x796 JUMP JUMPDEST SWAP3 POP DUP3 DUP3 MUL PUSH2 0xAC5 DUP2 PUSH2 0x796 JUMP JUMPDEST SWAP2 POP DUP3 DUP3 DIV DUP5 EQ DUP4 ISZERO OR PUSH2 0xADC JUMPI PUSH2 0xADB PUSH2 0xA72 JUMP JUMPDEST JUMPDEST POP SWAP3 SWAP2 POP POP JUMP JUMPDEST PUSH1 0x0 PUSH1 0x40 DUP3 ADD SWAP1 POP PUSH2 0xAF8 PUSH1 0x0 DUP4 ADD DUP6 PUSH2 0x744 JUMP JUMPDEST PUSH2 0xB05 PUSH1 0x20 DUP4 ADD DUP5 PUSH2 0x77D JUMP JUMPDEST SWAP4 SWAP3 POP POP POP JUMP JUMPDEST PUSH32 0x4E487B7100000000000000000000000000000000000000000000000000000000 PUSH1 0x0 MSTORE PUSH1 0x1 PUSH1 0x4 MSTORE PUSH1 0x24 PUSH1 0x0 REVERT JUMPDEST PUSH1 0x0 PUSH2 0xB46 DUP3 PUSH2 0x796 JUMP JUMPDEST SWAP2 POP PUSH32 0xFFFFFFFFFFFFFFFFFFFFFFFFFFFFFFFFFFFFFFFFFFFFFFFFFFFFFFFFFFFFFFFF DUP3 SUB PUSH2 0xB78 JUMPI PUSH2 0xB77 PUSH2 0xA72 JUMP JUMPDEST JUMPDEST PUSH1 0x1 DUP3 ADD SWAP1 POP SWAP2 SWAP1 POP JUMP JUMPDEST PUSH1 0x0 PUSH1 0x40 DUP3 ADD SWAP1 POP PUSH2 0xB98 PUSH1 0x0 DUP4 ADD DUP6 PUSH2 0x744 JUMP JUMPDEST PUSH2 0xBA5 PUSH1 0x20 DUP4 ADD DUP5 PUSH2 0x7CC JUMP JUMPDEST SWAP4 SWAP3 POP POP POP JUMP JUMPDEST PUSH1 0x0 DUP2 SWAP1 POP SWAP2 SWAP1 POP JUMP JUMPDEST PUSH1 0x0 PUSH2 0xBD1 PUSH2 0xBCC PUSH2 0xBC7 DUP5 PUSH2 0xBAC JUMP JUMPDEST PUSH2 0x7A0 JUMP JUMPDEST PUSH2 0x796 JUMP JUMPDEST SWAP1 POP SWAP2 SWAP1 POP JUMP JUMPDEST PUSH2 0xBE1 DUP2 PUSH2 0xBB6 JUMP JUMPDEST DUP3 MSTORE POP POP JUMP JUMPDEST PUSH1 0x0 PUSH1 0x40 DUP3 ADD SWAP1 POP PUSH2 0xBFC PUSH1 0x0 DUP4 ADD DUP6 PUSH2 0x744 JUMP JUMPDEST PUSH2 0xC09 PUSH1 0x20 DUP4 ADD DUP5 PUSH2 0xBD8 JUMP JUMPDEST SWAP4 SWAP3 POP POP POP JUMP JUMPDEST PUSH1 0x0 DUP2 SWAP1 POP SWAP2 SWAP1 POP JUMP JUMPDEST PUSH1 0x0 PUSH2 0xC35 PUSH2 0xC30 PUSH2 0xC2B DUP5 PUSH2 0xC10 JUMP JUMPDEST PUSH2 0x7A0 JUMP JUMPDEST PUSH2 0x796 JUMP JUMPDEST SWAP1 POP SWAP2 SWAP1 POP JUMP JUMPDEST PUSH2 0xC45 DUP2 PUSH2 0xC1A JUMP JUMPDEST DUP3 MSTORE POP POP JUMP JUMPDEST PUSH1 0x0 PUSH1 0x40 DUP3 ADD SWAP1 POP PUSH2 0xC60 PUSH1 0x0 DUP4 ADD DUP6 PUSH2 0x744 JUMP JUMPDEST PUSH2 0xC6D PUSH1 0x20 DUP4 ADD DUP5 PUSH2 0xC3C JUMP JUMPDEST SWAP4 SWAP3 POP POP POP JUMP INVALID LOG2 PUSH5 0x6970667358 0x22 SLT KECCAK256 0xD9 PUSH22 0xB6F28A06601845FBDA42D29C261D057C5B12F7937700 0xEF 0xC6 0xD8 0xAF 0x1E GASPRICE 0xAA GAS PUSH5 0x736F6C6343 STOP ADDMOD SLT STOP CALLER "
		},
		"gasEstimates": {
			"creation": {
				"codeDepositCost": "648400",
				"executionCost": "683",
				"totalCost": "649083"
			},
			"external": {
				"testIterableMap()": "infinite"
			}
		},
		"methodIdentifiers": {
			"testIterableMap()": "d230a0d5"
		}
	},
	"abi": [
		{
			"inputs": [],
			"name": "testIterableMap",
			"outputs": [],
			"stateMutability": "nonpayable",
			"type": "function"
		}
	]
}